{
  "address": "0x1105bd1D8C952C24E73f6866177FAD7Bfb35e13D",
  "abi": [
    {
      "inputs": [
        {
          "internalType": "contract BALLEv2",
          "name": "_balle",
          "type": "address"
        },
        {
          "internalType": "uint256",
          "name": "_ballePerBlock",
          "type": "uint256"
        },
        {
          "internalType": "uint256",
          "name": "_balleTotalRewards",
          "type": "uint256"
        },
        {
          "internalType": "uint256",
          "name": "_startBlock",
          "type": "uint256"
        }
      ],
      "stateMutability": "nonpayable",
      "type": "constructor"
    },
    {
      "anonymous": false,
      "inputs": [
        {
          "indexed": true,
          "internalType": "uint256",
          "name": "vid",
          "type": "uint256"
        },
        {
          "indexed": false,
          "internalType": "uint256",
          "name": "allocPoint",
          "type": "uint256"
        }
      ],
      "name": "ActivateRewards",
      "type": "event"
    },
    {
      "anonymous": false,
      "inputs": [
        {
          "indexed": true,
          "internalType": "uint256",
          "name": "vid",
          "type": "uint256"
        }
      ],
      "name": "DeactivateRewards",
      "type": "event"
    },
    {
      "anonymous": false,
      "inputs": [
        {
          "indexed": true,
          "internalType": "address",
          "name": "user",
          "type": "address"
        },
        {
          "indexed": true,
          "internalType": "uint256",
          "name": "vid",
          "type": "uint256"
        },
        {
          "indexed": false,
          "internalType": "uint256",
          "name": "amount",
          "type": "uint256"
        },
        {
          "indexed": false,
          "internalType": "uint256",
          "name": "rewards",
          "type": "uint256"
        }
      ],
      "name": "Deposit",
      "type": "event"
    },
    {
      "anonymous": false,
      "inputs": [
        {
          "indexed": true,
          "internalType": "uint256",
          "name": "vid",
          "type": "uint256"
        },
        {
          "indexed": true,
          "internalType": "address",
          "name": "strat",
          "type": "address"
        }
      ],
      "name": "EmergencyStratUpgrade",
      "type": "event"
    },
    {
      "anonymous": false,
      "inputs": [
        {
          "indexed": true,
          "internalType": "address",
          "name": "user",
          "type": "address"
        },
        {
          "indexed": true,
          "internalType": "uint256",
          "name": "vid",
          "type": "uint256"
        },
        {
          "indexed": false,
          "internalType": "uint256",
          "name": "amount",
          "type": "uint256"
        }
      ],
      "name": "EmergencyWithdraw",
      "type": "event"
    },
    {
      "anonymous": false,
      "inputs": [
        {
          "indexed": true,
          "internalType": "uint256",
          "name": "vid",
          "type": "uint256"
        },
        {
          "indexed": false,
          "internalType": "uint256",
          "name": "allocPoint",
          "type": "uint256"
        }
      ],
      "name": "ModifyRewards",
      "type": "event"
    },
    {
      "anonymous": false,
      "inputs": [
        {
          "indexed": true,
          "internalType": "address",
          "name": "previousOwner",
          "type": "address"
        },
        {
          "indexed": true,
          "internalType": "address",
          "name": "newOwner",
          "type": "address"
        }
      ],
      "name": "OwnershipTransferred",
      "type": "event"
    },
    {
      "anonymous": false,
      "inputs": [
        {
          "indexed": true,
          "internalType": "uint256",
          "name": "vid",
          "type": "uint256"
        }
      ],
      "name": "PanicVault",
      "type": "event"
    },
    {
      "anonymous": false,
      "inputs": [
        {
          "indexed": true,
          "internalType": "uint256",
          "name": "vid",
          "type": "uint256"
        }
      ],
      "name": "PauseVault",
      "type": "event"
    },
    {
      "anonymous": false,
      "inputs": [
        {
          "indexed": true,
          "internalType": "uint256",
          "name": "vid",
          "type": "uint256"
        }
      ],
      "name": "RetireVault",
      "type": "event"
    },
    {
      "anonymous": false,
      "inputs": [
        {
          "indexed": true,
          "internalType": "uint256",
          "name": "vid",
          "type": "uint256"
        }
      ],
      "name": "UnpauseVault",
      "type": "event"
    },
    {
      "anonymous": false,
      "inputs": [
        {
          "indexed": true,
          "internalType": "address",
          "name": "user",
          "type": "address"
        },
        {
          "indexed": true,
          "internalType": "uint256",
          "name": "vid",
          "type": "uint256"
        },
        {
          "indexed": false,
          "internalType": "uint256",
          "name": "amount",
          "type": "uint256"
        },
        {
          "indexed": false,
          "internalType": "uint256",
          "name": "rewards",
          "type": "uint256"
        }
      ],
      "name": "Withdraw",
      "type": "event"
    },
    {
      "inputs": [
        {
          "internalType": "uint256",
          "name": "_vid",
          "type": "uint256"
        },
        {
          "internalType": "uint256",
          "name": "_allocPoint",
          "type": "uint256"
        }
      ],
      "name": "activateVaultRewards",
      "outputs": [],
      "stateMutability": "nonpayable",
      "type": "function"
    },
    {
      "inputs": [
        {
          "internalType": "address",
          "name": "_depositToken",
          "type": "address"
        },
        {
          "internalType": "address",
          "name": "_strat",
          "type": "address"
        }
      ],
      "name": "addVault",
      "outputs": [],
      "stateMutability": "nonpayable",
      "type": "function"
    },
    {
      "inputs": [],
      "name": "balle",
      "outputs": [
        {
          "internalType": "contract BALLEv2",
          "name": "",
          "type": "address"
        }
      ],
      "stateMutability": "view",
      "type": "function"
    },
    {
      "inputs": [],
      "name": "ballePerBlock",
      "outputs": [
        {
          "internalType": "uint256",
          "name": "",
          "type": "uint256"
        }
      ],
      "stateMutability": "view",
      "type": "function"
    },
    {
      "inputs": [],
      "name": "balleToMint",
      "outputs": [
        {
          "internalType": "uint256",
          "name": "",
          "type": "uint256"
        }
      ],
      "stateMutability": "view",
      "type": "function"
    },
    {
      "inputs": [],
      "name": "balleTotalRewards",
      "outputs": [
        {
          "internalType": "uint256",
          "name": "",
          "type": "uint256"
        }
      ],
      "stateMutability": "view",
      "type": "function"
    },
    {
      "inputs": [
        {
          "internalType": "uint256",
          "name": "_vid",
          "type": "uint256"
        }
      ],
      "name": "deactivateVaultRewards",
      "outputs": [],
      "stateMutability": "nonpayable",
      "type": "function"
    },
    {
      "inputs": [
        {
          "internalType": "uint256",
          "name": "_vid",
          "type": "uint256"
        },
        {
          "internalType": "uint256",
          "name": "_amount",
          "type": "uint256"
        }
      ],
      "name": "deposit",
      "outputs": [],
      "stateMutability": "nonpayable",
      "type": "function"
    },
    {
      "inputs": [
        {
          "internalType": "uint256",
          "name": "_vid",
          "type": "uint256"
        }
      ],
      "name": "depositAll",
      "outputs": [],
      "stateMutability": "nonpayable",
      "type": "function"
    },
    {
      "inputs": [
        {
          "internalType": "uint256",
          "name": "_vid",
          "type": "uint256"
        },
        {
          "internalType": "address",
          "name": "_user",
          "type": "address"
        }
      ],
      "name": "depositTokens",
      "outputs": [
        {
          "internalType": "uint256",
          "name": "",
          "type": "uint256"
        }
      ],
      "stateMutability": "view",
      "type": "function"
    },
    {
      "inputs": [
        {
          "internalType": "uint256",
          "name": "_vid",
          "type": "uint256"
        }
      ],
      "name": "emergencyWithdraw",
      "outputs": [],
      "stateMutability": "nonpayable",
      "type": "function"
    },
    {
      "inputs": [],
      "name": "endBlock",
      "outputs": [
        {
          "internalType": "uint256",
          "name": "",
          "type": "uint256"
        }
      ],
      "stateMutability": "view",
      "type": "function"
    },
    {
      "inputs": [
        {
          "internalType": "uint256",
          "name": "_from",
          "type": "uint256"
        },
        {
          "internalType": "uint256",
          "name": "_to",
          "type": "uint256"
        }
      ],
      "name": "getBlockMultiplier",
      "outputs": [
        {
          "internalType": "uint256",
          "name": "",
          "type": "uint256"
        }
      ],
      "stateMutability": "view",
      "type": "function"
    },
    {
      "inputs": [
        {
          "internalType": "address",
          "name": "_token",
          "type": "address"
        },
        {
          "internalType": "uint256",
          "name": "_amount",
          "type": "uint256"
        },
        {
          "internalType": "address",
          "name": "_to",
          "type": "address"
        }
      ],
      "name": "inCaseTokensGetStuck",
      "outputs": [],
      "stateMutability": "nonpayable",
      "type": "function"
    },
    {
      "inputs": [
        {
          "internalType": "uint256",
          "name": "_vid",
          "type": "uint256"
        },
        {
          "internalType": "uint256",
          "name": "_allocPoint",
          "type": "uint256"
        }
      ],
      "name": "modifyVaultRewards",
      "outputs": [],
      "stateMutability": "nonpayable",
      "type": "function"
    },
    {
      "inputs": [],
      "name": "operations",
      "outputs": [
        {
          "internalType": "address",
          "name": "",
          "type": "address"
        }
      ],
      "stateMutability": "view",
      "type": "function"
    },
    {
      "inputs": [],
      "name": "owner",
      "outputs": [
        {
          "internalType": "address",
          "name": "",
          "type": "address"
        }
      ],
      "stateMutability": "view",
      "type": "function"
    },
    {
      "inputs": [
        {
          "internalType": "uint256",
          "name": "_vid",
          "type": "uint256"
        }
      ],
      "name": "panicVault",
      "outputs": [],
      "stateMutability": "nonpayable",
      "type": "function"
    },
    {
      "inputs": [
        {
          "internalType": "uint256",
          "name": "_vid",
          "type": "uint256"
        }
      ],
      "name": "pauseVault",
      "outputs": [],
      "stateMutability": "nonpayable",
      "type": "function"
    },
    {
      "inputs": [
        {
          "internalType": "uint256",
          "name": "_vid",
          "type": "uint256"
        },
        {
          "internalType": "address",
          "name": "_user",
          "type": "address"
        }
      ],
      "name": "pendingRewards",
      "outputs": [
        {
          "internalType": "uint256",
          "name": "",
          "type": "uint256"
        }
      ],
      "stateMutability": "view",
      "type": "function"
    },
    {
      "inputs": [],
      "name": "renounceOwnership",
      "outputs": [],
      "stateMutability": "nonpayable",
      "type": "function"
    },
    {
      "inputs": [
        {
          "internalType": "uint256",
          "name": "_vid",
          "type": "uint256"
        }
      ],
      "name": "retireVault",
      "outputs": [],
      "stateMutability": "nonpayable",
      "type": "function"
    },
    {
      "inputs": [],
      "name": "security",
      "outputs": [
        {
          "internalType": "address",
          "name": "",
          "type": "address"
        }
      ],
      "stateMutability": "view",
      "type": "function"
    },
    {
      "inputs": [
        {
          "internalType": "address",
          "name": "_operations",
          "type": "address"
        }
      ],
      "name": "setOperations",
      "outputs": [],
      "stateMutability": "nonpayable",
      "type": "function"
    },
    {
      "inputs": [
        {
          "internalType": "address",
          "name": "_security",
          "type": "address"
        }
      ],
      "name": "setSecurity",
      "outputs": [],
      "stateMutability": "nonpayable",
      "type": "function"
    },
    {
      "inputs": [],
      "name": "startBlock",
      "outputs": [
        {
          "internalType": "uint256",
          "name": "",
          "type": "uint256"
        }
      ],
      "stateMutability": "view",
      "type": "function"
    },
    {
      "inputs": [],
      "name": "totalAllocPoint",
      "outputs": [
        {
          "internalType": "uint256",
          "name": "",
          "type": "uint256"
        }
      ],
      "stateMutability": "view",
      "type": "function"
    },
    {
      "inputs": [
        {
          "internalType": "address",
          "name": "newOwner",
          "type": "address"
        }
      ],
      "name": "transferOwnership",
      "outputs": [],
      "stateMutability": "nonpayable",
      "type": "function"
    },
    {
      "inputs": [
        {
          "internalType": "uint256",
          "name": "_vid",
          "type": "uint256"
        }
      ],
      "name": "unpauseVault",
      "outputs": [],
      "stateMutability": "nonpayable",
      "type": "function"
    },
    {
      "inputs": [
        {
          "internalType": "uint256",
          "name": "_vid",
          "type": "uint256"
        },
        {
          "internalType": "address",
          "name": "_user",
          "type": "address"
        }
      ],
      "name": "userDeposit",
      "outputs": [
        {
          "internalType": "uint256",
          "name": "",
          "type": "uint256"
        }
      ],
      "stateMutability": "view",
      "type": "function"
    },
    {
      "inputs": [
        {
          "internalType": "uint256",
          "name": "",
          "type": "uint256"
        },
        {
          "internalType": "address",
          "name": "",
          "type": "address"
        }
      ],
      "name": "userInfo",
      "outputs": [
        {
          "internalType": "uint256",
          "name": "deposit",
          "type": "uint256"
        },
        {
          "internalType": "uint256",
          "name": "shares",
          "type": "uint256"
        },
        {
          "internalType": "uint256",
          "name": "rewardDebt",
          "type": "uint256"
        }
      ],
      "stateMutability": "view",
      "type": "function"
    },
    {
      "inputs": [
        {
          "internalType": "uint256",
          "name": "",
          "type": "uint256"
        }
      ],
      "name": "vaultInfo",
      "outputs": [
        {
          "internalType": "contract IERC20",
          "name": "depositToken",
          "type": "address"
        },
        {
          "internalType": "address",
          "name": "strat",
          "type": "address"
        },
        {
          "internalType": "uint256",
          "name": "allocPoint",
          "type": "uint256"
        },
        {
          "internalType": "uint256",
          "name": "lastRewardBlock",
          "type": "uint256"
        },
        {
          "internalType": "uint256",
          "name": "accBallePerShare",
          "type": "uint256"
        },
        {
          "internalType": "bool",
          "name": "rewardsActive",
          "type": "bool"
        },
        {
          "internalType": "bool",
          "name": "paused",
          "type": "bool"
        },
        {
          "internalType": "bool",
          "name": "retired",
          "type": "bool"
        }
      ],
      "stateMutability": "view",
      "type": "function"
    },
    {
      "inputs": [],
      "name": "vaultLength",
      "outputs": [
        {
          "internalType": "uint256",
          "name": "",
          "type": "uint256"
        }
      ],
      "stateMutability": "view",
      "type": "function"
    },
    {
      "inputs": [
        {
          "internalType": "uint256",
          "name": "_vid",
          "type": "uint256"
        },
        {
          "internalType": "uint256",
          "name": "_amount",
          "type": "uint256"
        }
      ],
      "name": "withdraw",
      "outputs": [],
      "stateMutability": "nonpayable",
      "type": "function"
    },
    {
      "inputs": [
        {
          "internalType": "uint256",
          "name": "_vid",
          "type": "uint256"
        }
      ],
      "name": "withdrawAll",
      "outputs": [],
      "stateMutability": "nonpayable",
      "type": "function"
    }
  ],
  "transactionHash": "0x9ffce746cb5ff81cf8aff9faefb04ef668ecbf48f0a6910378770176dba0e34f",
  "args": [
    "0x9714C04b34E6300964161c3aC37b86451E79152d",
    "2283105022831050",
    "24000000000000000000000",
    7779016
  ],
  "solcInputHash": "2b5d29f5c93056a0a0d71fd6ab7a06ab",
  "bytecode": "0x60e0604052600060045560006005553480156200001b57600080fd5b50604051620035df380380620035df8339810160408190526200003e91620000a8565b600080546001600160a01b031916339081178255604051909182917f8be0079c531659141344cd1fd0a4f28419497f9722a3daafe3b4186f6b6457e0908290a3506001805560609390931b6001600160601b03191660805260a09190915260c052600255620000f3565b60008060008060808587031215620000be578384fd5b84516001600160a01b0381168114620000d5578485fd5b60208601516040870151606090970151919890975090945092505050565b60805160601c60a05160c0516134656200017a6000396000818161036b01526106c30152600081816102c4015281816106a201528181611a67015261289101526000818161050a0152818161131601528181612939015281816129e701528181612a6801528181612b0b01528181612bb101528181612c580152612cff01526134656000f3fe608060405234801561001057600080fd5b50600436106102105760003560e01c80635ebac9b511610125578063bc0838fc116100ad578063d18df53c1161007c578063d18df53c146104f2578063ded0da1014610505578063e2bbb1581461052c578063ec3a78231461053f578063f2fde38b1461055257610210565b8063bc0838fc146104a6578063c150ad1a146104b9578063c32c1e65146104cc578063c6f678bd146104df57610210565b80638da5cb5b116100f45780638da5cb5b146103bb578063929060d8146103cc57806393f1a40b1461042b578063958e2d3114610480578063acd3d32d1461049357610210565b80635ebac9b51461036657806367206d401461038d578063715018a6146103a05780638b33b4b2146103a857610210565b80633f6770f8116101a85780634b30b422116101775780634b30b422146102ef5780634f6300a21461030257806352228054146103155780635312ea8e14610328578063548799181461033b57610210565b80633f6770f814610299578063441a3e70146102ac57806344bd5b4f146102bf57806348cd4cb1146102e657610210565b80631ab69eb2116101e45780631ab69eb2146102625780632b5b0a97146102755780632b68772c1461027e578063360f07301461028657610210565b80629ddce51461021557806304da17761461022a578063083c63231461025057806317caf6f114610259575b600080fd5b6102286102233660046131d4565b610565565b005b61023d6102383660046131b0565b610773565b6040519081526020015b60405180910390f35b61023d60035481565b61023d60045481565b610228610270366004613180565b61079d565b61023d60055481565b60085461023d565b610228610294366004613180565b610921565b6102286102a7366004613180565b610a3c565b6102286102ba3660046131d4565b610ba6565b61023d7f000000000000000000000000000000000000000000000000000000000000000081565b61023d60025481565b6102286102fd366004613180565b610c04565b61023d6103103660046131b0565b610d87565b6102286103233660046130af565b610f17565b610228610336366004613180565b610f89565b60075461034e906001600160a01b031681565b6040516001600160a01b039091168152602001610247565b61023d7f000000000000000000000000000000000000000000000000000000000000000081565b61022861039b36600461311f565b6112c4565b610228611397565b60065461034e906001600160a01b031681565b6000546001600160a01b031661034e565b6103df6103da366004613180565b61140b565b604080516001600160a01b03998a1681529890971660208901529587019490945260608601929092526080850152151560a0840152151560c0830152151560e082015261010001610247565b6104656104393660046131b0565b600960209081526000928352604080842090915290825290208054600182015460029092015490919083565b60408051938452602084019290925290820152606001610247565b61022861048e366004613180565b611474565b61023d6104a13660046131d4565b6114af565b6102286104b43660046131d4565b611506565b6102286104c7366004613180565b61166a565b6102286104da3660046130af565b6117ed565b6102286104ed366004613180565b61185f565b61023d6105003660046131b0565b61194b565b61034e7f000000000000000000000000000000000000000000000000000000000000000081565b61022861053a3660046131d4565b611aff565b61022861054d3660046130e7565b611b54565b6102286105603660046130af565b611e30565b6006546001600160a01b031633148061058857506000546001600160a01b031633145b6105ad5760405162461bcd60e51b81526004016105a4906132a1565b60405180910390fd5b600854829081106105d05760405162461bcd60e51b81526004016105a4906132c6565b6000600884815481106105f357634e487b7160e01b600052603260045260246000fd5b60009182526020909120600690910201600581015490915060ff16156106445760405162461bcd60e51b815260206004820152600660248201526561637469766560d01b60448201526064016105a4565b600083116106825760405162461bcd60e51b815260206004820152600b60248201526a08585b1b1bd8dc1bda5b9d60aa1b60448201526064016105a4565b61068a611f1a565b60025461069657436002555b6003546106f8576106e77f00000000000000000000000000000000000000000000000000000000000000007f0000000000000000000000000000000000000000000000000000000000000000613390565b6002546106f49190613378565b6003555b6004544390610708908590613378565b6004908155600283018590556003830182905560058301805460ff1916600117905560009083015560405185907fba13fd9b2f2ae67565b95a27e65b1e9ebf5b1d3be4d048c3327b5037f022816b906107649087815260200190565b60405180910390a25050505050565b60008281526009602090815260408083206001600160a01b03851684529091529020545b92915050565b6006546001600160a01b03163314806107c057506000546001600160a01b031633145b6107dc5760405162461bcd60e51b81526004016105a4906132a1565b600854819081106107ff5760405162461bcd60e51b81526004016105a4906132c6565b60006008838154811061082257634e487b7160e01b600052603260045260246000fd5b906000526020600020906006020190508060050160019054906101000a900460ff1661087a5760405162461bcd60e51b8152602060048201526007602482015266085c185d5cd95960ca1b60448201526064016105a4565b60058101805461ff001916905560405183907ff0e9a7ca64cb0a05f6f08c4e5889a1553af34e656e524ca3f7d7da67e5ae071390600090a28060010160009054906101000a90046001600160a01b03166001600160a01b0316633f4ba83a6040518163ffffffff1660e01b8152600401600060405180830381600087803b15801561090457600080fd5b505af1158015610918573d6000803e3d6000fd5b50505050505050565b6006546001600160a01b031633148061094457506000546001600160a01b031633145b6109605760405162461bcd60e51b81526004016105a4906132a1565b600854819081106109835760405162461bcd60e51b81526004016105a4906132c6565b6000600883815481106109a657634e487b7160e01b600052603260045260246000fd5b60009182526020909120600690910201600581015490915060ff166109dd5760405162461bcd60e51b81526004016105a490613280565b6109e5611f1a565b80600201546004546109f791906133cf565b60045560006002820181905560058201805460ff1916905560405184917fb8b83da790f78135db4aec46ee97590874ea01f3cd58912bb00f308d072fda2691a2505050565b6006546001600160a01b0316331480610a5f57506000546001600160a01b031633145b610a7b5760405162461bcd60e51b81526004016105a4906132a1565b60085481908110610a9e5760405162461bcd60e51b81526004016105a4906132c6565b600060088381548110610ac157634e487b7160e01b600052603260045260246000fd5b906000526020600020906006020190508060050160029054906101000a900460ff1615610b005760405162461bcd60e51b81526004016105a490613280565b600581015460ff1615610b1657610b1683610921565b60058101805462ff000019166201000017905560405183907f774f9a1333327bdc185469e0e44bfcf9df7f8fd96ab10acb8132ecc0b474c3cc90600090a28060010160009054906101000a90046001600160a01b03166001600160a01b031663a4874d776040518163ffffffff1660e01b8152600401600060405180830381600087803b15801561090457600080fd5b60026001541415610bc95760405162461bcd60e51b81526004016105a490613341565b600260015560085482908110610bf15760405162461bcd60e51b81526004016105a4906132c6565b610bfb8383611f45565b50506001805550565b6006546001600160a01b0316331480610c2757506000546001600160a01b031633145b80610c3c57506007546001600160a01b031633145b610c745760405162461bcd60e51b815260206004820152600960248201526821736563757269747960b81b60448201526064016105a4565b60085481908110610c975760405162461bcd60e51b81526004016105a4906132c6565b600060088381548110610cba57634e487b7160e01b600052603260045260246000fd5b906000526020600020906006020190508060050160019054906101000a900460ff1615610cf95760405162461bcd60e51b81526004016105a490613280565b60058101805461ff00191661010017905560405183907f24f9af3d65d1b908bfe521985a4182e283f3ecdd85f728ccd2f47b8e1a93df9890600090a28060010160009054906101000a90046001600160a01b03166001600160a01b0316634700d3056040518163ffffffff1660e01b8152600401600060405180830381600087803b15801561090457600080fd5b60008060088481548110610dab57634e487b7160e01b600052603260045260246000fd5b600091825260208083208784526009825260408085206001600160a01b03808a16875290845281862060016006909602909301948501548251632251caaf60e11b815292519597509295949216926344a3955e92600480840193829003018186803b158015610e1957600080fd5b505afa158015610e2d573d6000803e3d6000fd5b505050506040513d601f19601f82011682018060405250810190610e519190613198565b905060008360010160009054906101000a90046001600160a01b03166001600160a01b0316634adae0da6040518163ffffffff1660e01b815260040160206040518083038186803b158015610ea557600080fd5b505afa158015610eb9573d6000803e3d6000fd5b505050506040513d601f19601f82011682018060405250810190610edd9190613198565b905081610ef1576000945050505050610797565b81818460010154610f0291906133b0565b610f0c9190613390565b979650505050505050565b6000546001600160a01b03163314610f415760405162461bcd60e51b81526004016105a4906132e6565b6001600160a01b038116610f675760405162461bcd60e51b81526004016105a49061331b565b600780546001600160a01b0319166001600160a01b0392909216919091179055565b60026001541415610fac5760405162461bcd60e51b81526004016105a490613341565b600260015560085481908110610fd45760405162461bcd60e51b81526004016105a4906132c6565b600060088381548110610ff757634e487b7160e01b600052603260045260246000fd5b6000918252602080832086845260098252604080852033865283528085206006949094029091016001810154825163256d706d60e11b815292519196509394936001600160a01b031692634adae0da9260048082019391829003018186803b15801561106257600080fd5b505afa158015611076573d6000803e3d6000fd5b505050506040513d601f19601f8201168201806040525081019061109a9190613198565b905060008360010160009054906101000a90046001600160a01b03166001600160a01b03166344a3955e6040518163ffffffff1660e01b815260040160206040518083038186803b1580156110ee57600080fd5b505afa158015611102573d6000803e3d6000fd5b505050506040513d601f19601f820116820180604052508101906111269190613198565b905060008183856001015461113b91906133b0565b6111459190613390565b60006001808701829055818755600287019190915586015460405163f3fef3a360e01b81529192506001600160a01b03169063f3fef3a39061118d9033908590600401613234565b6040805180830381600087803b1580156111a657600080fd5b505af11580156111ba573d6000803e3d6000fd5b505050506040513d601f19601f820116820180604052508101906111de91906131f5565b505084546040516370a0823160e01b81523060048201526000916001600160a01b0316906370a082319060240160206040518083038186803b15801561122357600080fd5b505afa158015611237573d6000803e3d6000fd5b505050506040513d601f19601f8201168201806040525081019061125b9190613198565b905081811015611269578091505b855461127f906001600160a01b0316338461239d565b604051828152889033907fbb757047c2b5f3974fe26b7c10f732e7bce710b0952a71082702781e62ae05959060200160405180910390a3505060018055505050505050565b6000546001600160a01b031633146112ee5760405162461bcd60e51b81526004016105a4906132e6565b6001600160a01b0381166113145760405162461bcd60e51b81526004016105a49061331b565b7f00000000000000000000000000000000000000000000000000000000000000006001600160a01b0316836001600160a01b0316141561137e5760405162461bcd60e51b8152602060048201526005602482015264217361666560d81b60448201526064016105a4565b6113926001600160a01b038416828461239d565b505050565b6000546001600160a01b031633146113c15760405162461bcd60e51b81526004016105a4906132e6565b600080546040516001600160a01b03909116907f8be0079c531659141344cd1fd0a4f28419497f9722a3daafe3b4186f6b6457e0908390a3600080546001600160a01b0319169055565b6008818154811061141b57600080fd5b60009182526020909120600690910201805460018201546002830154600384015460048501546005909501546001600160a01b0394851696509390921693909260ff808216916101008104821691620100009091041688565b600260015414156114975760405162461bcd60e51b81526004016105a490613341565b60026001556114a881600019611f45565b5060018055565b60006002548210156114c357506000610797565b6003548311156114d557506000610797565b6002548310156114e55760025492505b6003548211156114f55760035491505b6114ff83836133cf565b9392505050565b6006546001600160a01b031633148061152957506000546001600160a01b031633145b6115455760405162461bcd60e51b81526004016105a4906132a1565b600854829081106115685760405162461bcd60e51b81526004016105a4906132c6565b60006008848154811061158b57634e487b7160e01b600052603260045260246000fd5b60009182526020909120600690910201600581015490915060ff166115c25760405162461bcd60e51b81526004016105a490613280565b600083116116005760405162461bcd60e51b815260206004820152600b60248201526a08585b1b1bd8dc1bda5b9d60aa1b60448201526064016105a4565b611608611f1a565b82816002015460045461161b91906133cf565b6116259190613378565b6004556002810183905560405183815284907f54ca8df74b9602d422d5c5e11eece496fd3d57504eba7dec5915ef0171c896169060200160405180910390a250505050565b6006546001600160a01b031633148061168d57506000546001600160a01b031633145b806116a257506007546001600160a01b031633145b6116da5760405162461bcd60e51b815260206004820152600960248201526821736563757269747960b81b60448201526064016105a4565b600854819081106116fd5760405162461bcd60e51b81526004016105a4906132c6565b60006008838154811061172057634e487b7160e01b600052603260045260246000fd5b906000526020600020906006020190508060050160019054906101000a900460ff161561175f5760405162461bcd60e51b81526004016105a490613280565b60058101805461ff00191661010017905560405183907f85f2f9c18c35f0b299bc3787e4166b64d3d8ae0e48d288bf7bcc608130d6b9bf90600090a28060010160009054906101000a90046001600160a01b03166001600160a01b0316638456cb596040518163ffffffff1660e01b8152600401600060405180830381600087803b15801561090457600080fd5b6000546001600160a01b031633146118175760405162461bcd60e51b81526004016105a4906132e6565b6001600160a01b03811661183d5760405162461bcd60e51b81526004016105a49061331b565b600680546001600160a01b0319166001600160a01b0392909216919091179055565b600260015414156118825760405162461bcd60e51b81526004016105a490613341565b60026001819055506000600882815481106118ad57634e487b7160e01b600052603260045260246000fd5b6000918252602090912060069091020180546040516370a0823160e01b81523360048201529192506119439184916001600160a01b0316906370a082319060240160206040518083038186803b15801561190657600080fd5b505afa15801561191a573d6000803e3d6000fd5b505050506040513d601f19601f8201168201806040525081019061193e9190613198565b6123f3565b505060018055565b6000806008848154811061196f57634e487b7160e01b600052603260045260246000fd5b600091825260208083208784526009825260408085206001600160a01b03898116875290845281862060069590950290920160048181015460018301548451632251caaf60e11b815294519399509697909690959416936344a3955e9380830193919290829003018186803b1580156119e757600080fd5b505afa1580156119fb573d6000803e3d6000fd5b505050506040513d601f19601f82011682018060405250810190611a1f9190613198565b600585015490915060ff168015611a395750836003015443115b8015611a4457508015155b15611ad0576000611a598560030154436114af565b9050600060045486600201547f000000000000000000000000000000000000000000000000000000000000000084611a9191906133b0565b611a9b91906133b0565b611aa59190613390565b905082611ab78264e8d4a510006133b0565b611ac19190613390565b611acb9085613378565b935050505b826002015464e8d4a51000838560010154611aeb91906133b0565b611af59190613390565b610f0c91906133cf565b60026001541415611b225760405162461bcd60e51b81526004016105a490613341565b600260015560085482908110611b4a5760405162461bcd60e51b81526004016105a4906132c6565b610bfb83836123f3565b6006546001600160a01b0316331480611b7757506000546001600160a01b031633145b611b935760405162461bcd60e51b81526004016105a4906132a1565b6001600160a01b038116611bd25760405162461bcd60e51b8152602060048201526006602482015265085cdd1c985d60d21b60448201526064016105a4565b806001600160a01b031663c89039c56040518163ffffffff1660e01b815260040160206040518083038186803b158015611c0b57600080fd5b505afa158015611c1f573d6000803e3d6000fd5b505050506040513d601f19601f82011682018060405250810190611c4391906130cb565b6001600160a01b0316826001600160a01b031614611c935760405162461bcd60e51b815260206004820152600d60248201526c10b232b837b9b4ba2a37b5b2b760991b60448201526064016105a4565b6040805161010080820183526001600160a01b039485168252928416602082019081526000928201838152606083018481526080840185815260a0850186815260c0860187815260e08701888152600880546001810182559952965160069098027ff3f7a9fe364faab93b216da50a3214154f22a0a2b415b23a84c8169e8b636ee381018054998c166001600160a01b03199a8b1617905595517ff3f7a9fe364faab93b216da50a3214154f22a0a2b415b23a84c8169e8b636ee48701805491909b1698169790971790985591517ff3f7a9fe364faab93b216da50a3214154f22a0a2b415b23a84c8169e8b636ee5840155517ff3f7a9fe364faab93b216da50a3214154f22a0a2b415b23a84c8169e8b636ee6830155517ff3f7a9fe364faab93b216da50a3214154f22a0a2b415b23a84c8169e8b636ee782015593517ff3f7a9fe364faab93b216da50a3214154f22a0a2b415b23a84c8169e8b636ee89094018054925191511515620100000262ff00001992151590940261ff00199515159590951661ffff19909316929092179390931792909216179055565b6000546001600160a01b03163314611e5a5760405162461bcd60e51b81526004016105a4906132e6565b6001600160a01b038116611ebf5760405162461bcd60e51b815260206004820152602660248201527f4f776e61626c653a206e6577206f776e657220697320746865207a65726f206160448201526564647265737360d01b60648201526084016105a4565b600080546040516001600160a01b03808516939216917f8be0079c531659141344cd1fd0a4f28419497f9722a3daafe3b4186f6b6457e091a3600080546001600160a01b0319166001600160a01b0392909216919091179055565b60085460005b81811015611f4157611f3181612777565b611f3a81613412565b9050611f20565b5050565b611f4e82612777565b600060088381548110611f7157634e487b7160e01b600052603260045260246000fd5b6000918252602080832086845260098252604080852033865283528085206006949094029091016001810154825163256d706d60e11b815292519196509394936001600160a01b031692634adae0da9260048082019391829003018186803b158015611fdc57600080fd5b505afa158015611ff0573d6000803e3d6000fd5b505050506040513d601f19601f820116820180604052508101906120149190613198565b905060008360010160009054906101000a90046001600160a01b03166001600160a01b03166344a3955e6040518163ffffffff1660e01b815260040160206040518083038186803b15801561206857600080fd5b505afa15801561207c573d6000803e3d6000fd5b505050506040513d601f19601f820116820180604052508101906120a09190613198565b9050600081116120e15760405162461bcd60e51b815260206004820152600c60248201526b085cda185c995cd51bdd185b60a21b60448201526064016105a4565b60008360010154116121245760405162461bcd60e51b815260206004820152600c60248201526b21757365722e73686172657360a01b60448201526064016105a4565b6000836002015464e8d4a510008660040154866001015461214591906133b0565b61214f9190613390565b61215991906133cf565b9050801561216b5761216b3382612921565b60008284866001015461217e91906133b0565b6121889190613390565b905080871115612196578096505b861561232d57600186015460405163f3fef3a360e01b815260009182916001600160a01b039091169063f3fef3a3906121d59033908d90600401613234565b6040805180830381600087803b1580156121ee57600080fd5b505af1158015612202573d6000803e3d6000fd5b505050506040513d601f19601f8201168201806040525081019061222691906131f5565b915091508660010154821061224557600060018801819055875561228a565b81876001015461225591906133cf565b600188015561226482866133cf565b61226e82886133cf565b886001015461227d91906133b0565b6122879190613390565b87555b87546040516370a0823160e01b81523060048201526000916001600160a01b0316906370a082319060240160206040518083038186803b1580156122cd57600080fd5b505afa1580156122e1573d6000803e3d6000fd5b505050506040513d601f19601f820116820180604052508101906123059190613198565b905081811015612313578091505b8854612329906001600160a01b0316338461239d565b5050505b64e8d4a510008660040154866001015461234791906133b0565b6123519190613390565b60028601556040805188815260208101849052899133917f02f25270a4d87bea75db541cdfe559334a275b4a233520ed6c0a2429667cca94910160405180910390a35050505050505050565b6113928363a9059cbb60e01b84846040516024016123bc929190613234565b60408051601f198184030181529190526020810180516001600160e01b03166001600160e01b031990931692909217909152612d8e565b6123fc82612777565b60006008838154811061241f57634e487b7160e01b600052603260045260246000fd5b6000918252602080832086845260098252604080852033865290925290832060018101546006909302909101935091901561249957816002015464e8d4a510008460040154846001015461247391906133b0565b61247d9190613390565b61248791906133cf565b90508015612499576124993382612921565b6000841180156124b357506005830154610100900460ff16155b80156124ca5750600583015462010000900460ff16155b1561270a5782546124e6906001600160a01b0316333087612e60565b60018301548354612504916001600160a01b03918216911686612e98565b60006008868154811061252757634e487b7160e01b600052603260045260246000fd5b60009182526020909120600160069092020101546040516311f9fbc960e21b81526001600160a01b03909116906347e7ef249061256a9033908990600401613234565b602060405180830381600087803b15801561258457600080fd5b505af1158015612598573d6000803e3d6000fd5b505050506040513d601f19601f820116820180604052508101906125bc9190613198565b905060008460010160009054906101000a90046001600160a01b03166001600160a01b03166344a3955e6040518163ffffffff1660e01b815260040160206040518083038186803b15801561261057600080fd5b505afa158015612624573d6000803e3d6000fd5b505050506040513d601f19601f820116820180604052508101906126489190613198565b905060008560010160009054906101000a90046001600160a01b03166001600160a01b0316634adae0da6040518163ffffffff1660e01b815260040160206040518083038186803b15801561269c57600080fd5b505afa1580156126b0573d6000803e3d6000fd5b505050506040513d601f19601f820116820180604052508101906126d49190613198565b90508285600101546126e69190613378565b6001860181905582906126fa9083906133b0565b6127049190613390565b85555050505b64e8d4a510008360040154836001015461272491906133b0565b61272e9190613390565b60028301556040805185815260208101839052869133917f36af321ec8d3c75236829c5317affd40ddb308863a1236d2d277a4025cccee1e910160405180910390a35050505050565b60006008828154811061279a57634e487b7160e01b600052603260045260246000fd5b60009182526020909120600690910201600581015490915060ff166127bf575061291e565b806003015443116127d0575061291e565b600181015460408051632251caaf60e11b815290516000926001600160a01b0316916344a3955e916004808301926020929190829003018186803b15801561281757600080fd5b505afa15801561282b573d6000803e3d6000fd5b505050506040513d601f19601f8201168201806040525081019061284f9190613198565b90508061286357504360039091015561291e565b60006128738360030154436114af565b9050600081116128855750505061291e565b600060045484600201547f0000000000000000000000000000000000000000000000000000000000000000846128bb91906133b0565b6128c591906133b0565b6128cf9190613390565b9050806005546128df9190613378565b600555826128f28264e8d4a510006133b0565b6128fc9190613390565b846004015461290b9190613378565b6004850155505043600390920191909155505b50565b6040516370a0823160e01b81523060048201526000907f00000000000000000000000000000000000000000000000000000000000000006001600160a01b0316906370a082319060240160206040518083038186803b15801561298357600080fd5b505afa158015612997573d6000803e3d6000fd5b505050506040513d601f19601f820116820180604052508101906129bb9190613198565b905080821115612ce85760055415612c41576005546040516340c10f1960e01b81526001600160a01b037f000000000000000000000000000000000000000000000000000000000000000016916340c10f1991612a1c913091600401613234565b600060405180830381600087803b158015612a3657600080fd5b505af1158015612a4a573d6000803e3d6000fd5b5050600060055550506040516370a0823160e01b81523060048201527f00000000000000000000000000000000000000000000000000000000000000006001600160a01b0316906370a082319060240160206040518083038186803b158015612ab257600080fd5b505afa158015612ac6573d6000803e3d6000fd5b505050506040513d601f19601f82011682018060405250810190612aea9190613198565b905080821115612b9a5760405163a9059cbb60e01b81526001600160a01b037f0000000000000000000000000000000000000000000000000000000000000000169063a9059cbb90612b429086908590600401613234565b602060405180830381600087803b158015612b5c57600080fd5b505af1158015612b70573d6000803e3d6000fd5b505050506040513d601f19601f82011682018060405250810190612b949190613160565b50612c3c565b60405163a9059cbb60e01b81526001600160a01b037f0000000000000000000000000000000000000000000000000000000000000000169063a9059cbb90612be89086908690600401613234565b602060405180830381600087803b158015612c0257600080fd5b505af1158015612c16573d6000803e3d6000fd5b505050506040513d601f19601f82011682018060405250810190612c3a9190613160565b505b612ce3565b60405163a9059cbb60e01b81526001600160a01b037f0000000000000000000000000000000000000000000000000000000000000000169063a9059cbb90612c8f9086908590600401613234565b602060405180830381600087803b158015612ca957600080fd5b505af1158015612cbd573d6000803e3d6000fd5b505050506040513d601f19601f82011682018060405250810190612ce19190613160565b505b611392565b60405163a9059cbb60e01b81526001600160a01b037f0000000000000000000000000000000000000000000000000000000000000000169063a9059cbb90612d369086908690600401613234565b602060405180830381600087803b158015612d5057600080fd5b505af1158015612d64573d6000803e3d6000fd5b505050506040513d601f19601f82011682018060405250810190612d889190613160565b50505050565b6000612de3826040518060400160405280602081526020017f5361666545524332303a206c6f772d6c6576656c2063616c6c206661696c6564815250856001600160a01b0316612f479092919063ffffffff16565b8051909150156113925780806020019051810190612e019190613160565b6113925760405162461bcd60e51b815260206004820152602a60248201527f5361666545524332303a204552433230206f7065726174696f6e20646964206e6044820152691bdd081cdd58d8d9595960b21b60648201526084016105a4565b6040516001600160a01b0380851660248301528316604482015260648101829052612d889085906323b872dd60e01b906084016123bc565b604051636eb1769f60e11b81523060048201526001600160a01b038381166024830152600091839186169063dd62ed3e9060440160206040518083038186803b158015612ee457600080fd5b505afa158015612ef8573d6000803e3d6000fd5b505050506040513d601f19601f82011682018060405250810190612f1c9190613198565b612f269190613378565b9050612d888463095ea7b360e01b85846040516024016123bc929190613234565b6060612f568484600085612f5e565b949350505050565b606082471015612fbf5760405162461bcd60e51b815260206004820152602660248201527f416464726573733a20696e73756666696369656e742062616c616e636520666f6044820152651c8818d85b1b60d21b60648201526084016105a4565b843b61300d5760405162461bcd60e51b815260206004820152601d60248201527f416464726573733a2063616c6c20746f206e6f6e2d636f6e747261637400000060448201526064016105a4565b600080866001600160a01b031685876040516130299190613218565b60006040518083038185875af1925050503d8060008114613066576040519150601f19603f3d011682016040523d82523d6000602084013e61306b565b606091505b5091509150610f0c828286606083156130855750816114ff565b8251156130955782518084602001fd5b8160405162461bcd60e51b81526004016105a4919061324d565b6000602082840312156130c0578081fd5b81356114ff81613443565b6000602082840312156130dc578081fd5b81516114ff81613443565b600080604083850312156130f9578081fd5b823561310481613443565b9150602083013561311481613443565b809150509250929050565b600080600060608486031215613133578081fd5b833561313e81613443565b925060208401359150604084013561315581613443565b809150509250925092565b600060208284031215613171578081fd5b815180151581146114ff578182fd5b600060208284031215613191578081fd5b5035919050565b6000602082840312156131a9578081fd5b5051919050565b600080604083850312156131c2578182fd5b82359150602083013561311481613443565b600080604083850312156131e6578182fd5b50508035926020909101359150565b60008060408385031215613207578182fd5b505080516020909101519092909150565b6000825161322a8184602087016133e6565b9190910192915050565b6001600160a01b03929092168252602082015260400190565b600060208252825180602084015261326c8160408501602087016133e6565b601f01601f19169190910160400192915050565b6020808252600790820152662161637469766560c81b604082015260600190565b6020808252600b908201526a216f7065726174696f6e7360a81b604082015260600190565b602080825260069082015265085d985d5b1d60d21b604082015260600190565b6020808252818101527f4f776e61626c653a2063616c6c6572206973206e6f7420746865206f776e6572604082015260600190565b6020808252600c908201526b7a65726f206164647265737360a01b604082015260600190565b6020808252601f908201527f5265656e7472616e637947756172643a207265656e7472616e742063616c6c00604082015260600190565b6000821982111561338b5761338b61342d565b500190565b6000826133ab57634e487b7160e01b81526012600452602481fd5b500490565b60008160001904831182151516156133ca576133ca61342d565b500290565b6000828210156133e1576133e161342d565b500390565b60005b838110156134015781810151838201526020016133e9565b83811115612d885750506000910152565b60006000198214156134265761342661342d565b5060010190565b634e487b7160e01b600052601160045260246000fd5b6001600160a01b038116811461291e57600080fdfea164736f6c6343000803000a",
  "devdoc": {
    "details": "Implementation of the Master of BALLE. This contract will take care of all reward calculations and distribution of BALLE tokens in vaults. The owner of the contract is the Governance Gnosis Safe multisig.",
    "kind": "dev",
    "methods": {
      "activateVaultRewards(uint256,uint256)": {
        "details": "Function to activate vault rewards."
      },
      "addVault(address,address)": {
        "details": "Function to add a new vault configuration."
      },
      "deactivateVaultRewards(uint256)": {
        "details": "Function to deactivate vault rewards."
      },
      "deposit(uint256,uint256)": {
        "details": "Function that deposits user tokens."
      },
      "depositAll(uint256)": {
        "details": "Function that deposits all user tokens balance."
      },
      "depositTokens(uint256,address)": {
        "details": "View function to see user's deposit tokens on frontend."
      },
      "emergencyWithdraw(uint256)": {
        "details": "Function that withdraws without caring about rewards. EMERGENCY ONLY."
      },
      "getBlockMultiplier(uint256,uint256)": {
        "details": "View function to calculate the reward multiplier over the given _from to _to block."
      },
      "inCaseTokensGetStuck(address,uint256,address)": {
        "details": "Function to use from Governance Gnosis Safe multisig only in case tokens get stuck. This is to be used if someone, for example, sends tokens to the contract by mistake. There is no guarantee governance will vote to return these."
      },
      "modifyVaultRewards(uint256,uint256)": {
        "details": "Function to modify vault rewards."
      },
      "owner()": {
        "details": "Returns the address of the current owner."
      },
      "panicVault(uint256)": {
        "details": "Function to panic vault strategy."
      },
      "pauseVault(uint256)": {
        "details": "Function to pause vault strategy."
      },
      "pendingRewards(uint256,address)": {
        "details": "View function to see pending BALLE rewards on frontend."
      },
      "renounceOwnership()": {
        "details": "Leaves the contract without owner. It will not be possible to call `onlyOwner` functions anymore. Can only be called by the current owner. NOTE: Renouncing ownership will leave the contract without an owner, thereby removing any functionality that is only available to the owner."
      },
      "retireVault(uint256)": {
        "details": "Function to retire vault strategy."
      },
      "setOperations(address)": {
        "details": "Function to change the Operations Gnosis Safe multisig."
      },
      "setSecurity(address)": {
        "details": "Function to change the Security Gnosis Safe multisig."
      },
      "transferOwnership(address)": {
        "details": "Transfers ownership of the contract to a new account (`newOwner`). Can only be called by the current owner."
      },
      "unpauseVault(uint256)": {
        "details": "Function to unpause vault strategy."
      },
      "userDeposit(uint256,address)": {
        "details": "View function to see user's deposited tokens on frontend. This is useful to show the earnings: depositTokens() - userDeposit()"
      },
      "vaultLength()": {
        "details": "View function to get the number of vaults configured."
      },
      "withdraw(uint256,uint256)": {
        "details": "Function that withdraws user tokens."
      },
      "withdrawAll(uint256)": {
        "details": "Function that withdraws all user tokens balance."
      }
    },
    "version": 1
  },
  "userdoc": {
    "kind": "user",
    "methods": {},
    "version": 1
  },
  "storageLayout": {
    "storage": [
      {
        "astId": 7,
        "contract": "contracts/vaults/BalleMaster.sol:BalleMaster",
        "label": "_owner",
        "offset": 0,
        "slot": "0",
        "type": "t_address"
      },
      {
        "astId": 120,
        "contract": "contracts/vaults/BalleMaster.sol:BalleMaster",
        "label": "_status",
        "offset": 0,
        "slot": "1",
        "type": "t_uint256"
      },
      {
        "astId": 9522,
        "contract": "contracts/vaults/BalleMaster.sol:BalleMaster",
        "label": "startBlock",
        "offset": 0,
        "slot": "2",
        "type": "t_uint256"
      },
      {
        "astId": 9524,
        "contract": "contracts/vaults/BalleMaster.sol:BalleMaster",
        "label": "endBlock",
        "offset": 0,
        "slot": "3",
        "type": "t_uint256"
      },
      {
        "astId": 9527,
        "contract": "contracts/vaults/BalleMaster.sol:BalleMaster",
        "label": "totalAllocPoint",
        "offset": 0,
        "slot": "4",
        "type": "t_uint256"
      },
      {
        "astId": 9530,
        "contract": "contracts/vaults/BalleMaster.sol:BalleMaster",
        "label": "balleToMint",
        "offset": 0,
        "slot": "5",
        "type": "t_uint256"
      },
      {
        "astId": 9532,
        "contract": "contracts/vaults/BalleMaster.sol:BalleMaster",
        "label": "operations",
        "offset": 0,
        "slot": "6",
        "type": "t_address"
      },
      {
        "astId": 9534,
        "contract": "contracts/vaults/BalleMaster.sol:BalleMaster",
        "label": "security",
        "offset": 0,
        "slot": "7",
        "type": "t_address"
      },
      {
        "astId": 9538,
        "contract": "contracts/vaults/BalleMaster.sol:BalleMaster",
        "label": "vaultInfo",
        "offset": 0,
        "slot": "8",
        "type": "t_array(t_struct(VaultInfo)9506_storage)dyn_storage"
      },
      {
        "astId": 9545,
        "contract": "contracts/vaults/BalleMaster.sol:BalleMaster",
        "label": "userInfo",
        "offset": 0,
        "slot": "9",
        "type": "t_mapping(t_uint256,t_mapping(t_address,t_struct(UserInfo)9513_storage))"
      }
    ],
    "types": {
      "t_address": {
        "encoding": "inplace",
        "label": "address",
        "numberOfBytes": "20"
      },
      "t_array(t_struct(VaultInfo)9506_storage)dyn_storage": {
        "base": "t_struct(VaultInfo)9506_storage",
        "encoding": "dynamic_array",
        "label": "struct BalleMaster.VaultInfo[]",
        "numberOfBytes": "32"
      },
      "t_bool": {
        "encoding": "inplace",
        "label": "bool",
        "numberOfBytes": "1"
      },
      "t_contract(IERC20)734": {
        "encoding": "inplace",
        "label": "contract IERC20",
        "numberOfBytes": "20"
      },
      "t_mapping(t_address,t_struct(UserInfo)9513_storage)": {
        "encoding": "mapping",
        "key": "t_address",
        "label": "mapping(address => struct BalleMaster.UserInfo)",
        "numberOfBytes": "32",
        "value": "t_struct(UserInfo)9513_storage"
      },
      "t_mapping(t_uint256,t_mapping(t_address,t_struct(UserInfo)9513_storage))": {
        "encoding": "mapping",
        "key": "t_uint256",
        "label": "mapping(uint256 => mapping(address => struct BalleMaster.UserInfo))",
        "numberOfBytes": "32",
        "value": "t_mapping(t_address,t_struct(UserInfo)9513_storage)"
      },
      "t_struct(UserInfo)9513_storage": {
        "encoding": "inplace",
        "label": "struct BalleMaster.UserInfo",
        "members": [
          {
            "astId": 9508,
            "contract": "contracts/vaults/BalleMaster.sol:BalleMaster",
            "label": "deposit",
            "offset": 0,
            "slot": "0",
            "type": "t_uint256"
          },
          {
            "astId": 9510,
            "contract": "contracts/vaults/BalleMaster.sol:BalleMaster",
            "label": "shares",
            "offset": 0,
            "slot": "1",
            "type": "t_uint256"
          },
          {
            "astId": 9512,
            "contract": "contracts/vaults/BalleMaster.sol:BalleMaster",
            "label": "rewardDebt",
            "offset": 0,
            "slot": "2",
            "type": "t_uint256"
          }
        ],
        "numberOfBytes": "96"
      },
      "t_struct(VaultInfo)9506_storage": {
        "encoding": "inplace",
        "label": "struct BalleMaster.VaultInfo",
        "members": [
          {
            "astId": 9491,
            "contract": "contracts/vaults/BalleMaster.sol:BalleMaster",
            "label": "depositToken",
            "offset": 0,
            "slot": "0",
            "type": "t_contract(IERC20)734"
          },
          {
            "astId": 9493,
            "contract": "contracts/vaults/BalleMaster.sol:BalleMaster",
            "label": "strat",
            "offset": 0,
            "slot": "1",
            "type": "t_address"
          },
          {
            "astId": 9495,
            "contract": "contracts/vaults/BalleMaster.sol:BalleMaster",
            "label": "allocPoint",
            "offset": 0,
            "slot": "2",
            "type": "t_uint256"
          },
          {
            "astId": 9497,
            "contract": "contracts/vaults/BalleMaster.sol:BalleMaster",
            "label": "lastRewardBlock",
            "offset": 0,
            "slot": "3",
            "type": "t_uint256"
          },
          {
            "astId": 9499,
            "contract": "contracts/vaults/BalleMaster.sol:BalleMaster",
            "label": "accBallePerShare",
            "offset": 0,
            "slot": "4",
            "type": "t_uint256"
          },
          {
            "astId": 9501,
            "contract": "contracts/vaults/BalleMaster.sol:BalleMaster",
            "label": "rewardsActive",
            "offset": 0,
            "slot": "5",
            "type": "t_bool"
          },
          {
            "astId": 9503,
            "contract": "contracts/vaults/BalleMaster.sol:BalleMaster",
            "label": "paused",
            "offset": 1,
            "slot": "5",
            "type": "t_bool"
          },
          {
            "astId": 9505,
            "contract": "contracts/vaults/BalleMaster.sol:BalleMaster",
            "label": "retired",
            "offset": 2,
            "slot": "5",
            "type": "t_bool"
          }
        ],
        "numberOfBytes": "192"
      },
      "t_uint256": {
        "encoding": "inplace",
        "label": "uint256",
        "numberOfBytes": "32"
      }
    }
  }
}