{
  "address": "0x11E4Ecf13e3B4ccB246aE538d28eCCEb28E28833",
  "abi": [
    {
      "inputs": [
        {
          "internalType": "address",
          "name": "_balle",
          "type": "address"
        }
      ],
      "stateMutability": "nonpayable",
      "type": "constructor"
    },
    {
      "anonymous": false,
      "inputs": [
        {
          "indexed": true,
          "internalType": "address",
          "name": "previousOwner",
          "type": "address"
        },
        {
          "indexed": true,
          "internalType": "address",
          "name": "newOwner",
          "type": "address"
        }
      ],
      "name": "OwnershipTransferred",
      "type": "event"
    },
    {
      "inputs": [],
      "name": "balle",
      "outputs": [
        {
          "internalType": "address",
          "name": "",
          "type": "address"
        }
      ],
      "stateMutability": "view",
      "type": "function"
    },
    {
      "inputs": [
        {
          "internalType": "address",
          "name": "_token",
          "type": "address"
        },
        {
          "internalType": "uint256",
          "name": "_amount",
          "type": "uint256"
        },
        {
          "internalType": "address",
          "name": "_to",
          "type": "address"
        }
      ],
      "name": "inCaseTokensGetStuck",
      "outputs": [],
      "stateMutability": "nonpayable",
      "type": "function"
    },
    {
      "inputs": [],
      "name": "owner",
      "outputs": [
        {
          "internalType": "address",
          "name": "",
          "type": "address"
        }
      ],
      "stateMutability": "view",
      "type": "function"
    },
    {
      "inputs": [],
      "name": "renounceOwnership",
      "outputs": [],
      "stateMutability": "nonpayable",
      "type": "function"
    },
    {
      "inputs": [],
      "name": "rewardDistribution",
      "outputs": [
        {
          "internalType": "address",
          "name": "",
          "type": "address"
        }
      ],
      "stateMutability": "view",
      "type": "function"
    },
    {
      "inputs": [
        {
          "internalType": "address",
          "name": "_rewarder",
          "type": "address"
        },
        {
          "internalType": "uint256",
          "name": "_amount",
          "type": "uint256"
        }
      ],
      "name": "sendRewardAmount",
      "outputs": [
        {
          "internalType": "uint256",
          "name": "",
          "type": "uint256"
        }
      ],
      "stateMutability": "nonpayable",
      "type": "function"
    },
    {
      "inputs": [
        {
          "internalType": "address",
          "name": "_rewardDistribution",
          "type": "address"
        }
      ],
      "name": "setRewardDistribution",
      "outputs": [],
      "stateMutability": "nonpayable",
      "type": "function"
    },
    {
      "inputs": [
        {
          "internalType": "address",
          "name": "newOwner",
          "type": "address"
        }
      ],
      "name": "transferOwnership",
      "outputs": [],
      "stateMutability": "nonpayable",
      "type": "function"
    }
  ],
  "transactionHash": "0x401f769c6b543d6af57b147500a855892b0c64a69061a7eaca3acd5905f98400",
  "args": [
    "0x9714C04b34E6300964161c3aC37b86451E79152d"
  ],
  "solcInputHash": "d7ef9fff6bd1976c8624b8a20001dc82",
  "bytecode": "0x60a060405234801561001057600080fd5b50604051610b58380380610b5883398101604081905261002f916100c8565b600080546001600160a01b031916339081178255604051909182917f8be0079c531659141344cd1fd0a4f28419497f9722a3daafe3b4186f6b6457e0908290a3506001600160a01b0381166100b35760405162461bcd60e51b81526020600482015260066024820152652162616c6c6560d01b604482015260640160405180910390fd5b60601b6001600160601b0319166080526100f6565b6000602082840312156100d9578081fd5b81516001600160a01b03811681146100ef578182fd5b9392505050565b60805160601c610a2f61012960003960008181610124015281816102640152818161045301526104f00152610a2f6000f3fe608060405234801561001057600080fd5b50600436106100885760003560e01c80638da5cb5b1161005b5780638da5cb5b146100ed578063a3621847146100fe578063ded0da101461011f578063f2fde38b1461014657610088565b80630d68b7611461008d578063101114cf146100a257806367206d40146100d2578063715018a6146100e5575b600080fd5b6100a061009b3660046108b8565b610159565b005b6001546100b5906001600160a01b031681565b6040516001600160a01b0390911681526020015b60405180910390f35b6100a06100e03660046108fb565b6101f3565b6100a06102e5565b6000546001600160a01b03166100b5565b61011161010c3660046108d2565b610359565b6040519081526020016100c9565b6100b57f000000000000000000000000000000000000000000000000000000000000000081565b6100a06101543660046108b8565b61051f565b6000546001600160a01b0316331461018c5760405162461bcd60e51b8152600401610183906109bd565b60405180910390fd5b6001600160a01b0381166101d15760405162461bcd60e51b815260206004820152600c60248201526b7a65726f206164647265737360a01b6044820152606401610183565b600180546001600160a01b0319166001600160a01b0392909216919091179055565b6000546001600160a01b0316331461021d5760405162461bcd60e51b8152600401610183906109bd565b6001600160a01b0381166102625760405162461bcd60e51b815260206004820152600c60248201526b7a65726f206164647265737360a01b6044820152606401610183565b7f00000000000000000000000000000000000000000000000000000000000000006001600160a01b0316836001600160a01b031614156102cc5760405162461bcd60e51b8152602060048201526005602482015264217361666560d81b6044820152606401610183565b6102e06001600160a01b0384168284610609565b505050565b6000546001600160a01b0316331461030f5760405162461bcd60e51b8152600401610183906109bd565b600080546040516001600160a01b03909116907f8be0079c531659141344cd1fd0a4f28419497f9722a3daafe3b4186f6b6457e0908390a3600080546001600160a01b0319169055565b600080546001600160a01b031633148061037d57506001546001600160a01b031633145b6103bf5760405162461bcd60e51b815260206004820152601360248201527210b932bbb0b9322234b9ba3934b13aba34b7b760691b6044820152606401610183565b6001600160a01b0383166104015760405162461bcd60e51b815260206004820152600960248201526810b932bbb0b93232b960b91b6044820152606401610183565b6000821161043b5760405162461bcd60e51b815260206004820152600760248201526608585b5bdd5b9d60ca1b6044820152606401610183565b6040516370a0823160e01b81523060048201526000907f00000000000000000000000000000000000000000000000000000000000000006001600160a01b0316906370a082319060240160206040518083038186803b15801561049d57600080fd5b505afa1580156104b1573d6000803e3d6000fd5b505050506040513d601f19601f820116820180604052508101906104d59190610956565b9050808311156104e3578092505b6105176001600160a01b037f0000000000000000000000000000000000000000000000000000000000000000168585610609565b509092915050565b6000546001600160a01b031633146105495760405162461bcd60e51b8152600401610183906109bd565b6001600160a01b0381166105ae5760405162461bcd60e51b815260206004820152602660248201527f4f776e61626c653a206e6577206f776e657220697320746865207a65726f206160448201526564647265737360d01b6064820152608401610183565b600080546040516001600160a01b03808516939216917f8be0079c531659141344cd1fd0a4f28419497f9722a3daafe3b4186f6b6457e091a3600080546001600160a01b0319166001600160a01b0392909216919091179055565b604080516001600160a01b03848116602483015260448083018590528351808403909101815260649092018352602080830180516001600160e01b031663a9059cbb60e01b17905283518085019094528084527f5361666545524332303a206c6f772d6c6576656c2063616c6c206661696c6564908401526102e092869291600091610699918516908490610716565b8051909150156102e057808060200190518101906106b79190610936565b6102e05760405162461bcd60e51b815260206004820152602a60248201527f5361666545524332303a204552433230206f7065726174696f6e20646964206e6044820152691bdd081cdd58d8d9595960b21b6064820152608401610183565b6060610725848460008561072f565b90505b9392505050565b6060824710156107905760405162461bcd60e51b815260206004820152602660248201527f416464726573733a20696e73756666696369656e742062616c616e636520666f6044820152651c8818d85b1b60d21b6064820152608401610183565b6107998561085e565b6107e55760405162461bcd60e51b815260206004820152601d60248201527f416464726573733a2063616c6c20746f206e6f6e2d636f6e74726163740000006044820152606401610183565b600080866001600160a01b03168587604051610801919061096e565b60006040518083038185875af1925050503d806000811461083e576040519150601f19603f3d011682016040523d82523d6000602084013e610843565b606091505b5091509150610853828286610868565b979650505050505050565b803b15155b919050565b60608315610877575081610728565b8251156108875782518084602001fd5b8160405162461bcd60e51b8152600401610183919061098a565b80356001600160a01b038116811461086357600080fd5b6000602082840312156108c9578081fd5b610728826108a1565b600080604083850312156108e4578081fd5b6108ed836108a1565b946020939093013593505050565b60008060006060848603121561090f578081fd5b610918846108a1565b92506020840135915061092d604085016108a1565b90509250925092565b600060208284031215610947578081fd5b81518015158114610728578182fd5b600060208284031215610967578081fd5b5051919050565b600082516109808184602087016109f2565b9190910192915050565b60006020825282518060208401526109a98160408501602087016109f2565b601f01601f19169190910160400192915050565b6020808252818101527f4f776e61626c653a2063616c6c6572206973206e6f7420746865206f776e6572604082015260600190565b60005b83811015610a0d5781810151838201526020016109f5565b83811115610a1c576000848401525b5050505056fea164736f6c6343000803000a",
  "devdoc": {
    "details": "Implementation of the BALLE Reward Fund for the staking pool. This contract will store BALLE from fees to be rewarded to BALLE holders via the staking pool. The owner of the contract is the Governance Gnosis Safe multisig.",
    "kind": "dev",
    "methods": {
      "inCaseTokensGetStuck(address,uint256,address)": {
        "details": "Function to use from Governance Gnosis Safe multisig only in case tokens get stuck. This is to be used if someone, for example, sends tokens to the contract by mistake. There is no guarantee governance will vote to return these."
      },
      "owner()": {
        "details": "Returns the address of the current owner."
      },
      "renounceOwnership()": {
        "details": "Leaves the contract without owner. It will not be possible to call `onlyOwner` functions anymore. Can only be called by the current owner. NOTE: Renouncing ownership will leave the contract without an owner, thereby removing any functionality that is only available to the owner."
      },
      "sendRewardAmount(address,uint256)": {
        "details": "Function to transfer tokens to the rewarder."
      },
      "setRewardDistribution(address)": {
        "details": "Function to change the rewardDistribution address."
      },
      "transferOwnership(address)": {
        "details": "Transfers ownership of the contract to a new account (`newOwner`). Can only be called by the current owner."
      }
    },
    "version": 1
  },
  "userdoc": {
    "kind": "user",
    "methods": {},
    "version": 1
  },
  "storageLayout": {
    "storage": [
      {
        "astId": 7,
        "contract": "contracts/staking/BalleRewardFund.sol:BalleRewardFund",
        "label": "_owner",
        "offset": 0,
        "slot": "0",
        "type": "t_address"
      },
      {
        "astId": 4301,
        "contract": "contracts/staking/BalleRewardFund.sol:BalleRewardFund",
        "label": "rewardDistribution",
        "offset": 0,
        "slot": "1",
        "type": "t_address"
      }
    ],
    "types": {
      "t_address": {
        "encoding": "inplace",
        "label": "address",
        "numberOfBytes": "20"
      }
    }
  }
}