{
  "address": "0x7365359652Cc0bAd7fe8649C6E7f2EA5d159E147",
  "abi": [
    {
      "inputs": [
        {
          "internalType": "address",
          "name": "_depositToken",
          "type": "address"
        },
        {
          "internalType": "address",
          "name": "_balleMaster",
          "type": "address"
        }
      ],
      "stateMutability": "nonpayable",
      "type": "constructor"
    },
    {
      "anonymous": false,
      "inputs": [
        {
          "indexed": true,
          "internalType": "address",
          "name": "previousOwner",
          "type": "address"
        },
        {
          "indexed": true,
          "internalType": "address",
          "name": "newOwner",
          "type": "address"
        }
      ],
      "name": "OwnershipTransferred",
      "type": "event"
    },
    {
      "anonymous": false,
      "inputs": [
        {
          "indexed": true,
          "internalType": "address",
          "name": "addr",
          "type": "address"
        }
      ],
      "name": "SetGovernance",
      "type": "event"
    },
    {
      "inputs": [
        {
          "internalType": "address",
          "name": "_user",
          "type": "address"
        },
        {
          "internalType": "uint256",
          "name": "_amount",
          "type": "uint256"
        }
      ],
      "name": "deposit",
      "outputs": [
        {
          "internalType": "uint256",
          "name": "",
          "type": "uint256"
        }
      ],
      "stateMutability": "nonpayable",
      "type": "function"
    },
    {
      "inputs": [],
      "name": "depositToken",
      "outputs": [
        {
          "internalType": "address",
          "name": "",
          "type": "address"
        }
      ],
      "stateMutability": "view",
      "type": "function"
    },
    {
      "inputs": [],
      "name": "depositTotal",
      "outputs": [
        {
          "internalType": "uint256",
          "name": "",
          "type": "uint256"
        }
      ],
      "stateMutability": "view",
      "type": "function"
    },
    {
      "inputs": [],
      "name": "governance",
      "outputs": [
        {
          "internalType": "address",
          "name": "",
          "type": "address"
        }
      ],
      "stateMutability": "view",
      "type": "function"
    },
    {
      "inputs": [
        {
          "internalType": "address",
          "name": "_token",
          "type": "address"
        },
        {
          "internalType": "uint256",
          "name": "_amount",
          "type": "uint256"
        },
        {
          "internalType": "address",
          "name": "_to",
          "type": "address"
        }
      ],
      "name": "inCaseTokensGetStuck",
      "outputs": [],
      "stateMutability": "nonpayable",
      "type": "function"
    },
    {
      "inputs": [],
      "name": "owner",
      "outputs": [
        {
          "internalType": "address",
          "name": "",
          "type": "address"
        }
      ],
      "stateMutability": "view",
      "type": "function"
    },
    {
      "inputs": [],
      "name": "panic",
      "outputs": [],
      "stateMutability": "nonpayable",
      "type": "function"
    },
    {
      "inputs": [],
      "name": "pause",
      "outputs": [],
      "stateMutability": "nonpayable",
      "type": "function"
    },
    {
      "inputs": [],
      "name": "paused",
      "outputs": [
        {
          "internalType": "bool",
          "name": "",
          "type": "bool"
        }
      ],
      "stateMutability": "view",
      "type": "function"
    },
    {
      "inputs": [],
      "name": "renounceOwnership",
      "outputs": [],
      "stateMutability": "nonpayable",
      "type": "function"
    },
    {
      "inputs": [],
      "name": "retire",
      "outputs": [],
      "stateMutability": "nonpayable",
      "type": "function"
    },
    {
      "inputs": [
        {
          "internalType": "address",
          "name": "_governance",
          "type": "address"
        }
      ],
      "name": "setGovernance",
      "outputs": [],
      "stateMutability": "nonpayable",
      "type": "function"
    },
    {
      "inputs": [],
      "name": "sharesTotal",
      "outputs": [
        {
          "internalType": "uint256",
          "name": "",
          "type": "uint256"
        }
      ],
      "stateMutability": "view",
      "type": "function"
    },
    {
      "inputs": [
        {
          "internalType": "address",
          "name": "newOwner",
          "type": "address"
        }
      ],
      "name": "transferOwnership",
      "outputs": [],
      "stateMutability": "nonpayable",
      "type": "function"
    },
    {
      "inputs": [],
      "name": "unpause",
      "outputs": [],
      "stateMutability": "nonpayable",
      "type": "function"
    },
    {
      "inputs": [
        {
          "internalType": "address",
          "name": "_user",
          "type": "address"
        },
        {
          "internalType": "uint256",
          "name": "_amount",
          "type": "uint256"
        }
      ],
      "name": "withdraw",
      "outputs": [
        {
          "internalType": "uint256",
          "name": "",
          "type": "uint256"
        },
        {
          "internalType": "uint256",
          "name": "",
          "type": "uint256"
        }
      ],
      "stateMutability": "nonpayable",
      "type": "function"
    }
  ],
  "transactionHash": "0xaeead4d48ebc5b51137199c23c1e48dc1c194d4945dff8765eda87d4705b80cd",
  "args": [
    "0xa4C9418d4CE79cD2b5d64E08D91B7D00cEC40dC3",
    "0x1105bd1D8C952C24E73f6866177FAD7Bfb35e13D"
  ],
  "solcInputHash": "32ff132fc9affbad5d529d01ef8a85e7",
  "bytecode": "0x60a0604052600060038190556004556005805460ff191690553480156200002557600080fd5b50604051620011d3380380620011d3833981016040819052620000489162000270565b600080546001600160a01b03191633908117825560405190918291600080516020620011b3833981519152908290a350600180556001600160a01b038216620000c85760405162461bcd60e51b815260206004820152600d60248201526c10b232b837b9b4ba2a37b5b2b760991b60448201526064015b60405180910390fd5b6001600160a01b0381166200010f5760405162461bcd60e51b815260206004820152600c60248201526b10b130b63632a6b0b9ba32b960a11b6044820152606401620000bf565b6001600160601b0319606083901b16608052600280546001600160a01b031916331790556200013e8162000146565b5050620002a7565b6000546001600160a01b03163314620001a25760405162461bcd60e51b815260206004820181905260248201527f4f776e61626c653a2063616c6c6572206973206e6f7420746865206f776e65726044820152606401620000bf565b6001600160a01b038116620002095760405162461bcd60e51b815260206004820152602660248201527f4f776e61626c653a206e6577206f776e657220697320746865207a65726f206160448201526564647265737360d01b6064820152608401620000bf565b600080546040516001600160a01b0380851693921691600080516020620011b383398151915291a3600080546001600160a01b0319166001600160a01b0392909216919091179055565b80516001600160a01b03811681146200026b57600080fd5b919050565b6000806040838503121562000283578182fd5b6200028e8362000253565b91506200029e6020840162000253565b90509250929050565b60805160601c610ed1620002e2600039600081816101e30152818161043b015281816104f9015281816108d901526109970152610ed16000f3fe608060405234801561001057600080fd5b50600436106101005760003560e01c8063715018a611610097578063ab033ea911610066578063ab033ea9146101cb578063c89039c5146101de578063f2fde38b14610205578063f3fef3a31461021857610100565b8063715018a6146101aa5780638456cb591461012b5780638da5cb5b146101b2578063a4874d77146101c357610100565b80634adae0da116100d35780634adae0da146101465780635aa6e6751461014f5780635c975abb1461017a57806367206d401461019757610100565b80633f4ba83a1461010557806344a3955e1461010f5780634700d3051461012b57806347e7ef2414610133575b600080fd5b61010d610240565b005b61011860045481565b6040519081526020015b60405180910390f35b61010d6102bb565b610118610141366004610cf4565b610330565b61011860035481565b600254610162906001600160a01b031681565b6040516001600160a01b039091168152602001610122565b6005546101879060ff1681565b6040519015158152602001610122565b61010d6101a5366004610d1d565b61046a565b61010d61057a565b6000546001600160a01b0316610162565b61010d6105ee565b61010d6101d9366004610cda565b610618565b6101627f000000000000000000000000000000000000000000000000000000000000000081565b61010d610213366004610cda565b6106ef565b61022b610226366004610cf4565b6107d9565b60408051928352602083019190915201610122565b6000546001600160a01b031633146102735760405162461bcd60e51b815260040161026a90610ddf565b60405180910390fd5b60055460ff166102af5760405162461bcd60e51b8152602060048201526007602482015266085c185d5cd95960ca1b604482015260640161026a565b6005805460ff19169055565b6000546001600160a01b031633146102e55760405162461bcd60e51b815260040161026a90610ddf565b60055460ff16156103215760405162461bcd60e51b81526020600482015260066024820152651c185d5cd95960d21b604482015260640161026a565b6005805460ff19166001179055565b600080546001600160a01b0316331461035b5760405162461bcd60e51b815260040161026a90610ddf565b60055460ff16156103975760405162461bcd60e51b81526020600482015260066024820152651c185d5cd95960d21b604482015260640161026a565b6001600160a01b0383166103d55760405162461bcd60e51b815260206004820152600560248201526410bab9b2b960d91b604482015260640161026a565b6003548290158015906103ea57506000600454115b1561040c576003546004546103ff9085610e4c565b6104099190610e2c565b90505b8060045461041a9190610e14565b60045560035461042b908490610e14565b6003556104636001600160a01b037f0000000000000000000000000000000000000000000000000000000000000000163330866109c7565b9392505050565b6002546001600160a01b031633146104b25760405162461bcd60e51b815260206004820152600b60248201526a21676f7665726e616e636560a81b604482015260640161026a565b6001600160a01b0381166104f75760405162461bcd60e51b815260206004820152600c60248201526b7a65726f206164647265737360a01b604482015260640161026a565b7f00000000000000000000000000000000000000000000000000000000000000006001600160a01b0316836001600160a01b031614156105615760405162461bcd60e51b8152602060048201526005602482015264217361666560d81b604482015260640161026a565b6105756001600160a01b0384168284610a38565b505050565b6000546001600160a01b031633146105a45760405162461bcd60e51b815260040161026a90610ddf565b600080546040516001600160a01b03909116907f8be0079c531659141344cd1fd0a4f28419497f9722a3daafe3b4186f6b6457e0908390a3600080546001600160a01b0319169055565b6000546001600160a01b031633146103215760405162461bcd60e51b815260040161026a90610ddf565b6002546001600160a01b031633146106605760405162461bcd60e51b815260206004820152600b60248201526a21676f7665726e616e636560a81b604482015260640161026a565b6001600160a01b0381166106a55760405162461bcd60e51b815260206004820152600c60248201526b7a65726f206164647265737360a01b604482015260640161026a565b600280546001600160a01b0319166001600160a01b0383169081179091556040517f24a8c4807b324a269a51827c3446b8ac1cc13810d7d0c0ca1efafabddd7b621990600090a250565b6000546001600160a01b031633146107195760405162461bcd60e51b815260040161026a90610ddf565b6001600160a01b03811661077e5760405162461bcd60e51b815260206004820152602660248201527f4f776e61626c653a206e6577206f776e657220697320746865207a65726f206160448201526564647265737360d01b606482015260840161026a565b600080546040516001600160a01b03808516939216917f8be0079c531659141344cd1fd0a4f28419497f9722a3daafe3b4186f6b6457e091a3600080546001600160a01b0319166001600160a01b0392909216919091179055565b6000805481906001600160a01b031633146108065760405162461bcd60e51b815260040161026a90610ddf565b6001600160a01b0384166108445760405162461bcd60e51b815260206004820152600560248201526410bab9b2b960d91b604482015260640161026a565b6000831161087e5760405162461bcd60e51b815260206004820152600760248201526608585b5bdd5b9d60ca1b604482015260640161026a565b6000600354600454856108919190610e4c565b61089b9190610e2c565b90506004548111156108ac57506004545b806004546108ba9190610e6b565b60049081556040516370a0823160e01b815230918101919091526000907f00000000000000000000000000000000000000000000000000000000000000006001600160a01b0316906370a082319060240160206040518083038186803b15801561092357600080fd5b505afa158015610937573d6000803e3d6000fd5b505050506040513d601f19601f8201168201806040525081019061095b9190610d78565b905080851115610969578094505b8460035410156109795760035494505b846003546109879190610e6b565b6003556109be6001600160a01b037f0000000000000000000000000000000000000000000000000000000000000000163387610a38565b50949293505050565b6040516001600160a01b0380851660248301528316604482015260648101829052610a329085906323b872dd60e01b906084015b60408051601f198184030181529190526020810180516001600160e01b03166001600160e01b031990931692909217909152610a68565b50505050565b6040516001600160a01b03831660248201526044810182905261057590849063a9059cbb60e01b906064016109fb565b6000610abd826040518060400160405280602081526020017f5361666545524332303a206c6f772d6c6576656c2063616c6c206661696c6564815250856001600160a01b0316610b3a9092919063ffffffff16565b8051909150156105755780806020019051810190610adb9190610d58565b6105755760405162461bcd60e51b815260206004820152602a60248201527f5361666545524332303a204552433230206f7065726174696f6e20646964206e6044820152691bdd081cdd58d8d9595960b21b606482015260840161026a565b6060610b498484600085610b51565b949350505050565b606082471015610bb25760405162461bcd60e51b815260206004820152602660248201527f416464726573733a20696e73756666696369656e742062616c616e636520666f6044820152651c8818d85b1b60d21b606482015260840161026a565b610bbb85610c80565b610c075760405162461bcd60e51b815260206004820152601d60248201527f416464726573733a2063616c6c20746f206e6f6e2d636f6e7472616374000000604482015260640161026a565b600080866001600160a01b03168587604051610c239190610d90565b60006040518083038185875af1925050503d8060008114610c60576040519150601f19603f3d011682016040523d82523d6000602084013e610c65565b606091505b5091509150610c75828286610c8a565b979650505050505050565b803b15155b919050565b60608315610c99575081610463565b825115610ca95782518084602001fd5b8160405162461bcd60e51b815260040161026a9190610dac565b80356001600160a01b0381168114610c8557600080fd5b600060208284031215610ceb578081fd5b61046382610cc3565b60008060408385031215610d06578081fd5b610d0f83610cc3565b946020939093013593505050565b600080600060608486031215610d31578081fd5b610d3a84610cc3565b925060208401359150610d4f60408501610cc3565b90509250925092565b600060208284031215610d69578081fd5b81518015158114610463578182fd5b600060208284031215610d89578081fd5b5051919050565b60008251610da2818460208701610e82565b9190910192915050565b6000602082528251806020840152610dcb816040850160208701610e82565b601f01601f19169190910160400192915050565b6020808252818101527f4f776e61626c653a2063616c6c6572206973206e6f7420746865206f776e6572604082015260600190565b60008219821115610e2757610e27610eae565b500190565b600082610e4757634e487b7160e01b81526012600452602481fd5b500490565b6000816000190483118215151615610e6657610e66610eae565b500290565b600082821015610e7d57610e7d610eae565b500390565b60005b83811015610e9d578181015183820152602001610e85565b83811115610a325750506000910152565b634e487b7160e01b600052601160045260246000fdfea164736f6c6343000803000a8be0079c531659141344cd1fd0a4f28419497f9722a3daafe3b4186f6b6457e0",
  "devdoc": {
    "details": "Implementation of the BALLE LP Strategy. This contract will hold BALLE LP Tokens on vault. The owner of the contract is the BalleMaster contract.",
    "kind": "dev",
    "methods": {
      "constructor": {
        "details": "Implementation of BALLE LP strategy."
      },
      "deposit(address,uint256)": {
        "details": "Function to transfer tokens BalleMaster -> strategy."
      },
      "inCaseTokensGetStuck(address,uint256,address)": {
        "details": "Function to use from Governance Gnosis Safe multisig only in case tokens get stuck. This is to be used if someone, for example, sends tokens to the contract by mistake. There is no guarantee governance will vote to return these."
      },
      "owner()": {
        "details": "Returns the address of the current owner."
      },
      "panic()": {
        "details": "Stop the vault."
      },
      "pause()": {
        "details": "Stop the vault."
      },
      "renounceOwnership()": {
        "details": "Leaves the contract without owner. It will not be possible to call `onlyOwner` functions anymore. Can only be called by the current owner. NOTE: Renouncing ownership will leave the contract without an owner, thereby removing any functionality that is only available to the owner."
      },
      "retire()": {
        "details": "Retire the vault."
      },
      "setGovernance(address)": {
        "details": "Function to change the Governance Gnosis Safe multisig."
      },
      "transferOwnership(address)": {
        "details": "Transfers ownership of the contract to a new account (`newOwner`). Can only be called by the current owner."
      },
      "unpause()": {
        "details": "Restart the vault."
      },
      "withdraw(address,uint256)": {
        "details": "Function to transfer tokens strategy -> BalleMaster."
      }
    },
    "version": 1
  },
  "userdoc": {
    "kind": "user",
    "methods": {},
    "version": 1
  },
  "storageLayout": {
    "storage": [
      {
        "astId": 7,
        "contract": "contracts/strategies/StratBalleLpV1.sol:StratBalleLpV1",
        "label": "_owner",
        "offset": 0,
        "slot": "0",
        "type": "t_address"
      },
      {
        "astId": 120,
        "contract": "contracts/strategies/StratBalleLpV1.sol:StratBalleLpV1",
        "label": "_status",
        "offset": 0,
        "slot": "1",
        "type": "t_uint256"
      },
      {
        "astId": 7276,
        "contract": "contracts/strategies/StratBalleLpV1.sol:StratBalleLpV1",
        "label": "governance",
        "offset": 0,
        "slot": "2",
        "type": "t_address"
      },
      {
        "astId": 7279,
        "contract": "contracts/strategies/StratBalleLpV1.sol:StratBalleLpV1",
        "label": "depositTotal",
        "offset": 0,
        "slot": "3",
        "type": "t_uint256"
      },
      {
        "astId": 7282,
        "contract": "contracts/strategies/StratBalleLpV1.sol:StratBalleLpV1",
        "label": "sharesTotal",
        "offset": 0,
        "slot": "4",
        "type": "t_uint256"
      },
      {
        "astId": 7285,
        "contract": "contracts/strategies/StratBalleLpV1.sol:StratBalleLpV1",
        "label": "paused",
        "offset": 0,
        "slot": "5",
        "type": "t_bool"
      }
    ],
    "types": {
      "t_address": {
        "encoding": "inplace",
        "label": "address",
        "numberOfBytes": "20"
      },
      "t_bool": {
        "encoding": "inplace",
        "label": "bool",
        "numberOfBytes": "1"
      },
      "t_uint256": {
        "encoding": "inplace",
        "label": "uint256",
        "numberOfBytes": "32"
      }
    }
  }
}