{
  "address": "0x4da397f5C51bae9A37bC4ff6634b34b8e9111819",
  "abi": [
    {
      "inputs": [
        {
          "internalType": "address[]",
          "name": "_addresses",
          "type": "address[]"
        },
        {
          "internalType": "uint256",
          "name": "_pid",
          "type": "uint256"
        },
        {
          "internalType": "address[]",
          "name": "_earnedtokenToBallePath",
          "type": "address[]"
        },
        {
          "internalType": "address[]",
          "name": "_earnedtokenToToken0Path",
          "type": "address[]"
        },
        {
          "internalType": "address[]",
          "name": "_earnedtokenToToken1Path",
          "type": "address[]"
        }
      ],
      "stateMutability": "nonpayable",
      "type": "constructor"
    },
    {
      "anonymous": false,
      "inputs": [
        {
          "indexed": false,
          "internalType": "uint256",
          "name": "rewardsAmount",
          "type": "uint256"
        },
        {
          "indexed": false,
          "internalType": "uint256",
          "name": "treasuryAmount",
          "type": "uint256"
        }
      ],
      "name": "DistributeFees",
      "type": "event"
    },
    {
      "anonymous": false,
      "inputs": [
        {
          "indexed": false,
          "internalType": "uint256",
          "name": "amount",
          "type": "uint256"
        }
      ],
      "name": "Harvest",
      "type": "event"
    },
    {
      "anonymous": false,
      "inputs": [
        {
          "indexed": true,
          "internalType": "address",
          "name": "previousOwner",
          "type": "address"
        },
        {
          "indexed": true,
          "internalType": "address",
          "name": "newOwner",
          "type": "address"
        }
      ],
      "name": "OwnershipTransferred",
      "type": "event"
    },
    {
      "anonymous": false,
      "inputs": [
        {
          "indexed": true,
          "internalType": "address",
          "name": "addr",
          "type": "address"
        }
      ],
      "name": "SetGovernance",
      "type": "event"
    },
    {
      "anonymous": false,
      "inputs": [
        {
          "indexed": false,
          "internalType": "uint256",
          "name": "entranceFee",
          "type": "uint256"
        },
        {
          "indexed": false,
          "internalType": "uint256",
          "name": "performanceFee",
          "type": "uint256"
        },
        {
          "indexed": false,
          "internalType": "uint256",
          "name": "rewardsFeeFactor",
          "type": "uint256"
        },
        {
          "indexed": false,
          "internalType": "uint256",
          "name": "treasuryFeeFactor",
          "type": "uint256"
        },
        {
          "indexed": false,
          "internalType": "uint256",
          "name": "slippage",
          "type": "uint256"
        },
        {
          "indexed": false,
          "internalType": "uint256",
          "name": "minEarnedToReinvest",
          "type": "uint256"
        }
      ],
      "name": "SetSettings",
      "type": "event"
    },
    {
      "inputs": [],
      "name": "ENTRANCE_FEE_LL",
      "outputs": [
        {
          "internalType": "uint256",
          "name": "",
          "type": "uint256"
        }
      ],
      "stateMutability": "view",
      "type": "function"
    },
    {
      "inputs": [],
      "name": "ENTRANCE_FEE_MAX",
      "outputs": [
        {
          "internalType": "uint256",
          "name": "",
          "type": "uint256"
        }
      ],
      "stateMutability": "view",
      "type": "function"
    },
    {
      "inputs": [],
      "name": "FEE_FACTOR_MAX",
      "outputs": [
        {
          "internalType": "uint256",
          "name": "",
          "type": "uint256"
        }
      ],
      "stateMutability": "view",
      "type": "function"
    },
    {
      "inputs": [],
      "name": "MIN_EARNED_TO_REINVEST_LL",
      "outputs": [
        {
          "internalType": "uint256",
          "name": "",
          "type": "uint256"
        }
      ],
      "stateMutability": "view",
      "type": "function"
    },
    {
      "inputs": [],
      "name": "MIN_EARNED_TO_REINVEST_UL",
      "outputs": [
        {
          "internalType": "uint256",
          "name": "",
          "type": "uint256"
        }
      ],
      "stateMutability": "view",
      "type": "function"
    },
    {
      "inputs": [],
      "name": "PERFORMANCE_FEE_MAX",
      "outputs": [
        {
          "internalType": "uint256",
          "name": "",
          "type": "uint256"
        }
      ],
      "stateMutability": "view",
      "type": "function"
    },
    {
      "inputs": [],
      "name": "PERFORMANCE_FEE_UL",
      "outputs": [
        {
          "internalType": "uint256",
          "name": "",
          "type": "uint256"
        }
      ],
      "stateMutability": "view",
      "type": "function"
    },
    {
      "inputs": [],
      "name": "SLIPPAGE_UL",
      "outputs": [
        {
          "internalType": "uint256",
          "name": "",
          "type": "uint256"
        }
      ],
      "stateMutability": "view",
      "type": "function"
    },
    {
      "inputs": [
        {
          "internalType": "address",
          "name": "_harvester",
          "type": "address"
        }
      ],
      "name": "addHarvester",
      "outputs": [],
      "stateMutability": "nonpayable",
      "type": "function"
    },
    {
      "inputs": [
        {
          "internalType": "address",
          "name": "_user",
          "type": "address"
        },
        {
          "internalType": "uint256",
          "name": "_amount",
          "type": "uint256"
        }
      ],
      "name": "deposit",
      "outputs": [
        {
          "internalType": "uint256",
          "name": "",
          "type": "uint256"
        }
      ],
      "stateMutability": "nonpayable",
      "type": "function"
    },
    {
      "inputs": [],
      "name": "depositToken",
      "outputs": [
        {
          "internalType": "address",
          "name": "",
          "type": "address"
        }
      ],
      "stateMutability": "view",
      "type": "function"
    },
    {
      "inputs": [],
      "name": "depositTotal",
      "outputs": [
        {
          "internalType": "uint256",
          "name": "",
          "type": "uint256"
        }
      ],
      "stateMutability": "view",
      "type": "function"
    },
    {
      "inputs": [],
      "name": "earnedtoken",
      "outputs": [
        {
          "internalType": "address",
          "name": "",
          "type": "address"
        }
      ],
      "stateMutability": "view",
      "type": "function"
    },
    {
      "inputs": [
        {
          "internalType": "uint256",
          "name": "",
          "type": "uint256"
        }
      ],
      "name": "earnedtokenToBallePath",
      "outputs": [
        {
          "internalType": "address",
          "name": "",
          "type": "address"
        }
      ],
      "stateMutability": "view",
      "type": "function"
    },
    {
      "inputs": [
        {
          "internalType": "uint256",
          "name": "",
          "type": "uint256"
        }
      ],
      "name": "earnedtokenToToken0Path",
      "outputs": [
        {
          "internalType": "address",
          "name": "",
          "type": "address"
        }
      ],
      "stateMutability": "view",
      "type": "function"
    },
    {
      "inputs": [
        {
          "internalType": "uint256",
          "name": "",
          "type": "uint256"
        }
      ],
      "name": "earnedtokenToToken1Path",
      "outputs": [
        {
          "internalType": "address",
          "name": "",
          "type": "address"
        }
      ],
      "stateMutability": "view",
      "type": "function"
    },
    {
      "inputs": [],
      "name": "entranceFee",
      "outputs": [
        {
          "internalType": "uint256",
          "name": "",
          "type": "uint256"
        }
      ],
      "stateMutability": "view",
      "type": "function"
    },
    {
      "inputs": [],
      "name": "governance",
      "outputs": [
        {
          "internalType": "address",
          "name": "",
          "type": "address"
        }
      ],
      "stateMutability": "view",
      "type": "function"
    },
    {
      "inputs": [],
      "name": "harvest",
      "outputs": [],
      "stateMutability": "nonpayable",
      "type": "function"
    },
    {
      "inputs": [
        {
          "internalType": "address",
          "name": "",
          "type": "address"
        }
      ],
      "name": "harvesters",
      "outputs": [
        {
          "internalType": "bool",
          "name": "",
          "type": "bool"
        }
      ],
      "stateMutability": "view",
      "type": "function"
    },
    {
      "inputs": [
        {
          "internalType": "address",
          "name": "_token",
          "type": "address"
        },
        {
          "internalType": "uint256",
          "name": "_amount",
          "type": "uint256"
        },
        {
          "internalType": "address",
          "name": "_to",
          "type": "address"
        }
      ],
      "name": "inCaseTokensGetStuck",
      "outputs": [],
      "stateMutability": "nonpayable",
      "type": "function"
    },
    {
      "inputs": [],
      "name": "masterChef",
      "outputs": [
        {
          "internalType": "address",
          "name": "",
          "type": "address"
        }
      ],
      "stateMutability": "view",
      "type": "function"
    },
    {
      "inputs": [],
      "name": "minEarnedToReinvest",
      "outputs": [
        {
          "internalType": "uint256",
          "name": "",
          "type": "uint256"
        }
      ],
      "stateMutability": "view",
      "type": "function"
    },
    {
      "inputs": [],
      "name": "operations",
      "outputs": [
        {
          "internalType": "address",
          "name": "",
          "type": "address"
        }
      ],
      "stateMutability": "view",
      "type": "function"
    },
    {
      "inputs": [],
      "name": "owner",
      "outputs": [
        {
          "internalType": "address",
          "name": "",
          "type": "address"
        }
      ],
      "stateMutability": "view",
      "type": "function"
    },
    {
      "inputs": [],
      "name": "panic",
      "outputs": [],
      "stateMutability": "nonpayable",
      "type": "function"
    },
    {
      "inputs": [],
      "name": "pause",
      "outputs": [],
      "stateMutability": "nonpayable",
      "type": "function"
    },
    {
      "inputs": [],
      "name": "paused",
      "outputs": [
        {
          "internalType": "bool",
          "name": "",
          "type": "bool"
        }
      ],
      "stateMutability": "view",
      "type": "function"
    },
    {
      "inputs": [],
      "name": "pendingEarnedToken",
      "outputs": [
        {
          "internalType": "uint256",
          "name": "",
          "type": "uint256"
        }
      ],
      "stateMutability": "view",
      "type": "function"
    },
    {
      "inputs": [],
      "name": "performanceFee",
      "outputs": [
        {
          "internalType": "uint256",
          "name": "",
          "type": "uint256"
        }
      ],
      "stateMutability": "view",
      "type": "function"
    },
    {
      "inputs": [],
      "name": "pid",
      "outputs": [
        {
          "internalType": "uint256",
          "name": "",
          "type": "uint256"
        }
      ],
      "stateMutability": "view",
      "type": "function"
    },
    {
      "inputs": [
        {
          "internalType": "address",
          "name": "_harvester",
          "type": "address"
        }
      ],
      "name": "removeHarvester",
      "outputs": [],
      "stateMutability": "nonpayable",
      "type": "function"
    },
    {
      "inputs": [],
      "name": "renounceOwnership",
      "outputs": [],
      "stateMutability": "nonpayable",
      "type": "function"
    },
    {
      "inputs": [],
      "name": "retire",
      "outputs": [],
      "stateMutability": "nonpayable",
      "type": "function"
    },
    {
      "inputs": [],
      "name": "rewards",
      "outputs": [
        {
          "internalType": "address",
          "name": "",
          "type": "address"
        }
      ],
      "stateMutability": "view",
      "type": "function"
    },
    {
      "inputs": [],
      "name": "rewardsFeeFactor",
      "outputs": [
        {
          "internalType": "uint256",
          "name": "",
          "type": "uint256"
        }
      ],
      "stateMutability": "view",
      "type": "function"
    },
    {
      "inputs": [],
      "name": "router",
      "outputs": [
        {
          "internalType": "address",
          "name": "",
          "type": "address"
        }
      ],
      "stateMutability": "view",
      "type": "function"
    },
    {
      "inputs": [
        {
          "internalType": "address",
          "name": "_governance",
          "type": "address"
        }
      ],
      "name": "setGovernance",
      "outputs": [],
      "stateMutability": "nonpayable",
      "type": "function"
    },
    {
      "inputs": [
        {
          "internalType": "address",
          "name": "_operations",
          "type": "address"
        }
      ],
      "name": "setOperations",
      "outputs": [],
      "stateMutability": "nonpayable",
      "type": "function"
    },
    {
      "inputs": [
        {
          "internalType": "address",
          "name": "_rewards",
          "type": "address"
        }
      ],
      "name": "setRewards",
      "outputs": [],
      "stateMutability": "nonpayable",
      "type": "function"
    },
    {
      "inputs": [
        {
          "internalType": "uint256",
          "name": "_entranceFee",
          "type": "uint256"
        },
        {
          "internalType": "uint256",
          "name": "_performanceFee",
          "type": "uint256"
        },
        {
          "internalType": "uint256",
          "name": "_rewardsFeeFactor",
          "type": "uint256"
        },
        {
          "internalType": "uint256",
          "name": "_treasuryFeeFactor",
          "type": "uint256"
        },
        {
          "internalType": "uint256",
          "name": "_slippage",
          "type": "uint256"
        },
        {
          "internalType": "uint256",
          "name": "_minEarnedToReinvest",
          "type": "uint256"
        }
      ],
      "name": "setSettings",
      "outputs": [],
      "stateMutability": "nonpayable",
      "type": "function"
    },
    {
      "inputs": [
        {
          "internalType": "address",
          "name": "_treasury",
          "type": "address"
        }
      ],
      "name": "setTreasury",
      "outputs": [],
      "stateMutability": "nonpayable",
      "type": "function"
    },
    {
      "inputs": [],
      "name": "sharesTotal",
      "outputs": [
        {
          "internalType": "uint256",
          "name": "",
          "type": "uint256"
        }
      ],
      "stateMutability": "view",
      "type": "function"
    },
    {
      "inputs": [],
      "name": "slippage",
      "outputs": [
        {
          "internalType": "uint256",
          "name": "",
          "type": "uint256"
        }
      ],
      "stateMutability": "view",
      "type": "function"
    },
    {
      "inputs": [],
      "name": "token0",
      "outputs": [
        {
          "internalType": "address",
          "name": "",
          "type": "address"
        }
      ],
      "stateMutability": "view",
      "type": "function"
    },
    {
      "inputs": [],
      "name": "token1",
      "outputs": [
        {
          "internalType": "address",
          "name": "",
          "type": "address"
        }
      ],
      "stateMutability": "view",
      "type": "function"
    },
    {
      "inputs": [
        {
          "internalType": "address",
          "name": "newOwner",
          "type": "address"
        }
      ],
      "name": "transferOwnership",
      "outputs": [],
      "stateMutability": "nonpayable",
      "type": "function"
    },
    {
      "inputs": [],
      "name": "treasury",
      "outputs": [
        {
          "internalType": "address",
          "name": "",
          "type": "address"
        }
      ],
      "stateMutability": "view",
      "type": "function"
    },
    {
      "inputs": [],
      "name": "treasuryFeeFactor",
      "outputs": [
        {
          "internalType": "uint256",
          "name": "",
          "type": "uint256"
        }
      ],
      "stateMutability": "view",
      "type": "function"
    },
    {
      "inputs": [],
      "name": "unpause",
      "outputs": [],
      "stateMutability": "nonpayable",
      "type": "function"
    },
    {
      "inputs": [
        {
          "internalType": "address",
          "name": "_user",
          "type": "address"
        },
        {
          "internalType": "uint256",
          "name": "_amount",
          "type": "uint256"
        }
      ],
      "name": "withdraw",
      "outputs": [
        {
          "internalType": "uint256",
          "name": "",
          "type": "uint256"
        },
        {
          "internalType": "uint256",
          "name": "",
          "type": "uint256"
        }
      ],
      "stateMutability": "nonpayable",
      "type": "function"
    }
  ],
  "transactionHash": "0x3a1fb301ea72e905484af5db959cb6b5be2fc7cbad1400250b041c7b889878b5",
  "args": [
    [
      "0xDd5bAd8f8b360d76d12FdA230F8BAF42fe0022CF",
      "0xbb4CdB9CBd36B01bD1cBaEBF2De08d9173bc095c",
      "0x7083609fce4d1d8dc0c979aab8c869ea2c873402",
      "0x0e09fabb73bd3ade0a17ecc321fd13a19e81ce82",
      "0x10ED43C718714eb63d5aA57B78B54704E256024E",
      "0x73feaa1eE314F8c655E354234017bE2193C9E24E",
      "0x26FBb0FF7589A43C7d4B2Ff9A68A0519c474156c",
      "0xb25D37892305FE1b44c06F035139a0ED11EcA82d",
      "0x11E4Ecf13e3B4ccB246aE538d28eCCEb28E28833",
      "0xe81E27BE6b4171601E1C055959dB2940655c544D"
    ],
    255,
    [
      "0x0e09fabb73bd3ade0a17ecc321fd13a19e81ce82",
      "0xbb4CdB9CBd36B01bD1cBaEBF2De08d9173bc095c",
      "0x9714C04b34E6300964161c3aC37b86451E79152d"
    ],
    [
      "0x0e09fabb73bd3ade0a17ecc321fd13a19e81ce82",
      "0xbb4CdB9CBd36B01bD1cBaEBF2De08d9173bc095c"
    ],
    [
      "0x0e09fabb73bd3ade0a17ecc321fd13a19e81ce82",
      "0xbb4CdB9CBd36B01bD1cBaEBF2De08d9173bc095c",
      "0x7083609fce4d1d8dc0c979aab8c869ea2c873402"
    ]
  ],
  "solcInputHash": "08821918eff7984fff9a4c14ca4beb78",
  "bytecode": "0x61016060405260006007819055600855612706600955610190600a556102ee600b5560fa600c556103b6600d55678ac7230489e80000600e556012805460ff191690553480156200004f57600080fd5b506040516200375f3803806200375f833981016040819052620000729162000688565b600080546001600160a01b031916339081178255604051909182916000805160206200373f833981519152908290a3506001805583620000e75760405162461bcd60e51b8152600401620000de90602080825260049082015263085c1a5960e21b604082015260600190565b60405180910390fd5b846000815181106200010957634e487b7160e01b600052603260045260246000fd5b60200260200101516001600160a01b031660c0816001600160a01b031660601b81525050846001815181106200014f57634e487b7160e01b600052603260045260246000fd5b60200260200101516001600160a01b031660e0816001600160a01b031660601b81525050846002815181106200019557634e487b7160e01b600052603260045260246000fd5b60200260200101516001600160a01b0316610100816001600160a01b031660601b8152505084600381518110620001dc57634e487b7160e01b600052603260045260246000fd5b60200260200101516001600160a01b0316610120816001600160a01b031660601b81525050846004815181106200022357634e487b7160e01b600052603260045260246000fd5b60200260200101516001600160a01b0316610140816001600160a01b031660601b81525050846005815181106200026a57634e487b7160e01b600052603260045260246000fd5b602090810291909101015160601b6001600160601b03191660805260a084905260048054336001600160a01b0319909116179055845160019060069060009088906007908110620002cb57634e487b7160e01b600052603260045260246000fd5b60200260200101516001600160a01b03166001600160a01b0316815260200190815260200160002060006101000a81548160ff021916908315150217905550846008815181106200032c57634e487b7160e01b600052603260045260246000fd5b6020026020010151600260006101000a8154816001600160a01b0302191690836001600160a01b03160217905550846009815181106200037c57634e487b7160e01b600052603260045260246000fd5b602090810291909101810151600380546001600160a01b0319166001600160a01b039092169190911790558351620003bb91600f91908601906200053a565b508151620003d19060109060208501906200053a565b508051620003e79060119060208401906200053a565b5062000422856006815181106200040e57634e487b7160e01b600052603260045260246000fd5b60200260200101516200042d60201b60201c565b50505050506200075c565b6000546001600160a01b03163314620004895760405162461bcd60e51b815260206004820181905260248201527f4f776e61626c653a2063616c6c6572206973206e6f7420746865206f776e65726044820152606401620000de565b6001600160a01b038116620004f05760405162461bcd60e51b815260206004820152602660248201527f4f776e61626c653a206e6577206f776e657220697320746865207a65726f206160448201526564647265737360d01b6064820152608401620000de565b600080546040516001600160a01b03808516939216916000805160206200373f83398151915291a3600080546001600160a01b0319166001600160a01b0392909216919091179055565b82805482825590600052602060002090810192821562000592579160200282015b828111156200059257825182546001600160a01b0319166001600160a01b039091161782556020909201916001909101906200055b565b50620005a0929150620005a4565b5090565b5b80821115620005a05760008155600101620005a5565b80516001600160a01b0381168114620005d357600080fd5b919050565b600082601f830112620005e9578081fd5b815160206001600160401b038083111562000608576200060862000746565b8260051b604051601f19603f8301168101818110848211171562000630576200063062000746565b604052848152838101925086840182880185018910156200064f578687fd5b8692505b858310156200067c576200066781620005bb565b84529284019260019290920191840162000653565b50979650505050505050565b600080600080600060a08688031215620006a0578081fd5b85516001600160401b0380821115620006b7578283fd5b620006c589838a01620005d8565b9650602088015195506040880151915080821115620006e2578283fd5b620006f089838a01620005d8565b9450606088015191508082111562000706578283fd5b6200071489838a01620005d8565b935060808801519150808211156200072a578283fd5b506200073988828901620005d8565b9150509295509295909350565b634e487b7160e01b600052604160045260246000fd5b60805160601c60a05160c05160601c60e05160601c6101005160601c6101205160601c6101405160601c612e26620009196000396000818161067301528181611b1601528181611c1001528181611dfd01528181611fc0015281816120150152818161206a015281816121ea01528181612240015281816122960152818161231001526123cd01526000818161069a01528181610bc401528181610e4b01528181610ee6015281816119e501528181611ae401528181611bde01528181611f9e01526121c801526000818161059f01528181611bb401528181611d6201528181611e4501528181612048015261227401526000818161034201528181611aba01528181611cbd01528181611e2401528181611ff3015261221e01526000818161056501528181610ac801528181610c2e015281816116db01528181611799015281816117e701528181611f490152612172015260008181610608015281816106f50152818161099d0152818161163101528181611899015261193d0152600081816103db01528181610724015281816109cb0152818161165e015281816118c60152818161196a01528181611f6b01526121940152612e266000f3fe608060405234801561001057600080fd5b50600436106102f15760003560e01c8063871392c41161019d578063c89039c5116100e9578063f0f44260116100a2578063f384a44c1161007c578063f384a44c1461063d578063f3fef3a314610646578063f887ea401461066e578063fca3ece714610695576102f1565b8063f0f44260146105f0578063f106845414610603578063f2fde38b1461062a576102f1565b8063c89039c514610560578063cc917f4e14610587578063d21220a71461059a578063e695b9d9146105c1578063ec38a862146105d4578063ed0f4352146105e7576102f1565b8063952e6ee911610156578063a4874d7711610130578063a4874d771461051f578063ab033ea914610527578063aff660951461053a578063c32c1e651461054d576102f1565b8063952e6ee9146104fa5780639ae0ddaf146105035780639ec5a8941461050c576102f1565b8063871392c41461048e578063877887821461049757806387976583146104a05780638b33b4b2146104c35780638da5cb5b146104d65780638fab5917146104e7576102f1565b8063512ab1711161025c578063649677e1116102155780637215313d116101ef5780637215313d14610464578063790f6e511461046d5780637a3404881461047d5780638456cb5914610486576102f1565b8063649677e11461044057806367206d4014610449578063715018a61461045c576102f1565b8063512ab171146103c3578063575a86b2146103d65780635aa6e675146103fd5780635b5be8dd146102f65780635c975abb1461041057806361d027b31461042d576102f1565b80633f4ba83a116102ae5780633f4ba83a1461038457806344a3955e1461038e5780634641257d146103975780634700d3051461039f57806347e7ef24146103a75780634adae0da146103ba576102f1565b806304448370146102f6578063072140be146103125780630dfe16811461033d57806313c50bea146103645780632838ee9c146103735780633e032a3b1461037b575b600080fd5b6102ff61271081565b6040519081526020015b60405180910390f35b610325610320366004612b08565b6106bc565b6040516001600160a01b039091168152602001610309565b6103257f000000000000000000000000000000000000000000000000000000000000000081565b6102ff670de0b6b3a764000081565b6102ff6106e6565b6102ff600d5481565b61038c6107ab565b005b6102ff60085481565b61038c610833565b61038c610934565b6102ff6103b53660046129c4565b610a2f565b6102ff60075481565b6103256103d1366004612b08565b610b62565b6103257f000000000000000000000000000000000000000000000000000000000000000081565b600454610325906001600160a01b031681565b60125461041d9060ff1681565b6040519015158152602001610309565b600354610325906001600160a01b031681565b6102ff60095481565b61038c6104573660046129ed565b610b72565b61038c610caf565b6102ff6103de81565b6102ff6801158e460913d0000081565b6102ff61032081565b61038c610d23565b6102ff600e5481565b6102ff600a5481565b61041d6104ae3660046129aa565b60066020526000908152604090205460ff1681565b600554610325906001600160a01b031681565b6000546001600160a01b0316610325565b61038c6104f53660046129aa565b610d78565b6102ff600b5481565b6102ff6126de81565b600254610325906001600160a01b031681565b61038c610e01565b61038c6105353660046129aa565b610f12565b61038c6105483660046129aa565b610fac565b61038c61055b3660046129aa565b611032565b6103257f000000000000000000000000000000000000000000000000000000000000000081565b61038c610595366004612b65565b6110a4565b6103257f000000000000000000000000000000000000000000000000000000000000000081565b6103256105cf366004612b08565b611356565b61038c6105e23660046129aa565b611366565b6102ff6103e881565b61038c6105fe3660046129aa565b6113d8565b6102ff7f000000000000000000000000000000000000000000000000000000000000000081565b61038c6106383660046129aa565b61144a565b6102ff600c5481565b6106596106543660046129c4565b611534565b60408051928352602083019190915201610309565b6103257f000000000000000000000000000000000000000000000000000000000000000081565b6103257f000000000000000000000000000000000000000000000000000000000000000081565b601081815481106106cc57600080fd5b6000918252602090912001546001600160a01b0316905081565b604051631175a1dd60e01b81527f000000000000000000000000000000000000000000000000000000000000000060048201523060248201526000907f00000000000000000000000000000000000000000000000000000000000000006001600160a01b031690631175a1dd9060440160206040518083038186803b15801561076e57600080fd5b505afa158015610782573d6000803e3d6000fd5b505050506040513d601f19601f820116820180604052508101906107a69190612b20565b905090565b6000546001600160a01b031633146107de5760405162461bcd60e51b81526004016107d590612c83565b60405180910390fd5b60125460ff1661081a5760405162461bcd60e51b8152602060048201526007602482015266085c185d5cd95960ca1b60448201526064016107d5565b60006007556012805460ff191690556108316117c9565b565b3360009081526006602052604090205460ff168061085b57506005546001600160a01b031633145b8061087057506004546001600160a01b031633145b6108a95760405162461bcd60e51b815260206004820152600a60248201526910b430b93b32b9ba32b960b11b60448201526064016107d5565b60125460ff16156108cc5760405162461bcd60e51b81526004016107d590612cde565b6002600154141561091f5760405162461bcd60e51b815260206004820152601f60248201527f5265656e7472616e637947756172643a207265656e7472616e742063616c6c0060448201526064016107d5565b600260015561092e600061192e565b60018055565b6000546001600160a01b0316331461095e5760405162461bcd60e51b81526004016107d590612c83565b60125460ff16156109815760405162461bcd60e51b81526004016107d590612cde565b6012805460ff19166001179055604051632989754760e11b81527f000000000000000000000000000000000000000000000000000000000000000060048201526001600160a01b037f00000000000000000000000000000000000000000000000000000000000000001690635312ea8e90602401600060405180830381600087803b158015610a0f57600080fd5b505af1158015610a23573d6000803e3d6000fd5b50505050610831611f3c565b600080546001600160a01b03163314610a5a5760405162461bcd60e51b81526004016107d590612c83565b60125460ff1615610a7d5760405162461bcd60e51b81526004016107d590612cde565b6001600160a01b038316610abb5760405162461bcd60e51b815260206004820152600560248201526410bab9b2b960d91b60448201526064016107d5565b610af06001600160a01b037f000000000000000000000000000000000000000000000000000000000000000016333085612090565b600754829015801590610b0557506000600854115b15610b425761271060075460095460085486610b219190612d8b565b610b2b9190612d8b565b610b359190612d6b565b610b3f9190612d6b565b90505b80600854610b509190612d53565b600855610b5b6117c9565b9392505050565b601181815481106106cc57600080fd5b6004546001600160a01b03163314610b9c5760405162461bcd60e51b81526004016107d590612c39565b6001600160a01b038116610bc25760405162461bcd60e51b81526004016107d590612cb8565b7f00000000000000000000000000000000000000000000000000000000000000006001600160a01b0316836001600160a01b03161415610c2c5760405162461bcd60e51b8152602060048201526005602482015264217361666560d81b60448201526064016107d5565b7f00000000000000000000000000000000000000000000000000000000000000006001600160a01b0316836001600160a01b03161415610c965760405162461bcd60e51b8152602060048201526005602482015264217361666560d81b60448201526064016107d5565b610caa6001600160a01b03841682846120fb565b505050565b6000546001600160a01b03163314610cd95760405162461bcd60e51b81526004016107d590612c83565b600080546040516001600160a01b03909116907f8be0079c531659141344cd1fd0a4f28419497f9722a3daafe3b4186f6b6457e0908390a3600080546001600160a01b0319169055565b6000546001600160a01b03163314610d4d5760405162461bcd60e51b81526004016107d590612c83565b60125460ff1615610d705760405162461bcd60e51b81526004016107d590612cde565b61083161212b565b6005546001600160a01b0316331480610d9b57506004546001600160a01b031633145b610db75760405162461bcd60e51b81526004016107d590612c5e565b6001600160a01b038116610ddd5760405162461bcd60e51b81526004016107d590612cb8565b6001600160a01b03166000908152600660205260409020805460ff19166001179055565b6000546001600160a01b03163314610e2b5760405162461bcd60e51b81526004016107d590612c83565b610e3361212b565b6040516370a0823160e01b81523060048201526000907f00000000000000000000000000000000000000000000000000000000000000006001600160a01b0316906370a082319060240160206040518083038186803b158015610e9557600080fd5b505afa158015610ea9573d6000803e3d6000fd5b505050506040513d601f19601f82011682018060405250810190610ecd9190612b20565b90508015610f0f57600354610f0f906001600160a01b037f000000000000000000000000000000000000000000000000000000000000000081169116836120fb565b50565b6004546001600160a01b03163314610f3c5760405162461bcd60e51b81526004016107d590612c39565b6001600160a01b038116610f625760405162461bcd60e51b81526004016107d590612cb8565b600480546001600160a01b0319166001600160a01b0383169081179091556040517f24a8c4807b324a269a51827c3446b8ac1cc13810d7d0c0ca1efafabddd7b621990600090a250565b6005546001600160a01b0316331480610fcf57506004546001600160a01b031633145b610feb5760405162461bcd60e51b81526004016107d590612c5e565b6001600160a01b0381166110115760405162461bcd60e51b81526004016107d590612cb8565b6001600160a01b03166000908152600660205260409020805460ff19169055565b6004546001600160a01b0316331461105c5760405162461bcd60e51b81526004016107d590612c39565b6001600160a01b0381166110825760405162461bcd60e51b81526004016107d590612cb8565b600580546001600160a01b0319166001600160a01b0392909216919091179055565b6005546001600160a01b03163314806110c757506004546001600160a01b031633145b6110e35760405162461bcd60e51b81526004016107d590612c5e565b6126de8610156111265760405162461bcd60e51b815260206004820152600e60248201526d08595b9d1c985b98d9519959531360921b60448201526064016107d5565b61271086111561116a5760405162461bcd60e51b815260206004820152600f60248201526e042cadce8e4c2dcc6ca8ccaca9ac2f608b1b60448201526064016107d5565b60098690556103208511156111b55760405162461bcd60e51b8152602060048201526011602482015270085c195c999bdc9b585b98d95199595553607a1b60448201526064016107d5565b600a8590556103e86111c78486612d53565b146112015760405162461bcd60e51b815260206004820152600a60248201526910b332b2a330b1ba37b960b11b60448201526064016107d5565b600b849055600c8390556103de82111561124b5760405162461bcd60e51b815260206004820152600b60248201526a085cdb1a5c1c1859d9555360aa1b60448201526064016107d5565b600d8290556801158e460913d000008111156112a25760405162461bcd60e51b8152602060048201526016602482015275085b5a5b91585c9b9959151bd4995a5b9d995cdd155360521b60448201526064016107d5565b670de0b6b3a76400008110156112f35760405162461bcd60e51b8152602060048201526016602482015275085b5a5b91585c9b9959151bd4995a5b9d995cdd131360521b60448201526064016107d5565b600e8190556040805187815260208101879052908101859052606081018490526080810183905260a081018290527fcb4ecc62ba7efb533c814d48b7dc1c8f06063d93bf32c3730c1ec47011e8747a9060c00160405180910390a1505050505050565b600f81815481106106cc57600080fd5b6004546001600160a01b031633146113905760405162461bcd60e51b81526004016107d590612c39565b6001600160a01b0381166113b65760405162461bcd60e51b81526004016107d590612cb8565b600280546001600160a01b0319166001600160a01b0392909216919091179055565b6004546001600160a01b031633146114025760405162461bcd60e51b81526004016107d590612c39565b6001600160a01b0381166114285760405162461bcd60e51b81526004016107d590612cb8565b600380546001600160a01b0319166001600160a01b0392909216919091179055565b6000546001600160a01b031633146114745760405162461bcd60e51b81526004016107d590612c83565b6001600160a01b0381166114d95760405162461bcd60e51b815260206004820152602660248201527f4f776e61626c653a206e6577206f776e657220697320746865207a65726f206160448201526564647265737360d01b60648201526084016107d5565b600080546040516001600160a01b03808516939216917f8be0079c531659141344cd1fd0a4f28419497f9722a3daafe3b4186f6b6457e091a3600080546001600160a01b0319166001600160a01b0392909216919091179055565b6000805481906001600160a01b031633146115615760405162461bcd60e51b81526004016107d590612c83565b6001600160a01b03841661159f5760405162461bcd60e51b815260206004820152600560248201526410bab9b2b960d91b60448201526064016107d5565b600083116115d95760405162461bcd60e51b815260206004820152600760248201526608585b5bdd5b9d60ca1b60448201526064016107d5565b6000600754600854856115ec9190612d8b565b6115f69190612d6b565b905060085481111561160757506008545b806008546116159190612daa565b60085560125460ff166116c357604051630441a3e760e41b81527f00000000000000000000000000000000000000000000000000000000000000006004820152602481018590527f00000000000000000000000000000000000000000000000000000000000000006001600160a01b03169063441a3e7090604401600060405180830381600087803b1580156116aa57600080fd5b505af11580156116be573d6000803e3d6000fd5b505050505b6040516370a0823160e01b81523060048201526000907f00000000000000000000000000000000000000000000000000000000000000006001600160a01b0316906370a082319060240160206040518083038186803b15801561172557600080fd5b505afa158015611739573d6000803e3d6000fd5b505050506040513d601f19601f8201168201806040525081019061175d9190612b20565b90508085111561176b578094505b84600754101561177b5760075494505b846007546117899190612daa565b6007556117c06001600160a01b037f00000000000000000000000000000000000000000000000000000000000000001633876120fb565b50949293505050565b6007546040516370a0823160e01b81523060048201529015906000907f00000000000000000000000000000000000000000000000000000000000000006001600160a01b0316906370a082319060240160206040518083038186803b15801561183157600080fd5b505afa158015611845573d6000803e3d6000fd5b505050506040513d601f19601f820116820180604052508101906118699190612b20565b9050806007546118799190612d53565b600755811561188a5761188a61215d565b604051631c57762b60e31b81527f00000000000000000000000000000000000000000000000000000000000000006004820152602481018290527f00000000000000000000000000000000000000000000000000000000000000006001600160a01b03169063e2bbb15890604401600060405180830381600087803b15801561191257600080fd5b505af1158015611926573d6000803e3d6000fd5b505050505050565b604051630441a3e760e41b81527f00000000000000000000000000000000000000000000000000000000000000006004820152602481018290527f00000000000000000000000000000000000000000000000000000000000000006001600160a01b03169063441a3e7090604401600060405180830381600087803b1580156119b657600080fd5b505af11580156119ca573d6000803e3d6000fd5b50506040516370a0823160e01b8152306004820152600092507f00000000000000000000000000000000000000000000000000000000000000006001600160a01b031691506370a082319060240160206040518083038186803b158015611a3057600080fd5b505afa158015611a44573d6000803e3d6000fd5b505050506040513d601f19601f82011682018060405250810190611a689190612b20565b9050600e54811015611a7a5750610f0f565b6040518181527f80f97f878e16410266694f134ddf012f2be424f54f8b5cafa107eccc51d00d589060200160405180910390a1611ab6816122bd565b90507f00000000000000000000000000000000000000000000000000000000000000006001600160a01b03167f00000000000000000000000000000000000000000000000000000000000000006001600160a01b031614611bb257611bb27f0000000000000000000000000000000000000000000000000000000000000000611b40600284612d6b565b600d546010805480602002602001604051908101604052809291908181526020018280548015611b9957602002820191906000526020600020905b81546001600160a01b03168152600190910190602001808311611b7b575b50505050503042610258611bad9190612d53565b6124b8565b7f00000000000000000000000000000000000000000000000000000000000000006001600160a01b03167f00000000000000000000000000000000000000000000000000000000000000006001600160a01b031614611ca557611ca57f0000000000000000000000000000000000000000000000000000000000000000611c3a600284612d6b565b600d546011805480602002602001604051908101604052809291908181526020018280548015611b99576020028201919060005260206000209081546001600160a01b03168152600190910190602001808311611b7b5750505050503042610258611bad9190612d53565b6040516370a0823160e01b81523060048201526000907f00000000000000000000000000000000000000000000000000000000000000006001600160a01b0316906370a082319060240160206040518083038186803b158015611d0757600080fd5b505afa158015611d1b573d6000803e3d6000fd5b505050506040513d601f19601f82011682018060405250810190611d3f9190612b20565b6040516370a0823160e01b81523060048201529091506000906001600160a01b037f000000000000000000000000000000000000000000000000000000000000000016906370a082319060240160206040518083038186803b158015611da457600080fd5b505afa158015611db8573d6000803e3d6000fd5b505050506040513d601f19601f82011682018060405250810190611ddc9190612b20565b9050600082118015611dee5750600081115b15611f29576001600160a01b037f00000000000000000000000000000000000000000000000000000000000000001663e8e337007f00000000000000000000000000000000000000000000000000000000000000007f0000000000000000000000000000000000000000000000000000000000000000858560008030611e7642610258612d53565b60405160e08a901b6001600160e01b03191681526001600160a01b039889166004820152968816602488015260448701959095526064860193909352608485019190915260a484015290921660c482015260e481019190915261010401606060405180830381600087803b158015611eed57600080fd5b505af1158015611f01573d6000803e3d6000fd5b505050506040513d601f19601f82011682018060405250810190611f259190612b38565b5050505b83611f3657611f366117c9565b50505050565b611f916001600160a01b037f0000000000000000000000000000000000000000000000000000000000000000167f00000000000000000000000000000000000000000000000000000000000000006000612625565b611fe66001600160a01b037f0000000000000000000000000000000000000000000000000000000000000000167f00000000000000000000000000000000000000000000000000000000000000006000612625565b61203b6001600160a01b037f0000000000000000000000000000000000000000000000000000000000000000167f00000000000000000000000000000000000000000000000000000000000000006000612625565b6108316001600160a01b037f0000000000000000000000000000000000000000000000000000000000000000167f00000000000000000000000000000000000000000000000000000000000000006000612625565b6040516001600160a01b0380851660248301528316604482015260648101829052611f369085906323b872dd60e01b906084015b60408051601f198184030181529190526020810180516001600160e01b03166001600160e01b031990931692909217909152612749565b6040516001600160a01b038316602482015260448101829052610caa90849063a9059cbb60e01b906064016120c4565b60125460ff16610831576012805460ff19166001179055600754156121555761215560075461192e565b610831611f3c565b612165611f3c565b6121bb6001600160a01b037f0000000000000000000000000000000000000000000000000000000000000000167f0000000000000000000000000000000000000000000000000000000000000000600019612625565b6122116001600160a01b037f0000000000000000000000000000000000000000000000000000000000000000167f0000000000000000000000000000000000000000000000000000000000000000600019612625565b6122676001600160a01b037f0000000000000000000000000000000000000000000000000000000000000000167f0000000000000000000000000000000000000000000000000000000000000000600019612625565b6108316001600160a01b037f0000000000000000000000000000000000000000000000000000000000000000167f0000000000000000000000000000000000000000000000000000000000000000600019612625565b600081156124b057600a54156124b0576000612710600a54846122e09190612d8b565b6122ea9190612d6b565b905060006103e8600c54836122ff9190612d8b565b6123099190612d6b565b90506123a97f000000000000000000000000000000000000000000000000000000000000000082600d54600f80548060200260200160405190810160405280929190818152602001828054801561238957602002820191906000526020600020905b81546001600160a01b0316815260019091019060200180831161236b575b50506003546001600160a01b03169250611bad9150429050610258612d53565b60006103e8600b54846123bc9190612d8b565b6123c69190612d6b565b90506124667f000000000000000000000000000000000000000000000000000000000000000082600d54600f80548060200260200160405190810160405280929190818152602001828054801561244657602002820191906000526020600020905b81546001600160a01b03168152600190910190602001808311612428575b50506002546001600160a01b03169250611bad9150429050610258612d53565b6124708386612daa565b60408051838152602081018590529196507f916ad8171ef8c567c7790377a142f0200f9565940680c06e30dd105cfd924968910160405180910390a15050505b50805b919050565b60405163d06ca61f60e01b81526000906001600160a01b0388169063d06ca61f906124e99089908890600401612cfe565b60006040518083038186803b15801561250157600080fd5b505afa158015612515573d6000803e3d6000fd5b505050506040513d6000823e601f3d908101601f1916820160405261253d9190810190612a28565b9050600081600183516125509190612daa565b8151811061256e57634e487b7160e01b600052603260045260246000fd5b60200260200101519050876001600160a01b03166338ed1739886103e889856125979190612d8b565b6125a19190612d6b565b8888886040518663ffffffff1660e01b81526004016125c4959493929190612d17565b600060405180830381600087803b1580156125de57600080fd5b505af11580156125f2573d6000803e3d6000fd5b505050506040513d6000823e601f3d908101601f1916820160405261261a9190810190612a28565b505050505050505050565b8015806126ae5750604051636eb1769f60e11b81523060048201526001600160a01b03838116602483015284169063dd62ed3e9060440160206040518083038186803b15801561267457600080fd5b505afa158015612688573d6000803e3d6000fd5b505050506040513d601f19601f820116820180604052508101906126ac9190612b20565b155b6127195760405162461bcd60e51b815260206004820152603660248201527f5361666545524332303a20617070726f76652066726f6d206e6f6e2d7a65726f60448201527520746f206e6f6e2d7a65726f20616c6c6f77616e636560501b60648201526084016107d5565b6040516001600160a01b038316602482015260448101829052610caa90849063095ea7b360e01b906064016120c4565b600061279e826040518060400160405280602081526020017f5361666545524332303a206c6f772d6c6576656c2063616c6c206661696c6564815250856001600160a01b031661281b9092919063ffffffff16565b805190915015610caa57808060200190518101906127bc9190612ae8565b610caa5760405162461bcd60e51b815260206004820152602a60248201527f5361666545524332303a204552433230206f7065726174696f6e20646964206e6044820152691bdd081cdd58d8d9595960b21b60648201526084016107d5565b606061282a8484600085612832565b949350505050565b6060824710156128935760405162461bcd60e51b815260206004820152602660248201527f416464726573733a20696e73756666696369656e742062616c616e636520666f6044820152651c8818d85b1b60d21b60648201526084016107d5565b843b6128e15760405162461bcd60e51b815260206004820152601d60248201527f416464726573733a2063616c6c20746f206e6f6e2d636f6e747261637400000060448201526064016107d5565b600080866001600160a01b031685876040516128fd9190612bea565b60006040518083038185875af1925050503d806000811461293a576040519150601f19603f3d011682016040523d82523d6000602084013e61293f565b606091505b509150915061294f82828661295a565b979650505050505050565b60608315612969575081610b5b565b8251156129795782518084602001fd5b8160405162461bcd60e51b81526004016107d59190612c06565b80356001600160a01b03811681146124b357600080fd5b6000602082840312156129bb578081fd5b610b5b82612993565b600080604083850312156129d6578081fd5b6129df83612993565b946020939093013593505050565b600080600060608486031215612a01578081fd5b612a0a84612993565b925060208401359150612a1f60408501612993565b90509250925092565b60006020808385031215612a3a578182fd5b825167ffffffffffffffff80821115612a51578384fd5b818501915085601f830112612a64578384fd5b815181811115612a7657612a76612e03565b8060051b604051601f19603f83011681018181108582111715612a9b57612a9b612e03565b604052828152858101935084860182860187018a1015612ab9578788fd5b8795505b83861015612adb578051855260019590950194938601938601612abd565b5098975050505050505050565b600060208284031215612af9578081fd5b81518015158114610b5b578182fd5b600060208284031215612b19578081fd5b5035919050565b600060208284031215612b31578081fd5b5051919050565b600080600060608486031215612b4c578283fd5b8351925060208401519150604084015190509250925092565b60008060008060008060c08789031215612b7d578182fd5b505084359660208601359650604086013595606081013595506080810135945060a0013592509050565b6000815180845260208085019450808401835b83811015612bdf5781516001600160a01b031687529582019590820190600101612bba565b509495945050505050565b60008251612bfc818460208701612dc1565b9190910192915050565b6000602082528251806020840152612c25816040850160208701612dc1565b601f01601f19169190910160400192915050565b6020808252600b908201526a21676f7665726e616e636560a81b604082015260600190565b6020808252600b908201526a216f7065726174696f6e7360a81b604082015260600190565b6020808252818101527f4f776e61626c653a2063616c6c6572206973206e6f7420746865206f776e6572604082015260600190565b6020808252600c908201526b7a65726f206164647265737360a01b604082015260600190565b6020808252600690820152651c185d5cd95960d21b604082015260600190565b60008382526040602083015261282a6040830184612ba7565b600086825285602083015260a06040830152612d3660a0830186612ba7565b6001600160a01b0394909416606083015250608001529392505050565b60008219821115612d6657612d66612ded565b500190565b600082612d8657634e487b7160e01b81526012600452602481fd5b500490565b6000816000190483118215151615612da557612da5612ded565b500290565b600082821015612dbc57612dbc612ded565b500390565b60005b83811015612ddc578181015183820152602001612dc4565b83811115611f365750506000910152565b634e487b7160e01b600052601160045260246000fd5b634e487b7160e01b600052604160045260246000fdfea164736f6c6343000803000a8be0079c531659141344cd1fd0a4f28419497f9722a3daafe3b4186f6b6457e0",
  "devdoc": {
    "details": "Implementation of the PancakeSwap LP Strategy. This contract will compound LP tokens. The owner of the contract is the BalleMaster contract.",
    "kind": "dev",
    "methods": {
      "addHarvester(address)": {
        "details": "Add a harvester address."
      },
      "constructor": {
        "details": "Implementation of PancakeSwap LP autocompounding strategy."
      },
      "deposit(address,uint256)": {
        "details": "Function to transfer tokens BalleMaster -> strategy and put it to work."
      },
      "harvest()": {
        "details": "Function to harvest earnings and reinvest."
      },
      "inCaseTokensGetStuck(address,uint256,address)": {
        "details": "Function to use from Governance Gnosis Safe multisig only in case tokens get stuck. This is to be used if someone, for example, sends tokens to the contract by mistake. There is no guarantee governance will vote to return these."
      },
      "owner()": {
        "details": "Returns the address of the current owner."
      },
      "panic()": {
        "details": "Stop the vault with emergencyWithdraw from farm."
      },
      "pause()": {
        "details": "Stop the vault."
      },
      "pendingEarnedToken()": {
        "details": "View function to see pending CAKEs on farm."
      },
      "removeHarvester(address)": {
        "details": "Remove a harvester address."
      },
      "renounceOwnership()": {
        "details": "Leaves the contract without owner. It will not be possible to call `onlyOwner` functions anymore. Can only be called by the current owner. NOTE: Renouncing ownership will leave the contract without an owner, thereby removing any functionality that is only available to the owner."
      },
      "retire()": {
        "details": "Retire the vault."
      },
      "setGovernance(address)": {
        "details": "Function to change the Governance Gnosis Safe multisig."
      },
      "setOperations(address)": {
        "details": "Function to change the Operations Gnosis Safe multisig."
      },
      "setRewards(address)": {
        "details": "Function to change the rewards address."
      },
      "setSettings(uint256,uint256,uint256,uint256,uint256,uint256)": {
        "details": "Function to change strategy settings."
      },
      "setTreasury(address)": {
        "details": "Function to change the treasury address."
      },
      "transferOwnership(address)": {
        "details": "Transfers ownership of the contract to a new account (`newOwner`). Can only be called by the current owner."
      },
      "unpause()": {
        "details": "Restart the vault."
      },
      "withdraw(address,uint256)": {
        "details": "Function to transfer tokens strategy -> BalleMaster."
      }
    },
    "version": 1
  },
  "userdoc": {
    "kind": "user",
    "methods": {},
    "version": 1
  },
  "storageLayout": {
    "storage": [
      {
        "astId": 7,
        "contract": "contracts/strategies/StratPancakeLpV1.sol:StratPancakeLpV1",
        "label": "_owner",
        "offset": 0,
        "slot": "0",
        "type": "t_address"
      },
      {
        "astId": 120,
        "contract": "contracts/strategies/StratPancakeLpV1.sol:StratPancakeLpV1",
        "label": "_status",
        "offset": 0,
        "slot": "1",
        "type": "t_uint256"
      },
      {
        "astId": 5763,
        "contract": "contracts/strategies/StratPancakeLpV1.sol:StratPancakeLpV1",
        "label": "rewards",
        "offset": 0,
        "slot": "2",
        "type": "t_address"
      },
      {
        "astId": 5765,
        "contract": "contracts/strategies/StratPancakeLpV1.sol:StratPancakeLpV1",
        "label": "treasury",
        "offset": 0,
        "slot": "3",
        "type": "t_address"
      },
      {
        "astId": 5767,
        "contract": "contracts/strategies/StratPancakeLpV1.sol:StratPancakeLpV1",
        "label": "governance",
        "offset": 0,
        "slot": "4",
        "type": "t_address"
      },
      {
        "astId": 5769,
        "contract": "contracts/strategies/StratPancakeLpV1.sol:StratPancakeLpV1",
        "label": "operations",
        "offset": 0,
        "slot": "5",
        "type": "t_address"
      },
      {
        "astId": 5773,
        "contract": "contracts/strategies/StratPancakeLpV1.sol:StratPancakeLpV1",
        "label": "harvesters",
        "offset": 0,
        "slot": "6",
        "type": "t_mapping(t_address,t_bool)"
      },
      {
        "astId": 5776,
        "contract": "contracts/strategies/StratPancakeLpV1.sol:StratPancakeLpV1",
        "label": "depositTotal",
        "offset": 0,
        "slot": "7",
        "type": "t_uint256"
      },
      {
        "astId": 5779,
        "contract": "contracts/strategies/StratPancakeLpV1.sol:StratPancakeLpV1",
        "label": "sharesTotal",
        "offset": 0,
        "slot": "8",
        "type": "t_uint256"
      },
      {
        "astId": 5782,
        "contract": "contracts/strategies/StratPancakeLpV1.sol:StratPancakeLpV1",
        "label": "entranceFee",
        "offset": 0,
        "slot": "9",
        "type": "t_uint256"
      },
      {
        "astId": 5791,
        "contract": "contracts/strategies/StratPancakeLpV1.sol:StratPancakeLpV1",
        "label": "performanceFee",
        "offset": 0,
        "slot": "10",
        "type": "t_uint256"
      },
      {
        "astId": 5800,
        "contract": "contracts/strategies/StratPancakeLpV1.sol:StratPancakeLpV1",
        "label": "rewardsFeeFactor",
        "offset": 0,
        "slot": "11",
        "type": "t_uint256"
      },
      {
        "astId": 5803,
        "contract": "contracts/strategies/StratPancakeLpV1.sol:StratPancakeLpV1",
        "label": "treasuryFeeFactor",
        "offset": 0,
        "slot": "12",
        "type": "t_uint256"
      },
      {
        "astId": 5809,
        "contract": "contracts/strategies/StratPancakeLpV1.sol:StratPancakeLpV1",
        "label": "slippage",
        "offset": 0,
        "slot": "13",
        "type": "t_uint256"
      },
      {
        "astId": 5815,
        "contract": "contracts/strategies/StratPancakeLpV1.sol:StratPancakeLpV1",
        "label": "minEarnedToReinvest",
        "offset": 0,
        "slot": "14",
        "type": "t_uint256"
      },
      {
        "astId": 5824,
        "contract": "contracts/strategies/StratPancakeLpV1.sol:StratPancakeLpV1",
        "label": "earnedtokenToBallePath",
        "offset": 0,
        "slot": "15",
        "type": "t_array(t_address)dyn_storage"
      },
      {
        "astId": 5827,
        "contract": "contracts/strategies/StratPancakeLpV1.sol:StratPancakeLpV1",
        "label": "earnedtokenToToken0Path",
        "offset": 0,
        "slot": "16",
        "type": "t_array(t_address)dyn_storage"
      },
      {
        "astId": 5830,
        "contract": "contracts/strategies/StratPancakeLpV1.sol:StratPancakeLpV1",
        "label": "earnedtokenToToken1Path",
        "offset": 0,
        "slot": "17",
        "type": "t_array(t_address)dyn_storage"
      },
      {
        "astId": 5833,
        "contract": "contracts/strategies/StratPancakeLpV1.sol:StratPancakeLpV1",
        "label": "paused",
        "offset": 0,
        "slot": "18",
        "type": "t_bool"
      }
    ],
    "types": {
      "t_address": {
        "encoding": "inplace",
        "label": "address",
        "numberOfBytes": "20"
      },
      "t_array(t_address)dyn_storage": {
        "base": "t_address",
        "encoding": "dynamic_array",
        "label": "address[]",
        "numberOfBytes": "32"
      },
      "t_bool": {
        "encoding": "inplace",
        "label": "bool",
        "numberOfBytes": "1"
      },
      "t_mapping(t_address,t_bool)": {
        "encoding": "mapping",
        "key": "t_address",
        "label": "mapping(address => bool)",
        "numberOfBytes": "32",
        "value": "t_bool"
      },
      "t_uint256": {
        "encoding": "inplace",
        "label": "uint256",
        "numberOfBytes": "32"
      }
    }
  }
}