{
  "address": "0x6b6981B115779C72818C6696c48265e72ddB3435",
  "abi": [
    {
      "inputs": [
        {
          "internalType": "address[]",
          "name": "_addresses",
          "type": "address[]"
        },
        {
          "internalType": "uint256",
          "name": "_pid",
          "type": "uint256"
        },
        {
          "internalType": "address[]",
          "name": "_earnedtokenToBallePath",
          "type": "address[]"
        },
        {
          "internalType": "address[]",
          "name": "_earnedtokenToToken0Path",
          "type": "address[]"
        },
        {
          "internalType": "address[]",
          "name": "_earnedtokenToToken1Path",
          "type": "address[]"
        }
      ],
      "stateMutability": "nonpayable",
      "type": "constructor"
    },
    {
      "anonymous": false,
      "inputs": [
        {
          "indexed": false,
          "internalType": "uint256",
          "name": "rewardsAmount",
          "type": "uint256"
        },
        {
          "indexed": false,
          "internalType": "uint256",
          "name": "treasuryAmount",
          "type": "uint256"
        }
      ],
      "name": "DistributeFees",
      "type": "event"
    },
    {
      "anonymous": false,
      "inputs": [
        {
          "indexed": false,
          "internalType": "uint256",
          "name": "amount",
          "type": "uint256"
        }
      ],
      "name": "Harvest",
      "type": "event"
    },
    {
      "anonymous": false,
      "inputs": [
        {
          "indexed": true,
          "internalType": "address",
          "name": "previousOwner",
          "type": "address"
        },
        {
          "indexed": true,
          "internalType": "address",
          "name": "newOwner",
          "type": "address"
        }
      ],
      "name": "OwnershipTransferred",
      "type": "event"
    },
    {
      "anonymous": false,
      "inputs": [
        {
          "indexed": true,
          "internalType": "address",
          "name": "addr",
          "type": "address"
        }
      ],
      "name": "SetGovernance",
      "type": "event"
    },
    {
      "anonymous": false,
      "inputs": [
        {
          "indexed": false,
          "internalType": "uint256",
          "name": "entranceFee",
          "type": "uint256"
        },
        {
          "indexed": false,
          "internalType": "uint256",
          "name": "performanceFee",
          "type": "uint256"
        },
        {
          "indexed": false,
          "internalType": "uint256",
          "name": "rewardsFeeFactor",
          "type": "uint256"
        },
        {
          "indexed": false,
          "internalType": "uint256",
          "name": "treasuryFeeFactor",
          "type": "uint256"
        },
        {
          "indexed": false,
          "internalType": "uint256",
          "name": "slippage",
          "type": "uint256"
        },
        {
          "indexed": false,
          "internalType": "uint256",
          "name": "minEarnedToReinvest",
          "type": "uint256"
        }
      ],
      "name": "SetSettings",
      "type": "event"
    },
    {
      "inputs": [],
      "name": "ENTRANCE_FEE_LL",
      "outputs": [
        {
          "internalType": "uint256",
          "name": "",
          "type": "uint256"
        }
      ],
      "stateMutability": "view",
      "type": "function"
    },
    {
      "inputs": [],
      "name": "ENTRANCE_FEE_MAX",
      "outputs": [
        {
          "internalType": "uint256",
          "name": "",
          "type": "uint256"
        }
      ],
      "stateMutability": "view",
      "type": "function"
    },
    {
      "inputs": [],
      "name": "FEE_FACTOR_MAX",
      "outputs": [
        {
          "internalType": "uint256",
          "name": "",
          "type": "uint256"
        }
      ],
      "stateMutability": "view",
      "type": "function"
    },
    {
      "inputs": [],
      "name": "MIN_EARNED_TO_REINVEST_LL",
      "outputs": [
        {
          "internalType": "uint256",
          "name": "",
          "type": "uint256"
        }
      ],
      "stateMutability": "view",
      "type": "function"
    },
    {
      "inputs": [],
      "name": "MIN_EARNED_TO_REINVEST_UL",
      "outputs": [
        {
          "internalType": "uint256",
          "name": "",
          "type": "uint256"
        }
      ],
      "stateMutability": "view",
      "type": "function"
    },
    {
      "inputs": [],
      "name": "PERFORMANCE_FEE_MAX",
      "outputs": [
        {
          "internalType": "uint256",
          "name": "",
          "type": "uint256"
        }
      ],
      "stateMutability": "view",
      "type": "function"
    },
    {
      "inputs": [],
      "name": "PERFORMANCE_FEE_UL",
      "outputs": [
        {
          "internalType": "uint256",
          "name": "",
          "type": "uint256"
        }
      ],
      "stateMutability": "view",
      "type": "function"
    },
    {
      "inputs": [],
      "name": "SLIPPAGE_UL",
      "outputs": [
        {
          "internalType": "uint256",
          "name": "",
          "type": "uint256"
        }
      ],
      "stateMutability": "view",
      "type": "function"
    },
    {
      "inputs": [
        {
          "internalType": "address",
          "name": "_harvester",
          "type": "address"
        }
      ],
      "name": "addHarvester",
      "outputs": [],
      "stateMutability": "nonpayable",
      "type": "function"
    },
    {
      "inputs": [
        {
          "internalType": "address",
          "name": "_user",
          "type": "address"
        },
        {
          "internalType": "uint256",
          "name": "_amount",
          "type": "uint256"
        }
      ],
      "name": "deposit",
      "outputs": [
        {
          "internalType": "uint256",
          "name": "",
          "type": "uint256"
        }
      ],
      "stateMutability": "nonpayable",
      "type": "function"
    },
    {
      "inputs": [],
      "name": "depositToken",
      "outputs": [
        {
          "internalType": "address",
          "name": "",
          "type": "address"
        }
      ],
      "stateMutability": "view",
      "type": "function"
    },
    {
      "inputs": [],
      "name": "depositTotal",
      "outputs": [
        {
          "internalType": "uint256",
          "name": "",
          "type": "uint256"
        }
      ],
      "stateMutability": "view",
      "type": "function"
    },
    {
      "inputs": [],
      "name": "earnedtoken",
      "outputs": [
        {
          "internalType": "address",
          "name": "",
          "type": "address"
        }
      ],
      "stateMutability": "view",
      "type": "function"
    },
    {
      "inputs": [
        {
          "internalType": "uint256",
          "name": "",
          "type": "uint256"
        }
      ],
      "name": "earnedtokenToBallePath",
      "outputs": [
        {
          "internalType": "address",
          "name": "",
          "type": "address"
        }
      ],
      "stateMutability": "view",
      "type": "function"
    },
    {
      "inputs": [
        {
          "internalType": "uint256",
          "name": "",
          "type": "uint256"
        }
      ],
      "name": "earnedtokenToToken0Path",
      "outputs": [
        {
          "internalType": "address",
          "name": "",
          "type": "address"
        }
      ],
      "stateMutability": "view",
      "type": "function"
    },
    {
      "inputs": [
        {
          "internalType": "uint256",
          "name": "",
          "type": "uint256"
        }
      ],
      "name": "earnedtokenToToken1Path",
      "outputs": [
        {
          "internalType": "address",
          "name": "",
          "type": "address"
        }
      ],
      "stateMutability": "view",
      "type": "function"
    },
    {
      "inputs": [],
      "name": "entranceFee",
      "outputs": [
        {
          "internalType": "uint256",
          "name": "",
          "type": "uint256"
        }
      ],
      "stateMutability": "view",
      "type": "function"
    },
    {
      "inputs": [],
      "name": "governance",
      "outputs": [
        {
          "internalType": "address",
          "name": "",
          "type": "address"
        }
      ],
      "stateMutability": "view",
      "type": "function"
    },
    {
      "inputs": [],
      "name": "harvest",
      "outputs": [],
      "stateMutability": "nonpayable",
      "type": "function"
    },
    {
      "inputs": [
        {
          "internalType": "address",
          "name": "",
          "type": "address"
        }
      ],
      "name": "harvesters",
      "outputs": [
        {
          "internalType": "bool",
          "name": "",
          "type": "bool"
        }
      ],
      "stateMutability": "view",
      "type": "function"
    },
    {
      "inputs": [
        {
          "internalType": "address",
          "name": "_token",
          "type": "address"
        },
        {
          "internalType": "uint256",
          "name": "_amount",
          "type": "uint256"
        },
        {
          "internalType": "address",
          "name": "_to",
          "type": "address"
        }
      ],
      "name": "inCaseTokensGetStuck",
      "outputs": [],
      "stateMutability": "nonpayable",
      "type": "function"
    },
    {
      "inputs": [],
      "name": "masterChef",
      "outputs": [
        {
          "internalType": "address",
          "name": "",
          "type": "address"
        }
      ],
      "stateMutability": "view",
      "type": "function"
    },
    {
      "inputs": [],
      "name": "minEarnedToReinvest",
      "outputs": [
        {
          "internalType": "uint256",
          "name": "",
          "type": "uint256"
        }
      ],
      "stateMutability": "view",
      "type": "function"
    },
    {
      "inputs": [],
      "name": "operations",
      "outputs": [
        {
          "internalType": "address",
          "name": "",
          "type": "address"
        }
      ],
      "stateMutability": "view",
      "type": "function"
    },
    {
      "inputs": [],
      "name": "owner",
      "outputs": [
        {
          "internalType": "address",
          "name": "",
          "type": "address"
        }
      ],
      "stateMutability": "view",
      "type": "function"
    },
    {
      "inputs": [],
      "name": "panic",
      "outputs": [],
      "stateMutability": "nonpayable",
      "type": "function"
    },
    {
      "inputs": [],
      "name": "pause",
      "outputs": [],
      "stateMutability": "nonpayable",
      "type": "function"
    },
    {
      "inputs": [],
      "name": "paused",
      "outputs": [
        {
          "internalType": "bool",
          "name": "",
          "type": "bool"
        }
      ],
      "stateMutability": "view",
      "type": "function"
    },
    {
      "inputs": [],
      "name": "pendingEarnedToken",
      "outputs": [
        {
          "internalType": "uint256",
          "name": "",
          "type": "uint256"
        }
      ],
      "stateMutability": "view",
      "type": "function"
    },
    {
      "inputs": [],
      "name": "performanceFee",
      "outputs": [
        {
          "internalType": "uint256",
          "name": "",
          "type": "uint256"
        }
      ],
      "stateMutability": "view",
      "type": "function"
    },
    {
      "inputs": [],
      "name": "pid",
      "outputs": [
        {
          "internalType": "uint256",
          "name": "",
          "type": "uint256"
        }
      ],
      "stateMutability": "view",
      "type": "function"
    },
    {
      "inputs": [
        {
          "internalType": "address",
          "name": "_harvester",
          "type": "address"
        }
      ],
      "name": "removeHarvester",
      "outputs": [],
      "stateMutability": "nonpayable",
      "type": "function"
    },
    {
      "inputs": [],
      "name": "renounceOwnership",
      "outputs": [],
      "stateMutability": "nonpayable",
      "type": "function"
    },
    {
      "inputs": [],
      "name": "retire",
      "outputs": [],
      "stateMutability": "nonpayable",
      "type": "function"
    },
    {
      "inputs": [],
      "name": "rewards",
      "outputs": [
        {
          "internalType": "address",
          "name": "",
          "type": "address"
        }
      ],
      "stateMutability": "view",
      "type": "function"
    },
    {
      "inputs": [],
      "name": "rewardsFeeFactor",
      "outputs": [
        {
          "internalType": "uint256",
          "name": "",
          "type": "uint256"
        }
      ],
      "stateMutability": "view",
      "type": "function"
    },
    {
      "inputs": [],
      "name": "router",
      "outputs": [
        {
          "internalType": "address",
          "name": "",
          "type": "address"
        }
      ],
      "stateMutability": "view",
      "type": "function"
    },
    {
      "inputs": [
        {
          "internalType": "address",
          "name": "_governance",
          "type": "address"
        }
      ],
      "name": "setGovernance",
      "outputs": [],
      "stateMutability": "nonpayable",
      "type": "function"
    },
    {
      "inputs": [
        {
          "internalType": "address",
          "name": "_operations",
          "type": "address"
        }
      ],
      "name": "setOperations",
      "outputs": [],
      "stateMutability": "nonpayable",
      "type": "function"
    },
    {
      "inputs": [
        {
          "internalType": "address",
          "name": "_rewards",
          "type": "address"
        }
      ],
      "name": "setRewards",
      "outputs": [],
      "stateMutability": "nonpayable",
      "type": "function"
    },
    {
      "inputs": [
        {
          "internalType": "uint256",
          "name": "_entranceFee",
          "type": "uint256"
        },
        {
          "internalType": "uint256",
          "name": "_performanceFee",
          "type": "uint256"
        },
        {
          "internalType": "uint256",
          "name": "_rewardsFeeFactor",
          "type": "uint256"
        },
        {
          "internalType": "uint256",
          "name": "_treasuryFeeFactor",
          "type": "uint256"
        },
        {
          "internalType": "uint256",
          "name": "_slippage",
          "type": "uint256"
        },
        {
          "internalType": "uint256",
          "name": "_minEarnedToReinvest",
          "type": "uint256"
        }
      ],
      "name": "setSettings",
      "outputs": [],
      "stateMutability": "nonpayable",
      "type": "function"
    },
    {
      "inputs": [
        {
          "internalType": "address",
          "name": "_treasury",
          "type": "address"
        }
      ],
      "name": "setTreasury",
      "outputs": [],
      "stateMutability": "nonpayable",
      "type": "function"
    },
    {
      "inputs": [],
      "name": "sharesTotal",
      "outputs": [
        {
          "internalType": "uint256",
          "name": "",
          "type": "uint256"
        }
      ],
      "stateMutability": "view",
      "type": "function"
    },
    {
      "inputs": [],
      "name": "slippage",
      "outputs": [
        {
          "internalType": "uint256",
          "name": "",
          "type": "uint256"
        }
      ],
      "stateMutability": "view",
      "type": "function"
    },
    {
      "inputs": [],
      "name": "token0",
      "outputs": [
        {
          "internalType": "address",
          "name": "",
          "type": "address"
        }
      ],
      "stateMutability": "view",
      "type": "function"
    },
    {
      "inputs": [],
      "name": "token1",
      "outputs": [
        {
          "internalType": "address",
          "name": "",
          "type": "address"
        }
      ],
      "stateMutability": "view",
      "type": "function"
    },
    {
      "inputs": [
        {
          "internalType": "address",
          "name": "newOwner",
          "type": "address"
        }
      ],
      "name": "transferOwnership",
      "outputs": [],
      "stateMutability": "nonpayable",
      "type": "function"
    },
    {
      "inputs": [],
      "name": "treasury",
      "outputs": [
        {
          "internalType": "address",
          "name": "",
          "type": "address"
        }
      ],
      "stateMutability": "view",
      "type": "function"
    },
    {
      "inputs": [],
      "name": "treasuryFeeFactor",
      "outputs": [
        {
          "internalType": "uint256",
          "name": "",
          "type": "uint256"
        }
      ],
      "stateMutability": "view",
      "type": "function"
    },
    {
      "inputs": [],
      "name": "unpause",
      "outputs": [],
      "stateMutability": "nonpayable",
      "type": "function"
    },
    {
      "inputs": [
        {
          "internalType": "address",
          "name": "_user",
          "type": "address"
        },
        {
          "internalType": "uint256",
          "name": "_amount",
          "type": "uint256"
        }
      ],
      "name": "withdraw",
      "outputs": [
        {
          "internalType": "uint256",
          "name": "",
          "type": "uint256"
        },
        {
          "internalType": "uint256",
          "name": "",
          "type": "uint256"
        }
      ],
      "stateMutability": "nonpayable",
      "type": "function"
    }
  ],
  "transactionHash": "0x3132d30bc64e644f7ed998850adfbfcbe03dd2c9d190b4bd6e6f2bc9f3c71cab",
  "args": [
    [
      "0x24EB18bA412701f278B172ef96697c4622b19da6",
      "0xbb4CdB9CBd36B01bD1cBaEBF2De08d9173bc095c",
      "0x72fAa679E1008Ad8382959FF48E392042A8b06f7",
      "0x0e09fabb73bd3ade0a17ecc321fd13a19e81ce82",
      "0x10ED43C718714eb63d5aA57B78B54704E256024E",
      "0x73feaa1eE314F8c655E354234017bE2193C9E24E",
      "0x4B32dC8a48398390E7fc84c648b41Ad07dA1350B",
      "0xb25D37892305FE1b44c06F035139a0ED11EcA82d",
      "0x11E4Ecf13e3B4ccB246aE538d28eCCEb28E28833",
      "0xe81E27BE6b4171601E1C055959dB2940655c544D"
    ],
    279,
    [
      "0x0e09fabb73bd3ade0a17ecc321fd13a19e81ce82",
      "0xbb4CdB9CBd36B01bD1cBaEBF2De08d9173bc095c",
      "0x9714C04b34E6300964161c3aC37b86451E79152d"
    ],
    [
      "0x0e09fabb73bd3ade0a17ecc321fd13a19e81ce82",
      "0xbb4CdB9CBd36B01bD1cBaEBF2De08d9173bc095c"
    ],
    [
      "0x0e09fabb73bd3ade0a17ecc321fd13a19e81ce82",
      "0xbb4CdB9CBd36B01bD1cBaEBF2De08d9173bc095c",
      "0x72fAa679E1008Ad8382959FF48E392042A8b06f7"
    ]
  ],
  "solcInputHash": "d7ef9fff6bd1976c8624b8a20001dc82",
  "bytecode": "0x610160604052600060068190556007556127066008556101906009556102ee600a5560fa600b556103b6600c55678ac7230489e80000600d556011805460ff191690553480156200004f57600080fd5b50604051620036f1380380620036f1833981016040819052620000729162000687565b600080546001600160a01b03191633908117825560405190918291600080516020620036d1833981519152908290a35060008411620000e65760405162461bcd60e51b8152600401620000dd90602080825260049082015263085c1a5960e21b604082015260600190565b60405180910390fd5b846000815181106200010857634e487b7160e01b600052603260045260246000fd5b60200260200101516001600160a01b031660c0816001600160a01b031660601b81525050846001815181106200014e57634e487b7160e01b600052603260045260246000fd5b60200260200101516001600160a01b031660e0816001600160a01b031660601b81525050846002815181106200019457634e487b7160e01b600052603260045260246000fd5b60200260200101516001600160a01b0316610100816001600160a01b031660601b8152505084600381518110620001db57634e487b7160e01b600052603260045260246000fd5b60200260200101516001600160a01b0316610120816001600160a01b031660601b81525050846004815181106200022257634e487b7160e01b600052603260045260246000fd5b60200260200101516001600160a01b0316610140816001600160a01b031660601b81525050846005815181106200026957634e487b7160e01b600052603260045260246000fd5b602090810291909101015160601b6001600160601b03191660805260a084905260038054336001600160a01b0319909116179055845160019060059060009088906007908110620002ca57634e487b7160e01b600052603260045260246000fd5b60200260200101516001600160a01b03166001600160a01b0316815260200190815260200160002060006101000a81548160ff021916908315150217905550846008815181106200032b57634e487b7160e01b600052603260045260246000fd5b6020026020010151600160006101000a8154816001600160a01b0302191690836001600160a01b03160217905550846009815181106200037b57634e487b7160e01b600052603260045260246000fd5b602090810291909101810151600280546001600160a01b0319166001600160a01b039092169190911790558351620003ba91600e919086019062000539565b508151620003d090600f90602085019062000539565b508051620003e690601090602084019062000539565b5062000421856006815181106200040d57634e487b7160e01b600052603260045260246000fd5b60200260200101516200042c60201b60201c565b50505050506200075b565b6000546001600160a01b03163314620004885760405162461bcd60e51b815260206004820181905260248201527f4f776e61626c653a2063616c6c6572206973206e6f7420746865206f776e65726044820152606401620000dd565b6001600160a01b038116620004ef5760405162461bcd60e51b815260206004820152602660248201527f4f776e61626c653a206e6577206f776e657220697320746865207a65726f206160448201526564647265737360d01b6064820152608401620000dd565b600080546040516001600160a01b0380851693921691600080516020620036d183398151915291a3600080546001600160a01b0319166001600160a01b0392909216919091179055565b82805482825590600052602060002090810192821562000591579160200282015b828111156200059157825182546001600160a01b0319166001600160a01b039091161782556020909201916001909101906200055a565b506200059f929150620005a3565b5090565b5b808211156200059f5760008155600101620005a4565b80516001600160a01b0381168114620005d257600080fd5b919050565b600082601f830112620005e8578081fd5b815160206001600160401b038083111562000607576200060762000745565b8260051b604051601f19603f830116810181811084821117156200062f576200062f62000745565b604052848152838101925086840182880185018910156200064e578687fd5b8692505b858310156200067b576200066681620005ba565b84529284019260019290920191840162000652565b50979650505050505050565b600080600080600060a086880312156200069f578081fd5b85516001600160401b0380821115620006b6578283fd5b620006c489838a01620005d7565b9650602088015195506040880151915080821115620006e1578283fd5b620006ef89838a01620005d7565b9450606088015191508082111562000705578283fd5b6200071389838a01620005d7565b9350608088015191508082111562000729578283fd5b506200073888828901620005d7565b9150509295509295909350565b634e487b7160e01b600052604160045260246000fd5b60805160601c60a05160c05160601c60e05160601c6101005160601c6101205160601c6101405160601c612db9620009186000396000818161067301528181611ab601528181611bb001528181611d9d01528181611f6001528181611fb50152818161200a0152818161217d015281816121d301528181612229015281816122a3015261236001526000818161069a01528181610b6a01528181610df101528181610e8c0152818161198501528181611a8401528181611b7e01528181611f3e015261215b01526000818161059f01528181611b5401528181611d0201528181611de501528181611fe8015261220701526000818161034201528181611a5a01528181611c5d01528181611dc401528181611f9301526121b101526000818161056501528181610a6e01528181610bd4015281816116810152818161173f0152818161179601528181611ee90152612105015260008181610608015281816106f501528181610934015281816115d70152818161183a01526118dd0152600081816103db015281816107240152818161095a01528181611604015281816118670152818161190a01528181611f0b01526121270152612db96000f3fe608060405234801561001057600080fd5b50600436106102f15760003560e01c8063871392c41161019d578063c89039c5116100e9578063f0f44260116100a2578063f384a44c1161007c578063f384a44c1461063d578063f3fef3a314610646578063f887ea401461066e578063fca3ece714610695576102f1565b8063f0f44260146105f0578063f106845414610603578063f2fde38b1461062a576102f1565b8063c89039c514610560578063cc917f4e14610587578063d21220a71461059a578063e695b9d9146105c1578063ec38a862146105d4578063ed0f4352146105e7576102f1565b8063952e6ee911610156578063a4874d7711610130578063a4874d771461051f578063ab033ea914610527578063aff660951461053a578063c32c1e651461054d576102f1565b8063952e6ee9146104fa5780639ae0ddaf146105035780639ec5a8941461050c576102f1565b8063871392c41461048e578063877887821461049757806387976583146104a05780638b33b4b2146104c35780638da5cb5b146104d65780638fab5917146104e7576102f1565b8063512ab1711161025c578063649677e1116102155780637215313d116101ef5780637215313d14610464578063790f6e511461046d5780637a3404881461047d5780638456cb5914610486576102f1565b8063649677e11461044057806367206d4014610449578063715018a61461045c576102f1565b8063512ab171146103c3578063575a86b2146103d65780635aa6e675146103fd5780635b5be8dd146102f65780635c975abb1461041057806361d027b31461042d576102f1565b80633f4ba83a116102ae5780633f4ba83a1461038457806344a3955e1461038e5780634641257d146103975780634700d3051461039f57806347e7ef24146103a75780634adae0da146103ba576102f1565b806304448370146102f6578063072140be146103125780630dfe16811461033d57806313c50bea146103645780632838ee9c146103735780633e032a3b1461037b575b600080fd5b6102ff61271081565b6040519081526020015b60405180910390f35b610325610320366004612a9b565b6106bc565b6040516001600160a01b039091168152602001610309565b6103257f000000000000000000000000000000000000000000000000000000000000000081565b6102ff670de0b6b3a764000081565b6102ff6106e6565b6102ff600c5481565b61038c6107ab565b005b6102ff60075481565b61038c610833565b61038c6108d8565b6102ff6103b5366004612957565b6109d5565b6102ff60065481565b6103256103d1366004612a9b565b610b08565b6103257f000000000000000000000000000000000000000000000000000000000000000081565b600354610325906001600160a01b031681565b60115461041d9060ff1681565b6040519015158152602001610309565b600254610325906001600160a01b031681565b6102ff60085481565b61038c610457366004612980565b610b18565b61038c610c55565b6102ff6103de81565b6102ff6801158e460913d0000081565b6102ff61032081565b61038c610cc9565b6102ff600d5481565b6102ff60095481565b61041d6104ae36600461293d565b60056020526000908152604090205460ff1681565b600454610325906001600160a01b031681565b6000546001600160a01b0316610325565b61038c6104f536600461293d565b610d1e565b6102ff600a5481565b6102ff6126de81565b600154610325906001600160a01b031681565b61038c610da7565b61038c61053536600461293d565b610eb8565b61038c61054836600461293d565b610f52565b61038c61055b36600461293d565b610fd8565b6103257f000000000000000000000000000000000000000000000000000000000000000081565b61038c610595366004612af8565b61104a565b6103257f000000000000000000000000000000000000000000000000000000000000000081565b6103256105cf366004612a9b565b6112fc565b61038c6105e236600461293d565b61130c565b6102ff6103e881565b61038c6105fe36600461293d565b61137e565b6102ff7f000000000000000000000000000000000000000000000000000000000000000081565b61038c61063836600461293d565b6113f0565b6102ff600b5481565b610659610654366004612957565b6114da565b60408051928352602083019190915201610309565b6103257f000000000000000000000000000000000000000000000000000000000000000081565b6103257f000000000000000000000000000000000000000000000000000000000000000081565b600f81815481106106cc57600080fd5b6000918252602090912001546001600160a01b0316905081565b604051631175a1dd60e01b81527f000000000000000000000000000000000000000000000000000000000000000060048201523060248201526000907f00000000000000000000000000000000000000000000000000000000000000006001600160a01b031690631175a1dd9060440160206040518083038186803b15801561076e57600080fd5b505afa158015610782573d6000803e3d6000fd5b505050506040513d601f19601f820116820180604052508101906107a69190612ab3565b905090565b6000546001600160a01b031633146107de5760405162461bcd60e51b81526004016107d590612c16565b60405180910390fd5b60115460ff1661081a5760405162461bcd60e51b8152602060048201526007602482015266085c185d5cd95960ca1b60448201526064016107d5565b600060065561082761176f565b6011805460ff19169055565b3360009081526005602052604090205460ff168061085b57506004546001600160a01b031633145b8061087057506003546001600160a01b031633145b6108a95760405162461bcd60e51b815260206004820152600a60248201526910b430b93b32b9ba32b960b11b60448201526064016107d5565b60115460ff16156108cc5760405162461bcd60e51b81526004016107d590612c71565b6108d660006118ce565b565b6000546001600160a01b031633146109025760405162461bcd60e51b81526004016107d590612c16565b60115460ff16156109255760405162461bcd60e51b81526004016107d590612c71565b604051632989754760e11b81527f000000000000000000000000000000000000000000000000000000000000000060048201527f00000000000000000000000000000000000000000000000000000000000000006001600160a01b031690635312ea8e90602401600060405180830381600087803b1580156109a657600080fd5b505af11580156109ba573d6000803e3d6000fd5b505050506109c6611edc565b6011805460ff19166001179055565b600080546001600160a01b03163314610a005760405162461bcd60e51b81526004016107d590612c16565b60115460ff1615610a235760405162461bcd60e51b81526004016107d590612c71565b6001600160a01b038316610a615760405162461bcd60e51b815260206004820152600560248201526410bab9b2b960d91b60448201526064016107d5565b610a966001600160a01b037f000000000000000000000000000000000000000000000000000000000000000016333085612030565b600654829015801590610aab57506000600754115b15610ae85761271060065460085460075486610ac79190612d1e565b610ad19190612d1e565b610adb9190612cfe565b610ae59190612cfe565b90505b80600754610af69190612ce6565b600755610b0161176f565b9392505050565b601081815481106106cc57600080fd5b6003546001600160a01b03163314610b425760405162461bcd60e51b81526004016107d590612bcc565b6001600160a01b038116610b685760405162461bcd60e51b81526004016107d590612c4b565b7f00000000000000000000000000000000000000000000000000000000000000006001600160a01b0316836001600160a01b03161415610bd25760405162461bcd60e51b8152602060048201526005602482015264217361666560d81b60448201526064016107d5565b7f00000000000000000000000000000000000000000000000000000000000000006001600160a01b0316836001600160a01b03161415610c3c5760405162461bcd60e51b8152602060048201526005602482015264217361666560d81b60448201526064016107d5565b610c506001600160a01b038416828461209b565b505050565b6000546001600160a01b03163314610c7f5760405162461bcd60e51b81526004016107d590612c16565b600080546040516001600160a01b03909116907f8be0079c531659141344cd1fd0a4f28419497f9722a3daafe3b4186f6b6457e0908390a3600080546001600160a01b0319169055565b6000546001600160a01b03163314610cf35760405162461bcd60e51b81526004016107d590612c16565b60115460ff1615610d165760405162461bcd60e51b81526004016107d590612c71565b6108d66120cb565b6004546001600160a01b0316331480610d4157506003546001600160a01b031633145b610d5d5760405162461bcd60e51b81526004016107d590612bf1565b6001600160a01b038116610d835760405162461bcd60e51b81526004016107d590612c4b565b6001600160a01b03166000908152600560205260409020805460ff19166001179055565b6000546001600160a01b03163314610dd15760405162461bcd60e51b81526004016107d590612c16565b610dd96120cb565b6040516370a0823160e01b81523060048201526000907f00000000000000000000000000000000000000000000000000000000000000006001600160a01b0316906370a082319060240160206040518083038186803b158015610e3b57600080fd5b505afa158015610e4f573d6000803e3d6000fd5b505050506040513d601f19601f82011682018060405250810190610e739190612ab3565b90508015610eb557600254610eb5906001600160a01b037f0000000000000000000000000000000000000000000000000000000000000000811691168361209b565b50565b6003546001600160a01b03163314610ee25760405162461bcd60e51b81526004016107d590612bcc565b6001600160a01b038116610f085760405162461bcd60e51b81526004016107d590612c4b565b600380546001600160a01b0319166001600160a01b0383169081179091556040517f24a8c4807b324a269a51827c3446b8ac1cc13810d7d0c0ca1efafabddd7b621990600090a250565b6004546001600160a01b0316331480610f7557506003546001600160a01b031633145b610f915760405162461bcd60e51b81526004016107d590612bf1565b6001600160a01b038116610fb75760405162461bcd60e51b81526004016107d590612c4b565b6001600160a01b03166000908152600560205260409020805460ff19169055565b6003546001600160a01b031633146110025760405162461bcd60e51b81526004016107d590612bcc565b6001600160a01b0381166110285760405162461bcd60e51b81526004016107d590612c4b565b600480546001600160a01b0319166001600160a01b0392909216919091179055565b6004546001600160a01b031633148061106d57506003546001600160a01b031633145b6110895760405162461bcd60e51b81526004016107d590612bf1565b6126de8610156110cc5760405162461bcd60e51b815260206004820152600e60248201526d08595b9d1c985b98d9519959531360921b60448201526064016107d5565b6127108611156111105760405162461bcd60e51b815260206004820152600f60248201526e042cadce8e4c2dcc6ca8ccaca9ac2f608b1b60448201526064016107d5565b600886905561032085111561115b5760405162461bcd60e51b8152602060048201526011602482015270085c195c999bdc9b585b98d95199595553607a1b60448201526064016107d5565b60098590556103e861116d8486612ce6565b146111a75760405162461bcd60e51b815260206004820152600a60248201526910b332b2a330b1ba37b960b11b60448201526064016107d5565b600a849055600b8390556103de8211156111f15760405162461bcd60e51b815260206004820152600b60248201526a085cdb1a5c1c1859d9555360aa1b60448201526064016107d5565b600c8290556801158e460913d000008111156112485760405162461bcd60e51b8152602060048201526016602482015275085b5a5b91585c9b9959151bd4995a5b9d995cdd155360521b60448201526064016107d5565b670de0b6b3a76400008110156112995760405162461bcd60e51b8152602060048201526016602482015275085b5a5b91585c9b9959151bd4995a5b9d995cdd131360521b60448201526064016107d5565b600d8190556040805187815260208101879052908101859052606081018490526080810183905260a081018290527fcb4ecc62ba7efb533c814d48b7dc1c8f06063d93bf32c3730c1ec47011e8747a9060c00160405180910390a1505050505050565b600e81815481106106cc57600080fd5b6003546001600160a01b031633146113365760405162461bcd60e51b81526004016107d590612bcc565b6001600160a01b03811661135c5760405162461bcd60e51b81526004016107d590612c4b565b600180546001600160a01b0319166001600160a01b0392909216919091179055565b6003546001600160a01b031633146113a85760405162461bcd60e51b81526004016107d590612bcc565b6001600160a01b0381166113ce5760405162461bcd60e51b81526004016107d590612c4b565b600280546001600160a01b0319166001600160a01b0392909216919091179055565b6000546001600160a01b0316331461141a5760405162461bcd60e51b81526004016107d590612c16565b6001600160a01b03811661147f5760405162461bcd60e51b815260206004820152602660248201527f4f776e61626c653a206e6577206f776e657220697320746865207a65726f206160448201526564647265737360d01b60648201526084016107d5565b600080546040516001600160a01b03808516939216917f8be0079c531659141344cd1fd0a4f28419497f9722a3daafe3b4186f6b6457e091a3600080546001600160a01b0319166001600160a01b0392909216919091179055565b6000805481906001600160a01b031633146115075760405162461bcd60e51b81526004016107d590612c16565b6001600160a01b0384166115455760405162461bcd60e51b815260206004820152600560248201526410bab9b2b960d91b60448201526064016107d5565b6000831161157f5760405162461bcd60e51b815260206004820152600760248201526608585b5bdd5b9d60ca1b60448201526064016107d5565b6000600654600754856115929190612d1e565b61159c9190612cfe565b90506007548111156115ad57506007545b806007546115bb9190612d3d565b60075560115460ff1661166957604051630441a3e760e41b81527f00000000000000000000000000000000000000000000000000000000000000006004820152602481018590527f00000000000000000000000000000000000000000000000000000000000000006001600160a01b03169063441a3e7090604401600060405180830381600087803b15801561165057600080fd5b505af1158015611664573d6000803e3d6000fd5b505050505b6040516370a0823160e01b81523060048201526000907f00000000000000000000000000000000000000000000000000000000000000006001600160a01b0316906370a082319060240160206040518083038186803b1580156116cb57600080fd5b505afa1580156116df573d6000803e3d6000fd5b505050506040513d601f19601f820116820180604052508101906117039190612ab3565b905080851115611711578094505b8460065410156117215760065494505b8460065461172f9190612d3d565b6006556117666001600160a01b037f000000000000000000000000000000000000000000000000000000000000000016338761209b565b50949293505050565b60065461177e5761177e6120f0565b6040516370a0823160e01b81523060048201526000907f00000000000000000000000000000000000000000000000000000000000000006001600160a01b0316906370a082319060240160206040518083038186803b1580156117e057600080fd5b505afa1580156117f4573d6000803e3d6000fd5b505050506040513d601f19601f820116820180604052508101906118189190612ab3565b9050806006546118289190612ce6565b600655604051631c57762b60e31b81527f00000000000000000000000000000000000000000000000000000000000000006004820152602481018290527f00000000000000000000000000000000000000000000000000000000000000006001600160a01b03169063e2bbb15890604401600060405180830381600087803b1580156118b357600080fd5b505af11580156118c7573d6000803e3d6000fd5b5050505050565b604051630441a3e760e41b81527f00000000000000000000000000000000000000000000000000000000000000006004820152602481018290527f00000000000000000000000000000000000000000000000000000000000000006001600160a01b03169063441a3e7090604401600060405180830381600087803b15801561195657600080fd5b505af115801561196a573d6000803e3d6000fd5b50506040516370a0823160e01b8152306004820152600092507f00000000000000000000000000000000000000000000000000000000000000006001600160a01b031691506370a082319060240160206040518083038186803b1580156119d057600080fd5b505afa1580156119e4573d6000803e3d6000fd5b505050506040513d601f19601f82011682018060405250810190611a089190612ab3565b9050600d54811015611a1a5750610eb5565b6040518181527f80f97f878e16410266694f134ddf012f2be424f54f8b5cafa107eccc51d00d589060200160405180910390a1611a5681612250565b90507f00000000000000000000000000000000000000000000000000000000000000006001600160a01b03167f00000000000000000000000000000000000000000000000000000000000000006001600160a01b031614611b5257611b527f0000000000000000000000000000000000000000000000000000000000000000611ae0600284612cfe565b600c54600f805480602002602001604051908101604052809291908181526020018280548015611b3957602002820191906000526020600020905b81546001600160a01b03168152600190910190602001808311611b1b575b50505050503042610258611b4d9190612ce6565b61244b565b7f00000000000000000000000000000000000000000000000000000000000000006001600160a01b03167f00000000000000000000000000000000000000000000000000000000000000006001600160a01b031614611c4557611c457f0000000000000000000000000000000000000000000000000000000000000000611bda600284612cfe565b600c546010805480602002602001604051908101604052809291908181526020018280548015611b39576020028201919060005260206000209081546001600160a01b03168152600190910190602001808311611b1b5750505050503042610258611b4d9190612ce6565b6040516370a0823160e01b81523060048201526000907f00000000000000000000000000000000000000000000000000000000000000006001600160a01b0316906370a082319060240160206040518083038186803b158015611ca757600080fd5b505afa158015611cbb573d6000803e3d6000fd5b505050506040513d601f19601f82011682018060405250810190611cdf9190612ab3565b6040516370a0823160e01b81523060048201529091506000906001600160a01b037f000000000000000000000000000000000000000000000000000000000000000016906370a082319060240160206040518083038186803b158015611d4457600080fd5b505afa158015611d58573d6000803e3d6000fd5b505050506040513d601f19601f82011682018060405250810190611d7c9190612ab3565b9050600082118015611d8e5750600081115b15611ec9576001600160a01b037f00000000000000000000000000000000000000000000000000000000000000001663e8e337007f00000000000000000000000000000000000000000000000000000000000000007f0000000000000000000000000000000000000000000000000000000000000000858560008030611e1642610258612ce6565b60405160e08a901b6001600160e01b03191681526001600160a01b039889166004820152968816602488015260448701959095526064860193909352608485019190915260a484015290921660c482015260e481019190915261010401606060405180830381600087803b158015611e8d57600080fd5b505af1158015611ea1573d6000803e3d6000fd5b505050506040513d601f19601f82011682018060405250810190611ec59190612acb565b5050505b83611ed657611ed661176f565b50505050565b611f316001600160a01b037f0000000000000000000000000000000000000000000000000000000000000000167f000000000000000000000000000000000000000000000000000000000000000060006125b8565b611f866001600160a01b037f0000000000000000000000000000000000000000000000000000000000000000167f000000000000000000000000000000000000000000000000000000000000000060006125b8565b611fdb6001600160a01b037f0000000000000000000000000000000000000000000000000000000000000000167f000000000000000000000000000000000000000000000000000000000000000060006125b8565b6108d66001600160a01b037f0000000000000000000000000000000000000000000000000000000000000000167f000000000000000000000000000000000000000000000000000000000000000060006125b8565b6040516001600160a01b0380851660248301528316604482015260648101829052611ed69085906323b872dd60e01b906084015b60408051601f198184030181529190526020810180516001600160e01b03166001600160e01b0319909316929092179091526126dc565b6040516001600160a01b038316602482015260448101829052610c5090849063a9059cbb60e01b90606401612064565b60115460ff166108d657600654156120e8576120e86006546118ce565b6109c6611edc565b6120f8611edc565b61214e6001600160a01b037f0000000000000000000000000000000000000000000000000000000000000000167f00000000000000000000000000000000000000000000000000000000000000006000196125b8565b6121a46001600160a01b037f0000000000000000000000000000000000000000000000000000000000000000167f00000000000000000000000000000000000000000000000000000000000000006000196125b8565b6121fa6001600160a01b037f0000000000000000000000000000000000000000000000000000000000000000167f00000000000000000000000000000000000000000000000000000000000000006000196125b8565b6108d66001600160a01b037f0000000000000000000000000000000000000000000000000000000000000000167f00000000000000000000000000000000000000000000000000000000000000006000196125b8565b600081156124435760095415612443576000612710600954846122739190612d1e565b61227d9190612cfe565b905060006103e8600b54836122929190612d1e565b61229c9190612cfe565b905061233c7f000000000000000000000000000000000000000000000000000000000000000082600c54600e80548060200260200160405190810160405280929190818152602001828054801561231c57602002820191906000526020600020905b81546001600160a01b031681526001909101906020018083116122fe575b50506002546001600160a01b03169250611b4d9150429050610258612ce6565b60006103e8600a548461234f9190612d1e565b6123599190612cfe565b90506123f97f000000000000000000000000000000000000000000000000000000000000000082600c54600e8054806020026020016040519081016040528092919081815260200182805480156123d957602002820191906000526020600020905b81546001600160a01b031681526001909101906020018083116123bb575b50506001546001600160a01b03169250611b4d9150429050610258612ce6565b6124038386612d3d565b60408051838152602081018590529196507f916ad8171ef8c567c7790377a142f0200f9565940680c06e30dd105cfd924968910160405180910390a15050505b50805b919050565b60405163d06ca61f60e01b81526000906001600160a01b0388169063d06ca61f9061247c9089908890600401612c91565b60006040518083038186803b15801561249457600080fd5b505afa1580156124a8573d6000803e3d6000fd5b505050506040513d6000823e601f3d908101601f191682016040526124d091908101906129bb565b9050600081600183516124e39190612d3d565b8151811061250157634e487b7160e01b600052603260045260246000fd5b60200260200101519050876001600160a01b03166338ed1739886103e8898561252a9190612d1e565b6125349190612cfe565b8888886040518663ffffffff1660e01b8152600401612557959493929190612caa565b600060405180830381600087803b15801561257157600080fd5b505af1158015612585573d6000803e3d6000fd5b505050506040513d6000823e601f3d908101601f191682016040526125ad91908101906129bb565b505050505050505050565b8015806126415750604051636eb1769f60e11b81523060048201526001600160a01b03838116602483015284169063dd62ed3e9060440160206040518083038186803b15801561260757600080fd5b505afa15801561261b573d6000803e3d6000fd5b505050506040513d601f19601f8201168201806040525081019061263f9190612ab3565b155b6126ac5760405162461bcd60e51b815260206004820152603660248201527f5361666545524332303a20617070726f76652066726f6d206e6f6e2d7a65726f60448201527520746f206e6f6e2d7a65726f20616c6c6f77616e636560501b60648201526084016107d5565b6040516001600160a01b038316602482015260448101829052610c5090849063095ea7b360e01b90606401612064565b6000612731826040518060400160405280602081526020017f5361666545524332303a206c6f772d6c6576656c2063616c6c206661696c6564815250856001600160a01b03166127ae9092919063ffffffff16565b805190915015610c50578080602001905181019061274f9190612a7b565b610c505760405162461bcd60e51b815260206004820152602a60248201527f5361666545524332303a204552433230206f7065726174696f6e20646964206e6044820152691bdd081cdd58d8d9595960b21b60648201526084016107d5565b60606127bd84846000856127c5565b949350505050565b6060824710156128265760405162461bcd60e51b815260206004820152602660248201527f416464726573733a20696e73756666696369656e742062616c616e636520666f6044820152651c8818d85b1b60d21b60648201526084016107d5565b843b6128745760405162461bcd60e51b815260206004820152601d60248201527f416464726573733a2063616c6c20746f206e6f6e2d636f6e747261637400000060448201526064016107d5565b600080866001600160a01b031685876040516128909190612b7d565b60006040518083038185875af1925050503d80600081146128cd576040519150601f19603f3d011682016040523d82523d6000602084013e6128d2565b606091505b50915091506128e28282866128ed565b979650505050505050565b606083156128fc575081610b01565b82511561290c5782518084602001fd5b8160405162461bcd60e51b81526004016107d59190612b99565b80356001600160a01b038116811461244657600080fd5b60006020828403121561294e578081fd5b610b0182612926565b60008060408385031215612969578081fd5b61297283612926565b946020939093013593505050565b600080600060608486031215612994578081fd5b61299d84612926565b9250602084013591506129b260408501612926565b90509250925092565b600060208083850312156129cd578182fd5b825167ffffffffffffffff808211156129e4578384fd5b818501915085601f8301126129f7578384fd5b815181811115612a0957612a09612d96565b8060051b604051601f19603f83011681018181108582111715612a2e57612a2e612d96565b604052828152858101935084860182860187018a1015612a4c578788fd5b8795505b83861015612a6e578051855260019590950194938601938601612a50565b5098975050505050505050565b600060208284031215612a8c578081fd5b81518015158114610b01578182fd5b600060208284031215612aac578081fd5b5035919050565b600060208284031215612ac4578081fd5b5051919050565b600080600060608486031215612adf578283fd5b8351925060208401519150604084015190509250925092565b60008060008060008060c08789031215612b10578182fd5b505084359660208601359650604086013595606081013595506080810135945060a0013592509050565b6000815180845260208085019450808401835b83811015612b725781516001600160a01b031687529582019590820190600101612b4d565b509495945050505050565b60008251612b8f818460208701612d54565b9190910192915050565b6000602082528251806020840152612bb8816040850160208701612d54565b601f01601f19169190910160400192915050565b6020808252600b908201526a21676f7665726e616e636560a81b604082015260600190565b6020808252600b908201526a216f7065726174696f6e7360a81b604082015260600190565b6020808252818101527f4f776e61626c653a2063616c6c6572206973206e6f7420746865206f776e6572604082015260600190565b6020808252600c908201526b7a65726f206164647265737360a01b604082015260600190565b6020808252600690820152651c185d5cd95960d21b604082015260600190565b6000838252604060208301526127bd6040830184612b3a565b600086825285602083015260a06040830152612cc960a0830186612b3a565b6001600160a01b0394909416606083015250608001529392505050565b60008219821115612cf957612cf9612d80565b500190565b600082612d1957634e487b7160e01b81526012600452602481fd5b500490565b6000816000190483118215151615612d3857612d38612d80565b500290565b600082821015612d4f57612d4f612d80565b500390565b60005b83811015612d6f578181015183820152602001612d57565b83811115611ed65750506000910152565b634e487b7160e01b600052601160045260246000fd5b634e487b7160e01b600052604160045260246000fdfea164736f6c6343000803000a8be0079c531659141344cd1fd0a4f28419497f9722a3daafe3b4186f6b6457e0",
  "devdoc": {
    "details": "Implementation of the PancakeSwap LP Strategy. This contract will compound LP tokens. The owner of the contract is the BalleMaster contract.",
    "kind": "dev",
    "methods": {
      "addHarvester(address)": {
        "details": "Add a harvester address."
      },
      "constructor": {
        "details": "Implementation of PancakeSwap LP autocompounding strategy."
      },
      "deposit(address,uint256)": {
        "details": "Function to transfer tokens BalleMaster -> strategy and put it to work."
      },
      "harvest()": {
        "details": "Function to harvest earnings and reinvest."
      },
      "inCaseTokensGetStuck(address,uint256,address)": {
        "details": "Function to use from Governance Gnosis Safe multisig only in case tokens get stuck. This is to be used if someone, for example, sends tokens to the contract by mistake. There is no guarantee governance will vote to return these."
      },
      "owner()": {
        "details": "Returns the address of the current owner."
      },
      "panic()": {
        "details": "Stop the vault with emergencyWithdraw from farm."
      },
      "pause()": {
        "details": "Stop the vault."
      },
      "pendingEarnedToken()": {
        "details": "View function to see pending CAKEs on farm."
      },
      "removeHarvester(address)": {
        "details": "Remove a harvester address."
      },
      "renounceOwnership()": {
        "details": "Leaves the contract without owner. It will not be possible to call `onlyOwner` functions anymore. Can only be called by the current owner. NOTE: Renouncing ownership will leave the contract without an owner, thereby removing any functionality that is only available to the owner."
      },
      "retire()": {
        "details": "Retire the vault."
      },
      "setGovernance(address)": {
        "details": "Function to change the Governance Gnosis Safe multisig."
      },
      "setOperations(address)": {
        "details": "Function to change the Operations Gnosis Safe multisig."
      },
      "setRewards(address)": {
        "details": "Function to change the rewards address."
      },
      "setSettings(uint256,uint256,uint256,uint256,uint256,uint256)": {
        "details": "Function to change strategy settings."
      },
      "setTreasury(address)": {
        "details": "Function to change the treasury address."
      },
      "transferOwnership(address)": {
        "details": "Transfers ownership of the contract to a new account (`newOwner`). Can only be called by the current owner."
      },
      "unpause()": {
        "details": "Restart the vault."
      },
      "withdraw(address,uint256)": {
        "details": "Function to transfer tokens strategy -> BalleMaster."
      }
    },
    "version": 1
  },
  "userdoc": {
    "kind": "user",
    "methods": {},
    "version": 1
  },
  "storageLayout": {
    "storage": [
      {
        "astId": 7,
        "contract": "contracts/strategies/StratPancakeLpV1.sol:StratPancakeLpV1",
        "label": "_owner",
        "offset": 0,
        "slot": "0",
        "type": "t_address"
      },
      {
        "astId": 5760,
        "contract": "contracts/strategies/StratPancakeLpV1.sol:StratPancakeLpV1",
        "label": "rewards",
        "offset": 0,
        "slot": "1",
        "type": "t_address"
      },
      {
        "astId": 5762,
        "contract": "contracts/strategies/StratPancakeLpV1.sol:StratPancakeLpV1",
        "label": "treasury",
        "offset": 0,
        "slot": "2",
        "type": "t_address"
      },
      {
        "astId": 5764,
        "contract": "contracts/strategies/StratPancakeLpV1.sol:StratPancakeLpV1",
        "label": "governance",
        "offset": 0,
        "slot": "3",
        "type": "t_address"
      },
      {
        "astId": 5766,
        "contract": "contracts/strategies/StratPancakeLpV1.sol:StratPancakeLpV1",
        "label": "operations",
        "offset": 0,
        "slot": "4",
        "type": "t_address"
      },
      {
        "astId": 5770,
        "contract": "contracts/strategies/StratPancakeLpV1.sol:StratPancakeLpV1",
        "label": "harvesters",
        "offset": 0,
        "slot": "5",
        "type": "t_mapping(t_address,t_bool)"
      },
      {
        "astId": 5773,
        "contract": "contracts/strategies/StratPancakeLpV1.sol:StratPancakeLpV1",
        "label": "depositTotal",
        "offset": 0,
        "slot": "6",
        "type": "t_uint256"
      },
      {
        "astId": 5776,
        "contract": "contracts/strategies/StratPancakeLpV1.sol:StratPancakeLpV1",
        "label": "sharesTotal",
        "offset": 0,
        "slot": "7",
        "type": "t_uint256"
      },
      {
        "astId": 5779,
        "contract": "contracts/strategies/StratPancakeLpV1.sol:StratPancakeLpV1",
        "label": "entranceFee",
        "offset": 0,
        "slot": "8",
        "type": "t_uint256"
      },
      {
        "astId": 5788,
        "contract": "contracts/strategies/StratPancakeLpV1.sol:StratPancakeLpV1",
        "label": "performanceFee",
        "offset": 0,
        "slot": "9",
        "type": "t_uint256"
      },
      {
        "astId": 5797,
        "contract": "contracts/strategies/StratPancakeLpV1.sol:StratPancakeLpV1",
        "label": "rewardsFeeFactor",
        "offset": 0,
        "slot": "10",
        "type": "t_uint256"
      },
      {
        "astId": 5800,
        "contract": "contracts/strategies/StratPancakeLpV1.sol:StratPancakeLpV1",
        "label": "treasuryFeeFactor",
        "offset": 0,
        "slot": "11",
        "type": "t_uint256"
      },
      {
        "astId": 5806,
        "contract": "contracts/strategies/StratPancakeLpV1.sol:StratPancakeLpV1",
        "label": "slippage",
        "offset": 0,
        "slot": "12",
        "type": "t_uint256"
      },
      {
        "astId": 5812,
        "contract": "contracts/strategies/StratPancakeLpV1.sol:StratPancakeLpV1",
        "label": "minEarnedToReinvest",
        "offset": 0,
        "slot": "13",
        "type": "t_uint256"
      },
      {
        "astId": 5821,
        "contract": "contracts/strategies/StratPancakeLpV1.sol:StratPancakeLpV1",
        "label": "earnedtokenToBallePath",
        "offset": 0,
        "slot": "14",
        "type": "t_array(t_address)dyn_storage"
      },
      {
        "astId": 5824,
        "contract": "contracts/strategies/StratPancakeLpV1.sol:StratPancakeLpV1",
        "label": "earnedtokenToToken0Path",
        "offset": 0,
        "slot": "15",
        "type": "t_array(t_address)dyn_storage"
      },
      {
        "astId": 5827,
        "contract": "contracts/strategies/StratPancakeLpV1.sol:StratPancakeLpV1",
        "label": "earnedtokenToToken1Path",
        "offset": 0,
        "slot": "16",
        "type": "t_array(t_address)dyn_storage"
      },
      {
        "astId": 5830,
        "contract": "contracts/strategies/StratPancakeLpV1.sol:StratPancakeLpV1",
        "label": "paused",
        "offset": 0,
        "slot": "17",
        "type": "t_bool"
      }
    ],
    "types": {
      "t_address": {
        "encoding": "inplace",
        "label": "address",
        "numberOfBytes": "20"
      },
      "t_array(t_address)dyn_storage": {
        "base": "t_address",
        "encoding": "dynamic_array",
        "label": "address[]",
        "numberOfBytes": "32"
      },
      "t_bool": {
        "encoding": "inplace",
        "label": "bool",
        "numberOfBytes": "1"
      },
      "t_mapping(t_address,t_bool)": {
        "encoding": "mapping",
        "key": "t_address",
        "label": "mapping(address => bool)",
        "numberOfBytes": "32",
        "value": "t_bool"
      },
      "t_uint256": {
        "encoding": "inplace",
        "label": "uint256",
        "numberOfBytes": "32"
      }
    }
  }
}