{
  "address": "0x9714C04b34E6300964161c3aC37b86451E79152d",
  "abi": [
    {
      "inputs": [
        {
          "internalType": "address",
          "name": "_balle",
          "type": "address"
        },
        {
          "internalType": "address",
          "name": "_balleV2",
          "type": "address"
        }
      ],
      "stateMutability": "nonpayable",
      "type": "constructor"
    },
    {
      "anonymous": false,
      "inputs": [
        {
          "indexed": true,
          "internalType": "address",
          "name": "addr",
          "type": "address"
        },
        {
          "indexed": false,
          "internalType": "uint256",
          "name": "amount",
          "type": "uint256"
        }
      ],
      "name": "Migrate",
      "type": "event"
    },
    {
      "inputs": [],
      "name": "balle",
      "outputs": [
        {
          "internalType": "contract IERC20",
          "name": "",
          "type": "address"
        }
      ],
      "stateMutability": "view",
      "type": "function"
    },
    {
      "inputs": [],
      "name": "balleV2",
      "outputs": [
        {
          "internalType": "contract IMintableERC20",
          "name": "",
          "type": "address"
        }
      ],
      "stateMutability": "view",
      "type": "function"
    },
    {
      "inputs": [],
      "name": "migrate",
      "outputs": [],
      "stateMutability": "nonpayable",
      "type": "function"
    }
  ],
  "transactionHash": "0x44a2d4307efc4b594ba30b680197a416c5e8c8e3c829601a5c3dab51245686db",
  "args": [
    "0x9f0D5f45CE8573f43E0BA17876329784be0fd700",
    "0x20026802d5149daD2C70A123D88fAE1bfeFdA414"
  ],
  "solcInputHash": "a2f0573f43f43b481202209f7696b45b",
  "bytecode": "0x608060405234801561001057600080fd5b506040516104c13803806104c183398101604081905261002f91610181565b6001600160a01b03821661008a5760405162461bcd60e51b815260206004820152601760248201527f42414c4c452061646472657373206e6f742076616c696400000000000000000060448201526064015b60405180910390fd5b6001600160a01b0381166100e05760405162461bcd60e51b815260206004820152601960248201527f42414c4c4576322061646472657373206e6f742076616c6964000000000000006044820152606401610081565b806001600160a01b0316826001600160a01b031614156101345760405162461bcd60e51b815260206004820152600f60248201526e496e76616c6964206164647265737360881b6044820152606401610081565b600080546001600160a01b039384166001600160a01b031991821617909155600180549290931691161790556101b3565b80516001600160a01b038116811461017c57600080fd5b919050565b60008060408385031215610193578182fd5b61019c83610165565b91506101aa60208401610165565b90509250929050565b6102ff806101c26000396000f3fe608060405234801561001057600080fd5b50600436106100415760003560e01c8063695bfdac146100465780638fd3ab8014610075578063ded0da101461007f575b600080fd5b600154610059906001600160a01b031681565b6040516001600160a01b03909116815260200160405180910390f35b61007d610092565b005b600054610059906001600160a01b031681565b627da5eb43106100d45760405162461bcd60e51b8152602060048201526008602482015267746f6f206c61746560c01b60448201526064015b60405180910390fd5b600080546040516370a0823160e01b81523360048201526001600160a01b03909116906370a082319060240160206040518083038186803b15801561011857600080fd5b505afa15801561012c573d6000803e3d6000fd5b505050506040513d601f19601f8201168201806040525081019061015091906102da565b90506000811161018c5760405162461bcd60e51b815260206004820152600760248201526608585b5bdd5b9d60ca1b60448201526064016100cb565b6000546040516323b872dd60e01b8152336004820152306024820152604481018390526001600160a01b03909116906323b872dd90606401602060405180830381600087803b1580156101de57600080fd5b505af11580156101f2573d6000803e3d6000fd5b505050506040513d601f19601f8201168201806040525081019061021691906102b3565b506001546040516340c10f1960e01b8152336004820152602481018390526001600160a01b03909116906340c10f1990604401600060405180830381600087803b15801561026357600080fd5b505af1158015610277573d6000803e3d6000fd5b50506040518381523392507fa59785389b00cbd19745afbe8d59b28e3161395c6b1e3525861a2b0dede0b90d915060200160405180910390a250565b6000602082840312156102c4578081fd5b815180151581146102d3578182fd5b9392505050565b6000602082840312156102eb578081fd5b505191905056fea164736f6c6343000803000a",
  "devdoc": {
    "kind": "dev",
    "methods": {
      "migrate()": {
        "details": "Transfer BALLE from wallet, and mint new BALLEv2 to wallet"
      }
    },
    "version": 1
  },
  "userdoc": {
    "kind": "user",
    "methods": {},
    "version": 1
  },
  "storageLayout": {
    "storage": [
      {
        "astId": 1517,
        "contract": "contracts/token/BalleMigration.sol:BalleMigration",
        "label": "balle",
        "offset": 0,
        "slot": "0",
        "type": "t_contract(IERC20)578"
      },
      {
        "astId": 1520,
        "contract": "contracts/token/BalleMigration.sol:BalleMigration",
        "label": "balleV2",
        "offset": 0,
        "slot": "1",
        "type": "t_contract(IMintableERC20)1134"
      }
    ],
    "types": {
      "t_contract(IERC20)578": {
        "encoding": "inplace",
        "label": "contract IERC20",
        "numberOfBytes": "20"
      },
      "t_contract(IMintableERC20)1134": {
        "encoding": "inplace",
        "label": "contract IMintableERC20",
        "numberOfBytes": "20"
      }
    }
  }
}