{
  "address": "0x59b75eE4Fe79A5C807eB6553c110B5295c675D35",
  "abi": [
    {
      "inputs": [
        {
          "internalType": "contract BALLEv2",
          "name": "_balle",
          "type": "address"
        },
        {
          "internalType": "uint256",
          "name": "_ballePerBlock",
          "type": "uint256"
        },
        {
          "internalType": "uint256",
          "name": "_balleTotalRewards",
          "type": "uint256"
        },
        {
          "internalType": "uint256",
          "name": "_approvalDelay",
          "type": "uint256"
        }
      ],
      "stateMutability": "nonpayable",
      "type": "constructor"
    },
    {
      "anonymous": false,
      "inputs": [
        {
          "indexed": true,
          "internalType": "uint256",
          "name": "vid",
          "type": "uint256"
        },
        {
          "indexed": false,
          "internalType": "uint256",
          "name": "allocPoint",
          "type": "uint256"
        }
      ],
      "name": "ActivateRewards",
      "type": "event"
    },
    {
      "anonymous": false,
      "inputs": [
        {
          "indexed": true,
          "internalType": "uint256",
          "name": "vid",
          "type": "uint256"
        }
      ],
      "name": "DeactivateRewards",
      "type": "event"
    },
    {
      "anonymous": false,
      "inputs": [
        {
          "indexed": true,
          "internalType": "address",
          "name": "user",
          "type": "address"
        },
        {
          "indexed": true,
          "internalType": "uint256",
          "name": "vid",
          "type": "uint256"
        },
        {
          "indexed": false,
          "internalType": "uint256",
          "name": "amount",
          "type": "uint256"
        },
        {
          "indexed": false,
          "internalType": "uint256",
          "name": "rewards",
          "type": "uint256"
        }
      ],
      "name": "Deposit",
      "type": "event"
    },
    {
      "anonymous": false,
      "inputs": [
        {
          "indexed": true,
          "internalType": "uint256",
          "name": "vid",
          "type": "uint256"
        },
        {
          "indexed": true,
          "internalType": "address",
          "name": "strat",
          "type": "address"
        }
      ],
      "name": "EmergencyStratUpgrade",
      "type": "event"
    },
    {
      "anonymous": false,
      "inputs": [
        {
          "indexed": true,
          "internalType": "address",
          "name": "user",
          "type": "address"
        },
        {
          "indexed": true,
          "internalType": "uint256",
          "name": "vid",
          "type": "uint256"
        },
        {
          "indexed": false,
          "internalType": "uint256",
          "name": "amount",
          "type": "uint256"
        }
      ],
      "name": "EmergencyWithdraw",
      "type": "event"
    },
    {
      "anonymous": false,
      "inputs": [
        {
          "indexed": true,
          "internalType": "uint256",
          "name": "vid",
          "type": "uint256"
        },
        {
          "indexed": false,
          "internalType": "uint256",
          "name": "allocPoint",
          "type": "uint256"
        }
      ],
      "name": "ModifyRewards",
      "type": "event"
    },
    {
      "anonymous": false,
      "inputs": [
        {
          "indexed": true,
          "internalType": "address",
          "name": "previousOwner",
          "type": "address"
        },
        {
          "indexed": true,
          "internalType": "address",
          "name": "newOwner",
          "type": "address"
        }
      ],
      "name": "OwnershipTransferred",
      "type": "event"
    },
    {
      "anonymous": false,
      "inputs": [
        {
          "indexed": true,
          "internalType": "uint256",
          "name": "vid",
          "type": "uint256"
        }
      ],
      "name": "PanicVault",
      "type": "event"
    },
    {
      "anonymous": false,
      "inputs": [
        {
          "indexed": true,
          "internalType": "uint256",
          "name": "vid",
          "type": "uint256"
        }
      ],
      "name": "PauseVault",
      "type": "event"
    },
    {
      "anonymous": false,
      "inputs": [
        {
          "indexed": true,
          "internalType": "uint256",
          "name": "vid",
          "type": "uint256"
        },
        {
          "indexed": true,
          "internalType": "address",
          "name": "strat",
          "type": "address"
        }
      ],
      "name": "ProposeStratUpgrade",
      "type": "event"
    },
    {
      "anonymous": false,
      "inputs": [
        {
          "indexed": true,
          "internalType": "uint256",
          "name": "vid",
          "type": "uint256"
        }
      ],
      "name": "RetireVault",
      "type": "event"
    },
    {
      "anonymous": false,
      "inputs": [
        {
          "indexed": true,
          "internalType": "uint256",
          "name": "vid",
          "type": "uint256"
        },
        {
          "indexed": true,
          "internalType": "address",
          "name": "strat",
          "type": "address"
        }
      ],
      "name": "StratUpgrade",
      "type": "event"
    },
    {
      "anonymous": false,
      "inputs": [
        {
          "indexed": true,
          "internalType": "uint256",
          "name": "vid",
          "type": "uint256"
        }
      ],
      "name": "UnpauseVault",
      "type": "event"
    },
    {
      "anonymous": false,
      "inputs": [
        {
          "indexed": true,
          "internalType": "address",
          "name": "user",
          "type": "address"
        },
        {
          "indexed": true,
          "internalType": "uint256",
          "name": "vid",
          "type": "uint256"
        },
        {
          "indexed": false,
          "internalType": "uint256",
          "name": "amount",
          "type": "uint256"
        },
        {
          "indexed": false,
          "internalType": "uint256",
          "name": "rewards",
          "type": "uint256"
        }
      ],
      "name": "Withdraw",
      "type": "event"
    },
    {
      "inputs": [
        {
          "internalType": "uint256",
          "name": "_vid",
          "type": "uint256"
        },
        {
          "internalType": "uint256",
          "name": "_allocPoint",
          "type": "uint256"
        }
      ],
      "name": "activateVaultRewards",
      "outputs": [],
      "stateMutability": "nonpayable",
      "type": "function"
    },
    {
      "inputs": [
        {
          "internalType": "address",
          "name": "_depositToken",
          "type": "address"
        },
        {
          "internalType": "address",
          "name": "_strat",
          "type": "address"
        }
      ],
      "name": "addVault",
      "outputs": [],
      "stateMutability": "nonpayable",
      "type": "function"
    },
    {
      "inputs": [],
      "name": "approvalDelay",
      "outputs": [
        {
          "internalType": "uint256",
          "name": "",
          "type": "uint256"
        }
      ],
      "stateMutability": "view",
      "type": "function"
    },
    {
      "inputs": [],
      "name": "balle",
      "outputs": [
        {
          "internalType": "contract BALLEv2",
          "name": "",
          "type": "address"
        }
      ],
      "stateMutability": "view",
      "type": "function"
    },
    {
      "inputs": [],
      "name": "ballePerBlock",
      "outputs": [
        {
          "internalType": "uint256",
          "name": "",
          "type": "uint256"
        }
      ],
      "stateMutability": "view",
      "type": "function"
    },
    {
      "inputs": [],
      "name": "balleToMint",
      "outputs": [
        {
          "internalType": "uint256",
          "name": "",
          "type": "uint256"
        }
      ],
      "stateMutability": "view",
      "type": "function"
    },
    {
      "inputs": [],
      "name": "balleTotalRewards",
      "outputs": [
        {
          "internalType": "uint256",
          "name": "",
          "type": "uint256"
        }
      ],
      "stateMutability": "view",
      "type": "function"
    },
    {
      "inputs": [
        {
          "internalType": "uint256",
          "name": "_vid",
          "type": "uint256"
        }
      ],
      "name": "deactivateVaultRewards",
      "outputs": [],
      "stateMutability": "nonpayable",
      "type": "function"
    },
    {
      "inputs": [
        {
          "internalType": "uint256",
          "name": "_vid",
          "type": "uint256"
        },
        {
          "internalType": "uint256",
          "name": "_amount",
          "type": "uint256"
        }
      ],
      "name": "deposit",
      "outputs": [],
      "stateMutability": "nonpayable",
      "type": "function"
    },
    {
      "inputs": [
        {
          "internalType": "uint256",
          "name": "_vid",
          "type": "uint256"
        }
      ],
      "name": "depositAll",
      "outputs": [],
      "stateMutability": "nonpayable",
      "type": "function"
    },
    {
      "inputs": [
        {
          "internalType": "uint256",
          "name": "_vid",
          "type": "uint256"
        },
        {
          "internalType": "address",
          "name": "_user",
          "type": "address"
        }
      ],
      "name": "depositTokens",
      "outputs": [
        {
          "internalType": "uint256",
          "name": "",
          "type": "uint256"
        }
      ],
      "stateMutability": "view",
      "type": "function"
    },
    {
      "inputs": [
        {
          "internalType": "uint256",
          "name": "_vid",
          "type": "uint256"
        }
      ],
      "name": "emergencyWithdraw",
      "outputs": [],
      "stateMutability": "nonpayable",
      "type": "function"
    },
    {
      "inputs": [],
      "name": "endBlock",
      "outputs": [
        {
          "internalType": "uint256",
          "name": "",
          "type": "uint256"
        }
      ],
      "stateMutability": "view",
      "type": "function"
    },
    {
      "inputs": [
        {
          "internalType": "uint256",
          "name": "_from",
          "type": "uint256"
        },
        {
          "internalType": "uint256",
          "name": "_to",
          "type": "uint256"
        }
      ],
      "name": "getBlockMultiplier",
      "outputs": [
        {
          "internalType": "uint256",
          "name": "",
          "type": "uint256"
        }
      ],
      "stateMutability": "view",
      "type": "function"
    },
    {
      "inputs": [
        {
          "internalType": "address",
          "name": "_token",
          "type": "address"
        },
        {
          "internalType": "uint256",
          "name": "_amount",
          "type": "uint256"
        },
        {
          "internalType": "address",
          "name": "_to",
          "type": "address"
        }
      ],
      "name": "inCaseTokensGetStuck",
      "outputs": [],
      "stateMutability": "nonpayable",
      "type": "function"
    },
    {
      "inputs": [
        {
          "internalType": "uint256",
          "name": "_vid",
          "type": "uint256"
        },
        {
          "internalType": "uint256",
          "name": "_allocPoint",
          "type": "uint256"
        }
      ],
      "name": "modifyVaultRewards",
      "outputs": [],
      "stateMutability": "nonpayable",
      "type": "function"
    },
    {
      "inputs": [],
      "name": "operations",
      "outputs": [
        {
          "internalType": "address",
          "name": "",
          "type": "address"
        }
      ],
      "stateMutability": "view",
      "type": "function"
    },
    {
      "inputs": [],
      "name": "owner",
      "outputs": [
        {
          "internalType": "address",
          "name": "",
          "type": "address"
        }
      ],
      "stateMutability": "view",
      "type": "function"
    },
    {
      "inputs": [
        {
          "internalType": "uint256",
          "name": "_vid",
          "type": "uint256"
        }
      ],
      "name": "panicVault",
      "outputs": [],
      "stateMutability": "nonpayable",
      "type": "function"
    },
    {
      "inputs": [
        {
          "internalType": "uint256",
          "name": "_vid",
          "type": "uint256"
        }
      ],
      "name": "pauseVault",
      "outputs": [],
      "stateMutability": "nonpayable",
      "type": "function"
    },
    {
      "inputs": [
        {
          "internalType": "uint256",
          "name": "_vid",
          "type": "uint256"
        },
        {
          "internalType": "address",
          "name": "_user",
          "type": "address"
        }
      ],
      "name": "pendingRewards",
      "outputs": [
        {
          "internalType": "uint256",
          "name": "",
          "type": "uint256"
        }
      ],
      "stateMutability": "view",
      "type": "function"
    },
    {
      "inputs": [
        {
          "internalType": "uint256",
          "name": "_vid",
          "type": "uint256"
        },
        {
          "internalType": "address",
          "name": "_strat",
          "type": "address"
        }
      ],
      "name": "proposeStratUpgrade",
      "outputs": [],
      "stateMutability": "nonpayable",
      "type": "function"
    },
    {
      "inputs": [],
      "name": "renounceOwnership",
      "outputs": [],
      "stateMutability": "nonpayable",
      "type": "function"
    },
    {
      "inputs": [
        {
          "internalType": "uint256",
          "name": "_vid",
          "type": "uint256"
        }
      ],
      "name": "retireVault",
      "outputs": [],
      "stateMutability": "nonpayable",
      "type": "function"
    },
    {
      "inputs": [],
      "name": "security",
      "outputs": [
        {
          "internalType": "address",
          "name": "",
          "type": "address"
        }
      ],
      "stateMutability": "view",
      "type": "function"
    },
    {
      "inputs": [
        {
          "internalType": "address",
          "name": "_operations",
          "type": "address"
        }
      ],
      "name": "setOperations",
      "outputs": [],
      "stateMutability": "nonpayable",
      "type": "function"
    },
    {
      "inputs": [
        {
          "internalType": "address",
          "name": "_security",
          "type": "address"
        }
      ],
      "name": "setSecurity",
      "outputs": [],
      "stateMutability": "nonpayable",
      "type": "function"
    },
    {
      "inputs": [],
      "name": "startBlock",
      "outputs": [
        {
          "internalType": "uint256",
          "name": "",
          "type": "uint256"
        }
      ],
      "stateMutability": "view",
      "type": "function"
    },
    {
      "inputs": [
        {
          "internalType": "uint256",
          "name": "_vid",
          "type": "uint256"
        },
        {
          "internalType": "address",
          "name": "_strat",
          "type": "address"
        }
      ],
      "name": "stratUpgrade",
      "outputs": [],
      "stateMutability": "nonpayable",
      "type": "function"
    },
    {
      "inputs": [],
      "name": "totalAllocPoint",
      "outputs": [
        {
          "internalType": "uint256",
          "name": "",
          "type": "uint256"
        }
      ],
      "stateMutability": "view",
      "type": "function"
    },
    {
      "inputs": [
        {
          "internalType": "address",
          "name": "newOwner",
          "type": "address"
        }
      ],
      "name": "transferOwnership",
      "outputs": [],
      "stateMutability": "nonpayable",
      "type": "function"
    },
    {
      "inputs": [
        {
          "internalType": "uint256",
          "name": "_vid",
          "type": "uint256"
        }
      ],
      "name": "unpauseVault",
      "outputs": [],
      "stateMutability": "nonpayable",
      "type": "function"
    },
    {
      "inputs": [
        {
          "internalType": "uint256",
          "name": "_vid",
          "type": "uint256"
        },
        {
          "internalType": "address",
          "name": "_user",
          "type": "address"
        }
      ],
      "name": "userDeposit",
      "outputs": [
        {
          "internalType": "uint256",
          "name": "",
          "type": "uint256"
        }
      ],
      "stateMutability": "view",
      "type": "function"
    },
    {
      "inputs": [
        {
          "internalType": "uint256",
          "name": "",
          "type": "uint256"
        },
        {
          "internalType": "address",
          "name": "",
          "type": "address"
        }
      ],
      "name": "userInfo",
      "outputs": [
        {
          "internalType": "uint256",
          "name": "deposit",
          "type": "uint256"
        },
        {
          "internalType": "uint256",
          "name": "shares",
          "type": "uint256"
        },
        {
          "internalType": "uint256",
          "name": "rewardDebt",
          "type": "uint256"
        }
      ],
      "stateMutability": "view",
      "type": "function"
    },
    {
      "inputs": [
        {
          "internalType": "uint256",
          "name": "",
          "type": "uint256"
        }
      ],
      "name": "vaultInfo",
      "outputs": [
        {
          "internalType": "contract IERC20",
          "name": "depositToken",
          "type": "address"
        },
        {
          "internalType": "address",
          "name": "strat",
          "type": "address"
        },
        {
          "internalType": "address",
          "name": "proposedStrat",
          "type": "address"
        },
        {
          "internalType": "uint256",
          "name": "allocPoint",
          "type": "uint256"
        },
        {
          "internalType": "uint256",
          "name": "lastRewardBlock",
          "type": "uint256"
        },
        {
          "internalType": "uint256",
          "name": "accBallePerShare",
          "type": "uint256"
        },
        {
          "internalType": "uint256",
          "name": "proposedTime",
          "type": "uint256"
        },
        {
          "internalType": "bool",
          "name": "rewardsActive",
          "type": "bool"
        },
        {
          "internalType": "bool",
          "name": "paused",
          "type": "bool"
        },
        {
          "internalType": "bool",
          "name": "retired",
          "type": "bool"
        }
      ],
      "stateMutability": "view",
      "type": "function"
    },
    {
      "inputs": [],
      "name": "vaultLength",
      "outputs": [
        {
          "internalType": "uint256",
          "name": "",
          "type": "uint256"
        }
      ],
      "stateMutability": "view",
      "type": "function"
    },
    {
      "inputs": [
        {
          "internalType": "uint256",
          "name": "_vid",
          "type": "uint256"
        },
        {
          "internalType": "uint256",
          "name": "_amount",
          "type": "uint256"
        }
      ],
      "name": "withdraw",
      "outputs": [],
      "stateMutability": "nonpayable",
      "type": "function"
    },
    {
      "inputs": [
        {
          "internalType": "uint256",
          "name": "_vid",
          "type": "uint256"
        }
      ],
      "name": "withdrawAll",
      "outputs": [],
      "stateMutability": "nonpayable",
      "type": "function"
    }
  ],
  "transactionHash": "0x8abce4dd09a66eedc1f460bcfdd860de527de1b15f41915ad5ba89cb2f931f77",
  "args": [
    "0x43fC744c34b211cD57c6f0d1ddB4EA8BC504541b",
    "228310502283105",
    "24000000000000000000000",
    86400
  ],
  "solcInputHash": "360ef9858f9d13e2da8b2e0e5d9f9b58",
  "bytecode": "0x610100604052600060045560006005553480156200001c57600080fd5b5060405162003b3738038062003b378339810160408190526200003f91620000a9565b600080546001600160a01b031916339081178255604051909182917f8be0079c531659141344cd1fd0a4f28419497f9722a3daafe3b4186f6b6457e0908290a3506001805560609390931b6001600160601b03191660805260a09190915260c05260e052620000f4565b60008060008060808587031215620000bf578384fd5b84516001600160a01b0381168114620000d6578485fd5b60208601516040870151606090970151919890975090945092505050565b60805160601c60a05160c05160e0516139ab6200018c6000396000818161059e015261175e01526000818161038c015261073c0152600081816102e50152818161071b01528181611f120152612d8a015260008181610564015281816113c501528181612e3201528181612ee001528181612f6101528181613004015281816130aa0152818161315101526131f801526139ab6000f3fe608060405234801561001057600080fd5b50600436106102315760003560e01c80636ae2ec9611610130578063bc0838fc116100b8578063ded0da101161007c578063ded0da101461055f578063e2bbb15814610586578063e2d1e75c14610599578063ec3a7823146105c0578063f2fde38b146105d357610231565b8063bc0838fc14610500578063c150ad1a14610513578063c32c1e6514610526578063c6f678bd14610539578063d18df53c1461054c57610231565b8063929060d8116100ff578063929060d81461040057806393f1a40b14610472578063958e2d31146104c757806396c43a85146104da578063acd3d32d146104ed57610231565b80636ae2ec96146103c1578063715018a6146103d45780638b33b4b2146103dc5780638da5cb5b146103ef57610231565b8063441a3e70116101be578063522280541161018257806352228054146103365780635312ea8e14610349578063548799181461035c5780635ebac9b51461038757806367206d40146103ae57610231565b8063441a3e70146102cd57806344bd5b4f146102e057806348cd4cb1146103075780634b30b422146103105780634f6300a21461032357610231565b80631ab69eb2116102055780631ab69eb2146102835780632b5b0a97146102965780632b68772c1461029f578063360f0730146102a75780633f6770f8146102ba57610231565b80629ddce51461023657806304da17761461024b578063083c63231461027157806317caf6f11461027a575b600080fd5b6102496102443660046136cd565b6105e6565b005b61025e6102593660046136a9565b6107eb565b6040519081526020015b60405180910390f35b61025e60035481565b61025e60045481565b610249610291366004613679565b610815565b61025e60055481565b60085461025e565b6102496102b5366004613679565b610999565b6102496102c8366004613679565b610ab4565b6102496102db3660046136cd565b610c38565b61025e7f000000000000000000000000000000000000000000000000000000000000000081565b61025e60025481565b61024961031e366004613679565b610c96565b61025e6103313660046136a9565b610e36565b6102496103443660046135a8565b610fc6565b610249610357366004613679565b611038565b60075461036f906001600160a01b031681565b6040516001600160a01b039091168152602001610268565b61025e7f000000000000000000000000000000000000000000000000000000000000000081565b6102496103bc366004613618565b611373565b6102496103cf3660046136a9565b611446565b610249611545565b60065461036f906001600160a01b031681565b6000546001600160a01b031661036f565b61041361040e366004613679565b6115b9565b604080516001600160a01b039b8c168152998b1660208b015297909916968801969096526060870194909452608086019290925260a085015260c0840152151560e0830152151561010082015290151561012082015261014001610268565b6104ac6104803660046136a9565b600960209081526000928352604080842090915290825290208054600182015460029092015490919083565b60408051938452602084019290925290820152606001610268565b6102496104d5366004613679565b611633565b6102496104e83660046136a9565b61166e565b61025e6104fb3660046136cd565b61193e565b61024961050e3660046136cd565b611995565b610249610521366004613679565b611af9565b6102496105343660046135a8565b611c99565b610249610547366004613679565b611d0b565b61025e61055a3660046136a9565b611df7565b61036f7f000000000000000000000000000000000000000000000000000000000000000081565b6102496105943660046136cd565b611faa565b61025e7f000000000000000000000000000000000000000000000000000000000000000081565b6102496105ce3660046135e0565b611fff565b6102496105e13660046135a8565b612329565b6006546001600160a01b031633148061060957506000546001600160a01b031633145b61062e5760405162461bcd60e51b8152600401610625906137c7565b60405180910390fd5b600854829081106106515760405162461bcd60e51b8152600401610625906137ec565b60006008848154811061067457634e487b7160e01b600052603260045260246000fd5b60009182526020909120600890910201600781015490915060ff16156106c55760405162461bcd60e51b815260206004820152600660248201526561637469766560d01b6044820152606401610625565b600083116107035760405162461bcd60e51b815260206004820152600b60248201526a08585b1b1bd8dc1bda5b9d60aa1b6044820152606401610625565b61070b612413565b60025461077157436002556107607f00000000000000000000000000000000000000000000000000000000000000007f00000000000000000000000000000000000000000000000000000000000000006138d6565b60025461076d91906138be565b6003555b60045443906107819085906138be565b600490815560038301859055820181905560078201805460ff191660011790556000600583015560405185907fba13fd9b2f2ae67565b95a27e65b1e9ebf5b1d3be4d048c3327b5037f022816b906107dc9087815260200190565b60405180910390a25050505050565b60008281526009602090815260408083206001600160a01b03851684529091529020545b92915050565b6006546001600160a01b031633148061083857506000546001600160a01b031633145b6108545760405162461bcd60e51b8152600401610625906137c7565b600854819081106108775760405162461bcd60e51b8152600401610625906137ec565b60006008838154811061089a57634e487b7160e01b600052603260045260246000fd5b906000526020600020906008020190508060070160019054906101000a900460ff166108f25760405162461bcd60e51b8152602060048201526007602482015266085c185d5cd95960ca1b6044820152606401610625565b8060010160009054906101000a90046001600160a01b03166001600160a01b0316633f4ba83a6040518163ffffffff1660e01b8152600401600060405180830381600087803b15801561094457600080fd5b505af1158015610958573d6000803e3d6000fd5b50505060078201805461ff00191690555060405183907ff0e9a7ca64cb0a05f6f08c4e5889a1553af34e656e524ca3f7d7da67e5ae071390600090a2505050565b6006546001600160a01b03163314806109bc57506000546001600160a01b031633145b6109d85760405162461bcd60e51b8152600401610625906137c7565b600854819081106109fb5760405162461bcd60e51b8152600401610625906137ec565b600060088381548110610a1e57634e487b7160e01b600052603260045260246000fd5b60009182526020909120600890910201600781015490915060ff16610a555760405162461bcd60e51b8152600401610625906137a6565b610a5d612413565b8060030154600454610a6f9190613915565b60045560006003820181905560078201805460ff1916905560405184917fb8b83da790f78135db4aec46ee97590874ea01f3cd58912bb00f308d072fda2691a2505050565b6006546001600160a01b0316331480610ad757506000546001600160a01b031633145b610af35760405162461bcd60e51b8152600401610625906137c7565b60085481908110610b165760405162461bcd60e51b8152600401610625906137ec565b600060088381548110610b3957634e487b7160e01b600052603260045260246000fd5b906000526020600020906008020190508060070160029054906101000a900460ff1615610b785760405162461bcd60e51b8152600401610625906137a6565b8060010160009054906101000a90046001600160a01b03166001600160a01b031663a4874d776040518163ffffffff1660e01b8152600401600060405180830381600087803b158015610bca57600080fd5b505af1158015610bde573d6000803e3d6000fd5b505050506007810180546201000062ff00001982161790915560ff1615610c0857610c0883610999565b60405183907f774f9a1333327bdc185469e0e44bfcf9df7f8fd96ab10acb8132ecc0b474c3cc90600090a2505050565b60026001541415610c5b5760405162461bcd60e51b815260040161062590613887565b600260015560085482908110610c835760405162461bcd60e51b8152600401610625906137ec565b610c8d838361243e565b50506001805550565b6006546001600160a01b0316331480610cb957506000546001600160a01b031633145b80610cce57506007546001600160a01b031633145b610d065760405162461bcd60e51b815260206004820152600960248201526821736563757269747960b81b6044820152606401610625565b60085481908110610d295760405162461bcd60e51b8152600401610625906137ec565b600060088381548110610d4c57634e487b7160e01b600052603260045260246000fd5b906000526020600020906008020190508060070160019054906101000a900460ff1615610d8b5760405162461bcd60e51b8152600401610625906137a6565b8060010160009054906101000a90046001600160a01b03166001600160a01b0316634700d3056040518163ffffffff1660e01b8152600401600060405180830381600087803b158015610ddd57600080fd5b505af1158015610df1573d6000803e3d6000fd5b50505060078201805461ff0019166101001790555060405183907f24f9af3d65d1b908bfe521985a4182e283f3ecdd85f728ccd2f47b8e1a93df9890600090a2505050565b60008060088481548110610e5a57634e487b7160e01b600052603260045260246000fd5b600091825260208083208784526009825260408085206001600160a01b03808a16875290845281862060016008909602909301948501548251632251caaf60e11b815292519597509295949216926344a3955e92600480840193829003018186803b158015610ec857600080fd5b505afa158015610edc573d6000803e3d6000fd5b505050506040513d601f19601f82011682018060405250810190610f009190613691565b905060008360010160009054906101000a90046001600160a01b03166001600160a01b0316634adae0da6040518163ffffffff1660e01b815260040160206040518083038186803b158015610f5457600080fd5b505afa158015610f68573d6000803e3d6000fd5b505050506040513d601f19601f82011682018060405250810190610f8c9190613691565b905081610fa057600094505050505061080f565b81818460010154610fb191906138f6565b610fbb91906138d6565b979650505050505050565b6000546001600160a01b03163314610ff05760405162461bcd60e51b81526004016106259061380c565b6001600160a01b0381166110165760405162461bcd60e51b815260040161062590613861565b600780546001600160a01b0319166001600160a01b0392909216919091179055565b6002600154141561105b5760405162461bcd60e51b815260040161062590613887565b6002600155600854819081106110835760405162461bcd60e51b8152600401610625906137ec565b6000600883815481106110a657634e487b7160e01b600052603260045260246000fd5b6000918252602080832086845260098252604080852033865283528085206008949094029091016001810154825163256d706d60e11b815292519196509394936001600160a01b031692634adae0da9260048082019391829003018186803b15801561111157600080fd5b505afa158015611125573d6000803e3d6000fd5b505050506040513d601f19601f820116820180604052508101906111499190613691565b905060008360010160009054906101000a90046001600160a01b03166001600160a01b03166344a3955e6040518163ffffffff1660e01b815260040160206040518083038186803b15801561119d57600080fd5b505afa1580156111b1573d6000803e3d6000fd5b505050506040513d601f19601f820116820180604052508101906111d59190613691565b90506000818385600101546111ea91906138f6565b6111f491906138d6565b60006001808701829055818755600287019190915586015460405163f3fef3a360e01b81529192506001600160a01b03169063f3fef3a39061123c903390859060040161375a565b6040805180830381600087803b15801561125557600080fd5b505af1158015611269573d6000803e3d6000fd5b505050506040513d601f19601f8201168201806040525081019061128d91906136ee565b505084546040516370a0823160e01b81523060048201526000916001600160a01b0316906370a082319060240160206040518083038186803b1580156112d257600080fd5b505afa1580156112e6573d6000803e3d6000fd5b505050506040513d601f19601f8201168201806040525081019061130a9190613691565b905081811015611318578091505b855461132e906001600160a01b03163384612896565b604051828152889033907fbb757047c2b5f3974fe26b7c10f732e7bce710b0952a71082702781e62ae05959060200160405180910390a3505060018055505050505050565b6000546001600160a01b0316331461139d5760405162461bcd60e51b81526004016106259061380c565b6001600160a01b0381166113c35760405162461bcd60e51b815260040161062590613861565b7f00000000000000000000000000000000000000000000000000000000000000006001600160a01b0316836001600160a01b0316141561142d5760405162461bcd60e51b8152602060048201526005602482015264217361666560d81b6044820152606401610625565b6114416001600160a01b0384168284612896565b505050565b6000546001600160a01b031633146114705760405162461bcd60e51b81526004016106259061380c565b600854829081106114935760405162461bcd60e51b8152600401610625906137ec565b6001600160a01b0382166114b95760405162461bcd60e51b815260040161062590613841565b6000600884815481106114dc57634e487b7160e01b600052603260045260246000fd5b600091825260208220600891909102016002810180546001600160a01b0319166001600160a01b0387169081179091554260068301556040519193509186917f84c802fdb113f88f1d3f9a8adf18b4edf0d87bf657e0faff1727da587a1e7a2d9190a350505050565b6000546001600160a01b0316331461156f5760405162461bcd60e51b81526004016106259061380c565b600080546040516001600160a01b03909116907f8be0079c531659141344cd1fd0a4f28419497f9722a3daafe3b4186f6b6457e0908390a3600080546001600160a01b0319169055565b600881815481106115c957600080fd5b6000918252602090912060089091020180546001820154600283015460038401546004850154600586015460068701546007909701546001600160a01b039687169850948616969390951694919390929060ff80821691610100810482169162010000909104168a565b600260015414156116565760405162461bcd60e51b815260040161062590613887565b60026001556116678160001961243e565b5060018055565b6006546001600160a01b031633148061169157506000546001600160a01b031633145b6116ad5760405162461bcd60e51b8152600401610625906137c7565b600854829081106116d05760405162461bcd60e51b8152600401610625906137ec565b6001600160a01b0382166116f65760405162461bcd60e51b815260040161062590613841565b60006008848154811061171957634e487b7160e01b600052603260045260246000fd5b6000918252602090912060089091020160028101549091506001600160a01b0384811691161461175b5760405162461bcd60e51b815260040161062590613841565b427f0000000000000000000000000000000000000000000000000000000000000000826006015461178c91906138be565b106117c55760405162461bcd60e51b81526020600482015260096024820152682174696d656c6f636b60b81b6044820152606401610625565b60018101546002820154604051631b2ce7f360e11b81526001600160a01b03918216600482015260009283928392911690633659cfe690602401606060405180830381600087803b15801561181957600080fd5b505af115801561182d573d6000803e3d6000fd5b505050506040513d601f19601f820116820180604052508101906118519190613711565b60028701546001880154604051633e08777960e11b81526001600160a01b0391821660048201526024810186905260448101859052606481018490529497509295509093501690637c10eef290608401600060405180830381600087803b1580156118bb57600080fd5b505af11580156118cf573d6000803e3d6000fd5b505050506002840180546001860180546001600160a01b038084166001600160a01b0319928316179092559091169091556000600686018190556040519188169189917f5acd14efdb683461c0f6f0ee16d6ef556b79d04db209b525d80312d4436c2a5691a350505050505050565b60006002548210156119525750600061080f565b6003548311156119645750600061080f565b6002548310156119745760025492505b6003548211156119845760035491505b61198e8383613915565b9392505050565b6006546001600160a01b03163314806119b857506000546001600160a01b031633145b6119d45760405162461bcd60e51b8152600401610625906137c7565b600854829081106119f75760405162461bcd60e51b8152600401610625906137ec565b600060088481548110611a1a57634e487b7160e01b600052603260045260246000fd5b60009182526020909120600890910201600781015490915060ff16611a515760405162461bcd60e51b8152600401610625906137a6565b60008311611a8f5760405162461bcd60e51b815260206004820152600b60248201526a08585b1b1bd8dc1bda5b9d60aa1b6044820152606401610625565b611a97612413565b828160030154600454611aaa9190613915565b611ab491906138be565b6004556003810183905560405183815284907f54ca8df74b9602d422d5c5e11eece496fd3d57504eba7dec5915ef0171c896169060200160405180910390a250505050565b6006546001600160a01b0316331480611b1c57506000546001600160a01b031633145b80611b3157506007546001600160a01b031633145b611b695760405162461bcd60e51b815260206004820152600960248201526821736563757269747960b81b6044820152606401610625565b60085481908110611b8c5760405162461bcd60e51b8152600401610625906137ec565b600060088381548110611baf57634e487b7160e01b600052603260045260246000fd5b906000526020600020906008020190508060070160019054906101000a900460ff1615611bee5760405162461bcd60e51b8152600401610625906137a6565b8060010160009054906101000a90046001600160a01b03166001600160a01b0316638456cb596040518163ffffffff1660e01b8152600401600060405180830381600087803b158015611c4057600080fd5b505af1158015611c54573d6000803e3d6000fd5b50505060078201805461ff0019166101001790555060405183907f85f2f9c18c35f0b299bc3787e4166b64d3d8ae0e48d288bf7bcc608130d6b9bf90600090a2505050565b6000546001600160a01b03163314611cc35760405162461bcd60e51b81526004016106259061380c565b6001600160a01b038116611ce95760405162461bcd60e51b815260040161062590613861565b600680546001600160a01b0319166001600160a01b0392909216919091179055565b60026001541415611d2e5760405162461bcd60e51b815260040161062590613887565b6002600181905550600060088281548110611d5957634e487b7160e01b600052603260045260246000fd5b6000918252602090912060089091020180546040516370a0823160e01b8152336004820152919250611def9184916001600160a01b0316906370a082319060240160206040518083038186803b158015611db257600080fd5b505afa158015611dc6573d6000803e3d6000fd5b505050506040513d601f19601f82011682018060405250810190611dea9190613691565b6128ec565b505060018055565b60008060088481548110611e1b57634e487b7160e01b600052603260045260246000fd5b600091825260208083208784526009825260408085206001600160a01b038981168752908452818620600895909502909201600581015460018201548351632251caaf60e11b815293519298509596909590949316926344a3955e9260048082019391829003018186803b158015611e9257600080fd5b505afa158015611ea6573d6000803e3d6000fd5b505050506040513d601f19601f82011682018060405250810190611eca9190613691565b600785015490915060ff168015611ee45750836004015443115b8015611eef57508015155b15611f7b576000611f0485600401544361193e565b9050600060045486600301547f000000000000000000000000000000000000000000000000000000000000000084611f3c91906138f6565b611f4691906138f6565b611f5091906138d6565b905082611f628264e8d4a510006138f6565b611f6c91906138d6565b611f7690856138be565b935050505b826002015464e8d4a51000838560010154611f9691906138f6565b611fa091906138d6565b610fbb9190613915565b60026001541415611fcd5760405162461bcd60e51b815260040161062590613887565b600260015560085482908110611ff55760405162461bcd60e51b8152600401610625906137ec565b610c8d83836128ec565b6006546001600160a01b031633148061202257506000546001600160a01b031633145b61203e5760405162461bcd60e51b8152600401610625906137c7565b6001600160a01b0381166120645760405162461bcd60e51b815260040161062590613841565b806001600160a01b031663c89039c56040518163ffffffff1660e01b815260040160206040518083038186803b15801561209d57600080fd5b505afa1580156120b1573d6000803e3d6000fd5b505050506040513d601f19601f820116820180604052508101906120d591906135c4565b6001600160a01b0316826001600160a01b0316146121255760405162461bcd60e51b815260206004820152600d60248201526c10b232b837b9b4ba2a37b5b2b760991b6044820152606401610625565b60408051610140810182526001600160a01b039384168152918316602083019081526000918301828152606084018381526080850184815260a0860185815260c0870186815260e08801878152610100808a018981526101208b018a8152600880546001810182559b8190529b519a909b027ff3f7a9fe364faab93b216da50a3214154f22a0a2b415b23a84c8169e8b636ee3810180549b8e166001600160a01b03199c8d1617905598517ff3f7a9fe364faab93b216da50a3214154f22a0a2b415b23a84c8169e8b636ee48a018054918e16918c1691909117905596517ff3f7a9fe364faab93b216da50a3214154f22a0a2b415b23a84c8169e8b636ee58901805491909c1699169890981790995592517ff3f7a9fe364faab93b216da50a3214154f22a0a2b415b23a84c8169e8b636ee686015590517ff3f7a9fe364faab93b216da50a3214154f22a0a2b415b23a84c8169e8b636ee7850155517ff3f7a9fe364faab93b216da50a3214154f22a0a2b415b23a84c8169e8b636ee8840155517ff3f7a9fe364faab93b216da50a3214154f22a0a2b415b23a84c8169e8b636ee983015593517ff3f7a9fe364faab93b216da50a3214154f22a0a2b415b23a84c8169e8b636eea9091018054945193511515620100000262ff00001994151590930261ff00199215159290921661ffff19909516949094171791909116179055565b6000546001600160a01b031633146123535760405162461bcd60e51b81526004016106259061380c565b6001600160a01b0381166123b85760405162461bcd60e51b815260206004820152602660248201527f4f776e61626c653a206e6577206f776e657220697320746865207a65726f206160448201526564647265737360d01b6064820152608401610625565b600080546040516001600160a01b03808516939216917f8be0079c531659141344cd1fd0a4f28419497f9722a3daafe3b4186f6b6457e091a3600080546001600160a01b0319166001600160a01b0392909216919091179055565b60085460005b8181101561243a5761242a81612c70565b61243381613958565b9050612419565b5050565b61244782612c70565b60006008838154811061246a57634e487b7160e01b600052603260045260246000fd5b6000918252602080832086845260098252604080852033865283528085206008949094029091016001810154825163256d706d60e11b815292519196509394936001600160a01b031692634adae0da9260048082019391829003018186803b1580156124d557600080fd5b505afa1580156124e9573d6000803e3d6000fd5b505050506040513d601f19601f8201168201806040525081019061250d9190613691565b905060008360010160009054906101000a90046001600160a01b03166001600160a01b03166344a3955e6040518163ffffffff1660e01b815260040160206040518083038186803b15801561256157600080fd5b505afa158015612575573d6000803e3d6000fd5b505050506040513d601f19601f820116820180604052508101906125999190613691565b9050600081116125da5760405162461bcd60e51b815260206004820152600c60248201526b085cda185c995cd51bdd185b60a21b6044820152606401610625565b600083600101541161261d5760405162461bcd60e51b815260206004820152600c60248201526b21757365722e73686172657360a01b6044820152606401610625565b6000836002015464e8d4a510008660050154866001015461263e91906138f6565b61264891906138d6565b6126529190613915565b90508015612664576126643382612e1a565b60008284866001015461267791906138f6565b61268191906138d6565b90508087111561268f578096505b861561282657600186015460405163f3fef3a360e01b815260009182916001600160a01b039091169063f3fef3a3906126ce9033908d9060040161375a565b6040805180830381600087803b1580156126e757600080fd5b505af11580156126fb573d6000803e3d6000fd5b505050506040513d601f19601f8201168201806040525081019061271f91906136ee565b915091508660010154821061273e576000600188018190558755612783565b81876001015461274e9190613915565b600188015561275d8286613915565b6127678288613915565b886001015461277691906138f6565b61278091906138d6565b87555b87546040516370a0823160e01b81523060048201526000916001600160a01b0316906370a082319060240160206040518083038186803b1580156127c657600080fd5b505afa1580156127da573d6000803e3d6000fd5b505050506040513d601f19601f820116820180604052508101906127fe9190613691565b90508181101561280c578091505b8854612822906001600160a01b03163384612896565b5050505b64e8d4a510008660050154866001015461284091906138f6565b61284a91906138d6565b60028601556040805188815260208101849052899133917f02f25270a4d87bea75db541cdfe559334a275b4a233520ed6c0a2429667cca94910160405180910390a35050505050505050565b6114418363a9059cbb60e01b84846040516024016128b592919061375a565b60408051601f198184030181529190526020810180516001600160e01b03166001600160e01b031990931692909217909152613287565b6128f582612c70565b60006008838154811061291857634e487b7160e01b600052603260045260246000fd5b6000918252602080832086845260098252604080852033865290925290832060018101546008909302909101935091901561299257816002015464e8d4a510008460050154846001015461296c91906138f6565b61297691906138d6565b6129809190613915565b90508015612992576129923382612e1a565b6000841180156129ac57506007830154610100900460ff16155b80156129c35750600783015462010000900460ff16155b15612c035782546129df906001600160a01b0316333087613359565b600183015483546129fd916001600160a01b03918216911686613391565b600060088681548110612a2057634e487b7160e01b600052603260045260246000fd5b60009182526020909120600160089092020101546040516311f9fbc960e21b81526001600160a01b03909116906347e7ef2490612a63903390899060040161375a565b602060405180830381600087803b158015612a7d57600080fd5b505af1158015612a91573d6000803e3d6000fd5b505050506040513d601f19601f82011682018060405250810190612ab59190613691565b905060008460010160009054906101000a90046001600160a01b03166001600160a01b03166344a3955e6040518163ffffffff1660e01b815260040160206040518083038186803b158015612b0957600080fd5b505afa158015612b1d573d6000803e3d6000fd5b505050506040513d601f19601f82011682018060405250810190612b419190613691565b905060008560010160009054906101000a90046001600160a01b03166001600160a01b0316634adae0da6040518163ffffffff1660e01b815260040160206040518083038186803b158015612b9557600080fd5b505afa158015612ba9573d6000803e3d6000fd5b505050506040513d601f19601f82011682018060405250810190612bcd9190613691565b9050828560010154612bdf91906138be565b600186018190558290612bf39083906138f6565b612bfd91906138d6565b85555050505b64e8d4a5100083600501548360010154612c1d91906138f6565b612c2791906138d6565b60028301556040805185815260208101839052869133917f36af321ec8d3c75236829c5317affd40ddb308863a1236d2d277a4025cccee1e910160405180910390a35050505050565b600060088281548110612c9357634e487b7160e01b600052603260045260246000fd5b60009182526020909120600890910201600781015490915060ff16612cb85750612e17565b80600401544311612cc95750612e17565b600181015460408051632251caaf60e11b815290516000926001600160a01b0316916344a3955e916004808301926020929190829003018186803b158015612d1057600080fd5b505afa158015612d24573d6000803e3d6000fd5b505050506040513d601f19601f82011682018060405250810190612d489190613691565b905080612d5c575043600490910155612e17565b6000612d6c83600401544361193e565b905060008111612d7e57505050612e17565b600060045484600301547f000000000000000000000000000000000000000000000000000000000000000084612db491906138f6565b612dbe91906138f6565b612dc891906138d6565b905080600554612dd891906138be565b60055582612deb8264e8d4a510006138f6565b612df591906138d6565b8460050154612e0491906138be565b6005850155505043600490920191909155505b50565b6040516370a0823160e01b81523060048201526000907f00000000000000000000000000000000000000000000000000000000000000006001600160a01b0316906370a082319060240160206040518083038186803b158015612e7c57600080fd5b505afa158015612e90573d6000803e3d6000fd5b505050506040513d601f19601f82011682018060405250810190612eb49190613691565b9050808211156131e1576005541561313a576005546040516340c10f1960e01b81526001600160a01b037f000000000000000000000000000000000000000000000000000000000000000016916340c10f1991612f1591309160040161375a565b600060405180830381600087803b158015612f2f57600080fd5b505af1158015612f43573d6000803e3d6000fd5b5050600060055550506040516370a0823160e01b81523060048201527f00000000000000000000000000000000000000000000000000000000000000006001600160a01b0316906370a082319060240160206040518083038186803b158015612fab57600080fd5b505afa158015612fbf573d6000803e3d6000fd5b505050506040513d601f19601f82011682018060405250810190612fe39190613691565b9050808211156130935760405163a9059cbb60e01b81526001600160a01b037f0000000000000000000000000000000000000000000000000000000000000000169063a9059cbb9061303b908690859060040161375a565b602060405180830381600087803b15801561305557600080fd5b505af1158015613069573d6000803e3d6000fd5b505050506040513d601f19601f8201168201806040525081019061308d9190613659565b50613135565b60405163a9059cbb60e01b81526001600160a01b037f0000000000000000000000000000000000000000000000000000000000000000169063a9059cbb906130e1908690869060040161375a565b602060405180830381600087803b1580156130fb57600080fd5b505af115801561310f573d6000803e3d6000fd5b505050506040513d601f19601f820116820180604052508101906131339190613659565b505b6131dc565b60405163a9059cbb60e01b81526001600160a01b037f0000000000000000000000000000000000000000000000000000000000000000169063a9059cbb90613188908690859060040161375a565b602060405180830381600087803b1580156131a257600080fd5b505af11580156131b6573d6000803e3d6000fd5b505050506040513d601f19601f820116820180604052508101906131da9190613659565b505b611441565b60405163a9059cbb60e01b81526001600160a01b037f0000000000000000000000000000000000000000000000000000000000000000169063a9059cbb9061322f908690869060040161375a565b602060405180830381600087803b15801561324957600080fd5b505af115801561325d573d6000803e3d6000fd5b505050506040513d601f19601f820116820180604052508101906132819190613659565b50505050565b60006132dc826040518060400160405280602081526020017f5361666545524332303a206c6f772d6c6576656c2063616c6c206661696c6564815250856001600160a01b03166134409092919063ffffffff16565b80519091501561144157808060200190518101906132fa9190613659565b6114415760405162461bcd60e51b815260206004820152602a60248201527f5361666545524332303a204552433230206f7065726174696f6e20646964206e6044820152691bdd081cdd58d8d9595960b21b6064820152608401610625565b6040516001600160a01b03808516602483015283166044820152606481018290526132819085906323b872dd60e01b906084016128b5565b604051636eb1769f60e11b81523060048201526001600160a01b038381166024830152600091839186169063dd62ed3e9060440160206040518083038186803b1580156133dd57600080fd5b505afa1580156133f1573d6000803e3d6000fd5b505050506040513d601f19601f820116820180604052508101906134159190613691565b61341f91906138be565b90506132818463095ea7b360e01b85846040516024016128b592919061375a565b606061344f8484600085613457565b949350505050565b6060824710156134b85760405162461bcd60e51b815260206004820152602660248201527f416464726573733a20696e73756666696369656e742062616c616e636520666f6044820152651c8818d85b1b60d21b6064820152608401610625565b843b6135065760405162461bcd60e51b815260206004820152601d60248201527f416464726573733a2063616c6c20746f206e6f6e2d636f6e74726163740000006044820152606401610625565b600080866001600160a01b03168587604051613522919061373e565b60006040518083038185875af1925050503d806000811461355f576040519150601f19603f3d011682016040523d82523d6000602084013e613564565b606091505b5091509150610fbb8282866060831561357e57508161198e565b82511561358e5782518084602001fd5b8160405162461bcd60e51b81526004016106259190613773565b6000602082840312156135b9578081fd5b813561198e81613989565b6000602082840312156135d5578081fd5b815161198e81613989565b600080604083850312156135f2578081fd5b82356135fd81613989565b9150602083013561360d81613989565b809150509250929050565b60008060006060848603121561362c578081fd5b833561363781613989565b925060208401359150604084013561364e81613989565b809150509250925092565b60006020828403121561366a578081fd5b8151801515811461198e578182fd5b60006020828403121561368a578081fd5b5035919050565b6000602082840312156136a2578081fd5b5051919050565b600080604083850312156136bb578182fd5b82359150602083013561360d81613989565b600080604083850312156136df578182fd5b50508035926020909101359150565b60008060408385031215613700578182fd5b505080516020909101519092909150565b600080600060608486031215613725578283fd5b8351925060208401519150604084015190509250925092565b6000825161375081846020870161392c565b9190910192915050565b6001600160a01b03929092168252602082015260400190565b600060208252825180602084015261379281604085016020870161392c565b601f01601f19169190910160400192915050565b6020808252600790820152662161637469766560c81b604082015260600190565b6020808252600b908201526a216f7065726174696f6e7360a81b604082015260600190565b602080825260069082015265085d985d5b1d60d21b604082015260600190565b6020808252818101527f4f776e61626c653a2063616c6c6572206973206e6f7420746865206f776e6572604082015260600190565b602080825260069082015265085cdd1c985d60d21b604082015260600190565b6020808252600c908201526b7a65726f206164647265737360a01b604082015260600190565b6020808252601f908201527f5265656e7472616e637947756172643a207265656e7472616e742063616c6c00604082015260600190565b600082198211156138d1576138d1613973565b500190565b6000826138f157634e487b7160e01b81526012600452602481fd5b500490565b600081600019048311821515161561391057613910613973565b500290565b60008282101561392757613927613973565b500390565b60005b8381101561394757818101518382015260200161392f565b838111156132815750506000910152565b600060001982141561396c5761396c613973565b5060010190565b634e487b7160e01b600052601160045260246000fd5b6001600160a01b0381168114612e1757600080fdfea164736f6c6343000803000a",
  "devdoc": {
    "details": "Implementation of the Master of BALLE. This contract will take care of all reward calculations and distribution of BALLE tokens in vaults. The owner of the contract is the Governance Gnosis Safe multisig.",
    "kind": "dev",
    "methods": {
      "activateVaultRewards(uint256,uint256)": {
        "details": "Function to activate vault rewards."
      },
      "addVault(address,address)": {
        "details": "Function to add a new vault configuration."
      },
      "deactivateVaultRewards(uint256)": {
        "details": "Function to deactivate vault rewards."
      },
      "deposit(uint256,uint256)": {
        "details": "Function that deposits user tokens."
      },
      "depositAll(uint256)": {
        "details": "Function that deposits all user tokens balance."
      },
      "depositTokens(uint256,address)": {
        "details": "View function to see user's deposit tokens on frontend."
      },
      "emergencyWithdraw(uint256)": {
        "details": "Function that withdraws without caring about rewards. EMERGENCY ONLY."
      },
      "getBlockMultiplier(uint256,uint256)": {
        "details": "View function to calculate the reward multiplier over the given _from to _to block."
      },
      "inCaseTokensGetStuck(address,uint256,address)": {
        "details": "Function to use from Governance Gnosis Safe multisig only in case tokens get stuck. This is to be used if someone, for example, sends tokens to the contract by mistake. There is no guarantee governance will vote to return these."
      },
      "modifyVaultRewards(uint256,uint256)": {
        "details": "Function to modify vault rewards."
      },
      "owner()": {
        "details": "Returns the address of the current owner."
      },
      "panicVault(uint256)": {
        "details": "Function to panic vault strategy."
      },
      "pauseVault(uint256)": {
        "details": "Function to pause vault strategy."
      },
      "pendingRewards(uint256,address)": {
        "details": "View function to see pending BALLE rewards on frontend."
      },
      "proposeStratUpgrade(uint256,address)": {
        "details": "Function to propose a strategy upgrade."
      },
      "renounceOwnership()": {
        "details": "Leaves the contract without owner. It will not be possible to call `onlyOwner` functions anymore. Can only be called by the current owner. NOTE: Renouncing ownership will leave the contract without an owner, thereby removing any functionality that is only available to the owner."
      },
      "retireVault(uint256)": {
        "details": "Function to retire vault strategy."
      },
      "setOperations(address)": {
        "details": "Function to change the Operations Gnosis Safe multisig."
      },
      "setSecurity(address)": {
        "details": "Function to change the Security Gnosis Safe multisig."
      },
      "stratUpgrade(uint256,address)": {
        "details": "It switches the active strat for the strat candidate. After upgrading, the candidate implementation is set to the 0x0 address, and proposedTime to 0."
      },
      "transferOwnership(address)": {
        "details": "Transfers ownership of the contract to a new account (`newOwner`). Can only be called by the current owner."
      },
      "unpauseVault(uint256)": {
        "details": "Function to unpause vault strategy."
      },
      "userDeposit(uint256,address)": {
        "details": "View function to see user's deposited tokens on frontend. This is useful to show the earnings: depositTokens() - userDeposit()"
      },
      "vaultLength()": {
        "details": "View function to get the number of vaults configured."
      },
      "withdraw(uint256,uint256)": {
        "details": "Function that withdraws user tokens."
      },
      "withdrawAll(uint256)": {
        "details": "Function that withdraws all user tokens balance."
      }
    },
    "version": 1
  },
  "userdoc": {
    "kind": "user",
    "methods": {},
    "version": 1
  },
  "storageLayout": {
    "storage": [
      {
        "astId": 7,
        "contract": "contracts/vaults/BalleMaster.sol:BalleMaster",
        "label": "_owner",
        "offset": 0,
        "slot": "0",
        "type": "t_address"
      },
      {
        "astId": 120,
        "contract": "contracts/vaults/BalleMaster.sol:BalleMaster",
        "label": "_status",
        "offset": 0,
        "slot": "1",
        "type": "t_uint256"
      },
      {
        "astId": 8343,
        "contract": "contracts/vaults/BalleMaster.sol:BalleMaster",
        "label": "startBlock",
        "offset": 0,
        "slot": "2",
        "type": "t_uint256"
      },
      {
        "astId": 8345,
        "contract": "contracts/vaults/BalleMaster.sol:BalleMaster",
        "label": "endBlock",
        "offset": 0,
        "slot": "3",
        "type": "t_uint256"
      },
      {
        "astId": 8348,
        "contract": "contracts/vaults/BalleMaster.sol:BalleMaster",
        "label": "totalAllocPoint",
        "offset": 0,
        "slot": "4",
        "type": "t_uint256"
      },
      {
        "astId": 8351,
        "contract": "contracts/vaults/BalleMaster.sol:BalleMaster",
        "label": "balleToMint",
        "offset": 0,
        "slot": "5",
        "type": "t_uint256"
      },
      {
        "astId": 8355,
        "contract": "contracts/vaults/BalleMaster.sol:BalleMaster",
        "label": "operations",
        "offset": 0,
        "slot": "6",
        "type": "t_address"
      },
      {
        "astId": 8357,
        "contract": "contracts/vaults/BalleMaster.sol:BalleMaster",
        "label": "security",
        "offset": 0,
        "slot": "7",
        "type": "t_address"
      },
      {
        "astId": 8361,
        "contract": "contracts/vaults/BalleMaster.sol:BalleMaster",
        "label": "vaultInfo",
        "offset": 0,
        "slot": "8",
        "type": "t_array(t_struct(VaultInfo)8327_storage)dyn_storage"
      },
      {
        "astId": 8368,
        "contract": "contracts/vaults/BalleMaster.sol:BalleMaster",
        "label": "userInfo",
        "offset": 0,
        "slot": "9",
        "type": "t_mapping(t_uint256,t_mapping(t_address,t_struct(UserInfo)8334_storage))"
      }
    ],
    "types": {
      "t_address": {
        "encoding": "inplace",
        "label": "address",
        "numberOfBytes": "20"
      },
      "t_array(t_struct(VaultInfo)8327_storage)dyn_storage": {
        "base": "t_struct(VaultInfo)8327_storage",
        "encoding": "dynamic_array",
        "label": "struct BalleMaster.VaultInfo[]",
        "numberOfBytes": "32"
      },
      "t_bool": {
        "encoding": "inplace",
        "label": "bool",
        "numberOfBytes": "1"
      },
      "t_contract(IERC20)734": {
        "encoding": "inplace",
        "label": "contract IERC20",
        "numberOfBytes": "20"
      },
      "t_mapping(t_address,t_struct(UserInfo)8334_storage)": {
        "encoding": "mapping",
        "key": "t_address",
        "label": "mapping(address => struct BalleMaster.UserInfo)",
        "numberOfBytes": "32",
        "value": "t_struct(UserInfo)8334_storage"
      },
      "t_mapping(t_uint256,t_mapping(t_address,t_struct(UserInfo)8334_storage))": {
        "encoding": "mapping",
        "key": "t_uint256",
        "label": "mapping(uint256 => mapping(address => struct BalleMaster.UserInfo))",
        "numberOfBytes": "32",
        "value": "t_mapping(t_address,t_struct(UserInfo)8334_storage)"
      },
      "t_struct(UserInfo)8334_storage": {
        "encoding": "inplace",
        "label": "struct BalleMaster.UserInfo",
        "members": [
          {
            "astId": 8329,
            "contract": "contracts/vaults/BalleMaster.sol:BalleMaster",
            "label": "deposit",
            "offset": 0,
            "slot": "0",
            "type": "t_uint256"
          },
          {
            "astId": 8331,
            "contract": "contracts/vaults/BalleMaster.sol:BalleMaster",
            "label": "shares",
            "offset": 0,
            "slot": "1",
            "type": "t_uint256"
          },
          {
            "astId": 8333,
            "contract": "contracts/vaults/BalleMaster.sol:BalleMaster",
            "label": "rewardDebt",
            "offset": 0,
            "slot": "2",
            "type": "t_uint256"
          }
        ],
        "numberOfBytes": "96"
      },
      "t_struct(VaultInfo)8327_storage": {
        "encoding": "inplace",
        "label": "struct BalleMaster.VaultInfo",
        "members": [
          {
            "astId": 8308,
            "contract": "contracts/vaults/BalleMaster.sol:BalleMaster",
            "label": "depositToken",
            "offset": 0,
            "slot": "0",
            "type": "t_contract(IERC20)734"
          },
          {
            "astId": 8310,
            "contract": "contracts/vaults/BalleMaster.sol:BalleMaster",
            "label": "strat",
            "offset": 0,
            "slot": "1",
            "type": "t_address"
          },
          {
            "astId": 8312,
            "contract": "contracts/vaults/BalleMaster.sol:BalleMaster",
            "label": "proposedStrat",
            "offset": 0,
            "slot": "2",
            "type": "t_address"
          },
          {
            "astId": 8314,
            "contract": "contracts/vaults/BalleMaster.sol:BalleMaster",
            "label": "allocPoint",
            "offset": 0,
            "slot": "3",
            "type": "t_uint256"
          },
          {
            "astId": 8316,
            "contract": "contracts/vaults/BalleMaster.sol:BalleMaster",
            "label": "lastRewardBlock",
            "offset": 0,
            "slot": "4",
            "type": "t_uint256"
          },
          {
            "astId": 8318,
            "contract": "contracts/vaults/BalleMaster.sol:BalleMaster",
            "label": "accBallePerShare",
            "offset": 0,
            "slot": "5",
            "type": "t_uint256"
          },
          {
            "astId": 8320,
            "contract": "contracts/vaults/BalleMaster.sol:BalleMaster",
            "label": "proposedTime",
            "offset": 0,
            "slot": "6",
            "type": "t_uint256"
          },
          {
            "astId": 8322,
            "contract": "contracts/vaults/BalleMaster.sol:BalleMaster",
            "label": "rewardsActive",
            "offset": 0,
            "slot": "7",
            "type": "t_bool"
          },
          {
            "astId": 8324,
            "contract": "contracts/vaults/BalleMaster.sol:BalleMaster",
            "label": "paused",
            "offset": 1,
            "slot": "7",
            "type": "t_bool"
          },
          {
            "astId": 8326,
            "contract": "contracts/vaults/BalleMaster.sol:BalleMaster",
            "label": "retired",
            "offset": 2,
            "slot": "7",
            "type": "t_bool"
          }
        ],
        "numberOfBytes": "256"
      },
      "t_uint256": {
        "encoding": "inplace",
        "label": "uint256",
        "numberOfBytes": "32"
      }
    }
  }
}