{
  "address": "0xfe70697DF155C775aF35C7b6283aa905333312E7",
  "abi": [
    {
      "inputs": [
        {
          "internalType": "address",
          "name": "_balle",
          "type": "address"
        },
        {
          "internalType": "address",
          "name": "_balleV2",
          "type": "address"
        }
      ],
      "stateMutability": "nonpayable",
      "type": "constructor"
    },
    {
      "anonymous": false,
      "inputs": [
        {
          "indexed": true,
          "internalType": "address",
          "name": "addr",
          "type": "address"
        },
        {
          "indexed": false,
          "internalType": "uint256",
          "name": "amount",
          "type": "uint256"
        }
      ],
      "name": "Migrate",
      "type": "event"
    },
    {
      "anonymous": false,
      "inputs": [
        {
          "indexed": true,
          "internalType": "address",
          "name": "addr",
          "type": "address"
        }
      ],
      "name": "SetGovernance",
      "type": "event"
    },
    {
      "inputs": [],
      "name": "balle",
      "outputs": [
        {
          "internalType": "contract IERC20",
          "name": "",
          "type": "address"
        }
      ],
      "stateMutability": "view",
      "type": "function"
    },
    {
      "inputs": [],
      "name": "balleV2",
      "outputs": [
        {
          "internalType": "contract IMintableERC20",
          "name": "",
          "type": "address"
        }
      ],
      "stateMutability": "view",
      "type": "function"
    },
    {
      "inputs": [],
      "name": "governance",
      "outputs": [
        {
          "internalType": "address",
          "name": "",
          "type": "address"
        }
      ],
      "stateMutability": "view",
      "type": "function"
    },
    {
      "inputs": [
        {
          "internalType": "address",
          "name": "_token",
          "type": "address"
        },
        {
          "internalType": "uint256",
          "name": "_amount",
          "type": "uint256"
        },
        {
          "internalType": "address",
          "name": "_to",
          "type": "address"
        }
      ],
      "name": "inCaseTokensGetStuck",
      "outputs": [],
      "stateMutability": "nonpayable",
      "type": "function"
    },
    {
      "inputs": [],
      "name": "migrate",
      "outputs": [],
      "stateMutability": "nonpayable",
      "type": "function"
    },
    {
      "inputs": [
        {
          "internalType": "address",
          "name": "_governance",
          "type": "address"
        }
      ],
      "name": "setGovernance",
      "outputs": [],
      "stateMutability": "nonpayable",
      "type": "function"
    }
  ],
  "transactionHash": "0xef5d4f0a733897e727c8cbafc02f42b61dfb5fa41add7a839be7c4b948d6ef6e",
  "args": [
    "0x8bD237e94CE369F6D78c7bb08B90efc5c6f27A4f",
    "0x43fC744c34b211cD57c6f0d1ddB4EA8BC504541b"
  ],
  "solcInputHash": "360ef9858f9d13e2da8b2e0e5d9f9b58",
  "bytecode": "0x608060405234801561001057600080fd5b50604051610acc380380610acc83398101604081905261002f91610196565b60016000556001600160a01b03821661008f5760405162461bcd60e51b815260206004820152601760248201527f42414c4c452061646472657373206e6f742076616c696400000000000000000060448201526064015b60405180910390fd5b6001600160a01b0381166100e55760405162461bcd60e51b815260206004820152601960248201527f42414c4c4576322061646472657373206e6f742076616c6964000000000000006044820152606401610086565b806001600160a01b0316826001600160a01b031614156101395760405162461bcd60e51b815260206004820152600f60248201526e496e76616c6964206164647265737360881b6044820152606401610086565b600180546001600160a01b039384166001600160a01b03199182161790915560028054929093169181169190911790915560038054909116331790556101c8565b80516001600160a01b038116811461019157600080fd5b919050565b600080604083850312156101a8578182fd5b6101b18361017a565b91506101bf6020840161017a565b90509250929050565b6108f5806101d76000396000f3fe608060405234801561001057600080fd5b50600436106100625760003560e01c80635aa6e6751461006757806367206d4014610096578063695bfdac146100ab5780638fd3ab80146100be578063ab033ea9146100c6578063ded0da10146100d9575b600080fd5b60035461007a906001600160a01b031681565b6040516001600160a01b03909116815260200160405180910390f35b6100a96100a43660046107f6565b6100ec565b005b60025461007a906001600160a01b031681565b6100a96101dd565b6100a96100d43660046107dc565b610456565b60015461007a906001600160a01b031681565b6003546001600160a01b031633146101395760405162461bcd60e51b815260206004820152600b60248201526a21676f7665726e616e636560a81b60448201526064015b60405180910390fd5b6001600160a01b03811661017e5760405162461bcd60e51b815260206004820152600c60248201526b7a65726f206164647265737360a01b6044820152606401610130565b6001546001600160a01b03848116911614156101c45760405162461bcd60e51b8152602060048201526005602482015264217361666560d81b6044820152606401610130565b6101d86001600160a01b038416828461052d565b505050565b600260005414156102305760405162461bcd60e51b815260206004820152601f60248201527f5265656e7472616e637947756172643a207265656e7472616e742063616c6c006044820152606401610130565b60026000556291178843106102725760405162461bcd60e51b8152602060048201526008602482015267746f6f206c61746560c01b6044820152606401610130565b6001546040516370a0823160e01b81523360048201526000916001600160a01b0316906370a082319060240160206040518083038186803b1580156102b657600080fd5b505afa1580156102ca573d6000803e3d6000fd5b505050506040513d601f19601f820116820180604052508101906102ee9190610851565b90506000811161032a5760405162461bcd60e51b815260206004820152600760248201526608585b5bdd5b9d60ca1b6044820152606401610130565b6001546040516323b872dd60e01b8152336004820152306024820152604481018390526001600160a01b03909116906323b872dd90606401602060405180830381600087803b15801561037c57600080fd5b505af1158015610390573d6000803e3d6000fd5b505050506040513d601f19601f820116820180604052508101906103b49190610831565b506002546040516340c10f1960e01b8152336004820152602481018390526001600160a01b03909116906340c10f1990604401600060405180830381600087803b15801561040157600080fd5b505af1158015610415573d6000803e3d6000fd5b50506040518381523392507fa59785389b00cbd19745afbe8d59b28e3161395c6b1e3525861a2b0dede0b90d915060200160405180910390a2506001600055565b6003546001600160a01b0316331461049e5760405162461bcd60e51b815260206004820152600b60248201526a21676f7665726e616e636560a81b6044820152606401610130565b6001600160a01b0381166104e35760405162461bcd60e51b815260206004820152600c60248201526b7a65726f206164647265737360a01b6044820152606401610130565b600380546001600160a01b0319166001600160a01b0383169081179091556040517f24a8c4807b324a269a51827c3446b8ac1cc13810d7d0c0ca1efafabddd7b621990600090a250565b604080516001600160a01b03848116602483015260448083018590528351808403909101815260649092018352602080830180516001600160e01b031663a9059cbb60e01b17905283518085019094528084527f5361666545524332303a206c6f772d6c6576656c2063616c6c206661696c6564908401526101d8928692916000916105bd91851690849061063a565b8051909150156101d857808060200190518101906105db9190610831565b6101d85760405162461bcd60e51b815260206004820152602a60248201527f5361666545524332303a204552433230206f7065726174696f6e20646964206e6044820152691bdd081cdd58d8d9595960b21b6064820152608401610130565b60606106498484600085610653565b90505b9392505050565b6060824710156106b45760405162461bcd60e51b815260206004820152602660248201527f416464726573733a20696e73756666696369656e742062616c616e636520666f6044820152651c8818d85b1b60d21b6064820152608401610130565b6106bd85610782565b6107095760405162461bcd60e51b815260206004820152601d60248201527f416464726573733a2063616c6c20746f206e6f6e2d636f6e74726163740000006044820152606401610130565b600080866001600160a01b031685876040516107259190610869565b60006040518083038185875af1925050503d8060008114610762576040519150601f19603f3d011682016040523d82523d6000602084013e610767565b606091505b509150915061077782828661078c565b979650505050505050565b803b15155b919050565b6060831561079b57508161064c565b8251156107ab5782518084602001fd5b8160405162461bcd60e51b81526004016101309190610885565b80356001600160a01b038116811461078757600080fd5b6000602082840312156107ed578081fd5b61064c826107c5565b60008060006060848603121561080a578182fd5b610813846107c5565b925060208401359150610828604085016107c5565b90509250925092565b600060208284031215610842578081fd5b8151801515811461064c578182fd5b600060208284031215610862578081fd5b5051919050565b6000825161087b8184602087016108b8565b9190910192915050565b60006020825282518060208401526108a48160408501602087016108b8565b601f01601f19169190910160400192915050565b60005b838110156108d35781810151838201526020016108bb565b838111156108e2576000848401525b5050505056fea164736f6c6343000803000a",
  "devdoc": {
    "kind": "dev",
    "methods": {
      "inCaseTokensGetStuck(address,uint256,address)": {
        "details": "Function to use from Governance Gnosis Safe multisig only in case tokens get stuck. This is to be used if someone, for example, sends tokens to the contract by mistake. There is no guarantee governance will vote to return these."
      },
      "migrate()": {
        "details": "Transfer BALLE from wallet, and mint new BALLEv2 to wallet"
      },
      "setGovernance(address)": {
        "details": "Set the new Governance Gnosis Safe multisig address"
      }
    },
    "version": 1
  },
  "userdoc": {
    "kind": "user",
    "methods": {},
    "version": 1
  },
  "storageLayout": {
    "storage": [
      {
        "astId": 120,
        "contract": "contracts/token/BalleMigration.sol:BalleMigration",
        "label": "_status",
        "offset": 0,
        "slot": "0",
        "type": "t_uint256"
      },
      {
        "astId": 7989,
        "contract": "contracts/token/BalleMigration.sol:BalleMigration",
        "label": "balle",
        "offset": 0,
        "slot": "1",
        "type": "t_contract(IERC20)734"
      },
      {
        "astId": 7992,
        "contract": "contracts/token/BalleMigration.sol:BalleMigration",
        "label": "balleV2",
        "offset": 0,
        "slot": "2",
        "type": "t_contract(IMintableERC20)1371"
      },
      {
        "astId": 7994,
        "contract": "contracts/token/BalleMigration.sol:BalleMigration",
        "label": "governance",
        "offset": 0,
        "slot": "3",
        "type": "t_address"
      }
    ],
    "types": {
      "t_address": {
        "encoding": "inplace",
        "label": "address",
        "numberOfBytes": "20"
      },
      "t_contract(IERC20)734": {
        "encoding": "inplace",
        "label": "contract IERC20",
        "numberOfBytes": "20"
      },
      "t_contract(IMintableERC20)1371": {
        "encoding": "inplace",
        "label": "contract IMintableERC20",
        "numberOfBytes": "20"
      },
      "t_uint256": {
        "encoding": "inplace",
        "label": "uint256",
        "numberOfBytes": "32"
      }
    }
  }
}