{
  "address": "0x03D622e23228B85db39F8168f0C6FAe41F32Cbf1",
  "abi": [
    {
      "inputs": [
        {
          "internalType": "address",
          "name": "_balle",
          "type": "address"
        }
      ],
      "stateMutability": "nonpayable",
      "type": "constructor"
    },
    {
      "anonymous": false,
      "inputs": [
        {
          "indexed": true,
          "internalType": "address",
          "name": "previousOwner",
          "type": "address"
        },
        {
          "indexed": true,
          "internalType": "address",
          "name": "newOwner",
          "type": "address"
        }
      ],
      "name": "OwnershipTransferred",
      "type": "event"
    },
    {
      "inputs": [],
      "name": "balle",
      "outputs": [
        {
          "internalType": "address",
          "name": "",
          "type": "address"
        }
      ],
      "stateMutability": "view",
      "type": "function"
    },
    {
      "inputs": [
        {
          "internalType": "address",
          "name": "_token",
          "type": "address"
        },
        {
          "internalType": "uint256",
          "name": "_amount",
          "type": "uint256"
        },
        {
          "internalType": "address",
          "name": "_to",
          "type": "address"
        }
      ],
      "name": "inCaseTokensGetStuck",
      "outputs": [],
      "stateMutability": "nonpayable",
      "type": "function"
    },
    {
      "inputs": [],
      "name": "owner",
      "outputs": [
        {
          "internalType": "address",
          "name": "",
          "type": "address"
        }
      ],
      "stateMutability": "view",
      "type": "function"
    },
    {
      "inputs": [],
      "name": "renounceOwnership",
      "outputs": [],
      "stateMutability": "nonpayable",
      "type": "function"
    },
    {
      "inputs": [],
      "name": "rewarder",
      "outputs": [
        {
          "internalType": "address",
          "name": "",
          "type": "address"
        }
      ],
      "stateMutability": "view",
      "type": "function"
    },
    {
      "inputs": [
        {
          "internalType": "uint256",
          "name": "_amount",
          "type": "uint256"
        }
      ],
      "name": "sendReward",
      "outputs": [
        {
          "internalType": "uint256",
          "name": "",
          "type": "uint256"
        }
      ],
      "stateMutability": "nonpayable",
      "type": "function"
    },
    {
      "inputs": [
        {
          "internalType": "address",
          "name": "_rewarder",
          "type": "address"
        }
      ],
      "name": "setRewarder",
      "outputs": [],
      "stateMutability": "nonpayable",
      "type": "function"
    },
    {
      "inputs": [
        {
          "internalType": "address",
          "name": "newOwner",
          "type": "address"
        }
      ],
      "name": "transferOwnership",
      "outputs": [],
      "stateMutability": "nonpayable",
      "type": "function"
    }
  ],
  "transactionHash": "0xe2114709958449595efb2c6c8f8ab6453095225ef4581829ebdace973b5a0356",
  "args": [
    "0x43fC744c34b211cD57c6f0d1ddB4EA8BC504541b"
  ],
  "solcInputHash": "347fc71d55151518a0fec02bb327905f",
  "bytecode": "0x608060405234801561001057600080fd5b50604051610ad6380380610ad683398101604081905261002f916100d8565b600080546001600160a01b031916339081178255604051909182917f8be0079c531659141344cd1fd0a4f28419497f9722a3daafe3b4186f6b6457e0908290a3506001600160a01b0381166100b35760405162461bcd60e51b81526020600482015260066024820152652162616c6c6560d01b604482015260640160405180910390fd5b600180546001600160a01b0319166001600160a01b0392909216919091179055610106565b6000602082840312156100e9578081fd5b81516001600160a01b03811681146100ff578182fd5b9392505050565b6109c1806101156000396000f3fe608060405234801561001057600080fd5b50600436106100885760003560e01c8063c78b6dea1161005b578063c78b6dea146100e7578063dcc3e06e14610108578063ded0da101461011b578063f2fde38b1461012e57610088565b80633a6462e41461008d57806367206d40146100a2578063715018a6146100b55780638da5cb5b146100bd575b600080fd5b6100a061009b36600461085b565b610141565b005b6100a06100b0366004610875565b6101db565b6100a0610331565b6000546001600160a01b03165b6040516001600160a01b0390911681526020015b60405180910390f35b6100fa6100f53660046108d0565b6103a5565b6040519081526020016100de565b6002546100ca906001600160a01b031681565b6001546100ca906001600160a01b031681565b6100a061013c36600461085b565b6104d3565b6000546001600160a01b031633146101745760405162461bcd60e51b815260040161016b9061094f565b60405180910390fd5b6001600160a01b0381166101b95760405162461bcd60e51b815260206004820152600c60248201526b7a65726f206164647265737360a01b604482015260640161016b565b600280546001600160a01b0319166001600160a01b0392909216919091179055565b6000546001600160a01b031633146102055760405162461bcd60e51b815260040161016b9061094f565b6001600160a01b0383166102505760405162461bcd60e51b81526020600482015260126024820152717a65726f20746f6b656e206164647265737360701b604482015260640161016b565b6001600160a01b0381166102985760405162461bcd60e51b815260206004820152600f60248201526e7a65726f20746f206164647265737360881b604482015260640161016b565b600082116102d25760405162461bcd60e51b815260206004820152600760248201526608585b5bdd5b9d60ca1b604482015260640161016b565b6001546001600160a01b03848116911614156103185760405162461bcd60e51b8152602060048201526005602482015264217361666560d81b604482015260640161016b565b61032c6001600160a01b03841682846105bd565b505050565b6000546001600160a01b0316331461035b5760405162461bcd60e51b815260040161016b9061094f565b600080546040516001600160a01b03909116907f8be0079c531659141344cd1fd0a4f28419497f9722a3daafe3b4186f6b6457e0908390a3600080546001600160a01b0319169055565b6002546000906001600160a01b031633146103ee5760405162461bcd60e51b815260206004820152600960248201526810b932bbb0b93232b960b91b604482015260640161016b565b600082116104285760405162461bcd60e51b815260206004820152600760248201526608585b5bdd5b9d60ca1b604482015260640161016b565b6001546040516370a0823160e01b81523060048201526000916001600160a01b0316906370a082319060240160206040518083038186803b15801561046c57600080fd5b505afa158015610480573d6000803e3d6000fd5b505050506040513d601f19601f820116820180604052508101906104a491906108e8565b9050808311156104b2578092505b6001546104c9906001600160a01b031633856105bd565b829150505b919050565b6000546001600160a01b031633146104fd5760405162461bcd60e51b815260040161016b9061094f565b6001600160a01b0381166105625760405162461bcd60e51b815260206004820152602660248201527f4f776e61626c653a206e6577206f776e657220697320746865207a65726f206160448201526564647265737360d01b606482015260840161016b565b600080546040516001600160a01b03808516939216917f8be0079c531659141344cd1fd0a4f28419497f9722a3daafe3b4186f6b6457e091a3600080546001600160a01b0319166001600160a01b0392909216919091179055565b604080516001600160a01b03848116602483015260448083018590528351808403909101815260649092018352602080830180516001600160e01b031663a9059cbb60e01b17905283518085019094528084527f5361666545524332303a206c6f772d6c6576656c2063616c6c206661696c65649084015261032c9286929160009161064d9185169084906106ca565b80519091501561032c578080602001905181019061066b91906108b0565b61032c5760405162461bcd60e51b815260206004820152602a60248201527f5361666545524332303a204552433230206f7065726174696f6e20646964206e6044820152691bdd081cdd58d8d9595960b21b606482015260840161016b565b60606106d984846000856106e3565b90505b9392505050565b6060824710156107445760405162461bcd60e51b815260206004820152602660248201527f416464726573733a20696e73756666696369656e742062616c616e636520666f6044820152651c8818d85b1b60d21b606482015260840161016b565b843b6107925760405162461bcd60e51b815260206004820152601d60248201527f416464726573733a2063616c6c20746f206e6f6e2d636f6e7472616374000000604482015260640161016b565b600080866001600160a01b031685876040516107ae9190610900565b60006040518083038185875af1925050503d80600081146107eb576040519150601f19603f3d011682016040523d82523d6000602084013e6107f0565b606091505b509150915061080082828661080b565b979650505050505050565b6060831561081a5750816106dc565b82511561082a5782518084602001fd5b8160405162461bcd60e51b815260040161016b919061091c565b80356001600160a01b03811681146104ce57600080fd5b60006020828403121561086c578081fd5b6106dc82610844565b600080600060608486031215610889578182fd5b61089284610844565b9250602084013591506108a760408501610844565b90509250925092565b6000602082840312156108c1578081fd5b815180151581146106dc578182fd5b6000602082840312156108e1578081fd5b5035919050565b6000602082840312156108f9578081fd5b5051919050565b60008251610912818460208701610984565b9190910192915050565b600060208252825180602084015261093b816040850160208701610984565b601f01601f19169190910160400192915050565b6020808252818101527f4f776e61626c653a2063616c6c6572206973206e6f7420746865206f776e6572604082015260600190565b60005b8381101561099f578181015183820152602001610987565b838111156109ae576000848401525b5050505056fea164736f6c6343000803000a",
  "devdoc": {
    "kind": "dev",
    "methods": {
      "constructor": {
        "details": "Store of funds to be rewarded by BALLE staking pool."
      },
      "inCaseTokensGetStuck(address,uint256,address)": {
        "details": "Function to use from Governance GNOSIS Safe only in case tokens get stuck. EMERGENCY ONLY."
      },
      "owner()": {
        "details": "Returns the address of the current owner."
      },
      "renounceOwnership()": {
        "details": "Leaves the contract without owner. It will not be possible to call `onlyOwner` functions anymore. Can only be called by the current owner. NOTE: Renouncing ownership will leave the contract without an owner, thereby removing any functionality that is only available to the owner."
      },
      "sendReward(uint256)": {
        "details": "Function to transfer tokens to the rewarder."
      },
      "setRewarder(address)": {
        "details": "Function to change the rewarder address."
      },
      "transferOwnership(address)": {
        "details": "Transfers ownership of the contract to a new account (`newOwner`). Can only be called by the current owner."
      }
    },
    "version": 1
  },
  "userdoc": {
    "kind": "user",
    "methods": {},
    "version": 1
  },
  "storageLayout": {
    "storage": [
      {
        "astId": 7,
        "contract": "contracts/staking/BalleRewardFund.sol:BalleRewardFund",
        "label": "_owner",
        "offset": 0,
        "slot": "0",
        "type": "t_address"
      },
      {
        "astId": 3782,
        "contract": "contracts/staking/BalleRewardFund.sol:BalleRewardFund",
        "label": "balle",
        "offset": 0,
        "slot": "1",
        "type": "t_address"
      },
      {
        "astId": 3784,
        "contract": "contracts/staking/BalleRewardFund.sol:BalleRewardFund",
        "label": "rewarder",
        "offset": 0,
        "slot": "2",
        "type": "t_address"
      }
    ],
    "types": {
      "t_address": {
        "encoding": "inplace",
        "label": "address",
        "numberOfBytes": "20"
      }
    }
  }
}