{
  "address": "0x43fC744c34b211cD57c6f0d1ddB4EA8BC504541b",
  "abi": [
    {
      "inputs": [
        {
          "internalType": "string",
          "name": "_name",
          "type": "string"
        },
        {
          "internalType": "string",
          "name": "_symbol",
          "type": "string"
        },
        {
          "internalType": "uint256",
          "name": "_cap",
          "type": "uint256"
        }
      ],
      "stateMutability": "nonpayable",
      "type": "constructor"
    },
    {
      "anonymous": false,
      "inputs": [
        {
          "indexed": true,
          "internalType": "address",
          "name": "addr",
          "type": "address"
        }
      ],
      "name": "AddMinter",
      "type": "event"
    },
    {
      "anonymous": false,
      "inputs": [
        {
          "indexed": true,
          "internalType": "address",
          "name": "owner",
          "type": "address"
        },
        {
          "indexed": true,
          "internalType": "address",
          "name": "spender",
          "type": "address"
        },
        {
          "indexed": false,
          "internalType": "uint256",
          "name": "value",
          "type": "uint256"
        }
      ],
      "name": "Approval",
      "type": "event"
    },
    {
      "anonymous": false,
      "inputs": [
        {
          "indexed": true,
          "internalType": "address",
          "name": "addr",
          "type": "address"
        }
      ],
      "name": "RemoveMinter",
      "type": "event"
    },
    {
      "anonymous": false,
      "inputs": [
        {
          "indexed": true,
          "internalType": "address",
          "name": "addr",
          "type": "address"
        }
      ],
      "name": "SetGovernance",
      "type": "event"
    },
    {
      "anonymous": false,
      "inputs": [
        {
          "indexed": true,
          "internalType": "address",
          "name": "from",
          "type": "address"
        },
        {
          "indexed": true,
          "internalType": "address",
          "name": "to",
          "type": "address"
        },
        {
          "indexed": false,
          "internalType": "uint256",
          "name": "value",
          "type": "uint256"
        }
      ],
      "name": "Transfer",
      "type": "event"
    },
    {
      "inputs": [
        {
          "internalType": "address",
          "name": "_minter",
          "type": "address"
        }
      ],
      "name": "addMinter",
      "outputs": [],
      "stateMutability": "nonpayable",
      "type": "function"
    },
    {
      "inputs": [
        {
          "internalType": "address",
          "name": "owner",
          "type": "address"
        },
        {
          "internalType": "address",
          "name": "spender",
          "type": "address"
        }
      ],
      "name": "allowance",
      "outputs": [
        {
          "internalType": "uint256",
          "name": "",
          "type": "uint256"
        }
      ],
      "stateMutability": "view",
      "type": "function"
    },
    {
      "inputs": [
        {
          "internalType": "address",
          "name": "spender",
          "type": "address"
        },
        {
          "internalType": "uint256",
          "name": "amount",
          "type": "uint256"
        }
      ],
      "name": "approve",
      "outputs": [
        {
          "internalType": "bool",
          "name": "",
          "type": "bool"
        }
      ],
      "stateMutability": "nonpayable",
      "type": "function"
    },
    {
      "inputs": [
        {
          "internalType": "address",
          "name": "account",
          "type": "address"
        }
      ],
      "name": "balanceOf",
      "outputs": [
        {
          "internalType": "uint256",
          "name": "",
          "type": "uint256"
        }
      ],
      "stateMutability": "view",
      "type": "function"
    },
    {
      "inputs": [],
      "name": "cap",
      "outputs": [
        {
          "internalType": "uint256",
          "name": "",
          "type": "uint256"
        }
      ],
      "stateMutability": "view",
      "type": "function"
    },
    {
      "inputs": [],
      "name": "decimals",
      "outputs": [
        {
          "internalType": "uint8",
          "name": "",
          "type": "uint8"
        }
      ],
      "stateMutability": "view",
      "type": "function"
    },
    {
      "inputs": [
        {
          "internalType": "address",
          "name": "spender",
          "type": "address"
        },
        {
          "internalType": "uint256",
          "name": "subtractedValue",
          "type": "uint256"
        }
      ],
      "name": "decreaseAllowance",
      "outputs": [
        {
          "internalType": "bool",
          "name": "",
          "type": "bool"
        }
      ],
      "stateMutability": "nonpayable",
      "type": "function"
    },
    {
      "inputs": [],
      "name": "governance",
      "outputs": [
        {
          "internalType": "address",
          "name": "",
          "type": "address"
        }
      ],
      "stateMutability": "view",
      "type": "function"
    },
    {
      "inputs": [
        {
          "internalType": "address",
          "name": "_token",
          "type": "address"
        },
        {
          "internalType": "uint256",
          "name": "_amount",
          "type": "uint256"
        },
        {
          "internalType": "address",
          "name": "_to",
          "type": "address"
        }
      ],
      "name": "inCaseTokensGetStuck",
      "outputs": [],
      "stateMutability": "nonpayable",
      "type": "function"
    },
    {
      "inputs": [
        {
          "internalType": "address",
          "name": "spender",
          "type": "address"
        },
        {
          "internalType": "uint256",
          "name": "addedValue",
          "type": "uint256"
        }
      ],
      "name": "increaseAllowance",
      "outputs": [
        {
          "internalType": "bool",
          "name": "",
          "type": "bool"
        }
      ],
      "stateMutability": "nonpayable",
      "type": "function"
    },
    {
      "inputs": [
        {
          "internalType": "address",
          "name": "_to",
          "type": "address"
        },
        {
          "internalType": "uint256",
          "name": "_amount",
          "type": "uint256"
        }
      ],
      "name": "mint",
      "outputs": [],
      "stateMutability": "nonpayable",
      "type": "function"
    },
    {
      "inputs": [
        {
          "internalType": "address",
          "name": "",
          "type": "address"
        }
      ],
      "name": "minters",
      "outputs": [
        {
          "internalType": "bool",
          "name": "",
          "type": "bool"
        }
      ],
      "stateMutability": "view",
      "type": "function"
    },
    {
      "inputs": [],
      "name": "name",
      "outputs": [
        {
          "internalType": "string",
          "name": "",
          "type": "string"
        }
      ],
      "stateMutability": "view",
      "type": "function"
    },
    {
      "inputs": [
        {
          "internalType": "address",
          "name": "_minter",
          "type": "address"
        }
      ],
      "name": "removeMinter",
      "outputs": [],
      "stateMutability": "nonpayable",
      "type": "function"
    },
    {
      "inputs": [
        {
          "internalType": "address",
          "name": "_governance",
          "type": "address"
        }
      ],
      "name": "setGovernance",
      "outputs": [],
      "stateMutability": "nonpayable",
      "type": "function"
    },
    {
      "inputs": [],
      "name": "symbol",
      "outputs": [
        {
          "internalType": "string",
          "name": "",
          "type": "string"
        }
      ],
      "stateMutability": "view",
      "type": "function"
    },
    {
      "inputs": [],
      "name": "totalSupply",
      "outputs": [
        {
          "internalType": "uint256",
          "name": "",
          "type": "uint256"
        }
      ],
      "stateMutability": "view",
      "type": "function"
    },
    {
      "inputs": [
        {
          "internalType": "address",
          "name": "recipient",
          "type": "address"
        },
        {
          "internalType": "uint256",
          "name": "amount",
          "type": "uint256"
        }
      ],
      "name": "transfer",
      "outputs": [
        {
          "internalType": "bool",
          "name": "",
          "type": "bool"
        }
      ],
      "stateMutability": "nonpayable",
      "type": "function"
    },
    {
      "inputs": [
        {
          "internalType": "address",
          "name": "sender",
          "type": "address"
        },
        {
          "internalType": "address",
          "name": "recipient",
          "type": "address"
        },
        {
          "internalType": "uint256",
          "name": "amount",
          "type": "uint256"
        }
      ],
      "name": "transferFrom",
      "outputs": [
        {
          "internalType": "bool",
          "name": "",
          "type": "bool"
        }
      ],
      "stateMutability": "nonpayable",
      "type": "function"
    }
  ],
  "transactionHash": "0xc302ce43f73f54bf07e38f36d8d36036e0743010e53e5371d93701070e97afd7",
  "args": [
    "BALLEv2",
    "BALLE",
    "40000000000000000000000"
  ],
  "solcInputHash": "360ef9858f9d13e2da8b2e0e5d9f9b58",
  "bytecode": "0x60a06040523480156200001157600080fd5b506040516200145d3803806200145d833981016040819052620000349162000223565b8251839083906200004d906003906020850190620000ca565b50805162000063906004906020840190620000ca565b50505060008111620000ad5760405162461bcd60e51b815260206004820152600f60248201526e042414c4c453a20636170206973203608c1b604482015260640160405180910390fd5b6080525050600580546001600160a01b03191633179055620002e6565b828054620000d89062000293565b90600052602060002090601f016020900481019282620000fc576000855562000147565b82601f106200011757805160ff191683800117855562000147565b8280016001018555821562000147579182015b82811115620001475782518255916020019190600101906200012a565b506200015592915062000159565b5090565b5b808211156200015557600081556001016200015a565b600082601f83011262000181578081fd5b81516001600160401b03808211156200019e576200019e620002d0565b604051601f8301601f19908116603f01168101908282118183101715620001c957620001c9620002d0565b81604052838152602092508683858801011115620001e5578485fd5b8491505b83821015620002085785820183015181830184015290820190620001e9565b838211156200021957848385830101525b9695505050505050565b60008060006060848603121562000238578283fd5b83516001600160401b03808211156200024f578485fd5b6200025d8783880162000170565b9450602086015191508082111562000273578384fd5b50620002828682870162000170565b925050604084015190509250925092565b600181811c90821680620002a857607f821691505b60208210811415620002ca57634e487b7160e01b600052602260045260246000fd5b50919050565b634e487b7160e01b600052604160045260246000fd5b60805161115462000309600039600081816101b5015261058e01526111546000f3fe608060405234801561001057600080fd5b50600436106101215760003560e01c80635aa6e675116100ad578063a457c2d711610071578063a457c2d714610269578063a9059cbb1461027c578063ab033ea91461028f578063dd62ed3e146102a2578063f46eccc4146102db57610121565b80635aa6e675146101fd57806367206d401461022857806370a082311461023b57806395d89b411461024e578063983b2d561461025657610121565b80633092afd5116100f45780633092afd51461018c578063313ce567146101a1578063355274ea146101b057806339509351146101d757806340c10f19146101ea57610121565b806306fdde0314610126578063095ea7b31461014457806318160ddd1461016757806323b872dd14610179575b600080fd5b61012e6102fe565b60405161013b9190611019565b60405180910390f35b610157610152366004610f79565b610390565b604051901515815260200161013b565b6002545b60405190815260200161013b565b610157610187366004610f3e565b6103a6565b61019f61019a366004610ef2565b61045e565b005b6040516012815260200161013b565b61016b7f000000000000000000000000000000000000000000000000000000000000000081565b6101576101e5366004610f79565b6104f7565b61019f6101f8366004610f79565b61052e565b600554610210906001600160a01b031681565b6040516001600160a01b03909116815260200161013b565b61019f610236366004610fa2565b610606565b61016b610249366004610ef2565b61066f565b61012e61068e565b61019f610264366004610ef2565b61069d565b610157610277366004610f79565b610739565b61015761028a366004610f79565b6107d4565b61019f61029d366004610ef2565b6107e1565b61016b6102b0366004610f0c565b6001600160a01b03918216600090815260016020908152604080832093909416825291909152205490565b6101576102e9366004610ef2565b60066020526000908152604090205460ff1681565b60606003805461030d906110f6565b80601f0160208091040260200160405190810160405280929190818152602001828054610339906110f6565b80156103865780601f1061035b57610100808354040283529160200191610386565b820191906000526020600020905b81548152906001019060200180831161036957829003601f168201915b5050505050905090565b600061039d33848461087b565b50600192915050565b60006103b384848461099f565b6001600160a01b03841660009081526001602090815260408083203384529091529020548281101561043d5760405162461bcd60e51b815260206004820152602860248201527f45524332303a207472616e7366657220616d6f756e74206578636565647320616044820152676c6c6f77616e636560c01b60648201526084015b60405180910390fd5b610451853361044c86856110af565b61087b565b60019150505b9392505050565b6005546001600160a01b031633146104885760405162461bcd60e51b81526004016104349061104c565b6001600160a01b0381166104ae5760405162461bcd60e51b815260040161043490611071565b6001600160a01b038116600081815260066020526040808220805460ff19169055517f2f91b591fc56ac0917953ad01ec225524ee5ef0555213e4c8a9d8c9728ee7ffb9190a250565b3360008181526001602090815260408083206001600160a01b0387168452909152812054909161039d91859061044c908690611097565b3360009081526006602052604090205460ff168061055657506005546001600160a01b031633145b61058c5760405162461bcd60e51b815260206004820152600760248201526610b6b4b73a32b960c91b6044820152606401610434565b7f0000000000000000000000000000000000000000000000000000000000000000816105b760025490565b6105c19190611097565b11156105f85760405162461bcd60e51b8152600401610434906020808252600490820152630216361760e41b604082015260600190565b6106028282610b77565b5050565b6005546001600160a01b031633146106305760405162461bcd60e51b81526004016104349061104c565b6001600160a01b0381166106565760405162461bcd60e51b815260040161043490611071565b61066a6001600160a01b0384168284610c56565b505050565b6001600160a01b0381166000908152602081905260409020545b919050565b60606004805461030d906110f6565b6005546001600160a01b031633146106c75760405162461bcd60e51b81526004016104349061104c565b6001600160a01b0381166106ed5760405162461bcd60e51b815260040161043490611071565b6001600160a01b038116600081815260066020526040808220805460ff19166001179055517f16baa937b08d58713325f93ac58b8a9369a4359bbefb4957d6d9b402735722ab9190a250565b3360009081526001602090815260408083206001600160a01b0386168452909152812054828110156107bb5760405162461bcd60e51b815260206004820152602560248201527f45524332303a2064656372656173656420616c6c6f77616e63652062656c6f77604482015264207a65726f60d81b6064820152608401610434565b6107ca338561044c86856110af565b5060019392505050565b600061039d33848461099f565b6005546001600160a01b0316331461080b5760405162461bcd60e51b81526004016104349061104c565b6001600160a01b0381166108315760405162461bcd60e51b815260040161043490611071565b600580546001600160a01b0319166001600160a01b0383169081179091556040517f24a8c4807b324a269a51827c3446b8ac1cc13810d7d0c0ca1efafabddd7b621990600090a250565b6001600160a01b0383166108dd5760405162461bcd60e51b8152602060048201526024808201527f45524332303a20617070726f76652066726f6d20746865207a65726f206164646044820152637265737360e01b6064820152608401610434565b6001600160a01b03821661093e5760405162461bcd60e51b815260206004820152602260248201527f45524332303a20617070726f766520746f20746865207a65726f206164647265604482015261737360f01b6064820152608401610434565b6001600160a01b0383811660008181526001602090815260408083209487168084529482529182902085905590518481527f8c5be1e5ebec7d5bd14f71427d1e84f3dd0314c0f7b2291e5b200ac8c7c3b925910160405180910390a3505050565b6001600160a01b038316610a035760405162461bcd60e51b815260206004820152602560248201527f45524332303a207472616e736665722066726f6d20746865207a65726f206164604482015264647265737360d81b6064820152608401610434565b6001600160a01b038216610a655760405162461bcd60e51b815260206004820152602360248201527f45524332303a207472616e7366657220746f20746865207a65726f206164647260448201526265737360e81b6064820152608401610434565b6001600160a01b03831660009081526020819052604090205481811015610add5760405162461bcd60e51b815260206004820152602660248201527f45524332303a207472616e7366657220616d6f756e7420657863656564732062604482015265616c616e636560d01b6064820152608401610434565b610ae782826110af565b6001600160a01b038086166000908152602081905260408082209390935590851681529081208054849290610b1d908490611097565b92505081905550826001600160a01b0316846001600160a01b03167fddf252ad1be2c89b69c2b068fc378daa952ba7f163c4a11628f55a4df523b3ef84604051610b6991815260200190565b60405180910390a350505050565b6001600160a01b038216610bcd5760405162461bcd60e51b815260206004820152601f60248201527f45524332303a206d696e7420746f20746865207a65726f2061646472657373006044820152606401610434565b8060026000828254610bdf9190611097565b90915550506001600160a01b03821660009081526020819052604081208054839290610c0c908490611097565b90915550506040518181526001600160a01b038316906000907fddf252ad1be2c89b69c2b068fc378daa952ba7f163c4a11628f55a4df523b3ef9060200160405180910390a35050565b604080516001600160a01b03848116602483015260448083018590528351808403909101815260649092018352602080830180516001600160e01b031663a9059cbb60e01b17905283518085019094528084527f5361666545524332303a206c6f772d6c6576656c2063616c6c206661696c65649084015261066a92869291600091610ce6918516908490610d63565b80519091501561066a5780806020019051810190610d049190610fdd565b61066a5760405162461bcd60e51b815260206004820152602a60248201527f5361666545524332303a204552433230206f7065726174696f6e20646964206e6044820152691bdd081cdd58d8d9595960b21b6064820152608401610434565b6060610d728484600085610d7a565b949350505050565b606082471015610ddb5760405162461bcd60e51b815260206004820152602660248201527f416464726573733a20696e73756666696369656e742062616c616e636520666f6044820152651c8818d85b1b60d21b6064820152608401610434565b843b610e295760405162461bcd60e51b815260206004820152601d60248201527f416464726573733a2063616c6c20746f206e6f6e2d636f6e74726163740000006044820152606401610434565b600080866001600160a01b03168587604051610e459190610ffd565b60006040518083038185875af1925050503d8060008114610e82576040519150601f19603f3d011682016040523d82523d6000602084013e610e87565b606091505b5091509150610e97828286610ea2565b979650505050505050565b60608315610eb1575081610457565b825115610ec15782518084602001fd5b8160405162461bcd60e51b81526004016104349190611019565b80356001600160a01b038116811461068957600080fd5b600060208284031215610f03578081fd5b61045782610edb565b60008060408385031215610f1e578081fd5b610f2783610edb565b9150610f3560208401610edb565b90509250929050565b600080600060608486031215610f52578081fd5b610f5b84610edb565b9250610f6960208501610edb565b9150604084013590509250925092565b60008060408385031215610f8b578182fd5b610f9483610edb565b946020939093013593505050565b600080600060608486031215610fb6578283fd5b610fbf84610edb565b925060208401359150610fd460408501610edb565b90509250925092565b600060208284031215610fee578081fd5b81518015158114610457578182fd5b6000825161100f8184602087016110c6565b9190910192915050565b60006020825282518060208401526110388160408501602087016110c6565b601f01601f19169190910160400192915050565b6020808252600b908201526a21676f7665726e616e636560a81b604082015260600190565b6020808252600c908201526b7a65726f206164647265737360a01b604082015260600190565b600082198211156110aa576110aa611131565b500190565b6000828210156110c1576110c1611131565b500390565b60005b838110156110e15781810151838201526020016110c9565b838111156110f0576000848401525b50505050565b600181811c9082168061110a57607f821691505b6020821081141561112b57634e487b7160e01b600052602260045260246000fd5b50919050565b634e487b7160e01b600052601160045260246000fdfea164736f6c6343000803000a",
  "devdoc": {
    "kind": "dev",
    "methods": {
      "addMinter(address)": {
        "details": "Add a minter address"
      },
      "allowance(address,address)": {
        "details": "See {IERC20-allowance}."
      },
      "approve(address,uint256)": {
        "details": "See {IERC20-approve}. Requirements: - `spender` cannot be the zero address."
      },
      "balanceOf(address)": {
        "details": "See {IERC20-balanceOf}."
      },
      "decimals()": {
        "details": "Returns the number of decimals used to get its user representation. For example, if `decimals` equals `2`, a balance of `505` tokens should be displayed to a user as `5,05` (`505 / 10 ** 2`). Tokens usually opt for a value of 18, imitating the relationship between Ether and Wei. This is the value {ERC20} uses, unless this function is overridden; NOTE: This information is only used for _display_ purposes: it in no way affects any of the arithmetic of the contract, including {IERC20-balanceOf} and {IERC20-transfer}."
      },
      "decreaseAllowance(address,uint256)": {
        "details": "Atomically decreases the allowance granted to `spender` by the caller. This is an alternative to {approve} that can be used as a mitigation for problems described in {IERC20-approve}. Emits an {Approval} event indicating the updated allowance. Requirements: - `spender` cannot be the zero address. - `spender` must have allowance for the caller of at least `subtractedValue`."
      },
      "inCaseTokensGetStuck(address,uint256,address)": {
        "details": "Function to use from Governance Gnosis Safe multisig only in case tokens get stuck. This is to be used if someone, for example, sends tokens to the contract by mistake. There is no guarantee governance will vote to return these. No tokens are stored in this contract, so, it's safe to transfer any token."
      },
      "increaseAllowance(address,uint256)": {
        "details": "Atomically increases the allowance granted to `spender` by the caller. This is an alternative to {approve} that can be used as a mitigation for problems described in {IERC20-approve}. Emits an {Approval} event indicating the updated allowance. Requirements: - `spender` cannot be the zero address."
      },
      "mint(address,uint256)": {
        "details": "Creates _amount tokens and assigns them to _to account, increasing the total supply until the cap is reached."
      },
      "name()": {
        "details": "Returns the name of the token."
      },
      "removeMinter(address)": {
        "details": "Remove a minter address"
      },
      "setGovernance(address)": {
        "details": "Set the new Governance Gnosis Safe multisig address"
      },
      "symbol()": {
        "details": "Returns the symbol of the token, usually a shorter version of the name."
      },
      "totalSupply()": {
        "details": "See {IERC20-totalSupply}."
      },
      "transfer(address,uint256)": {
        "details": "See {IERC20-transfer}. Requirements: - `recipient` cannot be the zero address. - the caller must have a balance of at least `amount`."
      },
      "transferFrom(address,address,uint256)": {
        "details": "See {IERC20-transferFrom}. Emits an {Approval} event indicating the updated allowance. This is not required by the EIP. See the note at the beginning of {ERC20}. Requirements: - `sender` and `recipient` cannot be the zero address. - `sender` must have a balance of at least `amount`. - the caller must have allowance for ``sender``'s tokens of at least `amount`."
      }
    },
    "version": 1
  },
  "userdoc": {
    "kind": "user",
    "methods": {},
    "version": 1
  },
  "storageLayout": {
    "storage": [
      {
        "astId": 165,
        "contract": "contracts/token/BALLEv2.sol:BALLEv2",
        "label": "_balances",
        "offset": 0,
        "slot": "0",
        "type": "t_mapping(t_address,t_uint256)"
      },
      {
        "astId": 171,
        "contract": "contracts/token/BALLEv2.sol:BALLEv2",
        "label": "_allowances",
        "offset": 0,
        "slot": "1",
        "type": "t_mapping(t_address,t_mapping(t_address,t_uint256))"
      },
      {
        "astId": 173,
        "contract": "contracts/token/BALLEv2.sol:BALLEv2",
        "label": "_totalSupply",
        "offset": 0,
        "slot": "2",
        "type": "t_uint256"
      },
      {
        "astId": 175,
        "contract": "contracts/token/BALLEv2.sol:BALLEv2",
        "label": "_name",
        "offset": 0,
        "slot": "3",
        "type": "t_string_storage"
      },
      {
        "astId": 177,
        "contract": "contracts/token/BALLEv2.sol:BALLEv2",
        "label": "_symbol",
        "offset": 0,
        "slot": "4",
        "type": "t_string_storage"
      },
      {
        "astId": 7745,
        "contract": "contracts/token/BALLEv2.sol:BALLEv2",
        "label": "governance",
        "offset": 0,
        "slot": "5",
        "type": "t_address"
      },
      {
        "astId": 7749,
        "contract": "contracts/token/BALLEv2.sol:BALLEv2",
        "label": "minters",
        "offset": 0,
        "slot": "6",
        "type": "t_mapping(t_address,t_bool)"
      }
    ],
    "types": {
      "t_address": {
        "encoding": "inplace",
        "label": "address",
        "numberOfBytes": "20"
      },
      "t_bool": {
        "encoding": "inplace",
        "label": "bool",
        "numberOfBytes": "1"
      },
      "t_mapping(t_address,t_bool)": {
        "encoding": "mapping",
        "key": "t_address",
        "label": "mapping(address => bool)",
        "numberOfBytes": "32",
        "value": "t_bool"
      },
      "t_mapping(t_address,t_mapping(t_address,t_uint256))": {
        "encoding": "mapping",
        "key": "t_address",
        "label": "mapping(address => mapping(address => uint256))",
        "numberOfBytes": "32",
        "value": "t_mapping(t_address,t_uint256)"
      },
      "t_mapping(t_address,t_uint256)": {
        "encoding": "mapping",
        "key": "t_address",
        "label": "mapping(address => uint256)",
        "numberOfBytes": "32",
        "value": "t_uint256"
      },
      "t_string_storage": {
        "encoding": "bytes",
        "label": "string",
        "numberOfBytes": "32"
      },
      "t_uint256": {
        "encoding": "inplace",
        "label": "uint256",
        "numberOfBytes": "32"
      }
    }
  }
}