{
  "address": "0x0ce41849fbA2Fc91608021be6e9064128B84B7d7",
  "abi": [
    {
      "inputs": [
        {
          "internalType": "address",
          "name": "_balle",
          "type": "address"
        },
        {
          "internalType": "address",
          "name": "_balleMaster",
          "type": "address"
        },
        {
          "internalType": "address",
          "name": "_treasury",
          "type": "address"
        },
        {
          "internalType": "address",
          "name": "_rewardFund",
          "type": "address"
        }
      ],
      "stateMutability": "nonpayable",
      "type": "constructor"
    },
    {
      "anonymous": false,
      "inputs": [
        {
          "indexed": true,
          "internalType": "address",
          "name": "pool",
          "type": "address"
        },
        {
          "indexed": false,
          "internalType": "uint256",
          "name": "baseAmount",
          "type": "uint256"
        },
        {
          "indexed": false,
          "internalType": "uint256",
          "name": "extraAmount",
          "type": "uint256"
        },
        {
          "indexed": false,
          "internalType": "uint256",
          "name": "feeAmount",
          "type": "uint256"
        },
        {
          "indexed": false,
          "internalType": "uint256",
          "name": "numberOfBlocks",
          "type": "uint256"
        },
        {
          "indexed": false,
          "internalType": "uint256",
          "name": "multiplier",
          "type": "uint256"
        }
      ],
      "name": "BalleRewardDistributed",
      "type": "event"
    },
    {
      "anonymous": false,
      "inputs": [
        {
          "indexed": true,
          "internalType": "address",
          "name": "previousOwner",
          "type": "address"
        },
        {
          "indexed": true,
          "internalType": "address",
          "name": "newOwner",
          "type": "address"
        }
      ],
      "name": "OwnershipTransferred",
      "type": "event"
    },
    {
      "inputs": [],
      "name": "REWARD_FEE",
      "outputs": [
        {
          "internalType": "uint256",
          "name": "",
          "type": "uint256"
        }
      ],
      "stateMutability": "view",
      "type": "function"
    },
    {
      "inputs": [],
      "name": "REWARD_FEE_MAX",
      "outputs": [
        {
          "internalType": "uint256",
          "name": "",
          "type": "uint256"
        }
      ],
      "stateMutability": "view",
      "type": "function"
    },
    {
      "inputs": [],
      "name": "balle",
      "outputs": [
        {
          "internalType": "contract BALLEv2",
          "name": "",
          "type": "address"
        }
      ],
      "stateMutability": "view",
      "type": "function"
    },
    {
      "inputs": [],
      "name": "balleMaster",
      "outputs": [
        {
          "internalType": "contract IBalleMaster",
          "name": "",
          "type": "address"
        }
      ],
      "stateMutability": "view",
      "type": "function"
    },
    {
      "inputs": [
        {
          "internalType": "uint256",
          "name": "_duration",
          "type": "uint256"
        },
        {
          "internalType": "uint256",
          "name": "_baseRewardAmount",
          "type": "uint256"
        },
        {
          "internalType": "uint256",
          "name": "_multiplier",
          "type": "uint256"
        },
        {
          "internalType": "uint256",
          "name": "_rewardStartBlock",
          "type": "uint256"
        }
      ],
      "name": "distributeReward",
      "outputs": [],
      "stateMutability": "nonpayable",
      "type": "function"
    },
    {
      "inputs": [
        {
          "internalType": "address",
          "name": "_token",
          "type": "address"
        },
        {
          "internalType": "uint256",
          "name": "_amount",
          "type": "uint256"
        },
        {
          "internalType": "address",
          "name": "_to",
          "type": "address"
        }
      ],
      "name": "inCaseTokensGetStuck",
      "outputs": [],
      "stateMutability": "nonpayable",
      "type": "function"
    },
    {
      "inputs": [],
      "name": "owner",
      "outputs": [
        {
          "internalType": "address",
          "name": "",
          "type": "address"
        }
      ],
      "stateMutability": "view",
      "type": "function"
    },
    {
      "inputs": [],
      "name": "renounceOwnership",
      "outputs": [],
      "stateMutability": "nonpayable",
      "type": "function"
    },
    {
      "inputs": [],
      "name": "rewardFund",
      "outputs": [
        {
          "internalType": "address",
          "name": "",
          "type": "address"
        }
      ],
      "stateMutability": "view",
      "type": "function"
    },
    {
      "inputs": [],
      "name": "rewarder",
      "outputs": [
        {
          "internalType": "address",
          "name": "",
          "type": "address"
        }
      ],
      "stateMutability": "view",
      "type": "function"
    },
    {
      "inputs": [
        {
          "internalType": "address",
          "name": "_rewardFund",
          "type": "address"
        }
      ],
      "name": "setRewardFund",
      "outputs": [],
      "stateMutability": "nonpayable",
      "type": "function"
    },
    {
      "inputs": [
        {
          "internalType": "address",
          "name": "_rewarder",
          "type": "address"
        }
      ],
      "name": "setRewarder",
      "outputs": [],
      "stateMutability": "nonpayable",
      "type": "function"
    },
    {
      "inputs": [
        {
          "internalType": "address",
          "name": "_stakingPool",
          "type": "address"
        }
      ],
      "name": "setStakingPool",
      "outputs": [],
      "stateMutability": "nonpayable",
      "type": "function"
    },
    {
      "inputs": [
        {
          "internalType": "address",
          "name": "_treasury",
          "type": "address"
        }
      ],
      "name": "setTreasury",
      "outputs": [],
      "stateMutability": "nonpayable",
      "type": "function"
    },
    {
      "inputs": [],
      "name": "stakingPool",
      "outputs": [
        {
          "internalType": "address",
          "name": "",
          "type": "address"
        }
      ],
      "stateMutability": "view",
      "type": "function"
    },
    {
      "inputs": [
        {
          "internalType": "address",
          "name": "newOwner",
          "type": "address"
        }
      ],
      "name": "transferOwnership",
      "outputs": [],
      "stateMutability": "nonpayable",
      "type": "function"
    },
    {
      "inputs": [],
      "name": "treasury",
      "outputs": [
        {
          "internalType": "address",
          "name": "",
          "type": "address"
        }
      ],
      "stateMutability": "view",
      "type": "function"
    }
  ],
  "transactionHash": "0xf3bd146dfb045b7041225b3b149de33814ea94d6817dcafab0214fef196835d8",
  "args": [
    "0x43fC744c34b211cD57c6f0d1ddB4EA8BC504541b",
    "0x59b75eE4Fe79A5C807eB6553c110B5295c675D35",
    "0x8ADB7044d41aC5B378281e0ebd9CD6eAC43a53F8",
    "0x783557C3A2E98D58A9c6A0Fa10a475fcad62477f"
  ],
  "solcInputHash": "df19d66ca86543f405eca7de7bc6e2bf",
  "bytecode": "0x60c06040523480156200001157600080fd5b5060405162001753380380620017538339810160408190526200003491620001f7565b600080546001600160a01b031916339081178255604051909182917f8be0079c531659141344cd1fd0a4f28419497f9722a3daafe3b4186f6b6457e0908290a3506001600160a01b038416620000ba5760405162461bcd60e51b81526020600482015260066024820152652162616c6c6560d01b60448201526064015b60405180910390fd5b6001600160a01b038316620001015760405162461bcd60e51b815260206004820152600c60248201526b10b130b63632a6b0b9ba32b960a11b6044820152606401620000b1565b6001600160a01b038216620001455760405162461bcd60e51b815260206004820152600960248201526821747265617375727960b81b6044820152606401620000b1565b6001600160a01b0381166200018b5760405162461bcd60e51b815260206004820152600b60248201526a085c995dd85c99119d5b9960aa1b6044820152606401620000b1565b6001600160601b0319606094851b81166080529290931b90911660a052600180546001600160a01b039283166001600160a01b0319918216179091556002805492909316911617905562000253565b80516001600160a01b0381168114620001f257600080fd5b919050565b600080600080608085870312156200020d578384fd5b6200021885620001da565b93506200022860208601620001da565b92506200023860408601620001da565b91506200024860608601620001da565b905092959194509250565b60805160601c60a05160601c611495620002be600039600081816101f20152818161055d015281816105f501528181610687015261072f01526000818161022c01528181610473015281816107cf0152818161086001528181610a040152610ac501526114956000f3fe608060405234801561001057600080fd5b506004361061010b5760003560e01c8063884f6f7f116100a2578063dcc3e06e11610071578063dcc3e06e14610214578063ded0da1014610227578063efe222661461024e578063f0f4426014610261578063f2fde38b146102745761010b565b8063884f6f7f146101c05780638da5cb5b146101d3578063b299e846146101e4578063bb892620146101ed5761010b565b80633a6462e4116100de5780633a6462e41461017f57806361d027b31461019257806367206d40146101a5578063715018a6146101b85761010b565b80630c56ae3b14610110578063145cfcde14610140578063245281cf146101555780633028f63a1461016c575b600080fd5b600354610123906001600160a01b031681565b6040516001600160a01b0390911681526020015b60405180910390f35b61015361014e3660046112f9565b610287565b005b61015e61271081565b604051908152602001610137565b61015361017a36600461126c565b610c2e565b61015361018d36600461126c565b610ca0565b600154610123906001600160a01b031681565b6101536101b3366004611286565b610d12565b610153610d7b565b6101536101ce36600461126c565b610def565b6000546001600160a01b0316610123565b61015e6103e881565b6101237f000000000000000000000000000000000000000000000000000000000000000081565b600454610123906001600160a01b031681565b6101237f000000000000000000000000000000000000000000000000000000000000000081565b600254610123906001600160a01b031681565b61015361026f36600461126c565b610e61565b61015361028236600461126c565b610ed3565b6000546001600160a01b031633146102ba5760405162461bcd60e51b81526004016102b190611379565b60405180910390fd5b620151808410156102fd5760405162461bcd60e51b815260206004820152600d60248201526c10b6b4b710323ab930ba34b7b760991b60448201526064016102b1565b62093a808411156103405760405162461bcd60e51b815260206004820152600d60248201526c10b6b0bc10323ab930ba34b7b760991b60448201526064016102b1565b600083116103845760405162461bcd60e51b81526020600482015260116024820152700858985cd954995dd85c99105b5bdd5b9d607a1b60448201526064016102b1565b60648210156103c35760405162461bcd60e51b815260206004820152600b60248201526a10b6bab63a34b83634b2b960a91b60448201526064016102b1565b6003546001600160a01b031661040a5760405162461bcd60e51b815260206004820152600c60248201526b085cdd185ada5b99d41bdbdb60a21b60448201526064016102b1565b6004546001600160a01b031661044e5760405162461bcd60e51b815260206004820152600960248201526810b932bbb0b93232b960b91b60448201526064016102b1565b6002546040516370a0823160e01b81526001600160a01b0391821660048201526000917f000000000000000000000000000000000000000000000000000000000000000016906370a082319060240160206040518083038186803b1580156104b557600080fd5b505afa1580156104c9573d6000803e3d6000fd5b505050506040513d601f19601f820116820180604052508101906104ed91906112e1565b9050838110156105345760405162461bcd60e51b81526020600482015260126024820152712172657761726446756e6442616c616e636560701b60448201526064016102b1565b6000846064610543868361140c565b61054d91906113ec565b610557919061142b565b905060007f00000000000000000000000000000000000000000000000000000000000000006001600160a01b031663083c63236040518163ffffffff1660e01b815260040160206040518083038186803b1580156105b457600080fd5b505afa1580156105c8573d6000803e3d6000fd5b505050506040513d601f19601f820116820180604052508101906105ec91906112e1565b43101561072d577f00000000000000000000000000000000000000000000000000000000000000006001600160a01b03166344bd5b4f6040518163ffffffff1660e01b815260040160206040518083038186803b15801561064c57600080fd5b505afa158015610660573d6000803e3d6000fd5b505050506040513d601f19601f8201168201806040525081019061068491906112e1565b437f00000000000000000000000000000000000000000000000000000000000000006001600160a01b031663083c63236040518163ffffffff1660e01b815260040160206040518083038186803b1580156106de57600080fd5b505afa1580156106f2573d6000803e3d6000fd5b505050506040513d601f19601f8201168201806040525081019061071691906112e1565b610720919061142b565b61072a919061140c565b90505b7f00000000000000000000000000000000000000000000000000000000000000006001600160a01b0316632b5b0a976040518163ffffffff1660e01b815260040160206040518083038186803b15801561078657600080fd5b505afa15801561079a573d6000803e3d6000fd5b505050506040513d601f19601f820116820180604052508101906107be91906112e1565b6107c890826113d4565b90506000817f00000000000000000000000000000000000000000000000000000000000000006001600160a01b03166318160ddd6040518163ffffffff1660e01b815260040160206040518083038186803b15801561082657600080fd5b505afa15801561083a573d6000803e3d6000fd5b505050506040513d601f19601f8201168201806040525081019061085e91906112e1565b7f00000000000000000000000000000000000000000000000000000000000000006001600160a01b031663355274ea6040518163ffffffff1660e01b815260040160206040518083038186803b1580156108b757600080fd5b505afa1580156108cb573d6000803e3d6000fd5b505050506040513d601f19601f820116820180604052508101906108ef91906112e1565b6108f9919061142b565b610903919061142b565b905080831115610933579150818661091b81836113d4565b61092690606461140c565b61093091906113ec565b95505b6002546004805460405163a362184760e01b81526001600160a01b0391821692810192909252602482018a90529091169063a362184790604401602060405180830381600087803b15801561098757600080fd5b505af115801561099b573d6000803e3d6000fd5b505050506040513d601f19601f820116820180604052508101906109bf91906112e1565b5060006127106103e86109d2868b6113d4565b6109dc919061140c565b6109e691906113ec565b9050808410156109f7575082610a96565b6004546001600160a01b037f00000000000000000000000000000000000000000000000000000000000000008116916340c10f199116610a37848861142b565b6040516001600160e01b031960e085901b1681526001600160a01b0390921660048301526024820152604401600060405180830381600087803b158015610a7d57600080fd5b505af1158015610a91573d6000803e3d6000fd5b505050505b8015610b24576001546040516340c10f1960e01b81526001600160a01b039182166004820152602481018390527f0000000000000000000000000000000000000000000000000000000000000000909116906340c10f1990604401600060405180830381600087803b158015610b0b57600080fd5b505af1158015610b1f573d6000803e3d6000fd5b505050505b6003546001600160a01b03166329206a7082610b40878c6113d4565b610b4a919061142b565b610b5560038d6113ec565b6040516001600160e01b031960e085901b16815260048101929092526024820152604481018a905260648101899052608401600060405180830381600087803b158015610ba157600080fd5b505af1158015610bb5573d6000803e3d6000fd5b5050600380546001600160a01b031692507f9f870ae3696804db87690a6de4069b0d2182c337e6a7061dc5a70d77224c5a2891508a9087908590610bf9908f6113ec565b604080519485526020850193909352918301526060820152608081018a905260a00160405180910390a2505050505050505050565b6000546001600160a01b03163314610c585760405162461bcd60e51b81526004016102b190611379565b6001600160a01b038116610c7e5760405162461bcd60e51b81526004016102b1906113ae565b600380546001600160a01b0319166001600160a01b0392909216919091179055565b6000546001600160a01b03163314610cca5760405162461bcd60e51b81526004016102b190611379565b6001600160a01b038116610cf05760405162461bcd60e51b81526004016102b1906113ae565b600480546001600160a01b0319166001600160a01b0392909216919091179055565b6000546001600160a01b03163314610d3c5760405162461bcd60e51b81526004016102b190611379565b6001600160a01b038116610d625760405162461bcd60e51b81526004016102b1906113ae565b610d766001600160a01b0384168284610fbd565b505050565b6000546001600160a01b03163314610da55760405162461bcd60e51b81526004016102b190611379565b600080546040516001600160a01b03909116907f8be0079c531659141344cd1fd0a4f28419497f9722a3daafe3b4186f6b6457e0908390a3600080546001600160a01b0319169055565b6000546001600160a01b03163314610e195760405162461bcd60e51b81526004016102b190611379565b6001600160a01b038116610e3f5760405162461bcd60e51b81526004016102b1906113ae565b600280546001600160a01b0319166001600160a01b0392909216919091179055565b6000546001600160a01b03163314610e8b5760405162461bcd60e51b81526004016102b190611379565b6001600160a01b038116610eb15760405162461bcd60e51b81526004016102b1906113ae565b600180546001600160a01b0319166001600160a01b0392909216919091179055565b6000546001600160a01b03163314610efd5760405162461bcd60e51b81526004016102b190611379565b6001600160a01b038116610f625760405162461bcd60e51b815260206004820152602660248201527f4f776e61626c653a206e6577206f776e657220697320746865207a65726f206160448201526564647265737360d01b60648201526084016102b1565b600080546040516001600160a01b03808516939216917f8be0079c531659141344cd1fd0a4f28419497f9722a3daafe3b4186f6b6457e091a3600080546001600160a01b0319166001600160a01b0392909216919091179055565b604080516001600160a01b03848116602483015260448083018590528351808403909101815260649092018352602080830180516001600160e01b031663a9059cbb60e01b17905283518085019094528084527f5361666545524332303a206c6f772d6c6576656c2063616c6c206661696c656490840152610d769286929160009161104d9185169084906110ca565b805190915015610d76578080602001905181019061106b91906112c1565b610d765760405162461bcd60e51b815260206004820152602a60248201527f5361666545524332303a204552433230206f7065726174696f6e20646964206e6044820152691bdd081cdd58d8d9595960b21b60648201526084016102b1565b60606110d984846000856110e3565b90505b9392505050565b6060824710156111445760405162461bcd60e51b815260206004820152602660248201527f416464726573733a20696e73756666696369656e742062616c616e636520666f6044820152651c8818d85b1b60d21b60648201526084016102b1565b61114d85611212565b6111995760405162461bcd60e51b815260206004820152601d60248201527f416464726573733a2063616c6c20746f206e6f6e2d636f6e747261637400000060448201526064016102b1565b600080866001600160a01b031685876040516111b5919061132a565b60006040518083038185875af1925050503d80600081146111f2576040519150601f19603f3d011682016040523d82523d6000602084013e6111f7565b606091505b509150915061120782828661121c565b979650505050505050565b803b15155b919050565b6060831561122b5750816110dc565b82511561123b5782518084602001fd5b8160405162461bcd60e51b81526004016102b19190611346565b80356001600160a01b038116811461121757600080fd5b60006020828403121561127d578081fd5b6110dc82611255565b60008060006060848603121561129a578182fd5b6112a384611255565b9250602084013591506112b860408501611255565b90509250925092565b6000602082840312156112d2578081fd5b815180151581146110dc578182fd5b6000602082840312156112f2578081fd5b5051919050565b6000806000806080858703121561130e578081fd5b5050823594602084013594506040840135936060013592509050565b6000825161133c818460208701611442565b9190910192915050565b6000602082528251806020840152611365816040850160208701611442565b601f01601f19169190910160400192915050565b6020808252818101527f4f776e61626c653a2063616c6c6572206973206e6f7420746865206f776e6572604082015260600190565b6020808252600c908201526b7a65726f206164647265737360a01b604082015260600190565b600082198211156113e7576113e7611472565b500190565b60008261140757634e487b7160e01b81526012600452602481fd5b500490565b600081600019048311821515161561142657611426611472565b500290565b60008282101561143d5761143d611472565b500390565b60005b8381101561145d578181015183820152602001611445565b8381111561146c576000848401525b50505050565b634e487b7160e01b600052601160045260246000fdfea164736f6c6343000803000a",
  "devdoc": {
    "details": "Implementation of the BALLE Reward Distribution for the staking pool. This contract will distribute the rewards from Reward Fund to the Rewarder of the Staking. The owner of the contract is the Governance Gnosis Safe multisig.",
    "kind": "dev",
    "methods": {
      "distributeReward(uint256,uint256,uint256,uint256)": {
        "details": "Function to distribute reward.",
        "params": {
          "_baseRewardAmount": ": Reward amount from performance fees to take from BalleRewardFund.",
          "_duration": ": Period for the reward distribution. From 24h to 7 days.",
          "_multiplier": ": Multiplier to add Extra reward from new minted BALLE, while there is free supply (100 = 1)."
        }
      },
      "inCaseTokensGetStuck(address,uint256,address)": {
        "details": "Function to use from Governance Gnosis Safe multisig only in case tokens get stuck. This is to be used if someone, for example, sends tokens to the contract by mistake. There is no guarantee governance will vote to return these. No tokens are stored in this contract, so, it's safe to transfer any token."
      },
      "owner()": {
        "details": "Returns the address of the current owner."
      },
      "renounceOwnership()": {
        "details": "Leaves the contract without owner. It will not be possible to call `onlyOwner` functions anymore. Can only be called by the current owner. NOTE: Renouncing ownership will leave the contract without an owner, thereby removing any functionality that is only available to the owner."
      },
      "setRewardFund(address)": {
        "details": "Function to change the rewardFund address."
      },
      "setRewarder(address)": {
        "details": "Function to change the rewarder address."
      },
      "setStakingPool(address)": {
        "details": "Function to change the stakingPool address."
      },
      "setTreasury(address)": {
        "details": "Function to change the treasury address."
      },
      "transferOwnership(address)": {
        "details": "Transfers ownership of the contract to a new account (`newOwner`). Can only be called by the current owner."
      }
    },
    "version": 1
  },
  "userdoc": {
    "kind": "user",
    "methods": {},
    "version": 1
  },
  "storageLayout": {
    "storage": [
      {
        "astId": 7,
        "contract": "contracts/staking/BalleRewardDistribution.sol:BalleRewardDistribution",
        "label": "_owner",
        "offset": 0,
        "slot": "0",
        "type": "t_address"
      },
      {
        "astId": 3849,
        "contract": "contracts/staking/BalleRewardDistribution.sol:BalleRewardDistribution",
        "label": "treasury",
        "offset": 0,
        "slot": "1",
        "type": "t_address"
      },
      {
        "astId": 3851,
        "contract": "contracts/staking/BalleRewardDistribution.sol:BalleRewardDistribution",
        "label": "rewardFund",
        "offset": 0,
        "slot": "2",
        "type": "t_address"
      },
      {
        "astId": 3853,
        "contract": "contracts/staking/BalleRewardDistribution.sol:BalleRewardDistribution",
        "label": "stakingPool",
        "offset": 0,
        "slot": "3",
        "type": "t_address"
      },
      {
        "astId": 3855,
        "contract": "contracts/staking/BalleRewardDistribution.sol:BalleRewardDistribution",
        "label": "rewarder",
        "offset": 0,
        "slot": "4",
        "type": "t_address"
      }
    ],
    "types": {
      "t_address": {
        "encoding": "inplace",
        "label": "address",
        "numberOfBytes": "20"
      }
    }
  }
}