{
  "address": "0x1607d8db126402a1287E33b39005ebF4aC060793",
  "abi": [
    {
      "inputs": [
        {
          "internalType": "contract BALLEv2",
          "name": "_balle",
          "type": "address"
        },
        {
          "internalType": "uint256",
          "name": "_ballePerBlock",
          "type": "uint256"
        },
        {
          "internalType": "uint256",
          "name": "_balleTotalRewards",
          "type": "uint256"
        },
        {
          "internalType": "uint256",
          "name": "_approvalDelay",
          "type": "uint256"
        }
      ],
      "stateMutability": "nonpayable",
      "type": "constructor"
    },
    {
      "anonymous": false,
      "inputs": [
        {
          "indexed": true,
          "internalType": "uint256",
          "name": "vid",
          "type": "uint256"
        },
        {
          "indexed": false,
          "internalType": "uint256",
          "name": "allocPoint",
          "type": "uint256"
        }
      ],
      "name": "ActivateRewards",
      "type": "event"
    },
    {
      "anonymous": false,
      "inputs": [
        {
          "indexed": true,
          "internalType": "uint256",
          "name": "vid",
          "type": "uint256"
        }
      ],
      "name": "DeactivateRewards",
      "type": "event"
    },
    {
      "anonymous": false,
      "inputs": [
        {
          "indexed": true,
          "internalType": "address",
          "name": "user",
          "type": "address"
        },
        {
          "indexed": true,
          "internalType": "uint256",
          "name": "vid",
          "type": "uint256"
        },
        {
          "indexed": false,
          "internalType": "uint256",
          "name": "amount",
          "type": "uint256"
        },
        {
          "indexed": false,
          "internalType": "uint256",
          "name": "rewards",
          "type": "uint256"
        }
      ],
      "name": "Deposit",
      "type": "event"
    },
    {
      "anonymous": false,
      "inputs": [
        {
          "indexed": true,
          "internalType": "uint256",
          "name": "vid",
          "type": "uint256"
        },
        {
          "indexed": true,
          "internalType": "address",
          "name": "strat",
          "type": "address"
        }
      ],
      "name": "EmergencyStratUpgrade",
      "type": "event"
    },
    {
      "anonymous": false,
      "inputs": [
        {
          "indexed": true,
          "internalType": "address",
          "name": "user",
          "type": "address"
        },
        {
          "indexed": true,
          "internalType": "uint256",
          "name": "vid",
          "type": "uint256"
        },
        {
          "indexed": false,
          "internalType": "uint256",
          "name": "amount",
          "type": "uint256"
        }
      ],
      "name": "EmergencyWithdraw",
      "type": "event"
    },
    {
      "anonymous": false,
      "inputs": [
        {
          "indexed": true,
          "internalType": "uint256",
          "name": "vid",
          "type": "uint256"
        },
        {
          "indexed": false,
          "internalType": "uint256",
          "name": "allocPoint",
          "type": "uint256"
        }
      ],
      "name": "ModifyRewards",
      "type": "event"
    },
    {
      "anonymous": false,
      "inputs": [
        {
          "indexed": true,
          "internalType": "address",
          "name": "previousOwner",
          "type": "address"
        },
        {
          "indexed": true,
          "internalType": "address",
          "name": "newOwner",
          "type": "address"
        }
      ],
      "name": "OwnershipTransferred",
      "type": "event"
    },
    {
      "anonymous": false,
      "inputs": [
        {
          "indexed": true,
          "internalType": "uint256",
          "name": "vid",
          "type": "uint256"
        }
      ],
      "name": "PanicVault",
      "type": "event"
    },
    {
      "anonymous": false,
      "inputs": [
        {
          "indexed": true,
          "internalType": "uint256",
          "name": "vid",
          "type": "uint256"
        }
      ],
      "name": "PauseVault",
      "type": "event"
    },
    {
      "anonymous": false,
      "inputs": [
        {
          "indexed": true,
          "internalType": "uint256",
          "name": "vid",
          "type": "uint256"
        },
        {
          "indexed": true,
          "internalType": "address",
          "name": "strat",
          "type": "address"
        }
      ],
      "name": "ProposeStratUpgrade",
      "type": "event"
    },
    {
      "anonymous": false,
      "inputs": [
        {
          "indexed": true,
          "internalType": "uint256",
          "name": "vid",
          "type": "uint256"
        }
      ],
      "name": "RetireVault",
      "type": "event"
    },
    {
      "anonymous": false,
      "inputs": [
        {
          "indexed": true,
          "internalType": "uint256",
          "name": "vid",
          "type": "uint256"
        },
        {
          "indexed": true,
          "internalType": "address",
          "name": "strat",
          "type": "address"
        }
      ],
      "name": "StratUpgrade",
      "type": "event"
    },
    {
      "anonymous": false,
      "inputs": [
        {
          "indexed": true,
          "internalType": "uint256",
          "name": "vid",
          "type": "uint256"
        }
      ],
      "name": "UnpauseVault",
      "type": "event"
    },
    {
      "anonymous": false,
      "inputs": [
        {
          "indexed": true,
          "internalType": "address",
          "name": "user",
          "type": "address"
        },
        {
          "indexed": true,
          "internalType": "uint256",
          "name": "vid",
          "type": "uint256"
        },
        {
          "indexed": false,
          "internalType": "uint256",
          "name": "amount",
          "type": "uint256"
        },
        {
          "indexed": false,
          "internalType": "uint256",
          "name": "rewards",
          "type": "uint256"
        }
      ],
      "name": "Withdraw",
      "type": "event"
    },
    {
      "inputs": [
        {
          "internalType": "uint256",
          "name": "_vid",
          "type": "uint256"
        },
        {
          "internalType": "uint256",
          "name": "_allocPoint",
          "type": "uint256"
        }
      ],
      "name": "activateVaultRewards",
      "outputs": [],
      "stateMutability": "nonpayable",
      "type": "function"
    },
    {
      "inputs": [
        {
          "internalType": "address",
          "name": "_depositToken",
          "type": "address"
        },
        {
          "internalType": "address",
          "name": "_wantToken",
          "type": "address"
        },
        {
          "internalType": "address",
          "name": "_strat",
          "type": "address"
        }
      ],
      "name": "addVault",
      "outputs": [],
      "stateMutability": "nonpayable",
      "type": "function"
    },
    {
      "inputs": [],
      "name": "approvalDelay",
      "outputs": [
        {
          "internalType": "uint256",
          "name": "",
          "type": "uint256"
        }
      ],
      "stateMutability": "view",
      "type": "function"
    },
    {
      "inputs": [],
      "name": "balle",
      "outputs": [
        {
          "internalType": "contract BALLEv2",
          "name": "",
          "type": "address"
        }
      ],
      "stateMutability": "view",
      "type": "function"
    },
    {
      "inputs": [],
      "name": "ballePerBlock",
      "outputs": [
        {
          "internalType": "uint256",
          "name": "",
          "type": "uint256"
        }
      ],
      "stateMutability": "view",
      "type": "function"
    },
    {
      "inputs": [],
      "name": "balleToMint",
      "outputs": [
        {
          "internalType": "uint256",
          "name": "",
          "type": "uint256"
        }
      ],
      "stateMutability": "view",
      "type": "function"
    },
    {
      "inputs": [],
      "name": "balleTotalRewards",
      "outputs": [
        {
          "internalType": "uint256",
          "name": "",
          "type": "uint256"
        }
      ],
      "stateMutability": "view",
      "type": "function"
    },
    {
      "inputs": [
        {
          "internalType": "uint256",
          "name": "_vid",
          "type": "uint256"
        }
      ],
      "name": "deactivateVaultRewards",
      "outputs": [],
      "stateMutability": "nonpayable",
      "type": "function"
    },
    {
      "inputs": [
        {
          "internalType": "uint256",
          "name": "_vid",
          "type": "uint256"
        },
        {
          "internalType": "uint256",
          "name": "_amount",
          "type": "uint256"
        }
      ],
      "name": "deposit",
      "outputs": [],
      "stateMutability": "nonpayable",
      "type": "function"
    },
    {
      "inputs": [
        {
          "internalType": "uint256",
          "name": "_vid",
          "type": "uint256"
        }
      ],
      "name": "depositAll",
      "outputs": [],
      "stateMutability": "nonpayable",
      "type": "function"
    },
    {
      "inputs": [
        {
          "internalType": "uint256",
          "name": "_vid",
          "type": "uint256"
        },
        {
          "internalType": "address",
          "name": "_user",
          "type": "address"
        }
      ],
      "name": "depositTokens",
      "outputs": [
        {
          "internalType": "uint256",
          "name": "",
          "type": "uint256"
        }
      ],
      "stateMutability": "view",
      "type": "function"
    },
    {
      "inputs": [
        {
          "internalType": "uint256",
          "name": "_vid",
          "type": "uint256"
        },
        {
          "internalType": "address",
          "name": "_strat",
          "type": "address"
        }
      ],
      "name": "emergencyStratUpgrade",
      "outputs": [],
      "stateMutability": "nonpayable",
      "type": "function"
    },
    {
      "inputs": [
        {
          "internalType": "uint256",
          "name": "_vid",
          "type": "uint256"
        }
      ],
      "name": "emergencyWithdraw",
      "outputs": [],
      "stateMutability": "nonpayable",
      "type": "function"
    },
    {
      "inputs": [],
      "name": "endBlock",
      "outputs": [
        {
          "internalType": "uint256",
          "name": "",
          "type": "uint256"
        }
      ],
      "stateMutability": "view",
      "type": "function"
    },
    {
      "inputs": [
        {
          "internalType": "uint256",
          "name": "_from",
          "type": "uint256"
        },
        {
          "internalType": "uint256",
          "name": "_to",
          "type": "uint256"
        }
      ],
      "name": "getBlockMultiplier",
      "outputs": [
        {
          "internalType": "uint256",
          "name": "",
          "type": "uint256"
        }
      ],
      "stateMutability": "view",
      "type": "function"
    },
    {
      "inputs": [
        {
          "internalType": "address",
          "name": "_token",
          "type": "address"
        },
        {
          "internalType": "uint256",
          "name": "_amount",
          "type": "uint256"
        }
      ],
      "name": "inCaseTokensGetStuck",
      "outputs": [],
      "stateMutability": "nonpayable",
      "type": "function"
    },
    {
      "inputs": [
        {
          "internalType": "uint256",
          "name": "_vid",
          "type": "uint256"
        },
        {
          "internalType": "uint256",
          "name": "_allocPoint",
          "type": "uint256"
        }
      ],
      "name": "modifyVaultRewards",
      "outputs": [],
      "stateMutability": "nonpayable",
      "type": "function"
    },
    {
      "inputs": [],
      "name": "owner",
      "outputs": [
        {
          "internalType": "address",
          "name": "",
          "type": "address"
        }
      ],
      "stateMutability": "view",
      "type": "function"
    },
    {
      "inputs": [
        {
          "internalType": "uint256",
          "name": "_vid",
          "type": "uint256"
        }
      ],
      "name": "panicVault",
      "outputs": [],
      "stateMutability": "nonpayable",
      "type": "function"
    },
    {
      "inputs": [
        {
          "internalType": "uint256",
          "name": "_vid",
          "type": "uint256"
        }
      ],
      "name": "pauseVault",
      "outputs": [],
      "stateMutability": "nonpayable",
      "type": "function"
    },
    {
      "inputs": [
        {
          "internalType": "uint256",
          "name": "_vid",
          "type": "uint256"
        },
        {
          "internalType": "address",
          "name": "_user",
          "type": "address"
        }
      ],
      "name": "pendingRewards",
      "outputs": [
        {
          "internalType": "uint256",
          "name": "",
          "type": "uint256"
        }
      ],
      "stateMutability": "view",
      "type": "function"
    },
    {
      "inputs": [
        {
          "internalType": "uint256",
          "name": "_vid",
          "type": "uint256"
        },
        {
          "internalType": "address",
          "name": "_strat",
          "type": "address"
        }
      ],
      "name": "proposeStratUpgrade",
      "outputs": [],
      "stateMutability": "nonpayable",
      "type": "function"
    },
    {
      "inputs": [],
      "name": "renounceOwnership",
      "outputs": [],
      "stateMutability": "nonpayable",
      "type": "function"
    },
    {
      "inputs": [
        {
          "internalType": "uint256",
          "name": "_vid",
          "type": "uint256"
        }
      ],
      "name": "retireVault",
      "outputs": [],
      "stateMutability": "nonpayable",
      "type": "function"
    },
    {
      "inputs": [],
      "name": "startBlock",
      "outputs": [
        {
          "internalType": "uint256",
          "name": "",
          "type": "uint256"
        }
      ],
      "stateMutability": "view",
      "type": "function"
    },
    {
      "inputs": [
        {
          "internalType": "uint256",
          "name": "_vid",
          "type": "uint256"
        },
        {
          "internalType": "address",
          "name": "_strat",
          "type": "address"
        }
      ],
      "name": "stratUpgrade",
      "outputs": [],
      "stateMutability": "nonpayable",
      "type": "function"
    },
    {
      "inputs": [],
      "name": "totalAllocPoint",
      "outputs": [
        {
          "internalType": "uint256",
          "name": "",
          "type": "uint256"
        }
      ],
      "stateMutability": "view",
      "type": "function"
    },
    {
      "inputs": [
        {
          "internalType": "address",
          "name": "newOwner",
          "type": "address"
        }
      ],
      "name": "transferOwnership",
      "outputs": [],
      "stateMutability": "nonpayable",
      "type": "function"
    },
    {
      "inputs": [
        {
          "internalType": "uint256",
          "name": "_vid",
          "type": "uint256"
        }
      ],
      "name": "unpauseVault",
      "outputs": [],
      "stateMutability": "nonpayable",
      "type": "function"
    },
    {
      "inputs": [
        {
          "internalType": "uint256",
          "name": "_vid",
          "type": "uint256"
        },
        {
          "internalType": "address",
          "name": "_user",
          "type": "address"
        }
      ],
      "name": "userDeposit",
      "outputs": [
        {
          "internalType": "uint256",
          "name": "",
          "type": "uint256"
        }
      ],
      "stateMutability": "view",
      "type": "function"
    },
    {
      "inputs": [
        {
          "internalType": "uint256",
          "name": "",
          "type": "uint256"
        },
        {
          "internalType": "address",
          "name": "",
          "type": "address"
        }
      ],
      "name": "userInfo",
      "outputs": [
        {
          "internalType": "uint256",
          "name": "deposit",
          "type": "uint256"
        },
        {
          "internalType": "uint256",
          "name": "shares",
          "type": "uint256"
        },
        {
          "internalType": "uint256",
          "name": "rewardDebt",
          "type": "uint256"
        }
      ],
      "stateMutability": "view",
      "type": "function"
    },
    {
      "inputs": [
        {
          "internalType": "uint256",
          "name": "",
          "type": "uint256"
        }
      ],
      "name": "vaultInfo",
      "outputs": [
        {
          "internalType": "contract IERC20",
          "name": "depositToken",
          "type": "address"
        },
        {
          "internalType": "contract IERC20",
          "name": "wantToken",
          "type": "address"
        },
        {
          "internalType": "address",
          "name": "strat",
          "type": "address"
        },
        {
          "internalType": "address",
          "name": "proposedStrat",
          "type": "address"
        },
        {
          "internalType": "uint256",
          "name": "allocPoint",
          "type": "uint256"
        },
        {
          "internalType": "uint256",
          "name": "lastRewardBlock",
          "type": "uint256"
        },
        {
          "internalType": "uint256",
          "name": "accBallePerShare",
          "type": "uint256"
        },
        {
          "internalType": "uint256",
          "name": "proposedTime",
          "type": "uint256"
        },
        {
          "internalType": "bool",
          "name": "rewardsActive",
          "type": "bool"
        },
        {
          "internalType": "bool",
          "name": "paused",
          "type": "bool"
        },
        {
          "internalType": "bool",
          "name": "retired",
          "type": "bool"
        }
      ],
      "stateMutability": "view",
      "type": "function"
    },
    {
      "inputs": [],
      "name": "vaultLength",
      "outputs": [
        {
          "internalType": "uint256",
          "name": "",
          "type": "uint256"
        }
      ],
      "stateMutability": "view",
      "type": "function"
    },
    {
      "inputs": [
        {
          "internalType": "uint256",
          "name": "_vid",
          "type": "uint256"
        },
        {
          "internalType": "uint256",
          "name": "_amount",
          "type": "uint256"
        }
      ],
      "name": "withdraw",
      "outputs": [],
      "stateMutability": "nonpayable",
      "type": "function"
    },
    {
      "inputs": [
        {
          "internalType": "uint256",
          "name": "_vid",
          "type": "uint256"
        }
      ],
      "name": "withdrawAll",
      "outputs": [],
      "stateMutability": "nonpayable",
      "type": "function"
    }
  ],
  "transactionHash": "0x211aea7330796f50332cdc7d1cff25170e4238629c3e56ef7d0ca0bcd797b3ea",
  "args": [
    "0x43fC744c34b211cD57c6f0d1ddB4EA8BC504541b",
    "228310502283105",
    "24000000000000000000000",
    86400000
  ],
  "solcInputHash": "5fa0f86a01bd022976092299683400c9",
  "bytecode": "0x610100604052600060045560006005553480156200001c57600080fd5b5060405162004163380380620041638339810160408190526200003f91620000a9565b600080546001600160a01b031916339081178255604051909182917f8be0079c531659141344cd1fd0a4f28419497f9722a3daafe3b4186f6b6457e0908290a3506001805560609390931b6001600160601b03191660805260a09190915260c05260e052620000f4565b60008060008060808587031215620000bf578384fd5b84516001600160a01b0381168114620000d6578485fd5b60208601516040870151606090970151919890975090945092505050565b60805160601c60a05160c05160e051613fd0620001936000396000818161053701528181611813015261242801526000818161032d01526107060152600081816102c4015281816106e5015281816120a601526134bf0152600081816104fd01528181611def015281816135670152818161361b015281816136990152818161374b015281816137f30152818161389c01526139450152613fd06000f3fe608060405234801561001057600080fd5b50600436106102105760003560e01c8063715018a611610125578063c6d758cb116100ad578063e2bbb1581161007c578063e2bbb1581461051f578063e2d1e75c14610532578063f2fde38b14610559578063f5aa4c021461056c578063f7f460c71461057f57610210565b8063c6d758cb146104bf578063c6f678bd146104d2578063d18df53c146104e5578063ded0da10146104f857610210565b8063958e2d31116100f4578063958e2d311461046057806396c43a8514610473578063acd3d32d14610486578063bc0838fc14610499578063c150ad1a146104ac57610210565b8063715018a6146103625780638da5cb5b1461036a578063929060d81461038f57806393f1a40b1461040b57610210565b80633f6770f8116101a85780634b30b422116101775780634b30b422146102ef5780634f6300a2146103025780635312ea8e146103155780635ebac9b5146103285780636ae2ec961461034f57610210565b80633f6770f814610299578063441a3e70146102ac57806344bd5b4f146102bf57806348cd4cb1146102e657610210565b80631ab69eb2116101e45780631ab69eb2146102625780632b5b0a97146102755780632b68772c1461027e578063360f07301461028657610210565b80629ddce51461021557806304da17761461022a578063083c63231461025057806317caf6f114610259575b600080fd5b610228610223366004613e26565b610592565b005b61023d610238366004613df7565b6107b5565b6040519081526020015b60405180910390f35b61023d60035481565b61023d60045481565b610228610270366004613dc7565b6107df565b61023d60055481565b60065461023d565b610228610294366004613dc7565b610985565b6102286102a7366004613dc7565b610add565b6102286102ba366004613e26565b610c9d565b61023d7f000000000000000000000000000000000000000000000000000000000000000081565b61023d60025481565b6102286102fd366004613dc7565b610d44565b61023d610310366004613df7565b610eef565b610228610323366004613dc7565b61107f565b61023d7f000000000000000000000000000000000000000000000000000000000000000081565b61022861035d366004613df7565b611401565b610228611550565b6000546001600160a01b03165b6040516001600160a01b039091168152602001610247565b6103a261039d366004613dc7565b6115e2565b604080516001600160a01b039c8d1681529a8c1660208c0152988b16988a0198909852989095166060880152608087019390935260a086019190915260c085015260e0840152151561010083015291151561012082015290151561014082015261016001610247565b610445610419366004613df7565b600760209081526000928352604080842090915290825290208054600182015460029092015490919083565b60408051938452602084019290925290820152606001610247565b61022861046e366004613dc7565b611664565b610228610481366004613df7565b6116cf565b61023d610494366004613e26565b6119f3565b6102286104a7366004613e26565b611a5a565b6102286104ba366004613dc7565b611bfa565b6102286104cd366004613d7c565b611da5565b6102286104e0366004613dc7565b611e6f565b61023d6104f3366004613df7565b611f8b565b6103777f000000000000000000000000000000000000000000000000000000000000000081565b61022861052d366004613e26565b61213e565b61023d7f000000000000000000000000000000000000000000000000000000000000000081565b610228610567366004613cfa565b6121dc565b61022861057a366004613df7565b6122e4565b61022861058d366004613d32565b612608565b6000546001600160a01b031633146105df5760405162461bcd60e51b81526020600482018190526024820152600080516020613fa483398151915260448201526064015b60405180910390fd5b6006548290811061061b5760405162461bcd60e51b8152602060048201526006602482015265085d985d5b1d60d21b60448201526064016105d6565b60006006848154811061063e57634e487b7160e01b600052603260045260246000fd5b60009182526020909120600990910201600881015490915060ff161561068f5760405162461bcd60e51b815260206004820152600660248201526561637469766560d01b60448201526064016105d6565b600083116106cd5760405162461bcd60e51b815260206004820152600b60248201526a08585b1b1bd8dc1bda5b9d60aa1b60448201526064016105d6565b6106d5612a55565b60025461073b574360025561072a7f00000000000000000000000000000000000000000000000000000000000000007f0000000000000000000000000000000000000000000000000000000000000000613edb565b6002546107379190613ec3565b6003555b600454439061074b908590613ec3565b600490815582018490556005820181905560088201805460ff191660011790556000600683015560405185907fba13fd9b2f2ae67565b95a27e65b1e9ebf5b1d3be4d048c3327b5037f022816b906107a69087815260200190565b60405180910390a25050505050565b60008281526007602090815260408083206001600160a01b03851684529091529020545b92915050565b6000546001600160a01b031633146108275760405162461bcd60e51b81526020600482018190526024820152600080516020613fa483398151915260448201526064016105d6565b600654819081106108635760405162461bcd60e51b8152602060048201526006602482015265085d985d5b1d60d21b60448201526064016105d6565b60006006838154811061088657634e487b7160e01b600052603260045260246000fd5b906000526020600020906009020190508060080160019054906101000a900460ff166108de5760405162461bcd60e51b8152602060048201526007602482015266085c185d5cd95960ca1b60448201526064016105d6565b8060020160009054906101000a90046001600160a01b03166001600160a01b0316633f4ba83a6040518163ffffffff1660e01b8152600401600060405180830381600087803b15801561093057600080fd5b505af1158015610944573d6000803e3d6000fd5b50505060088201805461ff00191690555060405183907ff0e9a7ca64cb0a05f6f08c4e5889a1553af34e656e524ca3f7d7da67e5ae071390600090a2505050565b6000546001600160a01b031633146109cd5760405162461bcd60e51b81526020600482018190526024820152600080516020613fa483398151915260448201526064016105d6565b60065481908110610a095760405162461bcd60e51b8152602060048201526006602482015265085d985d5b1d60d21b60448201526064016105d6565b600060068381548110610a2c57634e487b7160e01b600052603260045260246000fd5b60009182526020909120600990910201600881015490915060ff16610a7d5760405162461bcd60e51b81526020600482015260076024820152662161637469766560c81b60448201526064016105d6565b610a85612a55565b8060040154600454610a979190613f1a565b6004908155600090820181905560088201805460ff1916905560405184917fb8b83da790f78135db4aec46ee97590874ea01f3cd58912bb00f308d072fda2691a2505050565b6000546001600160a01b03163314610b255760405162461bcd60e51b81526020600482018190526024820152600080516020613fa483398151915260448201526064016105d6565b60065481908110610b615760405162461bcd60e51b8152602060048201526006602482015265085d985d5b1d60d21b60448201526064016105d6565b600060068381548110610b8457634e487b7160e01b600052603260045260246000fd5b906000526020600020906009020190508060080160029054906101000a900460ff1615610bdd5760405162461bcd60e51b81526020600482015260076024820152662161637469766560c81b60448201526064016105d6565b8060020160009054906101000a90046001600160a01b03166001600160a01b031663a4874d776040518163ffffffff1660e01b8152600401600060405180830381600087803b158015610c2f57600080fd5b505af1158015610c43573d6000803e3d6000fd5b505050506008810180546201000062ff00001982161790915560ff1615610c6d57610c6d83610985565b60405183907f774f9a1333327bdc185469e0e44bfcf9df7f8fd96ab10acb8132ecc0b474c3cc90600090a2505050565b60026001541415610cf05760405162461bcd60e51b815260206004820152601f60248201527f5265656e7472616e637947756172643a207265656e7472616e742063616c6c0060448201526064016105d6565b600260015560065482908110610d315760405162461bcd60e51b8152602060048201526006602482015265085d985d5b1d60d21b60448201526064016105d6565b610d3b8383612a7c565b50506001805550565b6000546001600160a01b03163314610d8c5760405162461bcd60e51b81526020600482018190526024820152600080516020613fa483398151915260448201526064016105d6565b60065481908110610dc85760405162461bcd60e51b8152602060048201526006602482015265085d985d5b1d60d21b60448201526064016105d6565b600060068381548110610deb57634e487b7160e01b600052603260045260246000fd5b906000526020600020906009020190508060080160019054906101000a900460ff1615610e445760405162461bcd60e51b81526020600482015260076024820152662161637469766560c81b60448201526064016105d6565b8060020160009054906101000a90046001600160a01b03166001600160a01b0316634700d3056040518163ffffffff1660e01b8152600401600060405180830381600087803b158015610e9657600080fd5b505af1158015610eaa573d6000803e3d6000fd5b50505060088201805461ff0019166101001790555060405183907f24f9af3d65d1b908bfe521985a4182e283f3ecdd85f728ccd2f47b8e1a93df9890600090a2505050565b60008060068481548110610f1357634e487b7160e01b600052603260045260246000fd5b600091825260208083208784526007825260408085206001600160a01b03808a16875290845281862060026009909602909301948501548251632251caaf60e11b815292519597509295949216926344a3955e92600480840193829003018186803b158015610f8157600080fd5b505afa158015610f95573d6000803e3d6000fd5b505050506040513d601f19601f82011682018060405250810190610fb99190613ddf565b905060008360020160009054906101000a90046001600160a01b03166001600160a01b0316634adae0da6040518163ffffffff1660e01b815260040160206040518083038186803b15801561100d57600080fd5b505afa158015611021573d6000803e3d6000fd5b505050506040513d601f19601f820116820180604052508101906110459190613ddf565b9050816110595760009450505050506107d9565b8181846001015461106a9190613efb565b6110749190613edb565b979650505050505050565b600260015414156110d25760405162461bcd60e51b815260206004820152601f60248201527f5265656e7472616e637947756172643a207265656e7472616e742063616c6c0060448201526064016105d6565b6002600155600654819081106111135760405162461bcd60e51b8152602060048201526006602482015265085d985d5b1d60d21b60448201526064016105d6565b60006006838154811061113657634e487b7160e01b600052603260045260246000fd5b6000918252602080832086845260078252604080852033865283528085206009949094029091016002810154825163256d706d60e11b815292519196509394936001600160a01b031692634adae0da9260048082019391829003018186803b1580156111a157600080fd5b505afa1580156111b5573d6000803e3d6000fd5b505050506040513d601f19601f820116820180604052508101906111d99190613ddf565b905060008360020160009054906101000a90046001600160a01b03166001600160a01b03166344a3955e6040518163ffffffff1660e01b815260040160206040518083038186803b15801561122d57600080fd5b505afa158015611241573d6000803e3d6000fd5b505050506040513d601f19601f820116820180604052508101906112659190613ddf565b905060008183856001015461127a9190613efb565b6112849190613edb565b600060018601819055808655600280870191909155860154604051632e1a7d4d60e01b8152600481018390529192506001600160a01b031690632e1a7d4d90602401606060405180830381600087803b1580156112e057600080fd5b505af11580156112f4573d6000803e3d6000fd5b505050506040513d601f19601f820116820180604052508101906113189190613e47565b505085546040516370a0823160e01b8152306004820152600092506001600160a01b03909116906370a082319060240160206040518083038186803b15801561136057600080fd5b505afa158015611374573d6000803e3d6000fd5b505050506040513d601f19601f820116820180604052508101906113989190613ddf565b9050818110156113a6578091505b85546113bc906001600160a01b03163384612f92565b604051828152889033907fbb757047c2b5f3974fe26b7c10f732e7bce710b0952a71082702781e62ae05959060200160405180910390a3505060018055505050505050565b6000546001600160a01b031633146114495760405162461bcd60e51b81526020600482018190526024820152600080516020613fa483398151915260448201526064016105d6565b600654829081106114855760405162461bcd60e51b8152602060048201526006602482015265085d985d5b1d60d21b60448201526064016105d6565b6001600160a01b0382166114c45760405162461bcd60e51b8152602060048201526006602482015265085cdd1c985d60d21b60448201526064016105d6565b6000600684815481106114e757634e487b7160e01b600052603260045260246000fd5b600091825260208220600991909102016003810180546001600160a01b0319166001600160a01b0387169081179091554260078301556040519193509186917f84c802fdb113f88f1d3f9a8adf18b4edf0d87bf657e0faff1727da587a1e7a2d9190a350505050565b6000546001600160a01b031633146115985760405162461bcd60e51b81526020600482018190526024820152600080516020613fa483398151915260448201526064016105d6565b600080546040516001600160a01b03909116907f8be0079c531659141344cd1fd0a4f28419497f9722a3daafe3b4186f6b6457e0908390a3600080546001600160a01b0319169055565b600681815481106115f257600080fd5b60009182526020909120600990910201805460018201546002830154600384015460048501546005860154600687015460078801546008909801546001600160a01b039788169950958716979487169690931694919390929160ff80821691610100810482169162010000909104168b565b600260015414156116b75760405162461bcd60e51b815260206004820152601f60248201527f5265656e7472616e637947756172643a207265656e7472616e742063616c6c0060448201526064016105d6565b60026001556116c881600019612a7c565b5060018055565b6000546001600160a01b031633146117175760405162461bcd60e51b81526020600482018190526024820152600080516020613fa483398151915260448201526064016105d6565b600654829081106117535760405162461bcd60e51b8152602060048201526006602482015265085d985d5b1d60d21b60448201526064016105d6565b6001600160a01b0382166117925760405162461bcd60e51b8152602060048201526006602482015265085cdd1c985d60d21b60448201526064016105d6565b6000600684815481106117b557634e487b7160e01b600052603260045260246000fd5b6000918252602090912060099091020160038101549091506001600160a01b038481169116146118105760405162461bcd60e51b8152602060048201526006602482015265085cdd1c985d60d21b60448201526064016105d6565b427f000000000000000000000000000000000000000000000000000000000000000082600701546118419190613ec3565b1061187a5760405162461bcd60e51b81526020600482015260096024820152682174696d656c6f636b60b81b60448201526064016105d6565b60028101546003820154604051631b2ce7f360e11b81526001600160a01b03918216600482015260009283928392911690633659cfe690602401606060405180830381600087803b1580156118ce57600080fd5b505af11580156118e2573d6000803e3d6000fd5b505050506040513d601f19601f820116820180604052508101906119069190613e47565b60038701546002880154604051633e08777960e11b81526001600160a01b0391821660048201526024810186905260448101859052606481018490529497509295509093501690637c10eef290608401600060405180830381600087803b15801561197057600080fd5b505af1158015611984573d6000803e3d6000fd5b505050506003840180546002860180546001600160a01b038084166001600160a01b0319928316179092559091169091556000600786018190556040519188169189917f5acd14efdb683461c0f6f0ee16d6ef556b79d04db209b525d80312d4436c2a5691a350505050505050565b600082821015611a05575060006107d9565b600254821015611a17575060006107d9565b600354831115611a29575060006107d9565b600254831015611a395760025492505b600354821115611a495760035491505b611a538383613f1a565b9392505050565b6000546001600160a01b03163314611aa25760405162461bcd60e51b81526020600482018190526024820152600080516020613fa483398151915260448201526064016105d6565b60065482908110611ade5760405162461bcd60e51b8152602060048201526006602482015265085d985d5b1d60d21b60448201526064016105d6565b600060068481548110611b0157634e487b7160e01b600052603260045260246000fd5b60009182526020909120600990910201600881015490915060ff16611b525760405162461bcd60e51b81526020600482015260076024820152662161637469766560c81b60448201526064016105d6565b60008311611b905760405162461bcd60e51b815260206004820152600b60248201526a08585b1b1bd8dc1bda5b9d60aa1b60448201526064016105d6565b611b98612a55565b828160040154600454611bab9190613f1a565b611bb59190613ec3565b6004908155810183905560405183815284907f54ca8df74b9602d422d5c5e11eece496fd3d57504eba7dec5915ef0171c896169060200160405180910390a250505050565b6000546001600160a01b03163314611c425760405162461bcd60e51b81526020600482018190526024820152600080516020613fa483398151915260448201526064016105d6565b60065481908110611c7e5760405162461bcd60e51b8152602060048201526006602482015265085d985d5b1d60d21b60448201526064016105d6565b600060068381548110611ca157634e487b7160e01b600052603260045260246000fd5b906000526020600020906009020190508060080160019054906101000a900460ff1615611cfa5760405162461bcd60e51b81526020600482015260076024820152662161637469766560c81b60448201526064016105d6565b8060020160009054906101000a90046001600160a01b03166001600160a01b0316638456cb596040518163ffffffff1660e01b8152600401600060405180830381600087803b158015611d4c57600080fd5b505af1158015611d60573d6000803e3d6000fd5b50505060088201805461ff0019166101001790555060405183907f85f2f9c18c35f0b299bc3787e4166b64d3d8ae0e48d288bf7bcc608130d6b9bf90600090a2505050565b6000546001600160a01b03163314611ded5760405162461bcd60e51b81526020600482018190526024820152600080516020613fa483398151915260448201526064016105d6565b7f00000000000000000000000000000000000000000000000000000000000000006001600160a01b0316826001600160a01b03161415611e575760405162461bcd60e51b8152602060048201526005602482015264217361666560d81b60448201526064016105d6565b611e6b6001600160a01b0383163383612f92565b5050565b60026001541415611ec25760405162461bcd60e51b815260206004820152601f60248201527f5265656e7472616e637947756172643a207265656e7472616e742063616c6c0060448201526064016105d6565b6002600181905550600060068281548110611eed57634e487b7160e01b600052603260045260246000fd5b6000918252602090912060099091020180546040516370a0823160e01b8152336004820152919250611f839184916001600160a01b0316906370a082319060240160206040518083038186803b158015611f4657600080fd5b505afa158015611f5a573d6000803e3d6000fd5b505050506040513d601f19601f82011682018060405250810190611f7e9190613ddf565b613027565b505060018055565b60008060068481548110611faf57634e487b7160e01b600052603260045260246000fd5b600091825260208083208784526007825260408085206001600160a01b038981168752908452818620600995909502909201600681015460028201548351632251caaf60e11b815293519298509596909590949316926344a3955e9260048082019391829003018186803b15801561202657600080fd5b505afa15801561203a573d6000803e3d6000fd5b505050506040513d601f19601f8201168201806040525081019061205e9190613ddf565b600885015490915060ff1680156120785750836005015443115b801561208357508015155b1561210f5760006120988560050154436119f3565b9050600060045486600401547f0000000000000000000000000000000000000000000000000000000000000000846120d09190613efb565b6120da9190613efb565b6120e49190613edb565b9050826120f68264e8d4a51000613efb565b6121009190613edb565b61210a9085613ec3565b935050505b826002015464e8d4a5100083856001015461212a9190613efb565b6121349190613edb565b6110749190613f1a565b600260015414156121915760405162461bcd60e51b815260206004820152601f60248201527f5265656e7472616e637947756172643a207265656e7472616e742063616c6c0060448201526064016105d6565b6002600155600654829081106121d25760405162461bcd60e51b8152602060048201526006602482015265085d985d5b1d60d21b60448201526064016105d6565b610d3b8383613027565b6000546001600160a01b031633146122245760405162461bcd60e51b81526020600482018190526024820152600080516020613fa483398151915260448201526064016105d6565b6001600160a01b0381166122895760405162461bcd60e51b815260206004820152602660248201527f4f776e61626c653a206e6577206f776e657220697320746865207a65726f206160448201526564647265737360d01b60648201526084016105d6565b600080546040516001600160a01b03808516939216917f8be0079c531659141344cd1fd0a4f28419497f9722a3daafe3b4186f6b6457e091a3600080546001600160a01b0319166001600160a01b0392909216919091179055565b6000546001600160a01b0316331461232c5760405162461bcd60e51b81526020600482018190526024820152600080516020613fa483398151915260448201526064016105d6565b600654829081106123685760405162461bcd60e51b8152602060048201526006602482015265085d985d5b1d60d21b60448201526064016105d6565b6001600160a01b0382166123a75760405162461bcd60e51b8152602060048201526006602482015265085cdd1c985d60d21b60448201526064016105d6565b6000600684815481106123ca57634e487b7160e01b600052603260045260246000fd5b6000918252602090912060099091020160038101549091506001600160a01b038481169116146124255760405162461bcd60e51b8152602060048201526006602482015265085cdd1c985d60d21b60448201526064016105d6565b427f000000000000000000000000000000000000000000000000000000000000000082600701546124569190613ec3565b1061248f5760405162461bcd60e51b81526020600482015260096024820152682174696d656c6f636b60b81b60448201526064016105d6565b6002810154600382015460405163bdccc82360e01b81526001600160a01b0391821660048201526000928392839291169063bdccc82390602401606060405180830381600087803b1580156124e357600080fd5b505af11580156124f7573d6000803e3d6000fd5b505050506040513d601f19601f8201168201806040525081019061251b9190613e47565b60038701546002880154604051633e08777960e11b81526001600160a01b0391821660048201526024810186905260448101859052606481018490529497509295509093501690637c10eef290608401600060405180830381600087803b15801561258557600080fd5b505af1158015612599573d6000803e3d6000fd5b505050506003840180546002860180546001600160a01b038084166001600160a01b0319928316179092559091169091556000600786018190556040519188169189917fd3a6b724c4b94749d3d665ca9f165484adf489c4c0bb13a606b8085cae26cf7591a350505050505050565b6000546001600160a01b031633146126505760405162461bcd60e51b81526020600482018190526024820152600080516020613fa483398151915260448201526064016105d6565b6001600160a01b03811661268f5760405162461bcd60e51b8152602060048201526006602482015265085cdd1c985d60d21b60448201526064016105d6565b806001600160a01b031663c89039c56040518163ffffffff1660e01b815260040160206040518083038186803b1580156126c857600080fd5b505afa1580156126dc573d6000803e3d6000fd5b505050506040513d601f19601f820116820180604052508101906127009190613d16565b6001600160a01b0316836001600160a01b0316146127505760405162461bcd60e51b815260206004820152600d60248201526c10b232b837b9b4ba2a37b5b2b760991b60448201526064016105d6565b806001600160a01b031663d23e04806040518163ffffffff1660e01b815260040160206040518083038186803b15801561278957600080fd5b505afa15801561279d573d6000803e3d6000fd5b505050506040513d601f19601f820116820180604052508101906127c19190613d16565b6001600160a01b0316826001600160a01b03161461280e5760405162461bcd60e51b815260206004820152600a60248201526910bbb0b73a2a37b5b2b760b11b60448201526064016105d6565b60408051610160810182526001600160a01b039485168152928416602084019081529184169083019081526000606084018181526080850182815260a0860183815260c0870184815260e08801858152610100808a018781526101208b018881526101408c01898152600680546001810182559a529b5160099099027ff652222313e28459528d920b65115c16c04f3efc82aaedc97be59f3f377c0d3f810180549a8f166001600160a01b03199b8c161790559a517ff652222313e28459528d920b65115c16c04f3efc82aaedc97be59f3f377c0d408c018054918f16918b1691909117905598517ff652222313e28459528d920b65115c16c04f3efc82aaedc97be59f3f377c0d418b018054918e16918a1691909117905595517ff652222313e28459528d920b65115c16c04f3efc82aaedc97be59f3f377c0d428a01805491909c1697169690961790995591517ff652222313e28459528d920b65115c16c04f3efc82aaedc97be59f3f377c0d43870155517ff652222313e28459528d920b65115c16c04f3efc82aaedc97be59f3f377c0d44860155517ff652222313e28459528d920b65115c16c04f3efc82aaedc97be59f3f377c0d4585015594517ff652222313e28459528d920b65115c16c04f3efc82aaedc97be59f3f377c0d4684015593517ff652222313e28459528d920b65115c16c04f3efc82aaedc97be59f3f377c0d479092018054915193511515620100000262ff00001994151590950261ff00199315159390931661ffff19909216919091179190911791909116919091179055565b60065460005b81811015611e6b57612a6c816133a5565b612a7581613f5d565b9050612a5b565b612a85826133a5565b600060068381548110612aa857634e487b7160e01b600052603260045260246000fd5b6000918252602080832086845260078252604080852033865283528085206009949094029091016002810154825163256d706d60e11b815292519196509394936001600160a01b031692634adae0da9260048082019391829003018186803b158015612b1357600080fd5b505afa158015612b27573d6000803e3d6000fd5b505050506040513d601f19601f82011682018060405250810190612b4b9190613ddf565b905060008360020160009054906101000a90046001600160a01b03166001600160a01b03166344a3955e6040518163ffffffff1660e01b815260040160206040518083038186803b158015612b9f57600080fd5b505afa158015612bb3573d6000803e3d6000fd5b505050506040513d601f19601f82011682018060405250810190612bd79190613ddf565b905060008111612c185760405162461bcd60e51b815260206004820152600c60248201526b085cda185c995cd51bdd185b60a21b60448201526064016105d6565b6000836001015411612c5b5760405162461bcd60e51b815260206004820152600c60248201526b21757365722e73686172657360a01b60448201526064016105d6565b6000836002015464e8d4a5100086600601548660010154612c7c9190613efb565b612c869190613edb565b612c909190613f1a565b90508015612ca257612ca2338261354f565b600082848660010154612cb59190613efb565b612cbf9190613edb565b905080871115612ccd578096505b8615612f22576002860154604051632e1a7d4d60e01b815260048101899052600091829182916001600160a01b031690632e1a7d4d90602401606060405180830381600087803b158015612d2057600080fd5b505af1158015612d34573d6000803e3d6000fd5b505050506040513d601f19601f82011682018060405250810190612d589190613e47565b92509250925087600101548310612d79576000600189018190558855612dbe565b828860010154612d899190613f1a565b6001890155612d988387613f1a565b612da28389613f1a565b8960010154612db19190613efb565b612dbb9190613edb565b88555b88546040516370a0823160e01b81523060048201526000916001600160a01b0316906370a082319060240160206040518083038186803b158015612e0157600080fd5b505afa158015612e15573d6000803e3d6000fd5b505050506040513d601f19601f82011682018060405250810190612e399190613ddf565b905082811015612e47578092505b8954612e5d906001600160a01b03163385612f92565b60018a01548a546001600160a01b03908116911614612f1d5760018a01546040516370a0823160e01b81523060048201526000916001600160a01b0316906370a082319060240160206040518083038186803b158015612ebc57600080fd5b505afa158015612ed0573d6000803e3d6000fd5b505050506040513d601f19601f82011682018060405250810190612ef49190613ddf565b905082811015612f02578092505b60018b0154612f1b906001600160a01b03163385612f92565b505b505050505b64e8d4a5100086600601548660010154612f3c9190613efb565b612f469190613edb565b60028601556040805188815260208101849052899133917f02f25270a4d87bea75db541cdfe559334a275b4a233520ed6c0a2429667cca94910160405180910390a35050505050505050565b6040516001600160a01b03831660248201526044810182905261302290849063a9059cbb60e01b906064015b60408051601f198184030181529190526020810180517bffffffffffffffffffffffffffffffffffffffffffffffffffffffff167fffffffff00000000000000000000000000000000000000000000000000000000909316929092179091526139c7565b505050565b613030826133a5565b60006006838154811061305357634e487b7160e01b600052603260045260246000fd5b600091825260208083208684526007825260408085203386529092529083206001810154600990930290910193509190156130cd57816002015464e8d4a51000846006015484600101546130a79190613efb565b6130b19190613edb565b6130bb9190613f1a565b905080156130cd576130cd338261354f565b6000841180156130e757506008830154610100900460ff16155b80156130fe5750600883015462010000900460ff16155b1561333857825461311a906001600160a01b0316333087613a99565b60028301548354613138916001600160a01b03918216911686613ad1565b60006006868154811061315b57634e487b7160e01b600052603260045260246000fd5b600091825260209091206009909102016002015460405163b6b55f2560e01b8152600481018790526001600160a01b039091169063b6b55f2590602401602060405180830381600087803b1580156131b257600080fd5b505af11580156131c6573d6000803e3d6000fd5b505050506040513d601f19601f820116820180604052508101906131ea9190613ddf565b905060008460020160009054906101000a90046001600160a01b03166001600160a01b03166344a3955e6040518163ffffffff1660e01b815260040160206040518083038186803b15801561323e57600080fd5b505afa158015613252573d6000803e3d6000fd5b505050506040513d601f19601f820116820180604052508101906132769190613ddf565b905060008560020160009054906101000a90046001600160a01b03166001600160a01b0316634adae0da6040518163ffffffff1660e01b815260040160206040518083038186803b1580156132ca57600080fd5b505afa1580156132de573d6000803e3d6000fd5b505050506040513d601f19601f820116820180604052508101906133029190613ddf565b90508285600101546133149190613ec3565b600186018190558290613328908390613efb565b6133329190613edb565b85555050505b64e8d4a51000836006015483600101546133529190613efb565b61335c9190613edb565b60028301556040805185815260208101839052869133917f36af321ec8d3c75236829c5317affd40ddb308863a1236d2d277a4025cccee1e910160405180910390a35050505050565b6000600682815481106133c857634e487b7160e01b600052603260045260246000fd5b60009182526020909120600990910201600881015490915060ff166133ed575061354c565b806005015443116133fe575061354c565b600281015460408051632251caaf60e11b815290516000926001600160a01b0316916344a3955e916004808301926020929190829003018186803b15801561344557600080fd5b505afa158015613459573d6000803e3d6000fd5b505050506040513d601f19601f8201168201806040525081019061347d9190613ddf565b90508061349157504360059091015561354c565b60006134a18360050154436119f3565b9050600081116134b35750505061354c565b600060045484600401547f0000000000000000000000000000000000000000000000000000000000000000846134e99190613efb565b6134f39190613efb565b6134fd9190613edb565b90508060055461350d9190613ec3565b600555826135208264e8d4a51000613efb565b61352a9190613edb565b84600601546135399190613ec3565b6006850155505043600590920191909155505b50565b6040516370a0823160e01b81523060048201526000907f00000000000000000000000000000000000000000000000000000000000000006001600160a01b0316906370a082319060240160206040518083038186803b1580156135b157600080fd5b505afa1580156135c5573d6000803e3d6000fd5b505050506040513d601f19601f820116820180604052508101906135e99190613ddf565b90508082111561391f5760055415613876576005546040516340c10f1960e01b815230600482015260248101919091527f00000000000000000000000000000000000000000000000000000000000000006001600160a01b0316906340c10f1990604401600060405180830381600087803b15801561366757600080fd5b505af115801561367b573d6000803e3d6000fd5b5050600060055550506040516370a0823160e01b81523060048201527f00000000000000000000000000000000000000000000000000000000000000006001600160a01b0316906370a082319060240160206040518083038186803b1580156136e357600080fd5b505afa1580156136f7573d6000803e3d6000fd5b505050506040513d601f19601f8201168201806040525081019061371b9190613ddf565b9050808211156137cd5760405163a9059cbb60e01b81526001600160a01b038481166004830152602482018390527f0000000000000000000000000000000000000000000000000000000000000000169063a9059cbb90604401602060405180830381600087803b15801561378f57600080fd5b505af11580156137a3573d6000803e3d6000fd5b505050506040513d601f19601f820116820180604052508101906137c79190613da7565b50613871565b60405163a9059cbb60e01b81526001600160a01b038481166004830152602482018490527f0000000000000000000000000000000000000000000000000000000000000000169063a9059cbb90604401602060405180830381600087803b15801561383757600080fd5b505af115801561384b573d6000803e3d6000fd5b505050506040513d601f19601f8201168201806040525081019061386f9190613da7565b505b61391a565b60405163a9059cbb60e01b81526001600160a01b038481166004830152602482018390527f0000000000000000000000000000000000000000000000000000000000000000169063a9059cbb90604401602060405180830381600087803b1580156138e057600080fd5b505af11580156138f4573d6000803e3d6000fd5b505050506040513d601f19601f820116820180604052508101906139189190613da7565b505b613022565b60405163a9059cbb60e01b81526001600160a01b038481166004830152602482018490527f0000000000000000000000000000000000000000000000000000000000000000169063a9059cbb90604401602060405180830381600087803b15801561398957600080fd5b505af115801561399d573d6000803e3d6000fd5b505050506040513d601f19601f820116820180604052508101906139c19190613da7565b50505050565b6000613a1c826040518060400160405280602081526020017f5361666545524332303a206c6f772d6c6576656c2063616c6c206661696c6564815250856001600160a01b0316613b929092919063ffffffff16565b8051909150156130225780806020019051810190613a3a9190613da7565b6130225760405162461bcd60e51b815260206004820152602a60248201527f5361666545524332303a204552433230206f7065726174696f6e20646964206e6044820152691bdd081cdd58d8d9595960b21b60648201526084016105d6565b6040516001600160a01b03808516602483015283166044820152606481018290526139c19085906323b872dd60e01b90608401612fbe565b604051636eb1769f60e11b81523060048201526001600160a01b038381166024830152600091839186169063dd62ed3e9060440160206040518083038186803b158015613b1d57600080fd5b505afa158015613b31573d6000803e3d6000fd5b505050506040513d601f19601f82011682018060405250810190613b559190613ddf565b613b5f9190613ec3565b6040516001600160a01b0385166024820152604481018290529091506139c190859063095ea7b360e01b90606401612fbe565b6060613ba18484600085613ba9565b949350505050565b606082471015613c0a5760405162461bcd60e51b815260206004820152602660248201527f416464726573733a20696e73756666696369656e742062616c616e636520666f6044820152651c8818d85b1b60d21b60648201526084016105d6565b843b613c585760405162461bcd60e51b815260206004820152601d60248201527f416464726573733a2063616c6c20746f206e6f6e2d636f6e747261637400000060448201526064016105d6565b600080866001600160a01b03168587604051613c749190613e74565b60006040518083038185875af1925050503d8060008114613cb1576040519150601f19603f3d011682016040523d82523d6000602084013e613cb6565b606091505b509150915061107482828660608315613cd0575081611a53565b825115613ce05782518084602001fd5b8160405162461bcd60e51b81526004016105d69190613e90565b600060208284031215613d0b578081fd5b8135611a5381613f8e565b600060208284031215613d27578081fd5b8151611a5381613f8e565b600080600060608486031215613d46578182fd5b8335613d5181613f8e565b92506020840135613d6181613f8e565b91506040840135613d7181613f8e565b809150509250925092565b60008060408385031215613d8e578182fd5b8235613d9981613f8e565b946020939093013593505050565b600060208284031215613db8578081fd5b81518015158114611a53578182fd5b600060208284031215613dd8578081fd5b5035919050565b600060208284031215613df0578081fd5b5051919050565b60008060408385031215613e09578182fd5b823591506020830135613e1b81613f8e565b809150509250929050565b60008060408385031215613e38578182fd5b50508035926020909101359150565b600080600060608486031215613e5b578283fd5b8351925060208401519150604084015190509250925092565b60008251613e86818460208701613f31565b9190910192915050565b6000602082528251806020840152613eaf816040850160208701613f31565b601f01601f19169190910160400192915050565b60008219821115613ed657613ed6613f78565b500190565b600082613ef657634e487b7160e01b81526012600452602481fd5b500490565b6000816000190483118215151615613f1557613f15613f78565b500290565b600082821015613f2c57613f2c613f78565b500390565b60005b83811015613f4c578181015183820152602001613f34565b838111156139c15750506000910152565b6000600019821415613f7157613f71613f78565b5060010190565b634e487b7160e01b600052601160045260246000fd5b6001600160a01b038116811461354c57600080fdfe4f776e61626c653a2063616c6c6572206973206e6f7420746865206f776e6572a164736f6c6343000803000a",
  "devdoc": {
    "details": "Implementation of the Master of BALLE. This contract will take care of all rewards calculations and distribution of BALLE tokens in vaults. It's ownable and the owner is the only who can manage the active vaults and it's parameters for rewards distribution. The ownership will be transferred to the Governance GNOSIS Safe.",
    "kind": "dev",
    "methods": {
      "activateVaultRewards(uint256,uint256)": {
        "details": "Function to activate vault rewards. Can only be called by the owner."
      },
      "addVault(address,address,address)": {
        "details": "Function to add a new vault configuration. Can only be called by the owner."
      },
      "deactivateVaultRewards(uint256)": {
        "details": "Function to deactivate vault rewards. Can only be called by the owner."
      },
      "deposit(uint256,uint256)": {
        "details": "Function that deposits user tokens."
      },
      "depositAll(uint256)": {
        "details": "Function that deposits all user tokens balance."
      },
      "depositTokens(uint256,address)": {
        "details": "View function to see user's deposit tokens on frontend."
      },
      "emergencyStratUpgrade(uint256,address)": {
        "details": "It switches the active strat for the strat candidate. After upgrading, the candidate implementation is set to the 0x0 address, and proposedTime to 0. Emergency function, used only when not a regular upgrade can be performed."
      },
      "emergencyWithdraw(uint256)": {
        "details": "Function that withdraws without caring about rewards. EMERGENCY ONLY."
      },
      "getBlockMultiplier(uint256,uint256)": {
        "details": "View function to calculate the reward multiplier over the given _from to _to block."
      },
      "inCaseTokensGetStuck(address,uint256)": {
        "details": "Function to use from Governance GNOSIS Safe only in case tokens get stuck. EMERGENCY ONLY."
      },
      "modifyVaultRewards(uint256,uint256)": {
        "details": "Function to modify vault rewards. Can only be called by the owner."
      },
      "owner()": {
        "details": "Returns the address of the current owner."
      },
      "panicVault(uint256)": {
        "details": "Function to panic vault strategy. Can only be called by the owner."
      },
      "pauseVault(uint256)": {
        "details": "Function to pause vault strategy. Can only be called by the owner."
      },
      "pendingRewards(uint256,address)": {
        "details": "View function to see pending BALLE rewards on frontend."
      },
      "proposeStratUpgrade(uint256,address)": {
        "details": "Function to propose a strategy upgrade. Can only be called by the owner."
      },
      "renounceOwnership()": {
        "details": "Leaves the contract without owner. It will not be possible to call `onlyOwner` functions anymore. Can only be called by the current owner. NOTE: Renouncing ownership will leave the contract without an owner, thereby removing any functionality that is only available to the owner."
      },
      "retireVault(uint256)": {
        "details": "Function to retire vault strategy. Can only be called by the owner."
      },
      "stratUpgrade(uint256,address)": {
        "details": "It switches the active strat for the strat candidate. After upgrading, the candidate implementation is set to the 0x0 address, and proposedTime to 0."
      },
      "transferOwnership(address)": {
        "details": "Transfers ownership of the contract to a new account (`newOwner`). Can only be called by the current owner."
      },
      "unpauseVault(uint256)": {
        "details": "Function to unpause vault strategy. Can only be called by the owner."
      },
      "userDeposit(uint256,address)": {
        "details": "View function to see user's deposited tokens on frontend. This is useful to show the earnings: depositTokens() - userDeposit()"
      },
      "vaultLength()": {
        "details": "View function to get the number of vaults configured."
      },
      "withdraw(uint256,uint256)": {
        "details": "Function that withdraws user tokens."
      },
      "withdrawAll(uint256)": {
        "details": "Function that withdraws all user tokens balance."
      }
    },
    "version": 1
  },
  "userdoc": {
    "kind": "user",
    "methods": {},
    "version": 1
  },
  "storageLayout": {
    "storage": [
      {
        "astId": 7,
        "contract": "contracts/vaults/BalleMaster.sol:BalleMaster",
        "label": "_owner",
        "offset": 0,
        "slot": "0",
        "type": "t_address"
      },
      {
        "astId": 120,
        "contract": "contracts/vaults/BalleMaster.sol:BalleMaster",
        "label": "_status",
        "offset": 0,
        "slot": "1",
        "type": "t_uint256"
      },
      {
        "astId": 2729,
        "contract": "contracts/vaults/BalleMaster.sol:BalleMaster",
        "label": "startBlock",
        "offset": 0,
        "slot": "2",
        "type": "t_uint256"
      },
      {
        "astId": 2731,
        "contract": "contracts/vaults/BalleMaster.sol:BalleMaster",
        "label": "endBlock",
        "offset": 0,
        "slot": "3",
        "type": "t_uint256"
      },
      {
        "astId": 2734,
        "contract": "contracts/vaults/BalleMaster.sol:BalleMaster",
        "label": "totalAllocPoint",
        "offset": 0,
        "slot": "4",
        "type": "t_uint256"
      },
      {
        "astId": 2737,
        "contract": "contracts/vaults/BalleMaster.sol:BalleMaster",
        "label": "balleToMint",
        "offset": 0,
        "slot": "5",
        "type": "t_uint256"
      },
      {
        "astId": 2743,
        "contract": "contracts/vaults/BalleMaster.sol:BalleMaster",
        "label": "vaultInfo",
        "offset": 0,
        "slot": "6",
        "type": "t_array(t_struct(VaultInfo)2713_storage)dyn_storage"
      },
      {
        "astId": 2750,
        "contract": "contracts/vaults/BalleMaster.sol:BalleMaster",
        "label": "userInfo",
        "offset": 0,
        "slot": "7",
        "type": "t_mapping(t_uint256,t_mapping(t_address,t_struct(UserInfo)2720_storage))"
      }
    ],
    "types": {
      "t_address": {
        "encoding": "inplace",
        "label": "address",
        "numberOfBytes": "20"
      },
      "t_array(t_struct(VaultInfo)2713_storage)dyn_storage": {
        "base": "t_struct(VaultInfo)2713_storage",
        "encoding": "dynamic_array",
        "label": "struct BalleMaster.VaultInfo[]",
        "numberOfBytes": "32"
      },
      "t_bool": {
        "encoding": "inplace",
        "label": "bool",
        "numberOfBytes": "1"
      },
      "t_contract(IERC20)728": {
        "encoding": "inplace",
        "label": "contract IERC20",
        "numberOfBytes": "20"
      },
      "t_mapping(t_address,t_struct(UserInfo)2720_storage)": {
        "encoding": "mapping",
        "key": "t_address",
        "label": "mapping(address => struct BalleMaster.UserInfo)",
        "numberOfBytes": "32",
        "value": "t_struct(UserInfo)2720_storage"
      },
      "t_mapping(t_uint256,t_mapping(t_address,t_struct(UserInfo)2720_storage))": {
        "encoding": "mapping",
        "key": "t_uint256",
        "label": "mapping(uint256 => mapping(address => struct BalleMaster.UserInfo))",
        "numberOfBytes": "32",
        "value": "t_mapping(t_address,t_struct(UserInfo)2720_storage)"
      },
      "t_struct(UserInfo)2720_storage": {
        "encoding": "inplace",
        "label": "struct BalleMaster.UserInfo",
        "members": [
          {
            "astId": 2715,
            "contract": "contracts/vaults/BalleMaster.sol:BalleMaster",
            "label": "deposit",
            "offset": 0,
            "slot": "0",
            "type": "t_uint256"
          },
          {
            "astId": 2717,
            "contract": "contracts/vaults/BalleMaster.sol:BalleMaster",
            "label": "shares",
            "offset": 0,
            "slot": "1",
            "type": "t_uint256"
          },
          {
            "astId": 2719,
            "contract": "contracts/vaults/BalleMaster.sol:BalleMaster",
            "label": "rewardDebt",
            "offset": 0,
            "slot": "2",
            "type": "t_uint256"
          }
        ],
        "numberOfBytes": "96"
      },
      "t_struct(VaultInfo)2713_storage": {
        "encoding": "inplace",
        "label": "struct BalleMaster.VaultInfo",
        "members": [
          {
            "astId": 2691,
            "contract": "contracts/vaults/BalleMaster.sol:BalleMaster",
            "label": "depositToken",
            "offset": 0,
            "slot": "0",
            "type": "t_contract(IERC20)728"
          },
          {
            "astId": 2694,
            "contract": "contracts/vaults/BalleMaster.sol:BalleMaster",
            "label": "wantToken",
            "offset": 0,
            "slot": "1",
            "type": "t_contract(IERC20)728"
          },
          {
            "astId": 2696,
            "contract": "contracts/vaults/BalleMaster.sol:BalleMaster",
            "label": "strat",
            "offset": 0,
            "slot": "2",
            "type": "t_address"
          },
          {
            "astId": 2698,
            "contract": "contracts/vaults/BalleMaster.sol:BalleMaster",
            "label": "proposedStrat",
            "offset": 0,
            "slot": "3",
            "type": "t_address"
          },
          {
            "astId": 2700,
            "contract": "contracts/vaults/BalleMaster.sol:BalleMaster",
            "label": "allocPoint",
            "offset": 0,
            "slot": "4",
            "type": "t_uint256"
          },
          {
            "astId": 2702,
            "contract": "contracts/vaults/BalleMaster.sol:BalleMaster",
            "label": "lastRewardBlock",
            "offset": 0,
            "slot": "5",
            "type": "t_uint256"
          },
          {
            "astId": 2704,
            "contract": "contracts/vaults/BalleMaster.sol:BalleMaster",
            "label": "accBallePerShare",
            "offset": 0,
            "slot": "6",
            "type": "t_uint256"
          },
          {
            "astId": 2706,
            "contract": "contracts/vaults/BalleMaster.sol:BalleMaster",
            "label": "proposedTime",
            "offset": 0,
            "slot": "7",
            "type": "t_uint256"
          },
          {
            "astId": 2708,
            "contract": "contracts/vaults/BalleMaster.sol:BalleMaster",
            "label": "rewardsActive",
            "offset": 0,
            "slot": "8",
            "type": "t_bool"
          },
          {
            "astId": 2710,
            "contract": "contracts/vaults/BalleMaster.sol:BalleMaster",
            "label": "paused",
            "offset": 1,
            "slot": "8",
            "type": "t_bool"
          },
          {
            "astId": 2712,
            "contract": "contracts/vaults/BalleMaster.sol:BalleMaster",
            "label": "retired",
            "offset": 2,
            "slot": "8",
            "type": "t_bool"
          }
        ],
        "numberOfBytes": "288"
      },
      "t_uint256": {
        "encoding": "inplace",
        "label": "uint256",
        "numberOfBytes": "32"
      }
    }
  }
}