{
  "address": "0xd44E28c1563cD40b40970d0Fe6375954Eca7baDa",
  "abi": [
    {
      "inputs": [
        {
          "internalType": "address",
          "name": "_stakedToken",
          "type": "address"
        },
        {
          "internalType": "address",
          "name": "_rewardToken",
          "type": "address"
        },
        {
          "internalType": "address",
          "name": "_rewardDistribution",
          "type": "address"
        }
      ],
      "stateMutability": "nonpayable",
      "type": "constructor"
    },
    {
      "anonymous": false,
      "inputs": [
        {
          "indexed": true,
          "internalType": "address",
          "name": "user",
          "type": "address"
        },
        {
          "indexed": false,
          "internalType": "uint256",
          "name": "amount",
          "type": "uint256"
        },
        {
          "indexed": false,
          "internalType": "uint256",
          "name": "reward",
          "type": "uint256"
        }
      ],
      "name": "Deposit",
      "type": "event"
    },
    {
      "anonymous": false,
      "inputs": [
        {
          "indexed": true,
          "internalType": "address",
          "name": "user",
          "type": "address"
        },
        {
          "indexed": false,
          "internalType": "uint256",
          "name": "amount",
          "type": "uint256"
        }
      ],
      "name": "EmergencyWithdraw",
      "type": "event"
    },
    {
      "anonymous": false,
      "inputs": [
        {
          "indexed": true,
          "internalType": "address",
          "name": "previousOwner",
          "type": "address"
        },
        {
          "indexed": true,
          "internalType": "address",
          "name": "newOwner",
          "type": "address"
        }
      ],
      "name": "OwnershipTransferred",
      "type": "event"
    },
    {
      "anonymous": false,
      "inputs": [],
      "name": "PoolFinish",
      "type": "event"
    },
    {
      "anonymous": false,
      "inputs": [
        {
          "indexed": false,
          "internalType": "uint256",
          "name": "amount",
          "type": "uint256"
        },
        {
          "indexed": false,
          "internalType": "uint256",
          "name": "numberOfBlocks",
          "type": "uint256"
        },
        {
          "indexed": false,
          "internalType": "uint256",
          "name": "multiplier",
          "type": "uint256"
        }
      ],
      "name": "RewardAdded",
      "type": "event"
    },
    {
      "anonymous": false,
      "inputs": [],
      "name": "RewardsStop",
      "type": "event"
    },
    {
      "anonymous": false,
      "inputs": [
        {
          "indexed": true,
          "internalType": "address",
          "name": "user",
          "type": "address"
        },
        {
          "indexed": false,
          "internalType": "uint256",
          "name": "amount",
          "type": "uint256"
        },
        {
          "indexed": false,
          "internalType": "uint256",
          "name": "reward",
          "type": "uint256"
        }
      ],
      "name": "Withdraw",
      "type": "event"
    },
    {
      "inputs": [],
      "name": "accTokenPerShare",
      "outputs": [
        {
          "internalType": "uint256",
          "name": "",
          "type": "uint256"
        }
      ],
      "stateMutability": "view",
      "type": "function"
    },
    {
      "inputs": [
        {
          "internalType": "uint256",
          "name": "_amount",
          "type": "uint256"
        },
        {
          "internalType": "uint256",
          "name": "_numberOfBlocks",
          "type": "uint256"
        },
        {
          "internalType": "uint256",
          "name": "_multiplier",
          "type": "uint256"
        },
        {
          "internalType": "uint256",
          "name": "_rewardStartBlock",
          "type": "uint256"
        }
      ],
      "name": "addReward",
      "outputs": [],
      "stateMutability": "nonpayable",
      "type": "function"
    },
    {
      "inputs": [
        {
          "internalType": "address",
          "name": "_user",
          "type": "address"
        }
      ],
      "name": "balanceOf",
      "outputs": [
        {
          "internalType": "uint256",
          "name": "",
          "type": "uint256"
        }
      ],
      "stateMutability": "view",
      "type": "function"
    },
    {
      "inputs": [],
      "name": "emergencyWithdraw",
      "outputs": [],
      "stateMutability": "nonpayable",
      "type": "function"
    },
    {
      "inputs": [],
      "name": "extraRewardMultiplier",
      "outputs": [
        {
          "internalType": "uint256",
          "name": "",
          "type": "uint256"
        }
      ],
      "stateMutability": "view",
      "type": "function"
    },
    {
      "inputs": [],
      "name": "finish",
      "outputs": [],
      "stateMutability": "nonpayable",
      "type": "function"
    },
    {
      "inputs": [],
      "name": "finished",
      "outputs": [
        {
          "internalType": "bool",
          "name": "",
          "type": "bool"
        }
      ],
      "stateMutability": "view",
      "type": "function"
    },
    {
      "inputs": [
        {
          "internalType": "uint256",
          "name": "_from",
          "type": "uint256"
        },
        {
          "internalType": "uint256",
          "name": "_to",
          "type": "uint256"
        }
      ],
      "name": "getBlockMultiplier",
      "outputs": [
        {
          "internalType": "uint256",
          "name": "",
          "type": "uint256"
        }
      ],
      "stateMutability": "view",
      "type": "function"
    },
    {
      "inputs": [
        {
          "internalType": "address",
          "name": "_token",
          "type": "address"
        },
        {
          "internalType": "uint256",
          "name": "_amount",
          "type": "uint256"
        },
        {
          "internalType": "address",
          "name": "_to",
          "type": "address"
        }
      ],
      "name": "inCaseTokensGetStuck",
      "outputs": [],
      "stateMutability": "nonpayable",
      "type": "function"
    },
    {
      "inputs": [],
      "name": "lastRewardBlock",
      "outputs": [
        {
          "internalType": "uint256",
          "name": "",
          "type": "uint256"
        }
      ],
      "stateMutability": "view",
      "type": "function"
    },
    {
      "inputs": [],
      "name": "owner",
      "outputs": [
        {
          "internalType": "address",
          "name": "",
          "type": "address"
        }
      ],
      "stateMutability": "view",
      "type": "function"
    },
    {
      "inputs": [
        {
          "internalType": "address",
          "name": "_user",
          "type": "address"
        }
      ],
      "name": "pendingReward",
      "outputs": [
        {
          "internalType": "uint256",
          "name": "",
          "type": "uint256"
        }
      ],
      "stateMutability": "view",
      "type": "function"
    },
    {
      "inputs": [],
      "name": "renounceOwnership",
      "outputs": [],
      "stateMutability": "nonpayable",
      "type": "function"
    },
    {
      "inputs": [],
      "name": "rewardDistribution",
      "outputs": [
        {
          "internalType": "address",
          "name": "",
          "type": "address"
        }
      ],
      "stateMutability": "view",
      "type": "function"
    },
    {
      "inputs": [],
      "name": "rewardEndBlock",
      "outputs": [
        {
          "internalType": "uint256",
          "name": "",
          "type": "uint256"
        }
      ],
      "stateMutability": "view",
      "type": "function"
    },
    {
      "inputs": [],
      "name": "rewardPerBlock",
      "outputs": [
        {
          "internalType": "uint256",
          "name": "",
          "type": "uint256"
        }
      ],
      "stateMutability": "view",
      "type": "function"
    },
    {
      "inputs": [],
      "name": "rewardStartBlock",
      "outputs": [
        {
          "internalType": "uint256",
          "name": "",
          "type": "uint256"
        }
      ],
      "stateMutability": "view",
      "type": "function"
    },
    {
      "inputs": [],
      "name": "rewardToken",
      "outputs": [
        {
          "internalType": "address",
          "name": "",
          "type": "address"
        }
      ],
      "stateMutability": "view",
      "type": "function"
    },
    {
      "inputs": [],
      "name": "rewarder",
      "outputs": [
        {
          "internalType": "address",
          "name": "",
          "type": "address"
        }
      ],
      "stateMutability": "view",
      "type": "function"
    },
    {
      "inputs": [],
      "name": "security",
      "outputs": [
        {
          "internalType": "address",
          "name": "",
          "type": "address"
        }
      ],
      "stateMutability": "view",
      "type": "function"
    },
    {
      "inputs": [
        {
          "internalType": "address",
          "name": "_rewardDistribution",
          "type": "address"
        }
      ],
      "name": "setRewardDistribution",
      "outputs": [],
      "stateMutability": "nonpayable",
      "type": "function"
    },
    {
      "inputs": [
        {
          "internalType": "address",
          "name": "_rewarder",
          "type": "address"
        }
      ],
      "name": "setRewarder",
      "outputs": [],
      "stateMutability": "nonpayable",
      "type": "function"
    },
    {
      "inputs": [
        {
          "internalType": "address",
          "name": "_security",
          "type": "address"
        }
      ],
      "name": "setSecurity",
      "outputs": [],
      "stateMutability": "nonpayable",
      "type": "function"
    },
    {
      "inputs": [
        {
          "internalType": "uint256",
          "name": "_amount",
          "type": "uint256"
        }
      ],
      "name": "stake",
      "outputs": [],
      "stateMutability": "nonpayable",
      "type": "function"
    },
    {
      "inputs": [],
      "name": "stakeAll",
      "outputs": [],
      "stateMutability": "nonpayable",
      "type": "function"
    },
    {
      "inputs": [],
      "name": "stakedToken",
      "outputs": [
        {
          "internalType": "address",
          "name": "",
          "type": "address"
        }
      ],
      "stateMutability": "view",
      "type": "function"
    },
    {
      "inputs": [],
      "name": "stopRewards",
      "outputs": [],
      "stateMutability": "nonpayable",
      "type": "function"
    },
    {
      "inputs": [],
      "name": "totalSupply",
      "outputs": [
        {
          "internalType": "uint256",
          "name": "",
          "type": "uint256"
        }
      ],
      "stateMutability": "view",
      "type": "function"
    },
    {
      "inputs": [
        {
          "internalType": "address",
          "name": "newOwner",
          "type": "address"
        }
      ],
      "name": "transferOwnership",
      "outputs": [],
      "stateMutability": "nonpayable",
      "type": "function"
    },
    {
      "inputs": [
        {
          "internalType": "address",
          "name": "",
          "type": "address"
        }
      ],
      "name": "userInfo",
      "outputs": [
        {
          "internalType": "uint256",
          "name": "amount",
          "type": "uint256"
        },
        {
          "internalType": "uint256",
          "name": "rewardDebt",
          "type": "uint256"
        }
      ],
      "stateMutability": "view",
      "type": "function"
    },
    {
      "inputs": [
        {
          "internalType": "uint256",
          "name": "_amount",
          "type": "uint256"
        }
      ],
      "name": "withdraw",
      "outputs": [],
      "stateMutability": "nonpayable",
      "type": "function"
    },
    {
      "inputs": [],
      "name": "withdrawAll",
      "outputs": [],
      "stateMutability": "nonpayable",
      "type": "function"
    }
  ],
  "transactionHash": "0xcfc58a306adbc1435b2d1d98438498642b25ea77176563b038ec5e61078b3e5f",
  "args": [
    "0x43fC744c34b211cD57c6f0d1ddB4EA8BC504541b",
    "0x43fC744c34b211cD57c6f0d1ddB4EA8BC504541b",
    "0xA0Da3C6f966431a32f3F1ad259892feb14D73B19"
  ],
  "solcInputHash": "92d582df6a87a1b97bb5f272e06bcf69",
  "bytecode": "0x60c06040523480156200001157600080fd5b5060405162001d8038038062001d808339810160408190526200003491620001c1565b600080546001600160a01b031916339081178255604051909182917f8be0079c531659141344cd1fd0a4f28419497f9722a3daafe3b4186f6b6457e0908290a350600180556001600160a01b038316620000c45760405162461bcd60e51b815260206004820152600c60248201526b10b9ba30b5b2b22a37b5b2b760a11b60448201526064015b60405180910390fd5b6001600160a01b0382166200010b5760405162461bcd60e51b815260206004820152600c60248201526b10b932bbb0b9322a37b5b2b760a11b6044820152606401620000bb565b6001600160a01b038116620001635760405162461bcd60e51b815260206004820152601360248201527f21726577617264446973747269627574696f6e000000000000000000000000006044820152606401620000bb565b606092831b6001600160601b03199081166080529190921b1660a052600380546001600160a01b0319166001600160a01b039092169190911790556200020a565b80516001600160a01b0381168114620001bc57600080fd5b919050565b600080600060608486031215620001d6578283fd5b620001e184620001a4565b9250620001f160208501620001a4565b91506200020160408501620001a4565b90509250925092565b60805160601c60a05160601c611b046200027c600039600081816104280152818161124001526114d20152600081816103b80152818161085701528181610a6f01528181610cb201528181610d6001528181610fc301528181611127015281816111f1015261154c0152611b046000f3fe608060405234801561001057600080fd5b50600436106101f05760003560e01c80638da5cb5b1161010f578063cc7a262e116100a2578063f2fde38b11610071578063f2fde38b146103fd578063f40f0f5214610410578063f7c618c114610423578063f88073dc1461044a576101f0565b8063cc7a262e146103b3578063d56b2889146103da578063db2e21bc146103e2578063dcc3e06e146103ea576101f0565b8063a9f8d181116100de578063a9f8d18114610371578063acd3d32d1461037a578063b2d2900f1461038d578063bef4876b14610396576101f0565b80638da5cb5b1461033c5780638dcb40611461034d5780638f66291514610355578063a694fc3a1461035e576101f0565b80635487991811610187578063715018a611610156578063715018a61461031b578063797008c614610323578063853828b61461032b5780638ae39cac14610333576101f0565b806354879918146102d9578063604ef2e5146102ec57806367206d40146102f557806370a0823114610308576101f0565b806329206a70116101c357806329206a701461028d5780632e1a7d4d146102a05780633a6462e4146102b357806352228054146102c6576101f0565b80630d68b761146101f5578063101114cf1461020a57806318160ddd1461023a5780631959a00214610251575b600080fd5b61020861020336600461184d565b610453565b005b60035461021d906001600160a01b031681565b6040516001600160a01b0390911681526020015b60405180910390f35b610243600b5481565b604051908152602001610231565b61027861025f36600461184d565b600c602052600090815260409020805460019091015482565b60408051928352602083019190915201610231565b61020861029b366004611913565b6104ce565b6102086102ae3660046118c2565b6106e9565b6102086102c136600461184d565b610721565b6102086102d436600461184d565b610793565b60045461021d906001600160a01b031681565b61024360075481565b610208610303366004611867565b610805565b61024361031636600461184d565b6108d8565b6102086108f7565b61020861096b565b6102086109f5565b61024360095481565b6000546001600160a01b031661021d565b610208610a2e565b61024360055481565b61020861036c3660046118c2565b610af6565b61024360085481565b6102436103883660046118f2565b610b27565b61024360065481565b600d546103a39060ff1681565b6040519015158152602001610231565b61021d7f000000000000000000000000000000000000000000000000000000000000000081565b610208610b89565b610208610c4e565b60025461021d906001600160a01b031681565b61020861040b36600461184d565b610dc6565b61024361041e36600461184d565b610eb0565b61021d7f000000000000000000000000000000000000000000000000000000000000000081565b610243600a5481565b6000546001600160a01b031633146104865760405162461bcd60e51b815260040161047d906119b5565b60405180910390fd5b6001600160a01b0381166104ac5760405162461bcd60e51b815260040161047d906119ea565b600380546001600160a01b0319166001600160a01b0392909216919091179055565b6003546001600160a01b03163314806104f157506000546001600160a01b031633145b6105335760405162461bcd60e51b815260206004820152601360248201527210b932bbb0b9322234b9ba3934b13aba34b7b760691b604482015260640161047d565b6000841161056d5760405162461bcd60e51b815260206004820152600760248201526608585b5bdd5b9d60ca1b604482015260640161047d565b6170808310156105b15760405162461bcd60e51b815260206004820152600f60248201526e216e756d6265724f66426c6f636b7360881b604482015260640161047d565b60648210156105f05760405162461bcd60e51b815260206004820152600b60248201526a10b6bab63a34b83634b2b960a91b604482015260640161047d565b600d5460ff16156106135760405162461bcd60e51b815260040161047d90611993565b61061b610fa0565b60075443106106515761062e8385611a5f565b60095560065461064c5780610646574360065561064c565b60068190555b610690565b6000436007546106619190611a9e565b90506000600954826106739190611a7f565b9050846106808288611a47565b61068a9190611a5f565b60095550505b61069a8343611a47565b600755600a82905560408051858152602081018590529081018390527f9795f222c951ae3e749f872dbe287f78d21fa52353e9175cb20ed3aa2b29b82b9060600160405180910390a150505050565b6002600154141561070c5760405162461bcd60e51b815260040161047d90611a10565b600260015561071a816110af565b5060018055565b6000546001600160a01b0316331461074b5760405162461bcd60e51b815260040161047d906119b5565b6001600160a01b0381166107715760405162461bcd60e51b815260040161047d906119ea565b600280546001600160a01b0319166001600160a01b0392909216919091179055565b6000546001600160a01b031633146107bd5760405162461bcd60e51b815260040161047d906119b5565b6001600160a01b0381166107e35760405162461bcd60e51b815260040161047d906119ea565b600480546001600160a01b0319166001600160a01b0392909216919091179055565b6000546001600160a01b0316331461082f5760405162461bcd60e51b815260040161047d906119b5565b6001600160a01b0381166108555760405162461bcd60e51b815260040161047d906119ea565b7f00000000000000000000000000000000000000000000000000000000000000006001600160a01b0316836001600160a01b031614156108bf5760405162461bcd60e51b8152602060048201526005602482015264217361666560d81b604482015260640161047d565b6108d36001600160a01b0384168284611312565b505050565b6001600160a01b0381166000908152600c60205260409020545b919050565b6000546001600160a01b031633146109215760405162461bcd60e51b815260040161047d906119b5565b600080546040516001600160a01b03909116907f8be0079c531659141344cd1fd0a4f28419497f9722a3daafe3b4186f6b6457e0908390a3600080546001600160a01b0319169055565b6000546001600160a01b031633148061098e57506004546001600160a01b031633145b6109c65760405162461bcd60e51b815260206004820152600960248201526821736563757269747960b81b604482015260640161047d565b436007556040517f94058b34623ce4d33b7914fefdcc85339cc163f259f46483cb96645c0a140da090600090a1565b60026001541415610a185760405162461bcd60e51b815260040161047d90611a10565b6002600155610a286000196110af565b60018055565b60026001541415610a515760405162461bcd60e51b815260040161047d90611a10565b60026001556040516370a0823160e01b8152336004820152610a28907f00000000000000000000000000000000000000000000000000000000000000006001600160a01b0316906370a082319060240160206040518083038186803b158015610ab957600080fd5b505afa158015610acd573d6000803e3d6000fd5b505050506040513d601f19601f82011682018060405250810190610af191906118da565b611375565b60026001541415610b195760405162461bcd60e51b815260040161047d90611a10565b600260015561071a81611375565b60006006548311610b4a57600654821115610b46576006549250610b4a565b8192505b6007548211610b6457610b5d8383611a9e565b9050610b83565b6007548310610b7557506000610b83565b82600754610b5d9190611a9e565b92915050565b6000546001600160a01b0316331480610bac57506004546001600160a01b031633145b610be45760405162461bcd60e51b815260206004820152600960248201526821736563757269747960b81b604482015260640161047d565b600d5460ff1615610c075760405162461bcd60e51b815260040161047d90611993565b436007541115610c1657436007555b600d805460ff191660011790556040517f884913bf02e252a8fd422bf8f82d3bcc112060d513a34ff41bd395ff82c03d5590600090a1565b60026001541415610c715760405162461bcd60e51b815260040161047d90611a10565b60026001908155336000908152600c60205260408120805482825592810191909155908015610d89576040516370a0823160e01b81523060048201526000907f00000000000000000000000000000000000000000000000000000000000000006001600160a01b0316906370a082319060240160206040518083038186803b158015610cfc57600080fd5b505afa158015610d10573d6000803e3d6000fd5b505050506040513d601f19601f82011682018060405250810190610d3491906118da565b905081811015610d42578091505b81600b54610d509190611a9e565b600b55610d876001600160a01b037f0000000000000000000000000000000000000000000000000000000000000000163384611312565b505b60405181815233907f5fafa99d0643513820be26656b45130b01e1c03062e1266bf36f88cbd3bd96959060200160405180910390a2505060018055565b6000546001600160a01b03163314610df05760405162461bcd60e51b815260040161047d906119b5565b6001600160a01b038116610e555760405162461bcd60e51b815260206004820152602660248201527f4f776e61626c653a206e6577206f776e657220697320746865207a65726f206160448201526564647265737360d01b606482015260840161047d565b600080546040516001600160a01b03808516939216917f8be0079c531659141344cd1fd0a4f28419497f9722a3daafe3b4186f6b6457e091a3600080546001600160a01b0319166001600160a01b0392909216919091179055565b6001600160a01b0381166000908152600c6020526040812060085443118015610eda5750600b5415155b15610f6a576000610eed60085443610b27565b9050600060095482610eff9190611a7f565b90506000600b548264e8d4a51000610f179190611a7f565b610f219190611a5f565b600554610f2e9190611a47565b9050836001015464e8d4a51000828660000154610f4b9190611a7f565b610f559190611a5f565b610f5f9190611a9e565b9450505050506108f2565b6001810154600554825464e8d4a5100091610f8491611a7f565b610f8e9190611a5f565b610f989190611a9e565b9150506108f2565b6008544311610fae576110ad565b6040516370a0823160e01b81523060048201527f00000000000000000000000000000000000000000000000000000000000000006001600160a01b0316906370a082319060240160206040518083038186803b15801561100d57600080fd5b505afa158015611021573d6000803e3d6000fd5b505050506040513d601f19601f8201168201806040525081019061104591906118da565b600b81905561105757436008556110ad565b600061106560085443610b27565b90506000600954826110779190611a7f565b600b5490915061108c8264e8d4a51000611a7f565b6110969190611a5f565b6005546110a39190611a47565b6005555050436008555b565b336000908152600c6020526040902080548211156110cc57805491505b6110d4610fa0565b6000816001015464e8d4a5100060055484600001546110f39190611a7f565b6110fd9190611a5f565b6111079190611a9e565b9050821561121a576040516370a0823160e01b81523060048201526000907f00000000000000000000000000000000000000000000000000000000000000006001600160a01b0316906370a082319060240160206040518083038186803b15801561117157600080fd5b505afa158015611185573d6000803e3d6000fd5b505050506040513d601f19601f820116820180604052508101906111a991906118da565b9050838110156111c3576000808455600b559250826111e4565b82546111d0908590611a9e565b8355600b546111e0908590611a9e565b600b555b6112186001600160a01b037f0000000000000000000000000000000000000000000000000000000000000000163386611312565b505b80156112ad5760025460405163358d7baf60e11b81523360048201526001600160a01b037f0000000000000000000000000000000000000000000000000000000000000000811660248301526044820184905290911690636b1af75e90606401600060405180830381600087803b15801561129457600080fd5b505af11580156112a8573d6000803e3d6000fd5b505050505b600554825464e8d4a51000916112c291611a7f565b6112cc9190611a5f565b6001830155604080518481526020810183905233917ff279e6a1f5e320cca91135676d9cb6e44ca8a08c0b88342bcdb1144f6511b56891015b60405180910390a2505050565b6040516001600160a01b0383166024820152604481018290526108d390849063a9059cbb60e01b906064015b60408051601f198184030181529190526020810180516001600160e01b03166001600160e01b0319909316929092179091526115ac565b600081116113af5760405162461bcd60e51b815260206004820152600760248201526608585b5bdd5b9d60ca1b604482015260640161047d565b6002546001600160a01b03166113f35760405162461bcd60e51b815260206004820152600960248201526810b932bbb0b93232b960b91b604482015260640161047d565b600d5460ff16156114165760405162461bcd60e51b815260040161047d90611993565b336000908152600c6020526040902061142d610fa0565b805460009015611468576001820154600554835464e8d4a510009161145191611a7f565b61145b9190611a5f565b6114659190611a9e565b90505b8154611475908490611a47565b8255600b54611485908490611a47565b600b55600554825464e8d4a510009161149d91611a7f565b6114a79190611a5f565b6001830155801561153f5760025460405163358d7baf60e11b81523360048201526001600160a01b037f0000000000000000000000000000000000000000000000000000000000000000811660248301526044820184905290911690636b1af75e90606401600060405180830381600087803b15801561152657600080fd5b505af115801561153a573d6000803e3d6000fd5b505050505b6115746001600160a01b037f00000000000000000000000000000000000000000000000000000000000000001633308661167e565b604080518481526020810183905233917f90890809c654f11d6e72a28fa60149770a0d11ec6c92319d6ceb2bb0a4ea1a159101611305565b6000611601826040518060400160405280602081526020017f5361666545524332303a206c6f772d6c6576656c2063616c6c206661696c6564815250856001600160a01b03166116bc9092919063ffffffff16565b8051909150156108d3578080602001905181019061161f91906118a2565b6108d35760405162461bcd60e51b815260206004820152602a60248201527f5361666545524332303a204552433230206f7065726174696f6e20646964206e6044820152691bdd081cdd58d8d9595960b21b606482015260840161047d565b6040516001600160a01b03808516602483015283166044820152606481018290526116b69085906323b872dd60e01b9060840161133e565b50505050565b60606116cb84846000856116d5565b90505b9392505050565b6060824710156117365760405162461bcd60e51b815260206004820152602660248201527f416464726573733a20696e73756666696369656e742062616c616e636520666f6044820152651c8818d85b1b60d21b606482015260840161047d565b843b6117845760405162461bcd60e51b815260206004820152601d60248201527f416464726573733a2063616c6c20746f206e6f6e2d636f6e7472616374000000604482015260640161047d565b600080866001600160a01b031685876040516117a09190611944565b60006040518083038185875af1925050503d80600081146117dd576040519150601f19603f3d011682016040523d82523d6000602084013e6117e2565b606091505b50915091506117f28282866117fd565b979650505050505050565b6060831561180c5750816116ce565b82511561181c5782518084602001fd5b8160405162461bcd60e51b815260040161047d9190611960565b80356001600160a01b03811681146108f257600080fd5b60006020828403121561185e578081fd5b6116ce82611836565b60008060006060848603121561187b578182fd5b61188484611836565b92506020840135915061189960408501611836565b90509250925092565b6000602082840312156118b3578081fd5b815180151581146116ce578182fd5b6000602082840312156118d3578081fd5b5035919050565b6000602082840312156118eb578081fd5b5051919050565b60008060408385031215611904578182fd5b50508035926020909101359150565b60008060008060808587031215611928578081fd5b5050823594602084013594506040840135936060013592509050565b60008251611956818460208701611ab5565b9190910192915050565b600060208252825180602084015261197f816040850160208701611ab5565b601f01601f19169190910160400192915050565b602080825260089082015267199a5b9a5cda195960c21b604082015260600190565b6020808252818101527f4f776e61626c653a2063616c6c6572206973206e6f7420746865206f776e6572604082015260600190565b6020808252600c908201526b7a65726f206164647265737360a01b604082015260600190565b6020808252601f908201527f5265656e7472616e637947756172643a207265656e7472616e742063616c6c00604082015260600190565b60008219821115611a5a57611a5a611ae1565b500190565b600082611a7a57634e487b7160e01b81526012600452602481fd5b500490565b6000816000190483118215151615611a9957611a99611ae1565b500290565b600082821015611ab057611ab0611ae1565b500390565b60005b83811015611ad0578181015183820152602001611ab8565b838111156116b65750506000910152565b634e487b7160e01b600052601160045260246000fdfea164736f6c6343000803000a",
  "devdoc": {
    "details": "Implementation of the BALLE Staking Pool. This pool distributes platform performance fee. The owner of the contract is the Governance Gnosis Safe multisig.",
    "kind": "dev",
    "methods": {
      "addReward(uint256,uint256,uint256,uint256)": {
        "details": "Add reward to distribute. The funds should be transferred to the Rewarder contract.",
        "params": {
          "_amount": ": the reward amount to distribute.",
          "_multiplier": ": extra reward multiplier (100 = 1).",
          "_numberOfBlocks": ": the num of blocks for the period of distribution.",
          "_rewardStartBlock": ": only for the first distribution, start block of rewards."
        }
      },
      "balanceOf(address)": {
        "details": "View function to see total staked value on frontend.",
        "params": {
          "_user": ": user address."
        },
        "returns": {
          "_0": "Total staked for a given user."
        }
      },
      "constructor": {
        "details": "BALLE Rewards staking pool.",
        "params": {
          "_rewardDistribution": ": reward distribution contract address.",
          "_rewardToken": ": reward token address.",
          "_stakedToken": ": staked token address."
        }
      },
      "emergencyWithdraw()": {
        "details": "Withdraw all staked tokens without caring about rewards. EMERGENCY ONLY."
      },
      "finish()": {
        "details": "Finish pool."
      },
      "getBlockMultiplier(uint256,uint256)": {
        "details": "Return reward multiplier over the given _from to _to block.",
        "params": {
          "_from": ": block to start.",
          "_to": ": block to finish."
        }
      },
      "inCaseTokensGetStuck(address,uint256,address)": {
        "details": "Function to use from Governance Gnosis Safe multisig only in case tokens get stuck. This is to be used if someone, for example, sends tokens to the contract by mistake. There is no guarantee governance will vote to return these."
      },
      "owner()": {
        "details": "Returns the address of the current owner."
      },
      "pendingReward(address)": {
        "details": "View function to see pending reward on frontend.",
        "params": {
          "_user": ": user address."
        },
        "returns": {
          "_0": "Pending reward for a given user."
        }
      },
      "renounceOwnership()": {
        "details": "Leaves the contract without owner. It will not be possible to call `onlyOwner` functions anymore. Can only be called by the current owner. NOTE: Renouncing ownership will leave the contract without an owner, thereby removing any functionality that is only available to the owner."
      },
      "setRewardDistribution(address)": {
        "details": "Function to change the rewardDistribution address."
      },
      "setRewarder(address)": {
        "details": "Function to change the rewarder address."
      },
      "setSecurity(address)": {
        "details": "Function to change the Security Gnosis Safe multisig."
      },
      "stake(uint256)": {
        "details": "Stake tokens to the pool and collect reward tokens (if any).",
        "params": {
          "_amount": ": amount to stake (in stakedToken)."
        }
      },
      "stakeAll()": {
        "details": "Stake all stakedToken balance on user wallet to the pool and collect reward tokens (if any)."
      },
      "stopRewards()": {
        "details": "Stop rewards."
      },
      "transferOwnership(address)": {
        "details": "Transfers ownership of the contract to a new account (`newOwner`). Can only be called by the current owner."
      },
      "withdraw(uint256)": {
        "details": "Withdraw staked tokens and collect reward tokens (if any).",
        "params": {
          "_amount": ": amount to withdraw (in stakedToken)."
        }
      },
      "withdrawAll()": {
        "details": "Withdraw all user's staked tokens and collect reward (if any)."
      }
    },
    "version": 1
  },
  "userdoc": {
    "kind": "user",
    "methods": {},
    "version": 1
  },
  "storageLayout": {
    "storage": [
      {
        "astId": 7,
        "contract": "contracts/staking/BalleStakingPoolV1.sol:BalleStakingPoolV1",
        "label": "_owner",
        "offset": 0,
        "slot": "0",
        "type": "t_address"
      },
      {
        "astId": 120,
        "contract": "contracts/staking/BalleStakingPoolV1.sol:BalleStakingPoolV1",
        "label": "_status",
        "offset": 0,
        "slot": "1",
        "type": "t_uint256"
      },
      {
        "astId": 4705,
        "contract": "contracts/staking/BalleStakingPoolV1.sol:BalleStakingPoolV1",
        "label": "rewarder",
        "offset": 0,
        "slot": "2",
        "type": "t_address"
      },
      {
        "astId": 4707,
        "contract": "contracts/staking/BalleStakingPoolV1.sol:BalleStakingPoolV1",
        "label": "rewardDistribution",
        "offset": 0,
        "slot": "3",
        "type": "t_address"
      },
      {
        "astId": 4709,
        "contract": "contracts/staking/BalleStakingPoolV1.sol:BalleStakingPoolV1",
        "label": "security",
        "offset": 0,
        "slot": "4",
        "type": "t_address"
      },
      {
        "astId": 4711,
        "contract": "contracts/staking/BalleStakingPoolV1.sol:BalleStakingPoolV1",
        "label": "accTokenPerShare",
        "offset": 0,
        "slot": "5",
        "type": "t_uint256"
      },
      {
        "astId": 4713,
        "contract": "contracts/staking/BalleStakingPoolV1.sol:BalleStakingPoolV1",
        "label": "rewardStartBlock",
        "offset": 0,
        "slot": "6",
        "type": "t_uint256"
      },
      {
        "astId": 4715,
        "contract": "contracts/staking/BalleStakingPoolV1.sol:BalleStakingPoolV1",
        "label": "rewardEndBlock",
        "offset": 0,
        "slot": "7",
        "type": "t_uint256"
      },
      {
        "astId": 4717,
        "contract": "contracts/staking/BalleStakingPoolV1.sol:BalleStakingPoolV1",
        "label": "lastRewardBlock",
        "offset": 0,
        "slot": "8",
        "type": "t_uint256"
      },
      {
        "astId": 4719,
        "contract": "contracts/staking/BalleStakingPoolV1.sol:BalleStakingPoolV1",
        "label": "rewardPerBlock",
        "offset": 0,
        "slot": "9",
        "type": "t_uint256"
      },
      {
        "astId": 4721,
        "contract": "contracts/staking/BalleStakingPoolV1.sol:BalleStakingPoolV1",
        "label": "extraRewardMultiplier",
        "offset": 0,
        "slot": "10",
        "type": "t_uint256"
      },
      {
        "astId": 4723,
        "contract": "contracts/staking/BalleStakingPoolV1.sol:BalleStakingPoolV1",
        "label": "totalSupply",
        "offset": 0,
        "slot": "11",
        "type": "t_uint256"
      },
      {
        "astId": 4728,
        "contract": "contracts/staking/BalleStakingPoolV1.sol:BalleStakingPoolV1",
        "label": "userInfo",
        "offset": 0,
        "slot": "12",
        "type": "t_mapping(t_address,t_struct(UserInfo)4699_storage)"
      },
      {
        "astId": 4730,
        "contract": "contracts/staking/BalleStakingPoolV1.sol:BalleStakingPoolV1",
        "label": "finished",
        "offset": 0,
        "slot": "13",
        "type": "t_bool"
      }
    ],
    "types": {
      "t_address": {
        "encoding": "inplace",
        "label": "address",
        "numberOfBytes": "20"
      },
      "t_bool": {
        "encoding": "inplace",
        "label": "bool",
        "numberOfBytes": "1"
      },
      "t_mapping(t_address,t_struct(UserInfo)4699_storage)": {
        "encoding": "mapping",
        "key": "t_address",
        "label": "mapping(address => struct BalleStakingPoolV1.UserInfo)",
        "numberOfBytes": "32",
        "value": "t_struct(UserInfo)4699_storage"
      },
      "t_struct(UserInfo)4699_storage": {
        "encoding": "inplace",
        "label": "struct BalleStakingPoolV1.UserInfo",
        "members": [
          {
            "astId": 4696,
            "contract": "contracts/staking/BalleStakingPoolV1.sol:BalleStakingPoolV1",
            "label": "amount",
            "offset": 0,
            "slot": "0",
            "type": "t_uint256"
          },
          {
            "astId": 4698,
            "contract": "contracts/staking/BalleStakingPoolV1.sol:BalleStakingPoolV1",
            "label": "rewardDebt",
            "offset": 0,
            "slot": "1",
            "type": "t_uint256"
          }
        ],
        "numberOfBytes": "64"
      },
      "t_uint256": {
        "encoding": "inplace",
        "label": "uint256",
        "numberOfBytes": "32"
      }
    }
  }
}