{
  "address": "0xD3f2fA28EC7B8261DdD31DE3697454C1cD5D855B",
  "abi": [
    {
      "inputs": [
        {
          "internalType": "contract BALLEv2",
          "name": "_balle",
          "type": "address"
        },
        {
          "internalType": "uint256",
          "name": "_ballePerBlock",
          "type": "uint256"
        },
        {
          "internalType": "uint256",
          "name": "_balleTotalRewards",
          "type": "uint256"
        },
        {
          "internalType": "uint256",
          "name": "_approvalDelay",
          "type": "uint256"
        }
      ],
      "stateMutability": "nonpayable",
      "type": "constructor"
    },
    {
      "anonymous": false,
      "inputs": [
        {
          "indexed": true,
          "internalType": "uint256",
          "name": "vid",
          "type": "uint256"
        },
        {
          "indexed": false,
          "internalType": "uint256",
          "name": "allocPoint",
          "type": "uint256"
        }
      ],
      "name": "ActivateRewards",
      "type": "event"
    },
    {
      "anonymous": false,
      "inputs": [
        {
          "indexed": true,
          "internalType": "uint256",
          "name": "vid",
          "type": "uint256"
        }
      ],
      "name": "DeactivateRewards",
      "type": "event"
    },
    {
      "anonymous": false,
      "inputs": [
        {
          "indexed": true,
          "internalType": "address",
          "name": "user",
          "type": "address"
        },
        {
          "indexed": true,
          "internalType": "uint256",
          "name": "vid",
          "type": "uint256"
        },
        {
          "indexed": false,
          "internalType": "uint256",
          "name": "amount",
          "type": "uint256"
        },
        {
          "indexed": false,
          "internalType": "uint256",
          "name": "rewards",
          "type": "uint256"
        }
      ],
      "name": "Deposit",
      "type": "event"
    },
    {
      "anonymous": false,
      "inputs": [
        {
          "indexed": true,
          "internalType": "uint256",
          "name": "vid",
          "type": "uint256"
        },
        {
          "indexed": true,
          "internalType": "address",
          "name": "strat",
          "type": "address"
        }
      ],
      "name": "EmergencyStratUpgrade",
      "type": "event"
    },
    {
      "anonymous": false,
      "inputs": [
        {
          "indexed": true,
          "internalType": "address",
          "name": "user",
          "type": "address"
        },
        {
          "indexed": true,
          "internalType": "uint256",
          "name": "vid",
          "type": "uint256"
        },
        {
          "indexed": false,
          "internalType": "uint256",
          "name": "amount",
          "type": "uint256"
        }
      ],
      "name": "EmergencyWithdraw",
      "type": "event"
    },
    {
      "anonymous": false,
      "inputs": [
        {
          "indexed": true,
          "internalType": "uint256",
          "name": "vid",
          "type": "uint256"
        },
        {
          "indexed": false,
          "internalType": "uint256",
          "name": "allocPoint",
          "type": "uint256"
        }
      ],
      "name": "ModifyRewards",
      "type": "event"
    },
    {
      "anonymous": false,
      "inputs": [
        {
          "indexed": true,
          "internalType": "address",
          "name": "previousOwner",
          "type": "address"
        },
        {
          "indexed": true,
          "internalType": "address",
          "name": "newOwner",
          "type": "address"
        }
      ],
      "name": "OwnershipTransferred",
      "type": "event"
    },
    {
      "anonymous": false,
      "inputs": [
        {
          "indexed": true,
          "internalType": "uint256",
          "name": "vid",
          "type": "uint256"
        }
      ],
      "name": "PanicVault",
      "type": "event"
    },
    {
      "anonymous": false,
      "inputs": [
        {
          "indexed": true,
          "internalType": "uint256",
          "name": "vid",
          "type": "uint256"
        }
      ],
      "name": "PauseVault",
      "type": "event"
    },
    {
      "anonymous": false,
      "inputs": [
        {
          "indexed": true,
          "internalType": "uint256",
          "name": "vid",
          "type": "uint256"
        },
        {
          "indexed": true,
          "internalType": "address",
          "name": "strat",
          "type": "address"
        }
      ],
      "name": "ProposeStratUpgrade",
      "type": "event"
    },
    {
      "anonymous": false,
      "inputs": [
        {
          "indexed": true,
          "internalType": "uint256",
          "name": "vid",
          "type": "uint256"
        }
      ],
      "name": "RetireVault",
      "type": "event"
    },
    {
      "anonymous": false,
      "inputs": [
        {
          "indexed": true,
          "internalType": "uint256",
          "name": "vid",
          "type": "uint256"
        },
        {
          "indexed": true,
          "internalType": "address",
          "name": "strat",
          "type": "address"
        }
      ],
      "name": "StratUpgrade",
      "type": "event"
    },
    {
      "anonymous": false,
      "inputs": [
        {
          "indexed": true,
          "internalType": "uint256",
          "name": "vid",
          "type": "uint256"
        }
      ],
      "name": "UnpauseVault",
      "type": "event"
    },
    {
      "anonymous": false,
      "inputs": [
        {
          "indexed": true,
          "internalType": "address",
          "name": "user",
          "type": "address"
        },
        {
          "indexed": true,
          "internalType": "uint256",
          "name": "vid",
          "type": "uint256"
        },
        {
          "indexed": false,
          "internalType": "uint256",
          "name": "amount",
          "type": "uint256"
        },
        {
          "indexed": false,
          "internalType": "uint256",
          "name": "rewards",
          "type": "uint256"
        }
      ],
      "name": "Withdraw",
      "type": "event"
    },
    {
      "inputs": [
        {
          "internalType": "uint256",
          "name": "_vid",
          "type": "uint256"
        },
        {
          "internalType": "uint256",
          "name": "_allocPoint",
          "type": "uint256"
        }
      ],
      "name": "activateVaultRewards",
      "outputs": [],
      "stateMutability": "nonpayable",
      "type": "function"
    },
    {
      "inputs": [
        {
          "internalType": "address",
          "name": "_depositToken",
          "type": "address"
        },
        {
          "internalType": "address",
          "name": "_strat",
          "type": "address"
        }
      ],
      "name": "addVault",
      "outputs": [],
      "stateMutability": "nonpayable",
      "type": "function"
    },
    {
      "inputs": [],
      "name": "approvalDelay",
      "outputs": [
        {
          "internalType": "uint256",
          "name": "",
          "type": "uint256"
        }
      ],
      "stateMutability": "view",
      "type": "function"
    },
    {
      "inputs": [],
      "name": "balle",
      "outputs": [
        {
          "internalType": "contract BALLEv2",
          "name": "",
          "type": "address"
        }
      ],
      "stateMutability": "view",
      "type": "function"
    },
    {
      "inputs": [],
      "name": "ballePerBlock",
      "outputs": [
        {
          "internalType": "uint256",
          "name": "",
          "type": "uint256"
        }
      ],
      "stateMutability": "view",
      "type": "function"
    },
    {
      "inputs": [],
      "name": "balleToMint",
      "outputs": [
        {
          "internalType": "uint256",
          "name": "",
          "type": "uint256"
        }
      ],
      "stateMutability": "view",
      "type": "function"
    },
    {
      "inputs": [],
      "name": "balleTotalRewards",
      "outputs": [
        {
          "internalType": "uint256",
          "name": "",
          "type": "uint256"
        }
      ],
      "stateMutability": "view",
      "type": "function"
    },
    {
      "inputs": [
        {
          "internalType": "uint256",
          "name": "_vid",
          "type": "uint256"
        }
      ],
      "name": "deactivateVaultRewards",
      "outputs": [],
      "stateMutability": "nonpayable",
      "type": "function"
    },
    {
      "inputs": [
        {
          "internalType": "uint256",
          "name": "_vid",
          "type": "uint256"
        },
        {
          "internalType": "uint256",
          "name": "_amount",
          "type": "uint256"
        }
      ],
      "name": "deposit",
      "outputs": [],
      "stateMutability": "nonpayable",
      "type": "function"
    },
    {
      "inputs": [
        {
          "internalType": "uint256",
          "name": "_vid",
          "type": "uint256"
        }
      ],
      "name": "depositAll",
      "outputs": [],
      "stateMutability": "nonpayable",
      "type": "function"
    },
    {
      "inputs": [
        {
          "internalType": "uint256",
          "name": "_vid",
          "type": "uint256"
        },
        {
          "internalType": "address",
          "name": "_user",
          "type": "address"
        }
      ],
      "name": "depositTokens",
      "outputs": [
        {
          "internalType": "uint256",
          "name": "",
          "type": "uint256"
        }
      ],
      "stateMutability": "view",
      "type": "function"
    },
    {
      "inputs": [
        {
          "internalType": "uint256",
          "name": "_vid",
          "type": "uint256"
        }
      ],
      "name": "emergencyWithdraw",
      "outputs": [],
      "stateMutability": "nonpayable",
      "type": "function"
    },
    {
      "inputs": [],
      "name": "endBlock",
      "outputs": [
        {
          "internalType": "uint256",
          "name": "",
          "type": "uint256"
        }
      ],
      "stateMutability": "view",
      "type": "function"
    },
    {
      "inputs": [
        {
          "internalType": "uint256",
          "name": "_from",
          "type": "uint256"
        },
        {
          "internalType": "uint256",
          "name": "_to",
          "type": "uint256"
        }
      ],
      "name": "getBlockMultiplier",
      "outputs": [
        {
          "internalType": "uint256",
          "name": "",
          "type": "uint256"
        }
      ],
      "stateMutability": "view",
      "type": "function"
    },
    {
      "inputs": [
        {
          "internalType": "address",
          "name": "_token",
          "type": "address"
        },
        {
          "internalType": "uint256",
          "name": "_amount",
          "type": "uint256"
        }
      ],
      "name": "inCaseTokensGetStuck",
      "outputs": [],
      "stateMutability": "nonpayable",
      "type": "function"
    },
    {
      "inputs": [
        {
          "internalType": "uint256",
          "name": "_vid",
          "type": "uint256"
        },
        {
          "internalType": "uint256",
          "name": "_allocPoint",
          "type": "uint256"
        }
      ],
      "name": "modifyVaultRewards",
      "outputs": [],
      "stateMutability": "nonpayable",
      "type": "function"
    },
    {
      "inputs": [],
      "name": "owner",
      "outputs": [
        {
          "internalType": "address",
          "name": "",
          "type": "address"
        }
      ],
      "stateMutability": "view",
      "type": "function"
    },
    {
      "inputs": [
        {
          "internalType": "uint256",
          "name": "_vid",
          "type": "uint256"
        }
      ],
      "name": "panicVault",
      "outputs": [],
      "stateMutability": "nonpayable",
      "type": "function"
    },
    {
      "inputs": [
        {
          "internalType": "uint256",
          "name": "_vid",
          "type": "uint256"
        }
      ],
      "name": "pauseVault",
      "outputs": [],
      "stateMutability": "nonpayable",
      "type": "function"
    },
    {
      "inputs": [
        {
          "internalType": "uint256",
          "name": "_vid",
          "type": "uint256"
        },
        {
          "internalType": "address",
          "name": "_user",
          "type": "address"
        }
      ],
      "name": "pendingRewards",
      "outputs": [
        {
          "internalType": "uint256",
          "name": "",
          "type": "uint256"
        }
      ],
      "stateMutability": "view",
      "type": "function"
    },
    {
      "inputs": [
        {
          "internalType": "uint256",
          "name": "_vid",
          "type": "uint256"
        },
        {
          "internalType": "address",
          "name": "_strat",
          "type": "address"
        }
      ],
      "name": "proposeStratUpgrade",
      "outputs": [],
      "stateMutability": "nonpayable",
      "type": "function"
    },
    {
      "inputs": [],
      "name": "renounceOwnership",
      "outputs": [],
      "stateMutability": "nonpayable",
      "type": "function"
    },
    {
      "inputs": [
        {
          "internalType": "uint256",
          "name": "_vid",
          "type": "uint256"
        }
      ],
      "name": "retireVault",
      "outputs": [],
      "stateMutability": "nonpayable",
      "type": "function"
    },
    {
      "inputs": [],
      "name": "startBlock",
      "outputs": [
        {
          "internalType": "uint256",
          "name": "",
          "type": "uint256"
        }
      ],
      "stateMutability": "view",
      "type": "function"
    },
    {
      "inputs": [
        {
          "internalType": "uint256",
          "name": "_vid",
          "type": "uint256"
        },
        {
          "internalType": "address",
          "name": "_strat",
          "type": "address"
        }
      ],
      "name": "stratUpgrade",
      "outputs": [],
      "stateMutability": "nonpayable",
      "type": "function"
    },
    {
      "inputs": [],
      "name": "totalAllocPoint",
      "outputs": [
        {
          "internalType": "uint256",
          "name": "",
          "type": "uint256"
        }
      ],
      "stateMutability": "view",
      "type": "function"
    },
    {
      "inputs": [
        {
          "internalType": "address",
          "name": "newOwner",
          "type": "address"
        }
      ],
      "name": "transferOwnership",
      "outputs": [],
      "stateMutability": "nonpayable",
      "type": "function"
    },
    {
      "inputs": [
        {
          "internalType": "uint256",
          "name": "_vid",
          "type": "uint256"
        }
      ],
      "name": "unpauseVault",
      "outputs": [],
      "stateMutability": "nonpayable",
      "type": "function"
    },
    {
      "inputs": [
        {
          "internalType": "uint256",
          "name": "_vid",
          "type": "uint256"
        },
        {
          "internalType": "address",
          "name": "_user",
          "type": "address"
        }
      ],
      "name": "userDeposit",
      "outputs": [
        {
          "internalType": "uint256",
          "name": "",
          "type": "uint256"
        }
      ],
      "stateMutability": "view",
      "type": "function"
    },
    {
      "inputs": [
        {
          "internalType": "uint256",
          "name": "",
          "type": "uint256"
        },
        {
          "internalType": "address",
          "name": "",
          "type": "address"
        }
      ],
      "name": "userInfo",
      "outputs": [
        {
          "internalType": "uint256",
          "name": "deposit",
          "type": "uint256"
        },
        {
          "internalType": "uint256",
          "name": "shares",
          "type": "uint256"
        },
        {
          "internalType": "uint256",
          "name": "rewardDebt",
          "type": "uint256"
        }
      ],
      "stateMutability": "view",
      "type": "function"
    },
    {
      "inputs": [
        {
          "internalType": "uint256",
          "name": "",
          "type": "uint256"
        }
      ],
      "name": "vaultInfo",
      "outputs": [
        {
          "internalType": "contract IERC20",
          "name": "depositToken",
          "type": "address"
        },
        {
          "internalType": "address",
          "name": "strat",
          "type": "address"
        },
        {
          "internalType": "address",
          "name": "proposedStrat",
          "type": "address"
        },
        {
          "internalType": "uint256",
          "name": "allocPoint",
          "type": "uint256"
        },
        {
          "internalType": "uint256",
          "name": "lastRewardBlock",
          "type": "uint256"
        },
        {
          "internalType": "uint256",
          "name": "accBallePerShare",
          "type": "uint256"
        },
        {
          "internalType": "uint256",
          "name": "proposedTime",
          "type": "uint256"
        },
        {
          "internalType": "bool",
          "name": "rewardsActive",
          "type": "bool"
        },
        {
          "internalType": "bool",
          "name": "paused",
          "type": "bool"
        },
        {
          "internalType": "bool",
          "name": "retired",
          "type": "bool"
        }
      ],
      "stateMutability": "view",
      "type": "function"
    },
    {
      "inputs": [],
      "name": "vaultLength",
      "outputs": [
        {
          "internalType": "uint256",
          "name": "",
          "type": "uint256"
        }
      ],
      "stateMutability": "view",
      "type": "function"
    },
    {
      "inputs": [
        {
          "internalType": "uint256",
          "name": "_vid",
          "type": "uint256"
        },
        {
          "internalType": "uint256",
          "name": "_amount",
          "type": "uint256"
        }
      ],
      "name": "withdraw",
      "outputs": [],
      "stateMutability": "nonpayable",
      "type": "function"
    },
    {
      "inputs": [
        {
          "internalType": "uint256",
          "name": "_vid",
          "type": "uint256"
        }
      ],
      "name": "withdrawAll",
      "outputs": [],
      "stateMutability": "nonpayable",
      "type": "function"
    }
  ],
  "transactionHash": "0x0eb2ae6fad499bd5afc51ce9cb07baed526c5093b10bb7c70bfe66f6cf65a1ca",
  "args": [
    "0x43fC744c34b211cD57c6f0d1ddB4EA8BC504541b",
    "228310502283105",
    "24000000000000000000000",
    86400000
  ],
  "solcInputHash": "ede993f07ea1d8de770d5c735d3f567f",
  "bytecode": "0x610100604052600060045560006005553480156200001c57600080fd5b5060405162003840380380620038408339810160408190526200003f91620000a9565b600080546001600160a01b031916339081178255604051909182917f8be0079c531659141344cd1fd0a4f28419497f9722a3daafe3b4186f6b6457e0908290a3506001805560609390931b6001600160601b03191660805260a09190915260c05260e052620000f4565b60008060008060808587031215620000bf578384fd5b84516001600160a01b0381168114620000d6578485fd5b60208601516040870151606090970151919890975090945092505050565b60805160601c60a05160c05160e0516136b46200018c6000396000818161052201526114ee01526000818161032201526106ab0152600081816102b90152818161068a01528181611c910152612af40152600081816104e801528181611a0a01528181612b9c01528181612c4a01528181612ccb01528181612d6e01528181612e1401528181612ebb0152612f6201526136b46000f3fe608060405234801561001057600080fd5b50600436106102055760003560e01c8063715018a61161011a578063c150ad1a116100ad578063ded0da101161007c578063ded0da10146104e3578063e2bbb1581461050a578063e2d1e75c1461051d578063ec3a782314610544578063f2fde38b1461055757610205565b8063c150ad1a14610497578063c6d758cb146104aa578063c6f678bd146104bd578063d18df53c146104d057610205565b8063958e2d31116100e9578063958e2d311461044b57806396c43a851461045e578063acd3d32d14610471578063bc0838fc1461048457610205565b8063715018a6146103575780638da5cb5b1461035f578063929060d81461038457806393f1a40b146103f657610205565b80633f6770f81161019d5780634b30b4221161016c5780634b30b422146102e45780634f6300a2146102f75780635312ea8e1461030a5780635ebac9b51461031d5780636ae2ec961461034457610205565b80633f6770f81461028e578063441a3e70146102a157806344bd5b4f146102b457806348cd4cb1146102db57610205565b80631ab69eb2116101d95780631ab69eb2146102575780632b5b0a971461026a5780632b68772c14610273578063360f07301461027b57610205565b80629ddce51461020a57806304da17761461021f578063083c63231461024557806317caf6f11461024e575b600080fd5b61021d610218366004613421565b61056a565b005b61023261022d3660046133fd565b61075a565b6040519081526020015b60405180910390f35b61023260035481565b61023260045481565b61021d6102653660046133cd565b610784565b61023260055481565b600654610232565b61021d6102893660046133cd565b6108f3565b61021d61029c3660046133cd565b6109f9565b61021d6102af366004613421565b610b68565b6102327f000000000000000000000000000000000000000000000000000000000000000081565b61023260025481565b61021d6102f23660046133cd565b610bc6565b6102326103053660046133fd565b610d20565b61021d6103183660046133cd565b610eb0565b6102327f000000000000000000000000000000000000000000000000000000000000000081565b61021d6103523660046133fd565b6111eb565b61021d6112ea565b6000546001600160a01b03165b6040516001600160a01b03909116815260200161023c565b6103976103923660046133cd565b61135e565b604080516001600160a01b039b8c168152998b1660208b015297909916968801969096526060870194909452608086019290925260a085015260c0840152151560e083015215156101008201529015156101208201526101400161023c565b6104306104043660046133fd565b600760209081526000928352604080842090915290825290208054600182015460029092015490919083565b6040805193845260208401929092529082015260600161023c565b61021d6104593660046133cd565b6113d8565b61021d61046c3660046133fd565b611413565b61023261047f366004613421565b6116ce565b61021d610492366004613421565b611735565b61021d6104a53660046133cd565b611884565b61021d6104b8366004613382565b6119de565b61021d6104cb3660046133cd565b611a8a565b6102326104de3660046133fd565b611b76565b61036c7f000000000000000000000000000000000000000000000000000000000000000081565b61021d610518366004613421565b611d29565b6102327f000000000000000000000000000000000000000000000000000000000000000081565b61021d61055236600461334a565b611d7e565b61021d610565366004613312565b612092565b6000546001600160a01b0316331461059d5760405162461bcd60e51b81526004016105949061353b565b60405180910390fd5b600654829081106105c05760405162461bcd60e51b81526004016105949061351b565b6000600684815481106105e357634e487b7160e01b600052603260045260246000fd5b60009182526020909120600890910201600781015490915060ff16156106345760405162461bcd60e51b815260206004820152600660248201526561637469766560d01b6044820152606401610594565b600083116106725760405162461bcd60e51b815260206004820152600b60248201526a08585b1b1bd8dc1bda5b9d60aa1b6044820152606401610594565b61067a61217c565b6002546106e057436002556106cf7f00000000000000000000000000000000000000000000000000000000000000007f00000000000000000000000000000000000000000000000000000000000000006135df565b6002546106dc91906135c7565b6003555b60045443906106f09085906135c7565b600490815560038301859055820181905560078201805460ff191660011790556000600583015560405185907fba13fd9b2f2ae67565b95a27e65b1e9ebf5b1d3be4d048c3327b5037f022816b9061074b9087815260200190565b60405180910390a25050505050565b60008281526007602090815260408083206001600160a01b03851684529091529020545b92915050565b6000546001600160a01b031633146107ae5760405162461bcd60e51b81526004016105949061353b565b600654819081106107d15760405162461bcd60e51b81526004016105949061351b565b6000600683815481106107f457634e487b7160e01b600052603260045260246000fd5b906000526020600020906008020190508060070160019054906101000a900460ff1661084c5760405162461bcd60e51b8152602060048201526007602482015266085c185d5cd95960ca1b6044820152606401610594565b8060010160009054906101000a90046001600160a01b03166001600160a01b0316633f4ba83a6040518163ffffffff1660e01b8152600401600060405180830381600087803b15801561089e57600080fd5b505af11580156108b2573d6000803e3d6000fd5b50505060078201805461ff00191690555060405183907ff0e9a7ca64cb0a05f6f08c4e5889a1553af34e656e524ca3f7d7da67e5ae071390600090a2505050565b6000546001600160a01b0316331461091d5760405162461bcd60e51b81526004016105949061353b565b600654819081106109405760405162461bcd60e51b81526004016105949061351b565b60006006838154811061096357634e487b7160e01b600052603260045260246000fd5b60009182526020909120600890910201600781015490915060ff1661099a5760405162461bcd60e51b8152600401610594906134fa565b6109a261217c565b80600301546004546109b4919061361e565b60045560006003820181905560078201805460ff1916905560405184917fb8b83da790f78135db4aec46ee97590874ea01f3cd58912bb00f308d072fda2691a2505050565b6000546001600160a01b03163314610a235760405162461bcd60e51b81526004016105949061353b565b60065481908110610a465760405162461bcd60e51b81526004016105949061351b565b600060068381548110610a6957634e487b7160e01b600052603260045260246000fd5b906000526020600020906008020190508060070160029054906101000a900460ff1615610aa85760405162461bcd60e51b8152600401610594906134fa565b8060010160009054906101000a90046001600160a01b03166001600160a01b031663a4874d776040518163ffffffff1660e01b8152600401600060405180830381600087803b158015610afa57600080fd5b505af1158015610b0e573d6000803e3d6000fd5b505050506007810180546201000062ff00001982161790915560ff1615610b3857610b38836108f3565b60405183907f774f9a1333327bdc185469e0e44bfcf9df7f8fd96ab10acb8132ecc0b474c3cc90600090a2505050565b60026001541415610b8b5760405162461bcd60e51b815260040161059490613590565b600260015560065482908110610bb35760405162461bcd60e51b81526004016105949061351b565b610bbd83836121a3565b50506001805550565b6000546001600160a01b03163314610bf05760405162461bcd60e51b81526004016105949061353b565b60065481908110610c135760405162461bcd60e51b81526004016105949061351b565b600060068381548110610c3657634e487b7160e01b600052603260045260246000fd5b906000526020600020906008020190508060070160019054906101000a900460ff1615610c755760405162461bcd60e51b8152600401610594906134fa565b8060010160009054906101000a90046001600160a01b03166001600160a01b0316634700d3056040518163ffffffff1660e01b8152600401600060405180830381600087803b158015610cc757600080fd5b505af1158015610cdb573d6000803e3d6000fd5b50505060078201805461ff0019166101001790555060405183907f24f9af3d65d1b908bfe521985a4182e283f3ecdd85f728ccd2f47b8e1a93df9890600090a2505050565b60008060068481548110610d4457634e487b7160e01b600052603260045260246000fd5b600091825260208083208784526007825260408085206001600160a01b03808a16875290845281862060016008909602909301948501548251632251caaf60e11b815292519597509295949216926344a3955e92600480840193829003018186803b158015610db257600080fd5b505afa158015610dc6573d6000803e3d6000fd5b505050506040513d601f19601f82011682018060405250810190610dea91906133e5565b905060008360010160009054906101000a90046001600160a01b03166001600160a01b0316634adae0da6040518163ffffffff1660e01b815260040160206040518083038186803b158015610e3e57600080fd5b505afa158015610e52573d6000803e3d6000fd5b505050506040513d601f19601f82011682018060405250810190610e7691906133e5565b905081610e8a57600094505050505061077e565b81818460010154610e9b91906135ff565b610ea591906135df565b979650505050505050565b60026001541415610ed35760405162461bcd60e51b815260040161059490613590565b600260015560065481908110610efb5760405162461bcd60e51b81526004016105949061351b565b600060068381548110610f1e57634e487b7160e01b600052603260045260246000fd5b6000918252602080832086845260078252604080852033865283528085206008949094029091016001810154825163256d706d60e11b815292519196509394936001600160a01b031692634adae0da9260048082019391829003018186803b158015610f8957600080fd5b505afa158015610f9d573d6000803e3d6000fd5b505050506040513d601f19601f82011682018060405250810190610fc191906133e5565b905060008360010160009054906101000a90046001600160a01b03166001600160a01b03166344a3955e6040518163ffffffff1660e01b815260040160206040518083038186803b15801561101557600080fd5b505afa158015611029573d6000803e3d6000fd5b505050506040513d601f19601f8201168201806040525081019061104d91906133e5565b905060008183856001015461106291906135ff565b61106c91906135df565b60006001808701829055818755600287019190915586015460405163f3fef3a360e01b81529192506001600160a01b03169063f3fef3a3906110b490339085906004016134ae565b6040805180830381600087803b1580156110cd57600080fd5b505af11580156110e1573d6000803e3d6000fd5b505050506040513d601f19601f820116820180604052508101906111059190613442565b505084546040516370a0823160e01b81523060048201526000916001600160a01b0316906370a082319060240160206040518083038186803b15801561114a57600080fd5b505afa15801561115e573d6000803e3d6000fd5b505050506040513d601f19601f8201168201806040525081019061118291906133e5565b905081811015611190578091505b85546111a6906001600160a01b031633846125fb565b604051828152889033907fbb757047c2b5f3974fe26b7c10f732e7bce710b0952a71082702781e62ae05959060200160405180910390a3505060018055505050505050565b6000546001600160a01b031633146112155760405162461bcd60e51b81526004016105949061353b565b600654829081106112385760405162461bcd60e51b81526004016105949061351b565b6001600160a01b03821661125e5760405162461bcd60e51b815260040161059490613570565b60006006848154811061128157634e487b7160e01b600052603260045260246000fd5b600091825260208220600891909102016002810180546001600160a01b0319166001600160a01b0387169081179091554260068301556040519193509186917f84c802fdb113f88f1d3f9a8adf18b4edf0d87bf657e0faff1727da587a1e7a2d9190a350505050565b6000546001600160a01b031633146113145760405162461bcd60e51b81526004016105949061353b565b600080546040516001600160a01b03909116907f8be0079c531659141344cd1fd0a4f28419497f9722a3daafe3b4186f6b6457e0908390a3600080546001600160a01b0319169055565b6006818154811061136e57600080fd5b6000918252602090912060089091020180546001820154600283015460038401546004850154600586015460068701546007909701546001600160a01b039687169850948616969390951694919390929060ff80821691610100810482169162010000909104168a565b600260015414156113fb5760405162461bcd60e51b815260040161059490613590565b600260015561140c816000196121a3565b5060018055565b6000546001600160a01b0316331461143d5760405162461bcd60e51b81526004016105949061353b565b600654829081106114605760405162461bcd60e51b81526004016105949061351b565b6001600160a01b0382166114865760405162461bcd60e51b815260040161059490613570565b6000600684815481106114a957634e487b7160e01b600052603260045260246000fd5b6000918252602090912060089091020160028101549091506001600160a01b038481169116146114eb5760405162461bcd60e51b815260040161059490613570565b427f0000000000000000000000000000000000000000000000000000000000000000826006015461151c91906135c7565b106115555760405162461bcd60e51b81526020600482015260096024820152682174696d656c6f636b60b81b6044820152606401610594565b60018101546002820154604051631b2ce7f360e11b81526001600160a01b03918216600482015260009283928392911690633659cfe690602401606060405180830381600087803b1580156115a957600080fd5b505af11580156115bd573d6000803e3d6000fd5b505050506040513d601f19601f820116820180604052508101906115e19190613465565b60028701546001880154604051633e08777960e11b81526001600160a01b0391821660048201526024810186905260448101859052606481018490529497509295509093501690637c10eef290608401600060405180830381600087803b15801561164b57600080fd5b505af115801561165f573d6000803e3d6000fd5b505050506002840180546001860180546001600160a01b038084166001600160a01b0319928316179092559091169091556000600686018190556040519188169189917f5acd14efdb683461c0f6f0ee16d6ef556b79d04db209b525d80312d4436c2a5691a350505050505050565b6000828210156116e05750600061077e565b6002548210156116f25750600061077e565b6003548311156117045750600061077e565b6002548310156117145760025492505b6003548211156117245760035491505b61172e838361361e565b9392505050565b6000546001600160a01b0316331461175f5760405162461bcd60e51b81526004016105949061353b565b600654829081106117825760405162461bcd60e51b81526004016105949061351b565b6000600684815481106117a557634e487b7160e01b600052603260045260246000fd5b60009182526020909120600890910201600781015490915060ff166117dc5760405162461bcd60e51b8152600401610594906134fa565b6000831161181a5760405162461bcd60e51b815260206004820152600b60248201526a08585b1b1bd8dc1bda5b9d60aa1b6044820152606401610594565b61182261217c565b828160030154600454611835919061361e565b61183f91906135c7565b6004556003810183905560405183815284907f54ca8df74b9602d422d5c5e11eece496fd3d57504eba7dec5915ef0171c896169060200160405180910390a250505050565b6000546001600160a01b031633146118ae5760405162461bcd60e51b81526004016105949061353b565b600654819081106118d15760405162461bcd60e51b81526004016105949061351b565b6000600683815481106118f457634e487b7160e01b600052603260045260246000fd5b906000526020600020906008020190508060070160019054906101000a900460ff16156119335760405162461bcd60e51b8152600401610594906134fa565b8060010160009054906101000a90046001600160a01b03166001600160a01b0316638456cb596040518163ffffffff1660e01b8152600401600060405180830381600087803b15801561198557600080fd5b505af1158015611999573d6000803e3d6000fd5b50505060078201805461ff0019166101001790555060405183907f85f2f9c18c35f0b299bc3787e4166b64d3d8ae0e48d288bf7bcc608130d6b9bf90600090a2505050565b6000546001600160a01b03163314611a085760405162461bcd60e51b81526004016105949061353b565b7f00000000000000000000000000000000000000000000000000000000000000006001600160a01b0316826001600160a01b03161415611a725760405162461bcd60e51b8152602060048201526005602482015264217361666560d81b6044820152606401610594565b611a866001600160a01b03831633836125fb565b5050565b60026001541415611aad5760405162461bcd60e51b815260040161059490613590565b6002600181905550600060068281548110611ad857634e487b7160e01b600052603260045260246000fd5b6000918252602090912060089091020180546040516370a0823160e01b8152336004820152919250611b6e9184916001600160a01b0316906370a082319060240160206040518083038186803b158015611b3157600080fd5b505afa158015611b45573d6000803e3d6000fd5b505050506040513d601f19601f82011682018060405250810190611b6991906133e5565b612656565b505060018055565b60008060068481548110611b9a57634e487b7160e01b600052603260045260246000fd5b600091825260208083208784526007825260408085206001600160a01b038981168752908452818620600895909502909201600581015460018201548351632251caaf60e11b815293519298509596909590949316926344a3955e9260048082019391829003018186803b158015611c1157600080fd5b505afa158015611c25573d6000803e3d6000fd5b505050506040513d601f19601f82011682018060405250810190611c4991906133e5565b600785015490915060ff168015611c635750836004015443115b8015611c6e57508015155b15611cfa576000611c838560040154436116ce565b9050600060045486600301547f000000000000000000000000000000000000000000000000000000000000000084611cbb91906135ff565b611cc591906135ff565b611ccf91906135df565b905082611ce18264e8d4a510006135ff565b611ceb91906135df565b611cf590856135c7565b935050505b826002015464e8d4a51000838560010154611d1591906135ff565b611d1f91906135df565b610ea5919061361e565b60026001541415611d4c5760405162461bcd60e51b815260040161059490613590565b600260015560065482908110611d745760405162461bcd60e51b81526004016105949061351b565b610bbd8383612656565b6000546001600160a01b03163314611da85760405162461bcd60e51b81526004016105949061353b565b6001600160a01b038116611dce5760405162461bcd60e51b815260040161059490613570565b806001600160a01b031663c89039c56040518163ffffffff1660e01b815260040160206040518083038186803b158015611e0757600080fd5b505afa158015611e1b573d6000803e3d6000fd5b505050506040513d601f19601f82011682018060405250810190611e3f919061332e565b6001600160a01b0316826001600160a01b031614611e8f5760405162461bcd60e51b815260206004820152600d60248201526c10b232b837b9b4ba2a37b5b2b760991b6044820152606401610594565b60408051610140810182526001600160a01b039384168152918316602083019081526000918301828152606084018381526080850184815260a0860185815260c0870186815260e08801878152610100808a018981526101208b018a8152600680546001810182559b529a516008909a027ff652222313e28459528d920b65115c16c04f3efc82aaedc97be59f3f377c0d3f810180549b8e166001600160a01b03199c8d1617905598517ff652222313e28459528d920b65115c16c04f3efc82aaedc97be59f3f377c0d408a018054918e16918c1691909117905596517ff652222313e28459528d920b65115c16c04f3efc82aaedc97be59f3f377c0d418901805491909c1699169890981790995592517ff652222313e28459528d920b65115c16c04f3efc82aaedc97be59f3f377c0d4286015590517ff652222313e28459528d920b65115c16c04f3efc82aaedc97be59f3f377c0d43850155517ff652222313e28459528d920b65115c16c04f3efc82aaedc97be59f3f377c0d44840155517ff652222313e28459528d920b65115c16c04f3efc82aaedc97be59f3f377c0d4583015593517ff652222313e28459528d920b65115c16c04f3efc82aaedc97be59f3f377c0d469091018054945193511515620100000262ff00001994151590930261ff00199215159290921661ffff19909516949094171791909116179055565b6000546001600160a01b031633146120bc5760405162461bcd60e51b81526004016105949061353b565b6001600160a01b0381166121215760405162461bcd60e51b815260206004820152602660248201527f4f776e61626c653a206e6577206f776e657220697320746865207a65726f206160448201526564647265737360d01b6064820152608401610594565b600080546040516001600160a01b03808516939216917f8be0079c531659141344cd1fd0a4f28419497f9722a3daafe3b4186f6b6457e091a3600080546001600160a01b0319166001600160a01b0392909216919091179055565b60065460005b81811015611a8657612193816129da565b61219c81613661565b9050612182565b6121ac826129da565b6000600683815481106121cf57634e487b7160e01b600052603260045260246000fd5b6000918252602080832086845260078252604080852033865283528085206008949094029091016001810154825163256d706d60e11b815292519196509394936001600160a01b031692634adae0da9260048082019391829003018186803b15801561223a57600080fd5b505afa15801561224e573d6000803e3d6000fd5b505050506040513d601f19601f8201168201806040525081019061227291906133e5565b905060008360010160009054906101000a90046001600160a01b03166001600160a01b03166344a3955e6040518163ffffffff1660e01b815260040160206040518083038186803b1580156122c657600080fd5b505afa1580156122da573d6000803e3d6000fd5b505050506040513d601f19601f820116820180604052508101906122fe91906133e5565b90506000811161233f5760405162461bcd60e51b815260206004820152600c60248201526b085cda185c995cd51bdd185b60a21b6044820152606401610594565b60008360010154116123825760405162461bcd60e51b815260206004820152600c60248201526b21757365722e73686172657360a01b6044820152606401610594565b6000836002015464e8d4a51000866005015486600101546123a391906135ff565b6123ad91906135df565b6123b7919061361e565b905080156123c9576123c93382612b84565b6000828486600101546123dc91906135ff565b6123e691906135df565b9050808711156123f4578096505b861561258b57600186015460405163f3fef3a360e01b815260009182916001600160a01b039091169063f3fef3a3906124339033908d906004016134ae565b6040805180830381600087803b15801561244c57600080fd5b505af1158015612460573d6000803e3d6000fd5b505050506040513d601f19601f820116820180604052508101906124849190613442565b91509150866001015482106124a35760006001880181905587556124e8565b8187600101546124b3919061361e565b60018801556124c2828661361e565b6124cc828861361e565b88600101546124db91906135ff565b6124e591906135df565b87555b87546040516370a0823160e01b81523060048201526000916001600160a01b0316906370a082319060240160206040518083038186803b15801561252b57600080fd5b505afa15801561253f573d6000803e3d6000fd5b505050506040513d601f19601f8201168201806040525081019061256391906133e5565b905081811015612571578091505b8854612587906001600160a01b031633846125fb565b5050505b64e8d4a51000866005015486600101546125a591906135ff565b6125af91906135df565b60028601556040805188815260208101849052899133917f02f25270a4d87bea75db541cdfe559334a275b4a233520ed6c0a2429667cca94910160405180910390a35050505050505050565b6126518363a9059cbb60e01b848460405160240161261a9291906134ae565b60408051601f198184030181529190526020810180516001600160e01b03166001600160e01b031990931692909217909152612ff1565b505050565b61265f826129da565b60006006838154811061268257634e487b7160e01b600052603260045260246000fd5b600091825260208083208684526007825260408085203386529092529083206001810154600890930290910193509190156126fc57816002015464e8d4a51000846005015484600101546126d691906135ff565b6126e091906135df565b6126ea919061361e565b905080156126fc576126fc3382612b84565b60008411801561271657506007830154610100900460ff16155b801561272d5750600783015462010000900460ff16155b1561296d578254612749906001600160a01b03163330876130c3565b60018301548354612767916001600160a01b039182169116866130fb565b60006006868154811061278a57634e487b7160e01b600052603260045260246000fd5b60009182526020909120600160089092020101546040516311f9fbc960e21b81526001600160a01b03909116906347e7ef24906127cd90339089906004016134ae565b602060405180830381600087803b1580156127e757600080fd5b505af11580156127fb573d6000803e3d6000fd5b505050506040513d601f19601f8201168201806040525081019061281f91906133e5565b905060008460010160009054906101000a90046001600160a01b03166001600160a01b03166344a3955e6040518163ffffffff1660e01b815260040160206040518083038186803b15801561287357600080fd5b505afa158015612887573d6000803e3d6000fd5b505050506040513d601f19601f820116820180604052508101906128ab91906133e5565b905060008560010160009054906101000a90046001600160a01b03166001600160a01b0316634adae0da6040518163ffffffff1660e01b815260040160206040518083038186803b1580156128ff57600080fd5b505afa158015612913573d6000803e3d6000fd5b505050506040513d601f19601f8201168201806040525081019061293791906133e5565b905082856001015461294991906135c7565b60018601819055829061295d9083906135ff565b61296791906135df565b85555050505b64e8d4a510008360050154836001015461298791906135ff565b61299191906135df565b60028301556040805185815260208101839052869133917f36af321ec8d3c75236829c5317affd40ddb308863a1236d2d277a4025cccee1e910160405180910390a35050505050565b6000600682815481106129fd57634e487b7160e01b600052603260045260246000fd5b60009182526020909120600890910201600781015490915060ff16612a225750612b81565b80600401544311612a335750612b81565b600181015460408051632251caaf60e11b815290516000926001600160a01b0316916344a3955e916004808301926020929190829003018186803b158015612a7a57600080fd5b505afa158015612a8e573d6000803e3d6000fd5b505050506040513d601f19601f82011682018060405250810190612ab291906133e5565b905080612ac6575043600490910155612b81565b6000612ad68360040154436116ce565b905060008111612ae857505050612b81565b600060045484600301547f000000000000000000000000000000000000000000000000000000000000000084612b1e91906135ff565b612b2891906135ff565b612b3291906135df565b905080600554612b4291906135c7565b60055582612b558264e8d4a510006135ff565b612b5f91906135df565b8460050154612b6e91906135c7565b6005850155505043600490920191909155505b50565b6040516370a0823160e01b81523060048201526000907f00000000000000000000000000000000000000000000000000000000000000006001600160a01b0316906370a082319060240160206040518083038186803b158015612be657600080fd5b505afa158015612bfa573d6000803e3d6000fd5b505050506040513d601f19601f82011682018060405250810190612c1e91906133e5565b905080821115612f4b5760055415612ea4576005546040516340c10f1960e01b81526001600160a01b037f000000000000000000000000000000000000000000000000000000000000000016916340c10f1991612c7f9130916004016134ae565b600060405180830381600087803b158015612c9957600080fd5b505af1158015612cad573d6000803e3d6000fd5b5050600060055550506040516370a0823160e01b81523060048201527f00000000000000000000000000000000000000000000000000000000000000006001600160a01b0316906370a082319060240160206040518083038186803b158015612d1557600080fd5b505afa158015612d29573d6000803e3d6000fd5b505050506040513d601f19601f82011682018060405250810190612d4d91906133e5565b905080821115612dfd5760405163a9059cbb60e01b81526001600160a01b037f0000000000000000000000000000000000000000000000000000000000000000169063a9059cbb90612da590869085906004016134ae565b602060405180830381600087803b158015612dbf57600080fd5b505af1158015612dd3573d6000803e3d6000fd5b505050506040513d601f19601f82011682018060405250810190612df791906133ad565b50612e9f565b60405163a9059cbb60e01b81526001600160a01b037f0000000000000000000000000000000000000000000000000000000000000000169063a9059cbb90612e4b90869086906004016134ae565b602060405180830381600087803b158015612e6557600080fd5b505af1158015612e79573d6000803e3d6000fd5b505050506040513d601f19601f82011682018060405250810190612e9d91906133ad565b505b612f46565b60405163a9059cbb60e01b81526001600160a01b037f0000000000000000000000000000000000000000000000000000000000000000169063a9059cbb90612ef290869085906004016134ae565b602060405180830381600087803b158015612f0c57600080fd5b505af1158015612f20573d6000803e3d6000fd5b505050506040513d601f19601f82011682018060405250810190612f4491906133ad565b505b612651565b60405163a9059cbb60e01b81526001600160a01b037f0000000000000000000000000000000000000000000000000000000000000000169063a9059cbb90612f9990869086906004016134ae565b602060405180830381600087803b158015612fb357600080fd5b505af1158015612fc7573d6000803e3d6000fd5b505050506040513d601f19601f82011682018060405250810190612feb91906133ad565b50505050565b6000613046826040518060400160405280602081526020017f5361666545524332303a206c6f772d6c6576656c2063616c6c206661696c6564815250856001600160a01b03166131aa9092919063ffffffff16565b805190915015612651578080602001905181019061306491906133ad565b6126515760405162461bcd60e51b815260206004820152602a60248201527f5361666545524332303a204552433230206f7065726174696f6e20646964206e6044820152691bdd081cdd58d8d9595960b21b6064820152608401610594565b6040516001600160a01b0380851660248301528316604482015260648101829052612feb9085906323b872dd60e01b9060840161261a565b604051636eb1769f60e11b81523060048201526001600160a01b038381166024830152600091839186169063dd62ed3e9060440160206040518083038186803b15801561314757600080fd5b505afa15801561315b573d6000803e3d6000fd5b505050506040513d601f19601f8201168201806040525081019061317f91906133e5565b61318991906135c7565b9050612feb8463095ea7b360e01b858460405160240161261a9291906134ae565b60606131b984846000856131c1565b949350505050565b6060824710156132225760405162461bcd60e51b815260206004820152602660248201527f416464726573733a20696e73756666696369656e742062616c616e636520666f6044820152651c8818d85b1b60d21b6064820152608401610594565b843b6132705760405162461bcd60e51b815260206004820152601d60248201527f416464726573733a2063616c6c20746f206e6f6e2d636f6e74726163740000006044820152606401610594565b600080866001600160a01b0316858760405161328c9190613492565b60006040518083038185875af1925050503d80600081146132c9576040519150601f19603f3d011682016040523d82523d6000602084013e6132ce565b606091505b5091509150610ea5828286606083156132e857508161172e565b8251156132f85782518084602001fd5b8160405162461bcd60e51b815260040161059491906134c7565b600060208284031215613323578081fd5b813561172e81613692565b60006020828403121561333f578081fd5b815161172e81613692565b6000806040838503121561335c578081fd5b823561336781613692565b9150602083013561337781613692565b809150509250929050565b60008060408385031215613394578182fd5b823561339f81613692565b946020939093013593505050565b6000602082840312156133be578081fd5b8151801515811461172e578182fd5b6000602082840312156133de578081fd5b5035919050565b6000602082840312156133f6578081fd5b5051919050565b6000806040838503121561340f578182fd5b82359150602083013561337781613692565b60008060408385031215613433578182fd5b50508035926020909101359150565b60008060408385031215613454578182fd5b505080516020909101519092909150565b600080600060608486031215613479578081fd5b8351925060208401519150604084015190509250925092565b600082516134a4818460208701613635565b9190910192915050565b6001600160a01b03929092168252602082015260400190565b60006020825282518060208401526134e6816040850160208701613635565b601f01601f19169190910160400192915050565b6020808252600790820152662161637469766560c81b604082015260600190565b602080825260069082015265085d985d5b1d60d21b604082015260600190565b6020808252818101527f4f776e61626c653a2063616c6c6572206973206e6f7420746865206f776e6572604082015260600190565b602080825260069082015265085cdd1c985d60d21b604082015260600190565b6020808252601f908201527f5265656e7472616e637947756172643a207265656e7472616e742063616c6c00604082015260600190565b600082198211156135da576135da61367c565b500190565b6000826135fa57634e487b7160e01b81526012600452602481fd5b500490565b60008160001904831182151516156136195761361961367c565b500290565b6000828210156136305761363061367c565b500390565b60005b83811015613650578181015183820152602001613638565b83811115612feb5750506000910152565b60006000198214156136755761367561367c565b5060010190565b634e487b7160e01b600052601160045260246000fd5b6001600160a01b0381168114612b8157600080fdfea164736f6c6343000803000a",
  "devdoc": {
    "details": "Implementation of the Master of BALLE. This contract will take care of all rewards calculations and distribution of BALLE tokens in vaults. It's ownable and the owner is the only who can manage the active vaults and it's parameters for rewards distribution. The ownership will be transferred to the Governance GNOSIS Safe.",
    "kind": "dev",
    "methods": {
      "activateVaultRewards(uint256,uint256)": {
        "details": "Function to activate vault rewards. Can only be called by the owner."
      },
      "addVault(address,address)": {
        "details": "Function to add a new vault configuration. Can only be called by the owner."
      },
      "deactivateVaultRewards(uint256)": {
        "details": "Function to deactivate vault rewards. Can only be called by the owner."
      },
      "deposit(uint256,uint256)": {
        "details": "Function that deposits user tokens."
      },
      "depositAll(uint256)": {
        "details": "Function that deposits all user tokens balance."
      },
      "depositTokens(uint256,address)": {
        "details": "View function to see user's deposit tokens on frontend."
      },
      "emergencyWithdraw(uint256)": {
        "details": "Function that withdraws without caring about rewards. EMERGENCY ONLY."
      },
      "getBlockMultiplier(uint256,uint256)": {
        "details": "View function to calculate the reward multiplier over the given _from to _to block."
      },
      "inCaseTokensGetStuck(address,uint256)": {
        "details": "Function to use from Governance GNOSIS Safe only in case tokens get stuck. EMERGENCY ONLY."
      },
      "modifyVaultRewards(uint256,uint256)": {
        "details": "Function to modify vault rewards. Can only be called by the owner."
      },
      "owner()": {
        "details": "Returns the address of the current owner."
      },
      "panicVault(uint256)": {
        "details": "Function to panic vault strategy. Can only be called by the owner."
      },
      "pauseVault(uint256)": {
        "details": "Function to pause vault strategy. Can only be called by the owner."
      },
      "pendingRewards(uint256,address)": {
        "details": "View function to see pending BALLE rewards on frontend."
      },
      "proposeStratUpgrade(uint256,address)": {
        "details": "Function to propose a strategy upgrade. Can only be called by the owner."
      },
      "renounceOwnership()": {
        "details": "Leaves the contract without owner. It will not be possible to call `onlyOwner` functions anymore. Can only be called by the current owner. NOTE: Renouncing ownership will leave the contract without an owner, thereby removing any functionality that is only available to the owner."
      },
      "retireVault(uint256)": {
        "details": "Function to retire vault strategy. Can only be called by the owner."
      },
      "stratUpgrade(uint256,address)": {
        "details": "It switches the active strat for the strat candidate. After upgrading, the candidate implementation is set to the 0x0 address, and proposedTime to 0."
      },
      "transferOwnership(address)": {
        "details": "Transfers ownership of the contract to a new account (`newOwner`). Can only be called by the current owner."
      },
      "unpauseVault(uint256)": {
        "details": "Function to unpause vault strategy. Can only be called by the owner."
      },
      "userDeposit(uint256,address)": {
        "details": "View function to see user's deposited tokens on frontend. This is useful to show the earnings: depositTokens() - userDeposit()"
      },
      "vaultLength()": {
        "details": "View function to get the number of vaults configured."
      },
      "withdraw(uint256,uint256)": {
        "details": "Function that withdraws user tokens."
      },
      "withdrawAll(uint256)": {
        "details": "Function that withdraws all user tokens balance."
      }
    },
    "version": 1
  },
  "userdoc": {
    "kind": "user",
    "methods": {},
    "version": 1
  },
  "storageLayout": {
    "storage": [
      {
        "astId": 7,
        "contract": "contracts/vaults/BalleMaster.sol:BalleMaster",
        "label": "_owner",
        "offset": 0,
        "slot": "0",
        "type": "t_address"
      },
      {
        "astId": 120,
        "contract": "contracts/vaults/BalleMaster.sol:BalleMaster",
        "label": "_status",
        "offset": 0,
        "slot": "1",
        "type": "t_uint256"
      },
      {
        "astId": 5335,
        "contract": "contracts/vaults/BalleMaster.sol:BalleMaster",
        "label": "startBlock",
        "offset": 0,
        "slot": "2",
        "type": "t_uint256"
      },
      {
        "astId": 5337,
        "contract": "contracts/vaults/BalleMaster.sol:BalleMaster",
        "label": "endBlock",
        "offset": 0,
        "slot": "3",
        "type": "t_uint256"
      },
      {
        "astId": 5340,
        "contract": "contracts/vaults/BalleMaster.sol:BalleMaster",
        "label": "totalAllocPoint",
        "offset": 0,
        "slot": "4",
        "type": "t_uint256"
      },
      {
        "astId": 5343,
        "contract": "contracts/vaults/BalleMaster.sol:BalleMaster",
        "label": "balleToMint",
        "offset": 0,
        "slot": "5",
        "type": "t_uint256"
      },
      {
        "astId": 5349,
        "contract": "contracts/vaults/BalleMaster.sol:BalleMaster",
        "label": "vaultInfo",
        "offset": 0,
        "slot": "6",
        "type": "t_array(t_struct(VaultInfo)5319_storage)dyn_storage"
      },
      {
        "astId": 5356,
        "contract": "contracts/vaults/BalleMaster.sol:BalleMaster",
        "label": "userInfo",
        "offset": 0,
        "slot": "7",
        "type": "t_mapping(t_uint256,t_mapping(t_address,t_struct(UserInfo)5326_storage))"
      }
    ],
    "types": {
      "t_address": {
        "encoding": "inplace",
        "label": "address",
        "numberOfBytes": "20"
      },
      "t_array(t_struct(VaultInfo)5319_storage)dyn_storage": {
        "base": "t_struct(VaultInfo)5319_storage",
        "encoding": "dynamic_array",
        "label": "struct BalleMaster.VaultInfo[]",
        "numberOfBytes": "32"
      },
      "t_bool": {
        "encoding": "inplace",
        "label": "bool",
        "numberOfBytes": "1"
      },
      "t_contract(IERC20)734": {
        "encoding": "inplace",
        "label": "contract IERC20",
        "numberOfBytes": "20"
      },
      "t_mapping(t_address,t_struct(UserInfo)5326_storage)": {
        "encoding": "mapping",
        "key": "t_address",
        "label": "mapping(address => struct BalleMaster.UserInfo)",
        "numberOfBytes": "32",
        "value": "t_struct(UserInfo)5326_storage"
      },
      "t_mapping(t_uint256,t_mapping(t_address,t_struct(UserInfo)5326_storage))": {
        "encoding": "mapping",
        "key": "t_uint256",
        "label": "mapping(uint256 => mapping(address => struct BalleMaster.UserInfo))",
        "numberOfBytes": "32",
        "value": "t_mapping(t_address,t_struct(UserInfo)5326_storage)"
      },
      "t_struct(UserInfo)5326_storage": {
        "encoding": "inplace",
        "label": "struct BalleMaster.UserInfo",
        "members": [
          {
            "astId": 5321,
            "contract": "contracts/vaults/BalleMaster.sol:BalleMaster",
            "label": "deposit",
            "offset": 0,
            "slot": "0",
            "type": "t_uint256"
          },
          {
            "astId": 5323,
            "contract": "contracts/vaults/BalleMaster.sol:BalleMaster",
            "label": "shares",
            "offset": 0,
            "slot": "1",
            "type": "t_uint256"
          },
          {
            "astId": 5325,
            "contract": "contracts/vaults/BalleMaster.sol:BalleMaster",
            "label": "rewardDebt",
            "offset": 0,
            "slot": "2",
            "type": "t_uint256"
          }
        ],
        "numberOfBytes": "96"
      },
      "t_struct(VaultInfo)5319_storage": {
        "encoding": "inplace",
        "label": "struct BalleMaster.VaultInfo",
        "members": [
          {
            "astId": 5300,
            "contract": "contracts/vaults/BalleMaster.sol:BalleMaster",
            "label": "depositToken",
            "offset": 0,
            "slot": "0",
            "type": "t_contract(IERC20)734"
          },
          {
            "astId": 5302,
            "contract": "contracts/vaults/BalleMaster.sol:BalleMaster",
            "label": "strat",
            "offset": 0,
            "slot": "1",
            "type": "t_address"
          },
          {
            "astId": 5304,
            "contract": "contracts/vaults/BalleMaster.sol:BalleMaster",
            "label": "proposedStrat",
            "offset": 0,
            "slot": "2",
            "type": "t_address"
          },
          {
            "astId": 5306,
            "contract": "contracts/vaults/BalleMaster.sol:BalleMaster",
            "label": "allocPoint",
            "offset": 0,
            "slot": "3",
            "type": "t_uint256"
          },
          {
            "astId": 5308,
            "contract": "contracts/vaults/BalleMaster.sol:BalleMaster",
            "label": "lastRewardBlock",
            "offset": 0,
            "slot": "4",
            "type": "t_uint256"
          },
          {
            "astId": 5310,
            "contract": "contracts/vaults/BalleMaster.sol:BalleMaster",
            "label": "accBallePerShare",
            "offset": 0,
            "slot": "5",
            "type": "t_uint256"
          },
          {
            "astId": 5312,
            "contract": "contracts/vaults/BalleMaster.sol:BalleMaster",
            "label": "proposedTime",
            "offset": 0,
            "slot": "6",
            "type": "t_uint256"
          },
          {
            "astId": 5314,
            "contract": "contracts/vaults/BalleMaster.sol:BalleMaster",
            "label": "rewardsActive",
            "offset": 0,
            "slot": "7",
            "type": "t_bool"
          },
          {
            "astId": 5316,
            "contract": "contracts/vaults/BalleMaster.sol:BalleMaster",
            "label": "paused",
            "offset": 1,
            "slot": "7",
            "type": "t_bool"
          },
          {
            "astId": 5318,
            "contract": "contracts/vaults/BalleMaster.sol:BalleMaster",
            "label": "retired",
            "offset": 2,
            "slot": "7",
            "type": "t_bool"
          }
        ],
        "numberOfBytes": "256"
      },
      "t_uint256": {
        "encoding": "inplace",
        "label": "uint256",
        "numberOfBytes": "32"
      }
    }
  }
}