{
  "address": "0x56060fAaa55343c14718bC5a63fCdb378Eb38678",
  "abi": [
    {
      "inputs": [
        {
          "internalType": "address",
          "name": "_stakedToken",
          "type": "address"
        },
        {
          "internalType": "address",
          "name": "_rewardToken",
          "type": "address"
        },
        {
          "internalType": "address",
          "name": "_rewardDistribution",
          "type": "address"
        }
      ],
      "stateMutability": "nonpayable",
      "type": "constructor"
    },
    {
      "anonymous": false,
      "inputs": [
        {
          "indexed": true,
          "internalType": "address",
          "name": "user",
          "type": "address"
        },
        {
          "indexed": false,
          "internalType": "uint256",
          "name": "amount",
          "type": "uint256"
        },
        {
          "indexed": false,
          "internalType": "uint256",
          "name": "reward",
          "type": "uint256"
        }
      ],
      "name": "Deposit",
      "type": "event"
    },
    {
      "anonymous": false,
      "inputs": [
        {
          "indexed": true,
          "internalType": "address",
          "name": "user",
          "type": "address"
        },
        {
          "indexed": false,
          "internalType": "uint256",
          "name": "amount",
          "type": "uint256"
        }
      ],
      "name": "EmergencyWithdraw",
      "type": "event"
    },
    {
      "anonymous": false,
      "inputs": [
        {
          "indexed": true,
          "internalType": "address",
          "name": "previousOwner",
          "type": "address"
        },
        {
          "indexed": true,
          "internalType": "address",
          "name": "newOwner",
          "type": "address"
        }
      ],
      "name": "OwnershipTransferred",
      "type": "event"
    },
    {
      "anonymous": false,
      "inputs": [],
      "name": "PoolFinish",
      "type": "event"
    },
    {
      "anonymous": false,
      "inputs": [
        {
          "indexed": false,
          "internalType": "uint256",
          "name": "amount",
          "type": "uint256"
        },
        {
          "indexed": false,
          "internalType": "uint256",
          "name": "numberOfBlocks",
          "type": "uint256"
        },
        {
          "indexed": false,
          "internalType": "uint256",
          "name": "multiplier",
          "type": "uint256"
        }
      ],
      "name": "RewardAdded",
      "type": "event"
    },
    {
      "anonymous": false,
      "inputs": [],
      "name": "RewardsStop",
      "type": "event"
    },
    {
      "anonymous": false,
      "inputs": [
        {
          "indexed": true,
          "internalType": "address",
          "name": "user",
          "type": "address"
        },
        {
          "indexed": false,
          "internalType": "uint256",
          "name": "amount",
          "type": "uint256"
        },
        {
          "indexed": false,
          "internalType": "uint256",
          "name": "reward",
          "type": "uint256"
        }
      ],
      "name": "Withdraw",
      "type": "event"
    },
    {
      "inputs": [],
      "name": "accTokenPerShare",
      "outputs": [
        {
          "internalType": "uint256",
          "name": "",
          "type": "uint256"
        }
      ],
      "stateMutability": "view",
      "type": "function"
    },
    {
      "inputs": [
        {
          "internalType": "uint256",
          "name": "_amount",
          "type": "uint256"
        },
        {
          "internalType": "uint256",
          "name": "_numberOfBlocks",
          "type": "uint256"
        },
        {
          "internalType": "uint256",
          "name": "_multiplier",
          "type": "uint256"
        },
        {
          "internalType": "uint256",
          "name": "_rewardStartBlock",
          "type": "uint256"
        }
      ],
      "name": "addReward",
      "outputs": [],
      "stateMutability": "nonpayable",
      "type": "function"
    },
    {
      "inputs": [
        {
          "internalType": "address",
          "name": "_user",
          "type": "address"
        }
      ],
      "name": "balanceOf",
      "outputs": [
        {
          "internalType": "uint256",
          "name": "",
          "type": "uint256"
        }
      ],
      "stateMutability": "view",
      "type": "function"
    },
    {
      "inputs": [],
      "name": "emergencyWithdraw",
      "outputs": [],
      "stateMutability": "nonpayable",
      "type": "function"
    },
    {
      "inputs": [],
      "name": "extraRewardMultiplier",
      "outputs": [
        {
          "internalType": "uint256",
          "name": "",
          "type": "uint256"
        }
      ],
      "stateMutability": "view",
      "type": "function"
    },
    {
      "inputs": [],
      "name": "finish",
      "outputs": [],
      "stateMutability": "nonpayable",
      "type": "function"
    },
    {
      "inputs": [],
      "name": "finished",
      "outputs": [
        {
          "internalType": "bool",
          "name": "",
          "type": "bool"
        }
      ],
      "stateMutability": "view",
      "type": "function"
    },
    {
      "inputs": [
        {
          "internalType": "address",
          "name": "_token",
          "type": "address"
        },
        {
          "internalType": "uint256",
          "name": "_amount",
          "type": "uint256"
        },
        {
          "internalType": "address",
          "name": "_to",
          "type": "address"
        }
      ],
      "name": "inCaseTokensGetStuck",
      "outputs": [],
      "stateMutability": "nonpayable",
      "type": "function"
    },
    {
      "inputs": [],
      "name": "lastRewardBlock",
      "outputs": [
        {
          "internalType": "uint256",
          "name": "",
          "type": "uint256"
        }
      ],
      "stateMutability": "view",
      "type": "function"
    },
    {
      "inputs": [],
      "name": "owner",
      "outputs": [
        {
          "internalType": "address",
          "name": "",
          "type": "address"
        }
      ],
      "stateMutability": "view",
      "type": "function"
    },
    {
      "inputs": [
        {
          "internalType": "address",
          "name": "_user",
          "type": "address"
        }
      ],
      "name": "pendingReward",
      "outputs": [
        {
          "internalType": "uint256",
          "name": "",
          "type": "uint256"
        }
      ],
      "stateMutability": "view",
      "type": "function"
    },
    {
      "inputs": [],
      "name": "renounceOwnership",
      "outputs": [],
      "stateMutability": "nonpayable",
      "type": "function"
    },
    {
      "inputs": [],
      "name": "rewardDistribution",
      "outputs": [
        {
          "internalType": "address",
          "name": "",
          "type": "address"
        }
      ],
      "stateMutability": "view",
      "type": "function"
    },
    {
      "inputs": [],
      "name": "rewardEndBlock",
      "outputs": [
        {
          "internalType": "uint256",
          "name": "",
          "type": "uint256"
        }
      ],
      "stateMutability": "view",
      "type": "function"
    },
    {
      "inputs": [],
      "name": "rewardPerBlock",
      "outputs": [
        {
          "internalType": "uint256",
          "name": "",
          "type": "uint256"
        }
      ],
      "stateMutability": "view",
      "type": "function"
    },
    {
      "inputs": [],
      "name": "rewardStartBlock",
      "outputs": [
        {
          "internalType": "uint256",
          "name": "",
          "type": "uint256"
        }
      ],
      "stateMutability": "view",
      "type": "function"
    },
    {
      "inputs": [],
      "name": "rewardToken",
      "outputs": [
        {
          "internalType": "address",
          "name": "",
          "type": "address"
        }
      ],
      "stateMutability": "view",
      "type": "function"
    },
    {
      "inputs": [],
      "name": "rewarder",
      "outputs": [
        {
          "internalType": "address",
          "name": "",
          "type": "address"
        }
      ],
      "stateMutability": "view",
      "type": "function"
    },
    {
      "inputs": [],
      "name": "security",
      "outputs": [
        {
          "internalType": "address",
          "name": "",
          "type": "address"
        }
      ],
      "stateMutability": "view",
      "type": "function"
    },
    {
      "inputs": [
        {
          "internalType": "address",
          "name": "_rewardDistribution",
          "type": "address"
        }
      ],
      "name": "setRewardDistribution",
      "outputs": [],
      "stateMutability": "nonpayable",
      "type": "function"
    },
    {
      "inputs": [
        {
          "internalType": "address",
          "name": "_rewarder",
          "type": "address"
        }
      ],
      "name": "setRewarder",
      "outputs": [],
      "stateMutability": "nonpayable",
      "type": "function"
    },
    {
      "inputs": [
        {
          "internalType": "address",
          "name": "_security",
          "type": "address"
        }
      ],
      "name": "setSecurity",
      "outputs": [],
      "stateMutability": "nonpayable",
      "type": "function"
    },
    {
      "inputs": [
        {
          "internalType": "uint256",
          "name": "_amount",
          "type": "uint256"
        }
      ],
      "name": "stake",
      "outputs": [],
      "stateMutability": "nonpayable",
      "type": "function"
    },
    {
      "inputs": [],
      "name": "stakeAll",
      "outputs": [],
      "stateMutability": "nonpayable",
      "type": "function"
    },
    {
      "inputs": [],
      "name": "stakedToken",
      "outputs": [
        {
          "internalType": "address",
          "name": "",
          "type": "address"
        }
      ],
      "stateMutability": "view",
      "type": "function"
    },
    {
      "inputs": [],
      "name": "stopRewards",
      "outputs": [],
      "stateMutability": "nonpayable",
      "type": "function"
    },
    {
      "inputs": [
        {
          "internalType": "address",
          "name": "newOwner",
          "type": "address"
        }
      ],
      "name": "transferOwnership",
      "outputs": [],
      "stateMutability": "nonpayable",
      "type": "function"
    },
    {
      "inputs": [
        {
          "internalType": "address",
          "name": "",
          "type": "address"
        }
      ],
      "name": "userInfo",
      "outputs": [
        {
          "internalType": "uint256",
          "name": "amount",
          "type": "uint256"
        },
        {
          "internalType": "uint256",
          "name": "rewardDebt",
          "type": "uint256"
        }
      ],
      "stateMutability": "view",
      "type": "function"
    },
    {
      "inputs": [
        {
          "internalType": "uint256",
          "name": "_amount",
          "type": "uint256"
        }
      ],
      "name": "withdraw",
      "outputs": [],
      "stateMutability": "nonpayable",
      "type": "function"
    },
    {
      "inputs": [],
      "name": "withdrawAll",
      "outputs": [],
      "stateMutability": "nonpayable",
      "type": "function"
    }
  ],
  "transactionHash": "0x58d2e0f14f8a24c164bd69ad50f429b9882c92351b66acc08885c5c34ac3cdd0",
  "args": [
    "0x43fC744c34b211cD57c6f0d1ddB4EA8BC504541b",
    "0x43fC744c34b211cD57c6f0d1ddB4EA8BC504541b",
    "0xe79D4c20F38C7264F1b6c813394c37d33dAc0e73"
  ],
  "solcInputHash": "360ef9858f9d13e2da8b2e0e5d9f9b58",
  "bytecode": "0x60c06040523480156200001157600080fd5b5060405162001d1d38038062001d1d8339810160408190526200003491620001c1565b600080546001600160a01b031916339081178255604051909182917f8be0079c531659141344cd1fd0a4f28419497f9722a3daafe3b4186f6b6457e0908290a350600180556001600160a01b038316620000c45760405162461bcd60e51b815260206004820152600c60248201526b10b9ba30b5b2b22a37b5b2b760a11b60448201526064015b60405180910390fd5b6001600160a01b0382166200010b5760405162461bcd60e51b815260206004820152600c60248201526b10b932bbb0b9322a37b5b2b760a11b6044820152606401620000bb565b6001600160a01b038116620001635760405162461bcd60e51b815260206004820152601360248201527f21726577617264446973747269627574696f6e000000000000000000000000006044820152606401620000bb565b606092831b6001600160601b03199081166080529190921b1660a052600380546001600160a01b0319166001600160a01b039092169190911790556200020a565b80516001600160a01b0381168114620001bc57600080fd5b919050565b600080600060608486031215620001d6578283fd5b620001e184620001a4565b9250620001f160208501620001a4565b91506200020160408501620001a4565b90509250925092565b60805160601c60a05160601c611aa16200027c600039600081816103f60152818161119d01526113ea0152600081816103860152818161082501528181610a3d01528181610c1e01528181610cbb01528181610f20015281816110840152818161114e01526114840152611aa16000f3fe608060405234801561001057600080fd5b50600436106101da5760003560e01c80638da5cb5b11610104578063cc7a262e116100a2578063f2fde38b11610071578063f2fde38b146103cb578063f40f0f52146103de578063f7c618c1146103f1578063f88073dc14610418576101da565b8063cc7a262e14610381578063d56b2889146103a8578063db2e21bc146103b0578063dcc3e06e146103b8576101da565b8063a694fc3a116100de578063a694fc3a1461033f578063a9f8d18114610352578063b2d2900f1461035b578063bef4876b14610364576101da565b80638da5cb5b1461031d5780638dcb40611461032e5780638f66291514610336576101da565b8063548799181161017c578063715018a61161014b578063715018a6146102fc578063797008c614610304578063853828b61461030c5780638ae39cac14610314576101da565b806354879918146102ac578063604ef2e5146102bf57806367206d40146102d657806370a08231146102e9576101da565b806329206a70116101b857806329206a70146102605780632e1a7d4d146102735780633a6462e4146102865780635222805414610299576101da565b80630d68b761146101df578063101114cf146101f45780631959a00214610224575b600080fd5b6101f26101ed36600461180b565b610421565b005b600354610207906001600160a01b031681565b6040516001600160a01b0390911681526020015b60405180910390f35b61024b61023236600461180b565b600c602052600090815260409020805460019091015482565b6040805192835260208301919091520161021b565b6101f261026e3660046118b0565b61049c565b6101f2610281366004611880565b6106b7565b6101f261029436600461180b565b6106ef565b6101f26102a736600461180b565b610761565b600454610207906001600160a01b031681565b6102c860075481565b60405190815260200161021b565b6101f26102e4366004611825565b6107d3565b6102c86102f736600461180b565b6108a6565b6101f26108c5565b6101f2610939565b6101f26109c3565b6102c860095481565b6000546001600160a01b0316610207565b6101f26109fc565b6102c860055481565b6101f261034d366004611880565b610ac4565b6102c860085481565b6102c860065481565b600d546103719060ff1681565b604051901515815260200161021b565b6102077f000000000000000000000000000000000000000000000000000000000000000081565b6101f2610af5565b6101f2610bba565b600254610207906001600160a01b031681565b6101f26103d936600461180b565b610d23565b6102c86103ec36600461180b565b610e0d565b6102077f000000000000000000000000000000000000000000000000000000000000000081565b6102c8600a5481565b6000546001600160a01b031633146104545760405162461bcd60e51b815260040161044b90611952565b60405180910390fd5b6001600160a01b03811661047a5760405162461bcd60e51b815260040161044b90611987565b600380546001600160a01b0319166001600160a01b0392909216919091179055565b6003546001600160a01b03163314806104bf57506000546001600160a01b031633145b6105015760405162461bcd60e51b815260206004820152601360248201527210b932bbb0b9322234b9ba3934b13aba34b7b760691b604482015260640161044b565b6000841161053b5760405162461bcd60e51b815260206004820152600760248201526608585b5bdd5b9d60ca1b604482015260640161044b565b61708083101561057f5760405162461bcd60e51b815260206004820152600f60248201526e216e756d6265724f66426c6f636b7360881b604482015260640161044b565b60648210156105be5760405162461bcd60e51b815260206004820152600b60248201526a10b6bab63a34b83634b2b960a91b604482015260640161044b565b600d5460ff16156105e15760405162461bcd60e51b815260040161044b90611930565b6105e9610efd565b600754431061061f576105fc83856119fc565b60095560065461061a5780610614574360065561061a565b60068190555b61065e565b60004360075461062f9190611a3b565b90506000600954826106419190611a1c565b90508461064e82886119e4565b61065891906119fc565b60095550505b61066883436119e4565b600755600a82905560408051858152602081018590529081018390527f9795f222c951ae3e749f872dbe287f78d21fa52353e9175cb20ed3aa2b29b82b9060600160405180910390a150505050565b600260015414156106da5760405162461bcd60e51b815260040161044b906119ad565b60026001556106e88161100c565b5060018055565b6000546001600160a01b031633146107195760405162461bcd60e51b815260040161044b90611952565b6001600160a01b03811661073f5760405162461bcd60e51b815260040161044b90611987565b600280546001600160a01b0319166001600160a01b0392909216919091179055565b6000546001600160a01b0316331461078b5760405162461bcd60e51b815260040161044b90611952565b6001600160a01b0381166107b15760405162461bcd60e51b815260040161044b90611987565b600480546001600160a01b0319166001600160a01b0392909216919091179055565b6000546001600160a01b031633146107fd5760405162461bcd60e51b815260040161044b90611952565b6001600160a01b0381166108235760405162461bcd60e51b815260040161044b90611987565b7f00000000000000000000000000000000000000000000000000000000000000006001600160a01b0316836001600160a01b0316141561088d5760405162461bcd60e51b8152602060048201526005602482015264217361666560d81b604482015260640161044b565b6108a16001600160a01b038416828461126f565b505050565b6001600160a01b0381166000908152600c60205260409020545b919050565b6000546001600160a01b031633146108ef5760405162461bcd60e51b815260040161044b90611952565b600080546040516001600160a01b03909116907f8be0079c531659141344cd1fd0a4f28419497f9722a3daafe3b4186f6b6457e0908390a3600080546001600160a01b0319169055565b6000546001600160a01b031633148061095c57506004546001600160a01b031633145b6109945760405162461bcd60e51b815260206004820152600960248201526821736563757269747960b81b604482015260640161044b565b436007556040517f94058b34623ce4d33b7914fefdcc85339cc163f259f46483cb96645c0a140da090600090a1565b600260015414156109e65760405162461bcd60e51b815260040161044b906119ad565b60026001556109f660001961100c565b60018055565b60026001541415610a1f5760405162461bcd60e51b815260040161044b906119ad565b60026001556040516370a0823160e01b81523360048201526109f6907f00000000000000000000000000000000000000000000000000000000000000006001600160a01b0316906370a082319060240160206040518083038186803b158015610a8757600080fd5b505afa158015610a9b573d6000803e3d6000fd5b505050506040513d601f19601f82011682018060405250810190610abf9190611898565b6112d2565b60026001541415610ae75760405162461bcd60e51b815260040161044b906119ad565b60026001556106e8816112d2565b6000546001600160a01b0316331480610b1857506004546001600160a01b031633145b610b505760405162461bcd60e51b815260206004820152600960248201526821736563757269747960b81b604482015260640161044b565b600d5460ff1615610b735760405162461bcd60e51b815260040161044b90611930565b436007541115610b8257436007555b600d805460ff191660011790556040517f884913bf02e252a8fd422bf8f82d3bcc112060d513a34ff41bd395ff82c03d5590600090a1565b60026001541415610bdd5760405162461bcd60e51b815260040161044b906119ad565b60026001908155336000908152600c60205260408120805482825592810191909155908015610ce4576040516370a0823160e01b81523060048201526000907f00000000000000000000000000000000000000000000000000000000000000006001600160a01b0316906370a082319060240160206040518083038186803b158015610c6857600080fd5b505afa158015610c7c573d6000803e3d6000fd5b505050506040513d601f19601f82011682018060405250810190610ca09190611898565b905081811015610cae578091505b610ce26001600160a01b037f000000000000000000000000000000000000000000000000000000000000000016338461126f565b505b815460405190815233907f5fafa99d0643513820be26656b45130b01e1c03062e1266bf36f88cbd3bd96959060200160405180910390a2505060018055565b6000546001600160a01b03163314610d4d5760405162461bcd60e51b815260040161044b90611952565b6001600160a01b038116610db25760405162461bcd60e51b815260206004820152602660248201527f4f776e61626c653a206e6577206f776e657220697320746865207a65726f206160448201526564647265737360d01b606482015260840161044b565b600080546040516001600160a01b03808516939216917f8be0079c531659141344cd1fd0a4f28419497f9722a3daafe3b4186f6b6457e091a3600080546001600160a01b0319166001600160a01b0392909216919091179055565b6001600160a01b0381166000908152600c6020526040812060085443118015610e375750600b5415155b15610ec7576000610e4a60085443611508565b9050600060095482610e5c9190611a1c565b90506000600b548264e8d4a51000610e749190611a1c565b610e7e91906119fc565b600554610e8b91906119e4565b9050836001015464e8d4a51000828660000154610ea89190611a1c565b610eb291906119fc565b610ebc9190611a3b565b9450505050506108c0565b6001810154600554825464e8d4a5100091610ee191611a1c565b610eeb91906119fc565b610ef59190611a3b565b9150506108c0565b6008544311610f0b5761100a565b6040516370a0823160e01b81523060048201527f00000000000000000000000000000000000000000000000000000000000000006001600160a01b0316906370a082319060240160206040518083038186803b158015610f6a57600080fd5b505afa158015610f7e573d6000803e3d6000fd5b505050506040513d601f19601f82011682018060405250810190610fa29190611898565b600b819055610fb4574360085561100a565b6000610fc260085443611508565b9050600060095482610fd49190611a1c565b600b54909150610fe98264e8d4a51000611a1c565b610ff391906119fc565b60055461100091906119e4565b6005555050436008555b565b336000908152600c60205260409020805482111561102957805491505b611031610efd565b6000816001015464e8d4a5100060055484600001546110509190611a1c565b61105a91906119fc565b6110649190611a3b565b90508215611177576040516370a0823160e01b81523060048201526000907f00000000000000000000000000000000000000000000000000000000000000006001600160a01b0316906370a082319060240160206040518083038186803b1580156110ce57600080fd5b505afa1580156110e2573d6000803e3d6000fd5b505050506040513d601f19601f820116820180604052508101906111069190611898565b905083811015611120576000808455600b55925082611141565b825461112d908590611a3b565b8355600b5461113d908590611a3b565b600b555b6111756001600160a01b037f000000000000000000000000000000000000000000000000000000000000000016338661126f565b505b801561120a5760025460405163358d7baf60e11b81523360048201526001600160a01b037f0000000000000000000000000000000000000000000000000000000000000000811660248301526044820184905290911690636b1af75e90606401600060405180830381600087803b1580156111f157600080fd5b505af1158015611205573d6000803e3d6000fd5b505050505b600554825464e8d4a510009161121f91611a1c565b61122991906119fc565b6001830155604080518481526020810183905233917ff279e6a1f5e320cca91135676d9cb6e44ca8a08c0b88342bcdb1144f6511b56891015b60405180910390a2505050565b6040516001600160a01b0383166024820152604481018290526108a190849063a9059cbb60e01b906064015b60408051601f198184030181529190526020810180516001600160e01b03166001600160e01b03199093169290921790915261156a565b6000811161130c5760405162461bcd60e51b815260206004820152600760248201526608585b5bdd5b9d60ca1b604482015260640161044b565b6002546001600160a01b03166113505760405162461bcd60e51b815260206004820152600960248201526810b932bbb0b93232b960b91b604482015260640161044b565b600d5460ff16156113735760405162461bcd60e51b815260040161044b90611930565b336000908152600c6020526040902061138a610efd565b805460009015611457576001820154600554835464e8d4a51000916113ae91611a1c565b6113b891906119fc565b6113c29190611a3b565b905080156114575760025460405163358d7baf60e11b81523360048201526001600160a01b037f0000000000000000000000000000000000000000000000000000000000000000811660248301526044820184905290911690636b1af75e90606401600060405180830381600087803b15801561143e57600080fd5b505af1158015611452573d6000803e3d6000fd5b505050505b81546114649084906119e4565b8255600b546114749084906119e4565b600b556114ac6001600160a01b037f00000000000000000000000000000000000000000000000000000000000000001633308661163c565b600554825464e8d4a51000916114c191611a1c565b6114cb91906119fc565b6001830155604080518481526020810183905233917f90890809c654f11d6e72a28fa60149770a0d11ec6c92319d6ceb2bb0a4ea1a159101611262565b6000600654831161152b5760065482111561152757600654925061152b565b8192505b60075482116115455761153e8383611a3b565b9050611564565b600754831061155657506000611564565b8260075461153e9190611a3b565b92915050565b60006115bf826040518060400160405280602081526020017f5361666545524332303a206c6f772d6c6576656c2063616c6c206661696c6564815250856001600160a01b031661167a9092919063ffffffff16565b8051909150156108a157808060200190518101906115dd9190611860565b6108a15760405162461bcd60e51b815260206004820152602a60248201527f5361666545524332303a204552433230206f7065726174696f6e20646964206e6044820152691bdd081cdd58d8d9595960b21b606482015260840161044b565b6040516001600160a01b03808516602483015283166044820152606481018290526116749085906323b872dd60e01b9060840161129b565b50505050565b60606116898484600085611693565b90505b9392505050565b6060824710156116f45760405162461bcd60e51b815260206004820152602660248201527f416464726573733a20696e73756666696369656e742062616c616e636520666f6044820152651c8818d85b1b60d21b606482015260840161044b565b843b6117425760405162461bcd60e51b815260206004820152601d60248201527f416464726573733a2063616c6c20746f206e6f6e2d636f6e7472616374000000604482015260640161044b565b600080866001600160a01b0316858760405161175e91906118e1565b60006040518083038185875af1925050503d806000811461179b576040519150601f19603f3d011682016040523d82523d6000602084013e6117a0565b606091505b50915091506117b08282866117bb565b979650505050505050565b606083156117ca57508161168c565b8251156117da5782518084602001fd5b8160405162461bcd60e51b815260040161044b91906118fd565b80356001600160a01b03811681146108c057600080fd5b60006020828403121561181c578081fd5b61168c826117f4565b600080600060608486031215611839578182fd5b611842846117f4565b925060208401359150611857604085016117f4565b90509250925092565b600060208284031215611871578081fd5b8151801515811461168c578182fd5b600060208284031215611891578081fd5b5035919050565b6000602082840312156118a9578081fd5b5051919050565b600080600080608085870312156118c5578081fd5b5050823594602084013594506040840135936060013592509050565b600082516118f3818460208701611a52565b9190910192915050565b600060208252825180602084015261191c816040850160208701611a52565b601f01601f19169190910160400192915050565b602080825260089082015267199a5b9a5cda195960c21b604082015260600190565b6020808252818101527f4f776e61626c653a2063616c6c6572206973206e6f7420746865206f776e6572604082015260600190565b6020808252600c908201526b7a65726f206164647265737360a01b604082015260600190565b6020808252601f908201527f5265656e7472616e637947756172643a207265656e7472616e742063616c6c00604082015260600190565b600082198211156119f7576119f7611a7e565b500190565b600082611a1757634e487b7160e01b81526012600452602481fd5b500490565b6000816000190483118215151615611a3657611a36611a7e565b500290565b600082821015611a4d57611a4d611a7e565b500390565b60005b83811015611a6d578181015183820152602001611a55565b838111156116745750506000910152565b634e487b7160e01b600052601160045260246000fdfea164736f6c6343000803000a",
  "devdoc": {
    "details": "Implementation of the BALLE Staking Pool. This pool distributes platform performance fee. The owner of the contract is the Governance Gnosis Safe multisig.",
    "kind": "dev",
    "methods": {
      "addReward(uint256,uint256,uint256,uint256)": {
        "details": "Add reward to distribute. The funds should be transferred to the Rewarder contract.",
        "params": {
          "_amount": ": the reward amount to distribute.",
          "_multiplier": ": extra reward multiplier (100 = 1).",
          "_numberOfBlocks": ": the num of blocks for the period of distribution.",
          "_rewardStartBlock": ": only for the first distribution, start block of rewards."
        }
      },
      "balanceOf(address)": {
        "details": "View function to see total staked value on frontend.",
        "params": {
          "_user": ": user address."
        },
        "returns": {
          "_0": "Total staked for a given user."
        }
      },
      "constructor": {
        "details": "BALLE Rewards staking pool.",
        "params": {
          "_rewardDistribution": ": reward distribution contract address.",
          "_rewardToken": ": reward token address.",
          "_stakedToken": ": staked token address."
        }
      },
      "emergencyWithdraw()": {
        "details": "Withdraw all staked tokens without caring about rewards. EMERGENCY ONLY."
      },
      "finish()": {
        "details": "Finish pool."
      },
      "inCaseTokensGetStuck(address,uint256,address)": {
        "details": "Function to use from Governance Gnosis Safe multisig only in case tokens get stuck. This is to be used if someone, for example, sends tokens to the contract by mistake. There is no guarantee governance will vote to return these."
      },
      "owner()": {
        "details": "Returns the address of the current owner."
      },
      "pendingReward(address)": {
        "details": "View function to see pending reward on frontend.",
        "params": {
          "_user": ": user address."
        },
        "returns": {
          "_0": "Pending reward for a given user."
        }
      },
      "renounceOwnership()": {
        "details": "Leaves the contract without owner. It will not be possible to call `onlyOwner` functions anymore. Can only be called by the current owner. NOTE: Renouncing ownership will leave the contract without an owner, thereby removing any functionality that is only available to the owner."
      },
      "setRewardDistribution(address)": {
        "details": "Function to change the rewardDistribution address."
      },
      "setRewarder(address)": {
        "details": "Function to change the rewarder address."
      },
      "setSecurity(address)": {
        "details": "Function to change the Security Gnosis Safe multisig."
      },
      "stake(uint256)": {
        "details": "Stake tokens to the pool and collect reward tokens (if any).",
        "params": {
          "_amount": ": amount to stake (in stakedToken)."
        }
      },
      "stakeAll()": {
        "details": "Stake all stakedToken balance on user wallet to the pool and collect reward tokens (if any)."
      },
      "stopRewards()": {
        "details": "Stop rewards."
      },
      "transferOwnership(address)": {
        "details": "Transfers ownership of the contract to a new account (`newOwner`). Can only be called by the current owner."
      },
      "withdraw(uint256)": {
        "details": "Withdraw staked tokens and collect reward tokens (if any).",
        "params": {
          "_amount": ": amount to withdraw (in stakedToken)."
        }
      },
      "withdrawAll()": {
        "details": "Withdraw all user's staked tokens and collect reward (if any)."
      }
    },
    "version": 1
  },
  "userdoc": {
    "kind": "user",
    "methods": {},
    "version": 1
  },
  "storageLayout": {
    "storage": [
      {
        "astId": 7,
        "contract": "contracts/staking/BalleStakingPoolV1.sol:BalleStakingPoolV1",
        "label": "_owner",
        "offset": 0,
        "slot": "0",
        "type": "t_address"
      },
      {
        "astId": 120,
        "contract": "contracts/staking/BalleStakingPoolV1.sol:BalleStakingPoolV1",
        "label": "_status",
        "offset": 0,
        "slot": "1",
        "type": "t_uint256"
      },
      {
        "astId": 4690,
        "contract": "contracts/staking/BalleStakingPoolV1.sol:BalleStakingPoolV1",
        "label": "rewarder",
        "offset": 0,
        "slot": "2",
        "type": "t_address"
      },
      {
        "astId": 4692,
        "contract": "contracts/staking/BalleStakingPoolV1.sol:BalleStakingPoolV1",
        "label": "rewardDistribution",
        "offset": 0,
        "slot": "3",
        "type": "t_address"
      },
      {
        "astId": 4694,
        "contract": "contracts/staking/BalleStakingPoolV1.sol:BalleStakingPoolV1",
        "label": "security",
        "offset": 0,
        "slot": "4",
        "type": "t_address"
      },
      {
        "astId": 4696,
        "contract": "contracts/staking/BalleStakingPoolV1.sol:BalleStakingPoolV1",
        "label": "accTokenPerShare",
        "offset": 0,
        "slot": "5",
        "type": "t_uint256"
      },
      {
        "astId": 4698,
        "contract": "contracts/staking/BalleStakingPoolV1.sol:BalleStakingPoolV1",
        "label": "rewardStartBlock",
        "offset": 0,
        "slot": "6",
        "type": "t_uint256"
      },
      {
        "astId": 4700,
        "contract": "contracts/staking/BalleStakingPoolV1.sol:BalleStakingPoolV1",
        "label": "rewardEndBlock",
        "offset": 0,
        "slot": "7",
        "type": "t_uint256"
      },
      {
        "astId": 4702,
        "contract": "contracts/staking/BalleStakingPoolV1.sol:BalleStakingPoolV1",
        "label": "lastRewardBlock",
        "offset": 0,
        "slot": "8",
        "type": "t_uint256"
      },
      {
        "astId": 4704,
        "contract": "contracts/staking/BalleStakingPoolV1.sol:BalleStakingPoolV1",
        "label": "rewardPerBlock",
        "offset": 0,
        "slot": "9",
        "type": "t_uint256"
      },
      {
        "astId": 4706,
        "contract": "contracts/staking/BalleStakingPoolV1.sol:BalleStakingPoolV1",
        "label": "extraRewardMultiplier",
        "offset": 0,
        "slot": "10",
        "type": "t_uint256"
      },
      {
        "astId": 4708,
        "contract": "contracts/staking/BalleStakingPoolV1.sol:BalleStakingPoolV1",
        "label": "totalSupply",
        "offset": 0,
        "slot": "11",
        "type": "t_uint256"
      },
      {
        "astId": 4713,
        "contract": "contracts/staking/BalleStakingPoolV1.sol:BalleStakingPoolV1",
        "label": "userInfo",
        "offset": 0,
        "slot": "12",
        "type": "t_mapping(t_address,t_struct(UserInfo)4684_storage)"
      },
      {
        "astId": 4715,
        "contract": "contracts/staking/BalleStakingPoolV1.sol:BalleStakingPoolV1",
        "label": "finished",
        "offset": 0,
        "slot": "13",
        "type": "t_bool"
      }
    ],
    "types": {
      "t_address": {
        "encoding": "inplace",
        "label": "address",
        "numberOfBytes": "20"
      },
      "t_bool": {
        "encoding": "inplace",
        "label": "bool",
        "numberOfBytes": "1"
      },
      "t_mapping(t_address,t_struct(UserInfo)4684_storage)": {
        "encoding": "mapping",
        "key": "t_address",
        "label": "mapping(address => struct BalleStakingPoolV1.UserInfo)",
        "numberOfBytes": "32",
        "value": "t_struct(UserInfo)4684_storage"
      },
      "t_struct(UserInfo)4684_storage": {
        "encoding": "inplace",
        "label": "struct BalleStakingPoolV1.UserInfo",
        "members": [
          {
            "astId": 4681,
            "contract": "contracts/staking/BalleStakingPoolV1.sol:BalleStakingPoolV1",
            "label": "amount",
            "offset": 0,
            "slot": "0",
            "type": "t_uint256"
          },
          {
            "astId": 4683,
            "contract": "contracts/staking/BalleStakingPoolV1.sol:BalleStakingPoolV1",
            "label": "rewardDebt",
            "offset": 0,
            "slot": "1",
            "type": "t_uint256"
          }
        ],
        "numberOfBytes": "64"
      },
      "t_uint256": {
        "encoding": "inplace",
        "label": "uint256",
        "numberOfBytes": "32"
      }
    }
  }
}