{
  "address": "0x68c70f1054CdE29c57f2dbA092842FaF14A6c6C0",
  "abi": [
    {
      "inputs": [
        {
          "internalType": "contract BALLEv2",
          "name": "_balle",
          "type": "address"
        },
        {
          "internalType": "uint256",
          "name": "_ballePerBlock",
          "type": "uint256"
        },
        {
          "internalType": "uint256",
          "name": "_balleTotalRewards",
          "type": "uint256"
        }
      ],
      "stateMutability": "nonpayable",
      "type": "constructor"
    },
    {
      "anonymous": false,
      "inputs": [
        {
          "indexed": true,
          "internalType": "uint256",
          "name": "vid",
          "type": "uint256"
        },
        {
          "indexed": false,
          "internalType": "uint256",
          "name": "allocPoint",
          "type": "uint256"
        }
      ],
      "name": "ActivateRewards",
      "type": "event"
    },
    {
      "anonymous": false,
      "inputs": [
        {
          "indexed": true,
          "internalType": "uint256",
          "name": "vid",
          "type": "uint256"
        }
      ],
      "name": "DeactivateRewards",
      "type": "event"
    },
    {
      "anonymous": false,
      "inputs": [
        {
          "indexed": true,
          "internalType": "address",
          "name": "user",
          "type": "address"
        },
        {
          "indexed": true,
          "internalType": "uint256",
          "name": "vid",
          "type": "uint256"
        },
        {
          "indexed": false,
          "internalType": "uint256",
          "name": "amount",
          "type": "uint256"
        },
        {
          "indexed": false,
          "internalType": "uint256",
          "name": "rewards",
          "type": "uint256"
        }
      ],
      "name": "Deposit",
      "type": "event"
    },
    {
      "anonymous": false,
      "inputs": [
        {
          "indexed": true,
          "internalType": "address",
          "name": "user",
          "type": "address"
        },
        {
          "indexed": true,
          "internalType": "uint256",
          "name": "vid",
          "type": "uint256"
        },
        {
          "indexed": false,
          "internalType": "uint256",
          "name": "amount",
          "type": "uint256"
        }
      ],
      "name": "EmergencyWithdraw",
      "type": "event"
    },
    {
      "anonymous": false,
      "inputs": [
        {
          "indexed": true,
          "internalType": "uint256",
          "name": "vid",
          "type": "uint256"
        },
        {
          "indexed": false,
          "internalType": "uint256",
          "name": "allocPoint",
          "type": "uint256"
        }
      ],
      "name": "ModifyRewards",
      "type": "event"
    },
    {
      "anonymous": false,
      "inputs": [
        {
          "indexed": true,
          "internalType": "address",
          "name": "previousOwner",
          "type": "address"
        },
        {
          "indexed": true,
          "internalType": "address",
          "name": "newOwner",
          "type": "address"
        }
      ],
      "name": "OwnershipTransferred",
      "type": "event"
    },
    {
      "anonymous": false,
      "inputs": [
        {
          "indexed": true,
          "internalType": "address",
          "name": "user",
          "type": "address"
        },
        {
          "indexed": true,
          "internalType": "uint256",
          "name": "vid",
          "type": "uint256"
        },
        {
          "indexed": false,
          "internalType": "uint256",
          "name": "amount",
          "type": "uint256"
        },
        {
          "indexed": false,
          "internalType": "uint256",
          "name": "rewards",
          "type": "uint256"
        }
      ],
      "name": "Withdraw",
      "type": "event"
    },
    {
      "inputs": [
        {
          "internalType": "uint256",
          "name": "_vid",
          "type": "uint256"
        },
        {
          "internalType": "uint256",
          "name": "_allocPoint",
          "type": "uint256"
        }
      ],
      "name": "activateVaultRewards",
      "outputs": [],
      "stateMutability": "nonpayable",
      "type": "function"
    },
    {
      "inputs": [
        {
          "internalType": "contract IERC20",
          "name": "_depositToken",
          "type": "address"
        },
        {
          "internalType": "contract IERC20",
          "name": "_wantToken",
          "type": "address"
        },
        {
          "internalType": "address",
          "name": "_strat",
          "type": "address"
        }
      ],
      "name": "addVault",
      "outputs": [],
      "stateMutability": "nonpayable",
      "type": "function"
    },
    {
      "inputs": [],
      "name": "balle",
      "outputs": [
        {
          "internalType": "contract BALLEv2",
          "name": "",
          "type": "address"
        }
      ],
      "stateMutability": "view",
      "type": "function"
    },
    {
      "inputs": [],
      "name": "ballePerBlock",
      "outputs": [
        {
          "internalType": "uint256",
          "name": "",
          "type": "uint256"
        }
      ],
      "stateMutability": "view",
      "type": "function"
    },
    {
      "inputs": [],
      "name": "balleToMint",
      "outputs": [
        {
          "internalType": "uint256",
          "name": "",
          "type": "uint256"
        }
      ],
      "stateMutability": "view",
      "type": "function"
    },
    {
      "inputs": [],
      "name": "balleTotalRewards",
      "outputs": [
        {
          "internalType": "uint256",
          "name": "",
          "type": "uint256"
        }
      ],
      "stateMutability": "view",
      "type": "function"
    },
    {
      "inputs": [
        {
          "internalType": "uint256",
          "name": "_vid",
          "type": "uint256"
        }
      ],
      "name": "deactivateVaultRewards",
      "outputs": [],
      "stateMutability": "nonpayable",
      "type": "function"
    },
    {
      "inputs": [
        {
          "internalType": "uint256",
          "name": "_vid",
          "type": "uint256"
        },
        {
          "internalType": "uint256",
          "name": "_amount",
          "type": "uint256"
        }
      ],
      "name": "deposit",
      "outputs": [],
      "stateMutability": "nonpayable",
      "type": "function"
    },
    {
      "inputs": [
        {
          "internalType": "uint256",
          "name": "_vid",
          "type": "uint256"
        }
      ],
      "name": "depositAll",
      "outputs": [],
      "stateMutability": "nonpayable",
      "type": "function"
    },
    {
      "inputs": [
        {
          "internalType": "uint256",
          "name": "_vid",
          "type": "uint256"
        }
      ],
      "name": "emergencyWithdraw",
      "outputs": [],
      "stateMutability": "nonpayable",
      "type": "function"
    },
    {
      "inputs": [],
      "name": "endBlock",
      "outputs": [
        {
          "internalType": "uint256",
          "name": "",
          "type": "uint256"
        }
      ],
      "stateMutability": "view",
      "type": "function"
    },
    {
      "inputs": [
        {
          "internalType": "uint256",
          "name": "_from",
          "type": "uint256"
        },
        {
          "internalType": "uint256",
          "name": "_to",
          "type": "uint256"
        }
      ],
      "name": "getBlockMultiplier",
      "outputs": [
        {
          "internalType": "uint256",
          "name": "",
          "type": "uint256"
        }
      ],
      "stateMutability": "view",
      "type": "function"
    },
    {
      "inputs": [
        {
          "internalType": "address",
          "name": "_token",
          "type": "address"
        },
        {
          "internalType": "uint256",
          "name": "_amount",
          "type": "uint256"
        }
      ],
      "name": "inCaseTokensGetStuck",
      "outputs": [],
      "stateMutability": "nonpayable",
      "type": "function"
    },
    {
      "inputs": [
        {
          "internalType": "uint256",
          "name": "_vid",
          "type": "uint256"
        },
        {
          "internalType": "uint256",
          "name": "_allocPoint",
          "type": "uint256"
        }
      ],
      "name": "modifyVaultRewards",
      "outputs": [],
      "stateMutability": "nonpayable",
      "type": "function"
    },
    {
      "inputs": [],
      "name": "owner",
      "outputs": [
        {
          "internalType": "address",
          "name": "",
          "type": "address"
        }
      ],
      "stateMutability": "view",
      "type": "function"
    },
    {
      "inputs": [
        {
          "internalType": "uint256",
          "name": "_vid",
          "type": "uint256"
        },
        {
          "internalType": "address",
          "name": "_user",
          "type": "address"
        }
      ],
      "name": "pendingBalle",
      "outputs": [
        {
          "internalType": "uint256",
          "name": "",
          "type": "uint256"
        }
      ],
      "stateMutability": "view",
      "type": "function"
    },
    {
      "inputs": [],
      "name": "renounceOwnership",
      "outputs": [],
      "stateMutability": "nonpayable",
      "type": "function"
    },
    {
      "inputs": [
        {
          "internalType": "uint256",
          "name": "_vid",
          "type": "uint256"
        },
        {
          "internalType": "address",
          "name": "_user",
          "type": "address"
        }
      ],
      "name": "stakedTokens",
      "outputs": [
        {
          "internalType": "uint256",
          "name": "",
          "type": "uint256"
        }
      ],
      "stateMutability": "view",
      "type": "function"
    },
    {
      "inputs": [],
      "name": "startBlock",
      "outputs": [
        {
          "internalType": "uint256",
          "name": "",
          "type": "uint256"
        }
      ],
      "stateMutability": "view",
      "type": "function"
    },
    {
      "inputs": [],
      "name": "totalAllocPoint",
      "outputs": [
        {
          "internalType": "uint256",
          "name": "",
          "type": "uint256"
        }
      ],
      "stateMutability": "view",
      "type": "function"
    },
    {
      "inputs": [
        {
          "internalType": "address",
          "name": "newOwner",
          "type": "address"
        }
      ],
      "name": "transferOwnership",
      "outputs": [],
      "stateMutability": "nonpayable",
      "type": "function"
    },
    {
      "inputs": [
        {
          "internalType": "uint256",
          "name": "",
          "type": "uint256"
        },
        {
          "internalType": "address",
          "name": "",
          "type": "address"
        }
      ],
      "name": "userInfo",
      "outputs": [
        {
          "internalType": "uint256",
          "name": "shares",
          "type": "uint256"
        },
        {
          "internalType": "uint256",
          "name": "rewardDebt",
          "type": "uint256"
        }
      ],
      "stateMutability": "view",
      "type": "function"
    },
    {
      "inputs": [
        {
          "internalType": "uint256",
          "name": "",
          "type": "uint256"
        }
      ],
      "name": "vaultInfo",
      "outputs": [
        {
          "internalType": "contract IERC20",
          "name": "depositToken",
          "type": "address"
        },
        {
          "internalType": "contract IERC20",
          "name": "wantToken",
          "type": "address"
        },
        {
          "internalType": "bool",
          "name": "rewardsActive",
          "type": "bool"
        },
        {
          "internalType": "uint256",
          "name": "allocPoint",
          "type": "uint256"
        },
        {
          "internalType": "uint256",
          "name": "lastRewardBlock",
          "type": "uint256"
        },
        {
          "internalType": "uint256",
          "name": "accBallePerShare",
          "type": "uint256"
        },
        {
          "internalType": "address",
          "name": "strat",
          "type": "address"
        }
      ],
      "stateMutability": "view",
      "type": "function"
    },
    {
      "inputs": [],
      "name": "vaultLength",
      "outputs": [
        {
          "internalType": "uint256",
          "name": "",
          "type": "uint256"
        }
      ],
      "stateMutability": "view",
      "type": "function"
    },
    {
      "inputs": [
        {
          "internalType": "uint256",
          "name": "_vid",
          "type": "uint256"
        },
        {
          "internalType": "uint256",
          "name": "_amount",
          "type": "uint256"
        }
      ],
      "name": "withdraw",
      "outputs": [],
      "stateMutability": "nonpayable",
      "type": "function"
    },
    {
      "inputs": [
        {
          "internalType": "uint256",
          "name": "_vid",
          "type": "uint256"
        }
      ],
      "name": "withdrawAll",
      "outputs": [],
      "stateMutability": "nonpayable",
      "type": "function"
    }
  ],
  "transactionHash": "0x662e130a20b3a1580206e02571d36a02fef39b5bcda46af1a02cc77cca18db8e",
  "args": [
    "0x43fC744c34b211cD57c6f0d1ddB4EA8BC504541b",
    "228310502283105",
    "24000000000000000000000"
  ],
  "solcInputHash": "051e042caf338cdcdf6b4b840f5a2f8e",
  "bytecode": "0x6080604052600060075560006008553480156200001b57600080fd5b5060405162002cd538038062002cd58339810160408190526200003e91620000b0565b600080546001600160a01b031916339081178255604051909182917f8be0079c531659141344cd1fd0a4f28419497f9722a3daafe3b4186f6b6457e0908290a35060018055600280546001600160a01b0319166001600160a01b039490941693909317909255600355600455620000f3565b600080600060608486031215620000c5578283fd5b83516001600160a01b0381168114620000dc578384fd5b602085015160409095015190969495509392505050565b612bd280620001036000396000f3fe608060405234801561001057600080fd5b50600436106101ad5760003560e01c80638da5cb5b116100ee578063bc5a247011610097578063ded0da1011610071578063ded0da10146103a2578063e2bbb158146103b5578063f2fde38b146103c8578063f7f460c7146103db576101ad565b8063bc5a247014610369578063c6d758cb1461037c578063c6f678bd1461038f576101ad565b8063958e2d31116100c8578063958e2d3114610330578063acd3d32d14610343578063bc0838fc14610356576101ad565b80638da5cb5b1461026c578063929060d81461029157806393f1a40b146102e9576101ad565b8063441a3e701161015b5780635312ea8e116101355780635312ea8e1461023557806356eeafd9146102485780635ebac9b51461025b578063715018a614610264576101ad565b8063441a3e701461021057806344bd5b4f1461022357806348cd4cb11461022c576101ad565b80632b5b0a971161018c5780632b5b0a97146101ec5780632b68772c146101f5578063360f0730146101fd576101ad565b80629ddce5146101b2578063083c6323146101c757806317caf6f1146101e3575b600080fd5b6101c56101c0366004612a28565b6103ee565b005b6101d060065481565b6040519081526020015b60405180910390f35b6101d060075481565b6101d060085481565b6009546101d0565b6101c561020b3660046129c9565b6106a6565b6101c561021e366004612a28565b6108a2565b6101d060035481565b6101d060055481565b6101c56102433660046129c9565b610949565b6101d06102563660046129f9565b610cc2565b6101d060045481565b6101c5610e52565b6000546001600160a01b03165b6040516001600160a01b0390911681526020016101da565b6102a461029f3660046129c9565b610ee4565b604080516001600160a01b0398891681529688166020880152941515948601949094526060850192909252608084015260a083015290911660c082015260e0016101da565b61031b6102f73660046129f9565b600a6020908152600092835260408084209091529082529020805460019091015482565b604080519283526020830191909152016101da565b6101c561033e3660046129c9565b610f45565b6101d0610351366004612a28565b610fb0565b6101c5610364366004612a28565b611017565b6101d06103773660046129f9565b61121e565b6101c561038a366004612934565b6113b9565b6101c561039d3660046129c9565b61145f565b600254610279906001600160a01b031681565b6101c56103c3366004612a28565b61157b565b6101c56103d6366004612918565b611619565b6101c56103e936600461297f565b611721565b6000546001600160a01b0316331461043b5760405162461bcd60e51b81526020600482018190526024820152600080516020612ba683398151915260448201526064015b60405180910390fd5b600954829081106104775760405162461bcd60e51b8152602060048201526006602482015265085d985d5b1d60d21b6044820152606401610432565b6009838154811061049857634e487b7160e01b600052603260045260246000fd5b906000526020600020906006020160010160149054906101000a900460ff16156104ed5760405162461bcd60e51b815260206004820152600660248201526561637469766560d01b6044820152606401610432565b6000821161052b5760405162461bcd60e51b815260206004820152600b60248201526a08585b1b1bd8dc1bda5b9d60aa1b6044820152606401610432565b6105336118f7565b60055461055f574360055560035460045461054e9190612add565b60055461055b9190612ac5565b6006555b600754439061056f908490612ac5565b600781905550826009858154811061059757634e487b7160e01b600052603260045260246000fd5b90600052602060002090600602016002018190555080600985815481106105ce57634e487b7160e01b600052603260045260246000fd5b90600052602060002090600602016003018190555060016009858154811061060657634e487b7160e01b600052603260045260246000fd5b906000526020600020906006020160010160146101000a81548160ff02191690831515021790555060006009858154811061065157634e487b7160e01b600052603260045260246000fd5b906000526020600020906006020160040181905550837fba13fd9b2f2ae67565b95a27e65b1e9ebf5b1d3be4d048c3327b5037f022816b8460405161069891815260200190565b60405180910390a250505050565b6000546001600160a01b031633146106ee5760405162461bcd60e51b81526020600482018190526024820152600080516020612ba68339815191526044820152606401610432565b6009548190811061072a5760405162461bcd60e51b8152602060048201526006602482015265085d985d5b1d60d21b6044820152606401610432565b6009828154811061074b57634e487b7160e01b600052603260045260246000fd5b906000526020600020906006020160010160149054906101000a900460ff166107a05760405162461bcd60e51b81526020600482015260076024820152662161637469766560c81b6044820152606401610432565b6107a86118f7565b600982815481106107c957634e487b7160e01b600052603260045260246000fd5b9060005260206000209060060201600201546007546107e89190612b1c565b60078190555060006009838154811061081157634e487b7160e01b600052603260045260246000fd5b90600052602060002090600602016002018190555060006009838154811061084957634e487b7160e01b600052603260045260246000fd5b6000918252602082206001600690920201018054921515600160a01b0260ff60a01b199093169290921790915560405183917fb8b83da790f78135db4aec46ee97590874ea01f3cd58912bb00f308d072fda2691a25050565b600260015414156108f55760405162461bcd60e51b815260206004820152601f60248201527f5265656e7472616e637947756172643a207265656e7472616e742063616c6c006044820152606401610432565b6002600155600954829081106109365760405162461bcd60e51b8152602060048201526006602482015265085d985d5b1d60d21b6044820152606401610432565b610940838361191e565b50506001805550565b6002600154141561099c5760405162461bcd60e51b815260206004820152601f60248201527f5265656e7472616e637947756172643a207265656e7472616e742063616c6c006044820152606401610432565b6002600155600954819081106109dd5760405162461bcd60e51b8152602060048201526006602482015265085d985d5b1d60d21b6044820152606401610432565b600060098381548110610a0057634e487b7160e01b600052603260045260246000fd5b60009182526020808320868452600a8252604080852033865283528085206006949094029091016005810154825163256d706d60e11b815292519196509394936001600160a01b031692634adae0da9260048082019391829003018186803b158015610a6b57600080fd5b505afa158015610a7f573d6000803e3d6000fd5b505050506040513d601f19601f82011682018060405250810190610aa391906129e1565b905060008360050160009054906101000a90046001600160a01b03166001600160a01b03166344a3955e6040518163ffffffff1660e01b815260040160206040518083038186803b158015610af757600080fd5b505afa158015610b0b573d6000803e3d6000fd5b505050506040513d601f19601f82011682018060405250810190610b2f91906129e1565b9050600081838560000154610b449190612afd565b610b4e9190612add565b600080865560018601556005860154604051632e1a7d4d60e01b8152600481018390529192506001600160a01b031690632e1a7d4d90602401606060405180830381600087803b158015610ba157600080fd5b505af1158015610bb5573d6000803e3d6000fd5b505050506040513d601f19601f82011682018060405250810190610bd99190612a49565b505085546040516370a0823160e01b8152306004820152600092506001600160a01b03909116906370a082319060240160206040518083038186803b158015610c2157600080fd5b505afa158015610c35573d6000803e3d6000fd5b505050506040513d601f19601f82011682018060405250810190610c5991906129e1565b905081811015610c67578091505b8554610c7d906001600160a01b03163384611df0565b604051828152889033907fbb757047c2b5f3974fe26b7c10f732e7bce710b0952a71082702781e62ae05959060200160405180910390a3505060018055505050505050565b60008060098481548110610ce657634e487b7160e01b600052603260045260246000fd5b60009182526020808320878452600a825260408085206001600160a01b03808a16875290845281862060056006909602909301948501548251632251caaf60e11b815292519597509295949216926344a3955e92600480840193829003018186803b158015610d5457600080fd5b505afa158015610d68573d6000803e3d6000fd5b505050506040513d601f19601f82011682018060405250810190610d8c91906129e1565b905060008360050160009054906101000a90046001600160a01b03166001600160a01b0316634adae0da6040518163ffffffff1660e01b815260040160206040518083038186803b158015610de057600080fd5b505afa158015610df4573d6000803e3d6000fd5b505050506040513d601f19601f82011682018060405250810190610e1891906129e1565b905081610e2c576000945050505050610e4c565b82548290610e3b908390612afd565b610e459190612add565b9450505050505b92915050565b6000546001600160a01b03163314610e9a5760405162461bcd60e51b81526020600482018190526024820152600080516020612ba68339815191526044820152606401610432565b600080546040516001600160a01b03909116907f8be0079c531659141344cd1fd0a4f28419497f9722a3daafe3b4186f6b6457e0908390a3600080546001600160a01b0319169055565b60098181548110610ef457600080fd5b60009182526020909120600690910201805460018201546002830154600384015460048501546005909501546001600160a01b03948516965084841695600160a01b90940460ff1694929391921687565b60026001541415610f985760405162461bcd60e51b815260206004820152601f60248201527f5265656e7472616e637947756172643a207265656e7472616e742063616c6c006044820152606401610432565b6002600155610fa98160001961191e565b5060018055565b600082821015610fc257506000610e4c565b600554821015610fd457506000610e4c565b600654831115610fe657506000610e4c565b600554831015610ff65760055492505b6006548211156110065760065491505b6110108383612b1c565b9392505050565b6000546001600160a01b0316331461105f5760405162461bcd60e51b81526020600482018190526024820152600080516020612ba68339815191526044820152606401610432565b6009548290811061109b5760405162461bcd60e51b8152602060048201526006602482015265085d985d5b1d60d21b6044820152606401610432565b600983815481106110bc57634e487b7160e01b600052603260045260246000fd5b906000526020600020906006020160010160149054906101000a900460ff166111115760405162461bcd60e51b81526020600482015260076024820152662161637469766560c81b6044820152606401610432565b6000821161114f5760405162461bcd60e51b815260206004820152600b60248201526a08585b1b1bd8dc1bda5b9d60aa1b6044820152606401610432565b6111576118f7565b816009848154811061117957634e487b7160e01b600052603260045260246000fd5b9060005260206000209060060201600201546007546111989190612b1c565b6111a29190612ac5565b60078190555081600984815481106111ca57634e487b7160e01b600052603260045260246000fd5b906000526020600020906006020160020181905550827f54ca8df74b9602d422d5c5e11eece496fd3d57504eba7dec5915ef0171c896168360405161121191815260200190565b60405180910390a2505050565b6000806009848154811061124257634e487b7160e01b600052603260045260246000fd5b60009182526020808320878452600a825260408085206001600160a01b03898116875290845281862060069590950290920160048181015460058301548451632251caaf60e11b815294519399509697909690959416936344a3955e9380830193919290829003018186803b1580156112ba57600080fd5b505afa1580156112ce573d6000803e3d6000fd5b505050506040513d601f19601f820116820180604052508101906112f291906129e1565b6001850154909150600160a01b900460ff1680156113135750836003015443115b801561131e57508015155b1561138c576000611333856003015443610fb0565b9050600060075486600201546003548461134d9190612afd565b6113579190612afd565b6113619190612add565b9050826113738264e8d4a51000612afd565b61137d9190612add565b6113879085612ac5565b935050505b6001830154835464e8d4a51000906113a5908590612afd565b6113af9190612add565b610e459190612b1c565b6000546001600160a01b031633146114015760405162461bcd60e51b81526020600482018190526024820152600080516020612ba68339815191526044820152606401610432565b6002546001600160a01b03838116911614156114475760405162461bcd60e51b8152602060048201526005602482015264217361666560d81b6044820152606401610432565b61145b6001600160a01b0383163383611df0565b5050565b600260015414156114b25760405162461bcd60e51b815260206004820152601f60248201527f5265656e7472616e637947756172643a207265656e7472616e742063616c6c006044820152606401610432565b60026001819055506000600982815481106114dd57634e487b7160e01b600052603260045260246000fd5b6000918252602090912060069091020180546040516370a0823160e01b81523360048201529192506115739184916001600160a01b0316906370a082319060240160206040518083038186803b15801561153657600080fd5b505afa15801561154a573d6000803e3d6000fd5b505050506040513d601f19601f8201168201806040525081019061156e91906129e1565b611e85565b505060018055565b600260015414156115ce5760405162461bcd60e51b815260206004820152601f60248201527f5265656e7472616e637947756172643a207265656e7472616e742063616c6c006044820152606401610432565b60026001556009548290811061160f5760405162461bcd60e51b8152602060048201526006602482015265085d985d5b1d60d21b6044820152606401610432565b6109408383611e85565b6000546001600160a01b031633146116615760405162461bcd60e51b81526020600482018190526024820152600080516020612ba68339815191526044820152606401610432565b6001600160a01b0381166116c65760405162461bcd60e51b815260206004820152602660248201527f4f776e61626c653a206e6577206f776e657220697320746865207a65726f206160448201526564647265737360d01b6064820152608401610432565b600080546040516001600160a01b03808516939216917f8be0079c531659141344cd1fd0a4f28419497f9722a3daafe3b4186f6b6457e091a3600080546001600160a01b0319166001600160a01b0392909216919091179055565b6000546001600160a01b031633146117695760405162461bcd60e51b81526020600482018190526024820152600080516020612ba68339815191526044820152606401610432565b6040805160e0810182526001600160a01b039485168152928416602084019081526000918401828152606085018381526080860184815260a0870185815295881660c08801908152600980546001810182559652965160069095027f6e1540171b6c0c960b71a7020d9f60077f6af931a8bbf590da0223dacf75c7af81018054968a166001600160a01b031997881617905593517f6e1540171b6c0c960b71a7020d9f60077f6af931a8bbf590da0223dacf75c7b08501805494511515600160a01b0274ffffffffffffffffffffffffffffffffffffffffff19909516918a169190911793909317909255517f6e1540171b6c0c960b71a7020d9f60077f6af931a8bbf590da0223dacf75c7b1830155517f6e1540171b6c0c960b71a7020d9f60077f6af931a8bbf590da0223dacf75c7b282015591517f6e1540171b6c0c960b71a7020d9f60077f6af931a8bbf590da0223dacf75c7b383015591517f6e1540171b6c0c960b71a7020d9f60077f6af931a8bbf590da0223dacf75c7b49091018054919093169116179055565b60095460005b8181101561145b5761190e81612090565b61191781612b5f565b90506118fd565b61192782612090565b60006009838154811061194a57634e487b7160e01b600052603260045260246000fd5b60009182526020808320868452600a8252604080852033865283528085206006949094029091016005810154825163256d706d60e11b815292519196509394936001600160a01b031692634adae0da9260048082019391829003018186803b1580156119b557600080fd5b505afa1580156119c9573d6000803e3d6000fd5b505050506040513d601f19601f820116820180604052508101906119ed91906129e1565b905060008360050160009054906101000a90046001600160a01b03166001600160a01b03166344a3955e6040518163ffffffff1660e01b815260040160206040518083038186803b158015611a4157600080fd5b505afa158015611a55573d6000803e3d6000fd5b505050506040513d601f19601f82011682018060405250810190611a7991906129e1565b905060008111611aba5760405162461bcd60e51b815260206004820152600c60248201526b085cda185c995cd51bdd185b60a21b6044820152606401610432565b8254611af75760405162461bcd60e51b815260206004820152600c60248201526b21757365722e73686172657360a01b6044820152606401610432565b6000836001015464e8d4a5100086600401548660000154611b189190612afd565b611b229190612add565b611b2c9190612b1c565b90508015611b3e57611b3e3382612223565b600082848660000154611b519190612afd565b611b5b9190612add565b905080871115611b69578096505b8615611d83576005860154604051632e1a7d4d60e01b815260048101899052600091829182916001600160a01b031690632e1a7d4d90602401606060405180830381600087803b158015611bbc57600080fd5b505af1158015611bd0573d6000803e3d6000fd5b505050506040513d601f19601f82011682018060405250810190611bf49190612a49565b9250925092508760000154831115611c0f5760008855611c1f565b8754611c1c908490612b1c565b88555b88546040516370a0823160e01b81523060048201526000916001600160a01b0316906370a082319060240160206040518083038186803b158015611c6257600080fd5b505afa158015611c76573d6000803e3d6000fd5b505050506040513d601f19601f82011682018060405250810190611c9a91906129e1565b905082811015611ca8578092505b8954611cbe906001600160a01b03163385611df0565b60018a01548a546001600160a01b03908116911614611d7e5760018a01546040516370a0823160e01b81523060048201526000916001600160a01b0316906370a082319060240160206040518083038186803b158015611d1d57600080fd5b505afa158015611d31573d6000803e3d6000fd5b505050506040513d601f19601f82011682018060405250810190611d5591906129e1565b905082811015611d63578092505b60018b0154611d7c906001600160a01b03163385611df0565b505b505050505b6004860154855464e8d4a5100091611d9a91612afd565b611da49190612add565b60018601556040805188815260208101849052899133917f02f25270a4d87bea75db541cdfe559334a275b4a233520ed6c0a2429667cca94910160405180910390a35050505050505050565b6040516001600160a01b038316602482015260448101829052611e8090849063a9059cbb60e01b906064015b60408051601f198184030181529190526020810180517bffffffffffffffffffffffffffffffffffffffffffffffffffffffff167fffffffff00000000000000000000000000000000000000000000000000000000909316929092179091526125d5565b505050565b611e8e82612090565b600060098381548110611eb157634e487b7160e01b600052603260045260246000fd5b60009182526020808320868452600a82526040808520338652909252908320805460069093029091019350919015611f255760018201546004840154835464e8d4a5100091611eff91612afd565b611f099190612add565b611f139190612b1c565b90508015611f2557611f253382612223565b8315612026578254611f42906001600160a01b03163330876126a7565b60058301548354611f60916001600160a01b039182169116866126df565b600060098681548110611f8357634e487b7160e01b600052603260045260246000fd5b600091825260209091206006909102016005015460405163b6b55f2560e01b8152600481018790526001600160a01b039091169063b6b55f2590602401602060405180830381600087803b158015611fda57600080fd5b505af1158015611fee573d6000803e3d6000fd5b505050506040513d601f19601f8201168201806040525081019061201291906129e1565b8354909150612022908290612ac5565b8355505b6004830154825464e8d4a510009161203d91612afd565b6120479190612add565b60018301556040805185815260208101839052869133917f36af321ec8d3c75236829c5317affd40ddb308863a1236d2d277a4025cccee1e910160405180910390a35050505050565b6000600982815481106120b357634e487b7160e01b600052603260045260246000fd5b906000526020600020906006020190508060010160149054906101000a900460ff166120df5750612220565b806003015443116120f05750612220565b600581015460408051632251caaf60e11b815290516000926001600160a01b0316916344a3955e916004808301926020929190829003018186803b15801561213757600080fd5b505afa15801561214b573d6000803e3d6000fd5b505050506040513d601f19601f8201168201806040525081019061216f91906129e1565b905080612183575043600390910155612220565b6000612193836003015443610fb0565b9050600081116121a557505050612220565b60006007548460020154600354846121bd9190612afd565b6121c79190612afd565b6121d19190612add565b9050806008546121e19190612ac5565b600855826121f48264e8d4a51000612afd565b6121fe9190612add565b846004015461220d9190612ac5565b6004850155505043600390920191909155505b50565b6002546040516370a0823160e01b81523060048201526000916001600160a01b0316906370a082319060240160206040518083038186803b15801561226757600080fd5b505afa15801561227b573d6000803e3d6000fd5b505050506040513d601f19601f8201168201806040525081019061229f91906129e1565b90508082111561254957600854156124bc576002546008546040516340c10f1960e01b815230600482015260248101919091526001600160a01b03909116906340c10f1990604401600060405180830381600087803b15801561230157600080fd5b505af1158015612315573d6000803e3d6000fd5b5050600060085550506002546040516370a0823160e01b81523060048201526001600160a01b03909116906370a082319060240160206040518083038186803b15801561236157600080fd5b505afa158015612375573d6000803e3d6000fd5b505050506040513d601f19601f8201168201806040525081019061239991906129e1565b90508082111561242f5760025460405163a9059cbb60e01b81526001600160a01b038581166004830152602482018490529091169063a9059cbb90604401602060405180830381600087803b1580156123f157600080fd5b505af1158015612405573d6000803e3d6000fd5b505050506040513d601f19601f82011682018060405250810190612429919061295f565b506124b7565b60025460405163a9059cbb60e01b81526001600160a01b038581166004830152602482018590529091169063a9059cbb90604401602060405180830381600087803b15801561247d57600080fd5b505af1158015612491573d6000803e3d6000fd5b505050506040513d601f19601f820116820180604052508101906124b5919061295f565b505b612544565b60025460405163a9059cbb60e01b81526001600160a01b038581166004830152602482018490529091169063a9059cbb90604401602060405180830381600087803b15801561250a57600080fd5b505af115801561251e573d6000803e3d6000fd5b505050506040513d601f19601f82011682018060405250810190612542919061295f565b505b611e80565b60025460405163a9059cbb60e01b81526001600160a01b038581166004830152602482018590529091169063a9059cbb90604401602060405180830381600087803b15801561259757600080fd5b505af11580156125ab573d6000803e3d6000fd5b505050506040513d601f19601f820116820180604052508101906125cf919061295f565b50505050565b600061262a826040518060400160405280602081526020017f5361666545524332303a206c6f772d6c6576656c2063616c6c206661696c6564815250856001600160a01b03166127a09092919063ffffffff16565b805190915015611e805780806020019051810190612648919061295f565b611e805760405162461bcd60e51b815260206004820152602a60248201527f5361666545524332303a204552433230206f7065726174696f6e20646964206e6044820152691bdd081cdd58d8d9595960b21b6064820152608401610432565b6040516001600160a01b03808516602483015283166044820152606481018290526125cf9085906323b872dd60e01b90608401611e1c565b604051636eb1769f60e11b81523060048201526001600160a01b038381166024830152600091839186169063dd62ed3e9060440160206040518083038186803b15801561272b57600080fd5b505afa15801561273f573d6000803e3d6000fd5b505050506040513d601f19601f8201168201806040525081019061276391906129e1565b61276d9190612ac5565b6040516001600160a01b0385166024820152604481018290529091506125cf90859063095ea7b360e01b90606401611e1c565b60606127af84846000856127b7565b949350505050565b6060824710156128185760405162461bcd60e51b815260206004820152602660248201527f416464726573733a20696e73756666696369656e742062616c616e636520666f6044820152651c8818d85b1b60d21b6064820152608401610432565b843b6128665760405162461bcd60e51b815260206004820152601d60248201527f416464726573733a2063616c6c20746f206e6f6e2d636f6e74726163740000006044820152606401610432565b600080866001600160a01b031685876040516128829190612a76565b60006040518083038185875af1925050503d80600081146128bf576040519150601f19603f3d011682016040523d82523d6000602084013e6128c4565b606091505b50915091506128d48282866128df565b979650505050505050565b606083156128ee575081611010565b8251156128fe5782518084602001fd5b8160405162461bcd60e51b81526004016104329190612a92565b600060208284031215612929578081fd5b813561101081612b90565b60008060408385031215612946578081fd5b823561295181612b90565b946020939093013593505050565b600060208284031215612970578081fd5b81518015158114611010578182fd5b600080600060608486031215612993578081fd5b833561299e81612b90565b925060208401356129ae81612b90565b915060408401356129be81612b90565b809150509250925092565b6000602082840312156129da578081fd5b5035919050565b6000602082840312156129f2578081fd5b5051919050565b60008060408385031215612a0b578182fd5b823591506020830135612a1d81612b90565b809150509250929050565b60008060408385031215612a3a578182fd5b50508035926020909101359150565b600080600060608486031215612a5d578283fd5b8351925060208401519150604084015190509250925092565b60008251612a88818460208701612b33565b9190910192915050565b6000602082528251806020840152612ab1816040850160208701612b33565b601f01601f19169190910160400192915050565b60008219821115612ad857612ad8612b7a565b500190565b600082612af857634e487b7160e01b81526012600452602481fd5b500490565b6000816000190483118215151615612b1757612b17612b7a565b500290565b600082821015612b2e57612b2e612b7a565b500390565b60005b83811015612b4e578181015183820152602001612b36565b838111156125cf5750506000910152565b6000600019821415612b7357612b73612b7a565b5060010190565b634e487b7160e01b600052601160045260246000fd5b6001600160a01b038116811461222057600080fdfe4f776e61626c653a2063616c6c6572206973206e6f7420746865206f776e6572a164736f6c6343000803000a",
  "devdoc": {
    "details": "Implementation of the Master of BALLE. This contract will take care of all rewards calculations and distribution of BALLE tokens in vaults. It's ownable and the owner is the only who can manage the active vaults and it's parameters for rewards distribution. The ownership will be transferred to the Governance GNOSIS Safe.",
    "kind": "dev",
    "methods": {
      "activateVaultRewards(uint256,uint256)": {
        "details": "Function to activate vault rewards. Can only be called by the owner."
      },
      "addVault(address,address,address)": {
        "details": "Function to add a new vault configuration. Can only be called by the owner."
      },
      "deactivateVaultRewards(uint256)": {
        "details": "Function to deactivate vault rewards. Can only be called by the owner."
      },
      "deposit(uint256,uint256)": {
        "details": "Function that deposits user tokens."
      },
      "depositAll(uint256)": {
        "details": "Function that deposits all user tokens balance."
      },
      "emergencyWithdraw(uint256)": {
        "details": "Function that withdraws without caring about rewards. EMERGENCY ONLY."
      },
      "getBlockMultiplier(uint256,uint256)": {
        "details": "View function to calculate the reward multiplier over the given _from to _to block."
      },
      "inCaseTokensGetStuck(address,uint256)": {
        "details": "Function to use from Governance GNOSIS Safe only in case tokens get stuck. EMERGENCY ONLY."
      },
      "modifyVaultRewards(uint256,uint256)": {
        "details": "Function to modify vault rewards. Can only be called by the owner."
      },
      "owner()": {
        "details": "Returns the address of the current owner."
      },
      "pendingBalle(uint256,address)": {
        "details": "View function to see pending BALLE on frontend."
      },
      "renounceOwnership()": {
        "details": "Leaves the contract without owner. It will not be possible to call `onlyOwner` functions anymore. Can only be called by the current owner. NOTE: Renouncing ownership will leave the contract without an owner, thereby removing any functionality that is only available to the owner."
      },
      "stakedTokens(uint256,address)": {
        "details": "View function to see staked (LP) tokens on frontend."
      },
      "transferOwnership(address)": {
        "details": "Transfers ownership of the contract to a new account (`newOwner`). Can only be called by the current owner."
      },
      "vaultLength()": {
        "details": "View function to get the number of vaults configured."
      },
      "withdraw(uint256,uint256)": {
        "details": "Function that withdraws user tokens."
      },
      "withdrawAll(uint256)": {
        "details": "Function that withdraws all user tokens balance."
      }
    },
    "version": 1
  },
  "userdoc": {
    "kind": "user",
    "methods": {},
    "version": 1
  },
  "storageLayout": {
    "storage": [
      {
        "astId": 7,
        "contract": "contracts/vaults/BalleMaster.sol:BalleMaster",
        "label": "_owner",
        "offset": 0,
        "slot": "0",
        "type": "t_address"
      },
      {
        "astId": 120,
        "contract": "contracts/vaults/BalleMaster.sol:BalleMaster",
        "label": "_status",
        "offset": 0,
        "slot": "1",
        "type": "t_uint256"
      },
      {
        "astId": 2377,
        "contract": "contracts/vaults/BalleMaster.sol:BalleMaster",
        "label": "balle",
        "offset": 0,
        "slot": "2",
        "type": "t_contract(BALLEv2)2217"
      },
      {
        "astId": 2379,
        "contract": "contracts/vaults/BalleMaster.sol:BalleMaster",
        "label": "ballePerBlock",
        "offset": 0,
        "slot": "3",
        "type": "t_uint256"
      },
      {
        "astId": 2381,
        "contract": "contracts/vaults/BalleMaster.sol:BalleMaster",
        "label": "balleTotalRewards",
        "offset": 0,
        "slot": "4",
        "type": "t_uint256"
      },
      {
        "astId": 2383,
        "contract": "contracts/vaults/BalleMaster.sol:BalleMaster",
        "label": "startBlock",
        "offset": 0,
        "slot": "5",
        "type": "t_uint256"
      },
      {
        "astId": 2385,
        "contract": "contracts/vaults/BalleMaster.sol:BalleMaster",
        "label": "endBlock",
        "offset": 0,
        "slot": "6",
        "type": "t_uint256"
      },
      {
        "astId": 2388,
        "contract": "contracts/vaults/BalleMaster.sol:BalleMaster",
        "label": "totalAllocPoint",
        "offset": 0,
        "slot": "7",
        "type": "t_uint256"
      },
      {
        "astId": 2391,
        "contract": "contracts/vaults/BalleMaster.sol:BalleMaster",
        "label": "balleToMint",
        "offset": 0,
        "slot": "8",
        "type": "t_uint256"
      },
      {
        "astId": 2395,
        "contract": "contracts/vaults/BalleMaster.sol:BalleMaster",
        "label": "vaultInfo",
        "offset": 0,
        "slot": "9",
        "type": "t_array(t_struct(VaultInfo)2369_storage)dyn_storage"
      },
      {
        "astId": 2402,
        "contract": "contracts/vaults/BalleMaster.sol:BalleMaster",
        "label": "userInfo",
        "offset": 0,
        "slot": "10",
        "type": "t_mapping(t_uint256,t_mapping(t_address,t_struct(UserInfo)2374_storage))"
      }
    ],
    "types": {
      "t_address": {
        "encoding": "inplace",
        "label": "address",
        "numberOfBytes": "20"
      },
      "t_array(t_struct(VaultInfo)2369_storage)dyn_storage": {
        "base": "t_struct(VaultInfo)2369_storage",
        "encoding": "dynamic_array",
        "label": "struct BalleMaster.VaultInfo[]",
        "numberOfBytes": "32"
      },
      "t_bool": {
        "encoding": "inplace",
        "label": "bool",
        "numberOfBytes": "1"
      },
      "t_contract(BALLEv2)2217": {
        "encoding": "inplace",
        "label": "contract BALLEv2",
        "numberOfBytes": "20"
      },
      "t_contract(IERC20)728": {
        "encoding": "inplace",
        "label": "contract IERC20",
        "numberOfBytes": "20"
      },
      "t_mapping(t_address,t_struct(UserInfo)2374_storage)": {
        "encoding": "mapping",
        "key": "t_address",
        "label": "mapping(address => struct BalleMaster.UserInfo)",
        "numberOfBytes": "32",
        "value": "t_struct(UserInfo)2374_storage"
      },
      "t_mapping(t_uint256,t_mapping(t_address,t_struct(UserInfo)2374_storage))": {
        "encoding": "mapping",
        "key": "t_uint256",
        "label": "mapping(uint256 => mapping(address => struct BalleMaster.UserInfo))",
        "numberOfBytes": "32",
        "value": "t_mapping(t_address,t_struct(UserInfo)2374_storage)"
      },
      "t_struct(UserInfo)2374_storage": {
        "encoding": "inplace",
        "label": "struct BalleMaster.UserInfo",
        "members": [
          {
            "astId": 2371,
            "contract": "contracts/vaults/BalleMaster.sol:BalleMaster",
            "label": "shares",
            "offset": 0,
            "slot": "0",
            "type": "t_uint256"
          },
          {
            "astId": 2373,
            "contract": "contracts/vaults/BalleMaster.sol:BalleMaster",
            "label": "rewardDebt",
            "offset": 0,
            "slot": "1",
            "type": "t_uint256"
          }
        ],
        "numberOfBytes": "64"
      },
      "t_struct(VaultInfo)2369_storage": {
        "encoding": "inplace",
        "label": "struct BalleMaster.VaultInfo",
        "members": [
          {
            "astId": 2355,
            "contract": "contracts/vaults/BalleMaster.sol:BalleMaster",
            "label": "depositToken",
            "offset": 0,
            "slot": "0",
            "type": "t_contract(IERC20)728"
          },
          {
            "astId": 2358,
            "contract": "contracts/vaults/BalleMaster.sol:BalleMaster",
            "label": "wantToken",
            "offset": 0,
            "slot": "1",
            "type": "t_contract(IERC20)728"
          },
          {
            "astId": 2360,
            "contract": "contracts/vaults/BalleMaster.sol:BalleMaster",
            "label": "rewardsActive",
            "offset": 20,
            "slot": "1",
            "type": "t_bool"
          },
          {
            "astId": 2362,
            "contract": "contracts/vaults/BalleMaster.sol:BalleMaster",
            "label": "allocPoint",
            "offset": 0,
            "slot": "2",
            "type": "t_uint256"
          },
          {
            "astId": 2364,
            "contract": "contracts/vaults/BalleMaster.sol:BalleMaster",
            "label": "lastRewardBlock",
            "offset": 0,
            "slot": "3",
            "type": "t_uint256"
          },
          {
            "astId": 2366,
            "contract": "contracts/vaults/BalleMaster.sol:BalleMaster",
            "label": "accBallePerShare",
            "offset": 0,
            "slot": "4",
            "type": "t_uint256"
          },
          {
            "astId": 2368,
            "contract": "contracts/vaults/BalleMaster.sol:BalleMaster",
            "label": "strat",
            "offset": 0,
            "slot": "5",
            "type": "t_address"
          }
        ],
        "numberOfBytes": "192"
      },
      "t_uint256": {
        "encoding": "inplace",
        "label": "uint256",
        "numberOfBytes": "32"
      }
    }
  }
}