{
  "address": "0x0F99AB43b2356446014eaFb575Fe7d96BCF5C2Ae",
  "abi": [
    {
      "inputs": [
        {
          "internalType": "contract BALLEv2",
          "name": "_balle",
          "type": "address"
        },
        {
          "internalType": "uint256",
          "name": "_ballePerBlock",
          "type": "uint256"
        },
        {
          "internalType": "uint256",
          "name": "_balleTotalRewards",
          "type": "uint256"
        }
      ],
      "stateMutability": "nonpayable",
      "type": "constructor"
    },
    {
      "anonymous": false,
      "inputs": [
        {
          "indexed": true,
          "internalType": "uint256",
          "name": "vid",
          "type": "uint256"
        },
        {
          "indexed": false,
          "internalType": "uint256",
          "name": "allocPoint",
          "type": "uint256"
        }
      ],
      "name": "ActivateRewards",
      "type": "event"
    },
    {
      "anonymous": false,
      "inputs": [
        {
          "indexed": true,
          "internalType": "uint256",
          "name": "vid",
          "type": "uint256"
        }
      ],
      "name": "DeactivateRewards",
      "type": "event"
    },
    {
      "anonymous": false,
      "inputs": [
        {
          "indexed": true,
          "internalType": "address",
          "name": "user",
          "type": "address"
        },
        {
          "indexed": true,
          "internalType": "uint256",
          "name": "vid",
          "type": "uint256"
        },
        {
          "indexed": false,
          "internalType": "uint256",
          "name": "amount",
          "type": "uint256"
        },
        {
          "indexed": false,
          "internalType": "uint256",
          "name": "rewards",
          "type": "uint256"
        }
      ],
      "name": "Deposit",
      "type": "event"
    },
    {
      "anonymous": false,
      "inputs": [
        {
          "indexed": true,
          "internalType": "uint256",
          "name": "vid",
          "type": "uint256"
        },
        {
          "indexed": true,
          "internalType": "address",
          "name": "strat",
          "type": "address"
        }
      ],
      "name": "EmergencyStratUpgrade",
      "type": "event"
    },
    {
      "anonymous": false,
      "inputs": [
        {
          "indexed": true,
          "internalType": "address",
          "name": "user",
          "type": "address"
        },
        {
          "indexed": true,
          "internalType": "uint256",
          "name": "vid",
          "type": "uint256"
        },
        {
          "indexed": false,
          "internalType": "uint256",
          "name": "amount",
          "type": "uint256"
        }
      ],
      "name": "EmergencyWithdraw",
      "type": "event"
    },
    {
      "anonymous": false,
      "inputs": [
        {
          "indexed": true,
          "internalType": "uint256",
          "name": "vid",
          "type": "uint256"
        },
        {
          "indexed": false,
          "internalType": "uint256",
          "name": "allocPoint",
          "type": "uint256"
        }
      ],
      "name": "ModifyRewards",
      "type": "event"
    },
    {
      "anonymous": false,
      "inputs": [
        {
          "indexed": true,
          "internalType": "address",
          "name": "previousOwner",
          "type": "address"
        },
        {
          "indexed": true,
          "internalType": "address",
          "name": "newOwner",
          "type": "address"
        }
      ],
      "name": "OwnershipTransferred",
      "type": "event"
    },
    {
      "anonymous": false,
      "inputs": [
        {
          "indexed": true,
          "internalType": "uint256",
          "name": "vid",
          "type": "uint256"
        }
      ],
      "name": "PanicVault",
      "type": "event"
    },
    {
      "anonymous": false,
      "inputs": [
        {
          "indexed": true,
          "internalType": "uint256",
          "name": "vid",
          "type": "uint256"
        }
      ],
      "name": "PauseVault",
      "type": "event"
    },
    {
      "anonymous": false,
      "inputs": [
        {
          "indexed": true,
          "internalType": "uint256",
          "name": "vid",
          "type": "uint256"
        }
      ],
      "name": "RetireVault",
      "type": "event"
    },
    {
      "anonymous": false,
      "inputs": [
        {
          "indexed": true,
          "internalType": "uint256",
          "name": "vid",
          "type": "uint256"
        }
      ],
      "name": "UnpauseVault",
      "type": "event"
    },
    {
      "anonymous": false,
      "inputs": [
        {
          "indexed": true,
          "internalType": "address",
          "name": "user",
          "type": "address"
        },
        {
          "indexed": true,
          "internalType": "uint256",
          "name": "vid",
          "type": "uint256"
        },
        {
          "indexed": false,
          "internalType": "uint256",
          "name": "amount",
          "type": "uint256"
        },
        {
          "indexed": false,
          "internalType": "uint256",
          "name": "rewards",
          "type": "uint256"
        }
      ],
      "name": "Withdraw",
      "type": "event"
    },
    {
      "inputs": [
        {
          "internalType": "uint256",
          "name": "_vid",
          "type": "uint256"
        },
        {
          "internalType": "uint256",
          "name": "_allocPoint",
          "type": "uint256"
        }
      ],
      "name": "activateVaultRewards",
      "outputs": [],
      "stateMutability": "nonpayable",
      "type": "function"
    },
    {
      "inputs": [
        {
          "internalType": "address",
          "name": "_depositToken",
          "type": "address"
        },
        {
          "internalType": "address",
          "name": "_strat",
          "type": "address"
        }
      ],
      "name": "addVault",
      "outputs": [],
      "stateMutability": "nonpayable",
      "type": "function"
    },
    {
      "inputs": [],
      "name": "balle",
      "outputs": [
        {
          "internalType": "contract BALLEv2",
          "name": "",
          "type": "address"
        }
      ],
      "stateMutability": "view",
      "type": "function"
    },
    {
      "inputs": [],
      "name": "ballePerBlock",
      "outputs": [
        {
          "internalType": "uint256",
          "name": "",
          "type": "uint256"
        }
      ],
      "stateMutability": "view",
      "type": "function"
    },
    {
      "inputs": [],
      "name": "balleToMint",
      "outputs": [
        {
          "internalType": "uint256",
          "name": "",
          "type": "uint256"
        }
      ],
      "stateMutability": "view",
      "type": "function"
    },
    {
      "inputs": [],
      "name": "balleTotalRewards",
      "outputs": [
        {
          "internalType": "uint256",
          "name": "",
          "type": "uint256"
        }
      ],
      "stateMutability": "view",
      "type": "function"
    },
    {
      "inputs": [
        {
          "internalType": "uint256",
          "name": "_vid",
          "type": "uint256"
        }
      ],
      "name": "deactivateVaultRewards",
      "outputs": [],
      "stateMutability": "nonpayable",
      "type": "function"
    },
    {
      "inputs": [
        {
          "internalType": "uint256",
          "name": "_vid",
          "type": "uint256"
        },
        {
          "internalType": "uint256",
          "name": "_amount",
          "type": "uint256"
        }
      ],
      "name": "deposit",
      "outputs": [],
      "stateMutability": "nonpayable",
      "type": "function"
    },
    {
      "inputs": [
        {
          "internalType": "uint256",
          "name": "_vid",
          "type": "uint256"
        }
      ],
      "name": "depositAll",
      "outputs": [],
      "stateMutability": "nonpayable",
      "type": "function"
    },
    {
      "inputs": [
        {
          "internalType": "uint256",
          "name": "_vid",
          "type": "uint256"
        },
        {
          "internalType": "address",
          "name": "_user",
          "type": "address"
        }
      ],
      "name": "depositTokens",
      "outputs": [
        {
          "internalType": "uint256",
          "name": "",
          "type": "uint256"
        }
      ],
      "stateMutability": "view",
      "type": "function"
    },
    {
      "inputs": [
        {
          "internalType": "uint256",
          "name": "_vid",
          "type": "uint256"
        }
      ],
      "name": "emergencyWithdraw",
      "outputs": [],
      "stateMutability": "nonpayable",
      "type": "function"
    },
    {
      "inputs": [],
      "name": "endBlock",
      "outputs": [
        {
          "internalType": "uint256",
          "name": "",
          "type": "uint256"
        }
      ],
      "stateMutability": "view",
      "type": "function"
    },
    {
      "inputs": [
        {
          "internalType": "uint256",
          "name": "_from",
          "type": "uint256"
        },
        {
          "internalType": "uint256",
          "name": "_to",
          "type": "uint256"
        }
      ],
      "name": "getBlockMultiplier",
      "outputs": [
        {
          "internalType": "uint256",
          "name": "",
          "type": "uint256"
        }
      ],
      "stateMutability": "view",
      "type": "function"
    },
    {
      "inputs": [
        {
          "internalType": "address",
          "name": "_token",
          "type": "address"
        },
        {
          "internalType": "uint256",
          "name": "_amount",
          "type": "uint256"
        },
        {
          "internalType": "address",
          "name": "_to",
          "type": "address"
        }
      ],
      "name": "inCaseTokensGetStuck",
      "outputs": [],
      "stateMutability": "nonpayable",
      "type": "function"
    },
    {
      "inputs": [
        {
          "internalType": "uint256",
          "name": "_vid",
          "type": "uint256"
        },
        {
          "internalType": "uint256",
          "name": "_allocPoint",
          "type": "uint256"
        }
      ],
      "name": "modifyVaultRewards",
      "outputs": [],
      "stateMutability": "nonpayable",
      "type": "function"
    },
    {
      "inputs": [],
      "name": "operations",
      "outputs": [
        {
          "internalType": "address",
          "name": "",
          "type": "address"
        }
      ],
      "stateMutability": "view",
      "type": "function"
    },
    {
      "inputs": [],
      "name": "owner",
      "outputs": [
        {
          "internalType": "address",
          "name": "",
          "type": "address"
        }
      ],
      "stateMutability": "view",
      "type": "function"
    },
    {
      "inputs": [
        {
          "internalType": "uint256",
          "name": "_vid",
          "type": "uint256"
        }
      ],
      "name": "panicVault",
      "outputs": [],
      "stateMutability": "nonpayable",
      "type": "function"
    },
    {
      "inputs": [
        {
          "internalType": "uint256",
          "name": "_vid",
          "type": "uint256"
        }
      ],
      "name": "pauseVault",
      "outputs": [],
      "stateMutability": "nonpayable",
      "type": "function"
    },
    {
      "inputs": [
        {
          "internalType": "uint256",
          "name": "_vid",
          "type": "uint256"
        },
        {
          "internalType": "address",
          "name": "_user",
          "type": "address"
        }
      ],
      "name": "pendingRewards",
      "outputs": [
        {
          "internalType": "uint256",
          "name": "",
          "type": "uint256"
        }
      ],
      "stateMutability": "view",
      "type": "function"
    },
    {
      "inputs": [],
      "name": "renounceOwnership",
      "outputs": [],
      "stateMutability": "nonpayable",
      "type": "function"
    },
    {
      "inputs": [
        {
          "internalType": "uint256",
          "name": "_vid",
          "type": "uint256"
        }
      ],
      "name": "retireVault",
      "outputs": [],
      "stateMutability": "nonpayable",
      "type": "function"
    },
    {
      "inputs": [],
      "name": "security",
      "outputs": [
        {
          "internalType": "address",
          "name": "",
          "type": "address"
        }
      ],
      "stateMutability": "view",
      "type": "function"
    },
    {
      "inputs": [
        {
          "internalType": "address",
          "name": "_operations",
          "type": "address"
        }
      ],
      "name": "setOperations",
      "outputs": [],
      "stateMutability": "nonpayable",
      "type": "function"
    },
    {
      "inputs": [
        {
          "internalType": "address",
          "name": "_security",
          "type": "address"
        }
      ],
      "name": "setSecurity",
      "outputs": [],
      "stateMutability": "nonpayable",
      "type": "function"
    },
    {
      "inputs": [],
      "name": "startBlock",
      "outputs": [
        {
          "internalType": "uint256",
          "name": "",
          "type": "uint256"
        }
      ],
      "stateMutability": "view",
      "type": "function"
    },
    {
      "inputs": [],
      "name": "totalAllocPoint",
      "outputs": [
        {
          "internalType": "uint256",
          "name": "",
          "type": "uint256"
        }
      ],
      "stateMutability": "view",
      "type": "function"
    },
    {
      "inputs": [
        {
          "internalType": "address",
          "name": "newOwner",
          "type": "address"
        }
      ],
      "name": "transferOwnership",
      "outputs": [],
      "stateMutability": "nonpayable",
      "type": "function"
    },
    {
      "inputs": [
        {
          "internalType": "uint256",
          "name": "_vid",
          "type": "uint256"
        }
      ],
      "name": "unpauseVault",
      "outputs": [],
      "stateMutability": "nonpayable",
      "type": "function"
    },
    {
      "inputs": [
        {
          "internalType": "uint256",
          "name": "_vid",
          "type": "uint256"
        },
        {
          "internalType": "address",
          "name": "_user",
          "type": "address"
        }
      ],
      "name": "userDeposit",
      "outputs": [
        {
          "internalType": "uint256",
          "name": "",
          "type": "uint256"
        }
      ],
      "stateMutability": "view",
      "type": "function"
    },
    {
      "inputs": [
        {
          "internalType": "uint256",
          "name": "",
          "type": "uint256"
        },
        {
          "internalType": "address",
          "name": "",
          "type": "address"
        }
      ],
      "name": "userInfo",
      "outputs": [
        {
          "internalType": "uint256",
          "name": "deposit",
          "type": "uint256"
        },
        {
          "internalType": "uint256",
          "name": "shares",
          "type": "uint256"
        },
        {
          "internalType": "uint256",
          "name": "rewardDebt",
          "type": "uint256"
        }
      ],
      "stateMutability": "view",
      "type": "function"
    },
    {
      "inputs": [
        {
          "internalType": "uint256",
          "name": "",
          "type": "uint256"
        }
      ],
      "name": "vaultInfo",
      "outputs": [
        {
          "internalType": "contract IERC20",
          "name": "depositToken",
          "type": "address"
        },
        {
          "internalType": "address",
          "name": "strat",
          "type": "address"
        },
        {
          "internalType": "uint256",
          "name": "allocPoint",
          "type": "uint256"
        },
        {
          "internalType": "uint256",
          "name": "lastRewardBlock",
          "type": "uint256"
        },
        {
          "internalType": "uint256",
          "name": "accBallePerShare",
          "type": "uint256"
        },
        {
          "internalType": "bool",
          "name": "rewardsActive",
          "type": "bool"
        },
        {
          "internalType": "bool",
          "name": "paused",
          "type": "bool"
        },
        {
          "internalType": "bool",
          "name": "retired",
          "type": "bool"
        }
      ],
      "stateMutability": "view",
      "type": "function"
    },
    {
      "inputs": [],
      "name": "vaultLength",
      "outputs": [
        {
          "internalType": "uint256",
          "name": "",
          "type": "uint256"
        }
      ],
      "stateMutability": "view",
      "type": "function"
    },
    {
      "inputs": [
        {
          "internalType": "uint256",
          "name": "_vid",
          "type": "uint256"
        },
        {
          "internalType": "uint256",
          "name": "_amount",
          "type": "uint256"
        }
      ],
      "name": "withdraw",
      "outputs": [],
      "stateMutability": "nonpayable",
      "type": "function"
    },
    {
      "inputs": [
        {
          "internalType": "uint256",
          "name": "_vid",
          "type": "uint256"
        }
      ],
      "name": "withdrawAll",
      "outputs": [],
      "stateMutability": "nonpayable",
      "type": "function"
    }
  ],
  "transactionHash": "0x36a6ae26e1c222d99261472a60bb36db2e5b9f7bc597248308f1991ad5f2bf21",
  "args": [
    "0x43fC744c34b211cD57c6f0d1ddB4EA8BC504541b",
    "228310502283105",
    "24000000000000000000000"
  ],
  "solcInputHash": "d7ef9fff6bd1976c8624b8a20001dc82",
  "bytecode": "0x60e0604052600060045560006005553480156200001b57600080fd5b506040516200361d3803806200361d8339810160408190526200003e91620000a2565b600080546001600160a01b031916339081178255604051909182917f8be0079c531659141344cd1fd0a4f28419497f9722a3daafe3b4186f6b6457e0908290a3506001805560609290921b6001600160601b03191660805260a05260c052620000e5565b600080600060608486031215620000b7578283fd5b83516001600160a01b0381168114620000ce578384fd5b602085015160409095015190969495509392505050565b60805160601c60a05160c0516134b16200016c6000396000818161036b01526106bb0152600081816102c40152818161069a01528181611ab301526128dd01526000818161050a015281816113450152818161298501528181612a3301528181612ab401528181612b5701528181612bfd01528181612ca40152612d4b01526134b16000f3fe608060405234801561001057600080fd5b50600436106102105760003560e01c80635ebac9b511610125578063bc0838fc116100ad578063d18df53c1161007c578063d18df53c146104f2578063ded0da1014610505578063e2bbb1581461052c578063ec3a78231461053f578063f2fde38b1461055257610210565b8063bc0838fc146104a6578063c150ad1a146104b9578063c32c1e65146104cc578063c6f678bd146104df57610210565b80638da5cb5b116100f45780638da5cb5b146103bb578063929060d8146103cc57806393f1a40b1461042b578063958e2d3114610480578063acd3d32d1461049357610210565b80635ebac9b51461036657806367206d401461038d578063715018a6146103a05780638b33b4b2146103a857610210565b80633f6770f8116101a85780634b30b422116101775780634b30b422146102ef5780634f6300a21461030257806352228054146103155780635312ea8e14610328578063548799181461033b57610210565b80633f6770f814610299578063441a3e70146102ac57806344bd5b4f146102bf57806348cd4cb1146102e657610210565b80631ab69eb2116101e45780631ab69eb2146102625780632b5b0a97146102755780632b68772c1461027e578063360f07301461028657610210565b80629ddce51461021557806304da17761461022a578063083c63231461025057806317caf6f114610259575b600080fd5b610228610223366004613220565b610565565b005b61023d6102383660046131fc565b61076b565b6040519081526020015b60405180910390f35b61023d60035481565b61023d60045481565b6102286102703660046131cc565b610795565b61023d60055481565b60085461023d565b6102286102943660046131cc565b610919565b6102286102a73660046131cc565b610a34565b6102286102ba366004613220565b610bb8565b61023d7f000000000000000000000000000000000000000000000000000000000000000081565b61023d60025481565b6102286102fd3660046131cc565b610c16565b61023d6103103660046131fc565b610db6565b6102286103233660046130fb565b610f46565b6102286103363660046131cc565b610fb8565b60075461034e906001600160a01b031681565b6040516001600160a01b039091168152602001610247565b61023d7f000000000000000000000000000000000000000000000000000000000000000081565b61022861039b36600461316b565b6112f3565b6102286113c6565b60065461034e906001600160a01b031681565b6000546001600160a01b031661034e565b6103df6103da3660046131cc565b61143a565b604080516001600160a01b03998a1681529890971660208901529587019490945260608601929092526080850152151560a0840152151560c0830152151560e082015261010001610247565b6104656104393660046131fc565b600960209081526000928352604080842090915290825290208054600182015460029092015490919083565b60408051938452602084019290925290820152606001610247565b61022861048e3660046131cc565b6114a3565b61023d6104a1366004613220565b6114de565b6102286104b4366004613220565b611535565b6102286104c73660046131cc565b611699565b6102286104da3660046130fb565b611839565b6102286104ed3660046131cc565b6118ab565b61023d6105003660046131fc565b611997565b61034e7f000000000000000000000000000000000000000000000000000000000000000081565b61022861053a366004613220565b611b4b565b61022861054d366004613133565b611ba0565b6102286105603660046130fb565b611e7c565b6006546001600160a01b031633148061058857506000546001600160a01b031633145b6105ad5760405162461bcd60e51b81526004016105a4906132ed565b60405180910390fd5b600854829081106105d05760405162461bcd60e51b81526004016105a490613312565b6000600884815481106105f357634e487b7160e01b600052603260045260246000fd5b60009182526020909120600690910201600581015490915060ff16156106445760405162461bcd60e51b815260206004820152600660248201526561637469766560d01b60448201526064016105a4565b600083116106825760405162461bcd60e51b815260206004820152600b60248201526a08585b1b1bd8dc1bda5b9d60aa1b60448201526064016105a4565b61068a611f66565b6002546106f057436002556106df7f00000000000000000000000000000000000000000000000000000000000000007f00000000000000000000000000000000000000000000000000000000000000006133dc565b6002546106ec91906133c4565b6003555b60045443906107009085906133c4565b6004908155600283018590556003830182905560058301805460ff1916600117905560009083015560405185907fba13fd9b2f2ae67565b95a27e65b1e9ebf5b1d3be4d048c3327b5037f022816b9061075c9087815260200190565b60405180910390a25050505050565b60008281526009602090815260408083206001600160a01b03851684529091529020545b92915050565b6006546001600160a01b03163314806107b857506000546001600160a01b031633145b6107d45760405162461bcd60e51b81526004016105a4906132ed565b600854819081106107f75760405162461bcd60e51b81526004016105a490613312565b60006008838154811061081a57634e487b7160e01b600052603260045260246000fd5b906000526020600020906006020190508060050160019054906101000a900460ff166108725760405162461bcd60e51b8152602060048201526007602482015266085c185d5cd95960ca1b60448201526064016105a4565b8060010160009054906101000a90046001600160a01b03166001600160a01b0316633f4ba83a6040518163ffffffff1660e01b8152600401600060405180830381600087803b1580156108c457600080fd5b505af11580156108d8573d6000803e3d6000fd5b50505060058201805461ff00191690555060405183907ff0e9a7ca64cb0a05f6f08c4e5889a1553af34e656e524ca3f7d7da67e5ae071390600090a2505050565b6006546001600160a01b031633148061093c57506000546001600160a01b031633145b6109585760405162461bcd60e51b81526004016105a4906132ed565b6008548190811061097b5760405162461bcd60e51b81526004016105a490613312565b60006008838154811061099e57634e487b7160e01b600052603260045260246000fd5b60009182526020909120600690910201600581015490915060ff166109d55760405162461bcd60e51b81526004016105a4906132cc565b6109dd611f66565b80600201546004546109ef919061341b565b60045560006002820181905560058201805460ff1916905560405184917fb8b83da790f78135db4aec46ee97590874ea01f3cd58912bb00f308d072fda2691a2505050565b6006546001600160a01b0316331480610a5757506000546001600160a01b031633145b610a735760405162461bcd60e51b81526004016105a4906132ed565b60085481908110610a965760405162461bcd60e51b81526004016105a490613312565b600060088381548110610ab957634e487b7160e01b600052603260045260246000fd5b906000526020600020906006020190508060050160029054906101000a900460ff1615610af85760405162461bcd60e51b81526004016105a4906132cc565b8060010160009054906101000a90046001600160a01b03166001600160a01b031663a4874d776040518163ffffffff1660e01b8152600401600060405180830381600087803b158015610b4a57600080fd5b505af1158015610b5e573d6000803e3d6000fd5b505050506005810180546201000062ff00001982161790915560ff1615610b8857610b8883610919565b60405183907f774f9a1333327bdc185469e0e44bfcf9df7f8fd96ab10acb8132ecc0b474c3cc90600090a2505050565b60026001541415610bdb5760405162461bcd60e51b81526004016105a49061338d565b600260015560085482908110610c035760405162461bcd60e51b81526004016105a490613312565b610c0d8383611f91565b50506001805550565b6006546001600160a01b0316331480610c3957506000546001600160a01b031633145b80610c4e57506007546001600160a01b031633145b610c865760405162461bcd60e51b815260206004820152600960248201526821736563757269747960b81b60448201526064016105a4565b60085481908110610ca95760405162461bcd60e51b81526004016105a490613312565b600060088381548110610ccc57634e487b7160e01b600052603260045260246000fd5b906000526020600020906006020190508060050160019054906101000a900460ff1615610d0b5760405162461bcd60e51b81526004016105a4906132cc565b8060010160009054906101000a90046001600160a01b03166001600160a01b0316634700d3056040518163ffffffff1660e01b8152600401600060405180830381600087803b158015610d5d57600080fd5b505af1158015610d71573d6000803e3d6000fd5b50505060058201805461ff0019166101001790555060405183907f24f9af3d65d1b908bfe521985a4182e283f3ecdd85f728ccd2f47b8e1a93df9890600090a2505050565b60008060088481548110610dda57634e487b7160e01b600052603260045260246000fd5b600091825260208083208784526009825260408085206001600160a01b03808a16875290845281862060016006909602909301948501548251632251caaf60e11b815292519597509295949216926344a3955e92600480840193829003018186803b158015610e4857600080fd5b505afa158015610e5c573d6000803e3d6000fd5b505050506040513d601f19601f82011682018060405250810190610e8091906131e4565b905060008360010160009054906101000a90046001600160a01b03166001600160a01b0316634adae0da6040518163ffffffff1660e01b815260040160206040518083038186803b158015610ed457600080fd5b505afa158015610ee8573d6000803e3d6000fd5b505050506040513d601f19601f82011682018060405250810190610f0c91906131e4565b905081610f2057600094505050505061078f565b81818460010154610f3191906133fc565b610f3b91906133dc565b979650505050505050565b6000546001600160a01b03163314610f705760405162461bcd60e51b81526004016105a490613332565b6001600160a01b038116610f965760405162461bcd60e51b81526004016105a490613367565b600780546001600160a01b0319166001600160a01b0392909216919091179055565b60026001541415610fdb5760405162461bcd60e51b81526004016105a49061338d565b6002600155600854819081106110035760405162461bcd60e51b81526004016105a490613312565b60006008838154811061102657634e487b7160e01b600052603260045260246000fd5b6000918252602080832086845260098252604080852033865283528085206006949094029091016001810154825163256d706d60e11b815292519196509394936001600160a01b031692634adae0da9260048082019391829003018186803b15801561109157600080fd5b505afa1580156110a5573d6000803e3d6000fd5b505050506040513d601f19601f820116820180604052508101906110c991906131e4565b905060008360010160009054906101000a90046001600160a01b03166001600160a01b03166344a3955e6040518163ffffffff1660e01b815260040160206040518083038186803b15801561111d57600080fd5b505afa158015611131573d6000803e3d6000fd5b505050506040513d601f19601f8201168201806040525081019061115591906131e4565b905060008183856001015461116a91906133fc565b61117491906133dc565b60006001808701829055818755600287019190915586015460405163f3fef3a360e01b81529192506001600160a01b03169063f3fef3a3906111bc9033908590600401613280565b6040805180830381600087803b1580156111d557600080fd5b505af11580156111e9573d6000803e3d6000fd5b505050506040513d601f19601f8201168201806040525081019061120d9190613241565b505084546040516370a0823160e01b81523060048201526000916001600160a01b0316906370a082319060240160206040518083038186803b15801561125257600080fd5b505afa158015611266573d6000803e3d6000fd5b505050506040513d601f19601f8201168201806040525081019061128a91906131e4565b905081811015611298578091505b85546112ae906001600160a01b031633846123e9565b604051828152889033907fbb757047c2b5f3974fe26b7c10f732e7bce710b0952a71082702781e62ae05959060200160405180910390a3505060018055505050505050565b6000546001600160a01b0316331461131d5760405162461bcd60e51b81526004016105a490613332565b6001600160a01b0381166113435760405162461bcd60e51b81526004016105a490613367565b7f00000000000000000000000000000000000000000000000000000000000000006001600160a01b0316836001600160a01b031614156113ad5760405162461bcd60e51b8152602060048201526005602482015264217361666560d81b60448201526064016105a4565b6113c16001600160a01b03841682846123e9565b505050565b6000546001600160a01b031633146113f05760405162461bcd60e51b81526004016105a490613332565b600080546040516001600160a01b03909116907f8be0079c531659141344cd1fd0a4f28419497f9722a3daafe3b4186f6b6457e0908390a3600080546001600160a01b0319169055565b6008818154811061144a57600080fd5b60009182526020909120600690910201805460018201546002830154600384015460048501546005909501546001600160a01b0394851696509390921693909260ff808216916101008104821691620100009091041688565b600260015414156114c65760405162461bcd60e51b81526004016105a49061338d565b60026001556114d781600019611f91565b5060018055565b60006002548210156114f25750600061078f565b6003548311156115045750600061078f565b6002548310156115145760025492505b6003548211156115245760035491505b61152e838361341b565b9392505050565b6006546001600160a01b031633148061155857506000546001600160a01b031633145b6115745760405162461bcd60e51b81526004016105a4906132ed565b600854829081106115975760405162461bcd60e51b81526004016105a490613312565b6000600884815481106115ba57634e487b7160e01b600052603260045260246000fd5b60009182526020909120600690910201600581015490915060ff166115f15760405162461bcd60e51b81526004016105a4906132cc565b6000831161162f5760405162461bcd60e51b815260206004820152600b60248201526a08585b1b1bd8dc1bda5b9d60aa1b60448201526064016105a4565b611637611f66565b82816002015460045461164a919061341b565b61165491906133c4565b6004556002810183905560405183815284907f54ca8df74b9602d422d5c5e11eece496fd3d57504eba7dec5915ef0171c896169060200160405180910390a250505050565b6006546001600160a01b03163314806116bc57506000546001600160a01b031633145b806116d157506007546001600160a01b031633145b6117095760405162461bcd60e51b815260206004820152600960248201526821736563757269747960b81b60448201526064016105a4565b6008548190811061172c5760405162461bcd60e51b81526004016105a490613312565b60006008838154811061174f57634e487b7160e01b600052603260045260246000fd5b906000526020600020906006020190508060050160019054906101000a900460ff161561178e5760405162461bcd60e51b81526004016105a4906132cc565b8060010160009054906101000a90046001600160a01b03166001600160a01b0316638456cb596040518163ffffffff1660e01b8152600401600060405180830381600087803b1580156117e057600080fd5b505af11580156117f4573d6000803e3d6000fd5b50505060058201805461ff0019166101001790555060405183907f85f2f9c18c35f0b299bc3787e4166b64d3d8ae0e48d288bf7bcc608130d6b9bf90600090a2505050565b6000546001600160a01b031633146118635760405162461bcd60e51b81526004016105a490613332565b6001600160a01b0381166118895760405162461bcd60e51b81526004016105a490613367565b600680546001600160a01b0319166001600160a01b0392909216919091179055565b600260015414156118ce5760405162461bcd60e51b81526004016105a49061338d565b60026001819055506000600882815481106118f957634e487b7160e01b600052603260045260246000fd5b6000918252602090912060069091020180546040516370a0823160e01b815233600482015291925061198f9184916001600160a01b0316906370a082319060240160206040518083038186803b15801561195257600080fd5b505afa158015611966573d6000803e3d6000fd5b505050506040513d601f19601f8201168201806040525081019061198a91906131e4565b61243f565b505060018055565b600080600884815481106119bb57634e487b7160e01b600052603260045260246000fd5b600091825260208083208784526009825260408085206001600160a01b03898116875290845281862060069590950290920160048181015460018301548451632251caaf60e11b815294519399509697909690959416936344a3955e9380830193919290829003018186803b158015611a3357600080fd5b505afa158015611a47573d6000803e3d6000fd5b505050506040513d601f19601f82011682018060405250810190611a6b91906131e4565b600585015490915060ff168015611a855750836003015443115b8015611a9057508015155b15611b1c576000611aa58560030154436114de565b9050600060045486600201547f000000000000000000000000000000000000000000000000000000000000000084611add91906133fc565b611ae791906133fc565b611af191906133dc565b905082611b038264e8d4a510006133fc565b611b0d91906133dc565b611b1790856133c4565b935050505b826002015464e8d4a51000838560010154611b3791906133fc565b611b4191906133dc565b610f3b919061341b565b60026001541415611b6e5760405162461bcd60e51b81526004016105a49061338d565b600260015560085482908110611b965760405162461bcd60e51b81526004016105a490613312565b610c0d838361243f565b6006546001600160a01b0316331480611bc357506000546001600160a01b031633145b611bdf5760405162461bcd60e51b81526004016105a4906132ed565b6001600160a01b038116611c1e5760405162461bcd60e51b8152602060048201526006602482015265085cdd1c985d60d21b60448201526064016105a4565b806001600160a01b031663c89039c56040518163ffffffff1660e01b815260040160206040518083038186803b158015611c5757600080fd5b505afa158015611c6b573d6000803e3d6000fd5b505050506040513d601f19601f82011682018060405250810190611c8f9190613117565b6001600160a01b0316826001600160a01b031614611cdf5760405162461bcd60e51b815260206004820152600d60248201526c10b232b837b9b4ba2a37b5b2b760991b60448201526064016105a4565b6040805161010080820183526001600160a01b039485168252928416602082019081526000928201838152606083018481526080840185815260a0850186815260c0860187815260e08701888152600880546001810182559952965160069098027ff3f7a9fe364faab93b216da50a3214154f22a0a2b415b23a84c8169e8b636ee381018054998c166001600160a01b03199a8b1617905595517ff3f7a9fe364faab93b216da50a3214154f22a0a2b415b23a84c8169e8b636ee48701805491909b1698169790971790985591517ff3f7a9fe364faab93b216da50a3214154f22a0a2b415b23a84c8169e8b636ee5840155517ff3f7a9fe364faab93b216da50a3214154f22a0a2b415b23a84c8169e8b636ee6830155517ff3f7a9fe364faab93b216da50a3214154f22a0a2b415b23a84c8169e8b636ee782015593517ff3f7a9fe364faab93b216da50a3214154f22a0a2b415b23a84c8169e8b636ee89094018054925191511515620100000262ff00001992151590940261ff00199515159590951661ffff19909316929092179390931792909216179055565b6000546001600160a01b03163314611ea65760405162461bcd60e51b81526004016105a490613332565b6001600160a01b038116611f0b5760405162461bcd60e51b815260206004820152602660248201527f4f776e61626c653a206e6577206f776e657220697320746865207a65726f206160448201526564647265737360d01b60648201526084016105a4565b600080546040516001600160a01b03808516939216917f8be0079c531659141344cd1fd0a4f28419497f9722a3daafe3b4186f6b6457e091a3600080546001600160a01b0319166001600160a01b0392909216919091179055565b60085460005b81811015611f8d57611f7d816127c3565b611f868161345e565b9050611f6c565b5050565b611f9a826127c3565b600060088381548110611fbd57634e487b7160e01b600052603260045260246000fd5b6000918252602080832086845260098252604080852033865283528085206006949094029091016001810154825163256d706d60e11b815292519196509394936001600160a01b031692634adae0da9260048082019391829003018186803b15801561202857600080fd5b505afa15801561203c573d6000803e3d6000fd5b505050506040513d601f19601f8201168201806040525081019061206091906131e4565b905060008360010160009054906101000a90046001600160a01b03166001600160a01b03166344a3955e6040518163ffffffff1660e01b815260040160206040518083038186803b1580156120b457600080fd5b505afa1580156120c8573d6000803e3d6000fd5b505050506040513d601f19601f820116820180604052508101906120ec91906131e4565b90506000811161212d5760405162461bcd60e51b815260206004820152600c60248201526b085cda185c995cd51bdd185b60a21b60448201526064016105a4565b60008360010154116121705760405162461bcd60e51b815260206004820152600c60248201526b21757365722e73686172657360a01b60448201526064016105a4565b6000836002015464e8d4a510008660040154866001015461219191906133fc565b61219b91906133dc565b6121a5919061341b565b905080156121b7576121b7338261296d565b6000828486600101546121ca91906133fc565b6121d491906133dc565b9050808711156121e2578096505b861561237957600186015460405163f3fef3a360e01b815260009182916001600160a01b039091169063f3fef3a3906122219033908d90600401613280565b6040805180830381600087803b15801561223a57600080fd5b505af115801561224e573d6000803e3d6000fd5b505050506040513d601f19601f820116820180604052508101906122729190613241565b91509150866001015482106122915760006001880181905587556122d6565b8187600101546122a1919061341b565b60018801556122b0828661341b565b6122ba828861341b565b88600101546122c991906133fc565b6122d391906133dc565b87555b87546040516370a0823160e01b81523060048201526000916001600160a01b0316906370a082319060240160206040518083038186803b15801561231957600080fd5b505afa15801561232d573d6000803e3d6000fd5b505050506040513d601f19601f8201168201806040525081019061235191906131e4565b90508181101561235f578091505b8854612375906001600160a01b031633846123e9565b5050505b64e8d4a510008660040154866001015461239391906133fc565b61239d91906133dc565b60028601556040805188815260208101849052899133917f02f25270a4d87bea75db541cdfe559334a275b4a233520ed6c0a2429667cca94910160405180910390a35050505050505050565b6113c18363a9059cbb60e01b8484604051602401612408929190613280565b60408051601f198184030181529190526020810180516001600160e01b03166001600160e01b031990931692909217909152612dda565b612448826127c3565b60006008838154811061246b57634e487b7160e01b600052603260045260246000fd5b600091825260208083208684526009825260408085203386529092529083206001810154600690930290910193509190156124e557816002015464e8d4a51000846004015484600101546124bf91906133fc565b6124c991906133dc565b6124d3919061341b565b905080156124e5576124e5338261296d565b6000841180156124ff57506005830154610100900460ff16155b80156125165750600583015462010000900460ff16155b15612756578254612532906001600160a01b0316333087612eac565b60018301548354612550916001600160a01b03918216911686612ee4565b60006008868154811061257357634e487b7160e01b600052603260045260246000fd5b60009182526020909120600160069092020101546040516311f9fbc960e21b81526001600160a01b03909116906347e7ef24906125b69033908990600401613280565b602060405180830381600087803b1580156125d057600080fd5b505af11580156125e4573d6000803e3d6000fd5b505050506040513d601f19601f8201168201806040525081019061260891906131e4565b905060008460010160009054906101000a90046001600160a01b03166001600160a01b03166344a3955e6040518163ffffffff1660e01b815260040160206040518083038186803b15801561265c57600080fd5b505afa158015612670573d6000803e3d6000fd5b505050506040513d601f19601f8201168201806040525081019061269491906131e4565b905060008560010160009054906101000a90046001600160a01b03166001600160a01b0316634adae0da6040518163ffffffff1660e01b815260040160206040518083038186803b1580156126e857600080fd5b505afa1580156126fc573d6000803e3d6000fd5b505050506040513d601f19601f8201168201806040525081019061272091906131e4565b905082856001015461273291906133c4565b6001860181905582906127469083906133fc565b61275091906133dc565b85555050505b64e8d4a510008360040154836001015461277091906133fc565b61277a91906133dc565b60028301556040805185815260208101839052869133917f36af321ec8d3c75236829c5317affd40ddb308863a1236d2d277a4025cccee1e910160405180910390a35050505050565b6000600882815481106127e657634e487b7160e01b600052603260045260246000fd5b60009182526020909120600690910201600581015490915060ff1661280b575061296a565b8060030154431161281c575061296a565b600181015460408051632251caaf60e11b815290516000926001600160a01b0316916344a3955e916004808301926020929190829003018186803b15801561286357600080fd5b505afa158015612877573d6000803e3d6000fd5b505050506040513d601f19601f8201168201806040525081019061289b91906131e4565b9050806128af57504360039091015561296a565b60006128bf8360030154436114de565b9050600081116128d15750505061296a565b600060045484600201547f00000000000000000000000000000000000000000000000000000000000000008461290791906133fc565b61291191906133fc565b61291b91906133dc565b90508060055461292b91906133c4565b6005558261293e8264e8d4a510006133fc565b61294891906133dc565b846004015461295791906133c4565b6004850155505043600390920191909155505b50565b6040516370a0823160e01b81523060048201526000907f00000000000000000000000000000000000000000000000000000000000000006001600160a01b0316906370a082319060240160206040518083038186803b1580156129cf57600080fd5b505afa1580156129e3573d6000803e3d6000fd5b505050506040513d601f19601f82011682018060405250810190612a0791906131e4565b905080821115612d345760055415612c8d576005546040516340c10f1960e01b81526001600160a01b037f000000000000000000000000000000000000000000000000000000000000000016916340c10f1991612a68913091600401613280565b600060405180830381600087803b158015612a8257600080fd5b505af1158015612a96573d6000803e3d6000fd5b5050600060055550506040516370a0823160e01b81523060048201527f00000000000000000000000000000000000000000000000000000000000000006001600160a01b0316906370a082319060240160206040518083038186803b158015612afe57600080fd5b505afa158015612b12573d6000803e3d6000fd5b505050506040513d601f19601f82011682018060405250810190612b3691906131e4565b905080821115612be65760405163a9059cbb60e01b81526001600160a01b037f0000000000000000000000000000000000000000000000000000000000000000169063a9059cbb90612b8e9086908590600401613280565b602060405180830381600087803b158015612ba857600080fd5b505af1158015612bbc573d6000803e3d6000fd5b505050506040513d601f19601f82011682018060405250810190612be091906131ac565b50612c88565b60405163a9059cbb60e01b81526001600160a01b037f0000000000000000000000000000000000000000000000000000000000000000169063a9059cbb90612c349086908690600401613280565b602060405180830381600087803b158015612c4e57600080fd5b505af1158015612c62573d6000803e3d6000fd5b505050506040513d601f19601f82011682018060405250810190612c8691906131ac565b505b612d2f565b60405163a9059cbb60e01b81526001600160a01b037f0000000000000000000000000000000000000000000000000000000000000000169063a9059cbb90612cdb9086908590600401613280565b602060405180830381600087803b158015612cf557600080fd5b505af1158015612d09573d6000803e3d6000fd5b505050506040513d601f19601f82011682018060405250810190612d2d91906131ac565b505b6113c1565b60405163a9059cbb60e01b81526001600160a01b037f0000000000000000000000000000000000000000000000000000000000000000169063a9059cbb90612d829086908690600401613280565b602060405180830381600087803b158015612d9c57600080fd5b505af1158015612db0573d6000803e3d6000fd5b505050506040513d601f19601f82011682018060405250810190612dd491906131ac565b50505050565b6000612e2f826040518060400160405280602081526020017f5361666545524332303a206c6f772d6c6576656c2063616c6c206661696c6564815250856001600160a01b0316612f939092919063ffffffff16565b8051909150156113c15780806020019051810190612e4d91906131ac565b6113c15760405162461bcd60e51b815260206004820152602a60248201527f5361666545524332303a204552433230206f7065726174696f6e20646964206e6044820152691bdd081cdd58d8d9595960b21b60648201526084016105a4565b6040516001600160a01b0380851660248301528316604482015260648101829052612dd49085906323b872dd60e01b90608401612408565b604051636eb1769f60e11b81523060048201526001600160a01b038381166024830152600091839186169063dd62ed3e9060440160206040518083038186803b158015612f3057600080fd5b505afa158015612f44573d6000803e3d6000fd5b505050506040513d601f19601f82011682018060405250810190612f6891906131e4565b612f7291906133c4565b9050612dd48463095ea7b360e01b8584604051602401612408929190613280565b6060612fa28484600085612faa565b949350505050565b60608247101561300b5760405162461bcd60e51b815260206004820152602660248201527f416464726573733a20696e73756666696369656e742062616c616e636520666f6044820152651c8818d85b1b60d21b60648201526084016105a4565b843b6130595760405162461bcd60e51b815260206004820152601d60248201527f416464726573733a2063616c6c20746f206e6f6e2d636f6e747261637400000060448201526064016105a4565b600080866001600160a01b031685876040516130759190613264565b60006040518083038185875af1925050503d80600081146130b2576040519150601f19603f3d011682016040523d82523d6000602084013e6130b7565b606091505b5091509150610f3b828286606083156130d157508161152e565b8251156130e15782518084602001fd5b8160405162461bcd60e51b81526004016105a49190613299565b60006020828403121561310c578081fd5b813561152e8161348f565b600060208284031215613128578081fd5b815161152e8161348f565b60008060408385031215613145578081fd5b82356131508161348f565b915060208301356131608161348f565b809150509250929050565b60008060006060848603121561317f578081fd5b833561318a8161348f565b92506020840135915060408401356131a18161348f565b809150509250925092565b6000602082840312156131bd578081fd5b8151801515811461152e578182fd5b6000602082840312156131dd578081fd5b5035919050565b6000602082840312156131f5578081fd5b5051919050565b6000806040838503121561320e578182fd5b8235915060208301356131608161348f565b60008060408385031215613232578182fd5b50508035926020909101359150565b60008060408385031215613253578182fd5b505080516020909101519092909150565b60008251613276818460208701613432565b9190910192915050565b6001600160a01b03929092168252602082015260400190565b60006020825282518060208401526132b8816040850160208701613432565b601f01601f19169190910160400192915050565b6020808252600790820152662161637469766560c81b604082015260600190565b6020808252600b908201526a216f7065726174696f6e7360a81b604082015260600190565b602080825260069082015265085d985d5b1d60d21b604082015260600190565b6020808252818101527f4f776e61626c653a2063616c6c6572206973206e6f7420746865206f776e6572604082015260600190565b6020808252600c908201526b7a65726f206164647265737360a01b604082015260600190565b6020808252601f908201527f5265656e7472616e637947756172643a207265656e7472616e742063616c6c00604082015260600190565b600082198211156133d7576133d7613479565b500190565b6000826133f757634e487b7160e01b81526012600452602481fd5b500490565b600081600019048311821515161561341657613416613479565b500290565b60008282101561342d5761342d613479565b500390565b60005b8381101561344d578181015183820152602001613435565b83811115612dd45750506000910152565b600060001982141561347257613472613479565b5060010190565b634e487b7160e01b600052601160045260246000fd5b6001600160a01b038116811461296a57600080fdfea164736f6c6343000803000a",
  "devdoc": {
    "details": "Implementation of the Master of BALLE. This contract will take care of all reward calculations and distribution of BALLE tokens in vaults. The owner of the contract is the Governance Gnosis Safe multisig.",
    "kind": "dev",
    "methods": {
      "activateVaultRewards(uint256,uint256)": {
        "details": "Function to activate vault rewards."
      },
      "addVault(address,address)": {
        "details": "Function to add a new vault configuration."
      },
      "deactivateVaultRewards(uint256)": {
        "details": "Function to deactivate vault rewards."
      },
      "deposit(uint256,uint256)": {
        "details": "Function that deposits user tokens."
      },
      "depositAll(uint256)": {
        "details": "Function that deposits all user tokens balance."
      },
      "depositTokens(uint256,address)": {
        "details": "View function to see user's deposit tokens on frontend."
      },
      "emergencyWithdraw(uint256)": {
        "details": "Function that withdraws without caring about rewards. EMERGENCY ONLY."
      },
      "getBlockMultiplier(uint256,uint256)": {
        "details": "View function to calculate the reward multiplier over the given _from to _to block."
      },
      "inCaseTokensGetStuck(address,uint256,address)": {
        "details": "Function to use from Governance Gnosis Safe multisig only in case tokens get stuck. This is to be used if someone, for example, sends tokens to the contract by mistake. There is no guarantee governance will vote to return these."
      },
      "modifyVaultRewards(uint256,uint256)": {
        "details": "Function to modify vault rewards."
      },
      "owner()": {
        "details": "Returns the address of the current owner."
      },
      "panicVault(uint256)": {
        "details": "Function to panic vault strategy."
      },
      "pauseVault(uint256)": {
        "details": "Function to pause vault strategy."
      },
      "pendingRewards(uint256,address)": {
        "details": "View function to see pending BALLE rewards on frontend."
      },
      "renounceOwnership()": {
        "details": "Leaves the contract without owner. It will not be possible to call `onlyOwner` functions anymore. Can only be called by the current owner. NOTE: Renouncing ownership will leave the contract without an owner, thereby removing any functionality that is only available to the owner."
      },
      "retireVault(uint256)": {
        "details": "Function to retire vault strategy."
      },
      "setOperations(address)": {
        "details": "Function to change the Operations Gnosis Safe multisig."
      },
      "setSecurity(address)": {
        "details": "Function to change the Security Gnosis Safe multisig."
      },
      "transferOwnership(address)": {
        "details": "Transfers ownership of the contract to a new account (`newOwner`). Can only be called by the current owner."
      },
      "unpauseVault(uint256)": {
        "details": "Function to unpause vault strategy."
      },
      "userDeposit(uint256,address)": {
        "details": "View function to see user's deposited tokens on frontend. This is useful to show the earnings: depositTokens() - userDeposit()"
      },
      "vaultLength()": {
        "details": "View function to get the number of vaults configured."
      },
      "withdraw(uint256,uint256)": {
        "details": "Function that withdraws user tokens."
      },
      "withdrawAll(uint256)": {
        "details": "Function that withdraws all user tokens balance."
      }
    },
    "version": 1
  },
  "userdoc": {
    "kind": "user",
    "methods": {},
    "version": 1
  },
  "storageLayout": {
    "storage": [
      {
        "astId": 7,
        "contract": "contracts/vaults/BalleMaster.sol:BalleMaster",
        "label": "_owner",
        "offset": 0,
        "slot": "0",
        "type": "t_address"
      },
      {
        "astId": 120,
        "contract": "contracts/vaults/BalleMaster.sol:BalleMaster",
        "label": "_status",
        "offset": 0,
        "slot": "1",
        "type": "t_uint256"
      },
      {
        "astId": 8187,
        "contract": "contracts/vaults/BalleMaster.sol:BalleMaster",
        "label": "startBlock",
        "offset": 0,
        "slot": "2",
        "type": "t_uint256"
      },
      {
        "astId": 8189,
        "contract": "contracts/vaults/BalleMaster.sol:BalleMaster",
        "label": "endBlock",
        "offset": 0,
        "slot": "3",
        "type": "t_uint256"
      },
      {
        "astId": 8192,
        "contract": "contracts/vaults/BalleMaster.sol:BalleMaster",
        "label": "totalAllocPoint",
        "offset": 0,
        "slot": "4",
        "type": "t_uint256"
      },
      {
        "astId": 8195,
        "contract": "contracts/vaults/BalleMaster.sol:BalleMaster",
        "label": "balleToMint",
        "offset": 0,
        "slot": "5",
        "type": "t_uint256"
      },
      {
        "astId": 8197,
        "contract": "contracts/vaults/BalleMaster.sol:BalleMaster",
        "label": "operations",
        "offset": 0,
        "slot": "6",
        "type": "t_address"
      },
      {
        "astId": 8199,
        "contract": "contracts/vaults/BalleMaster.sol:BalleMaster",
        "label": "security",
        "offset": 0,
        "slot": "7",
        "type": "t_address"
      },
      {
        "astId": 8203,
        "contract": "contracts/vaults/BalleMaster.sol:BalleMaster",
        "label": "vaultInfo",
        "offset": 0,
        "slot": "8",
        "type": "t_array(t_struct(VaultInfo)8171_storage)dyn_storage"
      },
      {
        "astId": 8210,
        "contract": "contracts/vaults/BalleMaster.sol:BalleMaster",
        "label": "userInfo",
        "offset": 0,
        "slot": "9",
        "type": "t_mapping(t_uint256,t_mapping(t_address,t_struct(UserInfo)8178_storage))"
      }
    ],
    "types": {
      "t_address": {
        "encoding": "inplace",
        "label": "address",
        "numberOfBytes": "20"
      },
      "t_array(t_struct(VaultInfo)8171_storage)dyn_storage": {
        "base": "t_struct(VaultInfo)8171_storage",
        "encoding": "dynamic_array",
        "label": "struct BalleMaster.VaultInfo[]",
        "numberOfBytes": "32"
      },
      "t_bool": {
        "encoding": "inplace",
        "label": "bool",
        "numberOfBytes": "1"
      },
      "t_contract(IERC20)734": {
        "encoding": "inplace",
        "label": "contract IERC20",
        "numberOfBytes": "20"
      },
      "t_mapping(t_address,t_struct(UserInfo)8178_storage)": {
        "encoding": "mapping",
        "key": "t_address",
        "label": "mapping(address => struct BalleMaster.UserInfo)",
        "numberOfBytes": "32",
        "value": "t_struct(UserInfo)8178_storage"
      },
      "t_mapping(t_uint256,t_mapping(t_address,t_struct(UserInfo)8178_storage))": {
        "encoding": "mapping",
        "key": "t_uint256",
        "label": "mapping(uint256 => mapping(address => struct BalleMaster.UserInfo))",
        "numberOfBytes": "32",
        "value": "t_mapping(t_address,t_struct(UserInfo)8178_storage)"
      },
      "t_struct(UserInfo)8178_storage": {
        "encoding": "inplace",
        "label": "struct BalleMaster.UserInfo",
        "members": [
          {
            "astId": 8173,
            "contract": "contracts/vaults/BalleMaster.sol:BalleMaster",
            "label": "deposit",
            "offset": 0,
            "slot": "0",
            "type": "t_uint256"
          },
          {
            "astId": 8175,
            "contract": "contracts/vaults/BalleMaster.sol:BalleMaster",
            "label": "shares",
            "offset": 0,
            "slot": "1",
            "type": "t_uint256"
          },
          {
            "astId": 8177,
            "contract": "contracts/vaults/BalleMaster.sol:BalleMaster",
            "label": "rewardDebt",
            "offset": 0,
            "slot": "2",
            "type": "t_uint256"
          }
        ],
        "numberOfBytes": "96"
      },
      "t_struct(VaultInfo)8171_storage": {
        "encoding": "inplace",
        "label": "struct BalleMaster.VaultInfo",
        "members": [
          {
            "astId": 8156,
            "contract": "contracts/vaults/BalleMaster.sol:BalleMaster",
            "label": "depositToken",
            "offset": 0,
            "slot": "0",
            "type": "t_contract(IERC20)734"
          },
          {
            "astId": 8158,
            "contract": "contracts/vaults/BalleMaster.sol:BalleMaster",
            "label": "strat",
            "offset": 0,
            "slot": "1",
            "type": "t_address"
          },
          {
            "astId": 8160,
            "contract": "contracts/vaults/BalleMaster.sol:BalleMaster",
            "label": "allocPoint",
            "offset": 0,
            "slot": "2",
            "type": "t_uint256"
          },
          {
            "astId": 8162,
            "contract": "contracts/vaults/BalleMaster.sol:BalleMaster",
            "label": "lastRewardBlock",
            "offset": 0,
            "slot": "3",
            "type": "t_uint256"
          },
          {
            "astId": 8164,
            "contract": "contracts/vaults/BalleMaster.sol:BalleMaster",
            "label": "accBallePerShare",
            "offset": 0,
            "slot": "4",
            "type": "t_uint256"
          },
          {
            "astId": 8166,
            "contract": "contracts/vaults/BalleMaster.sol:BalleMaster",
            "label": "rewardsActive",
            "offset": 0,
            "slot": "5",
            "type": "t_bool"
          },
          {
            "astId": 8168,
            "contract": "contracts/vaults/BalleMaster.sol:BalleMaster",
            "label": "paused",
            "offset": 1,
            "slot": "5",
            "type": "t_bool"
          },
          {
            "astId": 8170,
            "contract": "contracts/vaults/BalleMaster.sol:BalleMaster",
            "label": "retired",
            "offset": 2,
            "slot": "5",
            "type": "t_bool"
          }
        ],
        "numberOfBytes": "192"
      },
      "t_uint256": {
        "encoding": "inplace",
        "label": "uint256",
        "numberOfBytes": "32"
      }
    }
  }
}