{
  "address": "0x79C56Bb227fe9C52EC7A8e78BE86dd782AC5F023",
  "abi": [
    {
      "inputs": [
        {
          "internalType": "contract BALLEv2",
          "name": "_balle",
          "type": "address"
        },
        {
          "internalType": "uint256",
          "name": "_ballePerBlock",
          "type": "uint256"
        },
        {
          "internalType": "uint256",
          "name": "_balleTotalRewards",
          "type": "uint256"
        },
        {
          "internalType": "uint256",
          "name": "_approvalDelay",
          "type": "uint256"
        }
      ],
      "stateMutability": "nonpayable",
      "type": "constructor"
    },
    {
      "anonymous": false,
      "inputs": [
        {
          "indexed": true,
          "internalType": "uint256",
          "name": "vid",
          "type": "uint256"
        },
        {
          "indexed": false,
          "internalType": "uint256",
          "name": "allocPoint",
          "type": "uint256"
        }
      ],
      "name": "ActivateRewards",
      "type": "event"
    },
    {
      "anonymous": false,
      "inputs": [
        {
          "indexed": true,
          "internalType": "uint256",
          "name": "vid",
          "type": "uint256"
        }
      ],
      "name": "DeactivateRewards",
      "type": "event"
    },
    {
      "anonymous": false,
      "inputs": [
        {
          "indexed": true,
          "internalType": "address",
          "name": "user",
          "type": "address"
        },
        {
          "indexed": true,
          "internalType": "uint256",
          "name": "vid",
          "type": "uint256"
        },
        {
          "indexed": false,
          "internalType": "uint256",
          "name": "amount",
          "type": "uint256"
        },
        {
          "indexed": false,
          "internalType": "uint256",
          "name": "rewards",
          "type": "uint256"
        }
      ],
      "name": "Deposit",
      "type": "event"
    },
    {
      "anonymous": false,
      "inputs": [
        {
          "indexed": true,
          "internalType": "uint256",
          "name": "vid",
          "type": "uint256"
        },
        {
          "indexed": true,
          "internalType": "address",
          "name": "strat",
          "type": "address"
        }
      ],
      "name": "EmergencyStratUpgrade",
      "type": "event"
    },
    {
      "anonymous": false,
      "inputs": [
        {
          "indexed": true,
          "internalType": "address",
          "name": "user",
          "type": "address"
        },
        {
          "indexed": true,
          "internalType": "uint256",
          "name": "vid",
          "type": "uint256"
        },
        {
          "indexed": false,
          "internalType": "uint256",
          "name": "amount",
          "type": "uint256"
        }
      ],
      "name": "EmergencyWithdraw",
      "type": "event"
    },
    {
      "anonymous": false,
      "inputs": [
        {
          "indexed": true,
          "internalType": "uint256",
          "name": "vid",
          "type": "uint256"
        },
        {
          "indexed": false,
          "internalType": "uint256",
          "name": "allocPoint",
          "type": "uint256"
        }
      ],
      "name": "ModifyRewards",
      "type": "event"
    },
    {
      "anonymous": false,
      "inputs": [
        {
          "indexed": true,
          "internalType": "address",
          "name": "previousOwner",
          "type": "address"
        },
        {
          "indexed": true,
          "internalType": "address",
          "name": "newOwner",
          "type": "address"
        }
      ],
      "name": "OwnershipTransferred",
      "type": "event"
    },
    {
      "anonymous": false,
      "inputs": [
        {
          "indexed": true,
          "internalType": "uint256",
          "name": "vid",
          "type": "uint256"
        }
      ],
      "name": "PanicVault",
      "type": "event"
    },
    {
      "anonymous": false,
      "inputs": [
        {
          "indexed": true,
          "internalType": "uint256",
          "name": "vid",
          "type": "uint256"
        }
      ],
      "name": "PauseVault",
      "type": "event"
    },
    {
      "anonymous": false,
      "inputs": [
        {
          "indexed": true,
          "internalType": "uint256",
          "name": "vid",
          "type": "uint256"
        },
        {
          "indexed": true,
          "internalType": "address",
          "name": "strat",
          "type": "address"
        }
      ],
      "name": "ProposeStratUpgrade",
      "type": "event"
    },
    {
      "anonymous": false,
      "inputs": [
        {
          "indexed": true,
          "internalType": "uint256",
          "name": "vid",
          "type": "uint256"
        }
      ],
      "name": "RetireVault",
      "type": "event"
    },
    {
      "anonymous": false,
      "inputs": [
        {
          "indexed": true,
          "internalType": "uint256",
          "name": "vid",
          "type": "uint256"
        },
        {
          "indexed": true,
          "internalType": "address",
          "name": "strat",
          "type": "address"
        }
      ],
      "name": "StratUpgrade",
      "type": "event"
    },
    {
      "anonymous": false,
      "inputs": [
        {
          "indexed": true,
          "internalType": "uint256",
          "name": "vid",
          "type": "uint256"
        }
      ],
      "name": "UnpauseVault",
      "type": "event"
    },
    {
      "anonymous": false,
      "inputs": [
        {
          "indexed": true,
          "internalType": "address",
          "name": "user",
          "type": "address"
        },
        {
          "indexed": true,
          "internalType": "uint256",
          "name": "vid",
          "type": "uint256"
        },
        {
          "indexed": false,
          "internalType": "uint256",
          "name": "amount",
          "type": "uint256"
        },
        {
          "indexed": false,
          "internalType": "uint256",
          "name": "rewards",
          "type": "uint256"
        }
      ],
      "name": "Withdraw",
      "type": "event"
    },
    {
      "inputs": [
        {
          "internalType": "uint256",
          "name": "_vid",
          "type": "uint256"
        },
        {
          "internalType": "uint256",
          "name": "_allocPoint",
          "type": "uint256"
        }
      ],
      "name": "activateVaultRewards",
      "outputs": [],
      "stateMutability": "nonpayable",
      "type": "function"
    },
    {
      "inputs": [
        {
          "internalType": "address",
          "name": "_depositToken",
          "type": "address"
        },
        {
          "internalType": "address",
          "name": "_strat",
          "type": "address"
        }
      ],
      "name": "addVault",
      "outputs": [],
      "stateMutability": "nonpayable",
      "type": "function"
    },
    {
      "inputs": [],
      "name": "approvalDelay",
      "outputs": [
        {
          "internalType": "uint256",
          "name": "",
          "type": "uint256"
        }
      ],
      "stateMutability": "view",
      "type": "function"
    },
    {
      "inputs": [],
      "name": "balle",
      "outputs": [
        {
          "internalType": "contract BALLEv2",
          "name": "",
          "type": "address"
        }
      ],
      "stateMutability": "view",
      "type": "function"
    },
    {
      "inputs": [],
      "name": "ballePerBlock",
      "outputs": [
        {
          "internalType": "uint256",
          "name": "",
          "type": "uint256"
        }
      ],
      "stateMutability": "view",
      "type": "function"
    },
    {
      "inputs": [],
      "name": "balleToMint",
      "outputs": [
        {
          "internalType": "uint256",
          "name": "",
          "type": "uint256"
        }
      ],
      "stateMutability": "view",
      "type": "function"
    },
    {
      "inputs": [],
      "name": "balleTotalRewards",
      "outputs": [
        {
          "internalType": "uint256",
          "name": "",
          "type": "uint256"
        }
      ],
      "stateMutability": "view",
      "type": "function"
    },
    {
      "inputs": [
        {
          "internalType": "uint256",
          "name": "_vid",
          "type": "uint256"
        }
      ],
      "name": "deactivateVaultRewards",
      "outputs": [],
      "stateMutability": "nonpayable",
      "type": "function"
    },
    {
      "inputs": [
        {
          "internalType": "uint256",
          "name": "_vid",
          "type": "uint256"
        },
        {
          "internalType": "uint256",
          "name": "_amount",
          "type": "uint256"
        }
      ],
      "name": "deposit",
      "outputs": [],
      "stateMutability": "nonpayable",
      "type": "function"
    },
    {
      "inputs": [
        {
          "internalType": "uint256",
          "name": "_vid",
          "type": "uint256"
        }
      ],
      "name": "depositAll",
      "outputs": [],
      "stateMutability": "nonpayable",
      "type": "function"
    },
    {
      "inputs": [
        {
          "internalType": "uint256",
          "name": "_vid",
          "type": "uint256"
        },
        {
          "internalType": "address",
          "name": "_user",
          "type": "address"
        }
      ],
      "name": "depositTokens",
      "outputs": [
        {
          "internalType": "uint256",
          "name": "",
          "type": "uint256"
        }
      ],
      "stateMutability": "view",
      "type": "function"
    },
    {
      "inputs": [
        {
          "internalType": "uint256",
          "name": "_vid",
          "type": "uint256"
        },
        {
          "internalType": "address",
          "name": "_strat",
          "type": "address"
        }
      ],
      "name": "emergencyStratUpgrade",
      "outputs": [],
      "stateMutability": "nonpayable",
      "type": "function"
    },
    {
      "inputs": [
        {
          "internalType": "uint256",
          "name": "_vid",
          "type": "uint256"
        }
      ],
      "name": "emergencyWithdraw",
      "outputs": [],
      "stateMutability": "nonpayable",
      "type": "function"
    },
    {
      "inputs": [],
      "name": "endBlock",
      "outputs": [
        {
          "internalType": "uint256",
          "name": "",
          "type": "uint256"
        }
      ],
      "stateMutability": "view",
      "type": "function"
    },
    {
      "inputs": [
        {
          "internalType": "uint256",
          "name": "_from",
          "type": "uint256"
        },
        {
          "internalType": "uint256",
          "name": "_to",
          "type": "uint256"
        }
      ],
      "name": "getBlockMultiplier",
      "outputs": [
        {
          "internalType": "uint256",
          "name": "",
          "type": "uint256"
        }
      ],
      "stateMutability": "view",
      "type": "function"
    },
    {
      "inputs": [
        {
          "internalType": "address",
          "name": "_token",
          "type": "address"
        },
        {
          "internalType": "uint256",
          "name": "_amount",
          "type": "uint256"
        }
      ],
      "name": "inCaseTokensGetStuck",
      "outputs": [],
      "stateMutability": "nonpayable",
      "type": "function"
    },
    {
      "inputs": [
        {
          "internalType": "uint256",
          "name": "_vid",
          "type": "uint256"
        },
        {
          "internalType": "uint256",
          "name": "_allocPoint",
          "type": "uint256"
        }
      ],
      "name": "modifyVaultRewards",
      "outputs": [],
      "stateMutability": "nonpayable",
      "type": "function"
    },
    {
      "inputs": [],
      "name": "owner",
      "outputs": [
        {
          "internalType": "address",
          "name": "",
          "type": "address"
        }
      ],
      "stateMutability": "view",
      "type": "function"
    },
    {
      "inputs": [
        {
          "internalType": "uint256",
          "name": "_vid",
          "type": "uint256"
        }
      ],
      "name": "panicVault",
      "outputs": [],
      "stateMutability": "nonpayable",
      "type": "function"
    },
    {
      "inputs": [
        {
          "internalType": "uint256",
          "name": "_vid",
          "type": "uint256"
        }
      ],
      "name": "pauseVault",
      "outputs": [],
      "stateMutability": "nonpayable",
      "type": "function"
    },
    {
      "inputs": [
        {
          "internalType": "uint256",
          "name": "_vid",
          "type": "uint256"
        },
        {
          "internalType": "address",
          "name": "_user",
          "type": "address"
        }
      ],
      "name": "pendingRewards",
      "outputs": [
        {
          "internalType": "uint256",
          "name": "",
          "type": "uint256"
        }
      ],
      "stateMutability": "view",
      "type": "function"
    },
    {
      "inputs": [
        {
          "internalType": "uint256",
          "name": "_vid",
          "type": "uint256"
        },
        {
          "internalType": "address",
          "name": "_strat",
          "type": "address"
        }
      ],
      "name": "proposeStratUpgrade",
      "outputs": [],
      "stateMutability": "nonpayable",
      "type": "function"
    },
    {
      "inputs": [],
      "name": "renounceOwnership",
      "outputs": [],
      "stateMutability": "nonpayable",
      "type": "function"
    },
    {
      "inputs": [
        {
          "internalType": "uint256",
          "name": "_vid",
          "type": "uint256"
        }
      ],
      "name": "retireVault",
      "outputs": [],
      "stateMutability": "nonpayable",
      "type": "function"
    },
    {
      "inputs": [],
      "name": "startBlock",
      "outputs": [
        {
          "internalType": "uint256",
          "name": "",
          "type": "uint256"
        }
      ],
      "stateMutability": "view",
      "type": "function"
    },
    {
      "inputs": [
        {
          "internalType": "uint256",
          "name": "_vid",
          "type": "uint256"
        },
        {
          "internalType": "address",
          "name": "_strat",
          "type": "address"
        }
      ],
      "name": "stratUpgrade",
      "outputs": [],
      "stateMutability": "nonpayable",
      "type": "function"
    },
    {
      "inputs": [],
      "name": "totalAllocPoint",
      "outputs": [
        {
          "internalType": "uint256",
          "name": "",
          "type": "uint256"
        }
      ],
      "stateMutability": "view",
      "type": "function"
    },
    {
      "inputs": [
        {
          "internalType": "address",
          "name": "newOwner",
          "type": "address"
        }
      ],
      "name": "transferOwnership",
      "outputs": [],
      "stateMutability": "nonpayable",
      "type": "function"
    },
    {
      "inputs": [
        {
          "internalType": "uint256",
          "name": "_vid",
          "type": "uint256"
        }
      ],
      "name": "unpauseVault",
      "outputs": [],
      "stateMutability": "nonpayable",
      "type": "function"
    },
    {
      "inputs": [
        {
          "internalType": "uint256",
          "name": "_vid",
          "type": "uint256"
        },
        {
          "internalType": "address",
          "name": "_user",
          "type": "address"
        }
      ],
      "name": "userDeposit",
      "outputs": [
        {
          "internalType": "uint256",
          "name": "",
          "type": "uint256"
        }
      ],
      "stateMutability": "view",
      "type": "function"
    },
    {
      "inputs": [
        {
          "internalType": "uint256",
          "name": "",
          "type": "uint256"
        },
        {
          "internalType": "address",
          "name": "",
          "type": "address"
        }
      ],
      "name": "userInfo",
      "outputs": [
        {
          "internalType": "uint256",
          "name": "deposit",
          "type": "uint256"
        },
        {
          "internalType": "uint256",
          "name": "shares",
          "type": "uint256"
        },
        {
          "internalType": "uint256",
          "name": "rewardDebt",
          "type": "uint256"
        }
      ],
      "stateMutability": "view",
      "type": "function"
    },
    {
      "inputs": [
        {
          "internalType": "uint256",
          "name": "",
          "type": "uint256"
        }
      ],
      "name": "vaultInfo",
      "outputs": [
        {
          "internalType": "contract IERC20",
          "name": "depositToken",
          "type": "address"
        },
        {
          "internalType": "address",
          "name": "strat",
          "type": "address"
        },
        {
          "internalType": "address",
          "name": "proposedStrat",
          "type": "address"
        },
        {
          "internalType": "uint256",
          "name": "allocPoint",
          "type": "uint256"
        },
        {
          "internalType": "uint256",
          "name": "lastRewardBlock",
          "type": "uint256"
        },
        {
          "internalType": "uint256",
          "name": "accBallePerShare",
          "type": "uint256"
        },
        {
          "internalType": "uint256",
          "name": "proposedTime",
          "type": "uint256"
        },
        {
          "internalType": "bool",
          "name": "rewardsActive",
          "type": "bool"
        },
        {
          "internalType": "bool",
          "name": "paused",
          "type": "bool"
        },
        {
          "internalType": "bool",
          "name": "retired",
          "type": "bool"
        }
      ],
      "stateMutability": "view",
      "type": "function"
    },
    {
      "inputs": [],
      "name": "vaultLength",
      "outputs": [
        {
          "internalType": "uint256",
          "name": "",
          "type": "uint256"
        }
      ],
      "stateMutability": "view",
      "type": "function"
    },
    {
      "inputs": [
        {
          "internalType": "uint256",
          "name": "_vid",
          "type": "uint256"
        },
        {
          "internalType": "uint256",
          "name": "_amount",
          "type": "uint256"
        }
      ],
      "name": "withdraw",
      "outputs": [],
      "stateMutability": "nonpayable",
      "type": "function"
    },
    {
      "inputs": [
        {
          "internalType": "uint256",
          "name": "_vid",
          "type": "uint256"
        }
      ],
      "name": "withdrawAll",
      "outputs": [],
      "stateMutability": "nonpayable",
      "type": "function"
    }
  ],
  "transactionHash": "0x08f71476dc099ff518d6c2445dac4809fd4605cb7b840cd18be866345cafebee",
  "args": [
    "0x43fC744c34b211cD57c6f0d1ddB4EA8BC504541b",
    "228310502283105",
    "24000000000000000000000",
    86400000
  ],
  "solcInputHash": "8a357e2d7f1e32295f46bd4ffe5a9867",
  "bytecode": "0x610100604052600060045560006005553480156200001c57600080fd5b5060405162003f5338038062003f538339810160408190526200003f91620000a9565b600080546001600160a01b031916339081178255604051909182917f8be0079c531659141344cd1fd0a4f28419497f9722a3daafe3b4186f6b6457e0908290a3506001805560609390931b6001600160601b03191660805260a09190915260c05260e052620000f4565b60008060008060808587031215620000bf578384fd5b84516001600160a01b0381168114620000d6578485fd5b60208601516040870151606090970151919890975090945092505050565b60805160601c60a05160c05160e051613dc0620001936000396000818161052d01528181611802015261275301526000818161032d01526106fc0152600081816102c4015281816106db0152818161208601526132d60152600081816104f301528181611dcf0152818161337e01528181613432015281816134b0015281816135620152818161360a015281816136b3015261375c0152613dc06000f3fe608060405234801561001057600080fd5b50600436106102105760003560e01c8063715018a611610125578063c6d758cb116100ad578063e2bbb1581161007c578063e2bbb15814610515578063e2d1e75c14610528578063ec3a78231461054f578063f2fde38b14610562578063f5aa4c021461057557610210565b8063c6d758cb146104b5578063c6f678bd146104c8578063d18df53c146104db578063ded0da10146104ee57610210565b8063958e2d31116100f4578063958e2d311461045657806396c43a8514610469578063acd3d32d1461047c578063bc0838fc1461048f578063c150ad1a146104a257610210565b8063715018a6146103625780638da5cb5b1461036a578063929060d81461038f57806393f1a40b1461040157610210565b80633f6770f8116101a85780634b30b422116101775780634b30b422146102ef5780634f6300a2146103025780635312ea8e146103155780635ebac9b5146103285780636ae2ec961461034f57610210565b80633f6770f814610299578063441a3e70146102ac57806344bd5b4f146102bf57806348cd4cb1146102e657610210565b80631ab69eb2116101e45780631ab69eb2146102625780632b5b0a97146102755780632b68772c1461027e578063360f07301461028657610210565b80629ddce51461021557806304da17761461022a578063083c63231461025057806317caf6f114610259575b600080fd5b610228610223366004613c20565b610588565b005b61023d610238366004613bfc565b6107ab565b6040519081526020015b60405180910390f35b61023d60035481565b61023d60045481565b610228610270366004613bcc565b6107d5565b61023d60055481565b60065461023d565b610228610294366004613bcc565b61097b565b6102286102a7366004613bcc565b610ad2565b6102286102ba366004613c20565b610c92565b61023d7f000000000000000000000000000000000000000000000000000000000000000081565b61023d60025481565b6102286102fd366004613bcc565b610d39565b61023d610310366004613bfc565b610ee4565b610228610323366004613bcc565b611074565b61023d7f000000000000000000000000000000000000000000000000000000000000000081565b61022861035d366004613bfc565b6113f8565b610228611547565b6000546001600160a01b03165b6040516001600160a01b039091168152602001610247565b6103a261039d366004613bcc565b6115d9565b604080516001600160a01b039b8c168152998b1660208b015297909916968801969096526060870194909452608086019290925260a085015260c0840152151560e0830152151561010082015290151561012082015261014001610247565b61043b61040f366004613bfc565b600760209081526000928352604080842090915290825290208054600182015460029092015490919083565b60408051938452602084019290925290820152606001610247565b610228610464366004613bcc565b611653565b610228610477366004613bfc565b6116be565b61023d61048a366004613c20565b6119d3565b61022861049d366004613c20565b611a3a565b6102286104b0366004613bcc565b611bda565b6102286104c3366004613b81565b611d85565b6102286104d6366004613bcc565b611e4f565b61023d6104e9366004613bfc565b611f6b565b6103777f000000000000000000000000000000000000000000000000000000000000000081565b610228610523366004613c20565b61211e565b61023d7f000000000000000000000000000000000000000000000000000000000000000081565b61022861055d366004613b49565b6121bc565b610228610570366004613b11565b612507565b610228610583366004613bfc565b61260f565b6000546001600160a01b031633146105d55760405162461bcd60e51b81526020600482018190526024820152600080516020613d9483398151915260448201526064015b60405180910390fd5b600654829081106106115760405162461bcd60e51b8152602060048201526006602482015265085d985d5b1d60d21b60448201526064016105cc565b60006006848154811061063457634e487b7160e01b600052603260045260246000fd5b60009182526020909120600890910201600781015490915060ff16156106855760405162461bcd60e51b815260206004820152600660248201526561637469766560d01b60448201526064016105cc565b600083116106c35760405162461bcd60e51b815260206004820152600b60248201526a08585b1b1bd8dc1bda5b9d60aa1b60448201526064016105cc565b6106cb612924565b60025461073157436002556107207f00000000000000000000000000000000000000000000000000000000000000007f0000000000000000000000000000000000000000000000000000000000000000613ccb565b60025461072d9190613cb3565b6003555b6004544390610741908590613cb3565b600490815560038301859055820181905560078201805460ff191660011790556000600583015560405185907fba13fd9b2f2ae67565b95a27e65b1e9ebf5b1d3be4d048c3327b5037f022816b9061079c9087815260200190565b60405180910390a25050505050565b60008281526007602090815260408083206001600160a01b03851684529091529020545b92915050565b6000546001600160a01b0316331461081d5760405162461bcd60e51b81526020600482018190526024820152600080516020613d9483398151915260448201526064016105cc565b600654819081106108595760405162461bcd60e51b8152602060048201526006602482015265085d985d5b1d60d21b60448201526064016105cc565b60006006838154811061087c57634e487b7160e01b600052603260045260246000fd5b906000526020600020906008020190508060070160019054906101000a900460ff166108d45760405162461bcd60e51b8152602060048201526007602482015266085c185d5cd95960ca1b60448201526064016105cc565b8060010160009054906101000a90046001600160a01b03166001600160a01b0316633f4ba83a6040518163ffffffff1660e01b8152600401600060405180830381600087803b15801561092657600080fd5b505af115801561093a573d6000803e3d6000fd5b50505060078201805461ff00191690555060405183907ff0e9a7ca64cb0a05f6f08c4e5889a1553af34e656e524ca3f7d7da67e5ae071390600090a2505050565b6000546001600160a01b031633146109c35760405162461bcd60e51b81526020600482018190526024820152600080516020613d9483398151915260448201526064016105cc565b600654819081106109ff5760405162461bcd60e51b8152602060048201526006602482015265085d985d5b1d60d21b60448201526064016105cc565b600060068381548110610a2257634e487b7160e01b600052603260045260246000fd5b60009182526020909120600890910201600781015490915060ff16610a735760405162461bcd60e51b81526020600482015260076024820152662161637469766560c81b60448201526064016105cc565b610a7b612924565b8060030154600454610a8d9190613d0a565b60045560006003820181905560078201805460ff1916905560405184917fb8b83da790f78135db4aec46ee97590874ea01f3cd58912bb00f308d072fda2691a2505050565b6000546001600160a01b03163314610b1a5760405162461bcd60e51b81526020600482018190526024820152600080516020613d9483398151915260448201526064016105cc565b60065481908110610b565760405162461bcd60e51b8152602060048201526006602482015265085d985d5b1d60d21b60448201526064016105cc565b600060068381548110610b7957634e487b7160e01b600052603260045260246000fd5b906000526020600020906008020190508060070160029054906101000a900460ff1615610bd25760405162461bcd60e51b81526020600482015260076024820152662161637469766560c81b60448201526064016105cc565b8060010160009054906101000a90046001600160a01b03166001600160a01b031663a4874d776040518163ffffffff1660e01b8152600401600060405180830381600087803b158015610c2457600080fd5b505af1158015610c38573d6000803e3d6000fd5b505050506007810180546201000062ff00001982161790915560ff1615610c6257610c628361097b565b60405183907f774f9a1333327bdc185469e0e44bfcf9df7f8fd96ab10acb8132ecc0b474c3cc90600090a2505050565b60026001541415610ce55760405162461bcd60e51b815260206004820152601f60248201527f5265656e7472616e637947756172643a207265656e7472616e742063616c6c0060448201526064016105cc565b600260015560065482908110610d265760405162461bcd60e51b8152602060048201526006602482015265085d985d5b1d60d21b60448201526064016105cc565b610d30838361294b565b50506001805550565b6000546001600160a01b03163314610d815760405162461bcd60e51b81526020600482018190526024820152600080516020613d9483398151915260448201526064016105cc565b60065481908110610dbd5760405162461bcd60e51b8152602060048201526006602482015265085d985d5b1d60d21b60448201526064016105cc565b600060068381548110610de057634e487b7160e01b600052603260045260246000fd5b906000526020600020906008020190508060070160019054906101000a900460ff1615610e395760405162461bcd60e51b81526020600482015260076024820152662161637469766560c81b60448201526064016105cc565b8060010160009054906101000a90046001600160a01b03166001600160a01b0316634700d3056040518163ffffffff1660e01b8152600401600060405180830381600087803b158015610e8b57600080fd5b505af1158015610e9f573d6000803e3d6000fd5b50505060078201805461ff0019166101001790555060405183907f24f9af3d65d1b908bfe521985a4182e283f3ecdd85f728ccd2f47b8e1a93df9890600090a2505050565b60008060068481548110610f0857634e487b7160e01b600052603260045260246000fd5b600091825260208083208784526007825260408085206001600160a01b03808a16875290845281862060016008909602909301948501548251632251caaf60e11b815292519597509295949216926344a3955e92600480840193829003018186803b158015610f7657600080fd5b505afa158015610f8a573d6000803e3d6000fd5b505050506040513d601f19601f82011682018060405250810190610fae9190613be4565b905060008360010160009054906101000a90046001600160a01b03166001600160a01b0316634adae0da6040518163ffffffff1660e01b815260040160206040518083038186803b15801561100257600080fd5b505afa158015611016573d6000803e3d6000fd5b505050506040513d601f19601f8201168201806040525081019061103a9190613be4565b90508161104e5760009450505050506107cf565b8181846001015461105f9190613ceb565b6110699190613ccb565b979650505050505050565b600260015414156110c75760405162461bcd60e51b815260206004820152601f60248201527f5265656e7472616e637947756172643a207265656e7472616e742063616c6c0060448201526064016105cc565b6002600155600654819081106111085760405162461bcd60e51b8152602060048201526006602482015265085d985d5b1d60d21b60448201526064016105cc565b60006006838154811061112b57634e487b7160e01b600052603260045260246000fd5b6000918252602080832086845260078252604080852033865283528085206008949094029091016001810154825163256d706d60e11b815292519196509394936001600160a01b031692634adae0da9260048082019391829003018186803b15801561119657600080fd5b505afa1580156111aa573d6000803e3d6000fd5b505050506040513d601f19601f820116820180604052508101906111ce9190613be4565b905060008360010160009054906101000a90046001600160a01b03166001600160a01b03166344a3955e6040518163ffffffff1660e01b815260040160206040518083038186803b15801561122257600080fd5b505afa158015611236573d6000803e3d6000fd5b505050506040513d601f19601f8201168201806040525081019061125a9190613be4565b905060008183856001015461126f9190613ceb565b6112799190613ccb565b60006001868101829055818755600287019190915586015460405163f3fef3a360e01b8152336004820152602481018390529192506001600160a01b03169063f3fef3a3906044016040805180830381600087803b1580156112da57600080fd5b505af11580156112ee573d6000803e3d6000fd5b505050506040513d601f19601f820116820180604052508101906113129190613c41565b505084546040516370a0823160e01b81523060048201526000916001600160a01b0316906370a082319060240160206040518083038186803b15801561135757600080fd5b505afa15801561136b573d6000803e3d6000fd5b505050506040513d601f19601f8201168201806040525081019061138f9190613be4565b90508181101561139d578091505b85546113b3906001600160a01b03163384612da3565b604051828152889033907fbb757047c2b5f3974fe26b7c10f732e7bce710b0952a71082702781e62ae05959060200160405180910390a3505060018055505050505050565b6000546001600160a01b031633146114405760405162461bcd60e51b81526020600482018190526024820152600080516020613d9483398151915260448201526064016105cc565b6006548290811061147c5760405162461bcd60e51b8152602060048201526006602482015265085d985d5b1d60d21b60448201526064016105cc565b6001600160a01b0382166114bb5760405162461bcd60e51b8152602060048201526006602482015265085cdd1c985d60d21b60448201526064016105cc565b6000600684815481106114de57634e487b7160e01b600052603260045260246000fd5b600091825260208220600891909102016002810180546001600160a01b0319166001600160a01b0387169081179091554260068301556040519193509186917f84c802fdb113f88f1d3f9a8adf18b4edf0d87bf657e0faff1727da587a1e7a2d9190a350505050565b6000546001600160a01b0316331461158f5760405162461bcd60e51b81526020600482018190526024820152600080516020613d9483398151915260448201526064016105cc565b600080546040516001600160a01b03909116907f8be0079c531659141344cd1fd0a4f28419497f9722a3daafe3b4186f6b6457e0908390a3600080546001600160a01b0319169055565b600681815481106115e957600080fd5b6000918252602090912060089091020180546001820154600283015460038401546004850154600586015460068701546007909701546001600160a01b039687169850948616969390951694919390929060ff80821691610100810482169162010000909104168a565b600260015414156116a65760405162461bcd60e51b815260206004820152601f60248201527f5265656e7472616e637947756172643a207265656e7472616e742063616c6c0060448201526064016105cc565b60026001556116b78160001961294b565b5060018055565b6000546001600160a01b031633146117065760405162461bcd60e51b81526020600482018190526024820152600080516020613d9483398151915260448201526064016105cc565b600654829081106117425760405162461bcd60e51b8152602060048201526006602482015265085d985d5b1d60d21b60448201526064016105cc565b6001600160a01b0382166117815760405162461bcd60e51b8152602060048201526006602482015265085cdd1c985d60d21b60448201526064016105cc565b6000600684815481106117a457634e487b7160e01b600052603260045260246000fd5b6000918252602090912060089091020160028101549091506001600160a01b038481169116146117ff5760405162461bcd60e51b8152602060048201526006602482015265085cdd1c985d60d21b60448201526064016105cc565b427f000000000000000000000000000000000000000000000000000000000000000082600601546118309190613cb3565b106118695760405162461bcd60e51b81526020600482015260096024820152682174696d656c6f636b60b81b60448201526064016105cc565b60018101546002820154604051631b2ce7f360e11b81526001600160a01b03918216600482015260009283921690633659cfe6906024016040805180830381600087803b1580156118b957600080fd5b505af11580156118cd573d6000803e3d6000fd5b505050506040513d601f19601f820116820180604052508101906118f19190613c41565b60028501546001860154604051632750fd4d60e21b81526001600160a01b03918216600482015260248101859052604481018490529395509193501690639d43f53490606401600060405180830381600087803b15801561195157600080fd5b505af1158015611965573d6000803e3d6000fd5b505050506002830180546001850180546001600160a01b038084166001600160a01b0319928316179092559091169091556000600685018190556040519187169188917f5acd14efdb683461c0f6f0ee16d6ef556b79d04db209b525d80312d4436c2a5691a3505050505050565b6000828210156119e5575060006107cf565b6002548210156119f7575060006107cf565b600354831115611a09575060006107cf565b600254831015611a195760025492505b600354821115611a295760035491505b611a338383613d0a565b9392505050565b6000546001600160a01b03163314611a825760405162461bcd60e51b81526020600482018190526024820152600080516020613d9483398151915260448201526064016105cc565b60065482908110611abe5760405162461bcd60e51b8152602060048201526006602482015265085d985d5b1d60d21b60448201526064016105cc565b600060068481548110611ae157634e487b7160e01b600052603260045260246000fd5b60009182526020909120600890910201600781015490915060ff16611b325760405162461bcd60e51b81526020600482015260076024820152662161637469766560c81b60448201526064016105cc565b60008311611b705760405162461bcd60e51b815260206004820152600b60248201526a08585b1b1bd8dc1bda5b9d60aa1b60448201526064016105cc565b611b78612924565b828160030154600454611b8b9190613d0a565b611b959190613cb3565b6004556003810183905560405183815284907f54ca8df74b9602d422d5c5e11eece496fd3d57504eba7dec5915ef0171c896169060200160405180910390a250505050565b6000546001600160a01b03163314611c225760405162461bcd60e51b81526020600482018190526024820152600080516020613d9483398151915260448201526064016105cc565b60065481908110611c5e5760405162461bcd60e51b8152602060048201526006602482015265085d985d5b1d60d21b60448201526064016105cc565b600060068381548110611c8157634e487b7160e01b600052603260045260246000fd5b906000526020600020906008020190508060070160019054906101000a900460ff1615611cda5760405162461bcd60e51b81526020600482015260076024820152662161637469766560c81b60448201526064016105cc565b8060010160009054906101000a90046001600160a01b03166001600160a01b0316638456cb596040518163ffffffff1660e01b8152600401600060405180830381600087803b158015611d2c57600080fd5b505af1158015611d40573d6000803e3d6000fd5b50505060078201805461ff0019166101001790555060405183907f85f2f9c18c35f0b299bc3787e4166b64d3d8ae0e48d288bf7bcc608130d6b9bf90600090a2505050565b6000546001600160a01b03163314611dcd5760405162461bcd60e51b81526020600482018190526024820152600080516020613d9483398151915260448201526064016105cc565b7f00000000000000000000000000000000000000000000000000000000000000006001600160a01b0316826001600160a01b03161415611e375760405162461bcd60e51b8152602060048201526005602482015264217361666560d81b60448201526064016105cc565b611e4b6001600160a01b0383163383612da3565b5050565b60026001541415611ea25760405162461bcd60e51b815260206004820152601f60248201527f5265656e7472616e637947756172643a207265656e7472616e742063616c6c0060448201526064016105cc565b6002600181905550600060068281548110611ecd57634e487b7160e01b600052603260045260246000fd5b6000918252602090912060089091020180546040516370a0823160e01b8152336004820152919250611f639184916001600160a01b0316906370a082319060240160206040518083038186803b158015611f2657600080fd5b505afa158015611f3a573d6000803e3d6000fd5b505050506040513d601f19601f82011682018060405250810190611f5e9190613be4565b612e38565b505060018055565b60008060068481548110611f8f57634e487b7160e01b600052603260045260246000fd5b600091825260208083208784526007825260408085206001600160a01b038981168752908452818620600895909502909201600581015460018201548351632251caaf60e11b815293519298509596909590949316926344a3955e9260048082019391829003018186803b15801561200657600080fd5b505afa15801561201a573d6000803e3d6000fd5b505050506040513d601f19601f8201168201806040525081019061203e9190613be4565b600785015490915060ff1680156120585750836004015443115b801561206357508015155b156120ef5760006120788560040154436119d3565b9050600060045486600301547f0000000000000000000000000000000000000000000000000000000000000000846120b09190613ceb565b6120ba9190613ceb565b6120c49190613ccb565b9050826120d68264e8d4a51000613ceb565b6120e09190613ccb565b6120ea9085613cb3565b935050505b826002015464e8d4a5100083856001015461210a9190613ceb565b6121149190613ccb565b6110699190613d0a565b600260015414156121715760405162461bcd60e51b815260206004820152601f60248201527f5265656e7472616e637947756172643a207265656e7472616e742063616c6c0060448201526064016105cc565b6002600155600654829081106121b25760405162461bcd60e51b8152602060048201526006602482015265085d985d5b1d60d21b60448201526064016105cc565b610d308383612e38565b6000546001600160a01b031633146122045760405162461bcd60e51b81526020600482018190526024820152600080516020613d9483398151915260448201526064016105cc565b6001600160a01b0381166122435760405162461bcd60e51b8152602060048201526006602482015265085cdd1c985d60d21b60448201526064016105cc565b806001600160a01b031663c89039c56040518163ffffffff1660e01b815260040160206040518083038186803b15801561227c57600080fd5b505afa158015612290573d6000803e3d6000fd5b505050506040513d601f19601f820116820180604052508101906122b49190613b2d565b6001600160a01b0316826001600160a01b0316146123045760405162461bcd60e51b815260206004820152600d60248201526c10b232b837b9b4ba2a37b5b2b760991b60448201526064016105cc565b60408051610140810182526001600160a01b039384168152918316602083019081526000918301828152606084018381526080850184815260a0860185815260c0870186815260e08801878152610100808a018981526101208b018a8152600680546001810182559b529a516008909a027ff652222313e28459528d920b65115c16c04f3efc82aaedc97be59f3f377c0d3f810180549b8e166001600160a01b03199c8d1617905598517ff652222313e28459528d920b65115c16c04f3efc82aaedc97be59f3f377c0d408a018054918e16918c1691909117905596517ff652222313e28459528d920b65115c16c04f3efc82aaedc97be59f3f377c0d418901805491909c1699169890981790995592517ff652222313e28459528d920b65115c16c04f3efc82aaedc97be59f3f377c0d4286015590517ff652222313e28459528d920b65115c16c04f3efc82aaedc97be59f3f377c0d43850155517ff652222313e28459528d920b65115c16c04f3efc82aaedc97be59f3f377c0d44840155517ff652222313e28459528d920b65115c16c04f3efc82aaedc97be59f3f377c0d4583015593517ff652222313e28459528d920b65115c16c04f3efc82aaedc97be59f3f377c0d469091018054945193511515620100000262ff00001994151590930261ff00199215159290921661ffff19909516949094171791909116179055565b6000546001600160a01b0316331461254f5760405162461bcd60e51b81526020600482018190526024820152600080516020613d9483398151915260448201526064016105cc565b6001600160a01b0381166125b45760405162461bcd60e51b815260206004820152602660248201527f4f776e61626c653a206e6577206f776e657220697320746865207a65726f206160448201526564647265737360d01b60648201526084016105cc565b600080546040516001600160a01b03808516939216917f8be0079c531659141344cd1fd0a4f28419497f9722a3daafe3b4186f6b6457e091a3600080546001600160a01b0319166001600160a01b0392909216919091179055565b6000546001600160a01b031633146126575760405162461bcd60e51b81526020600482018190526024820152600080516020613d9483398151915260448201526064016105cc565b600654829081106126935760405162461bcd60e51b8152602060048201526006602482015265085d985d5b1d60d21b60448201526064016105cc565b6001600160a01b0382166126d25760405162461bcd60e51b8152602060048201526006602482015265085cdd1c985d60d21b60448201526064016105cc565b6000600684815481106126f557634e487b7160e01b600052603260045260246000fd5b6000918252602090912060089091020160028101549091506001600160a01b038481169116146127505760405162461bcd60e51b8152602060048201526006602482015265085cdd1c985d60d21b60448201526064016105cc565b427f000000000000000000000000000000000000000000000000000000000000000082600601546127819190613cb3565b106127ba5760405162461bcd60e51b81526020600482015260096024820152682174696d656c6f636b60b81b60448201526064016105cc565b6001810154600282015460405163bdccc82360e01b81526001600160a01b0391821660048201526000928392169063bdccc823906024016040805180830381600087803b15801561280a57600080fd5b505af115801561281e573d6000803e3d6000fd5b505050506040513d601f19601f820116820180604052508101906128429190613c41565b60028501546001860154604051632750fd4d60e21b81526001600160a01b03918216600482015260248101859052604481018490529395509193501690639d43f53490606401600060405180830381600087803b1580156128a257600080fd5b505af11580156128b6573d6000803e3d6000fd5b505050506002830180546001850180546001600160a01b038084166001600160a01b0319928316179092559091169091556000600685018190556040519187169188917fd3a6b724c4b94749d3d665ca9f165484adf489c4c0bb13a606b8085cae26cf7591a3505050505050565b60065460005b81811015611e4b5761293b816131bc565b61294481613d4d565b905061292a565b612954826131bc565b60006006838154811061297757634e487b7160e01b600052603260045260246000fd5b6000918252602080832086845260078252604080852033865283528085206008949094029091016001810154825163256d706d60e11b815292519196509394936001600160a01b031692634adae0da9260048082019391829003018186803b1580156129e257600080fd5b505afa1580156129f6573d6000803e3d6000fd5b505050506040513d601f19601f82011682018060405250810190612a1a9190613be4565b905060008360010160009054906101000a90046001600160a01b03166001600160a01b03166344a3955e6040518163ffffffff1660e01b815260040160206040518083038186803b158015612a6e57600080fd5b505afa158015612a82573d6000803e3d6000fd5b505050506040513d601f19601f82011682018060405250810190612aa69190613be4565b905060008111612ae75760405162461bcd60e51b815260206004820152600c60248201526b085cda185c995cd51bdd185b60a21b60448201526064016105cc565b6000836001015411612b2a5760405162461bcd60e51b815260206004820152600c60248201526b21757365722e73686172657360a01b60448201526064016105cc565b6000836002015464e8d4a5100086600501548660010154612b4b9190613ceb565b612b559190613ccb565b612b5f9190613d0a565b90508015612b7157612b713382613366565b600082848660010154612b849190613ceb565b612b8e9190613ccb565b905080871115612b9c578096505b8615612d3357600186015460405163f3fef3a360e01b81523360048201526024810189905260009182916001600160a01b039091169063f3fef3a3906044016040805180830381600087803b158015612bf457600080fd5b505af1158015612c08573d6000803e3d6000fd5b505050506040513d601f19601f82011682018060405250810190612c2c9190613c41565b9150915086600101548210612c4b576000600188018190558755612c90565b818760010154612c5b9190613d0a565b6001880155612c6a8286613d0a565b612c748288613d0a565b8860010154612c839190613ceb565b612c8d9190613ccb565b87555b87546040516370a0823160e01b81523060048201526000916001600160a01b0316906370a082319060240160206040518083038186803b158015612cd357600080fd5b505afa158015612ce7573d6000803e3d6000fd5b505050506040513d601f19601f82011682018060405250810190612d0b9190613be4565b905081811015612d19578091505b8854612d2f906001600160a01b03163384612da3565b5050505b64e8d4a5100086600501548660010154612d4d9190613ceb565b612d579190613ccb565b60028601556040805188815260208101849052899133917f02f25270a4d87bea75db541cdfe559334a275b4a233520ed6c0a2429667cca94910160405180910390a35050505050505050565b6040516001600160a01b038316602482015260448101829052612e3390849063a9059cbb60e01b906064015b60408051601f198184030181529190526020810180517bffffffffffffffffffffffffffffffffffffffffffffffffffffffff167fffffffff00000000000000000000000000000000000000000000000000000000909316929092179091526137de565b505050565b612e41826131bc565b600060068381548110612e6457634e487b7160e01b600052603260045260246000fd5b60009182526020808320868452600782526040808520338652909252908320600181015460089093029091019350919015612ede57816002015464e8d4a5100084600501548460010154612eb89190613ceb565b612ec29190613ccb565b612ecc9190613d0a565b90508015612ede57612ede3382613366565b600084118015612ef857506007830154610100900460ff16155b8015612f0f5750600783015462010000900460ff16155b1561314f578254612f2b906001600160a01b03163330876138b0565b60018301548354612f49916001600160a01b039182169116866138e8565b600060068681548110612f6c57634e487b7160e01b600052603260045260246000fd5b60009182526020909120600890910201600101546040516311f9fbc960e21b8152336004820152602481018790526001600160a01b03909116906347e7ef2490604401602060405180830381600087803b158015612fc957600080fd5b505af1158015612fdd573d6000803e3d6000fd5b505050506040513d601f19601f820116820180604052508101906130019190613be4565b905060008460010160009054906101000a90046001600160a01b03166001600160a01b03166344a3955e6040518163ffffffff1660e01b815260040160206040518083038186803b15801561305557600080fd5b505afa158015613069573d6000803e3d6000fd5b505050506040513d601f19601f8201168201806040525081019061308d9190613be4565b905060008560010160009054906101000a90046001600160a01b03166001600160a01b0316634adae0da6040518163ffffffff1660e01b815260040160206040518083038186803b1580156130e157600080fd5b505afa1580156130f5573d6000803e3d6000fd5b505050506040513d601f19601f820116820180604052508101906131199190613be4565b905082856001015461312b9190613cb3565b60018601819055829061313f908390613ceb565b6131499190613ccb565b85555050505b64e8d4a51000836005015483600101546131699190613ceb565b6131739190613ccb565b60028301556040805185815260208101839052869133917f36af321ec8d3c75236829c5317affd40ddb308863a1236d2d277a4025cccee1e910160405180910390a35050505050565b6000600682815481106131df57634e487b7160e01b600052603260045260246000fd5b60009182526020909120600890910201600781015490915060ff166132045750613363565b806004015443116132155750613363565b600181015460408051632251caaf60e11b815290516000926001600160a01b0316916344a3955e916004808301926020929190829003018186803b15801561325c57600080fd5b505afa158015613270573d6000803e3d6000fd5b505050506040513d601f19601f820116820180604052508101906132949190613be4565b9050806132a8575043600490910155613363565b60006132b88360040154436119d3565b9050600081116132ca57505050613363565b600060045484600301547f0000000000000000000000000000000000000000000000000000000000000000846133009190613ceb565b61330a9190613ceb565b6133149190613ccb565b9050806005546133249190613cb3565b600555826133378264e8d4a51000613ceb565b6133419190613ccb565b84600501546133509190613cb3565b6005850155505043600490920191909155505b50565b6040516370a0823160e01b81523060048201526000907f00000000000000000000000000000000000000000000000000000000000000006001600160a01b0316906370a082319060240160206040518083038186803b1580156133c857600080fd5b505afa1580156133dc573d6000803e3d6000fd5b505050506040513d601f19601f820116820180604052508101906134009190613be4565b905080821115613736576005541561368d576005546040516340c10f1960e01b815230600482015260248101919091527f00000000000000000000000000000000000000000000000000000000000000006001600160a01b0316906340c10f1990604401600060405180830381600087803b15801561347e57600080fd5b505af1158015613492573d6000803e3d6000fd5b5050600060055550506040516370a0823160e01b81523060048201527f00000000000000000000000000000000000000000000000000000000000000006001600160a01b0316906370a082319060240160206040518083038186803b1580156134fa57600080fd5b505afa15801561350e573d6000803e3d6000fd5b505050506040513d601f19601f820116820180604052508101906135329190613be4565b9050808211156135e45760405163a9059cbb60e01b81526001600160a01b038481166004830152602482018390527f0000000000000000000000000000000000000000000000000000000000000000169063a9059cbb90604401602060405180830381600087803b1580156135a657600080fd5b505af11580156135ba573d6000803e3d6000fd5b505050506040513d601f19601f820116820180604052508101906135de9190613bac565b50613688565b60405163a9059cbb60e01b81526001600160a01b038481166004830152602482018490527f0000000000000000000000000000000000000000000000000000000000000000169063a9059cbb90604401602060405180830381600087803b15801561364e57600080fd5b505af1158015613662573d6000803e3d6000fd5b505050506040513d601f19601f820116820180604052508101906136869190613bac565b505b613731565b60405163a9059cbb60e01b81526001600160a01b038481166004830152602482018390527f0000000000000000000000000000000000000000000000000000000000000000169063a9059cbb90604401602060405180830381600087803b1580156136f757600080fd5b505af115801561370b573d6000803e3d6000fd5b505050506040513d601f19601f8201168201806040525081019061372f9190613bac565b505b612e33565b60405163a9059cbb60e01b81526001600160a01b038481166004830152602482018490527f0000000000000000000000000000000000000000000000000000000000000000169063a9059cbb90604401602060405180830381600087803b1580156137a057600080fd5b505af11580156137b4573d6000803e3d6000fd5b505050506040513d601f19601f820116820180604052508101906137d89190613bac565b50505050565b6000613833826040518060400160405280602081526020017f5361666545524332303a206c6f772d6c6576656c2063616c6c206661696c6564815250856001600160a01b03166139a99092919063ffffffff16565b805190915015612e3357808060200190518101906138519190613bac565b612e335760405162461bcd60e51b815260206004820152602a60248201527f5361666545524332303a204552433230206f7065726174696f6e20646964206e6044820152691bdd081cdd58d8d9595960b21b60648201526084016105cc565b6040516001600160a01b03808516602483015283166044820152606481018290526137d89085906323b872dd60e01b90608401612dcf565b604051636eb1769f60e11b81523060048201526001600160a01b038381166024830152600091839186169063dd62ed3e9060440160206040518083038186803b15801561393457600080fd5b505afa158015613948573d6000803e3d6000fd5b505050506040513d601f19601f8201168201806040525081019061396c9190613be4565b6139769190613cb3565b6040516001600160a01b0385166024820152604481018290529091506137d890859063095ea7b360e01b90606401612dcf565b60606139b884846000856139c0565b949350505050565b606082471015613a215760405162461bcd60e51b815260206004820152602660248201527f416464726573733a20696e73756666696369656e742062616c616e636520666f6044820152651c8818d85b1b60d21b60648201526084016105cc565b843b613a6f5760405162461bcd60e51b815260206004820152601d60248201527f416464726573733a2063616c6c20746f206e6f6e2d636f6e747261637400000060448201526064016105cc565b600080866001600160a01b03168587604051613a8b9190613c64565b60006040518083038185875af1925050503d8060008114613ac8576040519150601f19603f3d011682016040523d82523d6000602084013e613acd565b606091505b509150915061106982828660608315613ae7575081611a33565b825115613af75782518084602001fd5b8160405162461bcd60e51b81526004016105cc9190613c80565b600060208284031215613b22578081fd5b8135611a3381613d7e565b600060208284031215613b3e578081fd5b8151611a3381613d7e565b60008060408385031215613b5b578081fd5b8235613b6681613d7e565b91506020830135613b7681613d7e565b809150509250929050565b60008060408385031215613b93578182fd5b8235613b9e81613d7e565b946020939093013593505050565b600060208284031215613bbd578081fd5b81518015158114611a33578182fd5b600060208284031215613bdd578081fd5b5035919050565b600060208284031215613bf5578081fd5b5051919050565b60008060408385031215613c0e578182fd5b823591506020830135613b7681613d7e565b60008060408385031215613c32578182fd5b50508035926020909101359150565b60008060408385031215613c53578182fd5b505080516020909101519092909150565b60008251613c76818460208701613d21565b9190910192915050565b6000602082528251806020840152613c9f816040850160208701613d21565b601f01601f19169190910160400192915050565b60008219821115613cc657613cc6613d68565b500190565b600082613ce657634e487b7160e01b81526012600452602481fd5b500490565b6000816000190483118215151615613d0557613d05613d68565b500290565b600082821015613d1c57613d1c613d68565b500390565b60005b83811015613d3c578181015183820152602001613d24565b838111156137d85750506000910152565b6000600019821415613d6157613d61613d68565b5060010190565b634e487b7160e01b600052601160045260246000fd5b6001600160a01b038116811461336357600080fdfe4f776e61626c653a2063616c6c6572206973206e6f7420746865206f776e6572a164736f6c6343000803000a",
  "devdoc": {
    "details": "Implementation of the Master of BALLE. This contract will take care of all rewards calculations and distribution of BALLE tokens in vaults. It's ownable and the owner is the only who can manage the active vaults and it's parameters for rewards distribution. The ownership will be transferred to the Governance GNOSIS Safe.",
    "kind": "dev",
    "methods": {
      "activateVaultRewards(uint256,uint256)": {
        "details": "Function to activate vault rewards. Can only be called by the owner."
      },
      "addVault(address,address)": {
        "details": "Function to add a new vault configuration. Can only be called by the owner."
      },
      "deactivateVaultRewards(uint256)": {
        "details": "Function to deactivate vault rewards. Can only be called by the owner."
      },
      "deposit(uint256,uint256)": {
        "details": "Function that deposits user tokens."
      },
      "depositAll(uint256)": {
        "details": "Function that deposits all user tokens balance."
      },
      "depositTokens(uint256,address)": {
        "details": "View function to see user's deposit tokens on frontend."
      },
      "emergencyStratUpgrade(uint256,address)": {
        "details": "It switches the active strat for the strat candidate. After upgrading, the candidate implementation is set to the 0x0 address, and proposedTime to 0. Emergency function, used only when not a regular upgrade can be performed."
      },
      "emergencyWithdraw(uint256)": {
        "details": "Function that withdraws without caring about rewards. EMERGENCY ONLY."
      },
      "getBlockMultiplier(uint256,uint256)": {
        "details": "View function to calculate the reward multiplier over the given _from to _to block."
      },
      "inCaseTokensGetStuck(address,uint256)": {
        "details": "Function to use from Governance GNOSIS Safe only in case tokens get stuck. EMERGENCY ONLY."
      },
      "modifyVaultRewards(uint256,uint256)": {
        "details": "Function to modify vault rewards. Can only be called by the owner."
      },
      "owner()": {
        "details": "Returns the address of the current owner."
      },
      "panicVault(uint256)": {
        "details": "Function to panic vault strategy. Can only be called by the owner."
      },
      "pauseVault(uint256)": {
        "details": "Function to pause vault strategy. Can only be called by the owner."
      },
      "pendingRewards(uint256,address)": {
        "details": "View function to see pending BALLE rewards on frontend."
      },
      "proposeStratUpgrade(uint256,address)": {
        "details": "Function to propose a strategy upgrade. Can only be called by the owner."
      },
      "renounceOwnership()": {
        "details": "Leaves the contract without owner. It will not be possible to call `onlyOwner` functions anymore. Can only be called by the current owner. NOTE: Renouncing ownership will leave the contract without an owner, thereby removing any functionality that is only available to the owner."
      },
      "retireVault(uint256)": {
        "details": "Function to retire vault strategy. Can only be called by the owner."
      },
      "stratUpgrade(uint256,address)": {
        "details": "It switches the active strat for the strat candidate. After upgrading, the candidate implementation is set to the 0x0 address, and proposedTime to 0."
      },
      "transferOwnership(address)": {
        "details": "Transfers ownership of the contract to a new account (`newOwner`). Can only be called by the current owner."
      },
      "unpauseVault(uint256)": {
        "details": "Function to unpause vault strategy. Can only be called by the owner."
      },
      "userDeposit(uint256,address)": {
        "details": "View function to see user's deposited tokens on frontend. This is useful to show the earnings: depositTokens() - userDeposit()"
      },
      "vaultLength()": {
        "details": "View function to get the number of vaults configured."
      },
      "withdraw(uint256,uint256)": {
        "details": "Function that withdraws user tokens."
      },
      "withdrawAll(uint256)": {
        "details": "Function that withdraws all user tokens balance."
      }
    },
    "version": 1
  },
  "userdoc": {
    "kind": "user",
    "methods": {},
    "version": 1
  },
  "storageLayout": {
    "storage": [
      {
        "astId": 7,
        "contract": "contracts/vaults/BalleMaster.sol:BalleMaster",
        "label": "_owner",
        "offset": 0,
        "slot": "0",
        "type": "t_address"
      },
      {
        "astId": 120,
        "contract": "contracts/vaults/BalleMaster.sol:BalleMaster",
        "label": "_status",
        "offset": 0,
        "slot": "1",
        "type": "t_uint256"
      },
      {
        "astId": 2575,
        "contract": "contracts/vaults/BalleMaster.sol:BalleMaster",
        "label": "startBlock",
        "offset": 0,
        "slot": "2",
        "type": "t_uint256"
      },
      {
        "astId": 2577,
        "contract": "contracts/vaults/BalleMaster.sol:BalleMaster",
        "label": "endBlock",
        "offset": 0,
        "slot": "3",
        "type": "t_uint256"
      },
      {
        "astId": 2580,
        "contract": "contracts/vaults/BalleMaster.sol:BalleMaster",
        "label": "totalAllocPoint",
        "offset": 0,
        "slot": "4",
        "type": "t_uint256"
      },
      {
        "astId": 2583,
        "contract": "contracts/vaults/BalleMaster.sol:BalleMaster",
        "label": "balleToMint",
        "offset": 0,
        "slot": "5",
        "type": "t_uint256"
      },
      {
        "astId": 2589,
        "contract": "contracts/vaults/BalleMaster.sol:BalleMaster",
        "label": "vaultInfo",
        "offset": 0,
        "slot": "6",
        "type": "t_array(t_struct(VaultInfo)2559_storage)dyn_storage"
      },
      {
        "astId": 2596,
        "contract": "contracts/vaults/BalleMaster.sol:BalleMaster",
        "label": "userInfo",
        "offset": 0,
        "slot": "7",
        "type": "t_mapping(t_uint256,t_mapping(t_address,t_struct(UserInfo)2566_storage))"
      }
    ],
    "types": {
      "t_address": {
        "encoding": "inplace",
        "label": "address",
        "numberOfBytes": "20"
      },
      "t_array(t_struct(VaultInfo)2559_storage)dyn_storage": {
        "base": "t_struct(VaultInfo)2559_storage",
        "encoding": "dynamic_array",
        "label": "struct BalleMaster.VaultInfo[]",
        "numberOfBytes": "32"
      },
      "t_bool": {
        "encoding": "inplace",
        "label": "bool",
        "numberOfBytes": "1"
      },
      "t_contract(IERC20)728": {
        "encoding": "inplace",
        "label": "contract IERC20",
        "numberOfBytes": "20"
      },
      "t_mapping(t_address,t_struct(UserInfo)2566_storage)": {
        "encoding": "mapping",
        "key": "t_address",
        "label": "mapping(address => struct BalleMaster.UserInfo)",
        "numberOfBytes": "32",
        "value": "t_struct(UserInfo)2566_storage"
      },
      "t_mapping(t_uint256,t_mapping(t_address,t_struct(UserInfo)2566_storage))": {
        "encoding": "mapping",
        "key": "t_uint256",
        "label": "mapping(uint256 => mapping(address => struct BalleMaster.UserInfo))",
        "numberOfBytes": "32",
        "value": "t_mapping(t_address,t_struct(UserInfo)2566_storage)"
      },
      "t_struct(UserInfo)2566_storage": {
        "encoding": "inplace",
        "label": "struct BalleMaster.UserInfo",
        "members": [
          {
            "astId": 2561,
            "contract": "contracts/vaults/BalleMaster.sol:BalleMaster",
            "label": "deposit",
            "offset": 0,
            "slot": "0",
            "type": "t_uint256"
          },
          {
            "astId": 2563,
            "contract": "contracts/vaults/BalleMaster.sol:BalleMaster",
            "label": "shares",
            "offset": 0,
            "slot": "1",
            "type": "t_uint256"
          },
          {
            "astId": 2565,
            "contract": "contracts/vaults/BalleMaster.sol:BalleMaster",
            "label": "rewardDebt",
            "offset": 0,
            "slot": "2",
            "type": "t_uint256"
          }
        ],
        "numberOfBytes": "96"
      },
      "t_struct(VaultInfo)2559_storage": {
        "encoding": "inplace",
        "label": "struct BalleMaster.VaultInfo",
        "members": [
          {
            "astId": 2540,
            "contract": "contracts/vaults/BalleMaster.sol:BalleMaster",
            "label": "depositToken",
            "offset": 0,
            "slot": "0",
            "type": "t_contract(IERC20)728"
          },
          {
            "astId": 2542,
            "contract": "contracts/vaults/BalleMaster.sol:BalleMaster",
            "label": "strat",
            "offset": 0,
            "slot": "1",
            "type": "t_address"
          },
          {
            "astId": 2544,
            "contract": "contracts/vaults/BalleMaster.sol:BalleMaster",
            "label": "proposedStrat",
            "offset": 0,
            "slot": "2",
            "type": "t_address"
          },
          {
            "astId": 2546,
            "contract": "contracts/vaults/BalleMaster.sol:BalleMaster",
            "label": "allocPoint",
            "offset": 0,
            "slot": "3",
            "type": "t_uint256"
          },
          {
            "astId": 2548,
            "contract": "contracts/vaults/BalleMaster.sol:BalleMaster",
            "label": "lastRewardBlock",
            "offset": 0,
            "slot": "4",
            "type": "t_uint256"
          },
          {
            "astId": 2550,
            "contract": "contracts/vaults/BalleMaster.sol:BalleMaster",
            "label": "accBallePerShare",
            "offset": 0,
            "slot": "5",
            "type": "t_uint256"
          },
          {
            "astId": 2552,
            "contract": "contracts/vaults/BalleMaster.sol:BalleMaster",
            "label": "proposedTime",
            "offset": 0,
            "slot": "6",
            "type": "t_uint256"
          },
          {
            "astId": 2554,
            "contract": "contracts/vaults/BalleMaster.sol:BalleMaster",
            "label": "rewardsActive",
            "offset": 0,
            "slot": "7",
            "type": "t_bool"
          },
          {
            "astId": 2556,
            "contract": "contracts/vaults/BalleMaster.sol:BalleMaster",
            "label": "paused",
            "offset": 1,
            "slot": "7",
            "type": "t_bool"
          },
          {
            "astId": 2558,
            "contract": "contracts/vaults/BalleMaster.sol:BalleMaster",
            "label": "retired",
            "offset": 2,
            "slot": "7",
            "type": "t_bool"
          }
        ],
        "numberOfBytes": "256"
      },
      "t_uint256": {
        "encoding": "inplace",
        "label": "uint256",
        "numberOfBytes": "32"
      }
    }
  }
}