{
  "address": "0xe79D4c20F38C7264F1b6c813394c37d33dAc0e73",
  "abi": [
    {
      "inputs": [
        {
          "internalType": "address",
          "name": "_balle",
          "type": "address"
        },
        {
          "internalType": "address",
          "name": "_balleMaster",
          "type": "address"
        },
        {
          "internalType": "address",
          "name": "_treasury",
          "type": "address"
        },
        {
          "internalType": "address",
          "name": "_rewardFund",
          "type": "address"
        }
      ],
      "stateMutability": "nonpayable",
      "type": "constructor"
    },
    {
      "anonymous": false,
      "inputs": [
        {
          "indexed": true,
          "internalType": "address",
          "name": "pool",
          "type": "address"
        },
        {
          "indexed": false,
          "internalType": "uint256",
          "name": "baseAmount",
          "type": "uint256"
        },
        {
          "indexed": false,
          "internalType": "uint256",
          "name": "extraAmount",
          "type": "uint256"
        },
        {
          "indexed": false,
          "internalType": "uint256",
          "name": "feeAmount",
          "type": "uint256"
        },
        {
          "indexed": false,
          "internalType": "uint256",
          "name": "numberOfBlocks",
          "type": "uint256"
        },
        {
          "indexed": false,
          "internalType": "uint256",
          "name": "multiplier",
          "type": "uint256"
        }
      ],
      "name": "BalleRewardDistributed",
      "type": "event"
    },
    {
      "anonymous": false,
      "inputs": [
        {
          "indexed": true,
          "internalType": "address",
          "name": "previousOwner",
          "type": "address"
        },
        {
          "indexed": true,
          "internalType": "address",
          "name": "newOwner",
          "type": "address"
        }
      ],
      "name": "OwnershipTransferred",
      "type": "event"
    },
    {
      "inputs": [],
      "name": "EXTRA_REWARD_FEE",
      "outputs": [
        {
          "internalType": "uint256",
          "name": "",
          "type": "uint256"
        }
      ],
      "stateMutability": "view",
      "type": "function"
    },
    {
      "inputs": [],
      "name": "EXTRA_REWARD_FEE_MAX",
      "outputs": [
        {
          "internalType": "uint256",
          "name": "",
          "type": "uint256"
        }
      ],
      "stateMutability": "view",
      "type": "function"
    },
    {
      "inputs": [],
      "name": "balle",
      "outputs": [
        {
          "internalType": "contract BALLEv2",
          "name": "",
          "type": "address"
        }
      ],
      "stateMutability": "view",
      "type": "function"
    },
    {
      "inputs": [],
      "name": "balleMaster",
      "outputs": [
        {
          "internalType": "contract IBalleMaster",
          "name": "",
          "type": "address"
        }
      ],
      "stateMutability": "view",
      "type": "function"
    },
    {
      "inputs": [
        {
          "internalType": "uint256",
          "name": "_duration",
          "type": "uint256"
        },
        {
          "internalType": "uint256",
          "name": "_baseRewardAmount",
          "type": "uint256"
        },
        {
          "internalType": "uint256",
          "name": "_multiplier",
          "type": "uint256"
        },
        {
          "internalType": "uint256",
          "name": "_rewardStartBlock",
          "type": "uint256"
        }
      ],
      "name": "distributeReward",
      "outputs": [],
      "stateMutability": "nonpayable",
      "type": "function"
    },
    {
      "inputs": [
        {
          "internalType": "address",
          "name": "_token",
          "type": "address"
        },
        {
          "internalType": "uint256",
          "name": "_amount",
          "type": "uint256"
        },
        {
          "internalType": "address",
          "name": "_to",
          "type": "address"
        }
      ],
      "name": "inCaseTokensGetStuck",
      "outputs": [],
      "stateMutability": "nonpayable",
      "type": "function"
    },
    {
      "inputs": [],
      "name": "owner",
      "outputs": [
        {
          "internalType": "address",
          "name": "",
          "type": "address"
        }
      ],
      "stateMutability": "view",
      "type": "function"
    },
    {
      "inputs": [],
      "name": "renounceOwnership",
      "outputs": [],
      "stateMutability": "nonpayable",
      "type": "function"
    },
    {
      "inputs": [],
      "name": "rewardFund",
      "outputs": [
        {
          "internalType": "address",
          "name": "",
          "type": "address"
        }
      ],
      "stateMutability": "view",
      "type": "function"
    },
    {
      "inputs": [],
      "name": "rewarder",
      "outputs": [
        {
          "internalType": "address",
          "name": "",
          "type": "address"
        }
      ],
      "stateMutability": "view",
      "type": "function"
    },
    {
      "inputs": [
        {
          "internalType": "address",
          "name": "_rewardFund",
          "type": "address"
        }
      ],
      "name": "setRewardFund",
      "outputs": [],
      "stateMutability": "nonpayable",
      "type": "function"
    },
    {
      "inputs": [
        {
          "internalType": "address",
          "name": "_rewarder",
          "type": "address"
        }
      ],
      "name": "setRewarder",
      "outputs": [],
      "stateMutability": "nonpayable",
      "type": "function"
    },
    {
      "inputs": [
        {
          "internalType": "address",
          "name": "_stakingPool",
          "type": "address"
        }
      ],
      "name": "setStakingPool",
      "outputs": [],
      "stateMutability": "nonpayable",
      "type": "function"
    },
    {
      "inputs": [
        {
          "internalType": "address",
          "name": "_treasury",
          "type": "address"
        }
      ],
      "name": "setTreasury",
      "outputs": [],
      "stateMutability": "nonpayable",
      "type": "function"
    },
    {
      "inputs": [],
      "name": "stakingPool",
      "outputs": [
        {
          "internalType": "address",
          "name": "",
          "type": "address"
        }
      ],
      "stateMutability": "view",
      "type": "function"
    },
    {
      "inputs": [
        {
          "internalType": "address",
          "name": "newOwner",
          "type": "address"
        }
      ],
      "name": "transferOwnership",
      "outputs": [],
      "stateMutability": "nonpayable",
      "type": "function"
    },
    {
      "inputs": [],
      "name": "treasury",
      "outputs": [
        {
          "internalType": "address",
          "name": "",
          "type": "address"
        }
      ],
      "stateMutability": "view",
      "type": "function"
    }
  ],
  "transactionHash": "0x38b5ed13d2cf40960f510d40cdac0743cbe99602f6ac5ec6587c4a06e98c8353",
  "args": [
    "0x43fC744c34b211cD57c6f0d1ddB4EA8BC504541b",
    "0x59b75eE4Fe79A5C807eB6553c110B5295c675D35",
    "0x8ADB7044d41aC5B378281e0ebd9CD6eAC43a53F8",
    "0x783557C3A2E98D58A9c6A0Fa10a475fcad62477f"
  ],
  "solcInputHash": "360ef9858f9d13e2da8b2e0e5d9f9b58",
  "bytecode": "0x60c06040523480156200001157600080fd5b5060405162001724380380620017248339810160408190526200003491620001f7565b600080546001600160a01b031916339081178255604051909182917f8be0079c531659141344cd1fd0a4f28419497f9722a3daafe3b4186f6b6457e0908290a3506001600160a01b038416620000ba5760405162461bcd60e51b81526020600482015260066024820152652162616c6c6560d01b60448201526064015b60405180910390fd5b6001600160a01b038316620001015760405162461bcd60e51b815260206004820152600c60248201526b10b130b63632a6b0b9ba32b960a11b6044820152606401620000b1565b6001600160a01b038216620001455760405162461bcd60e51b815260206004820152600960248201526821747265617375727960b81b6044820152606401620000b1565b6001600160a01b0381166200018b5760405162461bcd60e51b815260206004820152600b60248201526a085c995dd85c99119d5b9960aa1b6044820152606401620000b1565b6001600160601b0319606094851b81166080529290931b90911660a052600180546001600160a01b039283166001600160a01b0319918216179091556002805492909316911617905562000253565b80516001600160a01b0381168114620001f257600080fd5b919050565b600080600080608085870312156200020d578384fd5b6200021885620001da565b93506200022860208601620001da565b92506200023860408601620001da565b91506200024860608601620001da565b905092959194509250565b60805160601c60a05160601c611466620002be600039600081816101f201528181610552015281816105ea0152818161067c015261072401526000818161022c01528181610473015281816107c401528181610855015281816109f10152610a5a01526114666000f3fe608060405234801561001057600080fd5b506004361061010b5760003560e01c806386d84386116100a2578063dcc3e06e11610071578063dcc3e06e14610214578063ded0da1014610227578063efe222661461024e578063f0f4426014610261578063f2fde38b146102745761010b565b806386d84386146101c0578063884f6f7f146101c95780638da5cb5b146101dc578063bb892620146101ed5761010b565b806361d027b3116100de57806361d027b31461017b57806367206d401461018e5780636b4ab63f146101a1578063715018a6146101b85761010b565b80630c56ae3b14610110578063145cfcde146101405780633028f63a146101555780633a6462e414610168575b600080fd5b600354610123906001600160a01b031681565b6040516001600160a01b0390911681526020015b60405180910390f35b61015361014e3660046112ca565b610287565b005b61015361016336600461123d565b610bff565b61015361017636600461123d565b610c71565b600154610123906001600160a01b031681565b61015361019c366004611257565b610ce3565b6101aa6103e881565b604051908152602001610137565b610153610d4c565b6101aa61271081565b6101536101d736600461123d565b610dc0565b6000546001600160a01b0316610123565b6101237f000000000000000000000000000000000000000000000000000000000000000081565b600454610123906001600160a01b031681565b6101237f000000000000000000000000000000000000000000000000000000000000000081565b600254610123906001600160a01b031681565b61015361026f36600461123d565b610e32565b61015361028236600461123d565b610ea4565b6000546001600160a01b031633146102ba5760405162461bcd60e51b81526004016102b19061134a565b60405180910390fd5b620151808410156102fd5760405162461bcd60e51b815260206004820152600d60248201526c10b6b4b710323ab930ba34b7b760991b60448201526064016102b1565b62093a808411156103405760405162461bcd60e51b815260206004820152600d60248201526c10b6b0bc10323ab930ba34b7b760991b60448201526064016102b1565b600083116103845760405162461bcd60e51b81526020600482015260116024820152700858985cd954995dd85c99105b5bdd5b9d607a1b60448201526064016102b1565b60648210156103c35760405162461bcd60e51b815260206004820152600b60248201526a10b6bab63a34b83634b2b960a91b60448201526064016102b1565b6003546001600160a01b031661040a5760405162461bcd60e51b815260206004820152600c60248201526b085cdd185ada5b99d41bdbdb60a21b60448201526064016102b1565b6004546001600160a01b031661044e5760405162461bcd60e51b815260206004820152600960248201526810b932bbb0b93232b960b91b60448201526064016102b1565b6002546040516370a0823160e01b81526001600160a01b0391821660048201526000917f000000000000000000000000000000000000000000000000000000000000000016906370a082319060240160206040518083038186803b1580156104b557600080fd5b505afa1580156104c9573d6000803e3d6000fd5b505050506040513d601f19601f820116820180604052508101906104ed91906112b2565b9050838110156105345760405162461bcd60e51b81526020600482015260126024820152712172657761726446756e6442616c616e636560701b60448201526064016102b1565b6000606461054285876113dd565b61054c91906113bd565b905060007f00000000000000000000000000000000000000000000000000000000000000006001600160a01b031663083c63236040518163ffffffff1660e01b815260040160206040518083038186803b1580156105a957600080fd5b505afa1580156105bd573d6000803e3d6000fd5b505050506040513d601f19601f820116820180604052508101906105e191906112b2565b431015610722577f00000000000000000000000000000000000000000000000000000000000000006001600160a01b03166344bd5b4f6040518163ffffffff1660e01b815260040160206040518083038186803b15801561064157600080fd5b505afa158015610655573d6000803e3d6000fd5b505050506040513d601f19601f8201168201806040525081019061067991906112b2565b437f00000000000000000000000000000000000000000000000000000000000000006001600160a01b031663083c63236040518163ffffffff1660e01b815260040160206040518083038186803b1580156106d357600080fd5b505afa1580156106e7573d6000803e3d6000fd5b505050506040513d601f19601f8201168201806040525081019061070b91906112b2565b61071591906113fc565b61071f91906113dd565b90505b7f00000000000000000000000000000000000000000000000000000000000000006001600160a01b0316632b5b0a976040518163ffffffff1660e01b815260040160206040518083038186803b15801561077b57600080fd5b505afa15801561078f573d6000803e3d6000fd5b505050506040513d601f19601f820116820180604052508101906107b391906112b2565b6107bd90826113a5565b90506000817f00000000000000000000000000000000000000000000000000000000000000006001600160a01b03166318160ddd6040518163ffffffff1660e01b815260040160206040518083038186803b15801561081b57600080fd5b505afa15801561082f573d6000803e3d6000fd5b505050506040513d601f19601f8201168201806040525081019061085391906112b2565b7f00000000000000000000000000000000000000000000000000000000000000006001600160a01b031663355274ea6040518163ffffffff1660e01b815260040160206040518083038186803b1580156108ac57600080fd5b505afa1580156108c0573d6000803e3d6000fd5b505050506040513d601f19601f820116820180604052508101906108e491906112b2565b6108ee91906113fc565b6108f891906113fc565b90508083111561091e57915081866109118260646113dd565b61091b91906113bd565b95505b600061271061092f6103e8866113dd565b61093991906113bd565b6002546004805460405163a362184760e01b81526001600160a01b0391821692810192909252602482018c905292935091169063a362184790604401602060405180830381600087803b15801561098f57600080fd5b505af11580156109a3573d6000803e3d6000fd5b505050506040513d601f19601f820116820180604052508101906109c791906112b2565b506001546040516340c10f1960e01b81526001600160a01b039182166004820152602481018390527f0000000000000000000000000000000000000000000000000000000000000000909116906340c10f1990604401600060405180830381600087803b158015610a3757600080fd5b505af1158015610a4b573d6000803e3d6000fd5b50506004546001600160a01b037f0000000000000000000000000000000000000000000000000000000000000000811693506340c10f19925016610a8f84886113fc565b6040516001600160e01b031960e085901b1681526001600160a01b0390921660048301526024820152604401600060405180830381600087803b158015610ad557600080fd5b505af1158015610ae9573d6000803e3d6000fd5b50506003546001600160a01b031691506329206a70905082610b0b878c6113a5565b610b1591906113fc565b610b2060038d6113bd565b6040516001600160e01b031960e085901b16815260048101929092526024820152604481018a905260648101899052608401600060405180830381600087803b158015610b6c57600080fd5b505af1158015610b80573d6000803e3d6000fd5b50506003546001600160a01b031691507f9f870ae3696804db87690a6de4069b0d2182c337e6a7061dc5a70d77224c5a28905089610bbe84886113fc565b84610bca60038f6113bd565b604080519485526020850193909352918301526060820152608081018a905260a00160405180910390a2505050505050505050565b6000546001600160a01b03163314610c295760405162461bcd60e51b81526004016102b19061134a565b6001600160a01b038116610c4f5760405162461bcd60e51b81526004016102b19061137f565b600380546001600160a01b0319166001600160a01b0392909216919091179055565b6000546001600160a01b03163314610c9b5760405162461bcd60e51b81526004016102b19061134a565b6001600160a01b038116610cc15760405162461bcd60e51b81526004016102b19061137f565b600480546001600160a01b0319166001600160a01b0392909216919091179055565b6000546001600160a01b03163314610d0d5760405162461bcd60e51b81526004016102b19061134a565b6001600160a01b038116610d335760405162461bcd60e51b81526004016102b19061137f565b610d476001600160a01b0384168284610f8e565b505050565b6000546001600160a01b03163314610d765760405162461bcd60e51b81526004016102b19061134a565b600080546040516001600160a01b03909116907f8be0079c531659141344cd1fd0a4f28419497f9722a3daafe3b4186f6b6457e0908390a3600080546001600160a01b0319169055565b6000546001600160a01b03163314610dea5760405162461bcd60e51b81526004016102b19061134a565b6001600160a01b038116610e105760405162461bcd60e51b81526004016102b19061137f565b600280546001600160a01b0319166001600160a01b0392909216919091179055565b6000546001600160a01b03163314610e5c5760405162461bcd60e51b81526004016102b19061134a565b6001600160a01b038116610e825760405162461bcd60e51b81526004016102b19061137f565b600180546001600160a01b0319166001600160a01b0392909216919091179055565b6000546001600160a01b03163314610ece5760405162461bcd60e51b81526004016102b19061134a565b6001600160a01b038116610f335760405162461bcd60e51b815260206004820152602660248201527f4f776e61626c653a206e6577206f776e657220697320746865207a65726f206160448201526564647265737360d01b60648201526084016102b1565b600080546040516001600160a01b03808516939216917f8be0079c531659141344cd1fd0a4f28419497f9722a3daafe3b4186f6b6457e091a3600080546001600160a01b0319166001600160a01b0392909216919091179055565b604080516001600160a01b03848116602483015260448083018590528351808403909101815260649092018352602080830180516001600160e01b031663a9059cbb60e01b17905283518085019094528084527f5361666545524332303a206c6f772d6c6576656c2063616c6c206661696c656490840152610d479286929160009161101e91851690849061109b565b805190915015610d47578080602001905181019061103c9190611292565b610d475760405162461bcd60e51b815260206004820152602a60248201527f5361666545524332303a204552433230206f7065726174696f6e20646964206e6044820152691bdd081cdd58d8d9595960b21b60648201526084016102b1565b60606110aa84846000856110b4565b90505b9392505050565b6060824710156111155760405162461bcd60e51b815260206004820152602660248201527f416464726573733a20696e73756666696369656e742062616c616e636520666f6044820152651c8818d85b1b60d21b60648201526084016102b1565b61111e856111e3565b61116a5760405162461bcd60e51b815260206004820152601d60248201527f416464726573733a2063616c6c20746f206e6f6e2d636f6e747261637400000060448201526064016102b1565b600080866001600160a01b0316858760405161118691906112fb565b60006040518083038185875af1925050503d80600081146111c3576040519150601f19603f3d011682016040523d82523d6000602084013e6111c8565b606091505b50915091506111d88282866111ed565b979650505050505050565b803b15155b919050565b606083156111fc5750816110ad565b82511561120c5782518084602001fd5b8160405162461bcd60e51b81526004016102b19190611317565b80356001600160a01b03811681146111e857600080fd5b60006020828403121561124e578081fd5b6110ad82611226565b60008060006060848603121561126b578182fd5b61127484611226565b92506020840135915061128960408501611226565b90509250925092565b6000602082840312156112a3578081fd5b815180151581146110ad578182fd5b6000602082840312156112c3578081fd5b5051919050565b600080600080608085870312156112df578081fd5b5050823594602084013594506040840135936060013592509050565b6000825161130d818460208701611413565b9190910192915050565b6000602082528251806020840152611336816040850160208701611413565b601f01601f19169190910160400192915050565b6020808252818101527f4f776e61626c653a2063616c6c6572206973206e6f7420746865206f776e6572604082015260600190565b6020808252600c908201526b7a65726f206164647265737360a01b604082015260600190565b600082198211156113b8576113b8611443565b500190565b6000826113d857634e487b7160e01b81526012600452602481fd5b500490565b60008160001904831182151516156113f7576113f7611443565b500290565b60008282101561140e5761140e611443565b500390565b60005b8381101561142e578181015183820152602001611416565b8381111561143d576000848401525b50505050565b634e487b7160e01b600052601160045260246000fdfea164736f6c6343000803000a",
  "devdoc": {
    "details": "Implementation of the BALLE Reward Distribution for the staking pool. This contract will distribute the rewards from Reward Fund to the Rewarder of the Staking. The owner of the contract is the Governance Gnosis Safe multisig.",
    "kind": "dev",
    "methods": {
      "distributeReward(uint256,uint256,uint256,uint256)": {
        "details": "Function to distribute reward.",
        "params": {
          "_baseRewardAmount": ": Reward amount from performance fees to take from BalleRewardFund.",
          "_duration": ": Period for the reward distribution. From 24h to 7 days.",
          "_multiplier": ": Extra reward amount to add from new minted BALLE, while there is free supply (100 = 1)."
        }
      },
      "inCaseTokensGetStuck(address,uint256,address)": {
        "details": "Function to use from Governance Gnosis Safe multisig only in case tokens get stuck. This is to be used if someone, for example, sends tokens to the contract by mistake. There is no guarantee governance will vote to return these. No tokens are stored in this contract, so, it's safe to transfer any token."
      },
      "owner()": {
        "details": "Returns the address of the current owner."
      },
      "renounceOwnership()": {
        "details": "Leaves the contract without owner. It will not be possible to call `onlyOwner` functions anymore. Can only be called by the current owner. NOTE: Renouncing ownership will leave the contract without an owner, thereby removing any functionality that is only available to the owner."
      },
      "setRewardFund(address)": {
        "details": "Function to change the rewardFund address."
      },
      "setRewarder(address)": {
        "details": "Function to change the rewarder address."
      },
      "setStakingPool(address)": {
        "details": "Function to change the stakingPool address."
      },
      "setTreasury(address)": {
        "details": "Function to change the treasury address."
      },
      "transferOwnership(address)": {
        "details": "Transfers ownership of the contract to a new account (`newOwner`). Can only be called by the current owner."
      }
    },
    "version": 1
  },
  "userdoc": {
    "kind": "user",
    "methods": {},
    "version": 1
  },
  "storageLayout": {
    "storage": [
      {
        "astId": 7,
        "contract": "contracts/staking/BalleRewardDistribution.sol:BalleRewardDistribution",
        "label": "_owner",
        "offset": 0,
        "slot": "0",
        "type": "t_address"
      },
      {
        "astId": 3849,
        "contract": "contracts/staking/BalleRewardDistribution.sol:BalleRewardDistribution",
        "label": "treasury",
        "offset": 0,
        "slot": "1",
        "type": "t_address"
      },
      {
        "astId": 3851,
        "contract": "contracts/staking/BalleRewardDistribution.sol:BalleRewardDistribution",
        "label": "rewardFund",
        "offset": 0,
        "slot": "2",
        "type": "t_address"
      },
      {
        "astId": 3853,
        "contract": "contracts/staking/BalleRewardDistribution.sol:BalleRewardDistribution",
        "label": "stakingPool",
        "offset": 0,
        "slot": "3",
        "type": "t_address"
      },
      {
        "astId": 3855,
        "contract": "contracts/staking/BalleRewardDistribution.sol:BalleRewardDistribution",
        "label": "rewarder",
        "offset": 0,
        "slot": "4",
        "type": "t_address"
      }
    ],
    "types": {
      "t_address": {
        "encoding": "inplace",
        "label": "address",
        "numberOfBytes": "20"
      }
    }
  }
}