{
  "address": "0x91E85122eF92FF306EA47025efd00404CcaEEb19",
  "abi": [
    {
      "inputs": [
        {
          "internalType": "address",
          "name": "_cake",
          "type": "address"
        }
      ],
      "stateMutability": "nonpayable",
      "type": "constructor"
    },
    {
      "anonymous": false,
      "inputs": [
        {
          "indexed": true,
          "internalType": "address",
          "name": "user",
          "type": "address"
        },
        {
          "indexed": true,
          "internalType": "uint256",
          "name": "pid",
          "type": "uint256"
        },
        {
          "indexed": false,
          "internalType": "uint256",
          "name": "amount",
          "type": "uint256"
        }
      ],
      "name": "Deposit",
      "type": "event"
    },
    {
      "anonymous": false,
      "inputs": [
        {
          "indexed": true,
          "internalType": "address",
          "name": "user",
          "type": "address"
        },
        {
          "indexed": true,
          "internalType": "uint256",
          "name": "pid",
          "type": "uint256"
        },
        {
          "indexed": false,
          "internalType": "uint256",
          "name": "amount",
          "type": "uint256"
        }
      ],
      "name": "EmergencyWithdraw",
      "type": "event"
    },
    {
      "anonymous": false,
      "inputs": [
        {
          "indexed": true,
          "internalType": "address",
          "name": "previousOwner",
          "type": "address"
        },
        {
          "indexed": true,
          "internalType": "address",
          "name": "newOwner",
          "type": "address"
        }
      ],
      "name": "OwnershipTransferred",
      "type": "event"
    },
    {
      "anonymous": false,
      "inputs": [
        {
          "indexed": true,
          "internalType": "address",
          "name": "user",
          "type": "address"
        },
        {
          "indexed": true,
          "internalType": "uint256",
          "name": "pid",
          "type": "uint256"
        },
        {
          "indexed": false,
          "internalType": "uint256",
          "name": "amount",
          "type": "uint256"
        }
      ],
      "name": "Withdraw",
      "type": "event"
    },
    {
      "inputs": [
        {
          "internalType": "uint256",
          "name": "_allocPoint",
          "type": "uint256"
        },
        {
          "internalType": "contract IERC20",
          "name": "_lpToken",
          "type": "address"
        },
        {
          "internalType": "bool",
          "name": "_withUpdate",
          "type": "bool"
        }
      ],
      "name": "add",
      "outputs": [],
      "stateMutability": "nonpayable",
      "type": "function"
    },
    {
      "inputs": [],
      "name": "bonusMultiplier",
      "outputs": [
        {
          "internalType": "uint256",
          "name": "",
          "type": "uint256"
        }
      ],
      "stateMutability": "view",
      "type": "function"
    },
    {
      "inputs": [],
      "name": "cake",
      "outputs": [
        {
          "internalType": "address",
          "name": "",
          "type": "address"
        }
      ],
      "stateMutability": "view",
      "type": "function"
    },
    {
      "inputs": [],
      "name": "cakePerBlock",
      "outputs": [
        {
          "internalType": "uint256",
          "name": "",
          "type": "uint256"
        }
      ],
      "stateMutability": "view",
      "type": "function"
    },
    {
      "inputs": [
        {
          "internalType": "uint256",
          "name": "_pid",
          "type": "uint256"
        },
        {
          "internalType": "uint256",
          "name": "_amount",
          "type": "uint256"
        }
      ],
      "name": "deposit",
      "outputs": [],
      "stateMutability": "nonpayable",
      "type": "function"
    },
    {
      "inputs": [
        {
          "internalType": "uint256",
          "name": "_pid",
          "type": "uint256"
        }
      ],
      "name": "emergencyWithdraw",
      "outputs": [],
      "stateMutability": "nonpayable",
      "type": "function"
    },
    {
      "inputs": [
        {
          "internalType": "uint256",
          "name": "_amount",
          "type": "uint256"
        }
      ],
      "name": "enterStaking",
      "outputs": [],
      "stateMutability": "nonpayable",
      "type": "function"
    },
    {
      "inputs": [
        {
          "internalType": "uint256",
          "name": "_from",
          "type": "uint256"
        },
        {
          "internalType": "uint256",
          "name": "_to",
          "type": "uint256"
        }
      ],
      "name": "getMultiplier",
      "outputs": [
        {
          "internalType": "uint256",
          "name": "",
          "type": "uint256"
        }
      ],
      "stateMutability": "view",
      "type": "function"
    },
    {
      "inputs": [
        {
          "internalType": "uint256",
          "name": "_amount",
          "type": "uint256"
        }
      ],
      "name": "leaveStaking",
      "outputs": [],
      "stateMutability": "nonpayable",
      "type": "function"
    },
    {
      "inputs": [],
      "name": "massUpdatePools",
      "outputs": [],
      "stateMutability": "nonpayable",
      "type": "function"
    },
    {
      "inputs": [],
      "name": "owner",
      "outputs": [
        {
          "internalType": "address",
          "name": "",
          "type": "address"
        }
      ],
      "stateMutability": "view",
      "type": "function"
    },
    {
      "inputs": [
        {
          "internalType": "uint256",
          "name": "_pid",
          "type": "uint256"
        },
        {
          "internalType": "address",
          "name": "_user",
          "type": "address"
        }
      ],
      "name": "pendingCake",
      "outputs": [
        {
          "internalType": "uint256",
          "name": "",
          "type": "uint256"
        }
      ],
      "stateMutability": "view",
      "type": "function"
    },
    {
      "inputs": [
        {
          "internalType": "uint256",
          "name": "",
          "type": "uint256"
        }
      ],
      "name": "poolInfo",
      "outputs": [
        {
          "internalType": "contract IERC20",
          "name": "lpToken",
          "type": "address"
        },
        {
          "internalType": "uint256",
          "name": "allocPoint",
          "type": "uint256"
        },
        {
          "internalType": "uint256",
          "name": "lastRewardBlock",
          "type": "uint256"
        },
        {
          "internalType": "uint256",
          "name": "accCakePerShare",
          "type": "uint256"
        }
      ],
      "stateMutability": "view",
      "type": "function"
    },
    {
      "inputs": [],
      "name": "poolLength",
      "outputs": [
        {
          "internalType": "uint256",
          "name": "",
          "type": "uint256"
        }
      ],
      "stateMutability": "view",
      "type": "function"
    },
    {
      "inputs": [],
      "name": "renounceOwnership",
      "outputs": [],
      "stateMutability": "nonpayable",
      "type": "function"
    },
    {
      "inputs": [
        {
          "internalType": "uint256",
          "name": "_pid",
          "type": "uint256"
        },
        {
          "internalType": "uint256",
          "name": "_allocPoint",
          "type": "uint256"
        },
        {
          "internalType": "bool",
          "name": "_withUpdate",
          "type": "bool"
        }
      ],
      "name": "set",
      "outputs": [],
      "stateMutability": "nonpayable",
      "type": "function"
    },
    {
      "inputs": [],
      "name": "startBlock",
      "outputs": [
        {
          "internalType": "uint256",
          "name": "",
          "type": "uint256"
        }
      ],
      "stateMutability": "view",
      "type": "function"
    },
    {
      "inputs": [],
      "name": "totalAllocPoint",
      "outputs": [
        {
          "internalType": "uint256",
          "name": "",
          "type": "uint256"
        }
      ],
      "stateMutability": "view",
      "type": "function"
    },
    {
      "inputs": [
        {
          "internalType": "address",
          "name": "newOwner",
          "type": "address"
        }
      ],
      "name": "transferOwnership",
      "outputs": [],
      "stateMutability": "nonpayable",
      "type": "function"
    },
    {
      "inputs": [
        {
          "internalType": "uint256",
          "name": "_cakePerBlock",
          "type": "uint256"
        }
      ],
      "name": "updateCakePerBlock",
      "outputs": [],
      "stateMutability": "nonpayable",
      "type": "function"
    },
    {
      "inputs": [
        {
          "internalType": "uint256",
          "name": "multiplierNumber",
          "type": "uint256"
        }
      ],
      "name": "updateMultiplier",
      "outputs": [],
      "stateMutability": "nonpayable",
      "type": "function"
    },
    {
      "inputs": [
        {
          "internalType": "uint256",
          "name": "_pid",
          "type": "uint256"
        }
      ],
      "name": "updatePool",
      "outputs": [],
      "stateMutability": "nonpayable",
      "type": "function"
    },
    {
      "inputs": [
        {
          "internalType": "uint256",
          "name": "",
          "type": "uint256"
        },
        {
          "internalType": "address",
          "name": "",
          "type": "address"
        }
      ],
      "name": "userInfo",
      "outputs": [
        {
          "internalType": "uint256",
          "name": "amount",
          "type": "uint256"
        },
        {
          "internalType": "uint256",
          "name": "rewardDebt",
          "type": "uint256"
        }
      ],
      "stateMutability": "view",
      "type": "function"
    },
    {
      "inputs": [
        {
          "internalType": "uint256",
          "name": "_pid",
          "type": "uint256"
        },
        {
          "internalType": "uint256",
          "name": "_amount",
          "type": "uint256"
        }
      ],
      "name": "withdraw",
      "outputs": [],
      "stateMutability": "nonpayable",
      "type": "function"
    }
  ],
  "transactionHash": "0x6fc5bfa0dfb074fd643f4e18f1c03fbf14f8969d4eea8579d6a239b72f0ab501",
  "args": [
    "0xa6D6240e5d5b6232996D58B6b3C4555c824deA73"
  ],
  "solcInputHash": "92fd38752454bc6b28e93e46b22b1a33",
  "bytecode": "0x60806040526001600355600060065534801561001a57600080fd5b50604051611a85380380611a8583398101604081905261003991610191565b600080546001600160a01b031916339081178255604051909182917f8be0079c531659141344cd1fd0a4f28419497f9722a3daafe3b4186f6b6457e0908290a350600180546001600160a01b03199081166001600160a01b03938416908117835567058d15e176280000600255436007819055604080516080810182529283526103e8602084018181529184019283526000606085018181526004805498890181559182905294517f8a35acfbc15ff81a39ae7d344fd709f28e8600b4aa8c65c6b64bfe7fe36bd19b97909102968701805490961697169690961790935591517f8a35acfbc15ff81a39ae7d344fd709f28e8600b4aa8c65c6b64bfe7fe36bd19c84015590517f8a35acfbc15ff81a39ae7d344fd709f28e8600b4aa8c65c6b64bfe7fe36bd19d830155517f8a35acfbc15ff81a39ae7d344fd709f28e8600b4aa8c65c6b64bfe7fe36bd19e909101556006556101bf565b6000602082840312156101a2578081fd5b81516001600160a01b03811681146101b8578182fd5b9392505050565b6118b7806101ce6000396000f3fe608060405234801561001057600080fd5b50600436106101585760003560e01c80635ffe6146116100c3578063937d98711161007c578063937d9871146102c557806393f1a40b146102d8578063a8b973a11461031f578063dce1748414610328578063e2bbb1581461033b578063f2fde38b1461034e57610158565b80635ffe614614610257578063630b5ba11461026a57806364482f7914610272578063715018a6146102855780638da5cb5b1461028d5780638dbb1e3a146102b257610158565b80631eaaa045116101155780631eaaa045146101ef57806341441d3b14610202578063441a3e701461021557806348cd4cb11461022857806351eb05a6146102315780635312ea8e1461024457610158565b80630755e0b61461015d578063081e3eda146101795780631058d281146101815780631175a1dd146101965780631526fe27146101a957806317caf6f1146101e6575b600080fd5b61016660025481565b6040519081526020015b60405180910390f35b600454610166565b61019461018f36600461164a565b610361565b005b6101666101a436600461167a565b6104f1565b6101bc6101b736600461164a565b61067e565b604080516001600160a01b0390951685526020850193909352918301526060820152608001610170565b61016660065481565b6101946101fd3660046116a9565b6106c2565b61019461021036600461164a565b61081e565b6101946102233660046116ea565b610969565b61016660075481565b61019461023f36600461164a565b610b26565b61019461025236600461164a565b610c78565b61019461026536600461164a565b610d28565b610194610d57565b61019461028036600461170b565b610d82565b610194610e56565b6000546001600160a01b03165b6040516001600160a01b039091168152602001610170565b6101666102c03660046116ea565b610eca565b6101946102d336600461164a565b610eeb565b61030a6102e636600461167a565b60056020908152600092835260408084209091529082529020805460019091015482565b60408051928352602083019190915201610170565b61016660035481565b60015461029a906001600160a01b031681565b6101946103493660046116ea565b610f6a565b61019461035c366004611612565b6110e2565b6000600460008154811061038557634e487b7160e01b600052603260045260246000fd5b600091825260208083203384527f05b8ccbb9d4d8fb16ea74ce3c29a41f1b461fbdaff4714a0d9a8eb05499746bc90915260409092208054600490920290920192508311156104105760405162461bcd60e51b81526020600482015260126024820152711dda5d1a191c985dce881b9bdd0819dbdbd960721b60448201526064015b60405180910390fd5b61041a6000610b26565b6000816001015464e8d4a510008460030154846000015461043b91906117f4565b61044591906117d4565b61044f9190611813565b905080156104615761046133826111cc565b831561048c578154610474908590611813565b8255825461048c906001600160a01b03163386611236565b6003830154825464e8d4a51000916104a3916117f4565b6104ad91906117d4565b600183015560405184815260009033907ff279e6a1f5e320cca91135676d9cb6e44ca8a08c0b88342bcdb1144f6511b568906020015b60405180910390a350505050565b6000806004848154811061051557634e487b7160e01b600052603260045260246000fd5b600091825260208083208784526005825260408085206001600160a01b038981168752935280852060049485029092016003810154815492516370a0823160e01b8152309681019690965290965091949193919216906370a082319060240160206040518083038186803b15801561058c57600080fd5b505afa1580156105a0573d6000803e3d6000fd5b505050506040513d601f19601f820116820180604052508101906105c49190611662565b90508360020154431180156105d857508015155b156106465760006105ed856002015443610eca565b9050600060065486600101546002548461060791906117f4565b61061191906117f4565b61061b91906117d4565b90508261062d8264e8d4a510006117f4565b61063791906117d4565b61064190856117bc565b935050505b6001830154835464e8d4a510009061065f9085906117f4565b61066991906117d4565b6106739190611813565b979650505050505050565b6004818154811061068e57600080fd5b600091825260209091206004909102018054600182015460028301546003909301546001600160a01b039092169350919084565b6000546001600160a01b031633146106ec5760405162461bcd60e51b815260040161040790611787565b80156106fa576106fa610d57565b6000600754431161070d5760075461070f565b435b90508360065461071f91906117bc565b600655604080516080810182526001600160a01b03858116825260208201878152928201848152600060608401818152600480546001810182559281905294517f8a35acfbc15ff81a39ae7d344fd709f28e8600b4aa8c65c6b64bfe7fe36bd19b9290950291820180546001600160a01b031916959094169490941790925592517f8a35acfbc15ff81a39ae7d344fd709f28e8600b4aa8c65c6b64bfe7fe36bd19c82015591517f8a35acfbc15ff81a39ae7d344fd709f28e8600b4aa8c65c6b64bfe7fe36bd19d830155517f8a35acfbc15ff81a39ae7d344fd709f28e8600b4aa8c65c6b64bfe7fe36bd19e9091015561081861129e565b50505050565b6000600460008154811061084257634e487b7160e01b600052603260045260246000fd5b600091825260208083203384527f05b8ccbb9d4d8fb16ea74ce3c29a41f1b461fbdaff4714a0d9a8eb05499746bc9091526040832060049092020192509061088990610b26565b8054156108d9576000816001015464e8d4a51000846003015484600001546108b191906117f4565b6108bb91906117d4565b6108c59190611813565b905080156108d7576108d733826111cc565b505b82156109065781546108f6906001600160a01b03163330866113a0565b80546109039084906117bc565b81555b6003820154815464e8d4a510009161091d916117f4565b61092791906117d4565b600182015560405183815260009033907f90890809c654f11d6e72a28fa60149770a0d11ec6c92319d6ceb2bb0a4ea1a159060200160405180910390a3505050565b816109b65760405162461bcd60e51b815260206004820152601a60248201527f77697468647261772043414b4520627920756e7374616b696e670000000000006044820152606401610407565b6000600483815481106109d957634e487b7160e01b600052603260045260246000fd5b600091825260208083208684526005825260408085203386529092529220805460049092029092019250831115610a475760405162461bcd60e51b81526020600482015260126024820152711dda5d1a191c985dce881b9bdd0819dbdbd960721b6044820152606401610407565b610a5084610b26565b6000816001015464e8d4a5100084600301548460000154610a7191906117f4565b610a7b91906117d4565b610a859190611813565b90508015610a9757610a9733826111cc565b8315610ac2578154610aaa908590611813565b82558254610ac2906001600160a01b03163386611236565b6003830154825464e8d4a5100091610ad9916117f4565b610ae391906117d4565b6001830155604051848152859033907ff279e6a1f5e320cca91135676d9cb6e44ca8a08c0b88342bcdb1144f6511b5689060200160405180910390a35050505050565b600060048281548110610b4957634e487b7160e01b600052603260045260246000fd5b9060005260206000209060040201905080600201544311610b6a5750610c75565b80546040516370a0823160e01b81523060048201526000916001600160a01b0316906370a082319060240160206040518083038186803b158015610bad57600080fd5b505afa158015610bc1573d6000803e3d6000fd5b505050506040513d601f19601f82011682018060405250810190610be59190611662565b905080610bf9575043600290910155610c75565b6000610c09836002015443610eca565b90506000600654846001015460025484610c2391906117f4565b610c2d91906117f4565b610c3791906117d4565b905082610c498264e8d4a510006117f4565b610c5391906117d4565b8460030154610c6291906117bc565b6003850155505043600290920191909155505b50565b600060048281548110610c9b57634e487b7160e01b600052603260045260246000fd5b60009182526020808320858452600582526040808520338087529352909320805460049093029093018054909450610ce0926001600160a01b03919091169190611236565b8054604051908152839033907fbb757047c2b5f3974fe26b7c10f732e7bce710b0952a71082702781e62ae05959060200160405180910390a360008082556001909101555050565b6000546001600160a01b03163314610d525760405162461bcd60e51b815260040161040790611787565b600355565b60045460005b81811015610d7e57610d6e81610b26565b610d7781611856565b9050610d5d565b5050565b6000546001600160a01b03163314610dac5760405162461bcd60e51b815260040161040790611787565b8015610dba57610dba610d57565b600060048481548110610ddd57634e487b7160e01b600052603260045260246000fd5b90600052602060002090600402016001015490508281600654610e009190611813565b610e0a91906117bc565b6006819055508260048581548110610e3257634e487b7160e01b600052603260045260246000fd5b9060005260206000209060040201600101819055508281146108185761081861129e565b6000546001600160a01b03163314610e805760405162461bcd60e51b815260040161040790611787565b600080546040516001600160a01b03909116907f8be0079c531659141344cd1fd0a4f28419497f9722a3daafe3b4186f6b6457e0908390a3600080546001600160a01b0319169055565b600354600090610eda8484611813565b610ee491906117f4565b9392505050565b6000546001600160a01b03163314610f155760405162461bcd60e51b815260040161040790611787565b6000546001600160a01b03163314610f655760405162461bcd60e51b815260206004820152601360248201527227bbb732b916a7b7363c90233ab731ba34b7b760691b6044820152606401610407565b600255565b81610fb75760405162461bcd60e51b815260206004820152601760248201527f6465706f7369742043414b45206279207374616b696e670000000000000000006044820152606401610407565b600060048381548110610fda57634e487b7160e01b600052603260045260246000fd5b6000918252602080832086845260058252604080852033865290925292206004909102909101915061100b84610b26565b80541561105b576000816001015464e8d4a510008460030154846000015461103391906117f4565b61103d91906117d4565b6110479190611813565b905080156110595761105933826111cc565b505b8215611088578154611078906001600160a01b03163330866113a0565b80546110859084906117bc565b81555b6003820154815464e8d4a510009161109f916117f4565b6110a991906117d4565b6001820155604051838152849033907f90890809c654f11d6e72a28fa60149770a0d11ec6c92319d6ceb2bb0a4ea1a15906020016104e3565b6000546001600160a01b0316331461110c5760405162461bcd60e51b815260040161040790611787565b6001600160a01b0381166111715760405162461bcd60e51b815260206004820152602660248201527f4f776e61626c653a206e6577206f776e657220697320746865207a65726f206160448201526564647265737360d01b6064820152608401610407565b600080546040516001600160a01b03808516939216917f8be0079c531659141344cd1fd0a4f28419497f9722a3daafe3b4186f6b6457e091a3600080546001600160a01b0319166001600160a01b0392909216919091179055565b6001546040516340c10f1960e01b81526001600160a01b03848116600483015260248201849052909116906340c10f1990604401600060405180830381600087803b15801561121a57600080fd5b505af115801561122e573d6000803e3d6000fd5b505050505050565b6040516001600160a01b03831660248201526044810182905261129990849063a9059cbb60e01b906064015b60408051601f198184030181529190526020810180516001600160e01b03166001600160e01b0319909316929092179091526113d8565b505050565b600454600060015b828110156112fe57600481815481106112cf57634e487b7160e01b600052603260045260246000fd5b906000526020600020906004020160010154826112ec91906117bc565b91506112f781611856565b90506112a6565b508015610d7e576113106003826117d4565b905080600460008154811061133557634e487b7160e01b600052603260045260246000fd5b9060005260206000209060040201600101546006546113549190611813565b61135e91906117bc565b60068190555080600460008154811061138757634e487b7160e01b600052603260045260246000fd5b9060005260206000209060040201600101819055505050565b6040516001600160a01b03808516602483015283166044820152606481018290526108189085906323b872dd60e01b90608401611262565b600061142d826040518060400160405280602081526020017f5361666545524332303a206c6f772d6c6576656c2063616c6c206661696c6564815250856001600160a01b03166114aa9092919063ffffffff16565b805190915015611299578080602001905181019061144b919061162e565b6112995760405162461bcd60e51b815260206004820152602a60248201527f5361666545524332303a204552433230206f7065726174696f6e20646964206e6044820152691bdd081cdd58d8d9595960b21b6064820152608401610407565b60606114b984846000856114c1565b949350505050565b6060824710156115225760405162461bcd60e51b815260206004820152602660248201527f416464726573733a20696e73756666696369656e742062616c616e636520666f6044820152651c8818d85b1b60d21b6064820152608401610407565b843b6115705760405162461bcd60e51b815260206004820152601d60248201527f416464726573733a2063616c6c20746f206e6f6e2d636f6e74726163740000006044820152606401610407565b600080866001600160a01b0316858760405161158c9190611738565b60006040518083038185875af1925050503d80600081146115c9576040519150601f19603f3d011682016040523d82523d6000602084013e6115ce565b606091505b5091509150610673828286606083156115e8575081610ee4565b8251156115f85782518084602001fd5b8160405162461bcd60e51b81526004016104079190611754565b600060208284031215611623578081fd5b8135610ee481611887565b60006020828403121561163f578081fd5b8151610ee48161189c565b60006020828403121561165b578081fd5b5035919050565b600060208284031215611673578081fd5b5051919050565b6000806040838503121561168c578081fd5b82359150602083013561169e81611887565b809150509250929050565b6000806000606084860312156116bd578081fd5b8335925060208401356116cf81611887565b915060408401356116df8161189c565b809150509250925092565b600080604083850312156116fc578182fd5b50508035926020909101359150565b60008060006060848603121561171f578283fd5b833592506020840135915060408401356116df8161189c565b6000825161174a81846020870161182a565b9190910192915050565b600060208252825180602084015261177381604085016020870161182a565b601f01601f19169190910160400192915050565b6020808252818101527f4f776e61626c653a2063616c6c6572206973206e6f7420746865206f776e6572604082015260600190565b600082198211156117cf576117cf611871565b500190565b6000826117ef57634e487b7160e01b81526012600452602481fd5b500490565b600081600019048311821515161561180e5761180e611871565b500290565b60008282101561182557611825611871565b500390565b60005b8381101561184557818101518382015260200161182d565b838111156108185750506000910152565b600060001982141561186a5761186a611871565b5060010190565b634e487b7160e01b600052601160045260246000fd5b6001600160a01b0381168114610c7557600080fd5b8015158114610c7557600080fdfea164736f6c6343000803000a",
  "devdoc": {
    "kind": "dev",
    "methods": {
      "owner()": {
        "details": "Returns the address of the current owner."
      },
      "renounceOwnership()": {
        "details": "Leaves the contract without owner. It will not be possible to call `onlyOwner` functions anymore. Can only be called by the current owner. NOTE: Renouncing ownership will leave the contract without an owner, thereby removing any functionality that is only available to the owner."
      },
      "transferOwnership(address)": {
        "details": "Transfers ownership of the contract to a new account (`newOwner`). Can only be called by the current owner."
      }
    },
    "version": 1
  },
  "userdoc": {
    "kind": "user",
    "methods": {},
    "version": 1
  },
  "storageLayout": {
    "storage": [
      {
        "astId": 7,
        "contract": "contracts/mocks/MasterChef.sol:MasterChef",
        "label": "_owner",
        "offset": 0,
        "slot": "0",
        "type": "t_address"
      },
      {
        "astId": 1986,
        "contract": "contracts/mocks/MasterChef.sol:MasterChef",
        "label": "cake",
        "offset": 0,
        "slot": "1",
        "type": "t_address"
      },
      {
        "astId": 1988,
        "contract": "contracts/mocks/MasterChef.sol:MasterChef",
        "label": "cakePerBlock",
        "offset": 0,
        "slot": "2",
        "type": "t_uint256"
      },
      {
        "astId": 1991,
        "contract": "contracts/mocks/MasterChef.sol:MasterChef",
        "label": "bonusMultiplier",
        "offset": 0,
        "slot": "3",
        "type": "t_uint256"
      },
      {
        "astId": 1995,
        "contract": "contracts/mocks/MasterChef.sol:MasterChef",
        "label": "poolInfo",
        "offset": 0,
        "slot": "4",
        "type": "t_array(t_struct(PoolInfo)1984_storage)dyn_storage"
      },
      {
        "astId": 2002,
        "contract": "contracts/mocks/MasterChef.sol:MasterChef",
        "label": "userInfo",
        "offset": 0,
        "slot": "5",
        "type": "t_mapping(t_uint256,t_mapping(t_address,t_struct(UserInfo)1974_storage))"
      },
      {
        "astId": 2005,
        "contract": "contracts/mocks/MasterChef.sol:MasterChef",
        "label": "totalAllocPoint",
        "offset": 0,
        "slot": "6",
        "type": "t_uint256"
      },
      {
        "astId": 2007,
        "contract": "contracts/mocks/MasterChef.sol:MasterChef",
        "label": "startBlock",
        "offset": 0,
        "slot": "7",
        "type": "t_uint256"
      }
    ],
    "types": {
      "t_address": {
        "encoding": "inplace",
        "label": "address",
        "numberOfBytes": "20"
      },
      "t_array(t_struct(PoolInfo)1984_storage)dyn_storage": {
        "base": "t_struct(PoolInfo)1984_storage",
        "encoding": "dynamic_array",
        "label": "struct MasterChef.PoolInfo[]",
        "numberOfBytes": "32"
      },
      "t_contract(IERC20)734": {
        "encoding": "inplace",
        "label": "contract IERC20",
        "numberOfBytes": "20"
      },
      "t_mapping(t_address,t_struct(UserInfo)1974_storage)": {
        "encoding": "mapping",
        "key": "t_address",
        "label": "mapping(address => struct MasterChef.UserInfo)",
        "numberOfBytes": "32",
        "value": "t_struct(UserInfo)1974_storage"
      },
      "t_mapping(t_uint256,t_mapping(t_address,t_struct(UserInfo)1974_storage))": {
        "encoding": "mapping",
        "key": "t_uint256",
        "label": "mapping(uint256 => mapping(address => struct MasterChef.UserInfo))",
        "numberOfBytes": "32",
        "value": "t_mapping(t_address,t_struct(UserInfo)1974_storage)"
      },
      "t_struct(PoolInfo)1984_storage": {
        "encoding": "inplace",
        "label": "struct MasterChef.PoolInfo",
        "members": [
          {
            "astId": 1977,
            "contract": "contracts/mocks/MasterChef.sol:MasterChef",
            "label": "lpToken",
            "offset": 0,
            "slot": "0",
            "type": "t_contract(IERC20)734"
          },
          {
            "astId": 1979,
            "contract": "contracts/mocks/MasterChef.sol:MasterChef",
            "label": "allocPoint",
            "offset": 0,
            "slot": "1",
            "type": "t_uint256"
          },
          {
            "astId": 1981,
            "contract": "contracts/mocks/MasterChef.sol:MasterChef",
            "label": "lastRewardBlock",
            "offset": 0,
            "slot": "2",
            "type": "t_uint256"
          },
          {
            "astId": 1983,
            "contract": "contracts/mocks/MasterChef.sol:MasterChef",
            "label": "accCakePerShare",
            "offset": 0,
            "slot": "3",
            "type": "t_uint256"
          }
        ],
        "numberOfBytes": "128"
      },
      "t_struct(UserInfo)1974_storage": {
        "encoding": "inplace",
        "label": "struct MasterChef.UserInfo",
        "members": [
          {
            "astId": 1971,
            "contract": "contracts/mocks/MasterChef.sol:MasterChef",
            "label": "amount",
            "offset": 0,
            "slot": "0",
            "type": "t_uint256"
          },
          {
            "astId": 1973,
            "contract": "contracts/mocks/MasterChef.sol:MasterChef",
            "label": "rewardDebt",
            "offset": 0,
            "slot": "1",
            "type": "t_uint256"
          }
        ],
        "numberOfBytes": "64"
      },
      "t_uint256": {
        "encoding": "inplace",
        "label": "uint256",
        "numberOfBytes": "32"
      }
    }
  }
}