{
  "address": "0x353742E24342964fEcb458139c364A09302a670F",
  "abi": [
    {
      "inputs": [
        {
          "internalType": "address",
          "name": "_cake",
          "type": "address"
        }
      ],
      "stateMutability": "nonpayable",
      "type": "constructor"
    },
    {
      "anonymous": false,
      "inputs": [
        {
          "indexed": true,
          "internalType": "address",
          "name": "user",
          "type": "address"
        },
        {
          "indexed": true,
          "internalType": "uint256",
          "name": "pid",
          "type": "uint256"
        },
        {
          "indexed": false,
          "internalType": "uint256",
          "name": "amount",
          "type": "uint256"
        }
      ],
      "name": "Deposit",
      "type": "event"
    },
    {
      "anonymous": false,
      "inputs": [
        {
          "indexed": true,
          "internalType": "address",
          "name": "user",
          "type": "address"
        },
        {
          "indexed": true,
          "internalType": "uint256",
          "name": "pid",
          "type": "uint256"
        },
        {
          "indexed": false,
          "internalType": "uint256",
          "name": "amount",
          "type": "uint256"
        }
      ],
      "name": "EmergencyWithdraw",
      "type": "event"
    },
    {
      "anonymous": false,
      "inputs": [
        {
          "indexed": true,
          "internalType": "address",
          "name": "previousOwner",
          "type": "address"
        },
        {
          "indexed": true,
          "internalType": "address",
          "name": "newOwner",
          "type": "address"
        }
      ],
      "name": "OwnershipTransferred",
      "type": "event"
    },
    {
      "anonymous": false,
      "inputs": [
        {
          "indexed": true,
          "internalType": "address",
          "name": "user",
          "type": "address"
        },
        {
          "indexed": true,
          "internalType": "uint256",
          "name": "pid",
          "type": "uint256"
        },
        {
          "indexed": false,
          "internalType": "uint256",
          "name": "amount",
          "type": "uint256"
        }
      ],
      "name": "Withdraw",
      "type": "event"
    },
    {
      "inputs": [
        {
          "internalType": "uint256",
          "name": "_allocPoint",
          "type": "uint256"
        },
        {
          "internalType": "contract IERC20",
          "name": "_lpToken",
          "type": "address"
        },
        {
          "internalType": "bool",
          "name": "_withUpdate",
          "type": "bool"
        }
      ],
      "name": "add",
      "outputs": [],
      "stateMutability": "nonpayable",
      "type": "function"
    },
    {
      "inputs": [],
      "name": "bonusMultiplier",
      "outputs": [
        {
          "internalType": "uint256",
          "name": "",
          "type": "uint256"
        }
      ],
      "stateMutability": "view",
      "type": "function"
    },
    {
      "inputs": [],
      "name": "cake",
      "outputs": [
        {
          "internalType": "address",
          "name": "",
          "type": "address"
        }
      ],
      "stateMutability": "view",
      "type": "function"
    },
    {
      "inputs": [],
      "name": "cakePerBlock",
      "outputs": [
        {
          "internalType": "uint256",
          "name": "",
          "type": "uint256"
        }
      ],
      "stateMutability": "view",
      "type": "function"
    },
    {
      "inputs": [
        {
          "internalType": "uint256",
          "name": "_pid",
          "type": "uint256"
        },
        {
          "internalType": "uint256",
          "name": "_amount",
          "type": "uint256"
        }
      ],
      "name": "deposit",
      "outputs": [],
      "stateMutability": "nonpayable",
      "type": "function"
    },
    {
      "inputs": [
        {
          "internalType": "uint256",
          "name": "_pid",
          "type": "uint256"
        }
      ],
      "name": "emergencyWithdraw",
      "outputs": [],
      "stateMutability": "nonpayable",
      "type": "function"
    },
    {
      "inputs": [
        {
          "internalType": "uint256",
          "name": "_amount",
          "type": "uint256"
        }
      ],
      "name": "enterStaking",
      "outputs": [],
      "stateMutability": "nonpayable",
      "type": "function"
    },
    {
      "inputs": [
        {
          "internalType": "uint256",
          "name": "_from",
          "type": "uint256"
        },
        {
          "internalType": "uint256",
          "name": "_to",
          "type": "uint256"
        }
      ],
      "name": "getMultiplier",
      "outputs": [
        {
          "internalType": "uint256",
          "name": "",
          "type": "uint256"
        }
      ],
      "stateMutability": "view",
      "type": "function"
    },
    {
      "inputs": [
        {
          "internalType": "uint256",
          "name": "_amount",
          "type": "uint256"
        }
      ],
      "name": "leaveStaking",
      "outputs": [],
      "stateMutability": "nonpayable",
      "type": "function"
    },
    {
      "inputs": [],
      "name": "massUpdatePools",
      "outputs": [],
      "stateMutability": "nonpayable",
      "type": "function"
    },
    {
      "inputs": [],
      "name": "owner",
      "outputs": [
        {
          "internalType": "address",
          "name": "",
          "type": "address"
        }
      ],
      "stateMutability": "view",
      "type": "function"
    },
    {
      "inputs": [
        {
          "internalType": "uint256",
          "name": "_pid",
          "type": "uint256"
        },
        {
          "internalType": "address",
          "name": "_user",
          "type": "address"
        }
      ],
      "name": "pendingCake",
      "outputs": [
        {
          "internalType": "uint256",
          "name": "",
          "type": "uint256"
        }
      ],
      "stateMutability": "view",
      "type": "function"
    },
    {
      "inputs": [
        {
          "internalType": "uint256",
          "name": "",
          "type": "uint256"
        }
      ],
      "name": "poolInfo",
      "outputs": [
        {
          "internalType": "contract IERC20",
          "name": "lpToken",
          "type": "address"
        },
        {
          "internalType": "uint256",
          "name": "allocPoint",
          "type": "uint256"
        },
        {
          "internalType": "uint256",
          "name": "lastRewardBlock",
          "type": "uint256"
        },
        {
          "internalType": "uint256",
          "name": "accCakePerShare",
          "type": "uint256"
        }
      ],
      "stateMutability": "view",
      "type": "function"
    },
    {
      "inputs": [],
      "name": "poolLength",
      "outputs": [
        {
          "internalType": "uint256",
          "name": "",
          "type": "uint256"
        }
      ],
      "stateMutability": "view",
      "type": "function"
    },
    {
      "inputs": [],
      "name": "renounceOwnership",
      "outputs": [],
      "stateMutability": "nonpayable",
      "type": "function"
    },
    {
      "inputs": [
        {
          "internalType": "uint256",
          "name": "_pid",
          "type": "uint256"
        },
        {
          "internalType": "uint256",
          "name": "_allocPoint",
          "type": "uint256"
        },
        {
          "internalType": "bool",
          "name": "_withUpdate",
          "type": "bool"
        }
      ],
      "name": "set",
      "outputs": [],
      "stateMutability": "nonpayable",
      "type": "function"
    },
    {
      "inputs": [],
      "name": "startBlock",
      "outputs": [
        {
          "internalType": "uint256",
          "name": "",
          "type": "uint256"
        }
      ],
      "stateMutability": "view",
      "type": "function"
    },
    {
      "inputs": [],
      "name": "totalAllocPoint",
      "outputs": [
        {
          "internalType": "uint256",
          "name": "",
          "type": "uint256"
        }
      ],
      "stateMutability": "view",
      "type": "function"
    },
    {
      "inputs": [
        {
          "internalType": "address",
          "name": "newOwner",
          "type": "address"
        }
      ],
      "name": "transferOwnership",
      "outputs": [],
      "stateMutability": "nonpayable",
      "type": "function"
    },
    {
      "inputs": [
        {
          "internalType": "uint256",
          "name": "multiplierNumber",
          "type": "uint256"
        }
      ],
      "name": "updateMultiplier",
      "outputs": [],
      "stateMutability": "nonpayable",
      "type": "function"
    },
    {
      "inputs": [
        {
          "internalType": "uint256",
          "name": "_pid",
          "type": "uint256"
        }
      ],
      "name": "updatePool",
      "outputs": [],
      "stateMutability": "nonpayable",
      "type": "function"
    },
    {
      "inputs": [
        {
          "internalType": "uint256",
          "name": "",
          "type": "uint256"
        },
        {
          "internalType": "address",
          "name": "",
          "type": "address"
        }
      ],
      "name": "userInfo",
      "outputs": [
        {
          "internalType": "uint256",
          "name": "amount",
          "type": "uint256"
        },
        {
          "internalType": "uint256",
          "name": "rewardDebt",
          "type": "uint256"
        }
      ],
      "stateMutability": "view",
      "type": "function"
    },
    {
      "inputs": [
        {
          "internalType": "uint256",
          "name": "_pid",
          "type": "uint256"
        },
        {
          "internalType": "uint256",
          "name": "_amount",
          "type": "uint256"
        }
      ],
      "name": "withdraw",
      "outputs": [],
      "stateMutability": "nonpayable",
      "type": "function"
    }
  ],
  "transactionHash": "0xfa2b6584527f3758f3931b7a3392d46bdfdd2018d385f059a8b4411de4f53429",
  "args": [
    "0xa6D6240e5d5b6232996D58B6b3C4555c824deA73"
  ],
  "solcInputHash": "151e0f20bdfd189cb6354d853460ddfc",
  "bytecode": "0x60806040526001600355600060065534801561001a57600080fd5b50604051611a1c380380611a1c83398101604081905261003991610192565b600080546001600160a01b031916339081178255604051909182917f8be0079c531659141344cd1fd0a4f28419497f9722a3daafe3b4186f6b6457e0908290a350600180546001600160a01b03199081166001600160a01b03938416908117835568022b1c8c1227a00000600255436007819055604080516080810182529283526103e8602084018181529184019283526000606085018181526004805498890181559182905294517f8a35acfbc15ff81a39ae7d344fd709f28e8600b4aa8c65c6b64bfe7fe36bd19b97909102968701805490961697169690961790935591517f8a35acfbc15ff81a39ae7d344fd709f28e8600b4aa8c65c6b64bfe7fe36bd19c84015590517f8a35acfbc15ff81a39ae7d344fd709f28e8600b4aa8c65c6b64bfe7fe36bd19d830155517f8a35acfbc15ff81a39ae7d344fd709f28e8600b4aa8c65c6b64bfe7fe36bd19e909101556006556101c0565b6000602082840312156101a3578081fd5b81516001600160a01b03811681146101b9578182fd5b9392505050565b61184d806101cf6000396000f3fe608060405234801561001057600080fd5b506004361061014d5760003560e01c80635312ea8e116100c35780638dbb1e3a1161007c5780638dbb1e3a146102a757806393f1a40b146102ba578063a8b973a114610301578063dce174841461030a578063e2bbb1581461031d578063f2fde38b146103305761014d565b80635312ea8e146102395780635ffe61461461024c578063630b5ba11461025f57806364482f7914610267578063715018a61461027a5780638da5cb5b146102825761014d565b806317caf6f11161011557806317caf6f1146101db5780631eaaa045146101e457806341441d3b146101f7578063441a3e701461020a57806348cd4cb11461021d57806351eb05a6146102265761014d565b80630755e0b614610152578063081e3eda1461016e5780631058d281146101765780631175a1dd1461018b5780631526fe271461019e575b600080fd5b61015b60025481565b6040519081526020015b60405180910390f35b60045461015b565b6101896101843660046115e0565b610343565b005b61015b610199366004611610565b6104d3565b6101b16101ac3660046115e0565b610660565b604080516001600160a01b0390951685526020850193909352918301526060820152608001610165565b61015b60065481565b6101896101f236600461163f565b6106a4565b6101896102053660046115e0565b610800565b610189610218366004611680565b61094b565b61015b60075481565b6101896102343660046115e0565b610b08565b6101896102473660046115e0565b610c5b565b61018961025a3660046115e0565b610d0b565b610189610d3a565b6101896102753660046116a1565b610d65565b610189610e6b565b6000546001600160a01b03165b6040516001600160a01b039091168152602001610165565b61015b6102b5366004611680565b610edf565b6102ec6102c8366004611610565b60056020908152600092835260408084209091529082529020805460019091015482565b60408051928352602083019190915201610165565b61015b60035481565b60015461028f906001600160a01b031681565b61018961032b366004611680565b610f00565b61018961033e3660046115a8565b611078565b6000600460008154811061036757634e487b7160e01b600052603260045260246000fd5b600091825260208083203384527f05b8ccbb9d4d8fb16ea74ce3c29a41f1b461fbdaff4714a0d9a8eb05499746bc90915260409092208054600490920290920192508311156103f25760405162461bcd60e51b81526020600482015260126024820152711dda5d1a191c985dce881b9bdd0819dbdbd960721b60448201526064015b60405180910390fd5b6103fc6000610b08565b6000816001015464e8d4a510008460030154846000015461041d919061178a565b610427919061176a565b61043191906117a9565b90508015610443576104433382611162565b831561046e5781546104569085906117a9565b8255825461046e906001600160a01b031633866111cc565b6003830154825464e8d4a51000916104859161178a565b61048f919061176a565b600183015560405184815260009033907ff279e6a1f5e320cca91135676d9cb6e44ca8a08c0b88342bcdb1144f6511b568906020015b60405180910390a350505050565b600080600484815481106104f757634e487b7160e01b600052603260045260246000fd5b600091825260208083208784526005825260408085206001600160a01b038981168752935280852060049485029092016003810154815492516370a0823160e01b8152309681019690965290965091949193919216906370a082319060240160206040518083038186803b15801561056e57600080fd5b505afa158015610582573d6000803e3d6000fd5b505050506040513d601f19601f820116820180604052508101906105a691906115f8565b90508360020154431180156105ba57508015155b156106285760006105cf856002015443610edf565b905060006006548660010154600254846105e9919061178a565b6105f3919061178a565b6105fd919061176a565b90508261060a8286611752565b6106199064e8d4a5100061178a565b610623919061176a565b935050505b6001830154835464e8d4a510009061064190859061178a565b61064b919061176a565b61065591906117a9565b979650505050505050565b6004818154811061067057600080fd5b600091825260209091206004909102018054600182015460028301546003909301546001600160a01b039092169350919084565b6000546001600160a01b031633146106ce5760405162461bcd60e51b81526004016103e99061171d565b80156106dc576106dc610d3a565b600060075443116106ef576007546106f1565b435b9050836006546107019190611752565b600655604080516080810182526001600160a01b03858116825260208201878152928201848152600060608401818152600480546001810182559281905294517f8a35acfbc15ff81a39ae7d344fd709f28e8600b4aa8c65c6b64bfe7fe36bd19b9290950291820180546001600160a01b031916959094169490941790925592517f8a35acfbc15ff81a39ae7d344fd709f28e8600b4aa8c65c6b64bfe7fe36bd19c82015591517f8a35acfbc15ff81a39ae7d344fd709f28e8600b4aa8c65c6b64bfe7fe36bd19d830155517f8a35acfbc15ff81a39ae7d344fd709f28e8600b4aa8c65c6b64bfe7fe36bd19e909101556107fa611234565b50505050565b6000600460008154811061082457634e487b7160e01b600052603260045260246000fd5b600091825260208083203384527f05b8ccbb9d4d8fb16ea74ce3c29a41f1b461fbdaff4714a0d9a8eb05499746bc9091526040832060049092020192509061086b90610b08565b8054156108bb576000816001015464e8d4a5100084600301548460000154610893919061178a565b61089d919061176a565b6108a791906117a9565b905080156108b9576108b93382611162565b505b82156108e85781546108d8906001600160a01b0316333086611336565b80546108e5908490611752565b81555b6003820154815464e8d4a51000916108ff9161178a565b610909919061176a565b600182015560405183815260009033907f90890809c654f11d6e72a28fa60149770a0d11ec6c92319d6ceb2bb0a4ea1a159060200160405180910390a3505050565b816109985760405162461bcd60e51b815260206004820152601a60248201527f77697468647261772043414b4520627920756e7374616b696e6700000000000060448201526064016103e9565b6000600483815481106109bb57634e487b7160e01b600052603260045260246000fd5b600091825260208083208684526005825260408085203386529092529220805460049092029092019250831115610a295760405162461bcd60e51b81526020600482015260126024820152711dda5d1a191c985dce881b9bdd0819dbdbd960721b60448201526064016103e9565b610a3284610b08565b6000816001015464e8d4a5100084600301548460000154610a53919061178a565b610a5d919061176a565b610a6791906117a9565b90508015610a7957610a793382611162565b8315610aa4578154610a8c9085906117a9565b82558254610aa4906001600160a01b031633866111cc565b6003830154825464e8d4a5100091610abb9161178a565b610ac5919061176a565b6001830155604051848152859033907ff279e6a1f5e320cca91135676d9cb6e44ca8a08c0b88342bcdb1144f6511b5689060200160405180910390a35050505050565b600060048281548110610b2b57634e487b7160e01b600052603260045260246000fd5b9060005260206000209060040201905080600201544311610b4c5750610c58565b80546040516370a0823160e01b81523060048201526000916001600160a01b0316906370a082319060240160206040518083038186803b158015610b8f57600080fd5b505afa158015610ba3573d6000803e3d6000fd5b505050506040513d601f19601f82011682018060405250810190610bc791906115f8565b905080610bdb575043600290910155610c58565b6000610beb836002015443610edf565b90506000600654846001015460025484610c05919061178a565b610c0f919061178a565b610c19919061176a565b905082818560030154610c2c9190611752565b610c3b9064e8d4a5100061178a565b610c45919061176a565b6003850155505043600290920191909155505b50565b600060048281548110610c7e57634e487b7160e01b600052603260045260246000fd5b60009182526020808320858452600582526040808520338087529352909320805460049093029093018054909450610cc3926001600160a01b039190911691906111cc565b8054604051908152839033907fbb757047c2b5f3974fe26b7c10f732e7bce710b0952a71082702781e62ae05959060200160405180910390a360008082556001909101555050565b6000546001600160a01b03163314610d355760405162461bcd60e51b81526004016103e99061171d565b600355565b60045460005b81811015610d6157610d5181610b08565b610d5a816117ec565b9050610d40565b5050565b6000546001600160a01b03163314610d8f5760405162461bcd60e51b81526004016103e99061171d565b8015610d9d57610d9d610d3a565b8160048481548110610dbf57634e487b7160e01b600052603260045260246000fd5b906000526020600020906004020160010154600654610dde91906117a9565b610de89190611752565b600681905550600060048481548110610e1157634e487b7160e01b600052603260045260246000fd5b90600052602060002090600402016001015490508260048581548110610e4757634e487b7160e01b600052603260045260246000fd5b9060005260206000209060040201600101819055508281146107fa576107fa611234565b6000546001600160a01b03163314610e955760405162461bcd60e51b81526004016103e99061171d565b600080546040516001600160a01b03909116907f8be0079c531659141344cd1fd0a4f28419497f9722a3daafe3b4186f6b6457e0908390a3600080546001600160a01b0319169055565b600354600090610eef84846117a9565b610ef9919061178a565b9392505050565b81610f4d5760405162461bcd60e51b815260206004820152601760248201527f6465706f7369742043414b45206279207374616b696e6700000000000000000060448201526064016103e9565b600060048381548110610f7057634e487b7160e01b600052603260045260246000fd5b60009182526020808320868452600582526040808520338652909252922060049091029091019150610fa184610b08565b805415610ff1576000816001015464e8d4a5100084600301548460000154610fc9919061178a565b610fd3919061176a565b610fdd91906117a9565b90508015610fef57610fef3382611162565b505b821561101e57815461100e906001600160a01b0316333086611336565b805461101b908490611752565b81555b6003820154815464e8d4a51000916110359161178a565b61103f919061176a565b6001820155604051838152849033907f90890809c654f11d6e72a28fa60149770a0d11ec6c92319d6ceb2bb0a4ea1a15906020016104c5565b6000546001600160a01b031633146110a25760405162461bcd60e51b81526004016103e99061171d565b6001600160a01b0381166111075760405162461bcd60e51b815260206004820152602660248201527f4f776e61626c653a206e6577206f776e657220697320746865207a65726f206160448201526564647265737360d01b60648201526084016103e9565b600080546040516001600160a01b03808516939216917f8be0079c531659141344cd1fd0a4f28419497f9722a3daafe3b4186f6b6457e091a3600080546001600160a01b0319166001600160a01b0392909216919091179055565b6001546040516340c10f1960e01b81526001600160a01b03848116600483015260248201849052909116906340c10f1990604401600060405180830381600087803b1580156111b057600080fd5b505af11580156111c4573d6000803e3d6000fd5b505050505050565b6040516001600160a01b03831660248201526044810182905261122f90849063a9059cbb60e01b906064015b60408051601f198184030181529190526020810180516001600160e01b03166001600160e01b03199093169290921790915261136e565b505050565b600454600060015b82811015611294576004818154811061126557634e487b7160e01b600052603260045260246000fd5b906000526020600020906004020160010154826112829190611752565b915061128d816117ec565b905061123c565b508015610d61576112a660038261176a565b90508060046000815481106112cb57634e487b7160e01b600052603260045260246000fd5b9060005260206000209060040201600101546006546112ea91906117a9565b6112f49190611752565b60068190555080600460008154811061131d57634e487b7160e01b600052603260045260246000fd5b9060005260206000209060040201600101819055505050565b6040516001600160a01b03808516602483015283166044820152606481018290526107fa9085906323b872dd60e01b906084016111f8565b60006113c3826040518060400160405280602081526020017f5361666545524332303a206c6f772d6c6576656c2063616c6c206661696c6564815250856001600160a01b03166114409092919063ffffffff16565b80519091501561122f57808060200190518101906113e191906115c4565b61122f5760405162461bcd60e51b815260206004820152602a60248201527f5361666545524332303a204552433230206f7065726174696f6e20646964206e6044820152691bdd081cdd58d8d9595960b21b60648201526084016103e9565b606061144f8484600085611457565b949350505050565b6060824710156114b85760405162461bcd60e51b815260206004820152602660248201527f416464726573733a20696e73756666696369656e742062616c616e636520666f6044820152651c8818d85b1b60d21b60648201526084016103e9565b843b6115065760405162461bcd60e51b815260206004820152601d60248201527f416464726573733a2063616c6c20746f206e6f6e2d636f6e747261637400000060448201526064016103e9565b600080866001600160a01b0316858760405161152291906116ce565b60006040518083038185875af1925050503d806000811461155f576040519150601f19603f3d011682016040523d82523d6000602084013e611564565b606091505b50915091506106558282866060831561157e575081610ef9565b82511561158e5782518084602001fd5b8160405162461bcd60e51b81526004016103e991906116ea565b6000602082840312156115b9578081fd5b8135610ef98161181d565b6000602082840312156115d5578081fd5b8151610ef981611832565b6000602082840312156115f1578081fd5b5035919050565b600060208284031215611609578081fd5b5051919050565b60008060408385031215611622578081fd5b8235915060208301356116348161181d565b809150509250929050565b600080600060608486031215611653578081fd5b8335925060208401356116658161181d565b9150604084013561167581611832565b809150509250925092565b60008060408385031215611692578182fd5b50508035926020909101359150565b6000806000606084860312156116b5578283fd5b8335925060208401359150604084013561167581611832565b600082516116e08184602087016117c0565b9190910192915050565b60006020825282518060208401526117098160408501602087016117c0565b601f01601f19169190910160400192915050565b6020808252818101527f4f776e61626c653a2063616c6c6572206973206e6f7420746865206f776e6572604082015260600190565b6000821982111561176557611765611807565b500190565b60008261178557634e487b7160e01b81526012600452602481fd5b500490565b60008160001904831182151516156117a4576117a4611807565b500290565b6000828210156117bb576117bb611807565b500390565b60005b838110156117db5781810151838201526020016117c3565b838111156107fa5750506000910152565b600060001982141561180057611800611807565b5060010190565b634e487b7160e01b600052601160045260246000fd5b6001600160a01b0381168114610c5857600080fd5b8015158114610c5857600080fdfea164736f6c6343000803000a",
  "devdoc": {
    "kind": "dev",
    "methods": {
      "owner()": {
        "details": "Returns the address of the current owner."
      },
      "renounceOwnership()": {
        "details": "Leaves the contract without owner. It will not be possible to call `onlyOwner` functions anymore. Can only be called by the current owner. NOTE: Renouncing ownership will leave the contract without an owner, thereby removing any functionality that is only available to the owner."
      },
      "transferOwnership(address)": {
        "details": "Transfers ownership of the contract to a new account (`newOwner`). Can only be called by the current owner."
      }
    },
    "version": 1
  },
  "userdoc": {
    "kind": "user",
    "methods": {},
    "version": 1
  },
  "storageLayout": {
    "storage": [
      {
        "astId": 7,
        "contract": "contracts/mocks/MasterChef.sol:MasterChef",
        "label": "_owner",
        "offset": 0,
        "slot": "0",
        "type": "t_address"
      },
      {
        "astId": 1986,
        "contract": "contracts/mocks/MasterChef.sol:MasterChef",
        "label": "cake",
        "offset": 0,
        "slot": "1",
        "type": "t_address"
      },
      {
        "astId": 1988,
        "contract": "contracts/mocks/MasterChef.sol:MasterChef",
        "label": "cakePerBlock",
        "offset": 0,
        "slot": "2",
        "type": "t_uint256"
      },
      {
        "astId": 1991,
        "contract": "contracts/mocks/MasterChef.sol:MasterChef",
        "label": "bonusMultiplier",
        "offset": 0,
        "slot": "3",
        "type": "t_uint256"
      },
      {
        "astId": 1995,
        "contract": "contracts/mocks/MasterChef.sol:MasterChef",
        "label": "poolInfo",
        "offset": 0,
        "slot": "4",
        "type": "t_array(t_struct(PoolInfo)1984_storage)dyn_storage"
      },
      {
        "astId": 2002,
        "contract": "contracts/mocks/MasterChef.sol:MasterChef",
        "label": "userInfo",
        "offset": 0,
        "slot": "5",
        "type": "t_mapping(t_uint256,t_mapping(t_address,t_struct(UserInfo)1974_storage))"
      },
      {
        "astId": 2005,
        "contract": "contracts/mocks/MasterChef.sol:MasterChef",
        "label": "totalAllocPoint",
        "offset": 0,
        "slot": "6",
        "type": "t_uint256"
      },
      {
        "astId": 2007,
        "contract": "contracts/mocks/MasterChef.sol:MasterChef",
        "label": "startBlock",
        "offset": 0,
        "slot": "7",
        "type": "t_uint256"
      }
    ],
    "types": {
      "t_address": {
        "encoding": "inplace",
        "label": "address",
        "numberOfBytes": "20"
      },
      "t_array(t_struct(PoolInfo)1984_storage)dyn_storage": {
        "base": "t_struct(PoolInfo)1984_storage",
        "encoding": "dynamic_array",
        "label": "struct MasterChef.PoolInfo[]",
        "numberOfBytes": "32"
      },
      "t_contract(IERC20)734": {
        "encoding": "inplace",
        "label": "contract IERC20",
        "numberOfBytes": "20"
      },
      "t_mapping(t_address,t_struct(UserInfo)1974_storage)": {
        "encoding": "mapping",
        "key": "t_address",
        "label": "mapping(address => struct MasterChef.UserInfo)",
        "numberOfBytes": "32",
        "value": "t_struct(UserInfo)1974_storage"
      },
      "t_mapping(t_uint256,t_mapping(t_address,t_struct(UserInfo)1974_storage))": {
        "encoding": "mapping",
        "key": "t_uint256",
        "label": "mapping(uint256 => mapping(address => struct MasterChef.UserInfo))",
        "numberOfBytes": "32",
        "value": "t_mapping(t_address,t_struct(UserInfo)1974_storage)"
      },
      "t_struct(PoolInfo)1984_storage": {
        "encoding": "inplace",
        "label": "struct MasterChef.PoolInfo",
        "members": [
          {
            "astId": 1977,
            "contract": "contracts/mocks/MasterChef.sol:MasterChef",
            "label": "lpToken",
            "offset": 0,
            "slot": "0",
            "type": "t_contract(IERC20)734"
          },
          {
            "astId": 1979,
            "contract": "contracts/mocks/MasterChef.sol:MasterChef",
            "label": "allocPoint",
            "offset": 0,
            "slot": "1",
            "type": "t_uint256"
          },
          {
            "astId": 1981,
            "contract": "contracts/mocks/MasterChef.sol:MasterChef",
            "label": "lastRewardBlock",
            "offset": 0,
            "slot": "2",
            "type": "t_uint256"
          },
          {
            "astId": 1983,
            "contract": "contracts/mocks/MasterChef.sol:MasterChef",
            "label": "accCakePerShare",
            "offset": 0,
            "slot": "3",
            "type": "t_uint256"
          }
        ],
        "numberOfBytes": "128"
      },
      "t_struct(UserInfo)1974_storage": {
        "encoding": "inplace",
        "label": "struct MasterChef.UserInfo",
        "members": [
          {
            "astId": 1971,
            "contract": "contracts/mocks/MasterChef.sol:MasterChef",
            "label": "amount",
            "offset": 0,
            "slot": "0",
            "type": "t_uint256"
          },
          {
            "astId": 1973,
            "contract": "contracts/mocks/MasterChef.sol:MasterChef",
            "label": "rewardDebt",
            "offset": 0,
            "slot": "1",
            "type": "t_uint256"
          }
        ],
        "numberOfBytes": "64"
      },
      "t_uint256": {
        "encoding": "inplace",
        "label": "uint256",
        "numberOfBytes": "32"
      }
    }
  }
}