{
  "address": "0x8FCC11DA25b3eC556D231f330335c8AF5bE439a1",
  "abi": [
    {
      "inputs": [
        {
          "internalType": "address payable",
          "name": "_to",
          "type": "address"
        },
        {
          "internalType": "uint256",
          "name": "_amount",
          "type": "uint256"
        }
      ],
      "name": "withdrawBnb",
      "outputs": [],
      "stateMutability": "nonpayable",
      "type": "function"
    },
    {
      "inputs": [
        {
          "internalType": "address",
          "name": "_token",
          "type": "address"
        },
        {
          "internalType": "address",
          "name": "_to",
          "type": "address"
        },
        {
          "internalType": "uint256",
          "name": "_amount",
          "type": "uint256"
        }
      ],
      "name": "withdrawTokens",
      "outputs": [],
      "stateMutability": "nonpayable",
      "type": "function"
    }
  ],
  "transactionHash": "0x4c726dd87bdc7efe33c92710e4b5fc1b6d05786d9c667c9fe3de24cee4cb366a",
  "args": [],
  "solcInputHash": "151e0f20bdfd189cb6354d853460ddfc",
  "bytecode": "0x608060405234801561001057600080fd5b5061046d806100206000396000f3fe608060405234801561001057600080fd5b50600436106100365760003560e01c80635e35359e1461003b578063a12cff4914610050575b600080fd5b61004e610049366004610369565b610063565b005b61004e61005e36600461033e565b61007c565b6100776001600160a01b03841683836100b2565b505050565b6040516001600160a01b0383169082156108fc029083906000818181858888f19350505050158015610077573d6000803e3d6000fd5b604080516001600160a01b03848116602483015260448083018590528351808403909101815260649092018352602080830180516001600160e01b031663a9059cbb60e01b17905283518085019094528084527f5361666545524332303a206c6f772d6c6576656c2063616c6c206661696c656490840152610077928692916000916101429185169084906101c4565b805190915015610077578080602001905181019061016091906103a9565b6100775760405162461bcd60e51b815260206004820152602a60248201527f5361666545524332303a204552433230206f7065726174696f6e20646964206e6044820152691bdd081cdd58d8d9595960b21b60648201526084015b60405180910390fd5b60606101d384846000856101dd565b90505b9392505050565b60608247101561023e5760405162461bcd60e51b815260206004820152602660248201527f416464726573733a20696e73756666696369656e742062616c616e636520666f6044820152651c8818d85b1b60d21b60648201526084016101bb565b843b61028c5760405162461bcd60e51b815260206004820152601d60248201527f416464726573733a2063616c6c20746f206e6f6e2d636f6e747261637400000060448201526064016101bb565b600080866001600160a01b031685876040516102a891906103c9565b60006040518083038185875af1925050503d80600081146102e5576040519150601f19603f3d011682016040523d82523d6000602084013e6102ea565b606091505b50915091506102fa828286610305565b979650505050505050565b606083156103145750816101d6565b8251156103245782518084602001fd5b8160405162461bcd60e51b81526004016101bb91906103e5565b60008060408385031215610350578182fd5b823561035b81610448565b946020939093013593505050565b60008060006060848603121561037d578081fd5b833561038881610448565b9250602084013561039881610448565b929592945050506040919091013590565b6000602082840312156103ba578081fd5b815180151581146101d6578182fd5b600082516103db818460208701610418565b9190910192915050565b6000602082528251806020840152610404816040850160208701610418565b601f01601f19169190910160400192915050565b60005b8381101561043357818101518382015260200161041b565b83811115610442576000848401525b50505050565b6001600160a01b038116811461045d57600080fd5b5056fea164736f6c6343000803000a",
  "devdoc": {
    "kind": "dev",
    "methods": {},
    "version": 1
  },
  "userdoc": {
    "kind": "user",
    "methods": {},
    "version": 1
  },
  "storageLayout": {
    "storage": [],
    "types": null
  }
}