{
  "address": "0xeF24410004D431970b7420291B5e4AD6c90dD2C8",
  "abi": [
    {
      "inputs": [
        {
          "internalType": "address",
          "name": "_balleMaster",
          "type": "address"
        },
        {
          "internalType": "address",
          "name": "_depositToken",
          "type": "address"
        },
        {
          "internalType": "address",
          "name": "_wantToken",
          "type": "address"
        }
      ],
      "stateMutability": "nonpayable",
      "type": "constructor"
    },
    {
      "anonymous": false,
      "inputs": [
        {
          "indexed": true,
          "internalType": "address",
          "name": "previousOwner",
          "type": "address"
        },
        {
          "indexed": true,
          "internalType": "address",
          "name": "newOwner",
          "type": "address"
        }
      ],
      "name": "OwnershipTransferred",
      "type": "event"
    },
    {
      "inputs": [],
      "name": "balleMaster",
      "outputs": [
        {
          "internalType": "address",
          "name": "",
          "type": "address"
        }
      ],
      "stateMutability": "view",
      "type": "function"
    },
    {
      "inputs": [
        {
          "internalType": "uint256",
          "name": "_amount",
          "type": "uint256"
        }
      ],
      "name": "deposit",
      "outputs": [
        {
          "internalType": "uint256",
          "name": "",
          "type": "uint256"
        }
      ],
      "stateMutability": "nonpayable",
      "type": "function"
    },
    {
      "inputs": [],
      "name": "depositToken",
      "outputs": [
        {
          "internalType": "address",
          "name": "",
          "type": "address"
        }
      ],
      "stateMutability": "view",
      "type": "function"
    },
    {
      "inputs": [],
      "name": "depositTotal",
      "outputs": [
        {
          "internalType": "uint256",
          "name": "",
          "type": "uint256"
        }
      ],
      "stateMutability": "view",
      "type": "function"
    },
    {
      "inputs": [
        {
          "internalType": "address",
          "name": "_strat",
          "type": "address"
        }
      ],
      "name": "emergencyUpgradeTo",
      "outputs": [
        {
          "internalType": "uint256",
          "name": "",
          "type": "uint256"
        },
        {
          "internalType": "uint256",
          "name": "",
          "type": "uint256"
        },
        {
          "internalType": "uint256",
          "name": "",
          "type": "uint256"
        }
      ],
      "stateMutability": "nonpayable",
      "type": "function"
    },
    {
      "inputs": [],
      "name": "govAddress",
      "outputs": [
        {
          "internalType": "address",
          "name": "",
          "type": "address"
        }
      ],
      "stateMutability": "view",
      "type": "function"
    },
    {
      "inputs": [],
      "name": "harvest",
      "outputs": [],
      "stateMutability": "nonpayable",
      "type": "function"
    },
    {
      "inputs": [
        {
          "internalType": "address",
          "name": "_token",
          "type": "address"
        },
        {
          "internalType": "uint256",
          "name": "_amount",
          "type": "uint256"
        },
        {
          "internalType": "address",
          "name": "_to",
          "type": "address"
        }
      ],
      "name": "inCaseTokensGetStuck",
      "outputs": [],
      "stateMutability": "nonpayable",
      "type": "function"
    },
    {
      "inputs": [],
      "name": "owner",
      "outputs": [
        {
          "internalType": "address",
          "name": "",
          "type": "address"
        }
      ],
      "stateMutability": "view",
      "type": "function"
    },
    {
      "inputs": [],
      "name": "panic",
      "outputs": [],
      "stateMutability": "nonpayable",
      "type": "function"
    },
    {
      "inputs": [],
      "name": "pause",
      "outputs": [],
      "stateMutability": "nonpayable",
      "type": "function"
    },
    {
      "inputs": [],
      "name": "paused",
      "outputs": [
        {
          "internalType": "bool",
          "name": "",
          "type": "bool"
        }
      ],
      "stateMutability": "view",
      "type": "function"
    },
    {
      "inputs": [],
      "name": "renounceOwnership",
      "outputs": [],
      "stateMutability": "nonpayable",
      "type": "function"
    },
    {
      "inputs": [],
      "name": "retire",
      "outputs": [],
      "stateMutability": "nonpayable",
      "type": "function"
    },
    {
      "inputs": [],
      "name": "retired",
      "outputs": [
        {
          "internalType": "bool",
          "name": "",
          "type": "bool"
        }
      ],
      "stateMutability": "view",
      "type": "function"
    },
    {
      "inputs": [
        {
          "internalType": "address",
          "name": "_govAddress",
          "type": "address"
        }
      ],
      "name": "setGov",
      "outputs": [],
      "stateMutability": "nonpayable",
      "type": "function"
    },
    {
      "inputs": [],
      "name": "sharesTotal",
      "outputs": [
        {
          "internalType": "uint256",
          "name": "",
          "type": "uint256"
        }
      ],
      "stateMutability": "view",
      "type": "function"
    },
    {
      "inputs": [
        {
          "internalType": "address",
          "name": "newOwner",
          "type": "address"
        }
      ],
      "name": "transferOwnership",
      "outputs": [],
      "stateMutability": "nonpayable",
      "type": "function"
    },
    {
      "inputs": [],
      "name": "unpause",
      "outputs": [],
      "stateMutability": "nonpayable",
      "type": "function"
    },
    {
      "inputs": [
        {
          "internalType": "address",
          "name": "_strat",
          "type": "address"
        },
        {
          "internalType": "uint256",
          "name": "_sharesTotal",
          "type": "uint256"
        },
        {
          "internalType": "uint256",
          "name": "_depositAmt",
          "type": "uint256"
        },
        {
          "internalType": "uint256",
          "name": "_wantAmt",
          "type": "uint256"
        }
      ],
      "name": "upgradeFrom",
      "outputs": [],
      "stateMutability": "nonpayable",
      "type": "function"
    },
    {
      "inputs": [
        {
          "internalType": "address",
          "name": "_strat",
          "type": "address"
        }
      ],
      "name": "upgradeTo",
      "outputs": [
        {
          "internalType": "uint256",
          "name": "",
          "type": "uint256"
        },
        {
          "internalType": "uint256",
          "name": "",
          "type": "uint256"
        },
        {
          "internalType": "uint256",
          "name": "",
          "type": "uint256"
        }
      ],
      "stateMutability": "nonpayable",
      "type": "function"
    },
    {
      "inputs": [],
      "name": "wantToken",
      "outputs": [
        {
          "internalType": "address",
          "name": "",
          "type": "address"
        }
      ],
      "stateMutability": "view",
      "type": "function"
    },
    {
      "inputs": [],
      "name": "wantTotal",
      "outputs": [
        {
          "internalType": "uint256",
          "name": "",
          "type": "uint256"
        }
      ],
      "stateMutability": "view",
      "type": "function"
    },
    {
      "inputs": [
        {
          "internalType": "uint256",
          "name": "_amount",
          "type": "uint256"
        }
      ],
      "name": "withdraw",
      "outputs": [
        {
          "internalType": "uint256",
          "name": "",
          "type": "uint256"
        },
        {
          "internalType": "uint256",
          "name": "",
          "type": "uint256"
        },
        {
          "internalType": "uint256",
          "name": "",
          "type": "uint256"
        }
      ],
      "stateMutability": "nonpayable",
      "type": "function"
    }
  ],
  "transactionHash": "0xe4a1a5cd52ed312575cf4704a0eed91175236458918914d357cbbaa77f8bd2a9",
  "args": [
    "0x1607d8db126402a1287E33b39005ebF4aC060793",
    "0xd3B6A0e47A4907B27b748Ce56E53303fbB05Cc9B",
    "0xd3B6A0e47A4907B27b748Ce56E53303fbB05Cc9B"
  ],
  "solcInputHash": "5fa0f86a01bd022976092299683400c9",
  "bytecode": "0x60806040526000600581905560068190556007556008805461ffff191690553480156200002b57600080fd5b50604051620017dc380380620017dc8339810160408190526200004e9162000208565b600080546001600160a01b03191633908117825560405190918291600080516020620017bc833981519152908290a350600180546001600160a01b038086166001600160a01b0319928316179092556002805485841690831617905560038054928416928216929092179091556004805490911633179055620000d183620000da565b50505062000251565b6000546001600160a01b031633146200013a5760405162461bcd60e51b815260206004820181905260248201527f4f776e61626c653a2063616c6c6572206973206e6f7420746865206f776e657260448201526064015b60405180910390fd5b6001600160a01b038116620001a15760405162461bcd60e51b815260206004820152602660248201527f4f776e61626c653a206e6577206f776e657220697320746865207a65726f206160448201526564647265737360d01b606482015260840162000131565b600080546040516001600160a01b0380851693921691600080516020620017bc83398151915291a3600080546001600160a01b0319166001600160a01b0392909216919091179055565b80516001600160a01b03811681146200020357600080fd5b919050565b6000806000606084860312156200021d578283fd5b6200022884620001eb565b92506200023860208501620001eb565b91506200024860408501620001eb565b90509250925092565b61155b80620002616000396000f3fe608060405234801561001057600080fd5b50600436106101985760003560e01c8063764afb5a116100e3578063bb8926201161008c578063cfad57a211610066578063cfad57a2146102f8578063d23e04801461030b578063f2fde38b1461031e57610198565b8063bb892620146102d2578063bdccc823146101f2578063c89039c5146102e557610198565b80638da5cb5b116100bd5780638da5cb5b146102ae578063a4874d7714610259578063b6b55f25146102bf57610198565b8063764afb5a146102925780637c10eef21461029b5780638456cb591461025957610198565b80634641257d116101455780635c975abb1161011f5780635c975abb1461026a57806367206d4014610277578063715018a61461028a57610198565b80634641257d146102515780634700d305146102595780634adae0da1461026157610198565b80633f4ba83a116101765780633f4ba83a1461020557806344a3955e1461020f57806346008a071461022657610198565b80632e1a7d4d1461019d5780632eb38ae0146101d05780633659cfe6146101f2575b600080fd5b6101b06101ab3660046113ff565b610331565b604080519384526020840192909252908201526060015b60405180910390f35b6008546101e290610100900460ff1681565b60405190151581526020016101c7565b6101b0610200366004611352565b61053f565b61020d610736565b005b61021860065481565b6040519081526020016101c7565b600454610239906001600160a01b031681565b6040516001600160a01b0390911681526020016101c7565b61020d61078a565b61020d610974565b61021860055481565b6008546101e29060ff1681565b61020d61028536600461136c565b6109cb565b61020d610ab3565b61021860075481565b61020d6102a93660046113a7565b610b45565b6000546001600160a01b0316610239565b6102186102cd3660046113ff565b610d07565b600154610239906001600160a01b031681565b600254610239906001600160a01b031681565b61020d610306366004611352565b610df3565b600354610239906001600160a01b031681565b61020d61032c366004611352565b610e58565b60008080336001600160a01b03166103516000546001600160a01b031690565b6001600160a01b03161461039a5760405162461bcd60e51b8152602060048201819052602482015260008051602061152f83398151915260448201526064015b60405180910390fd5b600084116103d45760405162461bcd60e51b815260206004820152600760248201526608585b5bdd5b9d60ca1b6044820152606401610391565b6002546040516370a0823160e01b81523060048201526000916001600160a01b0316906370a082319060240160206040518083038186803b15801561041857600080fd5b505afa15801561042c573d6000803e3d6000fd5b505050506040513d601f19601f820116820180604052508101906104509190611417565b90508085111561045e578094505b84600554101561046e5760055494505b60006005546006548761048191906114b6565b61048b9190611496565b905060065481111561049c57506006545b6000600654826007546104af91906114b6565b6104b99190611496565b9050816006546104c991906114d5565b6006556005546104da9088906114d5565b6005556007546104eb9082906114d5565b600755600254610505906001600160a01b03163389610f60565b6003546002546001600160a01b0390811691161461053457600354610534906001600160a01b03163383610f60565b909690945092505050565b60008080336001600160a01b031661055f6000546001600160a01b031690565b6001600160a01b0316146105a35760405162461bcd60e51b8152602060048201819052602482015260008051602061152f8339815191526044820152606401610391565b6001600160a01b0384166105e25760405162461bcd60e51b8152602060048201526006602482015265085cdd1c985d60d21b6044820152606401610391565b6002546040516370a0823160e01b81523060048201526000916001600160a01b0316906370a082319060240160206040518083038186803b15801561062657600080fd5b505afa15801561063a573d6000803e3d6000fd5b505050506040513d601f19601f8201168201806040525081019061065e9190611417565b60025490915060009061067b906001600160a01b03168784610ff0565b6003546002546001600160a01b03908116911614610728576003546040516370a0823160e01b81523060048201526001600160a01b03909116906370a082319060240160206040518083038186803b1580156106d657600080fd5b505afa1580156106ea573d6000803e3d6000fd5b505050506040513d601f19601f8201168201806040525081019061070e9190611417565b600354909150610728906001600160a01b03168783610ff0565b600654969195509350915050565b6000546001600160a01b0316331461077e5760405162461bcd60e51b8152602060048201819052602482015260008051602061152f8339815191526044820152606401610391565b6008805460ff19169055565b6004546001600160a01b031633146107cd5760405162461bcd60e51b81526004016103919060208082526004908201526310b3b7bb60e11b604082015260600190565b6005546107d957610972565b6002546040516370a0823160e01b81523060048201526000916064916001600160a01b03909116906370a082319060240160206040518083038186803b15801561082257600080fd5b505afa158015610836573d6000803e3d6000fd5b505050506040513d601f19601f8201168201806040525081019061085a9190611417565b6108649190611496565b6003546002549192506001600160a01b03918216911614156108fa578060055461088e919061147e565b6005556002546040516340c10f1960e01b8152306004820152602481018390526001600160a01b03909116906340c10f1990604401600060405180830381600087803b1580156108dd57600080fd5b505af11580156108f1573d6000803e3d6000fd5b50505050610970565b80600754610908919061147e565b6007556003546040516340c10f1960e01b8152306004820152602481018390526001600160a01b03909116906340c10f1990604401600060405180830381600087803b15801561095757600080fd5b505af115801561096b573d6000803e3d6000fd5b505050505b505b565b6000546001600160a01b031633146109bc5760405162461bcd60e51b8152602060048201819052602482015260008051602061152f8339815191526044820152606401610391565b6008805460ff19166001179055565b6004546001600160a01b03163314610a0e5760405162461bcd60e51b81526004016103919060208082526004908201526310b3b7bb60e11b604082015260600190565b6003546001600160a01b0384811691161415610a545760405162461bcd60e51b8152602060048201526005602482015264217361666560d81b6044820152606401610391565b6002546001600160a01b0384811691161415610a9a5760405162461bcd60e51b8152602060048201526005602482015264217361666560d81b6044820152606401610391565b610aae6001600160a01b0384168284610f60565b505050565b6000546001600160a01b03163314610afb5760405162461bcd60e51b8152602060048201819052602482015260008051602061152f8339815191526044820152606401610391565b600080546040516001600160a01b03909116907f8be0079c531659141344cd1fd0a4f28419497f9722a3daafe3b4186f6b6457e0908390a3600080546001600160a01b0319169055565b6000546001600160a01b03163314610b8d5760405162461bcd60e51b8152602060048201819052602482015260008051602061152f8339815191526044820152606401610391565b6001600160a01b038416610bcc5760405162461bcd60e51b8152602060048201526006602482015265085cdd1c985d60d21b6044820152606401610391565b600254610be4906001600160a01b03168530856110b7565b6002546040516370a0823160e01b81523060048201526001600160a01b03909116906370a082319060240160206040518083038186803b158015610c2757600080fd5b505afa158015610c3b573d6000803e3d6000fd5b505050506040513d601f19601f82011682018060405250810190610c5f9190611417565b6005558015610cff57600354610c80906001600160a01b03168530846110b7565b6003546040516370a0823160e01b81523060048201526001600160a01b03909116906370a082319060240160206040518083038186803b158015610cc357600080fd5b505afa158015610cd7573d6000803e3d6000fd5b505050506040513d601f19601f82011682018060405250810190610cfb9190611417565b6007555b505060065550565b600080546001600160a01b03163314610d505760405162461bcd60e51b8152602060048201819052602482015260008051602061152f8339815191526044820152606401610391565b60008211610d8a5760405162461bcd60e51b815260206004820152600760248201526608585b5bdd5b9d60ca1b6044820152606401610391565b600254610da2906001600160a01b03163330856110b7565b600554829015610dc957600554600654610dbc90856114b6565b610dc69190611496565b90505b80600654610dd7919061147e565b600655600554610de890849061147e565b60055590505b919050565b6004546001600160a01b03163314610e365760405162461bcd60e51b81526004016103919060208082526004908201526310b3b7bb60e11b604082015260600190565b600480546001600160a01b0319166001600160a01b0392909216919091179055565b6000546001600160a01b03163314610ea05760405162461bcd60e51b8152602060048201819052602482015260008051602061152f8339815191526044820152606401610391565b6001600160a01b038116610f055760405162461bcd60e51b815260206004820152602660248201527f4f776e61626c653a206e6577206f776e657220697320746865207a65726f206160448201526564647265737360d01b6064820152608401610391565b600080546040516001600160a01b03808516939216917f8be0079c531659141344cd1fd0a4f28419497f9722a3daafe3b4186f6b6457e091a3600080546001600160a01b0319166001600160a01b0392909216919091179055565b6040516001600160a01b038316602482015260448101829052610aae90849063a9059cbb60e01b906064015b60408051601f198184030181529190526020810180517bffffffffffffffffffffffffffffffffffffffffffffffffffffffff167fffffffff00000000000000000000000000000000000000000000000000000000909316929092179091526110ef565b604051636eb1769f60e11b81523060048201526001600160a01b038381166024830152600091839186169063dd62ed3e9060440160206040518083038186803b15801561103c57600080fd5b505afa158015611050573d6000803e3d6000fd5b505050506040513d601f19601f820116820180604052508101906110749190611417565b61107e919061147e565b6040516001600160a01b0385166024820152604481018290529091506110b190859063095ea7b360e01b90606401610f8c565b50505050565b6040516001600160a01b03808516602483015283166044820152606481018290526110b19085906323b872dd60e01b90608401610f8c565b6000611144826040518060400160405280602081526020017f5361666545524332303a206c6f772d6c6576656c2063616c6c206661696c6564815250856001600160a01b03166111c19092919063ffffffff16565b805190915015610aae578080602001905181019061116291906113df565b610aae5760405162461bcd60e51b815260206004820152602a60248201527f5361666545524332303a204552433230206f7065726174696f6e20646964206e6044820152691bdd081cdd58d8d9595960b21b6064820152608401610391565b60606111d084846000856111da565b90505b9392505050565b60608247101561123b5760405162461bcd60e51b815260206004820152602660248201527f416464726573733a20696e73756666696369656e742062616c616e636520666f6044820152651c8818d85b1b60d21b6064820152608401610391565b843b6112895760405162461bcd60e51b815260206004820152601d60248201527f416464726573733a2063616c6c20746f206e6f6e2d636f6e74726163740000006044820152606401610391565b600080866001600160a01b031685876040516112a5919061142f565b60006040518083038185875af1925050503d80600081146112e2576040519150601f19603f3d011682016040523d82523d6000602084013e6112e7565b606091505b50915091506112f7828286611302565b979650505050505050565b606083156113115750816111d3565b8251156113215782518084602001fd5b8160405162461bcd60e51b8152600401610391919061144b565b80356001600160a01b0381168114610dee57600080fd5b600060208284031215611363578081fd5b6111d38261133b565b600080600060608486031215611380578182fd5b6113898461133b565b92506020840135915061139e6040850161133b565b90509250925092565b600080600080608085870312156113bc578081fd5b6113c58561133b565b966020860135965060408601359560600135945092505050565b6000602082840312156113f0578081fd5b815180151581146111d3578182fd5b600060208284031215611410578081fd5b5035919050565b600060208284031215611428578081fd5b5051919050565b600082516114418184602087016114ec565b9190910192915050565b600060208252825180602084015261146a8160408501602087016114ec565b601f01601f19169190910160400192915050565b6000821982111561149157611491611518565b500190565b6000826114b157634e487b7160e01b81526012600452602481fd5b500490565b60008160001904831182151516156114d0576114d0611518565b500290565b6000828210156114e7576114e7611518565b500390565b60005b838110156115075781810151838201526020016114ef565b838111156110b15750506000910152565b634e487b7160e01b600052601160045260246000fdfe4f776e61626c653a2063616c6c6572206973206e6f7420746865206f776e6572a164736f6c6343000803000a8be0079c531659141344cd1fd0a4f28419497f9722a3daafe3b4186f6b6457e0",
  "devdoc": {
    "kind": "dev",
    "methods": {
      "constructor": {
        "details": "Implementation of strategy for testing. The strategy will \"mine\" TEST_LP tokens to simulate a working farm for testing purpouses. It's very simple to facilitate testing. Every time it's harvested, it will add 1% to TEST_LP balance. Will be improved to test fee distribution, etc."
      },
      "deposit(uint256)": {
        "details": "Function to transfer tokens BalleMaster -> strategy and put it to work. It will leave the tokens here, strategy only for testing purpouses."
      },
      "harvest()": {
        "details": "Function to harvest benefits and implement strategy steps. It will increase deposited tokens by 1% every time it's called."
      },
      "owner()": {
        "details": "Returns the address of the current owner."
      },
      "renounceOwnership()": {
        "details": "Leaves the contract without owner. It will not be possible to call `onlyOwner` functions anymore. Can only be called by the current owner. NOTE: Renouncing ownership will leave the contract without an owner, thereby removing any functionality that is only available to the owner."
      },
      "transferOwnership(address)": {
        "details": "Transfers ownership of the contract to a new account (`newOwner`). Can only be called by the current owner."
      },
      "withdraw(uint256)": {
        "details": "Function to transfer tokens strategy -> BalleMaster."
      }
    },
    "version": 1
  },
  "userdoc": {
    "kind": "user",
    "methods": {},
    "version": 1
  },
  "storageLayout": {
    "storage": [
      {
        "astId": 7,
        "contract": "contracts/test/TestStrategy.sol:TestStrategy",
        "label": "_owner",
        "offset": 0,
        "slot": "0",
        "type": "t_address"
      },
      {
        "astId": 1661,
        "contract": "contracts/test/TestStrategy.sol:TestStrategy",
        "label": "balleMaster",
        "offset": 0,
        "slot": "1",
        "type": "t_address"
      },
      {
        "astId": 1663,
        "contract": "contracts/test/TestStrategy.sol:TestStrategy",
        "label": "depositToken",
        "offset": 0,
        "slot": "2",
        "type": "t_address"
      },
      {
        "astId": 1665,
        "contract": "contracts/test/TestStrategy.sol:TestStrategy",
        "label": "wantToken",
        "offset": 0,
        "slot": "3",
        "type": "t_address"
      },
      {
        "astId": 1667,
        "contract": "contracts/test/TestStrategy.sol:TestStrategy",
        "label": "govAddress",
        "offset": 0,
        "slot": "4",
        "type": "t_address"
      },
      {
        "astId": 1670,
        "contract": "contracts/test/TestStrategy.sol:TestStrategy",
        "label": "depositTotal",
        "offset": 0,
        "slot": "5",
        "type": "t_uint256"
      },
      {
        "astId": 1673,
        "contract": "contracts/test/TestStrategy.sol:TestStrategy",
        "label": "sharesTotal",
        "offset": 0,
        "slot": "6",
        "type": "t_uint256"
      },
      {
        "astId": 1676,
        "contract": "contracts/test/TestStrategy.sol:TestStrategy",
        "label": "wantTotal",
        "offset": 0,
        "slot": "7",
        "type": "t_uint256"
      },
      {
        "astId": 1679,
        "contract": "contracts/test/TestStrategy.sol:TestStrategy",
        "label": "paused",
        "offset": 0,
        "slot": "8",
        "type": "t_bool"
      },
      {
        "astId": 1682,
        "contract": "contracts/test/TestStrategy.sol:TestStrategy",
        "label": "retired",
        "offset": 1,
        "slot": "8",
        "type": "t_bool"
      }
    ],
    "types": {
      "t_address": {
        "encoding": "inplace",
        "label": "address",
        "numberOfBytes": "20"
      },
      "t_bool": {
        "encoding": "inplace",
        "label": "bool",
        "numberOfBytes": "1"
      },
      "t_uint256": {
        "encoding": "inplace",
        "label": "uint256",
        "numberOfBytes": "32"
      }
    }
  }
}