{
  "address": "0xCBD94Aac8d55E574150047b187312c982EFb905c",
  "abi": [
    {
      "inputs": [
        {
          "internalType": "address[]",
          "name": "_addresses",
          "type": "address[]"
        },
        {
          "internalType": "uint256",
          "name": "_pid",
          "type": "uint256"
        },
        {
          "internalType": "address[]",
          "name": "_cakeToBallePath",
          "type": "address[]"
        },
        {
          "internalType": "address[]",
          "name": "_cakeToToken0Path",
          "type": "address[]"
        },
        {
          "internalType": "address[]",
          "name": "_cakeToToken1Path",
          "type": "address[]"
        }
      ],
      "stateMutability": "nonpayable",
      "type": "constructor"
    },
    {
      "anonymous": false,
      "inputs": [
        {
          "indexed": true,
          "internalType": "address",
          "name": "previousOwner",
          "type": "address"
        },
        {
          "indexed": true,
          "internalType": "address",
          "name": "newOwner",
          "type": "address"
        }
      ],
      "name": "OwnershipTransferred",
      "type": "event"
    },
    {
      "anonymous": false,
      "inputs": [
        {
          "indexed": true,
          "internalType": "address",
          "name": "addr",
          "type": "address"
        }
      ],
      "name": "SetGovernance",
      "type": "event"
    },
    {
      "anonymous": false,
      "inputs": [
        {
          "indexed": false,
          "internalType": "uint256",
          "name": "entranceFee",
          "type": "uint256"
        },
        {
          "indexed": false,
          "internalType": "uint256",
          "name": "performanceFee",
          "type": "uint256"
        },
        {
          "indexed": false,
          "internalType": "uint256",
          "name": "rewardsFeeFactor",
          "type": "uint256"
        },
        {
          "indexed": false,
          "internalType": "uint256",
          "name": "treasuryFeeFactor",
          "type": "uint256"
        },
        {
          "indexed": false,
          "internalType": "uint256",
          "name": "slippage",
          "type": "uint256"
        },
        {
          "indexed": false,
          "internalType": "uint256",
          "name": "minEarnedToReinvest",
          "type": "uint256"
        }
      ],
      "name": "SetSettings",
      "type": "event"
    },
    {
      "inputs": [],
      "name": "ENTRANCE_FEE_LL",
      "outputs": [
        {
          "internalType": "uint256",
          "name": "",
          "type": "uint256"
        }
      ],
      "stateMutability": "view",
      "type": "function"
    },
    {
      "inputs": [],
      "name": "ENTRANCE_FEE_MAX",
      "outputs": [
        {
          "internalType": "uint256",
          "name": "",
          "type": "uint256"
        }
      ],
      "stateMutability": "view",
      "type": "function"
    },
    {
      "inputs": [],
      "name": "FEE_FACTOR_MAX",
      "outputs": [
        {
          "internalType": "uint256",
          "name": "",
          "type": "uint256"
        }
      ],
      "stateMutability": "view",
      "type": "function"
    },
    {
      "inputs": [],
      "name": "MIN_EARNED_TO_REINVEST_LL",
      "outputs": [
        {
          "internalType": "uint256",
          "name": "",
          "type": "uint256"
        }
      ],
      "stateMutability": "view",
      "type": "function"
    },
    {
      "inputs": [],
      "name": "MIN_EARNED_TO_REINVEST_UL",
      "outputs": [
        {
          "internalType": "uint256",
          "name": "",
          "type": "uint256"
        }
      ],
      "stateMutability": "view",
      "type": "function"
    },
    {
      "inputs": [],
      "name": "PERFORMANCE_FEE_MAX",
      "outputs": [
        {
          "internalType": "uint256",
          "name": "",
          "type": "uint256"
        }
      ],
      "stateMutability": "view",
      "type": "function"
    },
    {
      "inputs": [],
      "name": "PERFORMANCE_FEE_UL",
      "outputs": [
        {
          "internalType": "uint256",
          "name": "",
          "type": "uint256"
        }
      ],
      "stateMutability": "view",
      "type": "function"
    },
    {
      "inputs": [],
      "name": "SLIPPAGE_UL",
      "outputs": [
        {
          "internalType": "uint256",
          "name": "",
          "type": "uint256"
        }
      ],
      "stateMutability": "view",
      "type": "function"
    },
    {
      "inputs": [
        {
          "internalType": "address",
          "name": "_harvester",
          "type": "address"
        }
      ],
      "name": "addHarvester",
      "outputs": [],
      "stateMutability": "nonpayable",
      "type": "function"
    },
    {
      "inputs": [],
      "name": "cake",
      "outputs": [
        {
          "internalType": "address",
          "name": "",
          "type": "address"
        }
      ],
      "stateMutability": "view",
      "type": "function"
    },
    {
      "inputs": [
        {
          "internalType": "uint256",
          "name": "",
          "type": "uint256"
        }
      ],
      "name": "cakeToBallePath",
      "outputs": [
        {
          "internalType": "address",
          "name": "",
          "type": "address"
        }
      ],
      "stateMutability": "view",
      "type": "function"
    },
    {
      "inputs": [
        {
          "internalType": "uint256",
          "name": "",
          "type": "uint256"
        }
      ],
      "name": "cakeToToken0Path",
      "outputs": [
        {
          "internalType": "address",
          "name": "",
          "type": "address"
        }
      ],
      "stateMutability": "view",
      "type": "function"
    },
    {
      "inputs": [
        {
          "internalType": "uint256",
          "name": "",
          "type": "uint256"
        }
      ],
      "name": "cakeToToken1Path",
      "outputs": [
        {
          "internalType": "address",
          "name": "",
          "type": "address"
        }
      ],
      "stateMutability": "view",
      "type": "function"
    },
    {
      "inputs": [
        {
          "internalType": "address",
          "name": "_user",
          "type": "address"
        },
        {
          "internalType": "uint256",
          "name": "_amount",
          "type": "uint256"
        }
      ],
      "name": "deposit",
      "outputs": [
        {
          "internalType": "uint256",
          "name": "",
          "type": "uint256"
        }
      ],
      "stateMutability": "nonpayable",
      "type": "function"
    },
    {
      "inputs": [],
      "name": "depositToken",
      "outputs": [
        {
          "internalType": "address",
          "name": "",
          "type": "address"
        }
      ],
      "stateMutability": "view",
      "type": "function"
    },
    {
      "inputs": [],
      "name": "depositTotal",
      "outputs": [
        {
          "internalType": "uint256",
          "name": "",
          "type": "uint256"
        }
      ],
      "stateMutability": "view",
      "type": "function"
    },
    {
      "inputs": [],
      "name": "entranceFee",
      "outputs": [
        {
          "internalType": "uint256",
          "name": "",
          "type": "uint256"
        }
      ],
      "stateMutability": "view",
      "type": "function"
    },
    {
      "inputs": [],
      "name": "governance",
      "outputs": [
        {
          "internalType": "address",
          "name": "",
          "type": "address"
        }
      ],
      "stateMutability": "view",
      "type": "function"
    },
    {
      "inputs": [],
      "name": "harvest",
      "outputs": [],
      "stateMutability": "nonpayable",
      "type": "function"
    },
    {
      "inputs": [
        {
          "internalType": "address",
          "name": "",
          "type": "address"
        }
      ],
      "name": "harvesters",
      "outputs": [
        {
          "internalType": "bool",
          "name": "",
          "type": "bool"
        }
      ],
      "stateMutability": "view",
      "type": "function"
    },
    {
      "inputs": [
        {
          "internalType": "address",
          "name": "_token",
          "type": "address"
        },
        {
          "internalType": "uint256",
          "name": "_amount",
          "type": "uint256"
        },
        {
          "internalType": "address",
          "name": "_to",
          "type": "address"
        }
      ],
      "name": "inCaseTokensGetStuck",
      "outputs": [],
      "stateMutability": "nonpayable",
      "type": "function"
    },
    {
      "inputs": [],
      "name": "masterChef",
      "outputs": [
        {
          "internalType": "address",
          "name": "",
          "type": "address"
        }
      ],
      "stateMutability": "view",
      "type": "function"
    },
    {
      "inputs": [],
      "name": "minEarnedToReinvest",
      "outputs": [
        {
          "internalType": "uint256",
          "name": "",
          "type": "uint256"
        }
      ],
      "stateMutability": "view",
      "type": "function"
    },
    {
      "inputs": [],
      "name": "owner",
      "outputs": [
        {
          "internalType": "address",
          "name": "",
          "type": "address"
        }
      ],
      "stateMutability": "view",
      "type": "function"
    },
    {
      "inputs": [],
      "name": "panic",
      "outputs": [],
      "stateMutability": "nonpayable",
      "type": "function"
    },
    {
      "inputs": [],
      "name": "pause",
      "outputs": [],
      "stateMutability": "nonpayable",
      "type": "function"
    },
    {
      "inputs": [],
      "name": "paused",
      "outputs": [
        {
          "internalType": "bool",
          "name": "",
          "type": "bool"
        }
      ],
      "stateMutability": "view",
      "type": "function"
    },
    {
      "inputs": [],
      "name": "performanceFee",
      "outputs": [
        {
          "internalType": "uint256",
          "name": "",
          "type": "uint256"
        }
      ],
      "stateMutability": "view",
      "type": "function"
    },
    {
      "inputs": [],
      "name": "pid",
      "outputs": [
        {
          "internalType": "uint256",
          "name": "",
          "type": "uint256"
        }
      ],
      "stateMutability": "view",
      "type": "function"
    },
    {
      "inputs": [
        {
          "internalType": "address",
          "name": "_harvester",
          "type": "address"
        }
      ],
      "name": "removeHarvester",
      "outputs": [],
      "stateMutability": "nonpayable",
      "type": "function"
    },
    {
      "inputs": [],
      "name": "renounceOwnership",
      "outputs": [],
      "stateMutability": "nonpayable",
      "type": "function"
    },
    {
      "inputs": [],
      "name": "retire",
      "outputs": [],
      "stateMutability": "nonpayable",
      "type": "function"
    },
    {
      "inputs": [],
      "name": "rewards",
      "outputs": [
        {
          "internalType": "address",
          "name": "",
          "type": "address"
        }
      ],
      "stateMutability": "view",
      "type": "function"
    },
    {
      "inputs": [],
      "name": "rewardsFeeFactor",
      "outputs": [
        {
          "internalType": "uint256",
          "name": "",
          "type": "uint256"
        }
      ],
      "stateMutability": "view",
      "type": "function"
    },
    {
      "inputs": [],
      "name": "router",
      "outputs": [
        {
          "internalType": "address",
          "name": "",
          "type": "address"
        }
      ],
      "stateMutability": "view",
      "type": "function"
    },
    {
      "inputs": [
        {
          "internalType": "address",
          "name": "_governance",
          "type": "address"
        }
      ],
      "name": "setGovernance",
      "outputs": [],
      "stateMutability": "nonpayable",
      "type": "function"
    },
    {
      "inputs": [
        {
          "internalType": "uint256",
          "name": "_entranceFee",
          "type": "uint256"
        },
        {
          "internalType": "uint256",
          "name": "_performanceFee",
          "type": "uint256"
        },
        {
          "internalType": "uint256",
          "name": "_rewardsFeeFactor",
          "type": "uint256"
        },
        {
          "internalType": "uint256",
          "name": "_treasuryFeeFactor",
          "type": "uint256"
        },
        {
          "internalType": "uint256",
          "name": "_slippage",
          "type": "uint256"
        },
        {
          "internalType": "uint256",
          "name": "_minEarnedToReinvest",
          "type": "uint256"
        }
      ],
      "name": "setSettings",
      "outputs": [],
      "stateMutability": "nonpayable",
      "type": "function"
    },
    {
      "inputs": [],
      "name": "sharesTotal",
      "outputs": [
        {
          "internalType": "uint256",
          "name": "",
          "type": "uint256"
        }
      ],
      "stateMutability": "view",
      "type": "function"
    },
    {
      "inputs": [],
      "name": "slippage",
      "outputs": [
        {
          "internalType": "uint256",
          "name": "",
          "type": "uint256"
        }
      ],
      "stateMutability": "view",
      "type": "function"
    },
    {
      "inputs": [],
      "name": "token0",
      "outputs": [
        {
          "internalType": "address",
          "name": "",
          "type": "address"
        }
      ],
      "stateMutability": "view",
      "type": "function"
    },
    {
      "inputs": [],
      "name": "token1",
      "outputs": [
        {
          "internalType": "address",
          "name": "",
          "type": "address"
        }
      ],
      "stateMutability": "view",
      "type": "function"
    },
    {
      "inputs": [
        {
          "internalType": "address",
          "name": "newOwner",
          "type": "address"
        }
      ],
      "name": "transferOwnership",
      "outputs": [],
      "stateMutability": "nonpayable",
      "type": "function"
    },
    {
      "inputs": [],
      "name": "treasury",
      "outputs": [
        {
          "internalType": "address",
          "name": "",
          "type": "address"
        }
      ],
      "stateMutability": "view",
      "type": "function"
    },
    {
      "inputs": [],
      "name": "treasuryFeeFactor",
      "outputs": [
        {
          "internalType": "uint256",
          "name": "",
          "type": "uint256"
        }
      ],
      "stateMutability": "view",
      "type": "function"
    },
    {
      "inputs": [],
      "name": "unpause",
      "outputs": [],
      "stateMutability": "nonpayable",
      "type": "function"
    },
    {
      "inputs": [
        {
          "internalType": "address",
          "name": "_strat",
          "type": "address"
        },
        {
          "internalType": "uint256",
          "name": "_sharesTotal",
          "type": "uint256"
        },
        {
          "internalType": "uint256",
          "name": "_depositAmt",
          "type": "uint256"
        },
        {
          "internalType": "uint256",
          "name": "_earnedAmt",
          "type": "uint256"
        }
      ],
      "name": "upgradeFrom",
      "outputs": [],
      "stateMutability": "nonpayable",
      "type": "function"
    },
    {
      "inputs": [
        {
          "internalType": "address",
          "name": "_strat",
          "type": "address"
        }
      ],
      "name": "upgradeTo",
      "outputs": [
        {
          "internalType": "uint256",
          "name": "",
          "type": "uint256"
        },
        {
          "internalType": "uint256",
          "name": "",
          "type": "uint256"
        },
        {
          "internalType": "uint256",
          "name": "",
          "type": "uint256"
        }
      ],
      "stateMutability": "nonpayable",
      "type": "function"
    },
    {
      "inputs": [
        {
          "internalType": "address",
          "name": "_user",
          "type": "address"
        },
        {
          "internalType": "uint256",
          "name": "_amount",
          "type": "uint256"
        }
      ],
      "name": "withdraw",
      "outputs": [
        {
          "internalType": "uint256",
          "name": "",
          "type": "uint256"
        },
        {
          "internalType": "uint256",
          "name": "",
          "type": "uint256"
        }
      ],
      "stateMutability": "nonpayable",
      "type": "function"
    }
  ],
  "transactionHash": "0x04dd0e79245b9bd9ca2d53fb169b5af5b811736646b4fdeec72baae7e09504dd",
  "args": [
    [
      "0x40a6f287fbf5e1841f76ce0218ff23edcd55f96d",
      "0xae13d989dac2f0debff460ac112a837c89baa7cd",
      "0xd3b6a0e47a4907b27b748ce56e53303fbb05cc9b",
      "0xa6D6240e5d5b6232996D58B6b3C4555c824deA73",
      "0x9ac64cc6e4415144c455bd8e4837fea55603e5c3",
      "0x91E85122eF92FF306EA47025efd00404CcaEEb19",
      "0xD3f2fA28EC7B8261DdD31DE3697454C1cD5D855B",
      "0xb25D37892305FE1b44c06F035139a0ED11EcA82d",
      "0x57d6AC13DEFdD0cb249d854722fFE3125b3D3910",
      "0x8FCC11DA25b3eC556D231f330335c8AF5bE439a1"
    ],
    2,
    [
      "0xa6D6240e5d5b6232996D58B6b3C4555c824deA73",
      "0xae13d989dac2f0debff460ac112a837c89baa7cd",
      "0x43fC744c34b211cD57c6f0d1ddB4EA8BC504541b"
    ],
    [
      "0xa6D6240e5d5b6232996D58B6b3C4555c824deA73",
      "0xae13d989dac2f0debff460ac112a837c89baa7cd"
    ],
    [
      "0xa6D6240e5d5b6232996D58B6b3C4555c824deA73",
      "0xae13d989dac2f0debff460ac112a837c89baa7cd",
      "0xd3b6a0e47a4907b27b748ce56e53303fbb05cc9b"
    ]
  ],
  "solcInputHash": "92fd38752454bc6b28e93e46b22b1a33",
  "bytecode": "0x6101a0604052600060038190556004556127066005556101906006556102ee60075560fa6008556103b6600955670de0b6b3a7640000600a55600e805460ff191690553480156200004f57600080fd5b5060405162003a8438038062003a8483398101604081905262000072916200066d565b600080546001600160a01b0319163390811782556040519091829160008051602062003a64833981519152908290a35060008411620000e65760405162461bcd60e51b8152600401620000dd90602080825260049082015263085c1a5960e21b604082015260600190565b60405180910390fd5b846000815181106200010857634e487b7160e01b600052603260045260246000fd5b60200260200101516001600160a01b031660c0816001600160a01b031660601b81525050846001815181106200014e57634e487b7160e01b600052603260045260246000fd5b60200260200101516001600160a01b031660e0816001600160a01b031660601b81525050846002815181106200019457634e487b7160e01b600052603260045260246000fd5b60200260200101516001600160a01b0316610100816001600160a01b031660601b8152505084600381518110620001db57634e487b7160e01b600052603260045260246000fd5b60200260200101516001600160a01b0316610120816001600160a01b031660601b81525050846004815181106200022257634e487b7160e01b600052603260045260246000fd5b60200260200101516001600160a01b0316610140816001600160a01b031660601b81525050846005815181106200026957634e487b7160e01b600052603260045260246000fd5b602090810291909101015160601b6001600160601b03191660805260a084905260018054336001600160a01b0319909116178155855160029060009088906007908110620002c757634e487b7160e01b600052603260045260246000fd5b60200260200101516001600160a01b03166001600160a01b0316815260200190815260200160002060006101000a81548160ff021916908315150217905550846008815181106200032857634e487b7160e01b600052603260045260246000fd5b60200260200101516001600160a01b0316610160816001600160a01b031660601b81525050846009815181106200036f57634e487b7160e01b600052603260045260246000fd5b60209081029190910181015160601b6001600160601b031916610180528351620003a091600b91908601906200051f565b508151620003b690600c9060208501906200051f565b508051620003cc90600d9060208401906200051f565b506200040785600681518110620003f357634e487b7160e01b600052603260045260246000fd5b60200260200101516200041260201b60201c565b505050505062000741565b6000546001600160a01b031633146200046e5760405162461bcd60e51b815260206004820181905260248201527f4f776e61626c653a2063616c6c6572206973206e6f7420746865206f776e65726044820152606401620000dd565b6001600160a01b038116620004d55760405162461bcd60e51b815260206004820152602660248201527f4f776e61626c653a206e6577206f776e657220697320746865207a65726f206160448201526564647265737360d01b6064820152608401620000dd565b600080546040516001600160a01b038085169392169160008051602062003a6483398151915291a3600080546001600160a01b0319166001600160a01b0392909216919091179055565b82805482825590600052602060002090810192821562000577579160200282015b828111156200057757825182546001600160a01b0319166001600160a01b0390911617825560209092019160019091019062000540565b506200058592915062000589565b5090565b5b808211156200058557600081556001016200058a565b80516001600160a01b0381168114620005b857600080fd5b919050565b600082601f830112620005ce578081fd5b815160206001600160401b0380831115620005ed57620005ed6200072b565b8260051b604051601f19603f830116810181811084821117156200061557620006156200072b565b6040528481528381019250868401828801850189101562000634578687fd5b8692505b8583101562000661576200064c81620005a0565b84529284019260019290920191840162000638565b50979650505050505050565b600080600080600060a0868803121562000685578081fd5b85516001600160401b03808211156200069c578283fd5b620006aa89838a01620005bd565b9650602088015195506040880151915080821115620006c7578283fd5b620006d589838a01620005bd565b94506060880151915080821115620006eb578283fd5b620006f989838a01620005bd565b935060808801519150808211156200070f578283fd5b506200071e88828901620005bd565b9150509295509295909350565b634e487b7160e01b600052604160045260246000fd5b60805160601c60a05160c05160601c60e05160601c6101005160601c6101205160601c6101405160601c6101605160601c6101805160601c6130c56200099f600039600081816103f401528181611287015261282401526000818161050c01526128f501526000818161065d01528181610be601528181610c3b01528181610c9001528181611fc70152818161201c015281816120aa015281816121a4015281816123b60152818161240b01528181612460015281816124b4015281816124e3015281816127a401526128750152600081816105c2015281816107fc015281816108ee0152818161092301528181610bc401528181610e4a01528181611070015281816111ce0152818161126501528181611f0301528181611fa501528181611ffa01528181612078015261217201526000818161059b01528181610c6e01528181612148015281816122f6015281816123e901528181612492015261252b0152600081816102c601528181610c190152818161204e01528181612251015281816123940152818161243e015261250a0152600081816105610152818161075701528181610885015281816108ba01528181610b6d01528181610d5e01528181610eb401528181611035015281816118e7015281816119a5015281816119f701528181611c6b01528181611d0d0152611d620152600081816105f201528181610ad60152818161183d01528181611db80152611e5b01526000818161039d01528181610afc01528181610b910152818161186a01528181611a1901528181611d2f01528181611d8401528181611de50152611e8801526130c56000f3fe608060405234801561001057600080fd5b50600436106102a05760003560e01c80637c10eef211610167578063ab033ea9116100ce578063ed0f435211610087578063ed0f4352146105e4578063f1068454146105ed578063f2fde38b14610614578063f384a44c14610627578063f3fef3a314610630578063f887ea4014610658576102a0565b8063ab033ea914610536578063aff6609514610549578063c89039c51461055c578063cc917f4e14610583578063d21220a714610596578063dce17484146105bd576102a0565b80638da5cb5b116101205780638da5cb5b146104d15780638fab5917146104e2578063952e6ee9146104f55780639ae0ddaf146104fe5780639ec5a89414610507578063a4874d771461052e576102a0565b80637c10eef21461046e5780637f010784146104815780638456cb5914610494578063871392c41461049c57806387788782146104a557806387976583146104ae576102a0565b8063575a86b21161020b57806367206d40116101c457806367206d401461041f5780636926d05c14610432578063715018a6146104455780637215313d1461044d578063790f6e51146104565780637a34048814610465576102a0565b8063575a86b2146103985780635aa6e675146103bf5780635b5be8dd146102a55780635c975abb146103d257806361d027b3146103ef578063649677e114610416576102a0565b80633f4ba83a1161025d5780633f4ba83a1461035957806344a3955e146103635780634641257d1461036c5780634700d3051461037457806347e7ef241461037c5780634adae0da1461038f576102a0565b806304448370146102a55780630dfe1681146102c157806313c50bea1461030057806319714fac1461030f5780633659cfe6146103225780633e032a3b14610350575b600080fd5b6102ae61271081565b6040519081526020015b60405180910390f35b6102e87f000000000000000000000000000000000000000000000000000000000000000081565b6040516001600160a01b0390911681526020016102b8565b6102ae67016345785d8a000081565b6102e861031d366004612dcc565b61067f565b610335610330366004612c36565b6106a9565b604080519384526020840192909252908201526060016102b8565b6102ae60095481565b610361610958565b005b6102ae60045481565b6103616109d7565b610361610a7a565b6102ae61038a366004612c50565b610cc5565b6102ae60035481565b6102e87f000000000000000000000000000000000000000000000000000000000000000081565b6001546102e8906001600160a01b031681565b600e546103df9060ff1681565b60405190151581526020016102b8565b6102e87f000000000000000000000000000000000000000000000000000000000000000081565b6102ae60055481565b61036161042d366004612c79565b610df8565b6102e8610440366004612dcc565b610f35565b610361610f45565b6102ae6103de81565b6102ae678ac7230489e8000081565b6102ae61032081565b61036161047c366004612cb4565b610fb9565b6102e861048f366004612dcc565b6110ab565b6103616110bb565b6102ae600a5481565b6102ae60065481565b6103df6104bc366004612c36565b60026020526000908152604090205460ff1681565b6000546001600160a01b03166102e8565b6103616104f0366004612c36565b611110565b6102ae60075481565b6102ae6126de81565b6102e87f000000000000000000000000000000000000000000000000000000000000000081565b610361611184565b610361610544366004612c36565b6112af565b610361610557366004612c36565b611349565b6102e87f000000000000000000000000000000000000000000000000000000000000000081565b610361610591366004612e29565b6113ba565b6102e87f000000000000000000000000000000000000000000000000000000000000000081565b6102e87f000000000000000000000000000000000000000000000000000000000000000081565b6102ae6103e881565b6102ae7f000000000000000000000000000000000000000000000000000000000000000081565b610361610622366004612c36565b611656565b6102ae60085481565b61064361063e366004612c50565b611740565b604080519283526020830191909152016102b8565b6102e87f000000000000000000000000000000000000000000000000000000000000000081565b600b818154811061068f57600080fd5b6000918252602090912001546001600160a01b0316905081565b60008080336001600160a01b03166106c96000546001600160a01b031690565b6001600160a01b0316146106f85760405162461bcd60e51b81526004016106ef90612f22565b60405180910390fd5b6001600160a01b0384166107375760405162461bcd60e51b8152602060048201526006602482015265085cdd1c985d60d21b60448201526064016106ef565b61073f6119d5565b6040516370a0823160e01b81523060048201526000907f00000000000000000000000000000000000000000000000000000000000000006001600160a01b0316906370a082319060240160206040518083038186803b1580156107a157600080fd5b505afa1580156107b5573d6000803e3d6000fd5b505050506040513d601f19601f820116820180604052508101906107d99190612de4565b6040516370a0823160e01b81523060048201529091506000906001600160a01b037f000000000000000000000000000000000000000000000000000000000000000016906370a082319060240160206040518083038186803b15801561083e57600080fd5b505afa158015610852573d6000803e3d6000fd5b505050506040513d601f19601f820116820180604052508101906108769190612de4565b90506108ad6001600160a01b037f000000000000000000000000000000000000000000000000000000000000000016876000611a3b565b6108e16001600160a01b037f0000000000000000000000000000000000000000000000000000000000000000168784611b92565b6109166001600160a01b037f000000000000000000000000000000000000000000000000000000000000000016876000611a3b565b61094a6001600160a01b037f0000000000000000000000000000000000000000000000000000000000000000168783611b92565b600454969195509350915050565b6000546001600160a01b031633146109825760405162461bcd60e51b81526004016106ef90612f22565b600e5460ff166109be5760405162461bcd60e51b8152602060048201526007602482015266085c185d5cd95960ca1b60448201526064016106ef565b60006003556109cb611c53565b600e805460ff19169055565b6001546001600160a01b03163314806109ff57503360009081526002602052604090205460ff165b610a4b5760405162461bcd60e51b815260206004820152601960248201527f21676f7665726e616e636520262620216861727665737465720000000000000060448201526064016106ef565b600e5460ff1615610a6e5760405162461bcd60e51b81526004016106ef90612f7d565b610a786000611e4c565b565b6000546001600160a01b03163314610aa45760405162461bcd60e51b81526004016106ef90612f22565b600e5460ff1615610ac75760405162461bcd60e51b81526004016106ef90612f7d565b604051632989754760e11b81527f000000000000000000000000000000000000000000000000000000000000000060048201527f00000000000000000000000000000000000000000000000000000000000000006001600160a01b031690635312ea8e90602401600060405180830381600087803b158015610b4857600080fd5b505af1158015610b5c573d6000803e3d6000fd5b50610bb79250506001600160a01b037f00000000000000000000000000000000000000000000000000000000000000001690507f00000000000000000000000000000000000000000000000000000000000000006000611a3b565b610c0c6001600160a01b037f0000000000000000000000000000000000000000000000000000000000000000167f00000000000000000000000000000000000000000000000000000000000000006000611a3b565b610c616001600160a01b037f0000000000000000000000000000000000000000000000000000000000000000167f00000000000000000000000000000000000000000000000000000000000000006000611a3b565b610cb66001600160a01b037f0000000000000000000000000000000000000000000000000000000000000000167f00000000000000000000000000000000000000000000000000000000000000006000611a3b565b600e805460ff19166001179055565b600080546001600160a01b03163314610cf05760405162461bcd60e51b81526004016106ef90612f22565b600e5460ff1615610d135760405162461bcd60e51b81526004016106ef90612f7d565b6001600160a01b038316610d515760405162461bcd60e51b815260206004820152600560248201526410bab9b2b960d91b60448201526064016106ef565b610d866001600160a01b037f000000000000000000000000000000000000000000000000000000000000000016333085612617565b600354829015801590610d9b57506000600454115b15610dd85761271060035460055460045486610db7919061302a565b610dc1919061302a565b610dcb919061300a565b610dd5919061300a565b90505b80600454610de69190612ff2565b600455610df1611c53565b9392505050565b6001546001600160a01b03163314610e225760405162461bcd60e51b81526004016106ef90612efd565b6001600160a01b038316610e485760405162461bcd60e51b81526004016106ef90612f57565b7f00000000000000000000000000000000000000000000000000000000000000006001600160a01b0316836001600160a01b03161415610eb25760405162461bcd60e51b8152602060048201526005602482015264217361666560d81b60448201526064016106ef565b7f00000000000000000000000000000000000000000000000000000000000000006001600160a01b0316836001600160a01b03161415610f1c5760405162461bcd60e51b8152602060048201526005602482015264217361666560d81b60448201526064016106ef565b610f306001600160a01b038416828461264f565b505050565b600c818154811061068f57600080fd5b6000546001600160a01b03163314610f6f5760405162461bcd60e51b81526004016106ef90612f22565b600080546040516001600160a01b03909116907f8be0079c531659141344cd1fd0a4f28419497f9722a3daafe3b4186f6b6457e0908390a3600080546001600160a01b0319169055565b6000546001600160a01b03163314610fe35760405162461bcd60e51b81526004016106ef90612f22565b6001600160a01b0384166110225760405162461bcd60e51b8152602060048201526006602482015265085cdd1c985d60d21b60448201526064016106ef565b811561105d5761105d6001600160a01b037f000000000000000000000000000000000000000000000000000000000000000016853085612617565b8015611098576110986001600160a01b037f000000000000000000000000000000000000000000000000000000000000000016853084612617565b60048390556110a5611c53565b50505050565b600d818154811061068f57600080fd5b6000546001600160a01b031633146110e55760405162461bcd60e51b81526004016106ef90612f22565b600e5460ff16156111085760405162461bcd60e51b81526004016106ef90612f7d565b610a786119d5565b6001546001600160a01b0316331461113a5760405162461bcd60e51b81526004016106ef90612efd565b6001600160a01b0381166111605760405162461bcd60e51b81526004016106ef90612f57565b6001600160a01b03166000908152600260205260409020805460ff19166001179055565b6000546001600160a01b031633146111ae5760405162461bcd60e51b81526004016106ef90612f22565b6111b66119d5565b6040516370a0823160e01b81523060048201526000907f00000000000000000000000000000000000000000000000000000000000000006001600160a01b0316906370a082319060240160206040518083038186803b15801561121857600080fd5b505afa15801561122c573d6000803e3d6000fd5b505050506040513d601f19601f820116820180604052508101906112509190612de4565b905080156112ac576112ac6001600160a01b037f0000000000000000000000000000000000000000000000000000000000000000167f00000000000000000000000000000000000000000000000000000000000000008361264f565b50565b6001546001600160a01b031633146112d95760405162461bcd60e51b81526004016106ef90612efd565b6001600160a01b0381166112ff5760405162461bcd60e51b81526004016106ef90612f57565b600180546001600160a01b0319166001600160a01b0383169081179091556040517f24a8c4807b324a269a51827c3446b8ac1cc13810d7d0c0ca1efafabddd7b621990600090a250565b6001546001600160a01b031633146113735760405162461bcd60e51b81526004016106ef90612efd565b6001600160a01b0381166113995760405162461bcd60e51b81526004016106ef90612f57565b6001600160a01b03166000908152600260205260409020805460ff19169055565b6001546001600160a01b031633146113e45760405162461bcd60e51b81526004016106ef90612efd565b6126de8610156114275760405162461bcd60e51b815260206004820152600e60248201526d08595b9d1c985b98d9519959531360921b60448201526064016106ef565b61271086111561146b5760405162461bcd60e51b815260206004820152600f60248201526e042cadce8e4c2dcc6ca8ccaca9ac2f608b1b60448201526064016106ef565b60058690556103208511156114b65760405162461bcd60e51b8152602060048201526011602482015270085c195c999bdc9b585b98d95199595553607a1b60448201526064016106ef565b60068590556103e86114c88486612ff2565b146115025760405162461bcd60e51b815260206004820152600a60248201526910b332b2a330b1ba37b960b11b60448201526064016106ef565b600784905560088390556103de82111561154c5760405162461bcd60e51b815260206004820152600b60248201526a085cdb1a5c1c1859d9555360aa1b60448201526064016106ef565b6009829055678ac7230489e800008111156115a25760405162461bcd60e51b8152602060048201526016602482015275085b5a5b91585c9b9959151bd4995a5b9d995cdd155360521b60448201526064016106ef565b67016345785d8a00008110156115f35760405162461bcd60e51b8152602060048201526016602482015275085b5a5b91585c9b9959151bd4995a5b9d995cdd131360521b60448201526064016106ef565b600a8190556040805187815260208101879052908101859052606081018490526080810183905260a081018290527fcb4ecc62ba7efb533c814d48b7dc1c8f06063d93bf32c3730c1ec47011e8747a9060c00160405180910390a1505050505050565b6000546001600160a01b031633146116805760405162461bcd60e51b81526004016106ef90612f22565b6001600160a01b0381166116e55760405162461bcd60e51b815260206004820152602660248201527f4f776e61626c653a206e6577206f776e657220697320746865207a65726f206160448201526564647265737360d01b60648201526084016106ef565b600080546040516001600160a01b03808516939216917f8be0079c531659141344cd1fd0a4f28419497f9722a3daafe3b4186f6b6457e091a3600080546001600160a01b0319166001600160a01b0392909216919091179055565b6000805481906001600160a01b0316331461176d5760405162461bcd60e51b81526004016106ef90612f22565b6001600160a01b0384166117ab5760405162461bcd60e51b815260206004820152600560248201526410bab9b2b960d91b60448201526064016106ef565b600083116117e55760405162461bcd60e51b815260206004820152600760248201526608585b5bdd5b9d60ca1b60448201526064016106ef565b6000600354600454856117f8919061302a565b611802919061300a565b905060045481111561181357506004545b806004546118219190613049565b600455600e5460ff166118cf57604051630441a3e760e41b81527f00000000000000000000000000000000000000000000000000000000000000006004820152602481018590527f00000000000000000000000000000000000000000000000000000000000000006001600160a01b03169063441a3e7090604401600060405180830381600087803b1580156118b657600080fd5b505af11580156118ca573d6000803e3d6000fd5b505050505b6040516370a0823160e01b81523060048201526000907f00000000000000000000000000000000000000000000000000000000000000006001600160a01b0316906370a082319060240160206040518083038186803b15801561193157600080fd5b505afa158015611945573d6000803e3d6000fd5b505050506040513d601f19601f820116820180604052508101906119699190612de4565b905080851115611977578094505b8460035410156119875760035494505b846003546119959190613049565b6003556119cc6001600160a01b037f000000000000000000000000000000000000000000000000000000000000000016338761264f565b50949293505050565b600e5460ff16610a78576119ea600354611e4c565b610bb76001600160a01b037f0000000000000000000000000000000000000000000000000000000000000000167f000000000000000000000000000000000000000000000000000000000000000060005b801580611ac45750604051636eb1769f60e11b81523060048201526001600160a01b03838116602483015284169063dd62ed3e9060440160206040518083038186803b158015611a8a57600080fd5b505afa158015611a9e573d6000803e3d6000fd5b505050506040513d601f19601f82011682018060405250810190611ac29190612de4565b155b611b2f5760405162461bcd60e51b815260206004820152603660248201527f5361666545524332303a20617070726f76652066726f6d206e6f6e2d7a65726f60448201527520746f206e6f6e2d7a65726f20616c6c6f77616e636560501b60648201526084016106ef565b6040516001600160a01b038316602482015260448101829052610f3090849063095ea7b360e01b906064015b60408051601f198184030181529190526020810180516001600160e01b03166001600160e01b03199093169290921790915261267f565b604051636eb1769f60e11b81523060048201526001600160a01b038381166024830152600091839186169063dd62ed3e9060440160206040518083038186803b158015611bde57600080fd5b505afa158015611bf2573d6000803e3d6000fd5b505050506040513d601f19601f82011682018060405250810190611c169190612de4565b611c209190612ff2565b6040516001600160a01b0385166024820152604481018290529091506110a590859063095ea7b360e01b90606401611b5b565b6040516370a0823160e01b81523060048201526000907f00000000000000000000000000000000000000000000000000000000000000006001600160a01b0316906370a082319060240160206040518083038186803b158015611cb557600080fd5b505afa158015611cc9573d6000803e3d6000fd5b505050506040513d601f19601f82011682018060405250810190611ced9190612de4565b905080600354611cfd9190612ff2565b600355611d556001600160a01b037f0000000000000000000000000000000000000000000000000000000000000000167f00000000000000000000000000000000000000000000000000000000000000006000611a3b565b611da96001600160a01b037f0000000000000000000000000000000000000000000000000000000000000000167f000000000000000000000000000000000000000000000000000000000000000083611b92565b604051631c57762b60e31b81527f00000000000000000000000000000000000000000000000000000000000000006004820152602481018290527f00000000000000000000000000000000000000000000000000000000000000006001600160a01b03169063e2bbb15890604401600060405180830381600087803b158015611e3157600080fd5b505af1158015611e45573d6000803e3d6000fd5b5050505050565b604051630441a3e760e41b81527f00000000000000000000000000000000000000000000000000000000000000006004820152602481018290527f00000000000000000000000000000000000000000000000000000000000000006001600160a01b03169063441a3e7090604401600060405180830381600087803b158015611ed457600080fd5b505af1158015611ee8573d6000803e3d6000fd5b50506040516370a0823160e01b8152306004820152600092507f00000000000000000000000000000000000000000000000000000000000000006001600160a01b031691506370a082319060240160206040518083038186803b158015611f4e57600080fd5b505afa158015611f62573d6000803e3d6000fd5b505050506040513d601f19601f82011682018060405250810190611f869190612de4565b9050600a54811015611f9857506112ac565b611fed6001600160a01b037f0000000000000000000000000000000000000000000000000000000000000000167f00000000000000000000000000000000000000000000000000000000000000006000611a3b565b6120416001600160a01b037f0000000000000000000000000000000000000000000000000000000000000000167f000000000000000000000000000000000000000000000000000000000000000083611b92565b61204a81612751565b90507f00000000000000000000000000000000000000000000000000000000000000006001600160a01b03167f00000000000000000000000000000000000000000000000000000000000000006001600160a01b031614612146576121467f00000000000000000000000000000000000000000000000000000000000000006120d460028461300a565b600954600c80548060200260200160405190810160405280929190818152602001828054801561212d57602002820191906000526020600020905b81546001600160a01b0316815260019091019060200180831161210f575b505050505030426102586121419190612ff2565b61293a565b7f00000000000000000000000000000000000000000000000000000000000000006001600160a01b03167f00000000000000000000000000000000000000000000000000000000000000006001600160a01b031614612239576122397f00000000000000000000000000000000000000000000000000000000000000006121ce60028461300a565b600954600d80548060200260200160405190810160405280929190818152602001828054801561212d576020028201919060005260206000209081546001600160a01b0316815260019091019060200180831161210f57505050505030426102586121419190612ff2565b6040516370a0823160e01b81523060048201526000907f00000000000000000000000000000000000000000000000000000000000000006001600160a01b0316906370a082319060240160206040518083038186803b15801561229b57600080fd5b505afa1580156122af573d6000803e3d6000fd5b505050506040513d601f19601f820116820180604052508101906122d39190612de4565b6040516370a0823160e01b81523060048201529091506000906001600160a01b037f000000000000000000000000000000000000000000000000000000000000000016906370a082319060240160206040518083038186803b15801561233857600080fd5b505afa15801561234c573d6000803e3d6000fd5b505050506040513d601f19601f820116820180604052508101906123709190612de4565b90506000821180156123825750600081115b1561260f576123dc6001600160a01b037f0000000000000000000000000000000000000000000000000000000000000000167f00000000000000000000000000000000000000000000000000000000000000006000611a3b565b6124316001600160a01b037f0000000000000000000000000000000000000000000000000000000000000000167f00000000000000000000000000000000000000000000000000000000000000006000611a3b565b6124856001600160a01b037f0000000000000000000000000000000000000000000000000000000000000000167f000000000000000000000000000000000000000000000000000000000000000084611b92565b6124d96001600160a01b037f0000000000000000000000000000000000000000000000000000000000000000167f000000000000000000000000000000000000000000000000000000000000000083611b92565b6001600160a01b037f00000000000000000000000000000000000000000000000000000000000000001663e8e337007f00000000000000000000000000000000000000000000000000000000000000007f000000000000000000000000000000000000000000000000000000000000000085856000803061255c42610258612ff2565b60405160e08a901b6001600160e01b03191681526001600160a01b039889166004820152968816602488015260448701959095526064860193909352608485019190915260a484015290921660c482015260e481019190915261010401606060405180830381600087803b1580156125d357600080fd5b505af11580156125e7573d6000803e3d6000fd5b505050506040513d601f19601f8201168201806040525081019061260b9190612dfc565b5050505b6110a5611c53565b6040516001600160a01b03808516602483015283166044820152606481018290526110a59085906323b872dd60e01b90608401611b5b565b6040516001600160a01b038316602482015260448101829052610f3090849063a9059cbb60e01b90606401611b5b565b60006126d4826040518060400160405280602081526020017f5361666545524332303a206c6f772d6c6576656c2063616c6c206661696c6564815250856001600160a01b0316612aa79092919063ffffffff16565b805190915015610f3057808060200190518101906126f29190612dac565b610f305760405162461bcd60e51b815260206004820152602a60248201527f5361666545524332303a204552433230206f7065726174696f6e20646964206e6044820152691bdd081cdd58d8d9595960b21b60648201526084016106ef565b60008115612932576006541561293257600061271060065484612774919061302a565b61277e919061300a565b905060006103e860085483612793919061302a565b61279d919061300a565b90506128517f000000000000000000000000000000000000000000000000000000000000000082600954600b80548060200260200160405190810160405280929190818152602001828054801561281d57602002820191906000526020600020905b81546001600160a01b031681526001909101906020018083116127ff575b50505050507f0000000000000000000000000000000000000000000000000000000000000000426102586121419190612ff2565b60006103e860075484612864919061302a565b61286e919061300a565b90506129227f000000000000000000000000000000000000000000000000000000000000000082600954600b8054806020026020016040519081016040528092919081815260200182805480156128ee57602002820191906000526020600020905b81546001600160a01b031681526001909101906020018083116128d0575b50505050507f0000000000000000000000000000000000000000000000000000000000000000426102586121419190612ff2565b61292c8386613049565b94505050505b50805b919050565b60405163d06ca61f60e01b81526000906001600160a01b0388169063d06ca61f9061296b9089908890600401612f9d565b60006040518083038186803b15801561298357600080fd5b505afa158015612997573d6000803e3d6000fd5b505050506040513d6000823e601f3d908101601f191682016040526129bf9190810190612cec565b9050600081600183516129d29190613049565b815181106129f057634e487b7160e01b600052603260045260246000fd5b60200260200101519050876001600160a01b03166338ed1739886103e88985612a19919061302a565b612a23919061300a565b8888886040518663ffffffff1660e01b8152600401612a46959493929190612fb6565b600060405180830381600087803b158015612a6057600080fd5b505af1158015612a74573d6000803e3d6000fd5b505050506040513d6000823e601f3d908101601f19168201604052612a9c9190810190612cec565b505050505050505050565b6060612ab68484600085612abe565b949350505050565b606082471015612b1f5760405162461bcd60e51b815260206004820152602660248201527f416464726573733a20696e73756666696369656e742062616c616e636520666f6044820152651c8818d85b1b60d21b60648201526084016106ef565b843b612b6d5760405162461bcd60e51b815260206004820152601d60248201527f416464726573733a2063616c6c20746f206e6f6e2d636f6e747261637400000060448201526064016106ef565b600080866001600160a01b03168587604051612b899190612eae565b60006040518083038185875af1925050503d8060008114612bc6576040519150601f19603f3d011682016040523d82523d6000602084013e612bcb565b606091505b5091509150612bdb828286612be6565b979650505050505050565b60608315612bf5575081610df1565b825115612c055782518084602001fd5b8160405162461bcd60e51b81526004016106ef9190612eca565b80356001600160a01b038116811461293557600080fd5b600060208284031215612c47578081fd5b610df182612c1f565b60008060408385031215612c62578081fd5b612c6b83612c1f565b946020939093013593505050565b600080600060608486031215612c8d578081fd5b612c9684612c1f565b925060208401359150612cab60408501612c1f565b90509250925092565b60008060008060808587031215612cc9578081fd5b612cd285612c1f565b966020860135965060408601359560600135945092505050565b60006020808385031215612cfe578182fd5b825167ffffffffffffffff80821115612d15578384fd5b818501915085601f830112612d28578384fd5b815181811115612d3a57612d3a6130a2565b8060051b604051601f19603f83011681018181108582111715612d5f57612d5f6130a2565b604052828152858101935084860182860187018a1015612d7d578788fd5b8795505b83861015612d9f578051855260019590950194938601938601612d81565b5098975050505050505050565b600060208284031215612dbd578081fd5b81518015158114610df1578182fd5b600060208284031215612ddd578081fd5b5035919050565b600060208284031215612df5578081fd5b5051919050565b600080600060608486031215612e10578283fd5b8351925060208401519150604084015190509250925092565b60008060008060008060c08789031215612e41578182fd5b505084359660208601359650604086013595606081013595506080810135945060a0013592509050565b6000815180845260208085019450808401835b83811015612ea35781516001600160a01b031687529582019590820190600101612e7e565b509495945050505050565b60008251612ec0818460208701613060565b9190910192915050565b6000602082528251806020840152612ee9816040850160208701613060565b601f01601f19169190910160400192915050565b6020808252600b908201526a21676f7665726e616e636560a81b604082015260600190565b6020808252818101527f4f776e61626c653a2063616c6c6572206973206e6f7420746865206f776e6572604082015260600190565b6020808252600c908201526b7a65726f206164647265737360a01b604082015260600190565b6020808252600690820152651c185d5cd95960d21b604082015260600190565b600083825260406020830152612ab66040830184612e6b565b600086825285602083015260a06040830152612fd560a0830186612e6b565b6001600160a01b0394909416606083015250608001529392505050565b600082198211156130055761300561308c565b500190565b60008261302557634e487b7160e01b81526012600452602481fd5b500490565b60008160001904831182151516156130445761304461308c565b500290565b60008282101561305b5761305b61308c565b500390565b60005b8381101561307b578181015183820152602001613063565b838111156110a55750506000910152565b634e487b7160e01b600052601160045260246000fd5b634e487b7160e01b600052604160045260246000fdfea164736f6c6343000803000a8be0079c531659141344cd1fd0a4f28419497f9722a3daafe3b4186f6b6457e0",
  "devdoc": {
    "kind": "dev",
    "methods": {
      "addHarvester(address)": {
        "details": "Add a harvester address from Governance GNOSIS Safe."
      },
      "constructor": {
        "details": "Implementation of PancakeSwap LP autocompounding strategy."
      },
      "deposit(address,uint256)": {
        "details": "Function to transfer tokens BalleMaster -> strategy and put it to work."
      },
      "harvest()": {
        "details": "Function to harvest earnings and reinvest."
      },
      "inCaseTokensGetStuck(address,uint256,address)": {
        "details": "Function to use from Governance GNOSIS Safe only in case tokens get stuck. EMERGENCY ONLY."
      },
      "owner()": {
        "details": "Returns the address of the current owner."
      },
      "panic()": {
        "details": "Stop the vault with emergencyWithdraw from farm."
      },
      "pause()": {
        "details": "Stop the vault."
      },
      "removeHarvester(address)": {
        "details": "Remove a harvester address from Governance GNOSIS Safe."
      },
      "renounceOwnership()": {
        "details": "Leaves the contract without owner. It will not be possible to call `onlyOwner` functions anymore. Can only be called by the current owner. NOTE: Renouncing ownership will leave the contract without an owner, thereby removing any functionality that is only available to the owner."
      },
      "retire()": {
        "details": "Retire the vault."
      },
      "setGovernance(address)": {
        "details": "Function to change the governance address."
      },
      "setSettings(uint256,uint256,uint256,uint256,uint256,uint256)": {
        "details": "Function to change strategy settings."
      },
      "transferOwnership(address)": {
        "details": "Transfers ownership of the contract to a new account (`newOwner`). Can only be called by the current owner."
      },
      "unpause()": {
        "details": "Restart the vault."
      },
      "upgradeFrom(address,uint256,uint256,uint256)": {
        "details": "Complete upgrade from the old strategy."
      },
      "upgradeTo(address)": {
        "details": "Prepare to upgrade strategy to the new one indicated."
      },
      "withdraw(address,uint256)": {
        "details": "Function to transfer tokens strategy -> BalleMaster."
      }
    },
    "version": 1
  },
  "userdoc": {
    "kind": "user",
    "methods": {},
    "version": 1
  },
  "storageLayout": {
    "storage": [
      {
        "astId": 7,
        "contract": "contracts/strategies/StratPancakeLpV1.sol:StratPancakeLpV1",
        "label": "_owner",
        "offset": 0,
        "slot": "0",
        "type": "t_address"
      },
      {
        "astId": 3806,
        "contract": "contracts/strategies/StratPancakeLpV1.sol:StratPancakeLpV1",
        "label": "governance",
        "offset": 0,
        "slot": "1",
        "type": "t_address"
      },
      {
        "astId": 3810,
        "contract": "contracts/strategies/StratPancakeLpV1.sol:StratPancakeLpV1",
        "label": "harvesters",
        "offset": 0,
        "slot": "2",
        "type": "t_mapping(t_address,t_bool)"
      },
      {
        "astId": 3813,
        "contract": "contracts/strategies/StratPancakeLpV1.sol:StratPancakeLpV1",
        "label": "depositTotal",
        "offset": 0,
        "slot": "3",
        "type": "t_uint256"
      },
      {
        "astId": 3816,
        "contract": "contracts/strategies/StratPancakeLpV1.sol:StratPancakeLpV1",
        "label": "sharesTotal",
        "offset": 0,
        "slot": "4",
        "type": "t_uint256"
      },
      {
        "astId": 3819,
        "contract": "contracts/strategies/StratPancakeLpV1.sol:StratPancakeLpV1",
        "label": "entranceFee",
        "offset": 0,
        "slot": "5",
        "type": "t_uint256"
      },
      {
        "astId": 3828,
        "contract": "contracts/strategies/StratPancakeLpV1.sol:StratPancakeLpV1",
        "label": "performanceFee",
        "offset": 0,
        "slot": "6",
        "type": "t_uint256"
      },
      {
        "astId": 3837,
        "contract": "contracts/strategies/StratPancakeLpV1.sol:StratPancakeLpV1",
        "label": "rewardsFeeFactor",
        "offset": 0,
        "slot": "7",
        "type": "t_uint256"
      },
      {
        "astId": 3840,
        "contract": "contracts/strategies/StratPancakeLpV1.sol:StratPancakeLpV1",
        "label": "treasuryFeeFactor",
        "offset": 0,
        "slot": "8",
        "type": "t_uint256"
      },
      {
        "astId": 3846,
        "contract": "contracts/strategies/StratPancakeLpV1.sol:StratPancakeLpV1",
        "label": "slippage",
        "offset": 0,
        "slot": "9",
        "type": "t_uint256"
      },
      {
        "astId": 3852,
        "contract": "contracts/strategies/StratPancakeLpV1.sol:StratPancakeLpV1",
        "label": "minEarnedToReinvest",
        "offset": 0,
        "slot": "10",
        "type": "t_uint256"
      },
      {
        "astId": 3861,
        "contract": "contracts/strategies/StratPancakeLpV1.sol:StratPancakeLpV1",
        "label": "cakeToBallePath",
        "offset": 0,
        "slot": "11",
        "type": "t_array(t_address)dyn_storage"
      },
      {
        "astId": 3864,
        "contract": "contracts/strategies/StratPancakeLpV1.sol:StratPancakeLpV1",
        "label": "cakeToToken0Path",
        "offset": 0,
        "slot": "12",
        "type": "t_array(t_address)dyn_storage"
      },
      {
        "astId": 3867,
        "contract": "contracts/strategies/StratPancakeLpV1.sol:StratPancakeLpV1",
        "label": "cakeToToken1Path",
        "offset": 0,
        "slot": "13",
        "type": "t_array(t_address)dyn_storage"
      },
      {
        "astId": 3870,
        "contract": "contracts/strategies/StratPancakeLpV1.sol:StratPancakeLpV1",
        "label": "paused",
        "offset": 0,
        "slot": "14",
        "type": "t_bool"
      }
    ],
    "types": {
      "t_address": {
        "encoding": "inplace",
        "label": "address",
        "numberOfBytes": "20"
      },
      "t_array(t_address)dyn_storage": {
        "base": "t_address",
        "encoding": "dynamic_array",
        "label": "address[]",
        "numberOfBytes": "32"
      },
      "t_bool": {
        "encoding": "inplace",
        "label": "bool",
        "numberOfBytes": "1"
      },
      "t_mapping(t_address,t_bool)": {
        "encoding": "mapping",
        "key": "t_address",
        "label": "mapping(address => bool)",
        "numberOfBytes": "32",
        "value": "t_bool"
      },
      "t_uint256": {
        "encoding": "inplace",
        "label": "uint256",
        "numberOfBytes": "32"
      }
    }
  }
}