{
  "address": "0x3a4722A9F74fA3d5f1975178782F925F8bbf15A9",
  "abi": [
    {
      "inputs": [
        {
          "internalType": "address[]",
          "name": "_addresses",
          "type": "address[]"
        },
        {
          "internalType": "address[]",
          "name": "_earnedtokenToBallePath",
          "type": "address[]"
        }
      ],
      "stateMutability": "nonpayable",
      "type": "constructor"
    },
    {
      "anonymous": false,
      "inputs": [
        {
          "indexed": false,
          "internalType": "uint256",
          "name": "rewardsAmount",
          "type": "uint256"
        },
        {
          "indexed": false,
          "internalType": "uint256",
          "name": "treasuryAmount",
          "type": "uint256"
        }
      ],
      "name": "DistributeFees",
      "type": "event"
    },
    {
      "anonymous": false,
      "inputs": [
        {
          "indexed": false,
          "internalType": "uint256",
          "name": "amount",
          "type": "uint256"
        }
      ],
      "name": "Harvest",
      "type": "event"
    },
    {
      "anonymous": false,
      "inputs": [
        {
          "indexed": true,
          "internalType": "address",
          "name": "previousOwner",
          "type": "address"
        },
        {
          "indexed": true,
          "internalType": "address",
          "name": "newOwner",
          "type": "address"
        }
      ],
      "name": "OwnershipTransferred",
      "type": "event"
    },
    {
      "anonymous": false,
      "inputs": [
        {
          "indexed": true,
          "internalType": "address",
          "name": "addr",
          "type": "address"
        }
      ],
      "name": "SetGovernance",
      "type": "event"
    },
    {
      "anonymous": false,
      "inputs": [
        {
          "indexed": false,
          "internalType": "uint256",
          "name": "entranceFee",
          "type": "uint256"
        },
        {
          "indexed": false,
          "internalType": "uint256",
          "name": "performanceFee",
          "type": "uint256"
        },
        {
          "indexed": false,
          "internalType": "uint256",
          "name": "rewardsFeeFactor",
          "type": "uint256"
        },
        {
          "indexed": false,
          "internalType": "uint256",
          "name": "treasuryFeeFactor",
          "type": "uint256"
        },
        {
          "indexed": false,
          "internalType": "uint256",
          "name": "slippage",
          "type": "uint256"
        }
      ],
      "name": "SetSettings",
      "type": "event"
    },
    {
      "inputs": [],
      "name": "ENTRANCE_FEE_LL",
      "outputs": [
        {
          "internalType": "uint256",
          "name": "",
          "type": "uint256"
        }
      ],
      "stateMutability": "view",
      "type": "function"
    },
    {
      "inputs": [],
      "name": "ENTRANCE_FEE_MAX",
      "outputs": [
        {
          "internalType": "uint256",
          "name": "",
          "type": "uint256"
        }
      ],
      "stateMutability": "view",
      "type": "function"
    },
    {
      "inputs": [],
      "name": "FEE_FACTOR_MAX",
      "outputs": [
        {
          "internalType": "uint256",
          "name": "",
          "type": "uint256"
        }
      ],
      "stateMutability": "view",
      "type": "function"
    },
    {
      "inputs": [],
      "name": "PERFORMANCE_FEE_MAX",
      "outputs": [
        {
          "internalType": "uint256",
          "name": "",
          "type": "uint256"
        }
      ],
      "stateMutability": "view",
      "type": "function"
    },
    {
      "inputs": [],
      "name": "PERFORMANCE_FEE_UL",
      "outputs": [
        {
          "internalType": "uint256",
          "name": "",
          "type": "uint256"
        }
      ],
      "stateMutability": "view",
      "type": "function"
    },
    {
      "inputs": [],
      "name": "SLIPPAGE_UL",
      "outputs": [
        {
          "internalType": "uint256",
          "name": "",
          "type": "uint256"
        }
      ],
      "stateMutability": "view",
      "type": "function"
    },
    {
      "inputs": [
        {
          "internalType": "address",
          "name": "_harvester",
          "type": "address"
        }
      ],
      "name": "addHarvester",
      "outputs": [],
      "stateMutability": "nonpayable",
      "type": "function"
    },
    {
      "inputs": [
        {
          "internalType": "address",
          "name": "_user",
          "type": "address"
        },
        {
          "internalType": "uint256",
          "name": "_amount",
          "type": "uint256"
        }
      ],
      "name": "deposit",
      "outputs": [
        {
          "internalType": "uint256",
          "name": "",
          "type": "uint256"
        }
      ],
      "stateMutability": "nonpayable",
      "type": "function"
    },
    {
      "inputs": [],
      "name": "depositToken",
      "outputs": [
        {
          "internalType": "address",
          "name": "",
          "type": "address"
        }
      ],
      "stateMutability": "view",
      "type": "function"
    },
    {
      "inputs": [],
      "name": "depositTotal",
      "outputs": [
        {
          "internalType": "uint256",
          "name": "",
          "type": "uint256"
        }
      ],
      "stateMutability": "view",
      "type": "function"
    },
    {
      "inputs": [
        {
          "internalType": "uint256",
          "name": "",
          "type": "uint256"
        }
      ],
      "name": "earnedtokenToBallePath",
      "outputs": [
        {
          "internalType": "address",
          "name": "",
          "type": "address"
        }
      ],
      "stateMutability": "view",
      "type": "function"
    },
    {
      "inputs": [],
      "name": "entranceFee",
      "outputs": [
        {
          "internalType": "uint256",
          "name": "",
          "type": "uint256"
        }
      ],
      "stateMutability": "view",
      "type": "function"
    },
    {
      "inputs": [],
      "name": "governance",
      "outputs": [
        {
          "internalType": "address",
          "name": "",
          "type": "address"
        }
      ],
      "stateMutability": "view",
      "type": "function"
    },
    {
      "inputs": [],
      "name": "harvest",
      "outputs": [],
      "stateMutability": "nonpayable",
      "type": "function"
    },
    {
      "inputs": [
        {
          "internalType": "address",
          "name": "",
          "type": "address"
        }
      ],
      "name": "harvesters",
      "outputs": [
        {
          "internalType": "bool",
          "name": "",
          "type": "bool"
        }
      ],
      "stateMutability": "view",
      "type": "function"
    },
    {
      "inputs": [
        {
          "internalType": "address",
          "name": "_token",
          "type": "address"
        },
        {
          "internalType": "uint256",
          "name": "_amount",
          "type": "uint256"
        },
        {
          "internalType": "address",
          "name": "_to",
          "type": "address"
        }
      ],
      "name": "inCaseTokensGetStuck",
      "outputs": [],
      "stateMutability": "nonpayable",
      "type": "function"
    },
    {
      "inputs": [],
      "name": "masterChef",
      "outputs": [
        {
          "internalType": "address",
          "name": "",
          "type": "address"
        }
      ],
      "stateMutability": "view",
      "type": "function"
    },
    {
      "inputs": [],
      "name": "operations",
      "outputs": [
        {
          "internalType": "address",
          "name": "",
          "type": "address"
        }
      ],
      "stateMutability": "view",
      "type": "function"
    },
    {
      "inputs": [],
      "name": "owner",
      "outputs": [
        {
          "internalType": "address",
          "name": "",
          "type": "address"
        }
      ],
      "stateMutability": "view",
      "type": "function"
    },
    {
      "inputs": [],
      "name": "panic",
      "outputs": [],
      "stateMutability": "nonpayable",
      "type": "function"
    },
    {
      "inputs": [],
      "name": "pause",
      "outputs": [],
      "stateMutability": "nonpayable",
      "type": "function"
    },
    {
      "inputs": [],
      "name": "paused",
      "outputs": [
        {
          "internalType": "bool",
          "name": "",
          "type": "bool"
        }
      ],
      "stateMutability": "view",
      "type": "function"
    },
    {
      "inputs": [],
      "name": "pendingEarnedToken",
      "outputs": [
        {
          "internalType": "uint256",
          "name": "",
          "type": "uint256"
        }
      ],
      "stateMutability": "view",
      "type": "function"
    },
    {
      "inputs": [],
      "name": "performanceFee",
      "outputs": [
        {
          "internalType": "uint256",
          "name": "",
          "type": "uint256"
        }
      ],
      "stateMutability": "view",
      "type": "function"
    },
    {
      "inputs": [
        {
          "internalType": "address",
          "name": "_harvester",
          "type": "address"
        }
      ],
      "name": "removeHarvester",
      "outputs": [],
      "stateMutability": "nonpayable",
      "type": "function"
    },
    {
      "inputs": [],
      "name": "renounceOwnership",
      "outputs": [],
      "stateMutability": "nonpayable",
      "type": "function"
    },
    {
      "inputs": [],
      "name": "retire",
      "outputs": [],
      "stateMutability": "nonpayable",
      "type": "function"
    },
    {
      "inputs": [],
      "name": "rewards",
      "outputs": [
        {
          "internalType": "address",
          "name": "",
          "type": "address"
        }
      ],
      "stateMutability": "view",
      "type": "function"
    },
    {
      "inputs": [],
      "name": "rewardsFeeFactor",
      "outputs": [
        {
          "internalType": "uint256",
          "name": "",
          "type": "uint256"
        }
      ],
      "stateMutability": "view",
      "type": "function"
    },
    {
      "inputs": [],
      "name": "router",
      "outputs": [
        {
          "internalType": "address",
          "name": "",
          "type": "address"
        }
      ],
      "stateMutability": "view",
      "type": "function"
    },
    {
      "inputs": [
        {
          "internalType": "address",
          "name": "_governance",
          "type": "address"
        }
      ],
      "name": "setGovernance",
      "outputs": [],
      "stateMutability": "nonpayable",
      "type": "function"
    },
    {
      "inputs": [
        {
          "internalType": "address",
          "name": "_operations",
          "type": "address"
        }
      ],
      "name": "setOperations",
      "outputs": [],
      "stateMutability": "nonpayable",
      "type": "function"
    },
    {
      "inputs": [
        {
          "internalType": "address",
          "name": "_rewards",
          "type": "address"
        }
      ],
      "name": "setRewards",
      "outputs": [],
      "stateMutability": "nonpayable",
      "type": "function"
    },
    {
      "inputs": [
        {
          "internalType": "uint256",
          "name": "_entranceFee",
          "type": "uint256"
        },
        {
          "internalType": "uint256",
          "name": "_performanceFee",
          "type": "uint256"
        },
        {
          "internalType": "uint256",
          "name": "_rewardsFeeFactor",
          "type": "uint256"
        },
        {
          "internalType": "uint256",
          "name": "_treasuryFeeFactor",
          "type": "uint256"
        },
        {
          "internalType": "uint256",
          "name": "_slippage",
          "type": "uint256"
        }
      ],
      "name": "setSettings",
      "outputs": [],
      "stateMutability": "nonpayable",
      "type": "function"
    },
    {
      "inputs": [
        {
          "internalType": "address",
          "name": "_treasury",
          "type": "address"
        }
      ],
      "name": "setTreasury",
      "outputs": [],
      "stateMutability": "nonpayable",
      "type": "function"
    },
    {
      "inputs": [],
      "name": "sharesTotal",
      "outputs": [
        {
          "internalType": "uint256",
          "name": "",
          "type": "uint256"
        }
      ],
      "stateMutability": "view",
      "type": "function"
    },
    {
      "inputs": [],
      "name": "slippage",
      "outputs": [
        {
          "internalType": "uint256",
          "name": "",
          "type": "uint256"
        }
      ],
      "stateMutability": "view",
      "type": "function"
    },
    {
      "inputs": [
        {
          "internalType": "address",
          "name": "newOwner",
          "type": "address"
        }
      ],
      "name": "transferOwnership",
      "outputs": [],
      "stateMutability": "nonpayable",
      "type": "function"
    },
    {
      "inputs": [],
      "name": "treasury",
      "outputs": [
        {
          "internalType": "address",
          "name": "",
          "type": "address"
        }
      ],
      "stateMutability": "view",
      "type": "function"
    },
    {
      "inputs": [],
      "name": "treasuryFeeFactor",
      "outputs": [
        {
          "internalType": "uint256",
          "name": "",
          "type": "uint256"
        }
      ],
      "stateMutability": "view",
      "type": "function"
    },
    {
      "inputs": [],
      "name": "unpause",
      "outputs": [],
      "stateMutability": "nonpayable",
      "type": "function"
    },
    {
      "inputs": [
        {
          "internalType": "address",
          "name": "_user",
          "type": "address"
        },
        {
          "internalType": "uint256",
          "name": "_amount",
          "type": "uint256"
        }
      ],
      "name": "withdraw",
      "outputs": [
        {
          "internalType": "uint256",
          "name": "",
          "type": "uint256"
        },
        {
          "internalType": "uint256",
          "name": "",
          "type": "uint256"
        }
      ],
      "stateMutability": "nonpayable",
      "type": "function"
    }
  ],
  "transactionHash": "0xd0d196abb79e44a7ad49252d95e63c46f52676756f7961b6c77abde9f8e3adbb",
  "args": [
    [
      "0xa6D6240e5d5b6232996D58B6b3C4555c824deA73",
      "0x9ac64cc6e4415144c455bd8e4837fea55603e5c3",
      "0x91E85122eF92FF306EA47025efd00404CcaEEb19",
      "0x943e160E966e35F15c8D964e1FE05E37867D5671",
      "0xb25D37892305FE1b44c06F035139a0ED11EcA82d",
      "0x783557C3A2E98D58A9c6A0Fa10a475fcad62477f",
      "0x8ADB7044d41aC5B378281e0ebd9CD6eAC43a53F8"
    ],
    [
      "0xa6D6240e5d5b6232996D58B6b3C4555c824deA73",
      "0xae13d989daC2f0dEbFf460aC112a837C89BAa7cd",
      "0x43fC744c34b211cD57c6f0d1ddB4EA8BC504541b"
    ]
  ],
  "solcInputHash": "b6aab1b20968a97e80e054f3733bdbe2",
  "bytecode": "0x60e060405260006007819055600855612706600955610190600a556102ee600b5560fa600c556103b6600d55600f805460ff191690553480156200004257600080fd5b5060405162002c4c38038062002c4c833981016040819052620000659162000532565b600080546001600160a01b0319163390811782556040519091829160008051602062002c2c833981519152908290a3506001805581518290600090620000bb57634e487b7160e01b600052603260045260246000fd5b60200260200101516001600160a01b031660a0816001600160a01b031660601b81525050816001815181106200010157634e487b7160e01b600052603260045260246000fd5b60200260200101516001600160a01b031660c0816001600160a01b031660601b81525050816002815181106200014757634e487b7160e01b600052603260045260246000fd5b602090810291909101015160601b6001600160601b03191660805260048054336001600160a01b0319909116178155825160019160069160009186918110620001a057634e487b7160e01b600052603260045260246000fd5b60200260200101516001600160a01b03166001600160a01b0316815260200190815260200160002060006101000a81548160ff021916908315150217905550816005815181106200020157634e487b7160e01b600052603260045260246000fd5b6020026020010151600260006101000a8154816001600160a01b0302191690836001600160a01b03160217905550816006815181106200025157634e487b7160e01b600052603260045260246000fd5b602090810291909101810151600380546001600160a01b0319166001600160a01b0390921691909117905581516200029091600e9190840190620003e4565b50620002cb82600381518110620002b757634e487b7160e01b600052603260045260246000fd5b6020026020010151620002d360201b60201c565b5050620005af565b6000546001600160a01b03163314620003335760405162461bcd60e51b815260206004820181905260248201527f4f776e61626c653a2063616c6c6572206973206e6f7420746865206f776e657260448201526064015b60405180910390fd5b6001600160a01b0381166200039a5760405162461bcd60e51b815260206004820152602660248201527f4f776e61626c653a206e6577206f776e657220697320746865207a65726f206160448201526564647265737360d01b60648201526084016200032a565b600080546040516001600160a01b038085169392169160008051602062002c2c83398151915291a3600080546001600160a01b0319166001600160a01b0392909216919091179055565b8280548282559060005260206000209081019282156200043c579160200282015b828111156200043c57825182546001600160a01b0319166001600160a01b0390911617825560209092019160019091019062000405565b506200044a9291506200044e565b5090565b5b808211156200044a57600081556001016200044f565b80516001600160a01b03811681146200047d57600080fd5b919050565b600082601f83011262000493578081fd5b815160206001600160401b0380831115620004b257620004b262000599565b8260051b604051601f19603f83011681018181108482111715620004da57620004da62000599565b60405284815283810192508684018288018501891015620004f9578687fd5b8692505b858310156200052657620005118162000465565b845292840192600192909201918401620004fd565b50979650505050505050565b6000806040838503121562000545578182fd5b82516001600160401b03808211156200055c578384fd5b6200056a8683870162000482565b9350602085015191508082111562000580578283fd5b506200058f8582860162000482565b9150509250929050565b634e487b7160e01b600052604160045260246000fd5b60805160601c60a05160601c60c05160601c61258e6200069e6000396000818161051d015281816116b301528181611775015281816118e401528181611b590152611c2e015260008181610470015281816107ef01528181610a3d01528181610b2901528181611433015281816114f10152818161153f0152818161186d015281816118c201528181611a6801528181611af301528181611b810152611c0c0152600081816102d40152818161055e015281816107740152818161093f015281816113b6015281816115f80152818161188f015281816119e401528181611a400152611b15015261258e6000f3fe608060405234801561001057600080fd5b506004361061025e5760003560e01c80638778878211610146578063aff66095116100c3578063ed0f435211610087578063ed0f4352146104b8578063f0f44260146104c1578063f2fde38b146104d4578063f384a44c146104e7578063f3fef3a3146104f0578063f887ea40146105185761025e565b8063aff6609514610445578063c32c1e6514610458578063c89039c51461046b578063e695b9d914610492578063ec38a862146104a55761025e565b8063952e6ee91161010a578063952e6ee9146104055780639ae0ddaf1461040e5780639ec5a89414610417578063a4874d771461042a578063ab033ea9146104325761025e565b806387788782146103a257806387976583146103ab5780638b33b4b2146103ce5780638da5cb5b146103e15780638fab5917146103f25761025e565b80635aa6e675116101df57806367206d40116101a357806367206d401461035a578063715018a61461036d5780637215313d146103755780637a3404881461037e5780638456cb591461038757806384fa32ac1461038f5761025e565b80635aa6e6751461030e5780635b5be8dd146102635780635c975abb1461032157806361d027b31461033e578063649677e1146103515761025e565b80634641257d116102265780634641257d146102a35780634700d305146102ab57806347e7ef24146102b35780634adae0da146102c6578063575a86b2146102cf5761025e565b806304448370146102635780632838ee9c1461027f5780633e032a3b146102875780633f4ba83a1461029057806344a3955e1461029a575b600080fd5b61026c61271081565b6040519081526020015b60405180910390f35b61026c61053f565b61026c600d5481565b6102986105e5565b005b61026c60085481565b61029861066d565b6102986108c7565b61026c6102c1366004612161565b6109a4565b61026c60075481565b6102f67f000000000000000000000000000000000000000000000000000000000000000081565b6040516001600160a01b039091168152602001610276565b6004546102f6906001600160a01b031681565b600f5461032e9060ff1681565b6040519015158152602001610276565b6003546102f6906001600160a01b031681565b61026c60095481565b61029861036836600461218a565b610ad7565b610298610baa565b61026c6103de81565b61026c61032081565b610298610c1e565b61029861039d3660046122d5565b610c73565b61026c600a5481565b61032e6103b9366004612147565b60066020526000908152604090205460ff1681565b6005546102f6906001600160a01b031681565b6000546001600160a01b03166102f6565b610298610400366004612147565b610e75565b61026c600b5481565b61026c6126de81565b6002546102f6906001600160a01b031681565b610298610efe565b610298610440366004612147565b610f28565b610298610453366004612147565b610fc2565b610298610466366004612147565b611048565b6102f67f000000000000000000000000000000000000000000000000000000000000000081565b6102f66104a03660046122a5565b6110ba565b6102986104b3366004612147565b6110e4565b61026c6103e881565b6102986104cf366004612147565b611156565b6102986104e2366004612147565b6111c8565b61026c600c5481565b6105036104fe366004612161565b6112b2565b60408051928352602083019190915201610276565b6102f67f000000000000000000000000000000000000000000000000000000000000000081565b604051631175a1dd60e01b8152600060048201819052306024830152907f00000000000000000000000000000000000000000000000000000000000000006001600160a01b031690631175a1dd9060440160206040518083038186803b1580156105a857600080fd5b505afa1580156105bc573d6000803e3d6000fd5b505050506040513d601f19601f820116820180604052508101906105e091906122bd565b905090565b6000546001600160a01b031633146106185760405162461bcd60e51b815260040161060f906123eb565b60405180910390fd5b600f5460ff166106545760405162461bcd60e51b8152602060048201526007602482015266085c185d5cd95960ca1b604482015260640161060f565b6000600755600f805460ff1916905561066b611521565b565b3360009081526006602052604090205460ff168061069557506005546001600160a01b031633145b806106aa57506004546001600160a01b031633145b6106e35760405162461bcd60e51b815260206004820152600a60248201526910b430b93b32b9ba32b960b11b604482015260640161060f565b600f5460ff16156107065760405162461bcd60e51b815260040161060f90612446565b600260015414156107595760405162461bcd60e51b815260206004820152601f60248201527f5265656e7472616e637947756172643a207265656e7472616e742063616c6c00604482015260640161060f565b6002600155604051631058d28160e01b8152600060048201527f00000000000000000000000000000000000000000000000000000000000000006001600160a01b031690631058d28190602401600060405180830381600087803b1580156107c057600080fd5b505af11580156107d4573d6000803e3d6000fd5b50506040516370a0823160e01b8152306004820152600092507f00000000000000000000000000000000000000000000000000000000000000006001600160a01b031691506370a082319060240160206040518083038186803b15801561083a57600080fd5b505afa15801561084e573d6000803e3d6000fd5b505050506040513d601f19601f8201168201806040525081019061087291906122bd565b90507f80f97f878e16410266694f134ddf012f2be424f54f8b5cafa107eccc51d00d58816040516108a591815260200190565b60405180910390a16108b681611660565b90506108c0611521565b5060018055565b6000546001600160a01b031633146108f15760405162461bcd60e51b815260040161060f906123eb565b600f5460ff16156109145760405162461bcd60e51b815260040161060f90612446565b600f805460ff19166001179055604051632989754760e11b8152600060048201526001600160a01b037f00000000000000000000000000000000000000000000000000000000000000001690635312ea8e906024015b600060405180830381600087803b15801561098457600080fd5b505af1158015610998573d6000803e3d6000fd5b5050505061066b611860565b600080546001600160a01b031633146109cf5760405162461bcd60e51b815260040161060f906123eb565b600f5460ff16156109f25760405162461bcd60e51b815260040161060f90612446565b6001600160a01b038316610a305760405162461bcd60e51b815260206004820152600560248201526410bab9b2b960d91b604482015260640161060f565b610a656001600160a01b037f00000000000000000000000000000000000000000000000000000000000000001633308561190a565b600754829015801590610a7a57506000600854115b15610ab75761271060075460095460085486610a9691906124f3565b610aa091906124f3565b610aaa91906124d3565b610ab491906124d3565b90505b80600854610ac591906124bb565b600855610ad0611521565b9392505050565b6004546001600160a01b03163314610b015760405162461bcd60e51b815260040161060f906123a1565b6001600160a01b038116610b275760405162461bcd60e51b815260040161060f90612420565b7f00000000000000000000000000000000000000000000000000000000000000006001600160a01b0316836001600160a01b03161415610b915760405162461bcd60e51b8152602060048201526005602482015264217361666560d81b604482015260640161060f565b610ba56001600160a01b038416828461197b565b505050565b6000546001600160a01b03163314610bd45760405162461bcd60e51b815260040161060f906123eb565b600080546040516001600160a01b03909116907f8be0079c531659141344cd1fd0a4f28419497f9722a3daafe3b4186f6b6457e0908390a3600080546001600160a01b0319169055565b6000546001600160a01b03163314610c485760405162461bcd60e51b815260040161060f906123eb565b600f5460ff1615610c6b5760405162461bcd60e51b815260040161060f90612446565b61066b6119ab565b6005546001600160a01b0316331480610c9657506004546001600160a01b031633145b610cb25760405162461bcd60e51b815260040161060f906123c6565b6126de851015610cf55760405162461bcd60e51b815260206004820152600e60248201526d08595b9d1c985b98d9519959531360921b604482015260640161060f565b612710851115610d395760405162461bcd60e51b815260206004820152600f60248201526e042cadce8e4c2dcc6ca8ccaca9ac2f608b1b604482015260640161060f565b6009859055610320841115610d845760405162461bcd60e51b8152602060048201526011602482015270085c195c999bdc9b585b98d95199595553607a1b604482015260640161060f565b600a8490556103e8610d9683856124bb565b14610dd05760405162461bcd60e51b815260206004820152600a60248201526910b332b2a330b1ba37b960b11b604482015260640161060f565b600b839055600c8290556103de811115610e1a5760405162461bcd60e51b815260206004820152600b60248201526a085cdb1a5c1c1859d9555360aa1b604482015260640161060f565b600d819055604080518681526020810186905290810184905260608101839052608081018290527fc67e0b149a57a70fa44a531a46c2c6d8e0b242fa12f459f250012c3a5987d29a9060a00160405180910390a15050505050565b6005546001600160a01b0316331480610e9857506004546001600160a01b031633145b610eb45760405162461bcd60e51b815260040161060f906123c6565b6001600160a01b038116610eda5760405162461bcd60e51b815260040161060f90612420565b6001600160a01b03166000908152600660205260409020805460ff19166001179055565b6000546001600160a01b03163314610c6b5760405162461bcd60e51b815260040161060f906123eb565b6004546001600160a01b03163314610f525760405162461bcd60e51b815260040161060f906123a1565b6001600160a01b038116610f785760405162461bcd60e51b815260040161060f90612420565b600480546001600160a01b0319166001600160a01b0383169081179091556040517f24a8c4807b324a269a51827c3446b8ac1cc13810d7d0c0ca1efafabddd7b621990600090a250565b6005546001600160a01b0316331480610fe557506004546001600160a01b031633145b6110015760405162461bcd60e51b815260040161060f906123c6565b6001600160a01b0381166110275760405162461bcd60e51b815260040161060f90612420565b6001600160a01b03166000908152600660205260409020805460ff19169055565b6004546001600160a01b031633146110725760405162461bcd60e51b815260040161060f906123a1565b6001600160a01b0381166110985760405162461bcd60e51b815260040161060f90612420565b600580546001600160a01b0319166001600160a01b0392909216919091179055565b600e81815481106110ca57600080fd5b6000918252602090912001546001600160a01b0316905081565b6004546001600160a01b0316331461110e5760405162461bcd60e51b815260040161060f906123a1565b6001600160a01b0381166111345760405162461bcd60e51b815260040161060f90612420565b600280546001600160a01b0319166001600160a01b0392909216919091179055565b6004546001600160a01b031633146111805760405162461bcd60e51b815260040161060f906123a1565b6001600160a01b0381166111a65760405162461bcd60e51b815260040161060f90612420565b600380546001600160a01b0319166001600160a01b0392909216919091179055565b6000546001600160a01b031633146111f25760405162461bcd60e51b815260040161060f906123eb565b6001600160a01b0381166112575760405162461bcd60e51b815260206004820152602660248201527f4f776e61626c653a206e6577206f776e657220697320746865207a65726f206160448201526564647265737360d01b606482015260840161060f565b600080546040516001600160a01b03808516939216917f8be0079c531659141344cd1fd0a4f28419497f9722a3daafe3b4186f6b6457e091a3600080546001600160a01b0319166001600160a01b0392909216919091179055565b6000805481906001600160a01b031633146112df5760405162461bcd60e51b815260040161060f906123eb565b6001600160a01b03841661131d5760405162461bcd60e51b815260206004820152600560248201526410bab9b2b960d91b604482015260640161060f565b600083116113575760405162461bcd60e51b815260206004820152600760248201526608585b5bdd5b9d60ca1b604482015260640161060f565b60006007546008548561136a91906124f3565b61137491906124d3565b905060085481111561138557506008545b806008546113939190612512565b600855600f5460ff1661141b57604051631058d28160e01b8152600481018590527f00000000000000000000000000000000000000000000000000000000000000006001600160a01b031690631058d28190602401600060405180830381600087803b15801561140257600080fd5b505af1158015611416573d6000803e3d6000fd5b505050505b6040516370a0823160e01b81523060048201526000907f00000000000000000000000000000000000000000000000000000000000000006001600160a01b0316906370a082319060240160206040518083038186803b15801561147d57600080fd5b505afa158015611491573d6000803e3d6000fd5b505050506040513d601f19601f820116820180604052508101906114b591906122bd565b9050808511156114c3578094505b8460075410156114d35760075494505b846007546114e19190612512565b6007556115186001600160a01b037f000000000000000000000000000000000000000000000000000000000000000016338761197b565b50949293505050565b6007546040516370a0823160e01b81523060048201529015906000907f00000000000000000000000000000000000000000000000000000000000000006001600160a01b0316906370a082319060240160206040518083038186803b15801561158957600080fd5b505afa15801561159d573d6000803e3d6000fd5b505050506040513d601f19601f820116820180604052508101906115c191906122bd565b9050806007546115d191906124bb565b60075581156115e2576115e2611a23565b6040516341441d3b60e01b8152600481018290527f00000000000000000000000000000000000000000000000000000000000000006001600160a01b0316906341441d3b90602401600060405180830381600087803b15801561164457600080fd5b505af1158015611658573d6000803e3d6000fd5b505050505050565b6000811561185857600a5415611858576000612710600a548461168391906124f3565b61168d91906124d3565b905060006103e8600c54836116a291906124f3565b6116ac91906124d3565b90506117517f000000000000000000000000000000000000000000000000000000000000000082600d54600e80548060200260200160405190810160405280929190818152602001828054801561172c57602002820191906000526020600020905b81546001600160a01b0316815260019091019060200180831161170e575b50506003546001600160a01b0316925061174c91504290506102586124bb565b611c55565b60006103e8600b548461176491906124f3565b61176e91906124d3565b905061180e7f000000000000000000000000000000000000000000000000000000000000000082600d54600e8054806020026020016040519081016040528092919081815260200182805480156117ee57602002820191906000526020600020905b81546001600160a01b031681526001909101906020018083116117d0575b50506002546001600160a01b0316925061174c91504290506102586124bb565b6118188386612512565b60408051838152602081018590529196507f916ad8171ef8c567c7790377a142f0200f9565940680c06e30dd105cfd924968910160405180910390a15050505b50805b919050565b6118b56001600160a01b037f0000000000000000000000000000000000000000000000000000000000000000167f00000000000000000000000000000000000000000000000000000000000000006000611dc2565b61066b6001600160a01b037f0000000000000000000000000000000000000000000000000000000000000000167f00000000000000000000000000000000000000000000000000000000000000006000611dc2565b6040516001600160a01b03808516602483015283166044820152606481018290526119759085906323b872dd60e01b906084015b60408051601f198184030181529190526020810180516001600160e01b03166001600160e01b031990931692909217909152611ee6565b50505050565b6040516001600160a01b038316602482015260448101829052610ba590849063a9059cbb60e01b9060640161193e565b600f5460ff1661066b57600f805460ff1916600117905560075415611a1b57600754604051631058d28160e01b815260048101919091527f00000000000000000000000000000000000000000000000000000000000000006001600160a01b031690631058d2819060240161096a565b61066b611860565b604051636eb1769f60e11b81523060048201526001600160a01b037f0000000000000000000000000000000000000000000000000000000000000000811660248301527f0000000000000000000000000000000000000000000000000000000000000000169063dd62ed3e9060440160206040518083038186803b158015611aaa57600080fd5b505afa158015611abe573d6000803e3d6000fd5b505050506040513d601f19601f82011682018060405250810190611ae291906122bd565b611b3c57611b3c6001600160a01b037f0000000000000000000000000000000000000000000000000000000000000000167f0000000000000000000000000000000000000000000000000000000000000000600019611dc2565b604051636eb1769f60e11b81523060048201526001600160a01b037f0000000000000000000000000000000000000000000000000000000000000000811660248301527f0000000000000000000000000000000000000000000000000000000000000000169063dd62ed3e9060440160206040518083038186803b158015611bc357600080fd5b505afa158015611bd7573d6000803e3d6000fd5b505050506040513d601f19601f82011682018060405250810190611bfb91906122bd565b61066b5761066b6001600160a01b037f0000000000000000000000000000000000000000000000000000000000000000167f0000000000000000000000000000000000000000000000000000000000000000600019611dc2565b60405163d06ca61f60e01b81526000906001600160a01b0388169063d06ca61f90611c869089908890600401612466565b60006040518083038186803b158015611c9e57600080fd5b505afa158015611cb2573d6000803e3d6000fd5b505050506040513d6000823e601f3d908101601f19168201604052611cda91908101906121c5565b905060008160018351611ced9190612512565b81518110611d0b57634e487b7160e01b600052603260045260246000fd5b60200260200101519050876001600160a01b03166338ed1739886103e88985611d3491906124f3565b611d3e91906124d3565b8888886040518663ffffffff1660e01b8152600401611d6195949392919061247f565b600060405180830381600087803b158015611d7b57600080fd5b505af1158015611d8f573d6000803e3d6000fd5b505050506040513d6000823e601f3d908101601f19168201604052611db791908101906121c5565b505050505050505050565b801580611e4b5750604051636eb1769f60e11b81523060048201526001600160a01b03838116602483015284169063dd62ed3e9060440160206040518083038186803b158015611e1157600080fd5b505afa158015611e25573d6000803e3d6000fd5b505050506040513d601f19601f82011682018060405250810190611e4991906122bd565b155b611eb65760405162461bcd60e51b815260206004820152603660248201527f5361666545524332303a20617070726f76652066726f6d206e6f6e2d7a65726f60448201527520746f206e6f6e2d7a65726f20616c6c6f77616e636560501b606482015260840161060f565b6040516001600160a01b038316602482015260448101829052610ba590849063095ea7b360e01b9060640161193e565b6000611f3b826040518060400160405280602081526020017f5361666545524332303a206c6f772d6c6576656c2063616c6c206661696c6564815250856001600160a01b0316611fb89092919063ffffffff16565b805190915015610ba55780806020019051810190611f599190612285565b610ba55760405162461bcd60e51b815260206004820152602a60248201527f5361666545524332303a204552433230206f7065726174696f6e20646964206e6044820152691bdd081cdd58d8d9595960b21b606482015260840161060f565b6060611fc78484600085611fcf565b949350505050565b6060824710156120305760405162461bcd60e51b815260206004820152602660248201527f416464726573733a20696e73756666696369656e742062616c616e636520666f6044820152651c8818d85b1b60d21b606482015260840161060f565b843b61207e5760405162461bcd60e51b815260206004820152601d60248201527f416464726573733a2063616c6c20746f206e6f6e2d636f6e7472616374000000604482015260640161060f565b600080866001600160a01b0316858760405161209a9190612352565b60006040518083038185875af1925050503d80600081146120d7576040519150601f19603f3d011682016040523d82523d6000602084013e6120dc565b606091505b50915091506120ec8282866120f7565b979650505050505050565b60608315612106575081610ad0565b8251156121165782518084602001fd5b8160405162461bcd60e51b815260040161060f919061236e565b80356001600160a01b038116811461185b57600080fd5b600060208284031215612158578081fd5b610ad082612130565b60008060408385031215612173578081fd5b61217c83612130565b946020939093013593505050565b60008060006060848603121561219e578081fd5b6121a784612130565b9250602084013591506121bc60408501612130565b90509250925092565b600060208083850312156121d7578182fd5b825167ffffffffffffffff808211156121ee578384fd5b818501915085601f830112612201578384fd5b8151818111156122135761221361256b565b8060051b604051601f19603f830116810181811085821117156122385761223861256b565b604052828152858101935084860182860187018a1015612256578788fd5b8795505b8386101561227857805185526001959095019493860193860161225a565b5098975050505050505050565b600060208284031215612296578081fd5b81518015158114610ad0578182fd5b6000602082840312156122b6578081fd5b5035919050565b6000602082840312156122ce578081fd5b5051919050565b600080600080600060a086880312156122ec578081fd5b505083359560208501359550604085013594606081013594506080013592509050565b6000815180845260208085019450808401835b838110156123475781516001600160a01b031687529582019590820190600101612322565b509495945050505050565b60008251612364818460208701612529565b9190910192915050565b600060208252825180602084015261238d816040850160208701612529565b601f01601f19169190910160400192915050565b6020808252600b908201526a21676f7665726e616e636560a81b604082015260600190565b6020808252600b908201526a216f7065726174696f6e7360a81b604082015260600190565b6020808252818101527f4f776e61626c653a2063616c6c6572206973206e6f7420746865206f776e6572604082015260600190565b6020808252600c908201526b7a65726f206164647265737360a01b604082015260600190565b6020808252600690820152651c185d5cd95960d21b604082015260600190565b600083825260406020830152611fc7604083018461230f565b600086825285602083015260a0604083015261249e60a083018661230f565b6001600160a01b0394909416606083015250608001529392505050565b600082198211156124ce576124ce612555565b500190565b6000826124ee57634e487b7160e01b81526012600452602481fd5b500490565b600081600019048311821515161561250d5761250d612555565b500290565b60008282101561252457612524612555565b500390565b60005b8381101561254457818101518382015260200161252c565b838111156119755750506000910152565b634e487b7160e01b600052601160045260246000fd5b634e487b7160e01b600052604160045260246000fdfea164736f6c6343000803000a8be0079c531659141344cd1fd0a4f28419497f9722a3daafe3b4186f6b6457e0",
  "devdoc": {
    "details": "Implementation of the PancakeSwap Cake Strategy. This contract will compound Cake staking. The owner of the contract is the BalleMaster contract.",
    "kind": "dev",
    "methods": {
      "addHarvester(address)": {
        "details": "Add a harvester address."
      },
      "constructor": {
        "details": "Implementation of PancakeSwap Cake autocompounding strategy."
      },
      "deposit(address,uint256)": {
        "details": "Function to transfer tokens BalleMaster -> strategy and put it to work."
      },
      "harvest()": {
        "details": "Function to harvest earnings and reinvest."
      },
      "inCaseTokensGetStuck(address,uint256,address)": {
        "details": "Function to use from Governance Gnosis Safe multisig only in case tokens get stuck. This is to be used if someone, for example, sends tokens to the contract by mistake. There is no guarantee governance will vote to return these."
      },
      "owner()": {
        "details": "Returns the address of the current owner."
      },
      "panic()": {
        "details": "Stop the vault with emergencyWithdraw from farm."
      },
      "pause()": {
        "details": "Stop the vault."
      },
      "pendingEarnedToken()": {
        "details": "View function to see pending CAKEs on farm."
      },
      "removeHarvester(address)": {
        "details": "Remove a harvester address."
      },
      "renounceOwnership()": {
        "details": "Leaves the contract without owner. It will not be possible to call `onlyOwner` functions anymore. Can only be called by the current owner. NOTE: Renouncing ownership will leave the contract without an owner, thereby removing any functionality that is only available to the owner."
      },
      "retire()": {
        "details": "Retire the vault."
      },
      "setGovernance(address)": {
        "details": "Function to change the Governance Gnosis Safe multisig."
      },
      "setOperations(address)": {
        "details": "Function to change the Operations Gnosis Safe multisig."
      },
      "setRewards(address)": {
        "details": "Function to change the rewards address."
      },
      "setSettings(uint256,uint256,uint256,uint256,uint256)": {
        "details": "Function to change strategy settings."
      },
      "setTreasury(address)": {
        "details": "Function to change the treasury address."
      },
      "transferOwnership(address)": {
        "details": "Transfers ownership of the contract to a new account (`newOwner`). Can only be called by the current owner."
      },
      "unpause()": {
        "details": "Restart the vault."
      },
      "withdraw(address,uint256)": {
        "details": "Function to transfer tokens strategy -> BalleMaster."
      }
    },
    "version": 1
  },
  "userdoc": {
    "kind": "user",
    "methods": {},
    "version": 1
  },
  "storageLayout": {
    "storage": [
      {
        "astId": 7,
        "contract": "contracts/strategies/StratPancakeCakeV1.sol:StratPancakeCakeV1",
        "label": "_owner",
        "offset": 0,
        "slot": "0",
        "type": "t_address"
      },
      {
        "astId": 120,
        "contract": "contracts/strategies/StratPancakeCakeV1.sol:StratPancakeCakeV1",
        "label": "_status",
        "offset": 0,
        "slot": "1",
        "type": "t_uint256"
      },
      {
        "astId": 5944,
        "contract": "contracts/strategies/StratPancakeCakeV1.sol:StratPancakeCakeV1",
        "label": "rewards",
        "offset": 0,
        "slot": "2",
        "type": "t_address"
      },
      {
        "astId": 5946,
        "contract": "contracts/strategies/StratPancakeCakeV1.sol:StratPancakeCakeV1",
        "label": "treasury",
        "offset": 0,
        "slot": "3",
        "type": "t_address"
      },
      {
        "astId": 5948,
        "contract": "contracts/strategies/StratPancakeCakeV1.sol:StratPancakeCakeV1",
        "label": "governance",
        "offset": 0,
        "slot": "4",
        "type": "t_address"
      },
      {
        "astId": 5950,
        "contract": "contracts/strategies/StratPancakeCakeV1.sol:StratPancakeCakeV1",
        "label": "operations",
        "offset": 0,
        "slot": "5",
        "type": "t_address"
      },
      {
        "astId": 5954,
        "contract": "contracts/strategies/StratPancakeCakeV1.sol:StratPancakeCakeV1",
        "label": "harvesters",
        "offset": 0,
        "slot": "6",
        "type": "t_mapping(t_address,t_bool)"
      },
      {
        "astId": 5957,
        "contract": "contracts/strategies/StratPancakeCakeV1.sol:StratPancakeCakeV1",
        "label": "depositTotal",
        "offset": 0,
        "slot": "7",
        "type": "t_uint256"
      },
      {
        "astId": 5960,
        "contract": "contracts/strategies/StratPancakeCakeV1.sol:StratPancakeCakeV1",
        "label": "sharesTotal",
        "offset": 0,
        "slot": "8",
        "type": "t_uint256"
      },
      {
        "astId": 5963,
        "contract": "contracts/strategies/StratPancakeCakeV1.sol:StratPancakeCakeV1",
        "label": "entranceFee",
        "offset": 0,
        "slot": "9",
        "type": "t_uint256"
      },
      {
        "astId": 5972,
        "contract": "contracts/strategies/StratPancakeCakeV1.sol:StratPancakeCakeV1",
        "label": "performanceFee",
        "offset": 0,
        "slot": "10",
        "type": "t_uint256"
      },
      {
        "astId": 5981,
        "contract": "contracts/strategies/StratPancakeCakeV1.sol:StratPancakeCakeV1",
        "label": "rewardsFeeFactor",
        "offset": 0,
        "slot": "11",
        "type": "t_uint256"
      },
      {
        "astId": 5984,
        "contract": "contracts/strategies/StratPancakeCakeV1.sol:StratPancakeCakeV1",
        "label": "treasuryFeeFactor",
        "offset": 0,
        "slot": "12",
        "type": "t_uint256"
      },
      {
        "astId": 5990,
        "contract": "contracts/strategies/StratPancakeCakeV1.sol:StratPancakeCakeV1",
        "label": "slippage",
        "offset": 0,
        "slot": "13",
        "type": "t_uint256"
      },
      {
        "astId": 5996,
        "contract": "contracts/strategies/StratPancakeCakeV1.sol:StratPancakeCakeV1",
        "label": "earnedtokenToBallePath",
        "offset": 0,
        "slot": "14",
        "type": "t_array(t_address)dyn_storage"
      },
      {
        "astId": 5999,
        "contract": "contracts/strategies/StratPancakeCakeV1.sol:StratPancakeCakeV1",
        "label": "paused",
        "offset": 0,
        "slot": "15",
        "type": "t_bool"
      }
    ],
    "types": {
      "t_address": {
        "encoding": "inplace",
        "label": "address",
        "numberOfBytes": "20"
      },
      "t_array(t_address)dyn_storage": {
        "base": "t_address",
        "encoding": "dynamic_array",
        "label": "address[]",
        "numberOfBytes": "32"
      },
      "t_bool": {
        "encoding": "inplace",
        "label": "bool",
        "numberOfBytes": "1"
      },
      "t_mapping(t_address,t_bool)": {
        "encoding": "mapping",
        "key": "t_address",
        "label": "mapping(address => bool)",
        "numberOfBytes": "32",
        "value": "t_bool"
      },
      "t_uint256": {
        "encoding": "inplace",
        "label": "uint256",
        "numberOfBytes": "32"
      }
    }
  }
}