{
  "address": "0x033105650F555D65108671Ee4367D7B0303fe407",
  "abi": [
    {
      "inputs": [
        {
          "internalType": "address",
          "name": "_depositToken",
          "type": "address"
        },
        {
          "internalType": "address",
          "name": "_balleMaster",
          "type": "address"
        }
      ],
      "stateMutability": "nonpayable",
      "type": "constructor"
    },
    {
      "anonymous": false,
      "inputs": [
        {
          "indexed": true,
          "internalType": "address",
          "name": "previousOwner",
          "type": "address"
        },
        {
          "indexed": true,
          "internalType": "address",
          "name": "newOwner",
          "type": "address"
        }
      ],
      "name": "OwnershipTransferred",
      "type": "event"
    },
    {
      "anonymous": false,
      "inputs": [
        {
          "indexed": true,
          "internalType": "address",
          "name": "addr",
          "type": "address"
        }
      ],
      "name": "SetGovernance",
      "type": "event"
    },
    {
      "inputs": [
        {
          "internalType": "address",
          "name": "_user",
          "type": "address"
        },
        {
          "internalType": "uint256",
          "name": "_amount",
          "type": "uint256"
        }
      ],
      "name": "deposit",
      "outputs": [
        {
          "internalType": "uint256",
          "name": "",
          "type": "uint256"
        }
      ],
      "stateMutability": "nonpayable",
      "type": "function"
    },
    {
      "inputs": [],
      "name": "depositToken",
      "outputs": [
        {
          "internalType": "address",
          "name": "",
          "type": "address"
        }
      ],
      "stateMutability": "view",
      "type": "function"
    },
    {
      "inputs": [],
      "name": "depositTotal",
      "outputs": [
        {
          "internalType": "uint256",
          "name": "",
          "type": "uint256"
        }
      ],
      "stateMutability": "view",
      "type": "function"
    },
    {
      "inputs": [],
      "name": "governance",
      "outputs": [
        {
          "internalType": "address",
          "name": "",
          "type": "address"
        }
      ],
      "stateMutability": "view",
      "type": "function"
    },
    {
      "inputs": [
        {
          "internalType": "address",
          "name": "_token",
          "type": "address"
        },
        {
          "internalType": "uint256",
          "name": "_amount",
          "type": "uint256"
        },
        {
          "internalType": "address",
          "name": "_to",
          "type": "address"
        }
      ],
      "name": "inCaseTokensGetStuck",
      "outputs": [],
      "stateMutability": "nonpayable",
      "type": "function"
    },
    {
      "inputs": [],
      "name": "operations",
      "outputs": [
        {
          "internalType": "address",
          "name": "",
          "type": "address"
        }
      ],
      "stateMutability": "view",
      "type": "function"
    },
    {
      "inputs": [],
      "name": "owner",
      "outputs": [
        {
          "internalType": "address",
          "name": "",
          "type": "address"
        }
      ],
      "stateMutability": "view",
      "type": "function"
    },
    {
      "inputs": [],
      "name": "panic",
      "outputs": [],
      "stateMutability": "nonpayable",
      "type": "function"
    },
    {
      "inputs": [],
      "name": "pause",
      "outputs": [],
      "stateMutability": "nonpayable",
      "type": "function"
    },
    {
      "inputs": [],
      "name": "paused",
      "outputs": [
        {
          "internalType": "bool",
          "name": "",
          "type": "bool"
        }
      ],
      "stateMutability": "view",
      "type": "function"
    },
    {
      "inputs": [],
      "name": "renounceOwnership",
      "outputs": [],
      "stateMutability": "nonpayable",
      "type": "function"
    },
    {
      "inputs": [],
      "name": "retire",
      "outputs": [],
      "stateMutability": "nonpayable",
      "type": "function"
    },
    {
      "inputs": [
        {
          "internalType": "address",
          "name": "_governance",
          "type": "address"
        }
      ],
      "name": "setGovernance",
      "outputs": [],
      "stateMutability": "nonpayable",
      "type": "function"
    },
    {
      "inputs": [],
      "name": "sharesTotal",
      "outputs": [
        {
          "internalType": "uint256",
          "name": "",
          "type": "uint256"
        }
      ],
      "stateMutability": "view",
      "type": "function"
    },
    {
      "inputs": [
        {
          "internalType": "address",
          "name": "newOwner",
          "type": "address"
        }
      ],
      "name": "transferOwnership",
      "outputs": [],
      "stateMutability": "nonpayable",
      "type": "function"
    },
    {
      "inputs": [],
      "name": "unpause",
      "outputs": [],
      "stateMutability": "nonpayable",
      "type": "function"
    },
    {
      "inputs": [
        {
          "internalType": "address",
          "name": "_user",
          "type": "address"
        },
        {
          "internalType": "uint256",
          "name": "_amount",
          "type": "uint256"
        }
      ],
      "name": "withdraw",
      "outputs": [
        {
          "internalType": "uint256",
          "name": "",
          "type": "uint256"
        },
        {
          "internalType": "uint256",
          "name": "",
          "type": "uint256"
        }
      ],
      "stateMutability": "nonpayable",
      "type": "function"
    }
  ],
  "transactionHash": "0x06b888fa9928a249ecd95fab54a0ba34eccec0fa889ba9ac30c420c09ab9854f",
  "args": [
    "0x29089e9BdD77ac719Bcb94d6eE1ee34F2fEe8cf8",
    "0x943e160E966e35F15c8D964e1FE05E37867D5671"
  ],
  "solcInputHash": "f1a15387256f414ba0219f36d122161e",
  "bytecode": "0x60a0604052600060048190556005556006805460ff191690553480156200002557600080fd5b50604051620011ed380380620011ed833981016040819052620000489162000270565b600080546001600160a01b03191633908117825560405190918291600080516020620011cd833981519152908290a350600180556001600160a01b038216620000c85760405162461bcd60e51b815260206004820152600d60248201526c10b232b837b9b4ba2a37b5b2b760991b60448201526064015b60405180910390fd5b6001600160a01b0381166200010f5760405162461bcd60e51b815260206004820152600c60248201526b10b130b63632a6b0b9ba32b960a11b6044820152606401620000bf565b6001600160601b0319606083901b16608052600280546001600160a01b031916331790556200013e8162000146565b5050620002a7565b6000546001600160a01b03163314620001a25760405162461bcd60e51b815260206004820181905260248201527f4f776e61626c653a2063616c6c6572206973206e6f7420746865206f776e65726044820152606401620000bf565b6001600160a01b038116620002095760405162461bcd60e51b815260206004820152602660248201527f4f776e61626c653a206e6577206f776e657220697320746865207a65726f206160448201526564647265737360d01b6064820152608401620000bf565b600080546040516001600160a01b0380851693921691600080516020620011cd83398151915291a3600080546001600160a01b0319166001600160a01b0392909216919091179055565b80516001600160a01b03811681146200026b57600080fd5b919050565b6000806040838503121562000283578182fd5b6200028e8362000253565b91506200029e6020840162000253565b90509250929050565b60805160601c610eeb620002e2600039600081816102010152818161045901528181610517015281816108f301526109b10152610eeb6000f3fe608060405234801561001057600080fd5b506004361061010b5760003560e01c8063715018a6116100a2578063a4874d7711610071578063a4874d77146101e1578063ab033ea9146101e9578063c89039c5146101fc578063f2fde38b14610223578063f3fef3a3146102365761010b565b8063715018a6146101b55780638456cb59146101365780638b33b4b2146101bd5780638da5cb5b146101d05761010b565b80634adae0da116100de5780634adae0da146101515780635aa6e6751461015a5780635c975abb1461018557806367206d40146101a25761010b565b80633f4ba83a1461011057806344a3955e1461011a5780634700d3051461013657806347e7ef241461013e575b600080fd5b61011861025e565b005b61012360055481565b6040519081526020015b60405180910390f35b6101186102d9565b61012361014c366004610d0e565b61034e565b61012360045481565b60025461016d906001600160a01b031681565b6040516001600160a01b03909116815260200161012d565b6006546101929060ff1681565b604051901515815260200161012d565b6101186101b0366004610d37565b610488565b610118610598565b60035461016d906001600160a01b031681565b6000546001600160a01b031661016d565b61011861060c565b6101186101f7366004610cf4565b610636565b61016d7f000000000000000000000000000000000000000000000000000000000000000081565b610118610231366004610cf4565b61070d565b610249610244366004610d0e565b6107f7565b6040805192835260208301919091520161012d565b6000546001600160a01b031633146102915760405162461bcd60e51b815260040161028890610df9565b60405180910390fd5b60065460ff166102cd5760405162461bcd60e51b8152602060048201526007602482015266085c185d5cd95960ca1b6044820152606401610288565b6006805460ff19169055565b6000546001600160a01b031633146103035760405162461bcd60e51b815260040161028890610df9565b60065460ff161561033f5760405162461bcd60e51b81526020600482015260066024820152651c185d5cd95960d21b6044820152606401610288565b6006805460ff19166001179055565b600080546001600160a01b031633146103795760405162461bcd60e51b815260040161028890610df9565b60065460ff16156103b55760405162461bcd60e51b81526020600482015260066024820152651c185d5cd95960d21b6044820152606401610288565b6001600160a01b0383166103f35760405162461bcd60e51b815260206004820152600560248201526410bab9b2b960d91b6044820152606401610288565b60045482901580159061040857506000600554115b1561042a5760045460055461041d9085610e66565b6104279190610e46565b90505b806005546104389190610e2e565b600555600454610449908490610e2e565b6004556104816001600160a01b037f0000000000000000000000000000000000000000000000000000000000000000163330866109e1565b9392505050565b6002546001600160a01b031633146104d05760405162461bcd60e51b815260206004820152600b60248201526a21676f7665726e616e636560a81b6044820152606401610288565b6001600160a01b0381166105155760405162461bcd60e51b815260206004820152600c60248201526b7a65726f206164647265737360a01b6044820152606401610288565b7f00000000000000000000000000000000000000000000000000000000000000006001600160a01b0316836001600160a01b0316141561057f5760405162461bcd60e51b8152602060048201526005602482015264217361666560d81b6044820152606401610288565b6105936001600160a01b0384168284610a52565b505050565b6000546001600160a01b031633146105c25760405162461bcd60e51b815260040161028890610df9565b600080546040516001600160a01b03909116907f8be0079c531659141344cd1fd0a4f28419497f9722a3daafe3b4186f6b6457e0908390a3600080546001600160a01b0319169055565b6000546001600160a01b0316331461033f5760405162461bcd60e51b815260040161028890610df9565b6002546001600160a01b0316331461067e5760405162461bcd60e51b815260206004820152600b60248201526a21676f7665726e616e636560a81b6044820152606401610288565b6001600160a01b0381166106c35760405162461bcd60e51b815260206004820152600c60248201526b7a65726f206164647265737360a01b6044820152606401610288565b600280546001600160a01b0319166001600160a01b0383169081179091556040517f24a8c4807b324a269a51827c3446b8ac1cc13810d7d0c0ca1efafabddd7b621990600090a250565b6000546001600160a01b031633146107375760405162461bcd60e51b815260040161028890610df9565b6001600160a01b03811661079c5760405162461bcd60e51b815260206004820152602660248201527f4f776e61626c653a206e6577206f776e657220697320746865207a65726f206160448201526564647265737360d01b6064820152608401610288565b600080546040516001600160a01b03808516939216917f8be0079c531659141344cd1fd0a4f28419497f9722a3daafe3b4186f6b6457e091a3600080546001600160a01b0319166001600160a01b0392909216919091179055565b6000805481906001600160a01b031633146108245760405162461bcd60e51b815260040161028890610df9565b6001600160a01b0384166108625760405162461bcd60e51b815260206004820152600560248201526410bab9b2b960d91b6044820152606401610288565b6000831161089c5760405162461bcd60e51b815260206004820152600760248201526608585b5bdd5b9d60ca1b6044820152606401610288565b6000600454600554856108af9190610e66565b6108b99190610e46565b90506005548111156108ca57506005545b806005546108d89190610e85565b6005556040516370a0823160e01b81523060048201526000907f00000000000000000000000000000000000000000000000000000000000000006001600160a01b0316906370a082319060240160206040518083038186803b15801561093d57600080fd5b505afa158015610951573d6000803e3d6000fd5b505050506040513d601f19601f820116820180604052508101906109759190610d92565b905080851115610983578094505b8460045410156109935760045494505b846004546109a19190610e85565b6004556109d86001600160a01b037f0000000000000000000000000000000000000000000000000000000000000000163387610a52565b50949293505050565b6040516001600160a01b0380851660248301528316604482015260648101829052610a4c9085906323b872dd60e01b906084015b60408051601f198184030181529190526020810180516001600160e01b03166001600160e01b031990931692909217909152610a82565b50505050565b6040516001600160a01b03831660248201526044810182905261059390849063a9059cbb60e01b90606401610a15565b6000610ad7826040518060400160405280602081526020017f5361666545524332303a206c6f772d6c6576656c2063616c6c206661696c6564815250856001600160a01b0316610b549092919063ffffffff16565b8051909150156105935780806020019051810190610af59190610d72565b6105935760405162461bcd60e51b815260206004820152602a60248201527f5361666545524332303a204552433230206f7065726174696f6e20646964206e6044820152691bdd081cdd58d8d9595960b21b6064820152608401610288565b6060610b638484600085610b6b565b949350505050565b606082471015610bcc5760405162461bcd60e51b815260206004820152602660248201527f416464726573733a20696e73756666696369656e742062616c616e636520666f6044820152651c8818d85b1b60d21b6064820152608401610288565b610bd585610c9a565b610c215760405162461bcd60e51b815260206004820152601d60248201527f416464726573733a2063616c6c20746f206e6f6e2d636f6e74726163740000006044820152606401610288565b600080866001600160a01b03168587604051610c3d9190610daa565b60006040518083038185875af1925050503d8060008114610c7a576040519150601f19603f3d011682016040523d82523d6000602084013e610c7f565b606091505b5091509150610c8f828286610ca4565b979650505050505050565b803b15155b919050565b60608315610cb3575081610481565b825115610cc35782518084602001fd5b8160405162461bcd60e51b81526004016102889190610dc6565b80356001600160a01b0381168114610c9f57600080fd5b600060208284031215610d05578081fd5b61048182610cdd565b60008060408385031215610d20578081fd5b610d2983610cdd565b946020939093013593505050565b600080600060608486031215610d4b578081fd5b610d5484610cdd565b925060208401359150610d6960408501610cdd565b90509250925092565b600060208284031215610d83578081fd5b81518015158114610481578182fd5b600060208284031215610da3578081fd5b5051919050565b60008251610dbc818460208701610e9c565b9190910192915050565b6000602082528251806020840152610de5816040850160208701610e9c565b601f01601f19169190910160400192915050565b6020808252818101527f4f776e61626c653a2063616c6c6572206973206e6f7420746865206f776e6572604082015260600190565b60008219821115610e4157610e41610ec8565b500190565b600082610e6157634e487b7160e01b81526012600452602481fd5b500490565b6000816000190483118215151615610e8057610e80610ec8565b500290565b600082821015610e9757610e97610ec8565b500390565b60005b83811015610eb7578181015183820152602001610e9f565b83811115610a4c5750506000910152565b634e487b7160e01b600052601160045260246000fdfea164736f6c6343000803000a8be0079c531659141344cd1fd0a4f28419497f9722a3daafe3b4186f6b6457e0",
  "devdoc": {
    "details": "Implementation of the BALLE LP Strategy. This contract will hold BALLE LP Tokens on vault. The owner of the contract is the BalleMaster contract.",
    "kind": "dev",
    "methods": {
      "constructor": {
        "details": "Implementation of BALLE LP strategy."
      },
      "deposit(address,uint256)": {
        "details": "Function to transfer tokens BalleMaster -> strategy."
      },
      "inCaseTokensGetStuck(address,uint256,address)": {
        "details": "Function to use from Governance Gnosis Safe multisig only in case tokens get stuck. This is to be used if someone, for example, sends tokens to the contract by mistake. There is no guarantee governance will vote to return these."
      },
      "owner()": {
        "details": "Returns the address of the current owner."
      },
      "panic()": {
        "details": "Stop the vault."
      },
      "pause()": {
        "details": "Stop the vault."
      },
      "renounceOwnership()": {
        "details": "Leaves the contract without owner. It will not be possible to call `onlyOwner` functions anymore. Can only be called by the current owner. NOTE: Renouncing ownership will leave the contract without an owner, thereby removing any functionality that is only available to the owner."
      },
      "retire()": {
        "details": "Retire the vault."
      },
      "setGovernance(address)": {
        "details": "Function to change the Governance Gnosis Safe multisig."
      },
      "transferOwnership(address)": {
        "details": "Transfers ownership of the contract to a new account (`newOwner`). Can only be called by the current owner."
      },
      "unpause()": {
        "details": "Restart the vault."
      },
      "withdraw(address,uint256)": {
        "details": "Function to transfer tokens strategy -> BalleMaster."
      }
    },
    "version": 1
  },
  "userdoc": {
    "kind": "user",
    "methods": {},
    "version": 1
  },
  "storageLayout": {
    "storage": [
      {
        "astId": 7,
        "contract": "contracts/strategies/StratBalleLpV1.sol:StratBalleLpV1",
        "label": "_owner",
        "offset": 0,
        "slot": "0",
        "type": "t_address"
      },
      {
        "astId": 120,
        "contract": "contracts/strategies/StratBalleLpV1.sol:StratBalleLpV1",
        "label": "_status",
        "offset": 0,
        "slot": "1",
        "type": "t_uint256"
      },
      {
        "astId": 5938,
        "contract": "contracts/strategies/StratBalleLpV1.sol:StratBalleLpV1",
        "label": "governance",
        "offset": 0,
        "slot": "2",
        "type": "t_address"
      },
      {
        "astId": 5940,
        "contract": "contracts/strategies/StratBalleLpV1.sol:StratBalleLpV1",
        "label": "operations",
        "offset": 0,
        "slot": "3",
        "type": "t_address"
      },
      {
        "astId": 5943,
        "contract": "contracts/strategies/StratBalleLpV1.sol:StratBalleLpV1",
        "label": "depositTotal",
        "offset": 0,
        "slot": "4",
        "type": "t_uint256"
      },
      {
        "astId": 5946,
        "contract": "contracts/strategies/StratBalleLpV1.sol:StratBalleLpV1",
        "label": "sharesTotal",
        "offset": 0,
        "slot": "5",
        "type": "t_uint256"
      },
      {
        "astId": 5949,
        "contract": "contracts/strategies/StratBalleLpV1.sol:StratBalleLpV1",
        "label": "paused",
        "offset": 0,
        "slot": "6",
        "type": "t_bool"
      }
    ],
    "types": {
      "t_address": {
        "encoding": "inplace",
        "label": "address",
        "numberOfBytes": "20"
      },
      "t_bool": {
        "encoding": "inplace",
        "label": "bool",
        "numberOfBytes": "1"
      },
      "t_uint256": {
        "encoding": "inplace",
        "label": "uint256",
        "numberOfBytes": "32"
      }
    }
  }
}