{
  "address": "0x4aB8BFA91bb5f0F177dC151237C20450dc148B3e",
  "abi": [
    {
      "inputs": [
        {
          "internalType": "address[]",
          "name": "_addresses",
          "type": "address[]"
        },
        {
          "internalType": "uint256",
          "name": "_pid",
          "type": "uint256"
        },
        {
          "internalType": "address[]",
          "name": "_earnedtokenToBallePath",
          "type": "address[]"
        },
        {
          "internalType": "address[]",
          "name": "_earnedtokenToToken0Path",
          "type": "address[]"
        },
        {
          "internalType": "address[]",
          "name": "_earnedtokenToToken1Path",
          "type": "address[]"
        }
      ],
      "stateMutability": "nonpayable",
      "type": "constructor"
    },
    {
      "anonymous": false,
      "inputs": [
        {
          "indexed": false,
          "internalType": "uint256",
          "name": "rewardsAmount",
          "type": "uint256"
        },
        {
          "indexed": false,
          "internalType": "uint256",
          "name": "treasuryAmount",
          "type": "uint256"
        }
      ],
      "name": "DistributeFees",
      "type": "event"
    },
    {
      "anonymous": false,
      "inputs": [
        {
          "indexed": false,
          "internalType": "uint256",
          "name": "amount",
          "type": "uint256"
        }
      ],
      "name": "Harvest",
      "type": "event"
    },
    {
      "anonymous": false,
      "inputs": [
        {
          "indexed": true,
          "internalType": "address",
          "name": "previousOwner",
          "type": "address"
        },
        {
          "indexed": true,
          "internalType": "address",
          "name": "newOwner",
          "type": "address"
        }
      ],
      "name": "OwnershipTransferred",
      "type": "event"
    },
    {
      "anonymous": false,
      "inputs": [
        {
          "indexed": true,
          "internalType": "address",
          "name": "addr",
          "type": "address"
        }
      ],
      "name": "SetGovernance",
      "type": "event"
    },
    {
      "anonymous": false,
      "inputs": [
        {
          "indexed": false,
          "internalType": "uint256",
          "name": "entranceFee",
          "type": "uint256"
        },
        {
          "indexed": false,
          "internalType": "uint256",
          "name": "performanceFee",
          "type": "uint256"
        },
        {
          "indexed": false,
          "internalType": "uint256",
          "name": "rewardsFeeFactor",
          "type": "uint256"
        },
        {
          "indexed": false,
          "internalType": "uint256",
          "name": "treasuryFeeFactor",
          "type": "uint256"
        },
        {
          "indexed": false,
          "internalType": "uint256",
          "name": "slippage",
          "type": "uint256"
        },
        {
          "indexed": false,
          "internalType": "uint256",
          "name": "minEarnedToReinvest",
          "type": "uint256"
        }
      ],
      "name": "SetSettings",
      "type": "event"
    },
    {
      "inputs": [],
      "name": "ENTRANCE_FEE_LL",
      "outputs": [
        {
          "internalType": "uint256",
          "name": "",
          "type": "uint256"
        }
      ],
      "stateMutability": "view",
      "type": "function"
    },
    {
      "inputs": [],
      "name": "ENTRANCE_FEE_MAX",
      "outputs": [
        {
          "internalType": "uint256",
          "name": "",
          "type": "uint256"
        }
      ],
      "stateMutability": "view",
      "type": "function"
    },
    {
      "inputs": [],
      "name": "FEE_FACTOR_MAX",
      "outputs": [
        {
          "internalType": "uint256",
          "name": "",
          "type": "uint256"
        }
      ],
      "stateMutability": "view",
      "type": "function"
    },
    {
      "inputs": [],
      "name": "MIN_EARNED_TO_REINVEST_LL",
      "outputs": [
        {
          "internalType": "uint256",
          "name": "",
          "type": "uint256"
        }
      ],
      "stateMutability": "view",
      "type": "function"
    },
    {
      "inputs": [],
      "name": "MIN_EARNED_TO_REINVEST_UL",
      "outputs": [
        {
          "internalType": "uint256",
          "name": "",
          "type": "uint256"
        }
      ],
      "stateMutability": "view",
      "type": "function"
    },
    {
      "inputs": [],
      "name": "PERFORMANCE_FEE_MAX",
      "outputs": [
        {
          "internalType": "uint256",
          "name": "",
          "type": "uint256"
        }
      ],
      "stateMutability": "view",
      "type": "function"
    },
    {
      "inputs": [],
      "name": "PERFORMANCE_FEE_UL",
      "outputs": [
        {
          "internalType": "uint256",
          "name": "",
          "type": "uint256"
        }
      ],
      "stateMutability": "view",
      "type": "function"
    },
    {
      "inputs": [],
      "name": "SLIPPAGE_UL",
      "outputs": [
        {
          "internalType": "uint256",
          "name": "",
          "type": "uint256"
        }
      ],
      "stateMutability": "view",
      "type": "function"
    },
    {
      "inputs": [
        {
          "internalType": "address",
          "name": "_harvester",
          "type": "address"
        }
      ],
      "name": "addHarvester",
      "outputs": [],
      "stateMutability": "nonpayable",
      "type": "function"
    },
    {
      "inputs": [
        {
          "internalType": "address",
          "name": "_user",
          "type": "address"
        },
        {
          "internalType": "uint256",
          "name": "_amount",
          "type": "uint256"
        }
      ],
      "name": "deposit",
      "outputs": [
        {
          "internalType": "uint256",
          "name": "",
          "type": "uint256"
        }
      ],
      "stateMutability": "nonpayable",
      "type": "function"
    },
    {
      "inputs": [],
      "name": "depositToken",
      "outputs": [
        {
          "internalType": "address",
          "name": "",
          "type": "address"
        }
      ],
      "stateMutability": "view",
      "type": "function"
    },
    {
      "inputs": [],
      "name": "depositTotal",
      "outputs": [
        {
          "internalType": "uint256",
          "name": "",
          "type": "uint256"
        }
      ],
      "stateMutability": "view",
      "type": "function"
    },
    {
      "inputs": [],
      "name": "earnedtoken",
      "outputs": [
        {
          "internalType": "address",
          "name": "",
          "type": "address"
        }
      ],
      "stateMutability": "view",
      "type": "function"
    },
    {
      "inputs": [
        {
          "internalType": "uint256",
          "name": "",
          "type": "uint256"
        }
      ],
      "name": "earnedtokenToBallePath",
      "outputs": [
        {
          "internalType": "address",
          "name": "",
          "type": "address"
        }
      ],
      "stateMutability": "view",
      "type": "function"
    },
    {
      "inputs": [
        {
          "internalType": "uint256",
          "name": "",
          "type": "uint256"
        }
      ],
      "name": "earnedtokenToToken0Path",
      "outputs": [
        {
          "internalType": "address",
          "name": "",
          "type": "address"
        }
      ],
      "stateMutability": "view",
      "type": "function"
    },
    {
      "inputs": [
        {
          "internalType": "uint256",
          "name": "",
          "type": "uint256"
        }
      ],
      "name": "earnedtokenToToken1Path",
      "outputs": [
        {
          "internalType": "address",
          "name": "",
          "type": "address"
        }
      ],
      "stateMutability": "view",
      "type": "function"
    },
    {
      "inputs": [],
      "name": "entranceFee",
      "outputs": [
        {
          "internalType": "uint256",
          "name": "",
          "type": "uint256"
        }
      ],
      "stateMutability": "view",
      "type": "function"
    },
    {
      "inputs": [],
      "name": "governance",
      "outputs": [
        {
          "internalType": "address",
          "name": "",
          "type": "address"
        }
      ],
      "stateMutability": "view",
      "type": "function"
    },
    {
      "inputs": [],
      "name": "harvest",
      "outputs": [],
      "stateMutability": "nonpayable",
      "type": "function"
    },
    {
      "inputs": [
        {
          "internalType": "address",
          "name": "",
          "type": "address"
        }
      ],
      "name": "harvesters",
      "outputs": [
        {
          "internalType": "bool",
          "name": "",
          "type": "bool"
        }
      ],
      "stateMutability": "view",
      "type": "function"
    },
    {
      "inputs": [
        {
          "internalType": "address",
          "name": "_token",
          "type": "address"
        },
        {
          "internalType": "uint256",
          "name": "_amount",
          "type": "uint256"
        },
        {
          "internalType": "address",
          "name": "_to",
          "type": "address"
        }
      ],
      "name": "inCaseTokensGetStuck",
      "outputs": [],
      "stateMutability": "nonpayable",
      "type": "function"
    },
    {
      "inputs": [],
      "name": "masterChef",
      "outputs": [
        {
          "internalType": "address",
          "name": "",
          "type": "address"
        }
      ],
      "stateMutability": "view",
      "type": "function"
    },
    {
      "inputs": [],
      "name": "minEarnedToReinvest",
      "outputs": [
        {
          "internalType": "uint256",
          "name": "",
          "type": "uint256"
        }
      ],
      "stateMutability": "view",
      "type": "function"
    },
    {
      "inputs": [],
      "name": "operations",
      "outputs": [
        {
          "internalType": "address",
          "name": "",
          "type": "address"
        }
      ],
      "stateMutability": "view",
      "type": "function"
    },
    {
      "inputs": [],
      "name": "owner",
      "outputs": [
        {
          "internalType": "address",
          "name": "",
          "type": "address"
        }
      ],
      "stateMutability": "view",
      "type": "function"
    },
    {
      "inputs": [],
      "name": "panic",
      "outputs": [],
      "stateMutability": "nonpayable",
      "type": "function"
    },
    {
      "inputs": [],
      "name": "pause",
      "outputs": [],
      "stateMutability": "nonpayable",
      "type": "function"
    },
    {
      "inputs": [],
      "name": "paused",
      "outputs": [
        {
          "internalType": "bool",
          "name": "",
          "type": "bool"
        }
      ],
      "stateMutability": "view",
      "type": "function"
    },
    {
      "inputs": [],
      "name": "pendingEarnedToken",
      "outputs": [
        {
          "internalType": "uint256",
          "name": "",
          "type": "uint256"
        }
      ],
      "stateMutability": "view",
      "type": "function"
    },
    {
      "inputs": [],
      "name": "performanceFee",
      "outputs": [
        {
          "internalType": "uint256",
          "name": "",
          "type": "uint256"
        }
      ],
      "stateMutability": "view",
      "type": "function"
    },
    {
      "inputs": [],
      "name": "pid",
      "outputs": [
        {
          "internalType": "uint256",
          "name": "",
          "type": "uint256"
        }
      ],
      "stateMutability": "view",
      "type": "function"
    },
    {
      "inputs": [
        {
          "internalType": "address",
          "name": "_harvester",
          "type": "address"
        }
      ],
      "name": "removeHarvester",
      "outputs": [],
      "stateMutability": "nonpayable",
      "type": "function"
    },
    {
      "inputs": [],
      "name": "renounceOwnership",
      "outputs": [],
      "stateMutability": "nonpayable",
      "type": "function"
    },
    {
      "inputs": [],
      "name": "retire",
      "outputs": [],
      "stateMutability": "nonpayable",
      "type": "function"
    },
    {
      "inputs": [],
      "name": "rewards",
      "outputs": [
        {
          "internalType": "address",
          "name": "",
          "type": "address"
        }
      ],
      "stateMutability": "view",
      "type": "function"
    },
    {
      "inputs": [],
      "name": "rewardsFeeFactor",
      "outputs": [
        {
          "internalType": "uint256",
          "name": "",
          "type": "uint256"
        }
      ],
      "stateMutability": "view",
      "type": "function"
    },
    {
      "inputs": [],
      "name": "router",
      "outputs": [
        {
          "internalType": "address",
          "name": "",
          "type": "address"
        }
      ],
      "stateMutability": "view",
      "type": "function"
    },
    {
      "inputs": [
        {
          "internalType": "address",
          "name": "_governance",
          "type": "address"
        }
      ],
      "name": "setGovernance",
      "outputs": [],
      "stateMutability": "nonpayable",
      "type": "function"
    },
    {
      "inputs": [
        {
          "internalType": "address",
          "name": "_operations",
          "type": "address"
        }
      ],
      "name": "setOperations",
      "outputs": [],
      "stateMutability": "nonpayable",
      "type": "function"
    },
    {
      "inputs": [
        {
          "internalType": "address",
          "name": "_rewards",
          "type": "address"
        }
      ],
      "name": "setRewards",
      "outputs": [],
      "stateMutability": "nonpayable",
      "type": "function"
    },
    {
      "inputs": [
        {
          "internalType": "uint256",
          "name": "_entranceFee",
          "type": "uint256"
        },
        {
          "internalType": "uint256",
          "name": "_performanceFee",
          "type": "uint256"
        },
        {
          "internalType": "uint256",
          "name": "_rewardsFeeFactor",
          "type": "uint256"
        },
        {
          "internalType": "uint256",
          "name": "_treasuryFeeFactor",
          "type": "uint256"
        },
        {
          "internalType": "uint256",
          "name": "_slippage",
          "type": "uint256"
        },
        {
          "internalType": "uint256",
          "name": "_minEarnedToReinvest",
          "type": "uint256"
        }
      ],
      "name": "setSettings",
      "outputs": [],
      "stateMutability": "nonpayable",
      "type": "function"
    },
    {
      "inputs": [
        {
          "internalType": "address",
          "name": "_treasury",
          "type": "address"
        }
      ],
      "name": "setTreasury",
      "outputs": [],
      "stateMutability": "nonpayable",
      "type": "function"
    },
    {
      "inputs": [],
      "name": "sharesTotal",
      "outputs": [
        {
          "internalType": "uint256",
          "name": "",
          "type": "uint256"
        }
      ],
      "stateMutability": "view",
      "type": "function"
    },
    {
      "inputs": [],
      "name": "slippage",
      "outputs": [
        {
          "internalType": "uint256",
          "name": "",
          "type": "uint256"
        }
      ],
      "stateMutability": "view",
      "type": "function"
    },
    {
      "inputs": [],
      "name": "token0",
      "outputs": [
        {
          "internalType": "address",
          "name": "",
          "type": "address"
        }
      ],
      "stateMutability": "view",
      "type": "function"
    },
    {
      "inputs": [],
      "name": "token1",
      "outputs": [
        {
          "internalType": "address",
          "name": "",
          "type": "address"
        }
      ],
      "stateMutability": "view",
      "type": "function"
    },
    {
      "inputs": [
        {
          "internalType": "address",
          "name": "newOwner",
          "type": "address"
        }
      ],
      "name": "transferOwnership",
      "outputs": [],
      "stateMutability": "nonpayable",
      "type": "function"
    },
    {
      "inputs": [],
      "name": "treasury",
      "outputs": [
        {
          "internalType": "address",
          "name": "",
          "type": "address"
        }
      ],
      "stateMutability": "view",
      "type": "function"
    },
    {
      "inputs": [],
      "name": "treasuryFeeFactor",
      "outputs": [
        {
          "internalType": "uint256",
          "name": "",
          "type": "uint256"
        }
      ],
      "stateMutability": "view",
      "type": "function"
    },
    {
      "inputs": [],
      "name": "unpause",
      "outputs": [],
      "stateMutability": "nonpayable",
      "type": "function"
    },
    {
      "inputs": [
        {
          "internalType": "address",
          "name": "_strat",
          "type": "address"
        },
        {
          "internalType": "uint256",
          "name": "_sharesTotal",
          "type": "uint256"
        },
        {
          "internalType": "uint256",
          "name": "_depositAmt",
          "type": "uint256"
        },
        {
          "internalType": "uint256",
          "name": "_earnedAmt",
          "type": "uint256"
        }
      ],
      "name": "upgradeFrom",
      "outputs": [],
      "stateMutability": "nonpayable",
      "type": "function"
    },
    {
      "inputs": [
        {
          "internalType": "address",
          "name": "_strat",
          "type": "address"
        }
      ],
      "name": "upgradeTo",
      "outputs": [
        {
          "internalType": "uint256",
          "name": "",
          "type": "uint256"
        },
        {
          "internalType": "uint256",
          "name": "",
          "type": "uint256"
        },
        {
          "internalType": "uint256",
          "name": "",
          "type": "uint256"
        }
      ],
      "stateMutability": "nonpayable",
      "type": "function"
    },
    {
      "inputs": [
        {
          "internalType": "address",
          "name": "_user",
          "type": "address"
        },
        {
          "internalType": "uint256",
          "name": "_amount",
          "type": "uint256"
        }
      ],
      "name": "withdraw",
      "outputs": [
        {
          "internalType": "uint256",
          "name": "",
          "type": "uint256"
        },
        {
          "internalType": "uint256",
          "name": "",
          "type": "uint256"
        }
      ],
      "stateMutability": "nonpayable",
      "type": "function"
    }
  ],
  "transactionHash": "0xab13f403721a795c496260d19be42468332ed1db605b84277a4c3eb28e0e9f35",
  "args": [
    [
      "0x3edd0c7cec29179d45431471e413be197fb31446",
      "0xae13d989dac2f0debff460ac112a837c89baa7cd",
      "0xac9b54f806af4b9451f1faa5293601d5006348ad",
      "0xa6D6240e5d5b6232996D58B6b3C4555c824deA73",
      "0x9ac64cc6e4415144c455bd8e4837fea55603e5c3",
      "0x91E85122eF92FF306EA47025efd00404CcaEEb19",
      "0x59b75eE4Fe79A5C807eB6553c110B5295c675D35",
      "0xb25D37892305FE1b44c06F035139a0ED11EcA82d",
      "0x783557C3A2E98D58A9c6A0Fa10a475fcad62477f",
      "0x8ADB7044d41aC5B378281e0ebd9CD6eAC43a53F8"
    ],
    1,
    [
      "0xa6D6240e5d5b6232996D58B6b3C4555c824deA73",
      "0xae13d989dac2f0debff460ac112a837c89baa7cd",
      "0x43fC744c34b211cD57c6f0d1ddB4EA8BC504541b"
    ],
    [
      "0xa6D6240e5d5b6232996D58B6b3C4555c824deA73",
      "0xae13d989dac2f0debff460ac112a837c89baa7cd"
    ],
    [
      "0xa6D6240e5d5b6232996D58B6b3C4555c824deA73",
      "0xae13d989dac2f0debff460ac112a837c89baa7cd",
      "0xac9b54f806af4b9451f1faa5293601d5006348ad"
    ]
  ],
  "solcInputHash": "360ef9858f9d13e2da8b2e0e5d9f9b58",
  "bytecode": "0x610160604052600060068190556007556127066008556101906009556102ee600a5560fa600b556103b6600c55678ac7230489e80000600d556011805460ff191690553480156200004f57600080fd5b5060405162003c2338038062003c23833981016040819052620000729162000687565b600080546001600160a01b0319163390811782556040519091829160008051602062003c03833981519152908290a35060008411620000e65760405162461bcd60e51b8152600401620000dd90602080825260049082015263085c1a5960e21b604082015260600190565b60405180910390fd5b846000815181106200010857634e487b7160e01b600052603260045260246000fd5b60200260200101516001600160a01b031660c0816001600160a01b031660601b81525050846001815181106200014e57634e487b7160e01b600052603260045260246000fd5b60200260200101516001600160a01b031660e0816001600160a01b031660601b81525050846002815181106200019457634e487b7160e01b600052603260045260246000fd5b60200260200101516001600160a01b0316610100816001600160a01b031660601b8152505084600381518110620001db57634e487b7160e01b600052603260045260246000fd5b60200260200101516001600160a01b0316610120816001600160a01b031660601b81525050846004815181106200022257634e487b7160e01b600052603260045260246000fd5b60200260200101516001600160a01b0316610140816001600160a01b031660601b81525050846005815181106200026957634e487b7160e01b600052603260045260246000fd5b602090810291909101015160601b6001600160601b03191660805260a084905260038054336001600160a01b0319909116179055845160019060059060009088906007908110620002ca57634e487b7160e01b600052603260045260246000fd5b60200260200101516001600160a01b03166001600160a01b0316815260200190815260200160002060006101000a81548160ff021916908315150217905550846008815181106200032b57634e487b7160e01b600052603260045260246000fd5b6020026020010151600160006101000a8154816001600160a01b0302191690836001600160a01b03160217905550846009815181106200037b57634e487b7160e01b600052603260045260246000fd5b602090810291909101810151600280546001600160a01b0319166001600160a01b039092169190911790558351620003ba91600e919086019062000539565b508151620003d090600f90602085019062000539565b508051620003e690601090602084019062000539565b5062000421856006815181106200040d57634e487b7160e01b600052603260045260246000fd5b60200260200101516200042c60201b60201c565b50505050506200075b565b6000546001600160a01b03163314620004885760405162461bcd60e51b815260206004820181905260248201527f4f776e61626c653a2063616c6c6572206973206e6f7420746865206f776e65726044820152606401620000dd565b6001600160a01b038116620004ef5760405162461bcd60e51b815260206004820152602660248201527f4f776e61626c653a206e6577206f776e657220697320746865207a65726f206160448201526564647265737360d01b6064820152608401620000dd565b600080546040516001600160a01b038085169392169160008051602062003c0383398151915291a3600080546001600160a01b0319166001600160a01b0392909216919091179055565b82805482825590600052602060002090810192821562000591579160200282015b828111156200059157825182546001600160a01b0319166001600160a01b039091161782556020909201916001909101906200055a565b506200059f929150620005a3565b5090565b5b808211156200059f5760008155600101620005a4565b80516001600160a01b0381168114620005d257600080fd5b919050565b600082601f830112620005e8578081fd5b815160206001600160401b038083111562000607576200060762000745565b8260051b604051601f19603f830116810181811084821117156200062f576200062f62000745565b604052848152838101925086840182880185018910156200064e578687fd5b8692505b858310156200067b576200066681620005ba565b84529284019260019290920191840162000652565b50979650505050505050565b600080600080600060a086880312156200069f578081fd5b85516001600160401b0380821115620006b6578283fd5b620006c489838a01620005d7565b9650602088015195506040880151915080821115620006e1578283fd5b620006ef89838a01620005d7565b9450606088015191508082111562000705578283fd5b6200071389838a01620005d7565b9350608088015191508082111562000729578283fd5b506200073888828901620005d7565b9150509295509295909350565b634e487b7160e01b600052604160045260246000fd5b60805160601c60a05160c05160601c60e05160601c6101005160601c6101205160601c6101405160601c6132b362000950600039600081816106ea01528181612102015281816121fc015281816123e9015281816125a6015281816125fb01528181612650015281816128350152818161288b015281816128e10152818161295b0152612a180152600081816107110152818161097501528181610a6701528181610a9c01528181610e870152818161109d015281816112000152818161129b01528181611fd1015281816120d0015281816121ca015281816125840152612813015260008181610616015281816121a00152818161234e015281816124310152818161262e01526128bf015260008181610378015281816120a6015281816122a901528181612410015281816125d901526128690152600081816105dc015281816108d0015281816109fe01528181610a3301528181610d8b01528181610ef10152818161106201528181611a9001528181611b4e01528181611de20152818161252f01526127bd01526000818161067f0152818161076c01528181610c51015281816119e601528181611e860152611f2901526000818161043f0152818161079b01528181610c7701528181611a1301528181611eb301528181611f560152818161255101526127df01526132b36000f3fe608060405234801561001057600080fd5b50600436106103275760003560e01c80638456cb59116101b8578063c32c1e6511610104578063f0f44260116100a2578063f384a44c1161007c578063f384a44c146106b4578063f3fef3a3146106bd578063f887ea40146106e5578063fca3ece71461070c57610327565b8063f0f4426014610667578063f10684541461067a578063f2fde38b146106a157610327565b8063d21220a7116100de578063d21220a714610611578063e695b9d914610638578063ec38a8621461064b578063ed0f43521461065e57610327565b8063c32c1e65146105c4578063c89039c5146105d7578063cc917f4e146105fe57610327565b80638fab5917116101715780639ec5a8941161014b5780639ec5a89414610583578063a4874d7714610596578063ab033ea91461059e578063aff66095146105b157610327565b80638fab59171461055e578063952e6ee9146105715780639ae0ddaf1461057a57610327565b80638456cb59146104fd578063871392c414610505578063877887821461050e57806387976583146105175780638b33b4b21461053a5780638da5cb5b1461054d57610327565b8063512ab17111610277578063649677e1116102305780637215313d1161020a5780637215313d146104c8578063790f6e51146104d15780637a340488146104e15780637c10eef2146104ea57610327565b8063649677e1146104a457806367206d40146104ad578063715018a6146104c057610327565b8063512ab17114610427578063575a86b21461043a5780635aa6e675146104615780635b5be8dd1461032c5780635c975abb1461047457806361d027b31461049157610327565b80633e032a3b116102e45780634641257d116102be5780634641257d146103fb5780634700d3051461040357806347e7ef241461040b5780634adae0da1461041e57610327565b80633e032a3b146103df5780633f4ba83a146103e857806344a3955e146103f257610327565b8063044483701461032c578063072140be146103485780630dfe16811461037357806313c50bea1461039a5780632838ee9c146103a95780633659cfe6146103b1575b600080fd5b61033561271081565b6040519081526020015b60405180910390f35b61035b610356366004612f95565b610733565b6040516001600160a01b03909116815260200161033f565b61035b7f000000000000000000000000000000000000000000000000000000000000000081565b610335670de0b6b3a764000081565b61033561075d565b6103c46103bf366004612dff565b610822565b6040805193845260208401929092529082015260600161033f565b610335600c5481565b6103f0610ad1565b005b61033560075481565b6103f0610b50565b6103f0610bf5565b610335610419366004612e19565b610cf2565b61033560065481565b61035b610435366004612f95565b610e25565b61035b7f000000000000000000000000000000000000000000000000000000000000000081565b60035461035b906001600160a01b031681565b6011546104819060ff1681565b604051901515815260200161033f565b60025461035b906001600160a01b031681565b61033560085481565b6103f06104bb366004612e42565b610e35565b6103f0610f72565b6103356103de81565b6103356801158e460913d0000081565b61033561032081565b6103f06104f8366004612e7d565b610fe6565b6103f06110d8565b610335600d5481565b61033560095481565b610481610525366004612dff565b60056020526000908152604090205460ff1681565b60045461035b906001600160a01b031681565b6000546001600160a01b031661035b565b6103f061056c366004612dff565b61112d565b610335600a5481565b6103356126de81565b60015461035b906001600160a01b031681565b6103f06111b6565b6103f06105ac366004612dff565b6112c7565b6103f06105bf366004612dff565b611361565b6103f06105d2366004612dff565b6113e7565b61035b7f000000000000000000000000000000000000000000000000000000000000000081565b6103f061060c366004612ff2565b611459565b61035b7f000000000000000000000000000000000000000000000000000000000000000081565b61035b610646366004612f95565b61170b565b6103f0610659366004612dff565b61171b565b6103356103e881565b6103f0610675366004612dff565b61178d565b6103357f000000000000000000000000000000000000000000000000000000000000000081565b6103f06106af366004612dff565b6117ff565b610335600b5481565b6106d06106cb366004612e19565b6118e9565b6040805192835260208301919091520161033f565b61035b7f000000000000000000000000000000000000000000000000000000000000000081565b61035b7f000000000000000000000000000000000000000000000000000000000000000081565b600f818154811061074357600080fd5b6000918252602090912001546001600160a01b0316905081565b604051631175a1dd60e01b81527f000000000000000000000000000000000000000000000000000000000000000060048201523060248201526000907f00000000000000000000000000000000000000000000000000000000000000006001600160a01b031690631175a1dd9060440160206040518083038186803b1580156107e557600080fd5b505afa1580156107f9573d6000803e3d6000fd5b505050506040513d601f19601f8201168201806040525081019061081d9190612fad565b905090565b60008080336001600160a01b03166108426000546001600160a01b031690565b6001600160a01b0316146108715760405162461bcd60e51b815260040161086890613110565b60405180910390fd5b6001600160a01b0384166108b05760405162461bcd60e51b8152602060048201526006602482015265085cdd1c985d60d21b6044820152606401610868565b6108b8611b7e565b6040516370a0823160e01b81523060048201526000907f00000000000000000000000000000000000000000000000000000000000000006001600160a01b0316906370a082319060240160206040518083038186803b15801561091a57600080fd5b505afa15801561092e573d6000803e3d6000fd5b505050506040513d601f19601f820116820180604052508101906109529190612fad565b6040516370a0823160e01b81523060048201529091506000906001600160a01b037f000000000000000000000000000000000000000000000000000000000000000016906370a082319060240160206040518083038186803b1580156109b757600080fd5b505afa1580156109cb573d6000803e3d6000fd5b505050506040513d601f19601f820116820180604052508101906109ef9190612fad565b9050610a266001600160a01b037f000000000000000000000000000000000000000000000000000000000000000016876000611ba3565b610a5a6001600160a01b037f0000000000000000000000000000000000000000000000000000000000000000168784611cfa565b610a8f6001600160a01b037f000000000000000000000000000000000000000000000000000000000000000016876000611ba3565b610ac36001600160a01b037f0000000000000000000000000000000000000000000000000000000000000000168783611cfa565b600754969195509350915050565b6000546001600160a01b03163314610afb5760405162461bcd60e51b815260040161086890613110565b60115460ff16610b375760405162461bcd60e51b8152602060048201526007602482015266085c185d5cd95960ca1b6044820152606401610868565b6000600655610b44611dbb565b6011805460ff19169055565b3360009081526005602052604090205460ff1680610b7857506004546001600160a01b031633145b80610b8d57506003546001600160a01b031633145b610bc65760405162461bcd60e51b815260206004820152600a60248201526910b430b93b32b9ba32b960b11b6044820152606401610868565b60115460ff1615610be95760405162461bcd60e51b81526004016108689061316b565b610bf36000611f1a565b565b6000546001600160a01b03163314610c1f5760405162461bcd60e51b815260040161086890613110565b60115460ff1615610c425760405162461bcd60e51b81526004016108689061316b565b604051632989754760e11b81527f000000000000000000000000000000000000000000000000000000000000000060048201527f00000000000000000000000000000000000000000000000000000000000000006001600160a01b031690635312ea8e90602401600060405180830381600087803b158015610cc357600080fd5b505af1158015610cd7573d6000803e3d6000fd5b50505050610ce3612522565b6011805460ff19166001179055565b600080546001600160a01b03163314610d1d5760405162461bcd60e51b815260040161086890613110565b60115460ff1615610d405760405162461bcd60e51b81526004016108689061316b565b6001600160a01b038316610d7e5760405162461bcd60e51b815260206004820152600560248201526410bab9b2b960d91b6044820152606401610868565b610db36001600160a01b037f000000000000000000000000000000000000000000000000000000000000000016333085612676565b600654829015801590610dc857506000600754115b15610e055761271060065460085460075486610de49190613218565b610dee9190613218565b610df891906131f8565b610e0291906131f8565b90505b80600754610e1391906131e0565b600755610e1e611dbb565b9392505050565b6010818154811061074357600080fd5b6003546001600160a01b03163314610e5f5760405162461bcd60e51b8152600401610868906130c6565b6001600160a01b038116610e855760405162461bcd60e51b815260040161086890613145565b7f00000000000000000000000000000000000000000000000000000000000000006001600160a01b0316836001600160a01b03161415610eef5760405162461bcd60e51b8152602060048201526005602482015264217361666560d81b6044820152606401610868565b7f00000000000000000000000000000000000000000000000000000000000000006001600160a01b0316836001600160a01b03161415610f595760405162461bcd60e51b8152602060048201526005602482015264217361666560d81b6044820152606401610868565b610f6d6001600160a01b03841682846126ae565b505050565b6000546001600160a01b03163314610f9c5760405162461bcd60e51b815260040161086890613110565b600080546040516001600160a01b03909116907f8be0079c531659141344cd1fd0a4f28419497f9722a3daafe3b4186f6b6457e0908390a3600080546001600160a01b0319169055565b6000546001600160a01b031633146110105760405162461bcd60e51b815260040161086890613110565b6001600160a01b03841661104f5760405162461bcd60e51b8152602060048201526006602482015265085cdd1c985d60d21b6044820152606401610868565b811561108a5761108a6001600160a01b037f000000000000000000000000000000000000000000000000000000000000000016853085612676565b80156110c5576110c56001600160a01b037f000000000000000000000000000000000000000000000000000000000000000016853084612676565b60078390556110d2611dbb565b50505050565b6000546001600160a01b031633146111025760405162461bcd60e51b815260040161086890613110565b60115460ff16156111255760405162461bcd60e51b81526004016108689061316b565b610bf3611b7e565b6004546001600160a01b031633148061115057506003546001600160a01b031633145b61116c5760405162461bcd60e51b8152600401610868906130eb565b6001600160a01b0381166111925760405162461bcd60e51b815260040161086890613145565b6001600160a01b03166000908152600560205260409020805460ff19166001179055565b6000546001600160a01b031633146111e05760405162461bcd60e51b815260040161086890613110565b6111e8611b7e565b6040516370a0823160e01b81523060048201526000907f00000000000000000000000000000000000000000000000000000000000000006001600160a01b0316906370a082319060240160206040518083038186803b15801561124a57600080fd5b505afa15801561125e573d6000803e3d6000fd5b505050506040513d601f19601f820116820180604052508101906112829190612fad565b905080156112c4576002546112c4906001600160a01b037f000000000000000000000000000000000000000000000000000000000000000081169116836126ae565b50565b6003546001600160a01b031633146112f15760405162461bcd60e51b8152600401610868906130c6565b6001600160a01b0381166113175760405162461bcd60e51b815260040161086890613145565b600380546001600160a01b0319166001600160a01b0383169081179091556040517f24a8c4807b324a269a51827c3446b8ac1cc13810d7d0c0ca1efafabddd7b621990600090a250565b6004546001600160a01b031633148061138457506003546001600160a01b031633145b6113a05760405162461bcd60e51b8152600401610868906130eb565b6001600160a01b0381166113c65760405162461bcd60e51b815260040161086890613145565b6001600160a01b03166000908152600560205260409020805460ff19169055565b6003546001600160a01b031633146114115760405162461bcd60e51b8152600401610868906130c6565b6001600160a01b0381166114375760405162461bcd60e51b815260040161086890613145565b600480546001600160a01b0319166001600160a01b0392909216919091179055565b6004546001600160a01b031633148061147c57506003546001600160a01b031633145b6114985760405162461bcd60e51b8152600401610868906130eb565b6126de8610156114db5760405162461bcd60e51b815260206004820152600e60248201526d08595b9d1c985b98d9519959531360921b6044820152606401610868565b61271086111561151f5760405162461bcd60e51b815260206004820152600f60248201526e042cadce8e4c2dcc6ca8ccaca9ac2f608b1b6044820152606401610868565b600886905561032085111561156a5760405162461bcd60e51b8152602060048201526011602482015270085c195c999bdc9b585b98d95199595553607a1b6044820152606401610868565b60098590556103e861157c84866131e0565b146115b65760405162461bcd60e51b815260206004820152600a60248201526910b332b2a330b1ba37b960b11b6044820152606401610868565b600a849055600b8390556103de8211156116005760405162461bcd60e51b815260206004820152600b60248201526a085cdb1a5c1c1859d9555360aa1b6044820152606401610868565b600c8290556801158e460913d000008111156116575760405162461bcd60e51b8152602060048201526016602482015275085b5a5b91585c9b9959151bd4995a5b9d995cdd155360521b6044820152606401610868565b670de0b6b3a76400008110156116a85760405162461bcd60e51b8152602060048201526016602482015275085b5a5b91585c9b9959151bd4995a5b9d995cdd131360521b6044820152606401610868565b600d8190556040805187815260208101879052908101859052606081018490526080810183905260a081018290527fcb4ecc62ba7efb533c814d48b7dc1c8f06063d93bf32c3730c1ec47011e8747a9060c00160405180910390a1505050505050565b600e818154811061074357600080fd5b6003546001600160a01b031633146117455760405162461bcd60e51b8152600401610868906130c6565b6001600160a01b03811661176b5760405162461bcd60e51b815260040161086890613145565b600180546001600160a01b0319166001600160a01b0392909216919091179055565b6003546001600160a01b031633146117b75760405162461bcd60e51b8152600401610868906130c6565b6001600160a01b0381166117dd5760405162461bcd60e51b815260040161086890613145565b600280546001600160a01b0319166001600160a01b0392909216919091179055565b6000546001600160a01b031633146118295760405162461bcd60e51b815260040161086890613110565b6001600160a01b03811661188e5760405162461bcd60e51b815260206004820152602660248201527f4f776e61626c653a206e6577206f776e657220697320746865207a65726f206160448201526564647265737360d01b6064820152608401610868565b600080546040516001600160a01b03808516939216917f8be0079c531659141344cd1fd0a4f28419497f9722a3daafe3b4186f6b6457e091a3600080546001600160a01b0319166001600160a01b0392909216919091179055565b6000805481906001600160a01b031633146119165760405162461bcd60e51b815260040161086890613110565b6001600160a01b0384166119545760405162461bcd60e51b815260206004820152600560248201526410bab9b2b960d91b6044820152606401610868565b6000831161198e5760405162461bcd60e51b815260206004820152600760248201526608585b5bdd5b9d60ca1b6044820152606401610868565b6000600654600754856119a19190613218565b6119ab91906131f8565b90506007548111156119bc57506007545b806007546119ca9190613237565b60075560115460ff16611a7857604051630441a3e760e41b81527f00000000000000000000000000000000000000000000000000000000000000006004820152602481018590527f00000000000000000000000000000000000000000000000000000000000000006001600160a01b03169063441a3e7090604401600060405180830381600087803b158015611a5f57600080fd5b505af1158015611a73573d6000803e3d6000fd5b505050505b6040516370a0823160e01b81523060048201526000907f00000000000000000000000000000000000000000000000000000000000000006001600160a01b0316906370a082319060240160206040518083038186803b158015611ada57600080fd5b505afa158015611aee573d6000803e3d6000fd5b505050506040513d601f19601f82011682018060405250810190611b129190612fad565b905080851115611b20578094505b846006541015611b305760065494505b84600654611b3e9190613237565b600655611b756001600160a01b037f00000000000000000000000000000000000000000000000000000000000000001633876126ae565b50949293505050565b60115460ff16610bf35760065415611b9b57611b9b600654611f1a565b610ce3612522565b801580611c2c5750604051636eb1769f60e11b81523060048201526001600160a01b03838116602483015284169063dd62ed3e9060440160206040518083038186803b158015611bf257600080fd5b505afa158015611c06573d6000803e3d6000fd5b505050506040513d601f19601f82011682018060405250810190611c2a9190612fad565b155b611c975760405162461bcd60e51b815260206004820152603660248201527f5361666545524332303a20617070726f76652066726f6d206e6f6e2d7a65726f60448201527520746f206e6f6e2d7a65726f20616c6c6f77616e636560501b6064820152608401610868565b6040516001600160a01b038316602482015260448101829052610f6d90849063095ea7b360e01b906064015b60408051601f198184030181529190526020810180516001600160e01b03166001600160e01b0319909316929092179091526126de565b604051636eb1769f60e11b81523060048201526001600160a01b038381166024830152600091839186169063dd62ed3e9060440160206040518083038186803b158015611d4657600080fd5b505afa158015611d5a573d6000803e3d6000fd5b505050506040513d601f19601f82011682018060405250810190611d7e9190612fad565b611d8891906131e0565b6040516001600160a01b0385166024820152604481018290529091506110d290859063095ea7b360e01b90606401611cc3565b600654611dca57611dca6127b0565b6040516370a0823160e01b81523060048201526000907f00000000000000000000000000000000000000000000000000000000000000006001600160a01b0316906370a082319060240160206040518083038186803b158015611e2c57600080fd5b505afa158015611e40573d6000803e3d6000fd5b505050506040513d601f19601f82011682018060405250810190611e649190612fad565b905080600654611e7491906131e0565b600655604051631c57762b60e31b81527f00000000000000000000000000000000000000000000000000000000000000006004820152602481018290527f00000000000000000000000000000000000000000000000000000000000000006001600160a01b03169063e2bbb15890604401600060405180830381600087803b158015611eff57600080fd5b505af1158015611f13573d6000803e3d6000fd5b5050505050565b604051630441a3e760e41b81527f00000000000000000000000000000000000000000000000000000000000000006004820152602481018290527f00000000000000000000000000000000000000000000000000000000000000006001600160a01b03169063441a3e7090604401600060405180830381600087803b158015611fa257600080fd5b505af1158015611fb6573d6000803e3d6000fd5b50506040516370a0823160e01b8152306004820152600092507f00000000000000000000000000000000000000000000000000000000000000006001600160a01b031691506370a082319060240160206040518083038186803b15801561201c57600080fd5b505afa158015612030573d6000803e3d6000fd5b505050506040513d601f19601f820116820180604052508101906120549190612fad565b9050600d5481101561206657506112c4565b6040518181527f80f97f878e16410266694f134ddf012f2be424f54f8b5cafa107eccc51d00d589060200160405180910390a16120a281612908565b90507f00000000000000000000000000000000000000000000000000000000000000006001600160a01b03167f00000000000000000000000000000000000000000000000000000000000000006001600160a01b03161461219e5761219e7f000000000000000000000000000000000000000000000000000000000000000061212c6002846131f8565b600c54600f80548060200260200160405190810160405280929190818152602001828054801561218557602002820191906000526020600020905b81546001600160a01b03168152600190910190602001808311612167575b5050505050304261025861219991906131e0565b612b03565b7f00000000000000000000000000000000000000000000000000000000000000006001600160a01b03167f00000000000000000000000000000000000000000000000000000000000000006001600160a01b031614612291576122917f00000000000000000000000000000000000000000000000000000000000000006122266002846131f8565b600c546010805480602002602001604051908101604052809291908181526020018280548015612185576020028201919060005260206000209081546001600160a01b03168152600190910190602001808311612167575050505050304261025861219991906131e0565b6040516370a0823160e01b81523060048201526000907f00000000000000000000000000000000000000000000000000000000000000006001600160a01b0316906370a082319060240160206040518083038186803b1580156122f357600080fd5b505afa158015612307573d6000803e3d6000fd5b505050506040513d601f19601f8201168201806040525081019061232b9190612fad565b6040516370a0823160e01b81523060048201529091506000906001600160a01b037f000000000000000000000000000000000000000000000000000000000000000016906370a082319060240160206040518083038186803b15801561239057600080fd5b505afa1580156123a4573d6000803e3d6000fd5b505050506040513d601f19601f820116820180604052508101906123c89190612fad565b90506000821180156123da5750600081115b15612515576001600160a01b037f00000000000000000000000000000000000000000000000000000000000000001663e8e337007f00000000000000000000000000000000000000000000000000000000000000007f0000000000000000000000000000000000000000000000000000000000000000858560008030612462426102586131e0565b60405160e08a901b6001600160e01b03191681526001600160a01b039889166004820152968816602488015260448701959095526064860193909352608485019190915260a484015290921660c482015260e481019190915261010401606060405180830381600087803b1580156124d957600080fd5b505af11580156124ed573d6000803e3d6000fd5b505050506040513d601f19601f820116820180604052508101906125119190612fc5565b5050505b836110d2576110d2611dbb565b6125776001600160a01b037f0000000000000000000000000000000000000000000000000000000000000000167f00000000000000000000000000000000000000000000000000000000000000006000611ba3565b6125cc6001600160a01b037f0000000000000000000000000000000000000000000000000000000000000000167f00000000000000000000000000000000000000000000000000000000000000006000611ba3565b6126216001600160a01b037f0000000000000000000000000000000000000000000000000000000000000000167f00000000000000000000000000000000000000000000000000000000000000006000611ba3565b610bf36001600160a01b037f0000000000000000000000000000000000000000000000000000000000000000167f00000000000000000000000000000000000000000000000000000000000000006000611ba3565b6040516001600160a01b03808516602483015283166044820152606481018290526110d29085906323b872dd60e01b90608401611cc3565b6040516001600160a01b038316602482015260448101829052610f6d90849063a9059cbb60e01b90606401611cc3565b6000612733826040518060400160405280602081526020017f5361666545524332303a206c6f772d6c6576656c2063616c6c206661696c6564815250856001600160a01b0316612c709092919063ffffffff16565b805190915015610f6d57808060200190518101906127519190612f75565b610f6d5760405162461bcd60e51b815260206004820152602a60248201527f5361666545524332303a204552433230206f7065726174696f6e20646964206e6044820152691bdd081cdd58d8d9595960b21b6064820152608401610868565b6128066001600160a01b037f0000000000000000000000000000000000000000000000000000000000000000167f0000000000000000000000000000000000000000000000000000000000000000600019611ba3565b61285c6001600160a01b037f0000000000000000000000000000000000000000000000000000000000000000167f0000000000000000000000000000000000000000000000000000000000000000600019611ba3565b6128b26001600160a01b037f0000000000000000000000000000000000000000000000000000000000000000167f0000000000000000000000000000000000000000000000000000000000000000600019611ba3565b610bf36001600160a01b037f0000000000000000000000000000000000000000000000000000000000000000167f0000000000000000000000000000000000000000000000000000000000000000600019611ba3565b60008115612afb5760095415612afb5760006127106009548461292b9190613218565b61293591906131f8565b905060006103e8600b548361294a9190613218565b61295491906131f8565b90506129f47f000000000000000000000000000000000000000000000000000000000000000082600c54600e8054806020026020016040519081016040528092919081815260200182805480156129d457602002820191906000526020600020905b81546001600160a01b031681526001909101906020018083116129b6575b50506002546001600160a01b0316925061219991504290506102586131e0565b60006103e8600a5484612a079190613218565b612a1191906131f8565b9050612ab17f000000000000000000000000000000000000000000000000000000000000000082600c54600e805480602002602001604051908101604052809291908181526020018280548015612a9157602002820191906000526020600020905b81546001600160a01b03168152600190910190602001808311612a73575b50506001546001600160a01b0316925061219991504290506102586131e0565b612abb8386613237565b60408051838152602081018590529196507f916ad8171ef8c567c7790377a142f0200f9565940680c06e30dd105cfd924968910160405180910390a15050505b50805b919050565b60405163d06ca61f60e01b81526000906001600160a01b0388169063d06ca61f90612b34908990889060040161318b565b60006040518083038186803b158015612b4c57600080fd5b505afa158015612b60573d6000803e3d6000fd5b505050506040513d6000823e601f3d908101601f19168201604052612b889190810190612eb5565b905060008160018351612b9b9190613237565b81518110612bb957634e487b7160e01b600052603260045260246000fd5b60200260200101519050876001600160a01b03166338ed1739886103e88985612be29190613218565b612bec91906131f8565b8888886040518663ffffffff1660e01b8152600401612c0f9594939291906131a4565b600060405180830381600087803b158015612c2957600080fd5b505af1158015612c3d573d6000803e3d6000fd5b505050506040513d6000823e601f3d908101601f19168201604052612c659190810190612eb5565b505050505050505050565b6060612c7f8484600085612c87565b949350505050565b606082471015612ce85760405162461bcd60e51b815260206004820152602660248201527f416464726573733a20696e73756666696369656e742062616c616e636520666f6044820152651c8818d85b1b60d21b6064820152608401610868565b843b612d365760405162461bcd60e51b815260206004820152601d60248201527f416464726573733a2063616c6c20746f206e6f6e2d636f6e74726163740000006044820152606401610868565b600080866001600160a01b03168587604051612d529190613077565b60006040518083038185875af1925050503d8060008114612d8f576040519150601f19603f3d011682016040523d82523d6000602084013e612d94565b606091505b5091509150612da4828286612daf565b979650505050505050565b60608315612dbe575081610e1e565b825115612dce5782518084602001fd5b8160405162461bcd60e51b81526004016108689190613093565b80356001600160a01b0381168114612afe57600080fd5b600060208284031215612e10578081fd5b610e1e82612de8565b60008060408385031215612e2b578081fd5b612e3483612de8565b946020939093013593505050565b600080600060608486031215612e56578081fd5b612e5f84612de8565b925060208401359150612e7460408501612de8565b90509250925092565b60008060008060808587031215612e92578081fd5b612e9b85612de8565b966020860135965060408601359560600135945092505050565b60006020808385031215612ec7578182fd5b825167ffffffffffffffff80821115612ede578384fd5b818501915085601f830112612ef1578384fd5b815181811115612f0357612f03613290565b8060051b604051601f19603f83011681018181108582111715612f2857612f28613290565b604052828152858101935084860182860187018a1015612f46578788fd5b8795505b83861015612f68578051855260019590950194938601938601612f4a565b5098975050505050505050565b600060208284031215612f86578081fd5b81518015158114610e1e578182fd5b600060208284031215612fa6578081fd5b5035919050565b600060208284031215612fbe578081fd5b5051919050565b600080600060608486031215612fd9578283fd5b8351925060208401519150604084015190509250925092565b60008060008060008060c0878903121561300a578182fd5b505084359660208601359650604086013595606081013595506080810135945060a0013592509050565b6000815180845260208085019450808401835b8381101561306c5781516001600160a01b031687529582019590820190600101613047565b509495945050505050565b6000825161308981846020870161324e565b9190910192915050565b60006020825282518060208401526130b281604085016020870161324e565b601f01601f19169190910160400192915050565b6020808252600b908201526a21676f7665726e616e636560a81b604082015260600190565b6020808252600b908201526a216f7065726174696f6e7360a81b604082015260600190565b6020808252818101527f4f776e61626c653a2063616c6c6572206973206e6f7420746865206f776e6572604082015260600190565b6020808252600c908201526b7a65726f206164647265737360a01b604082015260600190565b6020808252600690820152651c185d5cd95960d21b604082015260600190565b600083825260406020830152612c7f6040830184613034565b600086825285602083015260a060408301526131c360a0830186613034565b6001600160a01b0394909416606083015250608001529392505050565b600082198211156131f3576131f361327a565b500190565b60008261321357634e487b7160e01b81526012600452602481fd5b500490565b60008160001904831182151516156132325761323261327a565b500290565b6000828210156132495761324961327a565b500390565b60005b83811015613269578181015183820152602001613251565b838111156110d25750506000910152565b634e487b7160e01b600052601160045260246000fd5b634e487b7160e01b600052604160045260246000fdfea164736f6c6343000803000a8be0079c531659141344cd1fd0a4f28419497f9722a3daafe3b4186f6b6457e0",
  "devdoc": {
    "details": "Implementation of the PancakeSwap LP Strategy. This contract will compound LP tokens. The owner of the contract is the BalleMaster contract.",
    "kind": "dev",
    "methods": {
      "addHarvester(address)": {
        "details": "Add a harvester address."
      },
      "constructor": {
        "details": "Implementation of PancakeSwap LP autocompounding strategy."
      },
      "deposit(address,uint256)": {
        "details": "Function to transfer tokens BalleMaster -> strategy and put it to work."
      },
      "harvest()": {
        "details": "Function to harvest earnings and reinvest."
      },
      "inCaseTokensGetStuck(address,uint256,address)": {
        "details": "Function to use from Governance Gnosis Safe multisig only in case tokens get stuck. This is to be used if someone, for example, sends tokens to the contract by mistake. There is no guarantee governance will vote to return these."
      },
      "owner()": {
        "details": "Returns the address of the current owner."
      },
      "panic()": {
        "details": "Stop the vault with emergencyWithdraw from farm."
      },
      "pause()": {
        "details": "Stop the vault."
      },
      "pendingEarnedToken()": {
        "details": "View function to see pending CAKEs on farm."
      },
      "removeHarvester(address)": {
        "details": "Remove a harvester address."
      },
      "renounceOwnership()": {
        "details": "Leaves the contract without owner. It will not be possible to call `onlyOwner` functions anymore. Can only be called by the current owner. NOTE: Renouncing ownership will leave the contract without an owner, thereby removing any functionality that is only available to the owner."
      },
      "retire()": {
        "details": "Retire the vault."
      },
      "setGovernance(address)": {
        "details": "Function to change the Governance Gnosis Safe multisig."
      },
      "setOperations(address)": {
        "details": "Function to change the Operations Gnosis Safe multisig."
      },
      "setRewards(address)": {
        "details": "Function to change the rewards address."
      },
      "setSettings(uint256,uint256,uint256,uint256,uint256,uint256)": {
        "details": "Function to change strategy settings."
      },
      "setTreasury(address)": {
        "details": "Function to change the treasury address."
      },
      "transferOwnership(address)": {
        "details": "Transfers ownership of the contract to a new account (`newOwner`). Can only be called by the current owner."
      },
      "unpause()": {
        "details": "Restart the vault."
      },
      "upgradeFrom(address,uint256,uint256,uint256)": {
        "details": "Complete upgrade from the old strategy."
      },
      "upgradeTo(address)": {
        "details": "Prepare to upgrade strategy to the new one indicated."
      },
      "withdraw(address,uint256)": {
        "details": "Function to transfer tokens strategy -> BalleMaster."
      }
    },
    "version": 1
  },
  "userdoc": {
    "kind": "user",
    "methods": {},
    "version": 1
  },
  "storageLayout": {
    "storage": [
      {
        "astId": 7,
        "contract": "contracts/strategies/StratPancakeLpV1.sol:StratPancakeLpV1",
        "label": "_owner",
        "offset": 0,
        "slot": "0",
        "type": "t_address"
      },
      {
        "astId": 5760,
        "contract": "contracts/strategies/StratPancakeLpV1.sol:StratPancakeLpV1",
        "label": "rewards",
        "offset": 0,
        "slot": "1",
        "type": "t_address"
      },
      {
        "astId": 5762,
        "contract": "contracts/strategies/StratPancakeLpV1.sol:StratPancakeLpV1",
        "label": "treasury",
        "offset": 0,
        "slot": "2",
        "type": "t_address"
      },
      {
        "astId": 5764,
        "contract": "contracts/strategies/StratPancakeLpV1.sol:StratPancakeLpV1",
        "label": "governance",
        "offset": 0,
        "slot": "3",
        "type": "t_address"
      },
      {
        "astId": 5766,
        "contract": "contracts/strategies/StratPancakeLpV1.sol:StratPancakeLpV1",
        "label": "operations",
        "offset": 0,
        "slot": "4",
        "type": "t_address"
      },
      {
        "astId": 5770,
        "contract": "contracts/strategies/StratPancakeLpV1.sol:StratPancakeLpV1",
        "label": "harvesters",
        "offset": 0,
        "slot": "5",
        "type": "t_mapping(t_address,t_bool)"
      },
      {
        "astId": 5773,
        "contract": "contracts/strategies/StratPancakeLpV1.sol:StratPancakeLpV1",
        "label": "depositTotal",
        "offset": 0,
        "slot": "6",
        "type": "t_uint256"
      },
      {
        "astId": 5776,
        "contract": "contracts/strategies/StratPancakeLpV1.sol:StratPancakeLpV1",
        "label": "sharesTotal",
        "offset": 0,
        "slot": "7",
        "type": "t_uint256"
      },
      {
        "astId": 5779,
        "contract": "contracts/strategies/StratPancakeLpV1.sol:StratPancakeLpV1",
        "label": "entranceFee",
        "offset": 0,
        "slot": "8",
        "type": "t_uint256"
      },
      {
        "astId": 5788,
        "contract": "contracts/strategies/StratPancakeLpV1.sol:StratPancakeLpV1",
        "label": "performanceFee",
        "offset": 0,
        "slot": "9",
        "type": "t_uint256"
      },
      {
        "astId": 5797,
        "contract": "contracts/strategies/StratPancakeLpV1.sol:StratPancakeLpV1",
        "label": "rewardsFeeFactor",
        "offset": 0,
        "slot": "10",
        "type": "t_uint256"
      },
      {
        "astId": 5800,
        "contract": "contracts/strategies/StratPancakeLpV1.sol:StratPancakeLpV1",
        "label": "treasuryFeeFactor",
        "offset": 0,
        "slot": "11",
        "type": "t_uint256"
      },
      {
        "astId": 5806,
        "contract": "contracts/strategies/StratPancakeLpV1.sol:StratPancakeLpV1",
        "label": "slippage",
        "offset": 0,
        "slot": "12",
        "type": "t_uint256"
      },
      {
        "astId": 5812,
        "contract": "contracts/strategies/StratPancakeLpV1.sol:StratPancakeLpV1",
        "label": "minEarnedToReinvest",
        "offset": 0,
        "slot": "13",
        "type": "t_uint256"
      },
      {
        "astId": 5821,
        "contract": "contracts/strategies/StratPancakeLpV1.sol:StratPancakeLpV1",
        "label": "earnedtokenToBallePath",
        "offset": 0,
        "slot": "14",
        "type": "t_array(t_address)dyn_storage"
      },
      {
        "astId": 5824,
        "contract": "contracts/strategies/StratPancakeLpV1.sol:StratPancakeLpV1",
        "label": "earnedtokenToToken0Path",
        "offset": 0,
        "slot": "15",
        "type": "t_array(t_address)dyn_storage"
      },
      {
        "astId": 5827,
        "contract": "contracts/strategies/StratPancakeLpV1.sol:StratPancakeLpV1",
        "label": "earnedtokenToToken1Path",
        "offset": 0,
        "slot": "16",
        "type": "t_array(t_address)dyn_storage"
      },
      {
        "astId": 5830,
        "contract": "contracts/strategies/StratPancakeLpV1.sol:StratPancakeLpV1",
        "label": "paused",
        "offset": 0,
        "slot": "17",
        "type": "t_bool"
      }
    ],
    "types": {
      "t_address": {
        "encoding": "inplace",
        "label": "address",
        "numberOfBytes": "20"
      },
      "t_array(t_address)dyn_storage": {
        "base": "t_address",
        "encoding": "dynamic_array",
        "label": "address[]",
        "numberOfBytes": "32"
      },
      "t_bool": {
        "encoding": "inplace",
        "label": "bool",
        "numberOfBytes": "1"
      },
      "t_mapping(t_address,t_bool)": {
        "encoding": "mapping",
        "key": "t_address",
        "label": "mapping(address => bool)",
        "numberOfBytes": "32",
        "value": "t_bool"
      },
      "t_uint256": {
        "encoding": "inplace",
        "label": "uint256",
        "numberOfBytes": "32"
      }
    }
  }
}