{
  "address": "0x3FE4818D6e8C28118A74BE4C1F2e81E9231e9750",
  "abi": [
    {
      "inputs": [
        {
          "internalType": "address[]",
          "name": "_addresses",
          "type": "address[]"
        },
        {
          "internalType": "uint256",
          "name": "_pid",
          "type": "uint256"
        },
        {
          "internalType": "address[]",
          "name": "_earnedtokenToBallePath",
          "type": "address[]"
        },
        {
          "internalType": "address[]",
          "name": "_earnedtokenToToken0Path",
          "type": "address[]"
        },
        {
          "internalType": "address[]",
          "name": "_earnedtokenToToken1Path",
          "type": "address[]"
        }
      ],
      "stateMutability": "nonpayable",
      "type": "constructor"
    },
    {
      "anonymous": false,
      "inputs": [
        {
          "indexed": false,
          "internalType": "uint256",
          "name": "rewardsAmount",
          "type": "uint256"
        },
        {
          "indexed": false,
          "internalType": "uint256",
          "name": "treasuryAmount",
          "type": "uint256"
        }
      ],
      "name": "DistributeFees",
      "type": "event"
    },
    {
      "anonymous": false,
      "inputs": [
        {
          "indexed": false,
          "internalType": "uint256",
          "name": "amount",
          "type": "uint256"
        }
      ],
      "name": "Harvest",
      "type": "event"
    },
    {
      "anonymous": false,
      "inputs": [
        {
          "indexed": true,
          "internalType": "address",
          "name": "previousOwner",
          "type": "address"
        },
        {
          "indexed": true,
          "internalType": "address",
          "name": "newOwner",
          "type": "address"
        }
      ],
      "name": "OwnershipTransferred",
      "type": "event"
    },
    {
      "anonymous": false,
      "inputs": [
        {
          "indexed": true,
          "internalType": "address",
          "name": "addr",
          "type": "address"
        }
      ],
      "name": "SetGovernance",
      "type": "event"
    },
    {
      "anonymous": false,
      "inputs": [
        {
          "indexed": false,
          "internalType": "uint256",
          "name": "entranceFee",
          "type": "uint256"
        },
        {
          "indexed": false,
          "internalType": "uint256",
          "name": "performanceFee",
          "type": "uint256"
        },
        {
          "indexed": false,
          "internalType": "uint256",
          "name": "rewardsFeeFactor",
          "type": "uint256"
        },
        {
          "indexed": false,
          "internalType": "uint256",
          "name": "treasuryFeeFactor",
          "type": "uint256"
        },
        {
          "indexed": false,
          "internalType": "uint256",
          "name": "slippage",
          "type": "uint256"
        }
      ],
      "name": "SetSettings",
      "type": "event"
    },
    {
      "inputs": [],
      "name": "ENTRANCE_FEE_LL",
      "outputs": [
        {
          "internalType": "uint256",
          "name": "",
          "type": "uint256"
        }
      ],
      "stateMutability": "view",
      "type": "function"
    },
    {
      "inputs": [],
      "name": "ENTRANCE_FEE_MAX",
      "outputs": [
        {
          "internalType": "uint256",
          "name": "",
          "type": "uint256"
        }
      ],
      "stateMutability": "view",
      "type": "function"
    },
    {
      "inputs": [],
      "name": "FEE_FACTOR_MAX",
      "outputs": [
        {
          "internalType": "uint256",
          "name": "",
          "type": "uint256"
        }
      ],
      "stateMutability": "view",
      "type": "function"
    },
    {
      "inputs": [],
      "name": "PERFORMANCE_FEE_MAX",
      "outputs": [
        {
          "internalType": "uint256",
          "name": "",
          "type": "uint256"
        }
      ],
      "stateMutability": "view",
      "type": "function"
    },
    {
      "inputs": [],
      "name": "PERFORMANCE_FEE_UL",
      "outputs": [
        {
          "internalType": "uint256",
          "name": "",
          "type": "uint256"
        }
      ],
      "stateMutability": "view",
      "type": "function"
    },
    {
      "inputs": [],
      "name": "SLIPPAGE_UL",
      "outputs": [
        {
          "internalType": "uint256",
          "name": "",
          "type": "uint256"
        }
      ],
      "stateMutability": "view",
      "type": "function"
    },
    {
      "inputs": [
        {
          "internalType": "address",
          "name": "_harvester",
          "type": "address"
        }
      ],
      "name": "addHarvester",
      "outputs": [],
      "stateMutability": "nonpayable",
      "type": "function"
    },
    {
      "inputs": [
        {
          "internalType": "address",
          "name": "_user",
          "type": "address"
        },
        {
          "internalType": "uint256",
          "name": "_amount",
          "type": "uint256"
        }
      ],
      "name": "deposit",
      "outputs": [
        {
          "internalType": "uint256",
          "name": "",
          "type": "uint256"
        }
      ],
      "stateMutability": "nonpayable",
      "type": "function"
    },
    {
      "inputs": [],
      "name": "depositToken",
      "outputs": [
        {
          "internalType": "address",
          "name": "",
          "type": "address"
        }
      ],
      "stateMutability": "view",
      "type": "function"
    },
    {
      "inputs": [],
      "name": "depositTotal",
      "outputs": [
        {
          "internalType": "uint256",
          "name": "",
          "type": "uint256"
        }
      ],
      "stateMutability": "view",
      "type": "function"
    },
    {
      "inputs": [],
      "name": "earnedtoken",
      "outputs": [
        {
          "internalType": "address",
          "name": "",
          "type": "address"
        }
      ],
      "stateMutability": "view",
      "type": "function"
    },
    {
      "inputs": [
        {
          "internalType": "uint256",
          "name": "",
          "type": "uint256"
        }
      ],
      "name": "earnedtokenToBallePath",
      "outputs": [
        {
          "internalType": "address",
          "name": "",
          "type": "address"
        }
      ],
      "stateMutability": "view",
      "type": "function"
    },
    {
      "inputs": [
        {
          "internalType": "uint256",
          "name": "",
          "type": "uint256"
        }
      ],
      "name": "earnedtokenToToken0Path",
      "outputs": [
        {
          "internalType": "address",
          "name": "",
          "type": "address"
        }
      ],
      "stateMutability": "view",
      "type": "function"
    },
    {
      "inputs": [
        {
          "internalType": "uint256",
          "name": "",
          "type": "uint256"
        }
      ],
      "name": "earnedtokenToToken1Path",
      "outputs": [
        {
          "internalType": "address",
          "name": "",
          "type": "address"
        }
      ],
      "stateMutability": "view",
      "type": "function"
    },
    {
      "inputs": [],
      "name": "entranceFee",
      "outputs": [
        {
          "internalType": "uint256",
          "name": "",
          "type": "uint256"
        }
      ],
      "stateMutability": "view",
      "type": "function"
    },
    {
      "inputs": [],
      "name": "governance",
      "outputs": [
        {
          "internalType": "address",
          "name": "",
          "type": "address"
        }
      ],
      "stateMutability": "view",
      "type": "function"
    },
    {
      "inputs": [],
      "name": "harvest",
      "outputs": [],
      "stateMutability": "nonpayable",
      "type": "function"
    },
    {
      "inputs": [
        {
          "internalType": "address",
          "name": "",
          "type": "address"
        }
      ],
      "name": "harvesters",
      "outputs": [
        {
          "internalType": "bool",
          "name": "",
          "type": "bool"
        }
      ],
      "stateMutability": "view",
      "type": "function"
    },
    {
      "inputs": [
        {
          "internalType": "address",
          "name": "_token",
          "type": "address"
        },
        {
          "internalType": "uint256",
          "name": "_amount",
          "type": "uint256"
        },
        {
          "internalType": "address",
          "name": "_to",
          "type": "address"
        }
      ],
      "name": "inCaseTokensGetStuck",
      "outputs": [],
      "stateMutability": "nonpayable",
      "type": "function"
    },
    {
      "inputs": [],
      "name": "masterChef",
      "outputs": [
        {
          "internalType": "address",
          "name": "",
          "type": "address"
        }
      ],
      "stateMutability": "view",
      "type": "function"
    },
    {
      "inputs": [],
      "name": "operations",
      "outputs": [
        {
          "internalType": "address",
          "name": "",
          "type": "address"
        }
      ],
      "stateMutability": "view",
      "type": "function"
    },
    {
      "inputs": [],
      "name": "owner",
      "outputs": [
        {
          "internalType": "address",
          "name": "",
          "type": "address"
        }
      ],
      "stateMutability": "view",
      "type": "function"
    },
    {
      "inputs": [],
      "name": "panic",
      "outputs": [],
      "stateMutability": "nonpayable",
      "type": "function"
    },
    {
      "inputs": [],
      "name": "pause",
      "outputs": [],
      "stateMutability": "nonpayable",
      "type": "function"
    },
    {
      "inputs": [],
      "name": "paused",
      "outputs": [
        {
          "internalType": "bool",
          "name": "",
          "type": "bool"
        }
      ],
      "stateMutability": "view",
      "type": "function"
    },
    {
      "inputs": [],
      "name": "pendingEarnedToken",
      "outputs": [
        {
          "internalType": "uint256",
          "name": "",
          "type": "uint256"
        }
      ],
      "stateMutability": "view",
      "type": "function"
    },
    {
      "inputs": [],
      "name": "performanceFee",
      "outputs": [
        {
          "internalType": "uint256",
          "name": "",
          "type": "uint256"
        }
      ],
      "stateMutability": "view",
      "type": "function"
    },
    {
      "inputs": [],
      "name": "pid",
      "outputs": [
        {
          "internalType": "uint256",
          "name": "",
          "type": "uint256"
        }
      ],
      "stateMutability": "view",
      "type": "function"
    },
    {
      "inputs": [
        {
          "internalType": "address",
          "name": "_harvester",
          "type": "address"
        }
      ],
      "name": "removeHarvester",
      "outputs": [],
      "stateMutability": "nonpayable",
      "type": "function"
    },
    {
      "inputs": [],
      "name": "renounceOwnership",
      "outputs": [],
      "stateMutability": "nonpayable",
      "type": "function"
    },
    {
      "inputs": [],
      "name": "retire",
      "outputs": [],
      "stateMutability": "nonpayable",
      "type": "function"
    },
    {
      "inputs": [],
      "name": "rewards",
      "outputs": [
        {
          "internalType": "address",
          "name": "",
          "type": "address"
        }
      ],
      "stateMutability": "view",
      "type": "function"
    },
    {
      "inputs": [],
      "name": "rewardsFeeFactor",
      "outputs": [
        {
          "internalType": "uint256",
          "name": "",
          "type": "uint256"
        }
      ],
      "stateMutability": "view",
      "type": "function"
    },
    {
      "inputs": [],
      "name": "router",
      "outputs": [
        {
          "internalType": "address",
          "name": "",
          "type": "address"
        }
      ],
      "stateMutability": "view",
      "type": "function"
    },
    {
      "inputs": [
        {
          "internalType": "address",
          "name": "_governance",
          "type": "address"
        }
      ],
      "name": "setGovernance",
      "outputs": [],
      "stateMutability": "nonpayable",
      "type": "function"
    },
    {
      "inputs": [
        {
          "internalType": "address",
          "name": "_operations",
          "type": "address"
        }
      ],
      "name": "setOperations",
      "outputs": [],
      "stateMutability": "nonpayable",
      "type": "function"
    },
    {
      "inputs": [
        {
          "internalType": "address",
          "name": "_rewards",
          "type": "address"
        }
      ],
      "name": "setRewards",
      "outputs": [],
      "stateMutability": "nonpayable",
      "type": "function"
    },
    {
      "inputs": [
        {
          "internalType": "uint256",
          "name": "_entranceFee",
          "type": "uint256"
        },
        {
          "internalType": "uint256",
          "name": "_performanceFee",
          "type": "uint256"
        },
        {
          "internalType": "uint256",
          "name": "_rewardsFeeFactor",
          "type": "uint256"
        },
        {
          "internalType": "uint256",
          "name": "_treasuryFeeFactor",
          "type": "uint256"
        },
        {
          "internalType": "uint256",
          "name": "_slippage",
          "type": "uint256"
        }
      ],
      "name": "setSettings",
      "outputs": [],
      "stateMutability": "nonpayable",
      "type": "function"
    },
    {
      "inputs": [
        {
          "internalType": "address",
          "name": "_treasury",
          "type": "address"
        }
      ],
      "name": "setTreasury",
      "outputs": [],
      "stateMutability": "nonpayable",
      "type": "function"
    },
    {
      "inputs": [],
      "name": "sharesTotal",
      "outputs": [
        {
          "internalType": "uint256",
          "name": "",
          "type": "uint256"
        }
      ],
      "stateMutability": "view",
      "type": "function"
    },
    {
      "inputs": [],
      "name": "slippage",
      "outputs": [
        {
          "internalType": "uint256",
          "name": "",
          "type": "uint256"
        }
      ],
      "stateMutability": "view",
      "type": "function"
    },
    {
      "inputs": [],
      "name": "token0",
      "outputs": [
        {
          "internalType": "address",
          "name": "",
          "type": "address"
        }
      ],
      "stateMutability": "view",
      "type": "function"
    },
    {
      "inputs": [],
      "name": "token1",
      "outputs": [
        {
          "internalType": "address",
          "name": "",
          "type": "address"
        }
      ],
      "stateMutability": "view",
      "type": "function"
    },
    {
      "inputs": [
        {
          "internalType": "address",
          "name": "newOwner",
          "type": "address"
        }
      ],
      "name": "transferOwnership",
      "outputs": [],
      "stateMutability": "nonpayable",
      "type": "function"
    },
    {
      "inputs": [],
      "name": "treasury",
      "outputs": [
        {
          "internalType": "address",
          "name": "",
          "type": "address"
        }
      ],
      "stateMutability": "view",
      "type": "function"
    },
    {
      "inputs": [],
      "name": "treasuryFeeFactor",
      "outputs": [
        {
          "internalType": "uint256",
          "name": "",
          "type": "uint256"
        }
      ],
      "stateMutability": "view",
      "type": "function"
    },
    {
      "inputs": [],
      "name": "unpause",
      "outputs": [],
      "stateMutability": "nonpayable",
      "type": "function"
    },
    {
      "inputs": [
        {
          "internalType": "address",
          "name": "_user",
          "type": "address"
        },
        {
          "internalType": "uint256",
          "name": "_amount",
          "type": "uint256"
        }
      ],
      "name": "withdraw",
      "outputs": [
        {
          "internalType": "uint256",
          "name": "",
          "type": "uint256"
        },
        {
          "internalType": "uint256",
          "name": "",
          "type": "uint256"
        }
      ],
      "stateMutability": "nonpayable",
      "type": "function"
    }
  ],
  "transactionHash": "0x92caef82ae9001d1677eede300e05aaaa0aa3d9ea58ae9675e75a555ff56d8c9",
  "args": [
    [
      "0x3edd0c7cec29179d45431471e413be197fb31446",
      "0xae13d989dac2f0debff460ac112a837c89baa7cd",
      "0xac9b54f806af4b9451f1faa5293601d5006348ad",
      "0xa6D6240e5d5b6232996D58B6b3C4555c824deA73",
      "0x9ac64cc6e4415144c455bd8e4837fea55603e5c3",
      "0x91E85122eF92FF306EA47025efd00404CcaEEb19",
      "0x943e160E966e35F15c8D964e1FE05E37867D5671",
      "0xb25D37892305FE1b44c06F035139a0ED11EcA82d",
      "0x783557C3A2E98D58A9c6A0Fa10a475fcad62477f",
      "0x8ADB7044d41aC5B378281e0ebd9CD6eAC43a53F8"
    ],
    1,
    [
      "0xa6D6240e5d5b6232996D58B6b3C4555c824deA73",
      "0xae13d989dac2f0debff460ac112a837c89baa7cd",
      "0x43fC744c34b211cD57c6f0d1ddB4EA8BC504541b"
    ],
    [
      "0xa6D6240e5d5b6232996D58B6b3C4555c824deA73",
      "0xae13d989dac2f0debff460ac112a837c89baa7cd"
    ],
    [
      "0xa6D6240e5d5b6232996D58B6b3C4555c824deA73",
      "0xae13d989dac2f0debff460ac112a837c89baa7cd",
      "0xac9b54f806af4b9451f1faa5293601d5006348ad"
    ]
  ],
  "solcInputHash": "2b5d29f5c93056a0a0d71fd6ab7a06ab",
  "bytecode": "0x61016060405260006007819055600855612706600955610190600a556102ee600b5560fa600c556103b6600d556011805460ff191690553480156200004357600080fd5b50604051620036833803806200368383398101604081905262000066916200067c565b600080546001600160a01b0319163390811782556040519091829160008051602062003663833981519152908290a3506001805583620000db5760405162461bcd60e51b8152600401620000d290602080825260049082015263085c1a5960e21b604082015260600190565b60405180910390fd5b84600081518110620000fd57634e487b7160e01b600052603260045260246000fd5b60200260200101516001600160a01b031660c0816001600160a01b031660601b81525050846001815181106200014357634e487b7160e01b600052603260045260246000fd5b60200260200101516001600160a01b031660e0816001600160a01b031660601b81525050846002815181106200018957634e487b7160e01b600052603260045260246000fd5b60200260200101516001600160a01b0316610100816001600160a01b031660601b8152505084600381518110620001d057634e487b7160e01b600052603260045260246000fd5b60200260200101516001600160a01b0316610120816001600160a01b031660601b81525050846004815181106200021757634e487b7160e01b600052603260045260246000fd5b60200260200101516001600160a01b0316610140816001600160a01b031660601b81525050846005815181106200025e57634e487b7160e01b600052603260045260246000fd5b602090810291909101015160601b6001600160601b03191660805260a084905260048054336001600160a01b0319909116179055845160019060069060009088906007908110620002bf57634e487b7160e01b600052603260045260246000fd5b60200260200101516001600160a01b03166001600160a01b0316815260200190815260200160002060006101000a81548160ff021916908315150217905550846008815181106200032057634e487b7160e01b600052603260045260246000fd5b6020026020010151600260006101000a8154816001600160a01b0302191690836001600160a01b03160217905550846009815181106200037057634e487b7160e01b600052603260045260246000fd5b602090810291909101810151600380546001600160a01b0319166001600160a01b039092169190911790558351620003af91600e91908601906200052e565b508151620003c590600f9060208501906200052e565b508051620003db9060109060208401906200052e565b5062000416856006815181106200040257634e487b7160e01b600052603260045260246000fd5b60200260200101516200042160201b60201c565b505050505062000750565b6000546001600160a01b031633146200047d5760405162461bcd60e51b815260206004820181905260248201527f4f776e61626c653a2063616c6c6572206973206e6f7420746865206f776e65726044820152606401620000d2565b6001600160a01b038116620004e45760405162461bcd60e51b815260206004820152602660248201527f4f776e61626c653a206e6577206f776e657220697320746865207a65726f206160448201526564647265737360d01b6064820152608401620000d2565b600080546040516001600160a01b03808516939216916000805160206200366383398151915291a3600080546001600160a01b0319166001600160a01b0392909216919091179055565b82805482825590600052602060002090810192821562000586579160200282015b828111156200058657825182546001600160a01b0319166001600160a01b039091161782556020909201916001909101906200054f565b506200059492915062000598565b5090565b5b8082111562000594576000815560010162000599565b80516001600160a01b0381168114620005c757600080fd5b919050565b600082601f830112620005dd578081fd5b815160206001600160401b0380831115620005fc57620005fc6200073a565b8260051b604051601f19603f830116810181811084821117156200062457620006246200073a565b6040528481528381019250868401828801850189101562000643578687fd5b8692505b8583101562000670576200065b81620005af565b84529284019260019290920191840162000647565b50979650505050505050565b600080600080600060a0868803121562000694578081fd5b85516001600160401b0380821115620006ab578283fd5b620006b989838a01620005cc565b9650602088015195506040880151915080821115620006d6578283fd5b620006e489838a01620005cc565b94506060880151915080821115620006fa578283fd5b6200070889838a01620005cc565b935060808801519150808211156200071e578283fd5b506200072d88828901620005cc565b9150509295509295909350565b634e487b7160e01b600052604160045260246000fd5b60805160601c60a05160c05160601c60e05160601c6101005160601c6101205160601c6101405160601c612d486200091b600039600081816105fa01528181610a8901528181610b8301528181610d7001528181611e4b01528181611f08015281816121e4015281816122390152818161228e01528181612480015281816124d6015261252c0152600081816106210152818161096201528181610a5701528181610b510152818161113e015281816115c701528181611662015281816121c2015261245e01526000818161052601528181610b2701528181610cd501528181610db80152818161226c015261250a0152600081816102f101528181610a2d01528181610c3001528181610d970152818161221701526124b40152600081816104ff01528181611042015281816111a801528181611ba501528181611c6301528181611cb10152818161216d015261240801526000818161058f0152818161067c015281816108ba01528181610f1601528181611afb01528181611d63015261238601526000818161037b015281816106ab015281816108e701528181610f4401528181611b2801528181611d900152818161218f015281816123b4015261242a0152612d486000f3fe608060405234801561001057600080fd5b50600436106102a05760003560e01c80638778878211610167578063c89039c5116100ce578063f106845411610087578063f10684541461058a578063f2fde38b146105b1578063f384a44c146105c4578063f3fef3a3146105cd578063f887ea40146105f5578063fca3ece71461061c576102a0565b8063c89039c5146104fa578063d21220a714610521578063e695b9d914610548578063ec38a8621461055b578063ed0f43521461056e578063f0f4426014610577576102a0565b80639ae0ddaf116101205780639ae0ddaf1461049d5780639ec5a894146104a6578063a4874d77146104b9578063ab033ea9146104c1578063aff66095146104d4578063c32c1e65146104e7576102a0565b80638778878214610431578063879765831461043a5780638b33b4b21461045d5780638da5cb5b146104705780638fab591714610481578063952e6ee914610494576102a0565b8063575a86b21161020b57806367206d40116101c457806367206d40146103e9578063715018a6146103fc5780637215313d146104045780637a3404881461040d5780638456cb591461041657806384fa32ac1461041e576102a0565b8063575a86b2146103765780635aa6e6751461039d5780635b5be8dd146102a55780635c975abb146103b057806361d027b3146103cd578063649677e1146103e0576102a0565b806344a3955e1161025d57806344a3955e1461032e5780634641257d146103375780634700d3051461033f57806347e7ef24146103475780634adae0da1461035a578063512ab17114610363576102a0565b806304448370146102a5578063072140be146102c15780630dfe1681146102ec5780632838ee9c146103135780633e032a3b1461031b5780633f4ba83a14610324575b600080fd5b6102ae61271081565b6040519081526020015b60405180910390f35b6102d46102cf366004612a32565b610643565b6040516001600160a01b0390911681526020016102b8565b6102d47f000000000000000000000000000000000000000000000000000000000000000081565b6102ae61066d565b6102ae600d5481565b61032c610732565b005b6102ae60085481565b61032c6107ba565b61032c610ead565b6102ae6103553660046128ee565b610fa9565b6102ae60075481565b6102d4610371366004612a32565b6110dc565b6102d47f000000000000000000000000000000000000000000000000000000000000000081565b6004546102d4906001600160a01b031681565b6011546103bd9060ff1681565b60405190151581526020016102b8565b6003546102d4906001600160a01b031681565b6102ae60095481565b61032c6103f7366004612917565b6110ec565b61032c611229565b6102ae6103de81565b6102ae61032081565b61032c61129d565b61032c61042c366004612a8f565b6112f2565b6102ae600a5481565b6103bd6104483660046128d4565b60066020526000908152604090205460ff1681565b6005546102d4906001600160a01b031681565b6000546001600160a01b03166102d4565b61032c61048f3660046128d4565b6114f4565b6102ae600b5481565b6102ae6126de81565b6002546102d4906001600160a01b031681565b61032c61157d565b61032c6104cf3660046128d4565b61168e565b61032c6104e23660046128d4565b611728565b61032c6104f53660046128d4565b6117ae565b6102d47f000000000000000000000000000000000000000000000000000000000000000081565b6102d47f000000000000000000000000000000000000000000000000000000000000000081565b6102d4610556366004612a32565b611820565b61032c6105693660046128d4565b611830565b6102ae6103e881565b61032c6105853660046128d4565b6118a2565b6102ae7f000000000000000000000000000000000000000000000000000000000000000081565b61032c6105bf3660046128d4565b611914565b6102ae600c5481565b6105e06105db3660046128ee565b6119fe565b604080519283526020830191909152016102b8565b6102d47f000000000000000000000000000000000000000000000000000000000000000081565b6102d47f000000000000000000000000000000000000000000000000000000000000000081565b600f818154811061065357600080fd5b6000918252602090912001546001600160a01b0316905081565b604051631175a1dd60e01b81527f000000000000000000000000000000000000000000000000000000000000000060048201523060248201526000907f00000000000000000000000000000000000000000000000000000000000000006001600160a01b031690631175a1dd9060440160206040518083038186803b1580156106f557600080fd5b505afa158015610709573d6000803e3d6000fd5b505050506040513d601f19601f8201168201806040525081019061072d9190612a4a565b905090565b6000546001600160a01b031633146107655760405162461bcd60e51b815260040161075c90612ba5565b60405180910390fd5b60115460ff166107a15760405162461bcd60e51b8152602060048201526007602482015266085c185d5cd95960ca1b604482015260640161075c565b60006007556011805460ff191690556107b8611c93565b565b3360009081526006602052604090205460ff16806107e257506005546001600160a01b031633145b806107f757506004546001600160a01b031633145b6108305760405162461bcd60e51b815260206004820152600a60248201526910b430b93b32b9ba32b960b11b604482015260640161075c565b60115460ff16156108535760405162461bcd60e51b815260040161075c90612c00565b600260015414156108a65760405162461bcd60e51b815260206004820152601f60248201527f5265656e7472616e637947756172643a207265656e7472616e742063616c6c00604482015260640161075c565b6002600155604051630441a3e760e41b81527f00000000000000000000000000000000000000000000000000000000000000006004820152600060248201527f00000000000000000000000000000000000000000000000000000000000000006001600160a01b03169063441a3e7090604401600060405180830381600087803b15801561093357600080fd5b505af1158015610947573d6000803e3d6000fd5b50506040516370a0823160e01b8152306004820152600092507f00000000000000000000000000000000000000000000000000000000000000006001600160a01b031691506370a082319060240160206040518083038186803b1580156109ad57600080fd5b505afa1580156109c1573d6000803e3d6000fd5b505050506040513d601f19601f820116820180604052508101906109e59190612a4a565b90507f80f97f878e16410266694f134ddf012f2be424f54f8b5cafa107eccc51d00d5881604051610a1891815260200190565b60405180910390a1610a2981611df8565b90507f00000000000000000000000000000000000000000000000000000000000000006001600160a01b03167f00000000000000000000000000000000000000000000000000000000000000006001600160a01b031614610b2557610b257f0000000000000000000000000000000000000000000000000000000000000000610ab3600284612c8d565b600d54600f805480602002602001604051908101604052809291908181526020018280548015610b0c57602002820191906000526020600020905b81546001600160a01b03168152600190910190602001808311610aee575b50505050503042610258610b209190612c75565b611ff3565b7f00000000000000000000000000000000000000000000000000000000000000006001600160a01b03167f00000000000000000000000000000000000000000000000000000000000000006001600160a01b031614610c1857610c187f0000000000000000000000000000000000000000000000000000000000000000610bad600284612c8d565b600d546010805480602002602001604051908101604052809291908181526020018280548015610b0c576020028201919060005260206000209081546001600160a01b03168152600190910190602001808311610aee5750505050503042610258610b209190612c75565b6040516370a0823160e01b81523060048201526000907f00000000000000000000000000000000000000000000000000000000000000006001600160a01b0316906370a082319060240160206040518083038186803b158015610c7a57600080fd5b505afa158015610c8e573d6000803e3d6000fd5b505050506040513d601f19601f82011682018060405250810190610cb29190612a4a565b6040516370a0823160e01b81523060048201529091506000906001600160a01b037f000000000000000000000000000000000000000000000000000000000000000016906370a082319060240160206040518083038186803b158015610d1757600080fd5b505afa158015610d2b573d6000803e3d6000fd5b505050506040513d601f19601f82011682018060405250810190610d4f9190612a4a565b9050600082118015610d615750600081115b15610e9c576001600160a01b037f00000000000000000000000000000000000000000000000000000000000000001663e8e337007f00000000000000000000000000000000000000000000000000000000000000007f0000000000000000000000000000000000000000000000000000000000000000858560008030610de942610258612c75565b60405160e08a901b6001600160e01b03191681526001600160a01b039889166004820152968816602488015260448701959095526064860193909352608485019190915260a484015290921660c482015260e481019190915261010401606060405180830381600087803b158015610e6057600080fd5b505af1158015610e74573d6000803e3d6000fd5b505050506040513d601f19601f82011682018060405250810190610e989190612a62565b5050505b610ea4611c93565b50506001805550565b6000546001600160a01b03163314610ed75760405162461bcd60e51b815260040161075c90612ba5565b60115460ff1615610efa5760405162461bcd60e51b815260040161075c90612c00565b6011805460ff19166001179055604051632989754760e11b81527f000000000000000000000000000000000000000000000000000000000000000060048201526001600160a01b037f00000000000000000000000000000000000000000000000000000000000000001690635312ea8e906024015b600060405180830381600087803b158015610f8957600080fd5b505af1158015610f9d573d6000803e3d6000fd5b505050506107b8612160565b600080546001600160a01b03163314610fd45760405162461bcd60e51b815260040161075c90612ba5565b60115460ff1615610ff75760405162461bcd60e51b815260040161075c90612c00565b6001600160a01b0383166110355760405162461bcd60e51b815260206004820152600560248201526410bab9b2b960d91b604482015260640161075c565b61106a6001600160a01b037f0000000000000000000000000000000000000000000000000000000000000000163330856122b4565b60075482901580159061107f57506000600854115b156110bc576127106007546009546008548661109b9190612cad565b6110a59190612cad565b6110af9190612c8d565b6110b99190612c8d565b90505b806008546110ca9190612c75565b6008556110d5611c93565b9392505050565b6010818154811061065357600080fd5b6004546001600160a01b031633146111165760405162461bcd60e51b815260040161075c90612b5b565b6001600160a01b03811661113c5760405162461bcd60e51b815260040161075c90612bda565b7f00000000000000000000000000000000000000000000000000000000000000006001600160a01b0316836001600160a01b031614156111a65760405162461bcd60e51b8152602060048201526005602482015264217361666560d81b604482015260640161075c565b7f00000000000000000000000000000000000000000000000000000000000000006001600160a01b0316836001600160a01b031614156112105760405162461bcd60e51b8152602060048201526005602482015264217361666560d81b604482015260640161075c565b6112246001600160a01b0384168284612325565b505050565b6000546001600160a01b031633146112535760405162461bcd60e51b815260040161075c90612ba5565b600080546040516001600160a01b03909116907f8be0079c531659141344cd1fd0a4f28419497f9722a3daafe3b4186f6b6457e0908390a3600080546001600160a01b0319169055565b6000546001600160a01b031633146112c75760405162461bcd60e51b815260040161075c90612ba5565b60115460ff16156112ea5760405162461bcd60e51b815260040161075c90612c00565b6107b8612355565b6005546001600160a01b031633148061131557506004546001600160a01b031633145b6113315760405162461bcd60e51b815260040161075c90612b80565b6126de8510156113745760405162461bcd60e51b815260206004820152600e60248201526d08595b9d1c985b98d9519959531360921b604482015260640161075c565b6127108511156113b85760405162461bcd60e51b815260206004820152600f60248201526e042cadce8e4c2dcc6ca8ccaca9ac2f608b1b604482015260640161075c565b60098590556103208411156114035760405162461bcd60e51b8152602060048201526011602482015270085c195c999bdc9b585b98d95199595553607a1b604482015260640161075c565b600a8490556103e86114158385612c75565b1461144f5760405162461bcd60e51b815260206004820152600a60248201526910b332b2a330b1ba37b960b11b604482015260640161075c565b600b839055600c8290556103de8111156114995760405162461bcd60e51b815260206004820152600b60248201526a085cdb1a5c1c1859d9555360aa1b604482015260640161075c565b600d819055604080518681526020810186905290810184905260608101839052608081018290527fc67e0b149a57a70fa44a531a46c2c6d8e0b242fa12f459f250012c3a5987d29a9060a00160405180910390a15050505050565b6005546001600160a01b031633148061151757506004546001600160a01b031633145b6115335760405162461bcd60e51b815260040161075c90612b80565b6001600160a01b0381166115595760405162461bcd60e51b815260040161075c90612bda565b6001600160a01b03166000908152600660205260409020805460ff19166001179055565b6000546001600160a01b031633146115a75760405162461bcd60e51b815260040161075c90612ba5565b6115af612355565b6040516370a0823160e01b81523060048201526000907f00000000000000000000000000000000000000000000000000000000000000006001600160a01b0316906370a082319060240160206040518083038186803b15801561161157600080fd5b505afa158015611625573d6000803e3d6000fd5b505050506040513d601f19601f820116820180604052508101906116499190612a4a565b9050801561168b5760035461168b906001600160a01b037f00000000000000000000000000000000000000000000000000000000000000008116911683612325565b50565b6004546001600160a01b031633146116b85760405162461bcd60e51b815260040161075c90612b5b565b6001600160a01b0381166116de5760405162461bcd60e51b815260040161075c90612bda565b600480546001600160a01b0319166001600160a01b0383169081179091556040517f24a8c4807b324a269a51827c3446b8ac1cc13810d7d0c0ca1efafabddd7b621990600090a250565b6005546001600160a01b031633148061174b57506004546001600160a01b031633145b6117675760405162461bcd60e51b815260040161075c90612b80565b6001600160a01b03811661178d5760405162461bcd60e51b815260040161075c90612bda565b6001600160a01b03166000908152600660205260409020805460ff19169055565b6004546001600160a01b031633146117d85760405162461bcd60e51b815260040161075c90612b5b565b6001600160a01b0381166117fe5760405162461bcd60e51b815260040161075c90612bda565b600580546001600160a01b0319166001600160a01b0392909216919091179055565b600e818154811061065357600080fd5b6004546001600160a01b0316331461185a5760405162461bcd60e51b815260040161075c90612b5b565b6001600160a01b0381166118805760405162461bcd60e51b815260040161075c90612bda565b600280546001600160a01b0319166001600160a01b0392909216919091179055565b6004546001600160a01b031633146118cc5760405162461bcd60e51b815260040161075c90612b5b565b6001600160a01b0381166118f25760405162461bcd60e51b815260040161075c90612bda565b600380546001600160a01b0319166001600160a01b0392909216919091179055565b6000546001600160a01b0316331461193e5760405162461bcd60e51b815260040161075c90612ba5565b6001600160a01b0381166119a35760405162461bcd60e51b815260206004820152602660248201527f4f776e61626c653a206e6577206f776e657220697320746865207a65726f206160448201526564647265737360d01b606482015260840161075c565b600080546040516001600160a01b03808516939216917f8be0079c531659141344cd1fd0a4f28419497f9722a3daafe3b4186f6b6457e091a3600080546001600160a01b0319166001600160a01b0392909216919091179055565b6000805481906001600160a01b03163314611a2b5760405162461bcd60e51b815260040161075c90612ba5565b6001600160a01b038416611a695760405162461bcd60e51b815260206004820152600560248201526410bab9b2b960d91b604482015260640161075c565b60008311611aa35760405162461bcd60e51b815260206004820152600760248201526608585b5bdd5b9d60ca1b604482015260640161075c565b600060075460085485611ab69190612cad565b611ac09190612c8d565b9050600854811115611ad157506008545b80600854611adf9190612ccc565b60085560115460ff16611b8d57604051630441a3e760e41b81527f00000000000000000000000000000000000000000000000000000000000000006004820152602481018590527f00000000000000000000000000000000000000000000000000000000000000006001600160a01b03169063441a3e7090604401600060405180830381600087803b158015611b7457600080fd5b505af1158015611b88573d6000803e3d6000fd5b505050505b6040516370a0823160e01b81523060048201526000907f00000000000000000000000000000000000000000000000000000000000000006001600160a01b0316906370a082319060240160206040518083038186803b158015611bef57600080fd5b505afa158015611c03573d6000803e3d6000fd5b505050506040513d601f19601f82011682018060405250810190611c279190612a4a565b905080851115611c35578094505b846007541015611c455760075494505b84600754611c539190612ccc565b600755611c8a6001600160a01b037f0000000000000000000000000000000000000000000000000000000000000000163387612325565b50949293505050565b6007546040516370a0823160e01b81523060048201529015906000907f00000000000000000000000000000000000000000000000000000000000000006001600160a01b0316906370a082319060240160206040518083038186803b158015611cfb57600080fd5b505afa158015611d0f573d6000803e3d6000fd5b505050506040513d601f19601f82011682018060405250810190611d339190612a4a565b905080600754611d439190612c75565b6007558115611d5457611d546123f3565b604051631c57762b60e31b81527f00000000000000000000000000000000000000000000000000000000000000006004820152602481018290527f00000000000000000000000000000000000000000000000000000000000000006001600160a01b03169063e2bbb15890604401600060405180830381600087803b158015611ddc57600080fd5b505af1158015611df0573d6000803e3d6000fd5b505050505050565b60008115611feb57600a5415611feb576000612710600a5484611e1b9190612cad565b611e259190612c8d565b905060006103e8600c5483611e3a9190612cad565b611e449190612c8d565b9050611ee47f000000000000000000000000000000000000000000000000000000000000000082600d54600e805480602002602001604051908101604052809291908181526020018280548015611ec457602002820191906000526020600020905b81546001600160a01b03168152600190910190602001808311611ea6575b50506003546001600160a01b03169250610b209150429050610258612c75565b60006103e8600b5484611ef79190612cad565b611f019190612c8d565b9050611fa17f000000000000000000000000000000000000000000000000000000000000000082600d54600e805480602002602001604051908101604052809291908181526020018280548015611f8157602002820191906000526020600020905b81546001600160a01b03168152600190910190602001808311611f63575b50506002546001600160a01b03169250610b209150429050610258612c75565b611fab8386612ccc565b60408051838152602081018590529196507f916ad8171ef8c567c7790377a142f0200f9565940680c06e30dd105cfd924968910160405180910390a15050505b50805b919050565b60405163d06ca61f60e01b81526000906001600160a01b0388169063d06ca61f906120249089908890600401612c20565b60006040518083038186803b15801561203c57600080fd5b505afa158015612050573d6000803e3d6000fd5b505050506040513d6000823e601f3d908101601f191682016040526120789190810190612952565b90506000816001835161208b9190612ccc565b815181106120a957634e487b7160e01b600052603260045260246000fd5b60200260200101519050876001600160a01b03166338ed1739886103e889856120d29190612cad565b6120dc9190612c8d565b8888886040518663ffffffff1660e01b81526004016120ff959493929190612c39565b600060405180830381600087803b15801561211957600080fd5b505af115801561212d573d6000803e3d6000fd5b505050506040513d6000823e601f3d908101601f191682016040526121559190810190612952565b505050505050505050565b6121b56001600160a01b037f0000000000000000000000000000000000000000000000000000000000000000167f0000000000000000000000000000000000000000000000000000000000000000600061254f565b61220a6001600160a01b037f0000000000000000000000000000000000000000000000000000000000000000167f0000000000000000000000000000000000000000000000000000000000000000600061254f565b61225f6001600160a01b037f0000000000000000000000000000000000000000000000000000000000000000167f0000000000000000000000000000000000000000000000000000000000000000600061254f565b6107b86001600160a01b037f0000000000000000000000000000000000000000000000000000000000000000167f0000000000000000000000000000000000000000000000000000000000000000600061254f565b6040516001600160a01b038085166024830152831660448201526064810182905261231f9085906323b872dd60e01b906084015b60408051601f198184030181529190526020810180516001600160e01b03166001600160e01b031990931692909217909152612673565b50505050565b6040516001600160a01b03831660248201526044810182905261122490849063a9059cbb60e01b906064016122e8565b60115460ff166107b8576011805460ff19166001179055600754156123eb57600754604051630441a3e760e41b81527f0000000000000000000000000000000000000000000000000000000000000000600482015260248101919091527f00000000000000000000000000000000000000000000000000000000000000006001600160a01b03169063441a3e7090604401610f6f565b6107b8612160565b6123fb612160565b6124516001600160a01b037f0000000000000000000000000000000000000000000000000000000000000000167f000000000000000000000000000000000000000000000000000000000000000060001961254f565b6124a76001600160a01b037f0000000000000000000000000000000000000000000000000000000000000000167f000000000000000000000000000000000000000000000000000000000000000060001961254f565b6124fd6001600160a01b037f0000000000000000000000000000000000000000000000000000000000000000167f000000000000000000000000000000000000000000000000000000000000000060001961254f565b6107b86001600160a01b037f0000000000000000000000000000000000000000000000000000000000000000167f00000000000000000000000000000000000000000000000000000000000000006000195b8015806125d85750604051636eb1769f60e11b81523060048201526001600160a01b03838116602483015284169063dd62ed3e9060440160206040518083038186803b15801561259e57600080fd5b505afa1580156125b2573d6000803e3d6000fd5b505050506040513d601f19601f820116820180604052508101906125d69190612a4a565b155b6126435760405162461bcd60e51b815260206004820152603660248201527f5361666545524332303a20617070726f76652066726f6d206e6f6e2d7a65726f60448201527520746f206e6f6e2d7a65726f20616c6c6f77616e636560501b606482015260840161075c565b6040516001600160a01b03831660248201526044810182905261122490849063095ea7b360e01b906064016122e8565b60006126c8826040518060400160405280602081526020017f5361666545524332303a206c6f772d6c6576656c2063616c6c206661696c6564815250856001600160a01b03166127459092919063ffffffff16565b80519091501561122457808060200190518101906126e69190612a12565b6112245760405162461bcd60e51b815260206004820152602a60248201527f5361666545524332303a204552433230206f7065726174696f6e20646964206e6044820152691bdd081cdd58d8d9595960b21b606482015260840161075c565b6060612754848460008561275c565b949350505050565b6060824710156127bd5760405162461bcd60e51b815260206004820152602660248201527f416464726573733a20696e73756666696369656e742062616c616e636520666f6044820152651c8818d85b1b60d21b606482015260840161075c565b843b61280b5760405162461bcd60e51b815260206004820152601d60248201527f416464726573733a2063616c6c20746f206e6f6e2d636f6e7472616374000000604482015260640161075c565b600080866001600160a01b031685876040516128279190612b0c565b60006040518083038185875af1925050503d8060008114612864576040519150601f19603f3d011682016040523d82523d6000602084013e612869565b606091505b5091509150612879828286612884565b979650505050505050565b606083156128935750816110d5565b8251156128a35782518084602001fd5b8160405162461bcd60e51b815260040161075c9190612b28565b80356001600160a01b0381168114611fee57600080fd5b6000602082840312156128e5578081fd5b6110d5826128bd565b60008060408385031215612900578081fd5b612909836128bd565b946020939093013593505050565b60008060006060848603121561292b578081fd5b612934846128bd565b925060208401359150612949604085016128bd565b90509250925092565b60006020808385031215612964578182fd5b825167ffffffffffffffff8082111561297b578384fd5b818501915085601f83011261298e578384fd5b8151818111156129a0576129a0612d25565b8060051b604051601f19603f830116810181811085821117156129c5576129c5612d25565b604052828152858101935084860182860187018a10156129e3578788fd5b8795505b83861015612a055780518552600195909501949386019386016129e7565b5098975050505050505050565b600060208284031215612a23578081fd5b815180151581146110d5578182fd5b600060208284031215612a43578081fd5b5035919050565b600060208284031215612a5b578081fd5b5051919050565b600080600060608486031215612a76578283fd5b8351925060208401519150604084015190509250925092565b600080600080600060a08688031215612aa6578081fd5b505083359560208501359550604085013594606081013594506080013592509050565b6000815180845260208085019450808401835b83811015612b015781516001600160a01b031687529582019590820190600101612adc565b509495945050505050565b60008251612b1e818460208701612ce3565b9190910192915050565b6000602082528251806020840152612b47816040850160208701612ce3565b601f01601f19169190910160400192915050565b6020808252600b908201526a21676f7665726e616e636560a81b604082015260600190565b6020808252600b908201526a216f7065726174696f6e7360a81b604082015260600190565b6020808252818101527f4f776e61626c653a2063616c6c6572206973206e6f7420746865206f776e6572604082015260600190565b6020808252600c908201526b7a65726f206164647265737360a01b604082015260600190565b6020808252600690820152651c185d5cd95960d21b604082015260600190565b6000838252604060208301526127546040830184612ac9565b600086825285602083015260a06040830152612c5860a0830186612ac9565b6001600160a01b0394909416606083015250608001529392505050565b60008219821115612c8857612c88612d0f565b500190565b600082612ca857634e487b7160e01b81526012600452602481fd5b500490565b6000816000190483118215151615612cc757612cc7612d0f565b500290565b600082821015612cde57612cde612d0f565b500390565b60005b83811015612cfe578181015183820152602001612ce6565b8381111561231f5750506000910152565b634e487b7160e01b600052601160045260246000fd5b634e487b7160e01b600052604160045260246000fdfea164736f6c6343000803000a8be0079c531659141344cd1fd0a4f28419497f9722a3daafe3b4186f6b6457e0",
  "devdoc": {
    "details": "Implementation of the PancakeSwap LP Strategy. This contract will compound LP tokens. The owner of the contract is the BalleMaster contract.",
    "kind": "dev",
    "methods": {
      "addHarvester(address)": {
        "details": "Add a harvester address."
      },
      "constructor": {
        "details": "Implementation of PancakeSwap LP autocompounding strategy."
      },
      "deposit(address,uint256)": {
        "details": "Function to transfer tokens BalleMaster -> strategy and put it to work."
      },
      "harvest()": {
        "details": "Function to harvest earnings and reinvest."
      },
      "inCaseTokensGetStuck(address,uint256,address)": {
        "details": "Function to use from Governance Gnosis Safe multisig only in case tokens get stuck. This is to be used if someone, for example, sends tokens to the contract by mistake. There is no guarantee governance will vote to return these."
      },
      "owner()": {
        "details": "Returns the address of the current owner."
      },
      "panic()": {
        "details": "Stop the vault with emergencyWithdraw from farm."
      },
      "pause()": {
        "details": "Stop the vault."
      },
      "pendingEarnedToken()": {
        "details": "View function to see pending CAKEs on farm."
      },
      "removeHarvester(address)": {
        "details": "Remove a harvester address."
      },
      "renounceOwnership()": {
        "details": "Leaves the contract without owner. It will not be possible to call `onlyOwner` functions anymore. Can only be called by the current owner. NOTE: Renouncing ownership will leave the contract without an owner, thereby removing any functionality that is only available to the owner."
      },
      "retire()": {
        "details": "Retire the vault."
      },
      "setGovernance(address)": {
        "details": "Function to change the Governance Gnosis Safe multisig."
      },
      "setOperations(address)": {
        "details": "Function to change the Operations Gnosis Safe multisig."
      },
      "setRewards(address)": {
        "details": "Function to change the rewards address."
      },
      "setSettings(uint256,uint256,uint256,uint256,uint256)": {
        "details": "Function to change strategy settings."
      },
      "setTreasury(address)": {
        "details": "Function to change the treasury address."
      },
      "transferOwnership(address)": {
        "details": "Transfers ownership of the contract to a new account (`newOwner`). Can only be called by the current owner."
      },
      "unpause()": {
        "details": "Restart the vault."
      },
      "withdraw(address,uint256)": {
        "details": "Function to transfer tokens strategy -> BalleMaster."
      }
    },
    "version": 1
  },
  "userdoc": {
    "kind": "user",
    "methods": {},
    "version": 1
  },
  "storageLayout": {
    "storage": [
      {
        "astId": 7,
        "contract": "contracts/strategies/StratPancakeLpV2.sol:StratPancakeLpV2",
        "label": "_owner",
        "offset": 0,
        "slot": "0",
        "type": "t_address"
      },
      {
        "astId": 120,
        "contract": "contracts/strategies/StratPancakeLpV2.sol:StratPancakeLpV2",
        "label": "_status",
        "offset": 0,
        "slot": "1",
        "type": "t_uint256"
      },
      {
        "astId": 7138,
        "contract": "contracts/strategies/StratPancakeLpV2.sol:StratPancakeLpV2",
        "label": "rewards",
        "offset": 0,
        "slot": "2",
        "type": "t_address"
      },
      {
        "astId": 7140,
        "contract": "contracts/strategies/StratPancakeLpV2.sol:StratPancakeLpV2",
        "label": "treasury",
        "offset": 0,
        "slot": "3",
        "type": "t_address"
      },
      {
        "astId": 7142,
        "contract": "contracts/strategies/StratPancakeLpV2.sol:StratPancakeLpV2",
        "label": "governance",
        "offset": 0,
        "slot": "4",
        "type": "t_address"
      },
      {
        "astId": 7144,
        "contract": "contracts/strategies/StratPancakeLpV2.sol:StratPancakeLpV2",
        "label": "operations",
        "offset": 0,
        "slot": "5",
        "type": "t_address"
      },
      {
        "astId": 7148,
        "contract": "contracts/strategies/StratPancakeLpV2.sol:StratPancakeLpV2",
        "label": "harvesters",
        "offset": 0,
        "slot": "6",
        "type": "t_mapping(t_address,t_bool)"
      },
      {
        "astId": 7151,
        "contract": "contracts/strategies/StratPancakeLpV2.sol:StratPancakeLpV2",
        "label": "depositTotal",
        "offset": 0,
        "slot": "7",
        "type": "t_uint256"
      },
      {
        "astId": 7154,
        "contract": "contracts/strategies/StratPancakeLpV2.sol:StratPancakeLpV2",
        "label": "sharesTotal",
        "offset": 0,
        "slot": "8",
        "type": "t_uint256"
      },
      {
        "astId": 7157,
        "contract": "contracts/strategies/StratPancakeLpV2.sol:StratPancakeLpV2",
        "label": "entranceFee",
        "offset": 0,
        "slot": "9",
        "type": "t_uint256"
      },
      {
        "astId": 7166,
        "contract": "contracts/strategies/StratPancakeLpV2.sol:StratPancakeLpV2",
        "label": "performanceFee",
        "offset": 0,
        "slot": "10",
        "type": "t_uint256"
      },
      {
        "astId": 7175,
        "contract": "contracts/strategies/StratPancakeLpV2.sol:StratPancakeLpV2",
        "label": "rewardsFeeFactor",
        "offset": 0,
        "slot": "11",
        "type": "t_uint256"
      },
      {
        "astId": 7178,
        "contract": "contracts/strategies/StratPancakeLpV2.sol:StratPancakeLpV2",
        "label": "treasuryFeeFactor",
        "offset": 0,
        "slot": "12",
        "type": "t_uint256"
      },
      {
        "astId": 7184,
        "contract": "contracts/strategies/StratPancakeLpV2.sol:StratPancakeLpV2",
        "label": "slippage",
        "offset": 0,
        "slot": "13",
        "type": "t_uint256"
      },
      {
        "astId": 7190,
        "contract": "contracts/strategies/StratPancakeLpV2.sol:StratPancakeLpV2",
        "label": "earnedtokenToBallePath",
        "offset": 0,
        "slot": "14",
        "type": "t_array(t_address)dyn_storage"
      },
      {
        "astId": 7193,
        "contract": "contracts/strategies/StratPancakeLpV2.sol:StratPancakeLpV2",
        "label": "earnedtokenToToken0Path",
        "offset": 0,
        "slot": "15",
        "type": "t_array(t_address)dyn_storage"
      },
      {
        "astId": 7196,
        "contract": "contracts/strategies/StratPancakeLpV2.sol:StratPancakeLpV2",
        "label": "earnedtokenToToken1Path",
        "offset": 0,
        "slot": "16",
        "type": "t_array(t_address)dyn_storage"
      },
      {
        "astId": 7199,
        "contract": "contracts/strategies/StratPancakeLpV2.sol:StratPancakeLpV2",
        "label": "paused",
        "offset": 0,
        "slot": "17",
        "type": "t_bool"
      }
    ],
    "types": {
      "t_address": {
        "encoding": "inplace",
        "label": "address",
        "numberOfBytes": "20"
      },
      "t_array(t_address)dyn_storage": {
        "base": "t_address",
        "encoding": "dynamic_array",
        "label": "address[]",
        "numberOfBytes": "32"
      },
      "t_bool": {
        "encoding": "inplace",
        "label": "bool",
        "numberOfBytes": "1"
      },
      "t_mapping(t_address,t_bool)": {
        "encoding": "mapping",
        "key": "t_address",
        "label": "mapping(address => bool)",
        "numberOfBytes": "32",
        "value": "t_bool"
      },
      "t_uint256": {
        "encoding": "inplace",
        "label": "uint256",
        "numberOfBytes": "32"
      }
    }
  }
}