{
  "address": "0x5D8A3480fb5a7a00121C36480112d44A7694c3F5",
  "abi": [
    {
      "inputs": [
        {
          "internalType": "address",
          "name": "_balleMaster",
          "type": "address"
        },
        {
          "internalType": "address",
          "name": "_depositToken",
          "type": "address"
        },
        {
          "internalType": "address",
          "name": "_wantToken",
          "type": "address"
        }
      ],
      "stateMutability": "nonpayable",
      "type": "constructor"
    },
    {
      "anonymous": false,
      "inputs": [
        {
          "indexed": true,
          "internalType": "address",
          "name": "previousOwner",
          "type": "address"
        },
        {
          "indexed": true,
          "internalType": "address",
          "name": "newOwner",
          "type": "address"
        }
      ],
      "name": "OwnershipTransferred",
      "type": "event"
    },
    {
      "inputs": [],
      "name": "balleMaster",
      "outputs": [
        {
          "internalType": "address",
          "name": "",
          "type": "address"
        }
      ],
      "stateMutability": "view",
      "type": "function"
    },
    {
      "inputs": [
        {
          "internalType": "uint256",
          "name": "_amount",
          "type": "uint256"
        }
      ],
      "name": "deposit",
      "outputs": [
        {
          "internalType": "uint256",
          "name": "",
          "type": "uint256"
        }
      ],
      "stateMutability": "nonpayable",
      "type": "function"
    },
    {
      "inputs": [],
      "name": "depositToken",
      "outputs": [
        {
          "internalType": "address",
          "name": "",
          "type": "address"
        }
      ],
      "stateMutability": "view",
      "type": "function"
    },
    {
      "inputs": [],
      "name": "depositTotal",
      "outputs": [
        {
          "internalType": "uint256",
          "name": "",
          "type": "uint256"
        }
      ],
      "stateMutability": "view",
      "type": "function"
    },
    {
      "inputs": [],
      "name": "govAddress",
      "outputs": [
        {
          "internalType": "address",
          "name": "",
          "type": "address"
        }
      ],
      "stateMutability": "view",
      "type": "function"
    },
    {
      "inputs": [],
      "name": "harvest",
      "outputs": [],
      "stateMutability": "nonpayable",
      "type": "function"
    },
    {
      "inputs": [
        {
          "internalType": "address",
          "name": "_token",
          "type": "address"
        },
        {
          "internalType": "uint256",
          "name": "_amount",
          "type": "uint256"
        },
        {
          "internalType": "address",
          "name": "_to",
          "type": "address"
        }
      ],
      "name": "inCaseTokensGetStuck",
      "outputs": [],
      "stateMutability": "nonpayable",
      "type": "function"
    },
    {
      "inputs": [],
      "name": "owner",
      "outputs": [
        {
          "internalType": "address",
          "name": "",
          "type": "address"
        }
      ],
      "stateMutability": "view",
      "type": "function"
    },
    {
      "inputs": [],
      "name": "renounceOwnership",
      "outputs": [],
      "stateMutability": "nonpayable",
      "type": "function"
    },
    {
      "inputs": [
        {
          "internalType": "address",
          "name": "_govAddress",
          "type": "address"
        }
      ],
      "name": "setGov",
      "outputs": [],
      "stateMutability": "nonpayable",
      "type": "function"
    },
    {
      "inputs": [],
      "name": "sharesTotal",
      "outputs": [
        {
          "internalType": "uint256",
          "name": "",
          "type": "uint256"
        }
      ],
      "stateMutability": "view",
      "type": "function"
    },
    {
      "inputs": [
        {
          "internalType": "address",
          "name": "newOwner",
          "type": "address"
        }
      ],
      "name": "transferOwnership",
      "outputs": [],
      "stateMutability": "nonpayable",
      "type": "function"
    },
    {
      "inputs": [],
      "name": "wantToken",
      "outputs": [
        {
          "internalType": "address",
          "name": "",
          "type": "address"
        }
      ],
      "stateMutability": "view",
      "type": "function"
    },
    {
      "inputs": [],
      "name": "wantTotal",
      "outputs": [
        {
          "internalType": "uint256",
          "name": "",
          "type": "uint256"
        }
      ],
      "stateMutability": "view",
      "type": "function"
    },
    {
      "inputs": [
        {
          "internalType": "uint256",
          "name": "_amount",
          "type": "uint256"
        }
      ],
      "name": "withdraw",
      "outputs": [
        {
          "internalType": "uint256",
          "name": "",
          "type": "uint256"
        },
        {
          "internalType": "uint256",
          "name": "",
          "type": "uint256"
        },
        {
          "internalType": "uint256",
          "name": "",
          "type": "uint256"
        }
      ],
      "stateMutability": "nonpayable",
      "type": "function"
    }
  ],
  "transactionHash": "0xa13b22245a6db5582f39dadcdedc8cf4929a044f9c0ad1da520a63f330785b9a",
  "args": [
    "0x68c70f1054CdE29c57f2dbA092842FaF14A6c6C0",
    "0xF9E8dFa60b01c710f6f49bbFF9Fe510366DB1f34",
    "0xF9E8dFa60b01c710f6f49bbFF9Fe510366DB1f34"
  ],
  "solcInputHash": "051e042caf338cdcdf6b4b840f5a2f8e",
  "bytecode": "0x60806040526000600555600060065560006007553480156200002057600080fd5b5060405162001194380380620011948339810160408190526200004391620001fd565b600080546001600160a01b0319163390811782556040519091829160008051602062001174833981519152908290a350600180546001600160a01b038086166001600160a01b0319928316179092556002805485841690831617905560038054928416928216929092179091556004805490911633179055620000c683620000cf565b50505062000246565b6000546001600160a01b031633146200012f5760405162461bcd60e51b815260206004820181905260248201527f4f776e61626c653a2063616c6c6572206973206e6f7420746865206f776e657260448201526064015b60405180910390fd5b6001600160a01b038116620001965760405162461bcd60e51b815260206004820152602660248201527f4f776e61626c653a206e6577206f776e657220697320746865207a65726f206160448201526564647265737360d01b606482015260840162000126565b600080546040516001600160a01b03808516939216916000805160206200117483398151915291a3600080546001600160a01b0319166001600160a01b0392909216919091179055565b80516001600160a01b0381168114620001f857600080fd5b919050565b60008060006060848603121562000212578283fd5b6200021d84620001e0565b92506200022d60208501620001e0565b91506200023d60408501620001e0565b90509250925092565b610f1e80620002566000396000f3fe608060405234801561001057600080fd5b50600436106100f55760003560e01c8063764afb5a11610097578063c89039c511610066578063c89039c5146101dd578063cfad57a2146101f0578063d23e048014610203578063f2fde38b14610216576100f5565b8063764afb5a1461019d5780638da5cb5b146101a6578063b6b55f25146101b7578063bb892620146101ca576100f5565b80634641257d116100d35780634641257d1461016f5780634adae0da1461017957806367206d4014610182578063715018a614610195576100f5565b80632e1a7d4d146100fa57806344a3955e1461012d57806346008a0714610144575b600080fd5b61010d610108366004610de2565b610229565b604080519384526020840192909252908201526060015b60405180910390f35b61013660065481565b604051908152602001610124565b600454610157906001600160a01b031681565b6040516001600160a01b039091168152602001610124565b610177610449565b005b61013660055481565b610177610190366004610d87565b610633565b61017761071b565b61013660075481565b6000546001600160a01b0316610157565b6101366101c5366004610de2565b6107bf565b600154610157906001600160a01b031681565b600254610157906001600160a01b031681565b6101776101fe366004610d6d565b6108bd565b600354610157906001600160a01b031681565b610177610224366004610d6d565b610922565b60008080336001600160a01b03166102496000546001600160a01b031690565b6001600160a01b0316146102a45760405162461bcd60e51b815260206004820181905260248201527f4f776e61626c653a2063616c6c6572206973206e6f7420746865206f776e657260448201526064015b60405180910390fd5b600084116102de5760405162461bcd60e51b815260206004820152600760248201526608585b5bdd5b9d60ca1b604482015260640161029b565b6002546040516370a0823160e01b81523060048201526000916001600160a01b0316906370a082319060240160206040518083038186803b15801561032257600080fd5b505afa158015610336573d6000803e3d6000fd5b505050506040513d601f19601f8201168201806040525081019061035a9190610dfa565b905080851115610368578094505b8460055410156103785760055494505b60006005546006548761038b9190610e99565b6103959190610e79565b90506006548111156103a657506006545b6000600654826007546103b99190610e99565b6103c39190610e79565b9050816006546103d39190610eb8565b6006556005546103e4908890610eb8565b6005556007546103f5908290610eb8565b60075560025461040f906001600160a01b03163389610a3c565b6003546002546001600160a01b0390811691161461043e5760035461043e906001600160a01b03163383610a3c565b909690945092505050565b6004546001600160a01b0316331461048c5760405162461bcd60e51b815260040161029b9060208082526004908201526310b3b7bb60e11b604082015260600190565b60055461049857610631565b6002546040516370a0823160e01b81523060048201526000916064916001600160a01b03909116906370a082319060240160206040518083038186803b1580156104e157600080fd5b505afa1580156104f5573d6000803e3d6000fd5b505050506040513d601f19601f820116820180604052508101906105199190610dfa565b6105239190610e79565b6003546002549192506001600160a01b03918216911614156105b9578060055461054d9190610e61565b6005556002546040516340c10f1960e01b8152306004820152602481018390526001600160a01b03909116906340c10f1990604401600060405180830381600087803b15801561059c57600080fd5b505af11580156105b0573d6000803e3d6000fd5b5050505061062f565b806007546105c79190610e61565b6007556003546040516340c10f1960e01b8152306004820152602481018390526001600160a01b03909116906340c10f1990604401600060405180830381600087803b15801561061657600080fd5b505af115801561062a573d6000803e3d6000fd5b505050505b505b565b6004546001600160a01b031633146106765760405162461bcd60e51b815260040161029b9060208082526004908201526310b3b7bb60e11b604082015260600190565b6003546001600160a01b03848116911614156106bc5760405162461bcd60e51b8152602060048201526005602482015264217361666560d81b604482015260640161029b565b6002546001600160a01b03848116911614156107025760405162461bcd60e51b8152602060048201526005602482015264217361666560d81b604482015260640161029b565b6107166001600160a01b0384168284610a3c565b505050565b6000546001600160a01b031633146107755760405162461bcd60e51b815260206004820181905260248201527f4f776e61626c653a2063616c6c6572206973206e6f7420746865206f776e6572604482015260640161029b565b600080546040516001600160a01b03909116907f8be0079c531659141344cd1fd0a4f28419497f9722a3daafe3b4186f6b6457e0908390a3600080546001600160a01b0319169055565b600080546001600160a01b0316331461081a5760405162461bcd60e51b815260206004820181905260248201527f4f776e61626c653a2063616c6c6572206973206e6f7420746865206f776e6572604482015260640161029b565b600082116108545760405162461bcd60e51b815260206004820152600760248201526608585b5bdd5b9d60ca1b604482015260640161029b565b60025461086c906001600160a01b0316333085610acc565b600554829015610893576005546006546108869085610e99565b6108909190610e79565b90505b806006546108a19190610e61565b6006556005546108b2908490610e61565b60055590505b919050565b6004546001600160a01b031633146109005760405162461bcd60e51b815260040161029b9060208082526004908201526310b3b7bb60e11b604082015260600190565b600480546001600160a01b0319166001600160a01b0392909216919091179055565b6000546001600160a01b0316331461097c5760405162461bcd60e51b815260206004820181905260248201527f4f776e61626c653a2063616c6c6572206973206e6f7420746865206f776e6572604482015260640161029b565b6001600160a01b0381166109e15760405162461bcd60e51b815260206004820152602660248201527f4f776e61626c653a206e6577206f776e657220697320746865207a65726f206160448201526564647265737360d01b606482015260840161029b565b600080546040516001600160a01b03808516939216917f8be0079c531659141344cd1fd0a4f28419497f9722a3daafe3b4186f6b6457e091a3600080546001600160a01b0319166001600160a01b0392909216919091179055565b6040516001600160a01b03831660248201526044810182905261071690849063a9059cbb60e01b906064015b60408051601f198184030181529190526020810180517bffffffffffffffffffffffffffffffffffffffffffffffffffffffff167fffffffff0000000000000000000000000000000000000000000000000000000090931692909217909152610b0a565b6040516001600160a01b0380851660248301528316604482015260648101829052610b049085906323b872dd60e01b90608401610a68565b50505050565b6000610b5f826040518060400160405280602081526020017f5361666545524332303a206c6f772d6c6576656c2063616c6c206661696c6564815250856001600160a01b0316610bdc9092919063ffffffff16565b8051909150156107165780806020019051810190610b7d9190610dc2565b6107165760405162461bcd60e51b815260206004820152602a60248201527f5361666545524332303a204552433230206f7065726174696f6e20646964206e6044820152691bdd081cdd58d8d9595960b21b606482015260840161029b565b6060610beb8484600085610bf5565b90505b9392505050565b606082471015610c565760405162461bcd60e51b815260206004820152602660248201527f416464726573733a20696e73756666696369656e742062616c616e636520666f6044820152651c8818d85b1b60d21b606482015260840161029b565b843b610ca45760405162461bcd60e51b815260206004820152601d60248201527f416464726573733a2063616c6c20746f206e6f6e2d636f6e7472616374000000604482015260640161029b565b600080866001600160a01b03168587604051610cc09190610e12565b60006040518083038185875af1925050503d8060008114610cfd576040519150601f19603f3d011682016040523d82523d6000602084013e610d02565b606091505b5091509150610d12828286610d1d565b979650505050505050565b60608315610d2c575081610bee565b825115610d3c5782518084602001fd5b8160405162461bcd60e51b815260040161029b9190610e2e565b80356001600160a01b03811681146108b857600080fd5b600060208284031215610d7e578081fd5b610bee82610d56565b600080600060608486031215610d9b578182fd5b610da484610d56565b925060208401359150610db960408501610d56565b90509250925092565b600060208284031215610dd3578081fd5b81518015158114610bee578182fd5b600060208284031215610df3578081fd5b5035919050565b600060208284031215610e0b578081fd5b5051919050565b60008251610e24818460208701610ecf565b9190910192915050565b6000602082528251806020840152610e4d816040850160208701610ecf565b601f01601f19169190910160400192915050565b60008219821115610e7457610e74610efb565b500190565b600082610e9457634e487b7160e01b81526012600452602481fd5b500490565b6000816000190483118215151615610eb357610eb3610efb565b500290565b600082821015610eca57610eca610efb565b500390565b60005b83811015610eea578181015183820152602001610ed2565b83811115610b045750506000910152565b634e487b7160e01b600052601160045260246000fdfea164736f6c6343000803000a8be0079c531659141344cd1fd0a4f28419497f9722a3daafe3b4186f6b6457e0",
  "devdoc": {
    "kind": "dev",
    "methods": {
      "constructor": {
        "details": "Implementation of strategy for testing. The strategy will \"mine\" TEST_LP tokens to simulate a working farm for testing purpouses. It's very simple to facilitate testing. Every time it's harvested, it will add 1% to TEST_LP balance. Will be improved to test fee distribution, etc."
      },
      "deposit(uint256)": {
        "details": "Function to transfer tokens BalleMaster -> strategy and put it to work. It will leave the tokens here, strategy only for testing purpouses."
      },
      "harvest()": {
        "details": "Function to harvest benefits and implement strategy steps. It will increase deposited tokens by 1% every time it's called."
      },
      "owner()": {
        "details": "Returns the address of the current owner."
      },
      "renounceOwnership()": {
        "details": "Leaves the contract without owner. It will not be possible to call `onlyOwner` functions anymore. Can only be called by the current owner. NOTE: Renouncing ownership will leave the contract without an owner, thereby removing any functionality that is only available to the owner."
      },
      "transferOwnership(address)": {
        "details": "Transfers ownership of the contract to a new account (`newOwner`). Can only be called by the current owner."
      },
      "withdraw(uint256)": {
        "details": "Function to transfer tokens strategy -> BalleMaster."
      }
    },
    "version": 1
  },
  "userdoc": {
    "kind": "user",
    "methods": {},
    "version": 1
  },
  "storageLayout": {
    "storage": [
      {
        "astId": 7,
        "contract": "contracts/test/TestStrategy.sol:TestStrategy",
        "label": "_owner",
        "offset": 0,
        "slot": "0",
        "type": "t_address"
      },
      {
        "astId": 1606,
        "contract": "contracts/test/TestStrategy.sol:TestStrategy",
        "label": "balleMaster",
        "offset": 0,
        "slot": "1",
        "type": "t_address"
      },
      {
        "astId": 1608,
        "contract": "contracts/test/TestStrategy.sol:TestStrategy",
        "label": "depositToken",
        "offset": 0,
        "slot": "2",
        "type": "t_address"
      },
      {
        "astId": 1610,
        "contract": "contracts/test/TestStrategy.sol:TestStrategy",
        "label": "wantToken",
        "offset": 0,
        "slot": "3",
        "type": "t_address"
      },
      {
        "astId": 1612,
        "contract": "contracts/test/TestStrategy.sol:TestStrategy",
        "label": "govAddress",
        "offset": 0,
        "slot": "4",
        "type": "t_address"
      },
      {
        "astId": 1615,
        "contract": "contracts/test/TestStrategy.sol:TestStrategy",
        "label": "depositTotal",
        "offset": 0,
        "slot": "5",
        "type": "t_uint256"
      },
      {
        "astId": 1618,
        "contract": "contracts/test/TestStrategy.sol:TestStrategy",
        "label": "sharesTotal",
        "offset": 0,
        "slot": "6",
        "type": "t_uint256"
      },
      {
        "astId": 1621,
        "contract": "contracts/test/TestStrategy.sol:TestStrategy",
        "label": "wantTotal",
        "offset": 0,
        "slot": "7",
        "type": "t_uint256"
      }
    ],
    "types": {
      "t_address": {
        "encoding": "inplace",
        "label": "address",
        "numberOfBytes": "20"
      },
      "t_uint256": {
        "encoding": "inplace",
        "label": "uint256",
        "numberOfBytes": "32"
      }
    }
  }
}